{
	"contracts/SafeMath.sol": {
		"SafeMath": {
			"abi": [
				{
					"inputs": [
						{
							"internalType": "uint256",
							"name": "a",
							"type": "uint256"
						},
						{
							"internalType": "uint256",
							"name": "b",
							"type": "uint256"
						}
					],
					"name": "add",
					"outputs": [
						{
							"internalType": "uint256",
							"name": "",
							"type": "uint256"
						}
					],
					"stateMutability": "pure",
					"type": "function"
				},
				{
					"inputs": [
						{
							"internalType": "int256",
							"name": "a",
							"type": "int256"
						},
						{
							"internalType": "int256",
							"name": "b",
							"type": "int256"
						}
					],
					"name": "add",
					"outputs": [
						{
							"internalType": "int256",
							"name": "",
							"type": "int256"
						}
					],
					"stateMutability": "pure",
					"type": "function"
				},
				{
					"inputs": [
						{
							"internalType": "uint256",
							"name": "a",
							"type": "uint256"
						},
						{
							"internalType": "uint256",
							"name": "b",
							"type": "uint256"
						}
					],
					"name": "mod",
					"outputs": [
						{
							"internalType": "uint256",
							"name": "",
							"type": "uint256"
						}
					],
					"stateMutability": "pure",
					"type": "function"
				},
				{
					"inputs": [
						{
							"internalType": "int256",
							"name": "a",
							"type": "int256"
						},
						{
							"internalType": "int256",
							"name": "b",
							"type": "int256"
						}
					],
					"name": "modInv",
					"outputs": [
						{
							"internalType": "int256",
							"name": "",
							"type": "int256"
						}
					],
					"stateMutability": "pure",
					"type": "function"
				},
				{
					"inputs": [
						{
							"internalType": "uint256",
							"name": "a",
							"type": "uint256"
						},
						{
							"internalType": "int256",
							"name": "b",
							"type": "int256"
						}
					],
					"name": "mul",
					"outputs": [
						{
							"internalType": "int256",
							"name": "",
							"type": "int256"
						}
					],
					"stateMutability": "pure",
					"type": "function"
				},
				{
					"inputs": [
						{
							"internalType": "int256",
							"name": "a",
							"type": "int256"
						},
						{
							"internalType": "int256",
							"name": "b",
							"type": "int256"
						}
					],
					"name": "mul",
					"outputs": [
						{
							"internalType": "int256",
							"name": "",
							"type": "int256"
						}
					],
					"stateMutability": "pure",
					"type": "function"
				},
				{
					"inputs": [
						{
							"internalType": "uint256",
							"name": "a",
							"type": "uint256"
						},
						{
							"internalType": "uint256",
							"name": "b",
							"type": "uint256"
						}
					],
					"name": "mul",
					"outputs": [
						{
							"internalType": "uint256",
							"name": "",
							"type": "uint256"
						}
					],
					"stateMutability": "pure",
					"type": "function"
				}
			],
			"devdoc": {
				"kind": "dev",
				"methods": {},
				"version": 1
			},
			"evm": {
				"assembly": "    /* \"contracts/SafeMath.sol\":110:7289  library SafeMath {... */\n  dataSize(sub_0)\n  dataOffset(sub_0)\n  0x0b\n  dup3\n  dup3\n  dup3\n  codecopy\n  dup1\n  mload\n  0x00\n  byte\n  0x73\n  eq\n  tag_1\n  jumpi\n  mstore(0x00, 0x4e487b7100000000000000000000000000000000000000000000000000000000)\n  mstore(0x04, 0x00)\n  revert(0x00, 0x24)\ntag_1:\n  mstore(0x00, address)\n  0x73\n  dup2\n  mstore8\n  dup3\n  dup2\n  return\nstop\n\nsub_0: assembly {\n        /* \"contracts/SafeMath.sol\":110:7289  library SafeMath {... */\n      eq(address, deployTimeAddress())\n      mstore(0x40, 0x80)\n      jumpi(tag_1, lt(calldatasize, 0x04))\n      shr(0xe0, calldataload(0x00))\n      dup1\n      0xa5f3c23b\n      gt\n      tag_9\n      jumpi\n      dup1\n      0xa5f3c23b\n      eq\n      tag_5\n      jumpi\n      dup1\n      0xbbe93d91\n      eq\n      tag_6\n      jumpi\n      dup1\n      0xc8a4ac9c\n      eq\n      tag_7\n      jumpi\n      dup1\n      0xf43f523a\n      eq\n      tag_8\n      jumpi\n      jump(tag_1)\n    tag_9:\n      dup1\n      0x28619888\n      eq\n      tag_2\n      jumpi\n      dup1\n      0x51e102f5\n      eq\n      tag_3\n      jumpi\n      dup1\n      0x771602f7\n      eq\n      tag_4\n      jumpi\n    tag_1:\n      0x00\n      dup1\n      revert\n        /* \"contracts/SafeMath.sol\":5201:5451  function modInv(int256 a, int256 b)... */\n    tag_2:\n      tag_10\n      0x04\n      dup1\n      calldatasize\n      sub\n      dup2\n      add\n      swap1\n      tag_11\n      swap2\n      swap1\n      tag_12\n      jump\t// in\n    tag_11:\n      tag_13\n      jump\t// in\n    tag_10:\n      mload(0x40)\n      tag_14\n      swap2\n      swap1\n      tag_15\n      jump\t// in\n    tag_14:\n      mload(0x40)\n      dup1\n      swap2\n      sub\n      swap1\n      return\n        /* \"contracts/SafeMath.sol\":1312:1443  function mul(uint256 a, int256 b)... */\n    tag_3:\n      tag_16\n      0x04\n      dup1\n      calldatasize\n      sub\n      dup2\n      add\n      swap1\n      tag_17\n      swap2\n      swap1\n      tag_18\n      jump\t// in\n    tag_17:\n      tag_19\n      jump\t// in\n    tag_16:\n      mload(0x40)\n      tag_20\n      swap2\n      swap1\n      tag_15\n      jump\t// in\n    tag_20:\n      mload(0x40)\n      dup1\n      swap2\n      sub\n      swap1\n      return\n        /* \"contracts/SafeMath.sol\":134:389  function add(uint256 a, uint256 b)... */\n    tag_4:\n      tag_21\n      0x04\n      dup1\n      calldatasize\n      sub\n      dup2\n      add\n      swap1\n      tag_22\n      swap2\n      swap1\n      tag_23\n      jump\t// in\n    tag_22:\n      tag_24\n      jump\t// in\n    tag_21:\n      mload(0x40)\n      tag_25\n      swap2\n      swap1\n      tag_26\n      jump\t// in\n    tag_25:\n      mload(0x40)\n      dup1\n      swap2\n      sub\n      swap1\n      return\n        /* \"contracts/SafeMath.sol\":395:646  function add(int256 a, int256 b)... */\n    tag_5:\n      tag_27\n      0x04\n      dup1\n      calldatasize\n      sub\n      dup2\n      add\n      swap1\n      tag_28\n      swap2\n      swap1\n      tag_12\n      jump\t// in\n    tag_28:\n      tag_29\n      jump\t// in\n    tag_27:\n      mload(0x40)\n      tag_30\n      swap2\n      swap1\n      tag_15\n      jump\t// in\n    tag_30:\n      mload(0x40)\n      dup1\n      swap2\n      sub\n      swap1\n      return\n        /* \"contracts/SafeMath.sol\":984:1306  function mul(int256 a, int256 b)... */\n    tag_6:\n      tag_31\n      0x04\n      dup1\n      calldatasize\n      sub\n      dup2\n      add\n      swap1\n      tag_32\n      swap2\n      swap1\n      tag_12\n      jump\t// in\n    tag_32:\n      tag_33\n      jump\t// in\n    tag_31:\n      mload(0x40)\n      tag_34\n      swap2\n      swap1\n      tag_15\n      jump\t// in\n    tag_34:\n      mload(0x40)\n      dup1\n      swap2\n      sub\n      swap1\n      return\n        /* \"contracts/SafeMath.sol\":652:978  function mul(uint256 a, uint256 b)... */\n    tag_7:\n      tag_35\n      0x04\n      dup1\n      calldatasize\n      sub\n      dup2\n      add\n      swap1\n      tag_36\n      swap2\n      swap1\n      tag_23\n      jump\t// in\n    tag_36:\n      tag_37\n      jump\t// in\n    tag_35:\n      mload(0x40)\n      tag_38\n      swap2\n      swap1\n      tag_26\n      jump\t// in\n    tag_38:\n      mload(0x40)\n      dup1\n      swap2\n      sub\n      swap1\n      return\n        /* \"contracts/SafeMath.sol\":1449:1697  function mod(uint256 a, uint256 b)... */\n    tag_8:\n      tag_39\n      0x04\n      dup1\n      calldatasize\n      sub\n      dup2\n      add\n      swap1\n      tag_40\n      swap2\n      swap1\n      tag_23\n      jump\t// in\n    tag_40:\n      tag_41\n      jump\t// in\n    tag_39:\n      mload(0x40)\n      tag_42\n      swap2\n      swap1\n      tag_26\n      jump\t// in\n    tag_42:\n      mload(0x40)\n      dup1\n      swap2\n      sub\n      swap1\n      return\n        /* \"contracts/SafeMath.sol\":5201:5451  function modInv(int256 a, int256 b)... */\n    tag_13:\n        /* \"contracts/SafeMath.sol\":5282:5288  int256 */\n      0x00\n        /* \"contracts/SafeMath.sol\":5304:5313  int start */\n      dup1\n        /* \"contracts/SafeMath.sol\":5326:5327  a */\n      dup4\n        /* \"contracts/SafeMath.sol\":5321:5322  1 */\n      0x01\n        /* \"contracts/SafeMath.sol\":5317:5318  b */\n      dup5\n        /* \"contracts/SafeMath.sol\":5317:5322  b - 1 */\n      tag_44\n      swap2\n      swap1\n      tag_45\n      jump\t// in\n    tag_44:\n        /* \"contracts/SafeMath.sol\":5316:5327  (b - 1) / a */\n      tag_46\n      swap2\n      swap1\n      tag_47\n      jump\t// in\n    tag_46:\n        /* \"contracts/SafeMath.sol\":5304:5327  int start = (b - 1) / a */\n      swap1\n      pop\n        /* \"contracts/SafeMath.sol\":5342:5347  int i */\n      0x00\n        /* \"contracts/SafeMath.sol\":5348:5353  start */\n      dup2\n        /* \"contracts/SafeMath.sol\":5342:5353  int i=start */\n      swap1\n      pop\n        /* \"contracts/SafeMath.sol\":5338:5425  for(int i=start; i< b;i++) {... */\n    tag_48:\n        /* \"contracts/SafeMath.sol\":5358:5359  b */\n      dup4\n        /* \"contracts/SafeMath.sol\":5355:5356  i */\n      dup2\n        /* \"contracts/SafeMath.sol\":5355:5359  i< b */\n      slt\n        /* \"contracts/SafeMath.sol\":5338:5425  for(int i=start; i< b;i++) {... */\n      iszero\n      tag_49\n      jumpi\n        /* \"contracts/SafeMath.sol\":5403:5404  1 */\n      0x01\n        /* \"contracts/SafeMath.sol\":5383:5399  floorMod(a*i, b) */\n      tag_51\n        /* \"contracts/SafeMath.sol\":5394:5395  i */\n      dup3\n        /* \"contracts/SafeMath.sol\":5392:5393  a */\n      dup8\n        /* \"contracts/SafeMath.sol\":5392:5395  a*i */\n      tag_52\n      swap2\n      swap1\n      tag_53\n      jump\t// in\n    tag_52:\n        /* \"contracts/SafeMath.sol\":5397:5398  b */\n      dup7\n        /* \"contracts/SafeMath.sol\":5383:5391  floorMod */\n      tag_54\n        /* \"contracts/SafeMath.sol\":5383:5399  floorMod(a*i, b) */\n      jump\t// in\n    tag_51:\n        /* \"contracts/SafeMath.sol\":5383:5404  floorMod(a*i, b) == 1 */\n      sub\n        /* \"contracts/SafeMath.sol\":5379:5414  if (floorMod(a*i, b) == 1) return i */\n      tag_55\n      jumpi\n        /* \"contracts/SafeMath.sol\":5413:5414  i */\n      dup1\n        /* \"contracts/SafeMath.sol\":5406:5414  return i */\n      swap3\n      pop\n      pop\n      pop\n      jump(tag_43)\n        /* \"contracts/SafeMath.sol\":5379:5414  if (floorMod(a*i, b) == 1) return i */\n    tag_55:\n        /* \"contracts/SafeMath.sol\":5360:5363  i++ */\n      dup1\n      dup1\n      0x01\n      add\n      swap2\n      pop\n      pop\n        /* \"contracts/SafeMath.sol\":5338:5425  for(int i=start; i< b;i++) {... */\n      jump(tag_48)\n    tag_49:\n      pop\n        /* \"contracts/SafeMath.sol\":5442:5444  -1 */\n      0xffffffffffffffffffffffffffffffffffffffffffffffffffffffffffffffff\n        /* \"contracts/SafeMath.sol\":5435:5444  return -1 */\n      swap2\n      pop\n      pop\n        /* \"contracts/SafeMath.sol\":5201:5451  function modInv(int256 a, int256 b)... */\n    tag_43:\n      swap3\n      swap2\n      pop\n      pop\n      jump\t// out\n        /* \"contracts/SafeMath.sol\":1312:1443  function mul(uint256 a, int256 b)... */\n    tag_19:\n        /* \"contracts/SafeMath.sol\":1391:1397  int256 */\n      0x00\n        /* \"contracts/SafeMath.sol\":1419:1436  mul(int256(a), b) */\n      tag_57\n        /* \"contracts/SafeMath.sol\":1430:1431  a */\n      dup4\n        /* \"contracts/SafeMath.sol\":1434:1435  b */\n      dup4\n        /* \"contracts/SafeMath.sol\":1419:1422  mul */\n      tag_33\n        /* \"contracts/SafeMath.sol\":1419:1436  mul(int256(a), b) */\n      jump\t// in\n    tag_57:\n        /* \"contracts/SafeMath.sol\":1412:1436  return mul(int256(a), b) */\n      swap1\n      pop\n        /* \"contracts/SafeMath.sol\":1312:1443  function mul(uint256 a, int256 b)... */\n      swap3\n      swap2\n      pop\n      pop\n      jump\t// out\n        /* \"contracts/SafeMath.sol\":134:389  function add(uint256 a, uint256 b)... */\n    tag_24:\n        /* \"contracts/SafeMath.sol\":214:221  uint256 */\n      0x00\n        /* \"contracts/SafeMath.sol\":237:246  uint256 c */\n      dup1\n        /* \"contracts/SafeMath.sol\":291:292  b */\n      dup3\n        /* \"contracts/SafeMath.sol\":288:289  a */\n      dup5\n        /* \"contracts/SafeMath.sol\":284:293  add(a, b) */\n      add\n        /* \"contracts/SafeMath.sol\":279:293  c := add(a, b) */\n      swap1\n      pop\n        /* \"contracts/SafeMath.sol\":330:331  b */\n      dup3\n        /* \"contracts/SafeMath.sol\":325:326  a */\n      dup5\n        /* \"contracts/SafeMath.sol\":321:322  c */\n      dup3\n        /* \"contracts/SafeMath.sol\":321:326  c - a */\n      tag_59\n      swap2\n      swap1\n      tag_60\n      jump\t// in\n    tag_59:\n        /* \"contracts/SafeMath.sol\":321:331  c - a == b */\n      eq\n        /* \"contracts/SafeMath.sol\":313:363  require(c - a == b, \"SafeMath: addition overflow\") */\n      tag_61\n      jumpi\n      mload(0x40)\n      0x08c379a000000000000000000000000000000000000000000000000000000000\n      dup2\n      mstore\n      0x04\n      add\n      tag_62\n      swap1\n      tag_63\n      jump\t// in\n    tag_62:\n      mload(0x40)\n      dup1\n      swap2\n      sub\n      swap1\n      revert\n    tag_61:\n        /* \"contracts/SafeMath.sol\":381:382  c */\n      dup1\n        /* \"contracts/SafeMath.sol\":374:382  return c */\n      swap2\n      pop\n      pop\n        /* \"contracts/SafeMath.sol\":134:389  function add(uint256 a, uint256 b)... */\n      swap3\n      swap2\n      pop\n      pop\n      jump\t// out\n        /* \"contracts/SafeMath.sol\":395:646  function add(int256 a, int256 b)... */\n    tag_29:\n        /* \"contracts/SafeMath.sol\":473:479  int256 */\n      0x00\n        /* \"contracts/SafeMath.sol\":495:503  int256 c */\n      dup1\n        /* \"contracts/SafeMath.sol\":548:549  b */\n      dup3\n        /* \"contracts/SafeMath.sol\":545:546  a */\n      dup5\n        /* \"contracts/SafeMath.sol\":541:550  add(a, b) */\n      add\n        /* \"contracts/SafeMath.sol\":536:550  c := add(a, b) */\n      swap1\n      pop\n        /* \"contracts/SafeMath.sol\":587:588  b */\n      dup3\n        /* \"contracts/SafeMath.sol\":582:583  a */\n      dup5\n        /* \"contracts/SafeMath.sol\":578:579  c */\n      dup3\n        /* \"contracts/SafeMath.sol\":578:583  c - a */\n      tag_65\n      swap2\n      swap1\n      tag_45\n      jump\t// in\n    tag_65:\n        /* \"contracts/SafeMath.sol\":578:588  c - a == b */\n      eq\n        /* \"contracts/SafeMath.sol\":570:620  require(c - a == b, \"SafeMath: addition overflow\") */\n      tag_66\n      jumpi\n      mload(0x40)\n      0x08c379a000000000000000000000000000000000000000000000000000000000\n      dup2\n      mstore\n      0x04\n      add\n      tag_67\n      swap1\n      tag_63\n      jump\t// in\n    tag_67:\n      mload(0x40)\n      dup1\n      swap2\n      sub\n      swap1\n      revert\n    tag_66:\n        /* \"contracts/SafeMath.sol\":638:639  c */\n      dup1\n        /* \"contracts/SafeMath.sol\":631:639  return c */\n      swap2\n      pop\n      pop\n        /* \"contracts/SafeMath.sol\":395:646  function add(int256 a, int256 b)... */\n      swap3\n      swap2\n      pop\n      pop\n      jump\t// out\n        /* \"contracts/SafeMath.sol\":984:1306  function mul(int256 a, int256 b)... */\n    tag_33:\n        /* \"contracts/SafeMath.sol\":1062:1068  int256 */\n      0x00\n        /* \"contracts/SafeMath.sol\":1093:1094  0 */\n      dup1\n        /* \"contracts/SafeMath.sol\":1088:1089  a */\n      dup4\n        /* \"contracts/SafeMath.sol\":1088:1094  a == 0 */\n      eq\n        /* \"contracts/SafeMath.sol\":1088:1104  a == 0 || b == 0 */\n      dup1\n      tag_69\n      jumpi\n      pop\n        /* \"contracts/SafeMath.sol\":1103:1104  0 */\n      0x00\n        /* \"contracts/SafeMath.sol\":1098:1099  b */\n      dup3\n        /* \"contracts/SafeMath.sol\":1098:1104  b == 0 */\n      eq\n        /* \"contracts/SafeMath.sol\":1088:1104  a == 0 || b == 0 */\n    tag_69:\n        /* \"contracts/SafeMath.sol\":1084:1139  if (a == 0 || b == 0) {... */\n      iszero\n      tag_70\n      jumpi\n        /* \"contracts/SafeMath.sol\":1127:1128  0 */\n      0x00\n        /* \"contracts/SafeMath.sol\":1120:1128  return 0 */\n      swap1\n      pop\n      jump(tag_68)\n        /* \"contracts/SafeMath.sol\":1084:1139  if (a == 0 || b == 0) {... */\n    tag_70:\n        /* \"contracts/SafeMath.sol\":1149:1157  int256 c */\n      0x00\n        /* \"contracts/SafeMath.sol\":1202:1203  b */\n      dup3\n        /* \"contracts/SafeMath.sol\":1199:1200  a */\n      dup5\n        /* \"contracts/SafeMath.sol\":1195:1204  mul(a, b) */\n      mul\n        /* \"contracts/SafeMath.sol\":1190:1204  c := mul(a, b) */\n      swap1\n      pop\n        /* \"contracts/SafeMath.sol\":1241:1242  b */\n      dup3\n        /* \"contracts/SafeMath.sol\":1236:1237  a */\n      dup5\n        /* \"contracts/SafeMath.sol\":1232:1233  c */\n      dup3\n        /* \"contracts/SafeMath.sol\":1232:1237  c / a */\n      tag_71\n      swap2\n      swap1\n      tag_47\n      jump\t// in\n    tag_71:\n        /* \"contracts/SafeMath.sol\":1232:1242  c / a == b */\n      eq\n        /* \"contracts/SafeMath.sol\":1224:1280  require(c / a == b, \"SafeMath: multiplication overflow\") */\n      tag_72\n      jumpi\n      mload(0x40)\n      0x08c379a000000000000000000000000000000000000000000000000000000000\n      dup2\n      mstore\n      0x04\n      add\n      tag_73\n      swap1\n      tag_74\n      jump\t// in\n    tag_73:\n      mload(0x40)\n      dup1\n      swap2\n      sub\n      swap1\n      revert\n    tag_72:\n        /* \"contracts/SafeMath.sol\":1298:1299  c */\n      dup1\n        /* \"contracts/SafeMath.sol\":1291:1299  return c */\n      swap2\n      pop\n      pop\n        /* \"contracts/SafeMath.sol\":984:1306  function mul(int256 a, int256 b)... */\n    tag_68:\n      swap3\n      swap2\n      pop\n      pop\n      jump\t// out\n        /* \"contracts/SafeMath.sol\":652:978  function mul(uint256 a, uint256 b)... */\n    tag_37:\n        /* \"contracts/SafeMath.sol\":732:739  uint256 */\n      0x00\n        /* \"contracts/SafeMath.sol\":764:765  0 */\n      dup1\n        /* \"contracts/SafeMath.sol\":759:760  a */\n      dup4\n        /* \"contracts/SafeMath.sol\":759:765  a == 0 */\n      eq\n        /* \"contracts/SafeMath.sol\":759:775  a == 0 || b == 0 */\n      dup1\n      tag_76\n      jumpi\n      pop\n        /* \"contracts/SafeMath.sol\":774:775  0 */\n      0x00\n        /* \"contracts/SafeMath.sol\":769:770  b */\n      dup3\n        /* \"contracts/SafeMath.sol\":769:775  b == 0 */\n      eq\n        /* \"contracts/SafeMath.sol\":759:775  a == 0 || b == 0 */\n    tag_76:\n        /* \"contracts/SafeMath.sol\":755:810  if (a == 0 || b == 0) {... */\n      iszero\n      tag_77\n      jumpi\n        /* \"contracts/SafeMath.sol\":798:799  0 */\n      0x00\n        /* \"contracts/SafeMath.sol\":791:799  return 0 */\n      swap1\n      pop\n      jump(tag_75)\n        /* \"contracts/SafeMath.sol\":755:810  if (a == 0 || b == 0) {... */\n    tag_77:\n        /* \"contracts/SafeMath.sol\":820:829  uint256 c */\n      0x00\n        /* \"contracts/SafeMath.sol\":874:875  b */\n      dup3\n        /* \"contracts/SafeMath.sol\":871:872  a */\n      dup5\n        /* \"contracts/SafeMath.sol\":867:876  mul(a, b) */\n      mul\n        /* \"contracts/SafeMath.sol\":862:876  c := mul(a, b) */\n      swap1\n      pop\n        /* \"contracts/SafeMath.sol\":913:914  b */\n      dup3\n        /* \"contracts/SafeMath.sol\":908:909  a */\n      dup5\n        /* \"contracts/SafeMath.sol\":904:905  c */\n      dup3\n        /* \"contracts/SafeMath.sol\":904:909  c / a */\n      tag_78\n      swap2\n      swap1\n      tag_79\n      jump\t// in\n    tag_78:\n        /* \"contracts/SafeMath.sol\":904:914  c / a == b */\n      eq\n        /* \"contracts/SafeMath.sol\":896:952  require(c / a == b, \"SafeMath: multiplication overflow\") */\n      tag_80\n      jumpi\n      mload(0x40)\n      0x08c379a000000000000000000000000000000000000000000000000000000000\n      dup2\n      mstore\n      0x04\n      add\n      tag_81\n      swap1\n      tag_74\n      jump\t// in\n    tag_81:\n      mload(0x40)\n      dup1\n      swap2\n      sub\n      swap1\n      revert\n    tag_80:\n        /* \"contracts/SafeMath.sol\":970:971  c */\n      dup1\n        /* \"contracts/SafeMath.sol\":963:971  return c */\n      swap2\n      pop\n      pop\n        /* \"contracts/SafeMath.sol\":652:978  function mul(uint256 a, uint256 b)... */\n    tag_75:\n      swap3\n      swap2\n      pop\n      pop\n      jump\t// out\n        /* \"contracts/SafeMath.sol\":1449:1697  function mod(uint256 a, uint256 b)... */\n    tag_41:\n        /* \"contracts/SafeMath.sol\":1529:1536  uint256 */\n      0x00\n        /* \"contracts/SafeMath.sol\":1565:1566  0 */\n      dup1\n        /* \"contracts/SafeMath.sol\":1560:1561  b */\n      dup3\n        /* \"contracts/SafeMath.sol\":1560:1566  b != 0 */\n      sub\n        /* \"contracts/SafeMath.sol\":1552:1595  require(b != 0, \"SafeMath: modulo by zero\") */\n      tag_83\n      jumpi\n      mload(0x40)\n      0x08c379a000000000000000000000000000000000000000000000000000000000\n      dup2\n      mstore\n      0x04\n      add\n      tag_84\n      swap1\n      tag_85\n      jump\t// in\n    tag_84:\n      mload(0x40)\n      dup1\n      swap2\n      sub\n      swap1\n      revert\n    tag_83:\n        /* \"contracts/SafeMath.sol\":1606:1615  uint256 c */\n      0x00\n        /* \"contracts/SafeMath.sol\":1660:1661  b */\n      dup3\n        /* \"contracts/SafeMath.sol\":1657:1658  a */\n      dup5\n        /* \"contracts/SafeMath.sol\":1653:1662  mod(a, b) */\n      mod\n        /* \"contracts/SafeMath.sol\":1648:1662  c := mod(a, b) */\n      swap1\n      pop\n        /* \"contracts/SafeMath.sol\":1689:1690  c */\n      dup1\n        /* \"contracts/SafeMath.sol\":1682:1690  return c */\n      swap2\n      pop\n      pop\n        /* \"contracts/SafeMath.sol\":1449:1697  function mod(uint256 a, uint256 b)... */\n      swap3\n      swap2\n      pop\n      pop\n      jump\t// out\n        /* \"contracts/SafeMath.sol\":4910:5157  function floorMod(int256 a, int256 b)... */\n    tag_54:\n        /* \"contracts/SafeMath.sol\":4995:5001  int256 */\n      0x00\n        /* \"contracts/SafeMath.sol\":5031:5032  0 */\n      dup1\n        /* \"contracts/SafeMath.sol\":5026:5027  b */\n      dup3\n        /* \"contracts/SafeMath.sol\":5026:5032  b != 0 */\n      sub\n        /* \"contracts/SafeMath.sol\":5017:5033  require (b != 0) */\n      tag_87\n      jumpi\n      0x00\n      dup1\n      revert\n    tag_87:\n        /* \"contracts/SafeMath.sol\":5044:5052  int256 c */\n      0x00\n        /* \"contracts/SafeMath.sol\":5059:5060  b */\n      dup3\n        /* \"contracts/SafeMath.sol\":5055:5056  a */\n      dup5\n        /* \"contracts/SafeMath.sol\":5055:5060  a / b */\n      tag_88\n      swap2\n      swap1\n      tag_47\n      jump\t// in\n    tag_88:\n        /* \"contracts/SafeMath.sol\":5044:5060  int256 c = a / b */\n      swap1\n      pop\n        /* \"contracts/SafeMath.sol\":5077:5078  0 */\n      0x00\n        /* \"contracts/SafeMath.sol\":5073:5074  c */\n      dup2\n        /* \"contracts/SafeMath.sol\":5073:5078  c < 0 */\n      slt\n        /* \"contracts/SafeMath.sol\":5073:5092  c < 0 && a % b != 0 */\n      dup1\n      iszero\n      tag_89\n      jumpi\n      pop\n        /* \"contracts/SafeMath.sol\":5091:5092  0 */\n      0x00\n        /* \"contracts/SafeMath.sol\":5086:5087  b */\n      dup4\n        /* \"contracts/SafeMath.sol\":5082:5083  a */\n      dup6\n        /* \"contracts/SafeMath.sol\":5082:5087  a % b */\n      tag_90\n      swap2\n      swap1\n      tag_91\n      jump\t// in\n    tag_90:\n        /* \"contracts/SafeMath.sol\":5082:5092  a % b != 0 */\n      eq\n      iszero\n        /* \"contracts/SafeMath.sol\":5073:5092  c < 0 && a % b != 0 */\n    tag_89:\n        /* \"contracts/SafeMath.sol\":5070:5124  if(c < 0 && a % b != 0){... */\n      iszero\n      tag_92\n      jumpi\n        /* \"contracts/SafeMath.sol\":5112:5113  1 */\n      0x01\n        /* \"contracts/SafeMath.sol\":5107:5113  c -= 1 */\n      dup2\n      tag_93\n      swap2\n      swap1\n      tag_45\n      jump\t// in\n    tag_93:\n      swap1\n      pop\n        /* \"contracts/SafeMath.sol\":5070:5124  if(c < 0 && a % b != 0){... */\n    tag_92:\n        /* \"contracts/SafeMath.sol\":5149:5150  b */\n      dup3\n        /* \"contracts/SafeMath.sol\":5145:5146  c */\n      dup2\n        /* \"contracts/SafeMath.sol\":5145:5150  c * b */\n      tag_94\n      swap2\n      swap1\n      tag_53\n      jump\t// in\n    tag_94:\n        /* \"contracts/SafeMath.sol\":5141:5142  a */\n      dup5\n        /* \"contracts/SafeMath.sol\":5141:5150  a - c * b */\n      tag_95\n      swap2\n      swap1\n      tag_45\n      jump\t// in\n    tag_95:\n        /* \"contracts/SafeMath.sol\":5134:5150  return a - c * b */\n      swap2\n      pop\n      pop\n        /* \"contracts/SafeMath.sol\":4910:5157  function floorMod(int256 a, int256 b)... */\n      swap3\n      swap2\n      pop\n      pop\n      jump\t// out\n        /* \"#utility.yul\":88:205   */\n    tag_97:\n        /* \"#utility.yul\":197:198   */\n      0x00\n        /* \"#utility.yul\":194:195   */\n      dup1\n        /* \"#utility.yul\":187:199   */\n      revert\n        /* \"#utility.yul\":334:410   */\n    tag_99:\n        /* \"#utility.yul\":370:377   */\n      0x00\n        /* \"#utility.yul\":399:404   */\n      dup2\n        /* \"#utility.yul\":388:404   */\n      swap1\n      pop\n        /* \"#utility.yul\":334:410   */\n      swap2\n      swap1\n      pop\n      jump\t// out\n        /* \"#utility.yul\":416:536   */\n    tag_100:\n        /* \"#utility.yul\":488:511   */\n      tag_122\n        /* \"#utility.yul\":505:510   */\n      dup2\n        /* \"#utility.yul\":488:511   */\n      tag_99\n      jump\t// in\n    tag_122:\n        /* \"#utility.yul\":481:486   */\n      dup2\n        /* \"#utility.yul\":478:512   */\n      eq\n        /* \"#utility.yul\":468:530   */\n      tag_123\n      jumpi\n        /* \"#utility.yul\":526:527   */\n      0x00\n        /* \"#utility.yul\":523:524   */\n      dup1\n        /* \"#utility.yul\":516:528   */\n      revert\n        /* \"#utility.yul\":468:530   */\n    tag_123:\n        /* \"#utility.yul\":416:536   */\n      pop\n      jump\t// out\n        /* \"#utility.yul\":542:679   */\n    tag_101:\n        /* \"#utility.yul\":587:592   */\n      0x00\n        /* \"#utility.yul\":625:631   */\n      dup2\n        /* \"#utility.yul\":612:632   */\n      calldataload\n        /* \"#utility.yul\":603:632   */\n      swap1\n      pop\n        /* \"#utility.yul\":641:673   */\n      tag_125\n        /* \"#utility.yul\":667:672   */\n      dup2\n        /* \"#utility.yul\":641:673   */\n      tag_100\n      jump\t// in\n    tag_125:\n        /* \"#utility.yul\":542:679   */\n      swap3\n      swap2\n      pop\n      pop\n      jump\t// out\n        /* \"#utility.yul\":685:1155   */\n    tag_12:\n        /* \"#utility.yul\":751:757   */\n      0x00\n        /* \"#utility.yul\":759:765   */\n      dup1\n        /* \"#utility.yul\":808:810   */\n      0x40\n        /* \"#utility.yul\":796:805   */\n      dup4\n        /* \"#utility.yul\":787:794   */\n      dup6\n        /* \"#utility.yul\":783:806   */\n      sub\n        /* \"#utility.yul\":779:811   */\n      slt\n        /* \"#utility.yul\":776:895   */\n      iszero\n      tag_127\n      jumpi\n        /* \"#utility.yul\":814:893   */\n      tag_128\n      tag_97\n      jump\t// in\n    tag_128:\n        /* \"#utility.yul\":776:895   */\n    tag_127:\n        /* \"#utility.yul\":934:935   */\n      0x00\n        /* \"#utility.yul\":959:1011   */\n      tag_129\n        /* \"#utility.yul\":1003:1010   */\n      dup6\n        /* \"#utility.yul\":994:1000   */\n      dup3\n        /* \"#utility.yul\":983:992   */\n      dup7\n        /* \"#utility.yul\":979:1001   */\n      add\n        /* \"#utility.yul\":959:1011   */\n      tag_101\n      jump\t// in\n    tag_129:\n        /* \"#utility.yul\":949:1011   */\n      swap3\n      pop\n        /* \"#utility.yul\":905:1021   */\n      pop\n        /* \"#utility.yul\":1060:1062   */\n      0x20\n        /* \"#utility.yul\":1086:1138   */\n      tag_130\n        /* \"#utility.yul\":1130:1137   */\n      dup6\n        /* \"#utility.yul\":1121:1127   */\n      dup3\n        /* \"#utility.yul\":1110:1119   */\n      dup7\n        /* \"#utility.yul\":1106:1128   */\n      add\n        /* \"#utility.yul\":1086:1138   */\n      tag_101\n      jump\t// in\n    tag_130:\n        /* \"#utility.yul\":1076:1138   */\n      swap2\n      pop\n        /* \"#utility.yul\":1031:1148   */\n      pop\n        /* \"#utility.yul\":685:1155   */\n      swap3\n      pop\n      swap3\n      swap1\n      pop\n      jump\t// out\n        /* \"#utility.yul\":1161:1284   */\n    tag_102:\n        /* \"#utility.yul\":1254:1277   */\n      tag_132\n        /* \"#utility.yul\":1271:1276   */\n      dup2\n        /* \"#utility.yul\":1254:1277   */\n      tag_99\n      jump\t// in\n    tag_132:\n        /* \"#utility.yul\":1249:1252   */\n      dup3\n        /* \"#utility.yul\":1242:1278   */\n      mstore\n        /* \"#utility.yul\":1161:1284   */\n      pop\n      pop\n      jump\t// out\n        /* \"#utility.yul\":1290:1524   */\n    tag_15:\n        /* \"#utility.yul\":1389:1393   */\n      0x00\n        /* \"#utility.yul\":1427:1429   */\n      0x20\n        /* \"#utility.yul\":1416:1425   */\n      dup3\n        /* \"#utility.yul\":1412:1430   */\n      add\n        /* \"#utility.yul\":1404:1430   */\n      swap1\n      pop\n        /* \"#utility.yul\":1440:1517   */\n      tag_134\n        /* \"#utility.yul\":1514:1515   */\n      0x00\n        /* \"#utility.yul\":1503:1512   */\n      dup4\n        /* \"#utility.yul\":1499:1516   */\n      add\n        /* \"#utility.yul\":1490:1496   */\n      dup5\n        /* \"#utility.yul\":1440:1517   */\n      tag_102\n      jump\t// in\n    tag_134:\n        /* \"#utility.yul\":1290:1524   */\n      swap3\n      swap2\n      pop\n      pop\n      jump\t// out\n        /* \"#utility.yul\":1530:1607   */\n    tag_103:\n        /* \"#utility.yul\":1567:1574   */\n      0x00\n        /* \"#utility.yul\":1596:1601   */\n      dup2\n        /* \"#utility.yul\":1585:1601   */\n      swap1\n      pop\n        /* \"#utility.yul\":1530:1607   */\n      swap2\n      swap1\n      pop\n      jump\t// out\n        /* \"#utility.yul\":1613:1735   */\n    tag_104:\n        /* \"#utility.yul\":1686:1710   */\n      tag_137\n        /* \"#utility.yul\":1704:1709   */\n      dup2\n        /* \"#utility.yul\":1686:1710   */\n      tag_103\n      jump\t// in\n    tag_137:\n        /* \"#utility.yul\":1679:1684   */\n      dup2\n        /* \"#utility.yul\":1676:1711   */\n      eq\n        /* \"#utility.yul\":1666:1729   */\n      tag_138\n      jumpi\n        /* \"#utility.yul\":1725:1726   */\n      0x00\n        /* \"#utility.yul\":1722:1723   */\n      dup1\n        /* \"#utility.yul\":1715:1727   */\n      revert\n        /* \"#utility.yul\":1666:1729   */\n    tag_138:\n        /* \"#utility.yul\":1613:1735   */\n      pop\n      jump\t// out\n        /* \"#utility.yul\":1741:1880   */\n    tag_105:\n        /* \"#utility.yul\":1787:1792   */\n      0x00\n        /* \"#utility.yul\":1825:1831   */\n      dup2\n        /* \"#utility.yul\":1812:1832   */\n      calldataload\n        /* \"#utility.yul\":1803:1832   */\n      swap1\n      pop\n        /* \"#utility.yul\":1841:1874   */\n      tag_140\n        /* \"#utility.yul\":1868:1873   */\n      dup2\n        /* \"#utility.yul\":1841:1874   */\n      tag_104\n      jump\t// in\n    tag_140:\n        /* \"#utility.yul\":1741:1880   */\n      swap3\n      swap2\n      pop\n      pop\n      jump\t// out\n        /* \"#utility.yul\":1886:2358   */\n    tag_18:\n        /* \"#utility.yul\":1953:1959   */\n      0x00\n        /* \"#utility.yul\":1961:1967   */\n      dup1\n        /* \"#utility.yul\":2010:2012   */\n      0x40\n        /* \"#utility.yul\":1998:2007   */\n      dup4\n        /* \"#utility.yul\":1989:1996   */\n      dup6\n        /* \"#utility.yul\":1985:2008   */\n      sub\n        /* \"#utility.yul\":1981:2013   */\n      slt\n        /* \"#utility.yul\":1978:2097   */\n      iszero\n      tag_142\n      jumpi\n        /* \"#utility.yul\":2016:2095   */\n      tag_143\n      tag_97\n      jump\t// in\n    tag_143:\n        /* \"#utility.yul\":1978:2097   */\n    tag_142:\n        /* \"#utility.yul\":2136:2137   */\n      0x00\n        /* \"#utility.yul\":2161:2214   */\n      tag_144\n        /* \"#utility.yul\":2206:2213   */\n      dup6\n        /* \"#utility.yul\":2197:2203   */\n      dup3\n        /* \"#utility.yul\":2186:2195   */\n      dup7\n        /* \"#utility.yul\":2182:2204   */\n      add\n        /* \"#utility.yul\":2161:2214   */\n      tag_105\n      jump\t// in\n    tag_144:\n        /* \"#utility.yul\":2151:2214   */\n      swap3\n      pop\n        /* \"#utility.yul\":2107:2224   */\n      pop\n        /* \"#utility.yul\":2263:2265   */\n      0x20\n        /* \"#utility.yul\":2289:2341   */\n      tag_145\n        /* \"#utility.yul\":2333:2340   */\n      dup6\n        /* \"#utility.yul\":2324:2330   */\n      dup3\n        /* \"#utility.yul\":2313:2322   */\n      dup7\n        /* \"#utility.yul\":2309:2331   */\n      add\n        /* \"#utility.yul\":2289:2341   */\n      tag_101\n      jump\t// in\n    tag_145:\n        /* \"#utility.yul\":2279:2341   */\n      swap2\n      pop\n        /* \"#utility.yul\":2234:2351   */\n      pop\n        /* \"#utility.yul\":1886:2358   */\n      swap3\n      pop\n      swap3\n      swap1\n      pop\n      jump\t// out\n        /* \"#utility.yul\":2364:2838   */\n    tag_23:\n        /* \"#utility.yul\":2432:2438   */\n      0x00\n        /* \"#utility.yul\":2440:2446   */\n      dup1\n        /* \"#utility.yul\":2489:2491   */\n      0x40\n        /* \"#utility.yul\":2477:2486   */\n      dup4\n        /* \"#utility.yul\":2468:2475   */\n      dup6\n        /* \"#utility.yul\":2464:2487   */\n      sub\n        /* \"#utility.yul\":2460:2492   */\n      slt\n        /* \"#utility.yul\":2457:2576   */\n      iszero\n      tag_147\n      jumpi\n        /* \"#utility.yul\":2495:2574   */\n      tag_148\n      tag_97\n      jump\t// in\n    tag_148:\n        /* \"#utility.yul\":2457:2576   */\n    tag_147:\n        /* \"#utility.yul\":2615:2616   */\n      0x00\n        /* \"#utility.yul\":2640:2693   */\n      tag_149\n        /* \"#utility.yul\":2685:2692   */\n      dup6\n        /* \"#utility.yul\":2676:2682   */\n      dup3\n        /* \"#utility.yul\":2665:2674   */\n      dup7\n        /* \"#utility.yul\":2661:2683   */\n      add\n        /* \"#utility.yul\":2640:2693   */\n      tag_105\n      jump\t// in\n    tag_149:\n        /* \"#utility.yul\":2630:2693   */\n      swap3\n      pop\n        /* \"#utility.yul\":2586:2703   */\n      pop\n        /* \"#utility.yul\":2742:2744   */\n      0x20\n        /* \"#utility.yul\":2768:2821   */\n      tag_150\n        /* \"#utility.yul\":2813:2820   */\n      dup6\n        /* \"#utility.yul\":2804:2810   */\n      dup3\n        /* \"#utility.yul\":2793:2802   */\n      dup7\n        /* \"#utility.yul\":2789:2811   */\n      add\n        /* \"#utility.yul\":2768:2821   */\n      tag_105\n      jump\t// in\n    tag_150:\n        /* \"#utility.yul\":2758:2821   */\n      swap2\n      pop\n        /* \"#utility.yul\":2713:2831   */\n      pop\n        /* \"#utility.yul\":2364:2838   */\n      swap3\n      pop\n      swap3\n      swap1\n      pop\n      jump\t// out\n        /* \"#utility.yul\":2844:2970   */\n    tag_106:\n        /* \"#utility.yul\":2939:2963   */\n      tag_152\n        /* \"#utility.yul\":2957:2962   */\n      dup2\n        /* \"#utility.yul\":2939:2963   */\n      tag_103\n      jump\t// in\n    tag_152:\n        /* \"#utility.yul\":2934:2937   */\n      dup3\n        /* \"#utility.yul\":2927:2964   */\n      mstore\n        /* \"#utility.yul\":2844:2970   */\n      pop\n      pop\n      jump\t// out\n        /* \"#utility.yul\":2976:3214   */\n    tag_26:\n        /* \"#utility.yul\":3077:3081   */\n      0x00\n        /* \"#utility.yul\":3115:3117   */\n      0x20\n        /* \"#utility.yul\":3104:3113   */\n      dup3\n        /* \"#utility.yul\":3100:3118   */\n      add\n        /* \"#utility.yul\":3092:3118   */\n      swap1\n      pop\n        /* \"#utility.yul\":3128:3207   */\n      tag_154\n        /* \"#utility.yul\":3204:3205   */\n      0x00\n        /* \"#utility.yul\":3193:3202   */\n      dup4\n        /* \"#utility.yul\":3189:3206   */\n      add\n        /* \"#utility.yul\":3180:3186   */\n      dup5\n        /* \"#utility.yul\":3128:3207   */\n      tag_106\n      jump\t// in\n    tag_154:\n        /* \"#utility.yul\":2976:3214   */\n      swap3\n      swap2\n      pop\n      pop\n      jump\t// out\n        /* \"#utility.yul\":3220:3400   */\n    tag_107:\n        /* \"#utility.yul\":3268:3345   */\n      0x4e487b7100000000000000000000000000000000000000000000000000000000\n        /* \"#utility.yul\":3265:3266   */\n      0x00\n        /* \"#utility.yul\":3258:3346   */\n      mstore\n        /* \"#utility.yul\":3365:3369   */\n      0x11\n        /* \"#utility.yul\":3362:3363   */\n      0x04\n        /* \"#utility.yul\":3355:3370   */\n      mstore\n        /* \"#utility.yul\":3389:3393   */\n      0x24\n        /* \"#utility.yul\":3386:3387   */\n      0x00\n        /* \"#utility.yul\":3379:3394   */\n      revert\n        /* \"#utility.yul\":3406:3778   */\n    tag_45:\n        /* \"#utility.yul\":3445:3449   */\n      0x00\n        /* \"#utility.yul\":3465:3484   */\n      tag_157\n        /* \"#utility.yul\":3482:3483   */\n      dup3\n        /* \"#utility.yul\":3465:3484   */\n      tag_99\n      jump\t// in\n    tag_157:\n        /* \"#utility.yul\":3460:3484   */\n      swap2\n      pop\n        /* \"#utility.yul\":3498:3517   */\n      tag_158\n        /* \"#utility.yul\":3515:3516   */\n      dup4\n        /* \"#utility.yul\":3498:3517   */\n      tag_99\n      jump\t// in\n    tag_158:\n        /* \"#utility.yul\":3493:3517   */\n      swap3\n      pop\n        /* \"#utility.yul\":3541:3542   */\n      dup3\n        /* \"#utility.yul\":3538:3539   */\n      dup3\n        /* \"#utility.yul\":3534:3543   */\n      sub\n        /* \"#utility.yul\":3526:3543   */\n      swap1\n      pop\n        /* \"#utility.yul\":3735:3736   */\n      dup2\n        /* \"#utility.yul\":3729:3733   */\n      dup2\n        /* \"#utility.yul\":3725:3737   */\n      slt\n        /* \"#utility.yul\":3721:3722   */\n      0x00\n        /* \"#utility.yul\":3718:3719   */\n      dup5\n        /* \"#utility.yul\":3714:3723   */\n      slt\n        /* \"#utility.yul\":3710:3738   */\n      and\n        /* \"#utility.yul\":3693:3694   */\n      dup3\n        /* \"#utility.yul\":3687:3691   */\n      dup3\n        /* \"#utility.yul\":3683:3695   */\n      sgt\n        /* \"#utility.yul\":3678:3679   */\n      0x00\n        /* \"#utility.yul\":3675:3676   */\n      dup6\n        /* \"#utility.yul\":3671:3680   */\n      slt\n        /* \"#utility.yul\":3664:3681   */\n      iszero\n        /* \"#utility.yul\":3660:3696   */\n      and\n        /* \"#utility.yul\":3644:3748   */\n      or\n        /* \"#utility.yul\":3641:3771   */\n      iszero\n      tag_159\n      jumpi\n        /* \"#utility.yul\":3751:3769   */\n      tag_160\n      tag_107\n      jump\t// in\n    tag_160:\n        /* \"#utility.yul\":3641:3771   */\n    tag_159:\n        /* \"#utility.yul\":3406:3778   */\n      swap3\n      swap2\n      pop\n      pop\n      jump\t// out\n        /* \"#utility.yul\":3784:3964   */\n    tag_108:\n        /* \"#utility.yul\":3832:3909   */\n      0x4e487b7100000000000000000000000000000000000000000000000000000000\n        /* \"#utility.yul\":3829:3830   */\n      0x00\n        /* \"#utility.yul\":3822:3910   */\n      mstore\n        /* \"#utility.yul\":3929:3933   */\n      0x12\n        /* \"#utility.yul\":3926:3927   */\n      0x04\n        /* \"#utility.yul\":3919:3934   */\n      mstore\n        /* \"#utility.yul\":3953:3957   */\n      0x24\n        /* \"#utility.yul\":3950:3951   */\n      0x00\n        /* \"#utility.yul\":3943:3958   */\n      revert\n        /* \"#utility.yul\":3970:4355   */\n    tag_47:\n        /* \"#utility.yul\":4009:4010   */\n      0x00\n        /* \"#utility.yul\":4026:4045   */\n      tag_163\n        /* \"#utility.yul\":4043:4044   */\n      dup3\n        /* \"#utility.yul\":4026:4045   */\n      tag_99\n      jump\t// in\n    tag_163:\n        /* \"#utility.yul\":4021:4045   */\n      swap2\n      pop\n        /* \"#utility.yul\":4059:4078   */\n      tag_164\n        /* \"#utility.yul\":4076:4077   */\n      dup4\n        /* \"#utility.yul\":4059:4078   */\n      tag_99\n      jump\t// in\n    tag_164:\n        /* \"#utility.yul\":4054:4078   */\n      swap3\n      pop\n        /* \"#utility.yul\":4097:4098   */\n      dup3\n        /* \"#utility.yul\":4087:4122   */\n      tag_165\n      jumpi\n        /* \"#utility.yul\":4102:4120   */\n      tag_166\n      tag_108\n      jump\t// in\n    tag_166:\n        /* \"#utility.yul\":4087:4122   */\n    tag_165:\n        /* \"#utility.yul\":4288:4289   */\n      0x01\n        /* \"#utility.yul\":4285:4286   */\n      0x00\n        /* \"#utility.yul\":4281:4290   */\n      sub\n        /* \"#utility.yul\":4278:4279   */\n      dup4\n        /* \"#utility.yul\":4275:4291   */\n      eq\n        /* \"#utility.yul\":4194:4260   */\n      0x8000000000000000000000000000000000000000000000000000000000000000\n        /* \"#utility.yul\":4191:4192   */\n      dup4\n        /* \"#utility.yul\":4188:4261   */\n      eq\n        /* \"#utility.yul\":4171:4301   */\n      and\n        /* \"#utility.yul\":4168:4324   */\n      iszero\n      tag_167\n      jumpi\n        /* \"#utility.yul\":4304:4322   */\n      tag_168\n      tag_107\n      jump\t// in\n    tag_168:\n        /* \"#utility.yul\":4168:4324   */\n    tag_167:\n        /* \"#utility.yul\":4347:4348   */\n      dup3\n        /* \"#utility.yul\":4344:4345   */\n      dup3\n        /* \"#utility.yul\":4339:4349   */\n      sdiv\n        /* \"#utility.yul\":4334:4349   */\n      swap1\n      pop\n        /* \"#utility.yul\":3970:4355   */\n      swap3\n      swap2\n      pop\n      pop\n      jump\t// out\n        /* \"#utility.yul\":4361:4917   */\n    tag_53:\n        /* \"#utility.yul\":4400:4407   */\n      0x00\n        /* \"#utility.yul\":4423:4442   */\n      tag_170\n        /* \"#utility.yul\":4440:4441   */\n      dup3\n        /* \"#utility.yul\":4423:4442   */\n      tag_99\n      jump\t// in\n    tag_170:\n        /* \"#utility.yul\":4418:4442   */\n      swap2\n      pop\n        /* \"#utility.yul\":4456:4475   */\n      tag_171\n        /* \"#utility.yul\":4473:4474   */\n      dup4\n        /* \"#utility.yul\":4456:4475   */\n      tag_99\n      jump\t// in\n    tag_171:\n        /* \"#utility.yul\":4451:4475   */\n      swap3\n      pop\n        /* \"#utility.yul\":4510:4511   */\n      dup3\n        /* \"#utility.yul\":4507:4508   */\n      dup3\n        /* \"#utility.yul\":4503:4512   */\n      mul\n        /* \"#utility.yul\":4532:4561   */\n      tag_172\n        /* \"#utility.yul\":4549:4560   */\n      dup2\n        /* \"#utility.yul\":4532:4561   */\n      tag_99\n      jump\t// in\n    tag_172:\n        /* \"#utility.yul\":4521:4561   */\n      swap2\n      pop\n        /* \"#utility.yul\":4619:4685   */\n      0x8000000000000000000000000000000000000000000000000000000000000000\n        /* \"#utility.yul\":4616:4617   */\n      dup5\n        /* \"#utility.yul\":4613:4686   */\n      eq\n        /* \"#utility.yul\":4609:4610   */\n      0x00\n        /* \"#utility.yul\":4606:4607   */\n      dup5\n        /* \"#utility.yul\":4602:4611   */\n      slt\n        /* \"#utility.yul\":4598:4687   */\n      and\n        /* \"#utility.yul\":4595:4710   */\n      iszero\n      tag_173\n      jumpi\n        /* \"#utility.yul\":4690:4708   */\n      tag_174\n      tag_107\n      jump\t// in\n    tag_174:\n        /* \"#utility.yul\":4595:4710   */\n    tag_173:\n        /* \"#utility.yul\":4860:4861   */\n      dup3\n        /* \"#utility.yul\":4851:4858   */\n      dup3\n        /* \"#utility.yul\":4846:4862   */\n      sdiv\n        /* \"#utility.yul\":4843:4844   */\n      dup5\n        /* \"#utility.yul\":4840:4863   */\n      eq\n        /* \"#utility.yul\":4820:4821   */\n      dup4\n        /* \"#utility.yul\":4813:4822   */\n      iszero\n        /* \"#utility.yul\":4793:4877   */\n      or\n        /* \"#utility.yul\":4770:4910   */\n      tag_175\n      jumpi\n        /* \"#utility.yul\":4890:4908   */\n      tag_176\n      tag_107\n      jump\t// in\n    tag_176:\n        /* \"#utility.yul\":4770:4910   */\n    tag_175:\n        /* \"#utility.yul\":4408:4917   */\n      pop\n        /* \"#utility.yul\":4361:4917   */\n      swap3\n      swap2\n      pop\n      pop\n      jump\t// out\n        /* \"#utility.yul\":4923:5117   */\n    tag_60:\n        /* \"#utility.yul\":4963:4967   */\n      0x00\n        /* \"#utility.yul\":4983:5003   */\n      tag_178\n        /* \"#utility.yul\":5001:5002   */\n      dup3\n        /* \"#utility.yul\":4983:5003   */\n      tag_103\n      jump\t// in\n    tag_178:\n        /* \"#utility.yul\":4978:5003   */\n      swap2\n      pop\n        /* \"#utility.yul\":5017:5037   */\n      tag_179\n        /* \"#utility.yul\":5035:5036   */\n      dup4\n        /* \"#utility.yul\":5017:5037   */\n      tag_103\n      jump\t// in\n    tag_179:\n        /* \"#utility.yul\":5012:5037   */\n      swap3\n      pop\n        /* \"#utility.yul\":5061:5062   */\n      dup3\n        /* \"#utility.yul\":5058:5059   */\n      dup3\n        /* \"#utility.yul\":5054:5063   */\n      sub\n        /* \"#utility.yul\":5046:5063   */\n      swap1\n      pop\n        /* \"#utility.yul\":5085:5086   */\n      dup2\n        /* \"#utility.yul\":5079:5083   */\n      dup2\n        /* \"#utility.yul\":5076:5087   */\n      gt\n        /* \"#utility.yul\":5073:5110   */\n      iszero\n      tag_180\n      jumpi\n        /* \"#utility.yul\":5090:5108   */\n      tag_181\n      tag_107\n      jump\t// in\n    tag_181:\n        /* \"#utility.yul\":5073:5110   */\n    tag_180:\n        /* \"#utility.yul\":4923:5117   */\n      swap3\n      swap2\n      pop\n      pop\n      jump\t// out\n        /* \"#utility.yul\":5123:5292   */\n    tag_109:\n        /* \"#utility.yul\":5207:5218   */\n      0x00\n        /* \"#utility.yul\":5241:5247   */\n      dup3\n        /* \"#utility.yul\":5236:5239   */\n      dup3\n        /* \"#utility.yul\":5229:5248   */\n      mstore\n        /* \"#utility.yul\":5281:5285   */\n      0x20\n        /* \"#utility.yul\":5276:5279   */\n      dup3\n        /* \"#utility.yul\":5272:5286   */\n      add\n        /* \"#utility.yul\":5257:5286   */\n      swap1\n      pop\n        /* \"#utility.yul\":5123:5292   */\n      swap3\n      swap2\n      pop\n      pop\n      jump\t// out\n        /* \"#utility.yul\":5298:5475   */\n    tag_110:\n        /* \"#utility.yul\":5438:5467   */\n      0x536166654d6174683a206164646974696f6e206f766572666c6f770000000000\n        /* \"#utility.yul\":5434:5435   */\n      0x00\n        /* \"#utility.yul\":5426:5432   */\n      dup3\n        /* \"#utility.yul\":5422:5436   */\n      add\n        /* \"#utility.yul\":5415:5468   */\n      mstore\n        /* \"#utility.yul\":5298:5475   */\n      pop\n      jump\t// out\n        /* \"#utility.yul\":5481:5847   */\n    tag_111:\n        /* \"#utility.yul\":5623:5626   */\n      0x00\n        /* \"#utility.yul\":5644:5711   */\n      tag_185\n        /* \"#utility.yul\":5708:5710   */\n      0x1b\n        /* \"#utility.yul\":5703:5706   */\n      dup4\n        /* \"#utility.yul\":5644:5711   */\n      tag_109\n      jump\t// in\n    tag_185:\n        /* \"#utility.yul\":5637:5711   */\n      swap2\n      pop\n        /* \"#utility.yul\":5720:5813   */\n      tag_186\n        /* \"#utility.yul\":5809:5812   */\n      dup3\n        /* \"#utility.yul\":5720:5813   */\n      tag_110\n      jump\t// in\n    tag_186:\n        /* \"#utility.yul\":5838:5840   */\n      0x20\n        /* \"#utility.yul\":5833:5836   */\n      dup3\n        /* \"#utility.yul\":5829:5841   */\n      add\n        /* \"#utility.yul\":5822:5841   */\n      swap1\n      pop\n        /* \"#utility.yul\":5481:5847   */\n      swap2\n      swap1\n      pop\n      jump\t// out\n        /* \"#utility.yul\":5853:6272   */\n    tag_63:\n        /* \"#utility.yul\":6019:6023   */\n      0x00\n        /* \"#utility.yul\":6057:6059   */\n      0x20\n        /* \"#utility.yul\":6046:6055   */\n      dup3\n        /* \"#utility.yul\":6042:6060   */\n      add\n        /* \"#utility.yul\":6034:6060   */\n      swap1\n      pop\n        /* \"#utility.yul\":6106:6115   */\n      dup2\n        /* \"#utility.yul\":6100:6104   */\n      dup2\n        /* \"#utility.yul\":6096:6116   */\n      sub\n        /* \"#utility.yul\":6092:6093   */\n      0x00\n        /* \"#utility.yul\":6081:6090   */\n      dup4\n        /* \"#utility.yul\":6077:6094   */\n      add\n        /* \"#utility.yul\":6070:6117   */\n      mstore\n        /* \"#utility.yul\":6134:6265   */\n      tag_188\n        /* \"#utility.yul\":6260:6264   */\n      dup2\n        /* \"#utility.yul\":6134:6265   */\n      tag_111\n      jump\t// in\n    tag_188:\n        /* \"#utility.yul\":6126:6265   */\n      swap1\n      pop\n        /* \"#utility.yul\":5853:6272   */\n      swap2\n      swap1\n      pop\n      jump\t// out\n        /* \"#utility.yul\":6278:6498   */\n    tag_112:\n        /* \"#utility.yul\":6418:6452   */\n      0x536166654d6174683a206d756c7469706c69636174696f6e206f766572666c6f\n        /* \"#utility.yul\":6414:6415   */\n      0x00\n        /* \"#utility.yul\":6406:6412   */\n      dup3\n        /* \"#utility.yul\":6402:6416   */\n      add\n        /* \"#utility.yul\":6395:6453   */\n      mstore\n        /* \"#utility.yul\":6487:6490   */\n      0x7700000000000000000000000000000000000000000000000000000000000000\n        /* \"#utility.yul\":6482:6484   */\n      0x20\n        /* \"#utility.yul\":6474:6480   */\n      dup3\n        /* \"#utility.yul\":6470:6485   */\n      add\n        /* \"#utility.yul\":6463:6491   */\n      mstore\n        /* \"#utility.yul\":6278:6498   */\n      pop\n      jump\t// out\n        /* \"#utility.yul\":6504:6870   */\n    tag_113:\n        /* \"#utility.yul\":6646:6649   */\n      0x00\n        /* \"#utility.yul\":6667:6734   */\n      tag_191\n        /* \"#utility.yul\":6731:6733   */\n      0x21\n        /* \"#utility.yul\":6726:6729   */\n      dup4\n        /* \"#utility.yul\":6667:6734   */\n      tag_109\n      jump\t// in\n    tag_191:\n        /* \"#utility.yul\":6660:6734   */\n      swap2\n      pop\n        /* \"#utility.yul\":6743:6836   */\n      tag_192\n        /* \"#utility.yul\":6832:6835   */\n      dup3\n        /* \"#utility.yul\":6743:6836   */\n      tag_112\n      jump\t// in\n    tag_192:\n        /* \"#utility.yul\":6861:6863   */\n      0x40\n        /* \"#utility.yul\":6856:6859   */\n      dup3\n        /* \"#utility.yul\":6852:6864   */\n      add\n        /* \"#utility.yul\":6845:6864   */\n      swap1\n      pop\n        /* \"#utility.yul\":6504:6870   */\n      swap2\n      swap1\n      pop\n      jump\t// out\n        /* \"#utility.yul\":6876:7295   */\n    tag_74:\n        /* \"#utility.yul\":7042:7046   */\n      0x00\n        /* \"#utility.yul\":7080:7082   */\n      0x20\n        /* \"#utility.yul\":7069:7078   */\n      dup3\n        /* \"#utility.yul\":7065:7083   */\n      add\n        /* \"#utility.yul\":7057:7083   */\n      swap1\n      pop\n        /* \"#utility.yul\":7129:7138   */\n      dup2\n        /* \"#utility.yul\":7123:7127   */\n      dup2\n        /* \"#utility.yul\":7119:7139   */\n      sub\n        /* \"#utility.yul\":7115:7116   */\n      0x00\n        /* \"#utility.yul\":7104:7113   */\n      dup4\n        /* \"#utility.yul\":7100:7117   */\n      add\n        /* \"#utility.yul\":7093:7140   */\n      mstore\n        /* \"#utility.yul\":7157:7288   */\n      tag_194\n        /* \"#utility.yul\":7283:7287   */\n      dup2\n        /* \"#utility.yul\":7157:7288   */\n      tag_113\n      jump\t// in\n    tag_194:\n        /* \"#utility.yul\":7149:7288   */\n      swap1\n      pop\n        /* \"#utility.yul\":6876:7295   */\n      swap2\n      swap1\n      pop\n      jump\t// out\n        /* \"#utility.yul\":7301:7486   */\n    tag_79:\n        /* \"#utility.yul\":7341:7342   */\n      0x00\n        /* \"#utility.yul\":7358:7378   */\n      tag_196\n        /* \"#utility.yul\":7376:7377   */\n      dup3\n        /* \"#utility.yul\":7358:7378   */\n      tag_103\n      jump\t// in\n    tag_196:\n        /* \"#utility.yul\":7353:7378   */\n      swap2\n      pop\n        /* \"#utility.yul\":7392:7412   */\n      tag_197\n        /* \"#utility.yul\":7410:7411   */\n      dup4\n        /* \"#utility.yul\":7392:7412   */\n      tag_103\n      jump\t// in\n    tag_197:\n        /* \"#utility.yul\":7387:7412   */\n      swap3\n      pop\n        /* \"#utility.yul\":7431:7432   */\n      dup3\n        /* \"#utility.yul\":7421:7456   */\n      tag_198\n      jumpi\n        /* \"#utility.yul\":7436:7454   */\n      tag_199\n      tag_108\n      jump\t// in\n    tag_199:\n        /* \"#utility.yul\":7421:7456   */\n    tag_198:\n        /* \"#utility.yul\":7478:7479   */\n      dup3\n        /* \"#utility.yul\":7475:7476   */\n      dup3\n        /* \"#utility.yul\":7471:7480   */\n      div\n        /* \"#utility.yul\":7466:7480   */\n      swap1\n      pop\n        /* \"#utility.yul\":7301:7486   */\n      swap3\n      swap2\n      pop\n      pop\n      jump\t// out\n        /* \"#utility.yul\":7492:7666   */\n    tag_114:\n        /* \"#utility.yul\":7632:7658   */\n      0x536166654d6174683a206d6f64756c6f206279207a65726f0000000000000000\n        /* \"#utility.yul\":7628:7629   */\n      0x00\n        /* \"#utility.yul\":7620:7626   */\n      dup3\n        /* \"#utility.yul\":7616:7630   */\n      add\n        /* \"#utility.yul\":7609:7659   */\n      mstore\n        /* \"#utility.yul\":7492:7666   */\n      pop\n      jump\t// out\n        /* \"#utility.yul\":7672:8038   */\n    tag_115:\n        /* \"#utility.yul\":7814:7817   */\n      0x00\n        /* \"#utility.yul\":7835:7902   */\n      tag_202\n        /* \"#utility.yul\":7899:7901   */\n      0x18\n        /* \"#utility.yul\":7894:7897   */\n      dup4\n        /* \"#utility.yul\":7835:7902   */\n      tag_109\n      jump\t// in\n    tag_202:\n        /* \"#utility.yul\":7828:7902   */\n      swap2\n      pop\n        /* \"#utility.yul\":7911:8004   */\n      tag_203\n        /* \"#utility.yul\":8000:8003   */\n      dup3\n        /* \"#utility.yul\":7911:8004   */\n      tag_114\n      jump\t// in\n    tag_203:\n        /* \"#utility.yul\":8029:8031   */\n      0x20\n        /* \"#utility.yul\":8024:8027   */\n      dup3\n        /* \"#utility.yul\":8020:8032   */\n      add\n        /* \"#utility.yul\":8013:8032   */\n      swap1\n      pop\n        /* \"#utility.yul\":7672:8038   */\n      swap2\n      swap1\n      pop\n      jump\t// out\n        /* \"#utility.yul\":8044:8463   */\n    tag_85:\n        /* \"#utility.yul\":8210:8214   */\n      0x00\n        /* \"#utility.yul\":8248:8250   */\n      0x20\n        /* \"#utility.yul\":8237:8246   */\n      dup3\n        /* \"#utility.yul\":8233:8251   */\n      add\n        /* \"#utility.yul\":8225:8251   */\n      swap1\n      pop\n        /* \"#utility.yul\":8297:8306   */\n      dup2\n        /* \"#utility.yul\":8291:8295   */\n      dup2\n        /* \"#utility.yul\":8287:8307   */\n      sub\n        /* \"#utility.yul\":8283:8284   */\n      0x00\n        /* \"#utility.yul\":8272:8281   */\n      dup4\n        /* \"#utility.yul\":8268:8285   */\n      add\n        /* \"#utility.yul\":8261:8308   */\n      mstore\n        /* \"#utility.yul\":8325:8456   */\n      tag_205\n        /* \"#utility.yul\":8451:8455   */\n      dup2\n        /* \"#utility.yul\":8325:8456   */\n      tag_115\n      jump\t// in\n    tag_205:\n        /* \"#utility.yul\":8317:8456   */\n      swap1\n      pop\n        /* \"#utility.yul\":8044:8463   */\n      swap2\n      swap1\n      pop\n      jump\t// out\n        /* \"#utility.yul\":8469:8643   */\n    tag_91:\n        /* \"#utility.yul\":8500:8501   */\n      0x00\n        /* \"#utility.yul\":8517:8536   */\n      tag_207\n        /* \"#utility.yul\":8534:8535   */\n      dup3\n        /* \"#utility.yul\":8517:8536   */\n      tag_99\n      jump\t// in\n    tag_207:\n        /* \"#utility.yul\":8512:8536   */\n      swap2\n      pop\n        /* \"#utility.yul\":8550:8569   */\n      tag_208\n        /* \"#utility.yul\":8567:8568   */\n      dup4\n        /* \"#utility.yul\":8550:8569   */\n      tag_99\n      jump\t// in\n    tag_208:\n        /* \"#utility.yul\":8545:8569   */\n      swap3\n      pop\n        /* \"#utility.yul\":8588:8589   */\n      dup3\n        /* \"#utility.yul\":8578:8613   */\n      tag_209\n      jumpi\n        /* \"#utility.yul\":8593:8611   */\n      tag_210\n      tag_108\n      jump\t// in\n    tag_210:\n        /* \"#utility.yul\":8578:8613   */\n    tag_209:\n        /* \"#utility.yul\":8635:8636   */\n      dup3\n        /* \"#utility.yul\":8632:8633   */\n      dup3\n        /* \"#utility.yul\":8627:8637   */\n      smod\n        /* \"#utility.yul\":8622:8637   */\n      swap1\n      pop\n        /* \"#utility.yul\":8469:8643   */\n      swap3\n      swap2\n      pop\n      pop\n      jump\t// out\n\n    auxdata: 0xa26469706673582212209cf17be57acf7f51b77520344bfd94358b9d0d8d3515ac9053b7938b4b06dd6464736f6c63430008160033\n}\n",
				"bytecode": {
					"linkReferences": {},
					"object": "610a0361004e600b8282823980515f1a607314610042577f4e487b71000000000000000000000000000000000000000000000000000000005f525f60045260245ffd5b305f52607381538281f3fe7300000000000000000000000000000000000000003014608060405260043610610086575f3560e01c8063a5f3c23b11610064578063a5f3c23b1461011a578063bbe93d911461014a578063c8a4ac9c1461017a578063f43f523a146101aa57610086565b8063286198881461008a57806351e102f5146100ba578063771602f7146100ea575b5f80fd5b6100a4600480360381019061009f9190610517565b6101da565b6040516100b19190610564565b60405180910390f35b6100d460048036038101906100cf91906105b0565b610262565b6040516100e19190610564565b60405180910390f35b61010460048036038101906100ff91906105ee565b610275565b604051610111919061063b565b60405180910390f35b610134600480360381019061012f9190610517565b6102d3565b6040516101419190610564565b60405180910390f35b610164600480360381019061015f9190610517565b610331565b6040516101719190610564565b60405180910390f35b610194600480360381019061018f91906105ee565b6103aa565b6040516101a1919061063b565b60405180910390f35b6101c460048036038101906101bf91906105ee565b610423565b6040516101d1919061063b565b60405180910390f35b5f80836001846101ea9190610681565b6101f491906106ee565b90505f8190505b8381121561023657600161021a82876102149190610756565b86610476565b0361022957809250505061025c565b80806001019150506101fb565b507fffffffffffffffffffffffffffffffffffffffffffffffffffffffffffffffff9150505b92915050565b5f61026d8383610331565b905092915050565b5f80828401905082848261028991906107cc565b146102c9576040517f08c379a00000000000000000000000000000000000000000000000000000000081526004016102c090610859565b60405180910390fd5b8091505092915050565b5f8082840190508284826102e79190610681565b14610327576040517f08c379a000000000000000000000000000000000000000000000000000000000815260040161031e90610859565b60405180910390fd5b8091505092915050565b5f8083148061033f57505f82145b1561034c575f90506103a4565b5f828402905082848261035f91906106ee565b1461039f576040517f08c379a0000000000000000000000000000000000000000000000000000000008152600401610396906108e7565b60405180910390fd5b809150505b92915050565b5f808314806103b857505f82145b156103c5575f905061041d565b5f82840290508284826103d89190610905565b14610418576040517f08c379a000000000000000000000000000000000000000000000000000000000815260040161040f906108e7565b60405180910390fd5b809150505b92915050565b5f808203610466576040517f08c379a000000000000000000000000000000000000000000000000000000000815260040161045d9061097f565b60405180910390fd5b5f82840690508091505092915050565b5f808203610482575f80fd5b5f828461048f91906106ee565b90505f811280156104ab57505f83856104a8919061099d565b14155b156104c0576001816104bd9190610681565b90505b82816104cc9190610756565b846104d79190610681565b91505092915050565b5f80fd5b5f819050919050565b6104f6816104e4565b8114610500575f80fd5b50565b5f81359050610511816104ed565b92915050565b5f806040838503121561052d5761052c6104e0565b5b5f61053a85828601610503565b925050602061054b85828601610503565b9150509250929050565b61055e816104e4565b82525050565b5f6020820190506105775f830184610555565b92915050565b5f819050919050565b61058f8161057d565b8114610599575f80fd5b50565b5f813590506105aa81610586565b92915050565b5f80604083850312156105c6576105c56104e0565b5b5f6105d38582860161059c565b92505060206105e485828601610503565b9150509250929050565b5f8060408385031215610604576106036104e0565b5b5f6106118582860161059c565b92505060206106228582860161059c565b9150509250929050565b6106358161057d565b82525050565b5f60208201905061064e5f83018461062c565b92915050565b7f4e487b71000000000000000000000000000000000000000000000000000000005f52601160045260245ffd5b5f61068b826104e4565b9150610696836104e4565b925082820390508181125f8412168282135f8512151617156106bb576106ba610654565b5b92915050565b7f4e487b71000000000000000000000000000000000000000000000000000000005f52601260045260245ffd5b5f6106f8826104e4565b9150610703836104e4565b925082610713576107126106c1565b5b60015f0383147f80000000000000000000000000000000000000000000000000000000000000008314161561074b5761074a610654565b5b828205905092915050565b5f610760826104e4565b915061076b836104e4565b9250828202610779816104e4565b91507f800000000000000000000000000000000000000000000000000000000000000084145f841216156107b0576107af610654565b5b82820584148315176107c5576107c4610654565b5b5092915050565b5f6107d68261057d565b91506107e18361057d565b92508282039050818111156107f9576107f8610654565b5b92915050565b5f82825260208201905092915050565b7f536166654d6174683a206164646974696f6e206f766572666c6f7700000000005f82015250565b5f610843601b836107ff565b915061084e8261080f565b602082019050919050565b5f6020820190508181035f83015261087081610837565b9050919050565b7f536166654d6174683a206d756c7469706c69636174696f6e206f766572666c6f5f8201527f7700000000000000000000000000000000000000000000000000000000000000602082015250565b5f6108d16021836107ff565b91506108dc82610877565b604082019050919050565b5f6020820190508181035f8301526108fe816108c5565b9050919050565b5f61090f8261057d565b915061091a8361057d565b92508261092a576109296106c1565b5b828204905092915050565b7f536166654d6174683a206d6f64756c6f206279207a65726f00000000000000005f82015250565b5f6109696018836107ff565b915061097482610935565b602082019050919050565b5f6020820190508181035f8301526109968161095d565b9050919050565b5f6109a7826104e4565b91506109b2836104e4565b9250826109c2576109c16106c1565b5b82820790509291505056fea26469706673582212209cf17be57acf7f51b77520344bfd94358b9d0d8d3515ac9053b7938b4b06dd6464736f6c63430008160033",
					"opcodes": "PUSH2 0xA03 PUSH2 0x4E PUSH1 0xB DUP3 DUP3 DUP3 CODECOPY DUP1 MLOAD PUSH0 BYTE PUSH1 0x73 EQ PUSH2 0x42 JUMPI PUSH32 0x4E487B7100000000000000000000000000000000000000000000000000000000 PUSH0 MSTORE PUSH0 PUSH1 0x4 MSTORE PUSH1 0x24 PUSH0 REVERT JUMPDEST ADDRESS PUSH0 MSTORE PUSH1 0x73 DUP2 MSTORE8 DUP3 DUP2 RETURN INVALID PUSH20 0x0 ADDRESS EQ PUSH1 0x80 PUSH1 0x40 MSTORE PUSH1 0x4 CALLDATASIZE LT PUSH2 0x86 JUMPI PUSH0 CALLDATALOAD PUSH1 0xE0 SHR DUP1 PUSH4 0xA5F3C23B GT PUSH2 0x64 JUMPI DUP1 PUSH4 0xA5F3C23B EQ PUSH2 0x11A JUMPI DUP1 PUSH4 0xBBE93D91 EQ PUSH2 0x14A JUMPI DUP1 PUSH4 0xC8A4AC9C EQ PUSH2 0x17A JUMPI DUP1 PUSH4 0xF43F523A EQ PUSH2 0x1AA JUMPI PUSH2 0x86 JUMP JUMPDEST DUP1 PUSH4 0x28619888 EQ PUSH2 0x8A JUMPI DUP1 PUSH4 0x51E102F5 EQ PUSH2 0xBA JUMPI DUP1 PUSH4 0x771602F7 EQ PUSH2 0xEA JUMPI JUMPDEST PUSH0 DUP1 REVERT JUMPDEST PUSH2 0xA4 PUSH1 0x4 DUP1 CALLDATASIZE SUB DUP2 ADD SWAP1 PUSH2 0x9F SWAP2 SWAP1 PUSH2 0x517 JUMP JUMPDEST PUSH2 0x1DA JUMP JUMPDEST PUSH1 0x40 MLOAD PUSH2 0xB1 SWAP2 SWAP1 PUSH2 0x564 JUMP JUMPDEST PUSH1 0x40 MLOAD DUP1 SWAP2 SUB SWAP1 RETURN JUMPDEST PUSH2 0xD4 PUSH1 0x4 DUP1 CALLDATASIZE SUB DUP2 ADD SWAP1 PUSH2 0xCF SWAP2 SWAP1 PUSH2 0x5B0 JUMP JUMPDEST PUSH2 0x262 JUMP JUMPDEST PUSH1 0x40 MLOAD PUSH2 0xE1 SWAP2 SWAP1 PUSH2 0x564 JUMP JUMPDEST PUSH1 0x40 MLOAD DUP1 SWAP2 SUB SWAP1 RETURN JUMPDEST PUSH2 0x104 PUSH1 0x4 DUP1 CALLDATASIZE SUB DUP2 ADD SWAP1 PUSH2 0xFF SWAP2 SWAP1 PUSH2 0x5EE JUMP JUMPDEST PUSH2 0x275 JUMP JUMPDEST PUSH1 0x40 MLOAD PUSH2 0x111 SWAP2 SWAP1 PUSH2 0x63B JUMP JUMPDEST PUSH1 0x40 MLOAD DUP1 SWAP2 SUB SWAP1 RETURN JUMPDEST PUSH2 0x134 PUSH1 0x4 DUP1 CALLDATASIZE SUB DUP2 ADD SWAP1 PUSH2 0x12F SWAP2 SWAP1 PUSH2 0x517 JUMP JUMPDEST PUSH2 0x2D3 JUMP JUMPDEST PUSH1 0x40 MLOAD PUSH2 0x141 SWAP2 SWAP1 PUSH2 0x564 JUMP JUMPDEST PUSH1 0x40 MLOAD DUP1 SWAP2 SUB SWAP1 RETURN JUMPDEST PUSH2 0x164 PUSH1 0x4 DUP1 CALLDATASIZE SUB DUP2 ADD SWAP1 PUSH2 0x15F SWAP2 SWAP1 PUSH2 0x517 JUMP JUMPDEST PUSH2 0x331 JUMP JUMPDEST PUSH1 0x40 MLOAD PUSH2 0x171 SWAP2 SWAP1 PUSH2 0x564 JUMP JUMPDEST PUSH1 0x40 MLOAD DUP1 SWAP2 SUB SWAP1 RETURN JUMPDEST PUSH2 0x194 PUSH1 0x4 DUP1 CALLDATASIZE SUB DUP2 ADD SWAP1 PUSH2 0x18F SWAP2 SWAP1 PUSH2 0x5EE JUMP JUMPDEST PUSH2 0x3AA JUMP JUMPDEST PUSH1 0x40 MLOAD PUSH2 0x1A1 SWAP2 SWAP1 PUSH2 0x63B JUMP JUMPDEST PUSH1 0x40 MLOAD DUP1 SWAP2 SUB SWAP1 RETURN JUMPDEST PUSH2 0x1C4 PUSH1 0x4 DUP1 CALLDATASIZE SUB DUP2 ADD SWAP1 PUSH2 0x1BF SWAP2 SWAP1 PUSH2 0x5EE JUMP JUMPDEST PUSH2 0x423 JUMP JUMPDEST PUSH1 0x40 MLOAD PUSH2 0x1D1 SWAP2 SWAP1 PUSH2 0x63B JUMP JUMPDEST PUSH1 0x40 MLOAD DUP1 SWAP2 SUB SWAP1 RETURN JUMPDEST PUSH0 DUP1 DUP4 PUSH1 0x1 DUP5 PUSH2 0x1EA SWAP2 SWAP1 PUSH2 0x681 JUMP JUMPDEST PUSH2 0x1F4 SWAP2 SWAP1 PUSH2 0x6EE JUMP JUMPDEST SWAP1 POP PUSH0 DUP2 SWAP1 POP JUMPDEST DUP4 DUP2 SLT ISZERO PUSH2 0x236 JUMPI PUSH1 0x1 PUSH2 0x21A DUP3 DUP8 PUSH2 0x214 SWAP2 SWAP1 PUSH2 0x756 JUMP JUMPDEST DUP7 PUSH2 0x476 JUMP JUMPDEST SUB PUSH2 0x229 JUMPI DUP1 SWAP3 POP POP POP PUSH2 0x25C JUMP JUMPDEST DUP1 DUP1 PUSH1 0x1 ADD SWAP2 POP POP PUSH2 0x1FB JUMP JUMPDEST POP PUSH32 0xFFFFFFFFFFFFFFFFFFFFFFFFFFFFFFFFFFFFFFFFFFFFFFFFFFFFFFFFFFFFFFFF SWAP2 POP POP JUMPDEST SWAP3 SWAP2 POP POP JUMP JUMPDEST PUSH0 PUSH2 0x26D DUP4 DUP4 PUSH2 0x331 JUMP JUMPDEST SWAP1 POP SWAP3 SWAP2 POP POP JUMP JUMPDEST PUSH0 DUP1 DUP3 DUP5 ADD SWAP1 POP DUP3 DUP5 DUP3 PUSH2 0x289 SWAP2 SWAP1 PUSH2 0x7CC JUMP JUMPDEST EQ PUSH2 0x2C9 JUMPI PUSH1 0x40 MLOAD PUSH32 0x8C379A000000000000000000000000000000000000000000000000000000000 DUP2 MSTORE PUSH1 0x4 ADD PUSH2 0x2C0 SWAP1 PUSH2 0x859 JUMP JUMPDEST PUSH1 0x40 MLOAD DUP1 SWAP2 SUB SWAP1 REVERT JUMPDEST DUP1 SWAP2 POP POP SWAP3 SWAP2 POP POP JUMP JUMPDEST PUSH0 DUP1 DUP3 DUP5 ADD SWAP1 POP DUP3 DUP5 DUP3 PUSH2 0x2E7 SWAP2 SWAP1 PUSH2 0x681 JUMP JUMPDEST EQ PUSH2 0x327 JUMPI PUSH1 0x40 MLOAD PUSH32 0x8C379A000000000000000000000000000000000000000000000000000000000 DUP2 MSTORE PUSH1 0x4 ADD PUSH2 0x31E SWAP1 PUSH2 0x859 JUMP JUMPDEST PUSH1 0x40 MLOAD DUP1 SWAP2 SUB SWAP1 REVERT JUMPDEST DUP1 SWAP2 POP POP SWAP3 SWAP2 POP POP JUMP JUMPDEST PUSH0 DUP1 DUP4 EQ DUP1 PUSH2 0x33F JUMPI POP PUSH0 DUP3 EQ JUMPDEST ISZERO PUSH2 0x34C JUMPI PUSH0 SWAP1 POP PUSH2 0x3A4 JUMP JUMPDEST PUSH0 DUP3 DUP5 MUL SWAP1 POP DUP3 DUP5 DUP3 PUSH2 0x35F SWAP2 SWAP1 PUSH2 0x6EE JUMP JUMPDEST EQ PUSH2 0x39F JUMPI PUSH1 0x40 MLOAD PUSH32 0x8C379A000000000000000000000000000000000000000000000000000000000 DUP2 MSTORE PUSH1 0x4 ADD PUSH2 0x396 SWAP1 PUSH2 0x8E7 JUMP JUMPDEST PUSH1 0x40 MLOAD DUP1 SWAP2 SUB SWAP1 REVERT JUMPDEST DUP1 SWAP2 POP POP JUMPDEST SWAP3 SWAP2 POP POP JUMP JUMPDEST PUSH0 DUP1 DUP4 EQ DUP1 PUSH2 0x3B8 JUMPI POP PUSH0 DUP3 EQ JUMPDEST ISZERO PUSH2 0x3C5 JUMPI PUSH0 SWAP1 POP PUSH2 0x41D JUMP JUMPDEST PUSH0 DUP3 DUP5 MUL SWAP1 POP DUP3 DUP5 DUP3 PUSH2 0x3D8 SWAP2 SWAP1 PUSH2 0x905 JUMP JUMPDEST EQ PUSH2 0x418 JUMPI PUSH1 0x40 MLOAD PUSH32 0x8C379A000000000000000000000000000000000000000000000000000000000 DUP2 MSTORE PUSH1 0x4 ADD PUSH2 0x40F SWAP1 PUSH2 0x8E7 JUMP JUMPDEST PUSH1 0x40 MLOAD DUP1 SWAP2 SUB SWAP1 REVERT JUMPDEST DUP1 SWAP2 POP POP JUMPDEST SWAP3 SWAP2 POP POP JUMP JUMPDEST PUSH0 DUP1 DUP3 SUB PUSH2 0x466 JUMPI PUSH1 0x40 MLOAD PUSH32 0x8C379A000000000000000000000000000000000000000000000000000000000 DUP2 MSTORE PUSH1 0x4 ADD PUSH2 0x45D SWAP1 PUSH2 0x97F JUMP JUMPDEST PUSH1 0x40 MLOAD DUP1 SWAP2 SUB SWAP1 REVERT JUMPDEST PUSH0 DUP3 DUP5 MOD SWAP1 POP DUP1 SWAP2 POP POP SWAP3 SWAP2 POP POP JUMP JUMPDEST PUSH0 DUP1 DUP3 SUB PUSH2 0x482 JUMPI PUSH0 DUP1 REVERT JUMPDEST PUSH0 DUP3 DUP5 PUSH2 0x48F SWAP2 SWAP1 PUSH2 0x6EE JUMP JUMPDEST SWAP1 POP PUSH0 DUP2 SLT DUP1 ISZERO PUSH2 0x4AB JUMPI POP PUSH0 DUP4 DUP6 PUSH2 0x4A8 SWAP2 SWAP1 PUSH2 0x99D JUMP JUMPDEST EQ ISZERO JUMPDEST ISZERO PUSH2 0x4C0 JUMPI PUSH1 0x1 DUP2 PUSH2 0x4BD SWAP2 SWAP1 PUSH2 0x681 JUMP JUMPDEST SWAP1 POP JUMPDEST DUP3 DUP2 PUSH2 0x4CC SWAP2 SWAP1 PUSH2 0x756 JUMP JUMPDEST DUP5 PUSH2 0x4D7 SWAP2 SWAP1 PUSH2 0x681 JUMP JUMPDEST SWAP2 POP POP SWAP3 SWAP2 POP POP JUMP JUMPDEST PUSH0 DUP1 REVERT JUMPDEST PUSH0 DUP2 SWAP1 POP SWAP2 SWAP1 POP JUMP JUMPDEST PUSH2 0x4F6 DUP2 PUSH2 0x4E4 JUMP JUMPDEST DUP2 EQ PUSH2 0x500 JUMPI PUSH0 DUP1 REVERT JUMPDEST POP JUMP JUMPDEST PUSH0 DUP2 CALLDATALOAD SWAP1 POP PUSH2 0x511 DUP2 PUSH2 0x4ED JUMP JUMPDEST SWAP3 SWAP2 POP POP JUMP JUMPDEST PUSH0 DUP1 PUSH1 0x40 DUP4 DUP6 SUB SLT ISZERO PUSH2 0x52D JUMPI PUSH2 0x52C PUSH2 0x4E0 JUMP JUMPDEST JUMPDEST PUSH0 PUSH2 0x53A DUP6 DUP3 DUP7 ADD PUSH2 0x503 JUMP JUMPDEST SWAP3 POP POP PUSH1 0x20 PUSH2 0x54B DUP6 DUP3 DUP7 ADD PUSH2 0x503 JUMP JUMPDEST SWAP2 POP POP SWAP3 POP SWAP3 SWAP1 POP JUMP JUMPDEST PUSH2 0x55E DUP2 PUSH2 0x4E4 JUMP JUMPDEST DUP3 MSTORE POP POP JUMP JUMPDEST PUSH0 PUSH1 0x20 DUP3 ADD SWAP1 POP PUSH2 0x577 PUSH0 DUP4 ADD DUP5 PUSH2 0x555 JUMP JUMPDEST SWAP3 SWAP2 POP POP JUMP JUMPDEST PUSH0 DUP2 SWAP1 POP SWAP2 SWAP1 POP JUMP JUMPDEST PUSH2 0x58F DUP2 PUSH2 0x57D JUMP JUMPDEST DUP2 EQ PUSH2 0x599 JUMPI PUSH0 DUP1 REVERT JUMPDEST POP JUMP JUMPDEST PUSH0 DUP2 CALLDATALOAD SWAP1 POP PUSH2 0x5AA DUP2 PUSH2 0x586 JUMP JUMPDEST SWAP3 SWAP2 POP POP JUMP JUMPDEST PUSH0 DUP1 PUSH1 0x40 DUP4 DUP6 SUB SLT ISZERO PUSH2 0x5C6 JUMPI PUSH2 0x5C5 PUSH2 0x4E0 JUMP JUMPDEST JUMPDEST PUSH0 PUSH2 0x5D3 DUP6 DUP3 DUP7 ADD PUSH2 0x59C JUMP JUMPDEST SWAP3 POP POP PUSH1 0x20 PUSH2 0x5E4 DUP6 DUP3 DUP7 ADD PUSH2 0x503 JUMP JUMPDEST SWAP2 POP POP SWAP3 POP SWAP3 SWAP1 POP JUMP JUMPDEST PUSH0 DUP1 PUSH1 0x40 DUP4 DUP6 SUB SLT ISZERO PUSH2 0x604 JUMPI PUSH2 0x603 PUSH2 0x4E0 JUMP JUMPDEST JUMPDEST PUSH0 PUSH2 0x611 DUP6 DUP3 DUP7 ADD PUSH2 0x59C JUMP JUMPDEST SWAP3 POP POP PUSH1 0x20 PUSH2 0x622 DUP6 DUP3 DUP7 ADD PUSH2 0x59C JUMP JUMPDEST SWAP2 POP POP SWAP3 POP SWAP3 SWAP1 POP JUMP JUMPDEST PUSH2 0x635 DUP2 PUSH2 0x57D JUMP JUMPDEST DUP3 MSTORE POP POP JUMP JUMPDEST PUSH0 PUSH1 0x20 DUP3 ADD SWAP1 POP PUSH2 0x64E PUSH0 DUP4 ADD DUP5 PUSH2 0x62C JUMP JUMPDEST SWAP3 SWAP2 POP POP JUMP JUMPDEST PUSH32 0x4E487B7100000000000000000000000000000000000000000000000000000000 PUSH0 MSTORE PUSH1 0x11 PUSH1 0x4 MSTORE PUSH1 0x24 PUSH0 REVERT JUMPDEST PUSH0 PUSH2 0x68B DUP3 PUSH2 0x4E4 JUMP JUMPDEST SWAP2 POP PUSH2 0x696 DUP4 PUSH2 0x4E4 JUMP JUMPDEST SWAP3 POP DUP3 DUP3 SUB SWAP1 POP DUP2 DUP2 SLT PUSH0 DUP5 SLT AND DUP3 DUP3 SGT PUSH0 DUP6 SLT ISZERO AND OR ISZERO PUSH2 0x6BB JUMPI PUSH2 0x6BA PUSH2 0x654 JUMP JUMPDEST JUMPDEST SWAP3 SWAP2 POP POP JUMP JUMPDEST PUSH32 0x4E487B7100000000000000000000000000000000000000000000000000000000 PUSH0 MSTORE PUSH1 0x12 PUSH1 0x4 MSTORE PUSH1 0x24 PUSH0 REVERT JUMPDEST PUSH0 PUSH2 0x6F8 DUP3 PUSH2 0x4E4 JUMP JUMPDEST SWAP2 POP PUSH2 0x703 DUP4 PUSH2 0x4E4 JUMP JUMPDEST SWAP3 POP DUP3 PUSH2 0x713 JUMPI PUSH2 0x712 PUSH2 0x6C1 JUMP JUMPDEST JUMPDEST PUSH1 0x1 PUSH0 SUB DUP4 EQ PUSH32 0x8000000000000000000000000000000000000000000000000000000000000000 DUP4 EQ AND ISZERO PUSH2 0x74B JUMPI PUSH2 0x74A PUSH2 0x654 JUMP JUMPDEST JUMPDEST DUP3 DUP3 SDIV SWAP1 POP SWAP3 SWAP2 POP POP JUMP JUMPDEST PUSH0 PUSH2 0x760 DUP3 PUSH2 0x4E4 JUMP JUMPDEST SWAP2 POP PUSH2 0x76B DUP4 PUSH2 0x4E4 JUMP JUMPDEST SWAP3 POP DUP3 DUP3 MUL PUSH2 0x779 DUP2 PUSH2 0x4E4 JUMP JUMPDEST SWAP2 POP PUSH32 0x8000000000000000000000000000000000000000000000000000000000000000 DUP5 EQ PUSH0 DUP5 SLT AND ISZERO PUSH2 0x7B0 JUMPI PUSH2 0x7AF PUSH2 0x654 JUMP JUMPDEST JUMPDEST DUP3 DUP3 SDIV DUP5 EQ DUP4 ISZERO OR PUSH2 0x7C5 JUMPI PUSH2 0x7C4 PUSH2 0x654 JUMP JUMPDEST JUMPDEST POP SWAP3 SWAP2 POP POP JUMP JUMPDEST PUSH0 PUSH2 0x7D6 DUP3 PUSH2 0x57D JUMP JUMPDEST SWAP2 POP PUSH2 0x7E1 DUP4 PUSH2 0x57D JUMP JUMPDEST SWAP3 POP DUP3 DUP3 SUB SWAP1 POP DUP2 DUP2 GT ISZERO PUSH2 0x7F9 JUMPI PUSH2 0x7F8 PUSH2 0x654 JUMP JUMPDEST JUMPDEST SWAP3 SWAP2 POP POP JUMP JUMPDEST PUSH0 DUP3 DUP3 MSTORE PUSH1 0x20 DUP3 ADD SWAP1 POP SWAP3 SWAP2 POP POP JUMP JUMPDEST PUSH32 0x536166654D6174683A206164646974696F6E206F766572666C6F770000000000 PUSH0 DUP3 ADD MSTORE POP JUMP JUMPDEST PUSH0 PUSH2 0x843 PUSH1 0x1B DUP4 PUSH2 0x7FF JUMP JUMPDEST SWAP2 POP PUSH2 0x84E DUP3 PUSH2 0x80F JUMP JUMPDEST PUSH1 0x20 DUP3 ADD SWAP1 POP SWAP2 SWAP1 POP JUMP JUMPDEST PUSH0 PUSH1 0x20 DUP3 ADD SWAP1 POP DUP2 DUP2 SUB PUSH0 DUP4 ADD MSTORE PUSH2 0x870 DUP2 PUSH2 0x837 JUMP JUMPDEST SWAP1 POP SWAP2 SWAP1 POP JUMP JUMPDEST PUSH32 0x536166654D6174683A206D756C7469706C69636174696F6E206F766572666C6F PUSH0 DUP3 ADD MSTORE PUSH32 0x7700000000000000000000000000000000000000000000000000000000000000 PUSH1 0x20 DUP3 ADD MSTORE POP JUMP JUMPDEST PUSH0 PUSH2 0x8D1 PUSH1 0x21 DUP4 PUSH2 0x7FF JUMP JUMPDEST SWAP2 POP PUSH2 0x8DC DUP3 PUSH2 0x877 JUMP JUMPDEST PUSH1 0x40 DUP3 ADD SWAP1 POP SWAP2 SWAP1 POP JUMP JUMPDEST PUSH0 PUSH1 0x20 DUP3 ADD SWAP1 POP DUP2 DUP2 SUB PUSH0 DUP4 ADD MSTORE PUSH2 0x8FE DUP2 PUSH2 0x8C5 JUMP JUMPDEST SWAP1 POP SWAP2 SWAP1 POP JUMP JUMPDEST PUSH0 PUSH2 0x90F DUP3 PUSH2 0x57D JUMP JUMPDEST SWAP2 POP PUSH2 0x91A DUP4 PUSH2 0x57D JUMP JUMPDEST SWAP3 POP DUP3 PUSH2 0x92A JUMPI PUSH2 0x929 PUSH2 0x6C1 JUMP JUMPDEST JUMPDEST DUP3 DUP3 DIV SWAP1 POP SWAP3 SWAP2 POP POP JUMP JUMPDEST PUSH32 0x536166654D6174683A206D6F64756C6F206279207A65726F0000000000000000 PUSH0 DUP3 ADD MSTORE POP JUMP JUMPDEST PUSH0 PUSH2 0x969 PUSH1 0x18 DUP4 PUSH2 0x7FF JUMP JUMPDEST SWAP2 POP PUSH2 0x974 DUP3 PUSH2 0x935 JUMP JUMPDEST PUSH1 0x20 DUP3 ADD SWAP1 POP SWAP2 SWAP1 POP JUMP JUMPDEST PUSH0 PUSH1 0x20 DUP3 ADD SWAP1 POP DUP2 DUP2 SUB PUSH0 DUP4 ADD MSTORE PUSH2 0x996 DUP2 PUSH2 0x95D JUMP JUMPDEST SWAP1 POP SWAP2 SWAP1 POP JUMP JUMPDEST PUSH0 PUSH2 0x9A7 DUP3 PUSH2 0x4E4 JUMP JUMPDEST SWAP2 POP PUSH2 0x9B2 DUP4 PUSH2 0x4E4 JUMP JUMPDEST SWAP3 POP DUP3 PUSH2 0x9C2 JUMPI PUSH2 0x9C1 PUSH2 0x6C1 JUMP JUMPDEST JUMPDEST DUP3 DUP3 SMOD SWAP1 POP SWAP3 SWAP2 POP POP JUMP INVALID LOG2 PUSH5 0x6970667358 0x22 SLT KECCAK256 SWAP13 CALL PUSH28 0xE57ACF7F51B77520344BFD94358B9D0D8D3515AC9053B7938B4B06DD PUSH5 0x64736F6C63 NUMBER STOP ADDMOD AND STOP CALLER "
				},
				"gasEstimates": {
					"creation": {
						"codeDepositCost": "512600",
						"executionCost": "572",
						"totalCost": "513172"
					},
					"external": {
						"add(int256,int256)": "infinite",
						"add(uint256,uint256)": "infinite",
						"mod(uint256,uint256)": "infinite",
						"modInv(int256,int256)": "infinite",
						"mul(int256,int256)": "infinite",
						"mul(uint256,int256)": "infinite",
						"mul(uint256,uint256)": "infinite"
					},
					"internal": {
						"abs(int256)": "infinite",
						"floorMod(int256,int256)": "infinite",
						"log2(uint256)": "infinite",
						"modInv(uint256,uint256)": "infinite",
						"modPow(uint256,int256,uint256)": "infinite",
						"modPow(uint256,uint256,uint256)": "infinite",
						"modPow(uint256,uint256,uint256,uint256)": "infinite",
						"negate(int256)": "infinite",
						"negate(uint256)": "infinite",
						"pow(uint256,uint256)": "infinite",
						"submod(uint256,uint256,uint256)": "infinite"
					}
				},
				"methodIdentifiers": {
					"add(int256,int256)": "a5f3c23b",
					"add(uint256,uint256)": "771602f7",
					"mod(uint256,uint256)": "f43f523a",
					"modInv(int256,int256)": "28619888",
					"mul(int256,int256)": "bbe93d91",
					"mul(uint256,int256)": "51e102f5",
					"mul(uint256,uint256)": "c8a4ac9c"
				}
			},
			"storageLayout": {
				"storage": [],
				"types": null
			},
			"userdoc": {
				"kind": "user",
				"methods": {
					"modInv(int256,int256)": {
						"notice": "Gas-intensive*"
					}
				},
				"notice": "Author: Nan Wang Date: 12-01-2021*",
				"version": 1
			}
		}
	}
}