{
	"contracts/Pedersen.sol": {
		"Pedersen": {
			"abi": [
				{
					"inputs": [
						{
							"internalType": "uint256",
							"name": "_g",
							"type": "uint256"
						},
						{
							"internalType": "uint256",
							"name": "_h",
							"type": "uint256"
						},
						{
							"internalType": "uint256",
							"name": "_q",
							"type": "uint256"
						},
						{
							"internalType": "uint256",
							"name": "_k",
							"type": "uint256"
						}
					],
					"stateMutability": "nonpayable",
					"type": "constructor"
				},
				{
					"inputs": [
						{
							"internalType": "uint256",
							"name": "self",
							"type": "uint256"
						},
						{
							"internalType": "uint8",
							"name": "index",
							"type": "uint8"
						}
					],
					"name": "bit",
					"outputs": [
						{
							"internalType": "uint8",
							"name": "",
							"type": "uint8"
						}
					],
					"stateMutability": "pure",
					"type": "function"
				},
				{
					"inputs": [
						{
							"internalType": "int256",
							"name": "v",
							"type": "int256"
						},
						{
							"internalType": "int256",
							"name": "r",
							"type": "int256"
						}
					],
					"name": "commitTo",
					"outputs": [
						{
							"internalType": "uint256",
							"name": "",
							"type": "uint256"
						}
					],
					"stateMutability": "view",
					"type": "function"
				},
				{
					"inputs": [
						{
							"internalType": "uint256",
							"name": "v",
							"type": "uint256"
						},
						{
							"internalType": "uint256",
							"name": "r",
							"type": "uint256"
						}
					],
					"name": "commitTo",
					"outputs": [
						{
							"internalType": "uint256",
							"name": "",
							"type": "uint256"
						}
					],
					"stateMutability": "view",
					"type": "function"
				},
				{
					"inputs": [
						{
							"internalType": "uint256",
							"name": "a",
							"type": "uint256"
						}
					],
					"name": "commitToWithNoRand",
					"outputs": [
						{
							"internalType": "uint256",
							"name": "",
							"type": "uint256"
						}
					],
					"stateMutability": "view",
					"type": "function"
				},
				{
					"inputs": [
						{
							"components": [
								{
									"internalType": "uint256[]",
									"name": "cs",
									"type": "uint256[]"
								},
								{
									"components": [
										{
											"internalType": "uint256",
											"name": "ca",
											"type": "uint256"
										},
										{
											"internalType": "uint256",
											"name": "cb",
											"type": "uint256"
										},
										{
											"internalType": "int256",
											"name": "f",
											"type": "int256"
										},
										{
											"internalType": "int256",
											"name": "za",
											"type": "int256"
										},
										{
											"internalType": "int256",
											"name": "zb",
											"type": "int256"
										}
									],
									"internalType": "struct ZkpZeroOne[]",
									"name": "zkps",
									"type": "tuple[]"
								},
								{
									"internalType": "uint256[]",
									"name": "cls",
									"type": "uint256[]"
								},
								{
									"internalType": "uint256[]",
									"name": "cas",
									"type": "uint256[]"
								},
								{
									"internalType": "uint256[]",
									"name": "cbs",
									"type": "uint256[]"
								},
								{
									"internalType": "uint256[]",
									"name": "cds",
									"type": "uint256[]"
								}
							],
							"internalType": "struct Zkp1N1",
							"name": "zkp",
							"type": "tuple"
						}
					],
					"name": "computeBeta",
					"outputs": [
						{
							"internalType": "uint256",
							"name": "",
							"type": "uint256"
						}
					],
					"stateMutability": "view",
					"type": "function"
				},
				{
					"inputs": [
						{
							"internalType": "uint256[]",
							"name": "cs",
							"type": "uint256[]"
						}
					],
					"name": "homoAdd",
					"outputs": [
						{
							"internalType": "uint256",
							"name": "",
							"type": "uint256"
						}
					],
					"stateMutability": "view",
					"type": "function"
				},
				{
					"inputs": [
						{
							"internalType": "uint256",
							"name": "c1",
							"type": "uint256"
						},
						{
							"internalType": "uint256",
							"name": "c2",
							"type": "uint256"
						}
					],
					"name": "homoAdd",
					"outputs": [
						{
							"internalType": "uint256",
							"name": "",
							"type": "uint256"
						}
					],
					"stateMutability": "view",
					"type": "function"
				},
				{
					"inputs": [
						{
							"internalType": "uint256",
							"name": "c",
							"type": "uint256"
						},
						{
							"internalType": "uint256",
							"name": "e",
							"type": "uint256"
						}
					],
					"name": "homoMul",
					"outputs": [
						{
							"internalType": "uint256",
							"name": "",
							"type": "uint256"
						}
					],
					"stateMutability": "view",
					"type": "function"
				},
				{
					"inputs": [
						{
							"internalType": "uint256",
							"name": "c",
							"type": "uint256"
						},
						{
							"internalType": "int256",
							"name": "e",
							"type": "int256"
						}
					],
					"name": "homoMul",
					"outputs": [
						{
							"internalType": "uint256",
							"name": "",
							"type": "uint256"
						}
					],
					"stateMutability": "view",
					"type": "function"
				},
				{
					"inputs": [
						{
							"internalType": "uint256",
							"name": "c1",
							"type": "uint256"
						},
						{
							"internalType": "uint256",
							"name": "c2",
							"type": "uint256"
						}
					],
					"name": "homoSub",
					"outputs": [
						{
							"internalType": "uint256",
							"name": "",
							"type": "uint256"
						}
					],
					"stateMutability": "view",
					"type": "function"
				},
				{
					"inputs": [
						{
							"internalType": "uint256",
							"name": "cm",
							"type": "uint256"
						},
						{
							"components": [
								{
									"internalType": "uint256",
									"name": "ca",
									"type": "uint256"
								},
								{
									"internalType": "uint256",
									"name": "cb",
									"type": "uint256"
								},
								{
									"internalType": "int256",
									"name": "f",
									"type": "int256"
								},
								{
									"internalType": "int256",
									"name": "za",
									"type": "int256"
								},
								{
									"internalType": "int256",
									"name": "zb",
									"type": "int256"
								}
							],
							"internalType": "struct ZkpZeroOne",
							"name": "zkp",
							"type": "tuple"
						}
					],
					"name": "verifyZeroOne",
					"outputs": [],
					"stateMutability": "view",
					"type": "function"
				},
				{
					"inputs": [
						{
							"components": [
								{
									"internalType": "uint256",
									"name": "c",
									"type": "uint256"
								},
								{
									"internalType": "uint256",
									"name": "cprime",
									"type": "uint256"
								},
								{
									"internalType": "uint256",
									"name": "beta",
									"type": "uint256"
								},
								{
									"internalType": "uint256",
									"name": "zx",
									"type": "uint256"
								},
								{
									"internalType": "uint256",
									"name": "zr",
									"type": "uint256"
								}
							],
							"internalType": "struct ZkpCm",
							"name": "zkp",
							"type": "tuple"
						}
					],
					"name": "verifyZkpCm",
					"outputs": [
						{
							"internalType": "bool",
							"name": "",
							"type": "bool"
						}
					],
					"stateMutability": "view",
					"type": "function"
				},
				{
					"inputs": [
						{
							"components": [
								{
									"internalType": "uint256[]",
									"name": "cs",
									"type": "uint256[]"
								},
								{
									"components": [
										{
											"internalType": "uint256",
											"name": "ca",
											"type": "uint256"
										},
										{
											"internalType": "uint256",
											"name": "cb",
											"type": "uint256"
										},
										{
											"internalType": "int256",
											"name": "f",
											"type": "int256"
										},
										{
											"internalType": "int256",
											"name": "za",
											"type": "int256"
										},
										{
											"internalType": "int256",
											"name": "zb",
											"type": "int256"
										}
									],
									"internalType": "struct ZkpZeroOne[]",
									"name": "zkps",
									"type": "tuple[]"
								},
								{
									"internalType": "uint256[]",
									"name": "cls",
									"type": "uint256[]"
								},
								{
									"internalType": "uint256[]",
									"name": "cas",
									"type": "uint256[]"
								},
								{
									"internalType": "uint256[]",
									"name": "cbs",
									"type": "uint256[]"
								},
								{
									"internalType": "uint256[]",
									"name": "cds",
									"type": "uint256[]"
								}
							],
							"internalType": "struct Zkp1N1",
							"name": "zkp1",
							"type": "tuple"
						},
						{
							"components": [
								{
									"internalType": "int256[]",
									"name": "fs",
									"type": "int256[]"
								},
								{
									"internalType": "int256[]",
									"name": "zas",
									"type": "int256[]"
								},
								{
									"internalType": "int256[]",
									"name": "zbs",
									"type": "int256[]"
								},
								{
									"internalType": "int256",
									"name": "zd",
									"type": "int256"
								}
							],
							"internalType": "struct Zkp1N2",
							"name": "zkp2",
							"type": "tuple"
						},
						{
							"internalType": "uint8",
							"name": "nbits",
							"type": "uint8"
						}
					],
					"name": "verifyZkpOneOfMany",
					"outputs": [
						{
							"internalType": "bool",
							"name": "",
							"type": "bool"
						}
					],
					"stateMutability": "view",
					"type": "function"
				},
				{
					"inputs": [
						{
							"internalType": "uint256",
							"name": "serialNo",
							"type": "uint256"
						},
						{
							"components": [
								{
									"internalType": "uint256[]",
									"name": "cs",
									"type": "uint256[]"
								},
								{
									"components": [
										{
											"internalType": "uint256",
											"name": "ca",
											"type": "uint256"
										},
										{
											"internalType": "uint256",
											"name": "cb",
											"type": "uint256"
										},
										{
											"internalType": "int256",
											"name": "f",
											"type": "int256"
										},
										{
											"internalType": "int256",
											"name": "za",
											"type": "int256"
										},
										{
											"internalType": "int256",
											"name": "zb",
											"type": "int256"
										}
									],
									"internalType": "struct ZkpZeroOne[]",
									"name": "zkps",
									"type": "tuple[]"
								},
								{
									"internalType": "uint256[]",
									"name": "cls",
									"type": "uint256[]"
								},
								{
									"internalType": "uint256[]",
									"name": "cas",
									"type": "uint256[]"
								},
								{
									"internalType": "uint256[]",
									"name": "cbs",
									"type": "uint256[]"
								},
								{
									"internalType": "uint256[]",
									"name": "cds",
									"type": "uint256[]"
								}
							],
							"internalType": "struct Zkp1N1",
							"name": "zkp1",
							"type": "tuple"
						},
						{
							"components": [
								{
									"internalType": "int256[]",
									"name": "fs",
									"type": "int256[]"
								},
								{
									"internalType": "int256[]",
									"name": "zas",
									"type": "int256[]"
								},
								{
									"internalType": "int256[]",
									"name": "zbs",
									"type": "int256[]"
								},
								{
									"internalType": "int256",
									"name": "zd",
									"type": "int256"
								}
							],
							"internalType": "struct Zkp1N2",
							"name": "zkp2",
							"type": "tuple"
						},
						{
							"internalType": "uint8",
							"name": "nbits",
							"type": "uint8"
						}
					],
					"name": "verifyZkpOneOfManyWithX",
					"outputs": [
						{
							"internalType": "bool",
							"name": "",
							"type": "bool"
						}
					],
					"stateMutability": "view",
					"type": "function"
				}
			],
			"devdoc": {
				"kind": "dev",
				"methods": {},
				"version": 1
			},
			"evm": {
				"assembly": "    /* \"contracts/Pedersen.sol\":594:7133  contract Pedersen {... */\n  mstore(0x40, 0x80)\n    /* \"contracts/Pedersen.sol\":780:911  constructor(uint256 _g, uint256 _h, uint256 _q, uint256 _k) {... */\n  callvalue\n  dup1\n  iszero\n  tag_1\n  jumpi\n  0x00\n  dup1\n  revert\ntag_1:\n  pop\n  mload(0x40)\n  sub(codesize, bytecodeSize)\n  dup1\n  bytecodeSize\n  dup4\n  codecopy\n  dup2\n  dup2\n  add\n  0x40\n  mstore\n  dup2\n  add\n  swap1\n  tag_2\n  swap2\n  swap1\n  tag_3\n  jump\t// in\ntag_2:\n    /* \"contracts/Pedersen.sol\":854:856  _g */\n  dup4\n    /* \"contracts/Pedersen.sol\":850:851  g */\n  0x00\n    /* \"contracts/Pedersen.sol\":850:856  g = _g */\n  dup2\n  swap1\n  sstore\n  pop\n    /* \"contracts/Pedersen.sol\":870:872  _h */\n  dup3\n    /* \"contracts/Pedersen.sol\":866:867  h */\n  0x01\n    /* \"contracts/Pedersen.sol\":866:872  h = _h */\n  dup2\n  swap1\n  sstore\n  pop\n    /* \"contracts/Pedersen.sol\":886:888  _q */\n  dup2\n    /* \"contracts/Pedersen.sol\":882:883  q */\n  0x02\n    /* \"contracts/Pedersen.sol\":882:888  q = _q */\n  dup2\n  swap1\n  sstore\n  pop\n    /* \"contracts/Pedersen.sol\":902:904  _k */\n  dup1\n    /* \"contracts/Pedersen.sol\":898:899  k */\n  0x03\n    /* \"contracts/Pedersen.sol\":898:904  k = _k */\n  dup2\n  swap1\n  sstore\n  pop\n    /* \"contracts/Pedersen.sol\":780:911  constructor(uint256 _g, uint256 _h, uint256 _q, uint256 _k) {... */\n  pop\n  pop\n  pop\n  pop\n    /* \"contracts/Pedersen.sol\":594:7133  contract Pedersen {... */\n  jump(tag_6)\n    /* \"#utility.yul\":88:205   */\ntag_8:\n    /* \"#utility.yul\":197:198   */\n  0x00\n    /* \"#utility.yul\":194:195   */\n  dup1\n    /* \"#utility.yul\":187:199   */\n  revert\n    /* \"#utility.yul\":334:411   */\ntag_10:\n    /* \"#utility.yul\":371:378   */\n  0x00\n    /* \"#utility.yul\":400:405   */\n  dup2\n    /* \"#utility.yul\":389:405   */\n  swap1\n  pop\n    /* \"#utility.yul\":334:411   */\n  swap2\n  swap1\n  pop\n  jump\t// out\n    /* \"#utility.yul\":417:539   */\ntag_11:\n    /* \"#utility.yul\":490:514   */\n  tag_19\n    /* \"#utility.yul\":508:513   */\n  dup2\n    /* \"#utility.yul\":490:514   */\n  tag_10\n  jump\t// in\ntag_19:\n    /* \"#utility.yul\":483:488   */\n  dup2\n    /* \"#utility.yul\":480:515   */\n  eq\n    /* \"#utility.yul\":470:533   */\n  tag_20\n  jumpi\n    /* \"#utility.yul\":529:530   */\n  0x00\n    /* \"#utility.yul\":526:527   */\n  dup1\n    /* \"#utility.yul\":519:531   */\n  revert\n    /* \"#utility.yul\":470:533   */\ntag_20:\n    /* \"#utility.yul\":417:539   */\n  pop\n  jump\t// out\n    /* \"#utility.yul\":545:688   */\ntag_12:\n    /* \"#utility.yul\":602:607   */\n  0x00\n    /* \"#utility.yul\":633:639   */\n  dup2\n    /* \"#utility.yul\":627:640   */\n  mload\n    /* \"#utility.yul\":618:640   */\n  swap1\n  pop\n    /* \"#utility.yul\":649:682   */\n  tag_22\n    /* \"#utility.yul\":676:681   */\n  dup2\n    /* \"#utility.yul\":649:682   */\n  tag_11\n  jump\t// in\ntag_22:\n    /* \"#utility.yul\":545:688   */\n  swap3\n  swap2\n  pop\n  pop\n  jump\t// out\n    /* \"#utility.yul\":694:1514   */\ntag_3:\n    /* \"#utility.yul\":791:797   */\n  0x00\n    /* \"#utility.yul\":799:805   */\n  dup1\n    /* \"#utility.yul\":807:813   */\n  0x00\n    /* \"#utility.yul\":815:821   */\n  dup1\n    /* \"#utility.yul\":864:867   */\n  0x80\n    /* \"#utility.yul\":852:861   */\n  dup6\n    /* \"#utility.yul\":843:850   */\n  dup8\n    /* \"#utility.yul\":839:862   */\n  sub\n    /* \"#utility.yul\":835:868   */\n  slt\n    /* \"#utility.yul\":832:952   */\n  iszero\n  tag_24\n  jumpi\n    /* \"#utility.yul\":871:950   */\n  tag_25\n  tag_8\n  jump\t// in\ntag_25:\n    /* \"#utility.yul\":832:952   */\ntag_24:\n    /* \"#utility.yul\":991:992   */\n  0x00\n    /* \"#utility.yul\":1016:1080   */\n  tag_26\n    /* \"#utility.yul\":1072:1079   */\n  dup8\n    /* \"#utility.yul\":1063:1069   */\n  dup3\n    /* \"#utility.yul\":1052:1061   */\n  dup9\n    /* \"#utility.yul\":1048:1070   */\n  add\n    /* \"#utility.yul\":1016:1080   */\n  tag_12\n  jump\t// in\ntag_26:\n    /* \"#utility.yul\":1006:1080   */\n  swap5\n  pop\n    /* \"#utility.yul\":962:1090   */\n  pop\n    /* \"#utility.yul\":1129:1131   */\n  0x20\n    /* \"#utility.yul\":1155:1219   */\n  tag_27\n    /* \"#utility.yul\":1211:1218   */\n  dup8\n    /* \"#utility.yul\":1202:1208   */\n  dup3\n    /* \"#utility.yul\":1191:1200   */\n  dup9\n    /* \"#utility.yul\":1187:1209   */\n  add\n    /* \"#utility.yul\":1155:1219   */\n  tag_12\n  jump\t// in\ntag_27:\n    /* \"#utility.yul\":1145:1219   */\n  swap4\n  pop\n    /* \"#utility.yul\":1100:1229   */\n  pop\n    /* \"#utility.yul\":1268:1270   */\n  0x40\n    /* \"#utility.yul\":1294:1358   */\n  tag_28\n    /* \"#utility.yul\":1350:1357   */\n  dup8\n    /* \"#utility.yul\":1341:1347   */\n  dup3\n    /* \"#utility.yul\":1330:1339   */\n  dup9\n    /* \"#utility.yul\":1326:1348   */\n  add\n    /* \"#utility.yul\":1294:1358   */\n  tag_12\n  jump\t// in\ntag_28:\n    /* \"#utility.yul\":1284:1358   */\n  swap3\n  pop\n    /* \"#utility.yul\":1239:1368   */\n  pop\n    /* \"#utility.yul\":1407:1409   */\n  0x60\n    /* \"#utility.yul\":1433:1497   */\n  tag_29\n    /* \"#utility.yul\":1489:1496   */\n  dup8\n    /* \"#utility.yul\":1480:1486   */\n  dup3\n    /* \"#utility.yul\":1469:1478   */\n  dup9\n    /* \"#utility.yul\":1465:1487   */\n  add\n    /* \"#utility.yul\":1433:1497   */\n  tag_12\n  jump\t// in\ntag_29:\n    /* \"#utility.yul\":1423:1497   */\n  swap2\n  pop\n    /* \"#utility.yul\":1378:1507   */\n  pop\n    /* \"#utility.yul\":694:1514   */\n  swap3\n  swap6\n  swap2\n  swap5\n  pop\n  swap3\n  pop\n  jump\t// out\n    /* \"contracts/Pedersen.sol\":594:7133  contract Pedersen {... */\ntag_6:\n  dataSize(sub_0)\n  dup1\n  dataOffset(sub_0)\n  0x00\n  codecopy\n  0x00\n  return\nstop\n\nsub_0: assembly {\n        /* \"contracts/Pedersen.sol\":594:7133  contract Pedersen {... */\n      mstore(0x40, 0x80)\n      callvalue\n      dup1\n      iszero\n      tag_1\n      jumpi\n      0x00\n      dup1\n      revert\n    tag_1:\n      pop\n      jumpi(tag_2, lt(calldatasize, 0x04))\n      shr(0xe0, calldataload(0x00))\n      dup1\n      0x7e58f901\n      gt\n      tag_17\n      jumpi\n      dup1\n      0xa1991acc\n      gt\n      tag_18\n      jumpi\n      dup1\n      0xa1991acc\n      eq\n      tag_13\n      jumpi\n      dup1\n      0xa6806d91\n      eq\n      tag_14\n      jumpi\n      dup1\n      0xab225206\n      eq\n      tag_15\n      jumpi\n      dup1\n      0xb455cb4b\n      eq\n      tag_16\n      jumpi\n      jump(tag_2)\n    tag_18:\n      dup1\n      0x7e58f901\n      eq\n      tag_10\n      jumpi\n      dup1\n      0x99977969\n      eq\n      tag_11\n      jumpi\n      dup1\n      0x9cd479b6\n      eq\n      tag_12\n      jumpi\n      jump(tag_2)\n    tag_17:\n      dup1\n      0x1be57fbb\n      gt\n      tag_19\n      jumpi\n      dup1\n      0x1be57fbb\n      eq\n      tag_6\n      jumpi\n      dup1\n      0x22943646\n      eq\n      tag_7\n      jumpi\n      dup1\n      0x22b32dfd\n      eq\n      tag_8\n      jumpi\n      dup1\n      0x60c4b7f1\n      eq\n      tag_9\n      jumpi\n      jump(tag_2)\n    tag_19:\n      dup1\n      0x09f175c1\n      eq\n      tag_3\n      jumpi\n      dup1\n      0x1351df0b\n      eq\n      tag_4\n      jumpi\n      dup1\n      0x15689674\n      eq\n      tag_5\n      jumpi\n    tag_2:\n      0x00\n      dup1\n      revert\n        /* \"contracts/Pedersen.sol\":2285:2862  function verifyZkpCm(ZkpCm memory zkp)... */\n    tag_3:\n      tag_20\n      0x04\n      dup1\n      calldatasize\n      sub\n      dup2\n      add\n      swap1\n      tag_21\n      swap2\n      swap1\n      tag_22\n      jump\t// in\n    tag_21:\n      tag_23\n      jump\t// in\n    tag_20:\n      mload(0x40)\n      tag_24\n      swap2\n      swap1\n      tag_25\n      jump\t// in\n    tag_24:\n      mload(0x40)\n      dup1\n      swap2\n      sub\n      swap1\n      return\n        /* \"contracts/Pedersen.sol\":1792:1971  function homoSub(uint256 c1, uint256 c2)... */\n    tag_4:\n      tag_26\n      0x04\n      dup1\n      calldatasize\n      sub\n      dup2\n      add\n      swap1\n      tag_27\n      swap2\n      swap1\n      tag_28\n      jump\t// in\n    tag_27:\n      tag_29\n      jump\t// in\n    tag_26:\n      mload(0x40)\n      tag_30\n      swap2\n      swap1\n      tag_31\n      jump\t// in\n    tag_30:\n      mload(0x40)\n      dup1\n      swap2\n      sub\n      swap1\n      return\n        /* \"contracts/Pedersen.sol\":1227:1388  function commitTo(int256 v, int256 r)... */\n    tag_5:\n      tag_32\n      0x04\n      dup1\n      calldatasize\n      sub\n      dup2\n      add\n      swap1\n      tag_33\n      swap2\n      swap1\n      tag_34\n      jump\t// in\n    tag_33:\n      tag_35\n      jump\t// in\n    tag_32:\n      mload(0x40)\n      tag_36\n      swap2\n      swap1\n      tag_31\n      jump\t// in\n    tag_36:\n      mload(0x40)\n      dup1\n      swap2\n      sub\n      swap1\n      return\n        /* \"contracts/Pedersen.sol\":2868:3446  function verifyZeroOne(uint256 cm, ZkpZeroOne memory zkp)... */\n    tag_6:\n      tag_37\n      0x04\n      dup1\n      calldatasize\n      sub\n      dup2\n      add\n      swap1\n      tag_38\n      swap2\n      swap1\n      tag_39\n      jump\t// in\n    tag_38:\n      tag_40\n      jump\t// in\n    tag_37:\n      stop\n        /* \"contracts/Pedersen.sol\":5804:5917  function bit(uint self, uint8 index) public pure returns (uint8) {... */\n    tag_7:\n      tag_41\n      0x04\n      dup1\n      calldatasize\n      sub\n      dup2\n      add\n      swap1\n      tag_42\n      swap2\n      swap1\n      tag_43\n      jump\t// in\n    tag_42:\n      tag_44\n      jump\t// in\n    tag_41:\n      mload(0x40)\n      tag_45\n      swap2\n      swap1\n      tag_46\n      jump\t// in\n    tag_45:\n      mload(0x40)\n      dup1\n      swap2\n      sub\n      swap1\n      return\n        /* \"contracts/Pedersen.sol\":4512:5798  function verifyZkpOneOfMany(Zkp1N1 memory zkp1, Zkp1N2 memory zkp2, uint8 nbits)... */\n    tag_8:\n      tag_47\n      0x04\n      dup1\n      calldatasize\n      sub\n      dup2\n      add\n      swap1\n      tag_48\n      swap2\n      swap1\n      tag_49\n      jump\t// in\n    tag_48:\n      tag_50\n      jump\t// in\n    tag_47:\n      mload(0x40)\n      tag_51\n      swap2\n      swap1\n      tag_25\n      jump\t// in\n    tag_51:\n      mload(0x40)\n      dup1\n      swap2\n      sub\n      swap1\n      return\n        /* \"contracts/Pedersen.sol\":1058:1221  function commitTo(uint256 v, uint256 r)... */\n    tag_9:\n      tag_52\n      0x04\n      dup1\n      calldatasize\n      sub\n      dup2\n      add\n      swap1\n      tag_53\n      swap2\n      swap1\n      tag_28\n      jump\t// in\n    tag_53:\n      tag_54\n      jump\t// in\n    tag_52:\n      mload(0x40)\n      tag_55\n      swap2\n      swap1\n      tag_31\n      jump\t// in\n    tag_55:\n      mload(0x40)\n      dup1\n      swap2\n      sub\n      swap1\n      return\n        /* \"contracts/Pedersen.sol\":1540:1786  function homoAdd(uint256[] memory cs)... */\n    tag_10:\n      tag_56\n      0x04\n      dup1\n      calldatasize\n      sub\n      dup2\n      add\n      swap1\n      tag_57\n      swap2\n      swap1\n      tag_58\n      jump\t// in\n    tag_57:\n      tag_59\n      jump\t// in\n    tag_56:\n      mload(0x40)\n      tag_60\n      swap2\n      swap1\n      tag_31\n      jump\t// in\n    tag_60:\n      mload(0x40)\n      dup1\n      swap2\n      sub\n      swap1\n      return\n        /* \"contracts/Pedersen.sol\":6779:7131  function verifyZkpOneOfManyWithX(uint256 serialNo, Zkp1N1 memory zkp1, Zkp1N2 memory zkp2, uint8 nbits) public view returns(bool){... */\n    tag_11:\n      tag_61\n      0x04\n      dup1\n      calldatasize\n      sub\n      dup2\n      add\n      swap1\n      tag_62\n      swap2\n      swap1\n      tag_63\n      jump\t// in\n    tag_62:\n      tag_64\n      jump\t// in\n    tag_61:\n      mload(0x40)\n      tag_65\n      swap2\n      swap1\n      tag_25\n      jump\t// in\n    tag_65:\n      mload(0x40)\n      dup1\n      swap2\n      sub\n      swap1\n      return\n        /* \"contracts/Pedersen.sol\":5923:6773  function computeBeta(Zkp1N1 memory zkp)... */\n    tag_12:\n      tag_66\n      0x04\n      dup1\n      calldatasize\n      sub\n      dup2\n      add\n      swap1\n      tag_67\n      swap2\n      swap1\n      tag_68\n      jump\t// in\n    tag_67:\n      tag_69\n      jump\t// in\n    tag_66:\n      mload(0x40)\n      tag_70\n      swap2\n      swap1\n      tag_31\n      jump\t// in\n    tag_70:\n      mload(0x40)\n      dup1\n      swap2\n      sub\n      swap1\n      return\n        /* \"contracts/Pedersen.sol\":917:1052  function commitToWithNoRand(uint256 a)... */\n    tag_13:\n      tag_71\n      0x04\n      dup1\n      calldatasize\n      sub\n      dup2\n      add\n      swap1\n      tag_72\n      swap2\n      swap1\n      tag_73\n      jump\t// in\n    tag_72:\n      tag_74\n      jump\t// in\n    tag_71:\n      mload(0x40)\n      tag_75\n      swap2\n      swap1\n      tag_31\n      jump\t// in\n    tag_75:\n      mload(0x40)\n      dup1\n      swap2\n      sub\n      swap1\n      return\n        /* \"contracts/Pedersen.sol\":1977:2112  function homoMul(uint256 c, uint256 e)... */\n    tag_14:\n      tag_76\n      0x04\n      dup1\n      calldatasize\n      sub\n      dup2\n      add\n      swap1\n      tag_77\n      swap2\n      swap1\n      tag_28\n      jump\t// in\n    tag_77:\n      tag_78\n      jump\t// in\n    tag_76:\n      mload(0x40)\n      tag_79\n      swap2\n      swap1\n      tag_31\n      jump\t// in\n    tag_79:\n      mload(0x40)\n      dup1\n      swap2\n      sub\n      swap1\n      return\n        /* \"contracts/Pedersen.sol\":1394:1534  function homoAdd(uint256 c1, uint256 c2)... */\n    tag_15:\n      tag_80\n      0x04\n      dup1\n      calldatasize\n      sub\n      dup2\n      add\n      swap1\n      tag_81\n      swap2\n      swap1\n      tag_28\n      jump\t// in\n    tag_81:\n      tag_82\n      jump\t// in\n    tag_80:\n      mload(0x40)\n      tag_83\n      swap2\n      swap1\n      tag_31\n      jump\t// in\n    tag_83:\n      mload(0x40)\n      dup1\n      swap2\n      sub\n      swap1\n      return\n        /* \"contracts/Pedersen.sol\":2118:2252  function homoMul(uint256 c, int256 e)... */\n    tag_16:\n      tag_84\n      0x04\n      dup1\n      calldatasize\n      sub\n      dup2\n      add\n      swap1\n      tag_85\n      swap2\n      swap1\n      tag_86\n      jump\t// in\n    tag_85:\n      tag_87\n      jump\t// in\n    tag_84:\n      mload(0x40)\n      tag_88\n      swap2\n      swap1\n      tag_31\n      jump\t// in\n    tag_88:\n      mload(0x40)\n      dup1\n      swap2\n      sub\n      swap1\n      return\n        /* \"contracts/Pedersen.sol\":2285:2862  function verifyZkpCm(ZkpCm memory zkp)... */\n    tag_23:\n        /* \"contracts/Pedersen.sol\":2352:2356  bool */\n      0x00\n        /* \"contracts/Pedersen.sol\":2379:2388  uint256 c */\n      dup1\n        /* \"contracts/Pedersen.sol\":2391:2394  zkp */\n      dup3\n        /* \"contracts/Pedersen.sol\":2391:2396  zkp.c */\n      0x00\n      add\n      mload\n        /* \"contracts/Pedersen.sol\":2379:2396  uint256 c = zkp.c */\n      swap1\n      pop\n        /* \"contracts/Pedersen.sol\":2410:2424  uint256 cprime */\n      0x00\n        /* \"contracts/Pedersen.sol\":2427:2430  zkp */\n      dup4\n        /* \"contracts/Pedersen.sol\":2427:2437  zkp.cprime */\n      0x20\n      add\n      mload\n        /* \"contracts/Pedersen.sol\":2410:2437  uint256 cprime = zkp.cprime */\n      swap1\n      pop\n        /* \"contracts/Pedersen.sol\":2451:2463  uint256 beta */\n      0x00\n        /* \"contracts/Pedersen.sol\":2466:2469  zkp */\n      dup5\n        /* \"contracts/Pedersen.sol\":2466:2474  zkp.beta */\n      0x40\n      add\n      mload\n        /* \"contracts/Pedersen.sol\":2451:2474  uint256 beta = zkp.beta */\n      swap1\n      pop\n        /* \"contracts/Pedersen.sol\":2488:2498  uint256 zx */\n      0x00\n        /* \"contracts/Pedersen.sol\":2501:2504  zkp */\n      dup6\n        /* \"contracts/Pedersen.sol\":2501:2507  zkp.zx */\n      0x60\n      add\n      mload\n        /* \"contracts/Pedersen.sol\":2488:2507  uint256 zx = zkp.zx */\n      swap1\n      pop\n        /* \"contracts/Pedersen.sol\":2521:2531  uint256 zr */\n      0x00\n        /* \"contracts/Pedersen.sol\":2534:2537  zkp */\n      dup7\n        /* \"contracts/Pedersen.sol\":2534:2540  zkp.zr */\n      0x80\n      add\n      mload\n        /* \"contracts/Pedersen.sol\":2521:2540  uint256 zr = zkp.zr */\n      swap1\n      pop\n        /* \"contracts/Pedersen.sol\":2630:2642  uint256 ret1 */\n      0x00\n        /* \"contracts/Pedersen.sol\":2684:2685  q */\n      sload(0x02)\n        /* \"contracts/Pedersen.sol\":2645:2686  mulmod(g.modPow(zx, q),h.modPow(zr, q),q) */\n      dup1\n      tag_90\n      jumpi\n      tag_91\n      tag_92\n      jump\t// in\n    tag_91:\n    tag_90:\n        /* \"contracts/Pedersen.sol\":2668:2683  h.modPow(zr, q) */\n      tag_93\n        /* \"contracts/Pedersen.sol\":2677:2679  zr */\n      dup4\n        /* \"contracts/Pedersen.sol\":2681:2682  q */\n      sload(0x02)\n        /* \"contracts/Pedersen.sol\":2668:2669  h */\n      sload(0x01)\n        /* \"contracts/Pedersen.sol\":2668:2676  h.modPow */\n      tag_94\n      swap1\n        /* \"contracts/Pedersen.sol\":2668:2683  h.modPow(zr, q) */\n      swap3\n      swap2\n      swap1\n      0xffffffff\n      and\n      jump\t// in\n    tag_93:\n        /* \"contracts/Pedersen.sol\":2652:2667  g.modPow(zx, q) */\n      tag_95\n        /* \"contracts/Pedersen.sol\":2661:2663  zx */\n      dup6\n        /* \"contracts/Pedersen.sol\":2665:2666  q */\n      sload(0x02)\n        /* \"contracts/Pedersen.sol\":2652:2653  g */\n      sload(0x00)\n        /* \"contracts/Pedersen.sol\":2652:2660  g.modPow */\n      tag_94\n      swap1\n        /* \"contracts/Pedersen.sol\":2652:2667  g.modPow(zx, q) */\n      swap3\n      swap2\n      swap1\n      0xffffffff\n      and\n      jump\t// in\n    tag_95:\n        /* \"contracts/Pedersen.sol\":2645:2686  mulmod(g.modPow(zx, q),h.modPow(zr, q),q) */\n      mulmod\n        /* \"contracts/Pedersen.sol\":2630:2686  uint256 ret1 = mulmod(g.modPow(zx, q),h.modPow(zr, q),q) */\n      swap1\n      pop\n        /* \"contracts/Pedersen.sol\":2696:2708  uint256 ret2 */\n      0x00\n        /* \"contracts/Pedersen.sol\":2711:2743  homoAdd(cprime, homoMul(c,beta)) */\n      tag_96\n        /* \"contracts/Pedersen.sol\":2719:2725  cprime */\n      dup7\n        /* \"contracts/Pedersen.sol\":2727:2742  homoMul(c,beta) */\n      tag_97\n        /* \"contracts/Pedersen.sol\":2735:2736  c */\n      dup10\n        /* \"contracts/Pedersen.sol\":2737:2741  beta */\n      dup9\n        /* \"contracts/Pedersen.sol\":2727:2734  homoMul */\n      tag_78\n        /* \"contracts/Pedersen.sol\":2727:2742  homoMul(c,beta) */\n      jump\t// in\n    tag_97:\n        /* \"contracts/Pedersen.sol\":2711:2718  homoAdd */\n      tag_82\n        /* \"contracts/Pedersen.sol\":2711:2743  homoAdd(cprime, homoMul(c,beta)) */\n      jump\t// in\n    tag_96:\n        /* \"contracts/Pedersen.sol\":2696:2743  uint256 ret2 = homoAdd(cprime, homoMul(c,beta)) */\n      swap1\n      pop\n        /* \"contracts/Pedersen.sol\":2765:2769  ret2 */\n      dup1\n        /* \"contracts/Pedersen.sol\":2757:2761  ret1 */\n      dup3\n        /* \"contracts/Pedersen.sol\":2757:2769  ret1 == ret2 */\n      sub\n        /* \"contracts/Pedersen.sol\":2753:2847  if (ret1 == ret2){... */\n      tag_98\n      jumpi\n        /* \"contracts/Pedersen.sol\":2791:2795  true */\n      0x01\n        /* \"contracts/Pedersen.sol\":2784:2795  return true */\n      swap8\n      pop\n      pop\n      pop\n      pop\n      pop\n      pop\n      pop\n      pop\n      jump(tag_89)\n        /* \"contracts/Pedersen.sol\":2753:2847  if (ret1 == ret2){... */\n    tag_98:\n        /* \"contracts/Pedersen.sol\":2831:2836  false */\n      0x00\n        /* \"contracts/Pedersen.sol\":2824:2836  return false */\n      swap8\n      pop\n      pop\n      pop\n      pop\n      pop\n      pop\n      pop\n      pop\n        /* \"contracts/Pedersen.sol\":2285:2862  function verifyZkpCm(ZkpCm memory zkp)... */\n    tag_89:\n      swap2\n      swap1\n      pop\n      jump\t// out\n        /* \"contracts/Pedersen.sol\":1792:1971  function homoSub(uint256 c1, uint256 c2)... */\n    tag_29:\n        /* \"contracts/Pedersen.sol\":1878:1885  uint256 */\n      0x00\n        /* \"contracts/Pedersen.sol\":1901:1911  int256 neg */\n      dup1\n        /* \"contracts/Pedersen.sol\":1914:1916  -1 */\n      0xffffffffffffffffffffffffffffffffffffffffffffffffffffffffffffffff\n        /* \"contracts/Pedersen.sol\":1901:1916  int256 neg = -1 */\n      swap1\n      pop\n        /* \"contracts/Pedersen.sol\":1962:1963  q */\n      sload(0x02)\n        /* \"contracts/Pedersen.sol\":1933:1964  mulmod(c1, homoMul(c2, neg), q) */\n      dup1\n      tag_101\n      jumpi\n      tag_102\n      tag_92\n      jump\t// in\n    tag_102:\n    tag_101:\n        /* \"contracts/Pedersen.sol\":1944:1960  homoMul(c2, neg) */\n      tag_103\n        /* \"contracts/Pedersen.sol\":1952:1954  c2 */\n      dup5\n        /* \"contracts/Pedersen.sol\":1956:1959  neg */\n      dup4\n        /* \"contracts/Pedersen.sol\":1944:1951  homoMul */\n      tag_87\n        /* \"contracts/Pedersen.sol\":1944:1960  homoMul(c2, neg) */\n      jump\t// in\n    tag_103:\n        /* \"contracts/Pedersen.sol\":1940:1942  c1 */\n      dup6\n        /* \"contracts/Pedersen.sol\":1933:1964  mulmod(c1, homoMul(c2, neg), q) */\n      mulmod\n        /* \"contracts/Pedersen.sol\":1926:1964  return mulmod(c1, homoMul(c2, neg), q) */\n      swap2\n      pop\n      pop\n        /* \"contracts/Pedersen.sol\":1792:1971  function homoSub(uint256 c1, uint256 c2)... */\n      swap3\n      swap2\n      pop\n      pop\n      jump\t// out\n        /* \"contracts/Pedersen.sol\":1227:1388  function commitTo(int256 v, int256 r)... */\n    tag_35:\n        /* \"contracts/Pedersen.sol\":1310:1317  uint256 */\n      0x00\n        /* \"contracts/Pedersen.sol\":1379:1380  q */\n      sload(0x02)\n        /* \"contracts/Pedersen.sol\":1340:1381  mulmod(g.modPow(v, q), h.modPow(r, q), q) */\n      dup1\n      tag_105\n      jumpi\n      tag_106\n      tag_92\n      jump\t// in\n    tag_106:\n    tag_105:\n        /* \"contracts/Pedersen.sol\":1363:1377  h.modPow(r, q) */\n      tag_107\n        /* \"contracts/Pedersen.sol\":1372:1373  r */\n      dup4\n        /* \"contracts/Pedersen.sol\":1375:1376  q */\n      sload(0x02)\n        /* \"contracts/Pedersen.sol\":1363:1364  h */\n      sload(0x01)\n        /* \"contracts/Pedersen.sol\":1363:1371  h.modPow */\n      tag_108\n      swap1\n        /* \"contracts/Pedersen.sol\":1363:1377  h.modPow(r, q) */\n      swap3\n      swap2\n      swap1\n      0xffffffff\n      and\n      jump\t// in\n    tag_107:\n        /* \"contracts/Pedersen.sol\":1347:1361  g.modPow(v, q) */\n      tag_109\n        /* \"contracts/Pedersen.sol\":1356:1357  v */\n      dup6\n        /* \"contracts/Pedersen.sol\":1359:1360  q */\n      sload(0x02)\n        /* \"contracts/Pedersen.sol\":1347:1348  g */\n      sload(0x00)\n        /* \"contracts/Pedersen.sol\":1347:1355  g.modPow */\n      tag_108\n      swap1\n        /* \"contracts/Pedersen.sol\":1347:1361  g.modPow(v, q) */\n      swap3\n      swap2\n      swap1\n      0xffffffff\n      and\n      jump\t// in\n    tag_109:\n        /* \"contracts/Pedersen.sol\":1340:1381  mulmod(g.modPow(v, q), h.modPow(r, q), q) */\n      mulmod\n        /* \"contracts/Pedersen.sol\":1333:1381  return mulmod(g.modPow(v, q), h.modPow(r, q), q) */\n      swap1\n      pop\n        /* \"contracts/Pedersen.sol\":1227:1388  function commitTo(int256 v, int256 r)... */\n      swap3\n      swap2\n      pop\n      pop\n      jump\t// out\n        /* \"contracts/Pedersen.sol\":2868:3446  function verifyZeroOne(uint256 cm, ZkpZeroOne memory zkp)... */\n    tag_40:\n        /* \"contracts/Pedersen.sol\":2960:2970  uint256 ca */\n      0x00\n        /* \"contracts/Pedersen.sol\":2973:2976  zkp */\n      dup2\n        /* \"contracts/Pedersen.sol\":2973:2979  zkp.ca */\n      0x00\n      add\n      mload\n        /* \"contracts/Pedersen.sol\":2960:2979  uint256 ca = zkp.ca */\n      swap1\n      pop\n        /* \"contracts/Pedersen.sol\":2989:2999  uint256 cb */\n      0x00\n        /* \"contracts/Pedersen.sol\":3002:3005  zkp */\n      dup3\n        /* \"contracts/Pedersen.sol\":3002:3008  zkp.cb */\n      0x20\n      add\n      mload\n        /* \"contracts/Pedersen.sol\":2989:3008  uint256 cb = zkp.cb */\n      swap1\n      pop\n        /* \"contracts/Pedersen.sol\":3018:3026  int256 f */\n      0x00\n        /* \"contracts/Pedersen.sol\":3029:3032  zkp */\n      dup4\n        /* \"contracts/Pedersen.sol\":3029:3034  zkp.f */\n      0x40\n      add\n      mload\n        /* \"contracts/Pedersen.sol\":3018:3034  int256 f = zkp.f */\n      swap1\n      pop\n        /* \"contracts/Pedersen.sol\":3044:3053  int256 za */\n      0x00\n        /* \"contracts/Pedersen.sol\":3056:3059  zkp */\n      dup5\n        /* \"contracts/Pedersen.sol\":3056:3062  zkp.za */\n      0x60\n      add\n      mload\n        /* \"contracts/Pedersen.sol\":3044:3062  int256 za = zkp.za */\n      swap1\n      pop\n        /* \"contracts/Pedersen.sol\":3072:3081  int256 zb */\n      0x00\n        /* \"contracts/Pedersen.sol\":3084:3087  zkp */\n      dup6\n        /* \"contracts/Pedersen.sol\":3084:3090  zkp.zb */\n      0x80\n      add\n      mload\n        /* \"contracts/Pedersen.sol\":3072:3090  int256 zb = zkp.zb */\n      swap1\n      pop\n        /* \"contracts/Pedersen.sol\":3101:3113  uint256 beta */\n      0x00\n        /* \"contracts/Pedersen.sol\":3151:3153  cm */\n      dup8\n        /* \"contracts/Pedersen.sol\":3155:3157  ca */\n      dup7\n        /* \"contracts/Pedersen.sol\":3159:3161  cb */\n      dup7\n        /* \"contracts/Pedersen.sol\":3134:3162  abi.encodePacked(cm, ca, cb) */\n      add(0x20, mload(0x40))\n      tag_111\n      swap4\n      swap3\n      swap2\n      swap1\n      tag_112\n      jump\t// in\n    tag_111:\n      mload(0x40)\n      0x20\n      dup2\n      dup4\n      sub\n      sub\n      dup2\n      mstore\n      swap1\n      0x40\n      mstore\n        /* \"contracts/Pedersen.sol\":3124:3163  keccak256(abi.encodePacked(cm, ca, cb)) */\n      dup1\n      mload\n      swap1\n      0x20\n      add\n      keccak256\n        /* \"contracts/Pedersen.sol\":3116:3164  uint256(keccak256(abi.encodePacked(cm, ca, cb))) */\n      0x00\n      shr\n        /* \"contracts/Pedersen.sol\":3116:3168  uint256(keccak256(abi.encodePacked(cm, ca, cb))).mod */\n      linkerSymbol(\"438773560da8ebd76b582f48732bda290a0db306f82403ff06c89d710c8696be\")\n      0xf43f523a\n      swap1\n      swap2\n        /* \"contracts/Pedersen.sol\":3169:3170  k */\n      sload(0x03)\n        /* \"contracts/Pedersen.sol\":3116:3171  uint256(keccak256(abi.encodePacked(cm, ca, cb))).mod(k) */\n      mload(0x40)\n      dup4\n      0xffffffff\n      and\n      0xe0\n      shl\n      dup2\n      mstore\n      0x04\n      add\n      tag_113\n      swap3\n      swap2\n      swap1\n      tag_114\n      jump\t// in\n    tag_113:\n      0x20\n      mload(0x40)\n      dup1\n      dup4\n      sub\n      dup2\n      dup7\n      gas\n      delegatecall\n      iszero\n      dup1\n      iszero\n      tag_116\n      jumpi\n      returndatasize\n      0x00\n      dup1\n      returndatacopy\n      revert(0x00, returndatasize)\n    tag_116:\n      pop\n      pop\n      pop\n      pop\n      mload(0x40)\n      returndatasize\n      not(0x1f)\n      0x1f\n      dup3\n      add\n      and\n      dup3\n      add\n      dup1\n      0x40\n      mstore\n      pop\n      dup2\n      add\n      swap1\n      tag_117\n      swap2\n      swap1\n      tag_118\n      jump\t// in\n    tag_117:\n        /* \"contracts/Pedersen.sol\":3101:3171  uint256 beta = uint256(keccak256(abi.encodePacked(cm, ca, cb))).mod(k) */\n      swap1\n      pop\n        /* \"contracts/Pedersen.sol\":3182:3196  uint256 ret1_1 */\n      0x00\n        /* \"contracts/Pedersen.sol\":3199:3214  commitTo(f, za) */\n      tag_119\n        /* \"contracts/Pedersen.sol\":3208:3209  f */\n      dup6\n        /* \"contracts/Pedersen.sol\":3211:3213  za */\n      dup6\n        /* \"contracts/Pedersen.sol\":3199:3207  commitTo */\n      tag_35\n        /* \"contracts/Pedersen.sol\":3199:3214  commitTo(f, za) */\n      jump\t// in\n    tag_119:\n        /* \"contracts/Pedersen.sol\":3182:3214  uint256 ret1_1 = commitTo(f, za) */\n      swap1\n      pop\n        /* \"contracts/Pedersen.sol\":3224:3238  uint256 ret1_2 */\n      0x00\n        /* \"contracts/Pedersen.sol\":3241:3271  homoAdd(homoMul(cm, beta), ca) */\n      tag_120\n        /* \"contracts/Pedersen.sol\":3249:3266  homoMul(cm, beta) */\n      tag_121\n        /* \"contracts/Pedersen.sol\":3257:3259  cm */\n      dup12\n        /* \"contracts/Pedersen.sol\":3261:3265  beta */\n      dup6\n        /* \"contracts/Pedersen.sol\":3249:3256  homoMul */\n      tag_78\n        /* \"contracts/Pedersen.sol\":3249:3266  homoMul(cm, beta) */\n      jump\t// in\n    tag_121:\n        /* \"contracts/Pedersen.sol\":3268:3270  ca */\n      dup10\n        /* \"contracts/Pedersen.sol\":3241:3248  homoAdd */\n      tag_82\n        /* \"contracts/Pedersen.sol\":3241:3271  homoAdd(homoMul(cm, beta), ca) */\n      jump\t// in\n    tag_120:\n        /* \"contracts/Pedersen.sol\":3224:3271  uint256 ret1_2 = homoAdd(homoMul(cm, beta), ca) */\n      swap1\n      pop\n        /* \"contracts/Pedersen.sol\":3282:3296  uint256 ret2_1 */\n      0x00\n        /* \"contracts/Pedersen.sol\":3299:3314  commitTo(0, zb) */\n      tag_122\n        /* \"contracts/Pedersen.sol\":3308:3309  0 */\n      0x00\n        /* \"contracts/Pedersen.sol\":3311:3313  zb */\n      dup7\n        /* \"contracts/Pedersen.sol\":3299:3307  commitTo */\n      tag_35\n        /* \"contracts/Pedersen.sol\":3299:3314  commitTo(0, zb) */\n      jump\t// in\n    tag_122:\n        /* \"contracts/Pedersen.sol\":3282:3314  uint256 ret2_1 = commitTo(0, zb) */\n      swap1\n      pop\n        /* \"contracts/Pedersen.sol\":3324:3338  uint256 ret2_2 */\n      0x00\n        /* \"contracts/Pedersen.sol\":3341:3383  homoAdd(homoMul(cm, int256(beta) - f), cb) */\n      tag_123\n        /* \"contracts/Pedersen.sol\":3349:3378  homoMul(cm, int256(beta) - f) */\n      tag_124\n        /* \"contracts/Pedersen.sol\":3357:3359  cm */\n      dup14\n        /* \"contracts/Pedersen.sol\":3376:3377  f */\n      dup11\n        /* \"contracts/Pedersen.sol\":3368:3372  beta */\n      dup9\n        /* \"contracts/Pedersen.sol\":3361:3377  int256(beta) - f */\n      tag_125\n      swap2\n      swap1\n      tag_126\n      jump\t// in\n    tag_125:\n        /* \"contracts/Pedersen.sol\":3349:3356  homoMul */\n      tag_87\n        /* \"contracts/Pedersen.sol\":3349:3378  homoMul(cm, int256(beta) - f) */\n      jump\t// in\n    tag_124:\n        /* \"contracts/Pedersen.sol\":3380:3382  cb */\n      dup11\n        /* \"contracts/Pedersen.sol\":3341:3348  homoAdd */\n      tag_82\n        /* \"contracts/Pedersen.sol\":3341:3383  homoAdd(homoMul(cm, int256(beta) - f), cb) */\n      jump\t// in\n    tag_123:\n        /* \"contracts/Pedersen.sol\":3324:3383  uint256 ret2_2 = homoAdd(homoMul(cm, int256(beta) - f), cb) */\n      swap1\n      pop\n        /* \"contracts/Pedersen.sol\":3412:3418  ret1_2 */\n      dup3\n        /* \"contracts/Pedersen.sol\":3402:3408  ret1_1 */\n      dup5\n        /* \"contracts/Pedersen.sol\":3402:3418  ret1_1 == ret1_2 */\n      eq\n        /* \"contracts/Pedersen.sol\":3402:3438  ret1_1 == ret1_2 && ret2_1 == ret2_2 */\n      dup1\n      iszero\n      tag_127\n      jumpi\n      pop\n        /* \"contracts/Pedersen.sol\":3432:3438  ret2_2 */\n      dup1\n        /* \"contracts/Pedersen.sol\":3422:3428  ret2_1 */\n      dup3\n        /* \"contracts/Pedersen.sol\":3422:3438  ret2_1 == ret2_2 */\n      eq\n        /* \"contracts/Pedersen.sol\":3402:3438  ret1_1 == ret1_2 && ret2_1 == ret2_2 */\n    tag_127:\n        /* \"contracts/Pedersen.sol\":3394:3439  assert (ret1_1 == ret1_2 && ret2_1 == ret2_2) */\n      tag_128\n      jumpi\n      tag_129\n      tag_130\n      jump\t// in\n    tag_129:\n    tag_128:\n        /* \"contracts/Pedersen.sol\":2950:3446  {... */\n      pop\n      pop\n      pop\n      pop\n      pop\n      pop\n      pop\n      pop\n      pop\n      pop\n        /* \"contracts/Pedersen.sol\":2868:3446  function verifyZeroOne(uint256 cm, ZkpZeroOne memory zkp)... */\n      pop\n      pop\n      jump\t// out\n        /* \"contracts/Pedersen.sol\":5804:5917  function bit(uint self, uint8 index) public pure returns (uint8) {... */\n    tag_44:\n        /* \"contracts/Pedersen.sol\":5862:5867  uint8 */\n      0x00\n        /* \"contracts/Pedersen.sol\":5908:5909  1 */\n      0x01\n        /* \"contracts/Pedersen.sol\":5900:5905  index */\n      dup3\n        /* \"contracts/Pedersen.sol\":5892:5905  self >> index */\n      0xff\n      and\n        /* \"contracts/Pedersen.sol\":5892:5896  self */\n      dup5\n        /* \"contracts/Pedersen.sol\":5892:5905  self >> index */\n      swap1\n      shr\n        /* \"contracts/Pedersen.sol\":5892:5909  self >> index & 1 */\n      and\n        /* \"contracts/Pedersen.sol\":5879:5910  return uint8(self >> index & 1) */\n      swap1\n      pop\n        /* \"contracts/Pedersen.sol\":5804:5917  function bit(uint self, uint8 index) public pure returns (uint8) {... */\n      swap3\n      swap2\n      pop\n      pop\n      jump\t// out\n        /* \"contracts/Pedersen.sol\":4512:5798  function verifyZkpOneOfMany(Zkp1N1 memory zkp1, Zkp1N2 memory zkp2, uint8 nbits)... */\n    tag_50:\n        /* \"contracts/Pedersen.sol\":4637:4641  bool */\n      0x00\n        /* \"contracts/Pedersen.sol\":4657:4676  uint256[] memory cs */\n      dup1\n        /* \"contracts/Pedersen.sol\":4679:4683  zkp1 */\n      dup5\n        /* \"contracts/Pedersen.sol\":4679:4686  zkp1.cs */\n      0x00\n      add\n      mload\n        /* \"contracts/Pedersen.sol\":4657:4686  uint256[] memory cs = zkp1.cs */\n      swap1\n      pop\n        /* \"contracts/Pedersen.sol\":4696:4716  uint256[] memory cls */\n      0x00\n        /* \"contracts/Pedersen.sol\":4719:4723  zkp1 */\n      dup6\n        /* \"contracts/Pedersen.sol\":4719:4727  zkp1.cls */\n      0x40\n      add\n      mload\n        /* \"contracts/Pedersen.sol\":4696:4727  uint256[] memory cls = zkp1.cls */\n      swap1\n      pop\n        /* \"contracts/Pedersen.sol\":4737:4757  uint256[] memory cds */\n      0x00\n        /* \"contracts/Pedersen.sol\":4760:4764  zkp1 */\n      dup7\n        /* \"contracts/Pedersen.sol\":4760:4768  zkp1.cds */\n      0xa0\n      add\n      mload\n        /* \"contracts/Pedersen.sol\":4737:4768  uint256[] memory cds = zkp1.cds */\n      swap1\n      pop\n        /* \"contracts/Pedersen.sol\":4778:4796  int256[] memory fs */\n      0x00\n        /* \"contracts/Pedersen.sol\":4799:4803  zkp2 */\n      dup7\n        /* \"contracts/Pedersen.sol\":4799:4806  zkp2.fs */\n      0x00\n      add\n      mload\n        /* \"contracts/Pedersen.sol\":4778:4806  int256[] memory fs = zkp2.fs */\n      swap1\n      pop\n        /* \"contracts/Pedersen.sol\":4816:4825  int256 zd */\n      0x00\n        /* \"contracts/Pedersen.sol\":4828:4832  zkp2 */\n      dup8\n        /* \"contracts/Pedersen.sol\":4828:4835  zkp2.zd */\n      0x60\n      add\n      mload\n        /* \"contracts/Pedersen.sol\":4816:4835  int256 zd = zkp2.zd */\n      swap1\n      pop\n        /* \"contracts/Pedersen.sol\":4846:4877  checkZeroOneZkp(cls, zkp1.zkps) */\n      tag_133\n        /* \"contracts/Pedersen.sol\":4862:4865  cls */\n      dup5\n        /* \"contracts/Pedersen.sol\":4867:4871  zkp1 */\n      dup11\n        /* \"contracts/Pedersen.sol\":4867:4876  zkp1.zkps */\n      0x20\n      add\n      mload\n        /* \"contracts/Pedersen.sol\":4846:4861  checkZeroOneZkp */\n      tag_134\n        /* \"contracts/Pedersen.sol\":4846:4877  checkZeroOneZkp(cls, zkp1.zkps) */\n      jump\t// in\n    tag_133:\n        /* \"contracts/Pedersen.sol\":4888:4900  uint256 beta */\n      0x00\n        /* \"contracts/Pedersen.sol\":4903:4920  computeBeta(zkp1) */\n      tag_135\n        /* \"contracts/Pedersen.sol\":4915:4919  zkp1 */\n      dup11\n        /* \"contracts/Pedersen.sol\":4903:4914  computeBeta */\n      tag_69\n        /* \"contracts/Pedersen.sol\":4903:4920  computeBeta(zkp1) */\n      jump\t// in\n    tag_135:\n        /* \"contracts/Pedersen.sol\":4888:4920  uint256 beta = computeBeta(zkp1) */\n      swap1\n      pop\n        /* \"contracts/Pedersen.sol\":4930:4949  int256 betaWithSign */\n      0x00\n        /* \"contracts/Pedersen.sol\":4959:4963  beta */\n      dup2\n        /* \"contracts/Pedersen.sol\":4930:4964  int256 betaWithSign = int256(beta) */\n      swap1\n      pop\n        /* \"contracts/Pedersen.sol\":4975:5041  checkConstraint1(cls, zkp1.cas, fs, zkp2.zas, betaWithSign, nbits) */\n      tag_136\n        /* \"contracts/Pedersen.sol\":4992:4995  cls */\n      dup7\n        /* \"contracts/Pedersen.sol\":4997:5001  zkp1 */\n      dup13\n        /* \"contracts/Pedersen.sol\":4997:5005  zkp1.cas */\n      0x60\n      add\n      mload\n        /* \"contracts/Pedersen.sol\":5007:5009  fs */\n      dup7\n        /* \"contracts/Pedersen.sol\":5011:5015  zkp2 */\n      dup14\n        /* \"contracts/Pedersen.sol\":5011:5019  zkp2.zas */\n      0x20\n      add\n      mload\n        /* \"contracts/Pedersen.sol\":5021:5033  betaWithSign */\n      dup6\n        /* \"contracts/Pedersen.sol\":5035:5040  nbits */\n      dup15\n        /* \"contracts/Pedersen.sol\":4975:4991  checkConstraint1 */\n      tag_137\n        /* \"contracts/Pedersen.sol\":4975:5041  checkConstraint1(cls, zkp1.cas, fs, zkp2.zas, betaWithSign, nbits) */\n      jump\t// in\n    tag_136:\n        /* \"contracts/Pedersen.sol\":5051:5117  checkConstraint2(cls, zkp1.cbs, fs, zkp2.zbs, betaWithSign, nbits) */\n      tag_138\n        /* \"contracts/Pedersen.sol\":5068:5071  cls */\n      dup7\n        /* \"contracts/Pedersen.sol\":5073:5077  zkp1 */\n      dup13\n        /* \"contracts/Pedersen.sol\":5073:5081  zkp1.cbs */\n      0x80\n      add\n      mload\n        /* \"contracts/Pedersen.sol\":5083:5085  fs */\n      dup7\n        /* \"contracts/Pedersen.sol\":5087:5091  zkp2 */\n      dup14\n        /* \"contracts/Pedersen.sol\":5087:5095  zkp2.zbs */\n      0x40\n      add\n      mload\n        /* \"contracts/Pedersen.sol\":5097:5109  betaWithSign */\n      dup6\n        /* \"contracts/Pedersen.sol\":5111:5116  nbits */\n      dup15\n        /* \"contracts/Pedersen.sol\":5051:5067  checkConstraint2 */\n      tag_139\n        /* \"contracts/Pedersen.sol\":5051:5117  checkConstraint2(cls, zkp1.cbs, fs, zkp2.zbs, betaWithSign, nbits) */\n      jump\t// in\n    tag_138:\n        /* \"contracts/Pedersen.sol\":5128:5141  uint256 ret31 */\n      0x00\n        /* \"contracts/Pedersen.sol\":5144:5145  1 */\n      0x01\n        /* \"contracts/Pedersen.sol\":5128:5145  uint256 ret31 = 1 */\n      swap1\n      pop\n        /* \"contracts/Pedersen.sol\":5159:5165  uint i */\n      0x00\n        /* \"contracts/Pedersen.sol\":5155:5524  for(uint i=0;i<cs.length;i++) {... */\n    tag_140:\n        /* \"contracts/Pedersen.sol\":5170:5172  cs */\n      dup9\n        /* \"contracts/Pedersen.sol\":5170:5179  cs.length */\n      mload\n        /* \"contracts/Pedersen.sol\":5168:5169  i */\n      dup2\n        /* \"contracts/Pedersen.sol\":5168:5179  i<cs.length */\n      lt\n        /* \"contracts/Pedersen.sol\":5155:5524  for(uint i=0;i<cs.length;i++) {... */\n      iszero\n      tag_141\n      jumpi\n        /* \"contracts/Pedersen.sol\":5199:5211  int256 fprod */\n      0x00\n        /* \"contracts/Pedersen.sol\":5214:5215  1 */\n      0x01\n        /* \"contracts/Pedersen.sol\":5199:5215  int256 fprod = 1 */\n      swap1\n      pop\n        /* \"contracts/Pedersen.sol\":5233:5240  uint8 j */\n      0x00\n        /* \"contracts/Pedersen.sol\":5229:5454  for(uint8 j=0;j<nbits;j++) {... */\n    tag_143:\n        /* \"contracts/Pedersen.sol\":5245:5250  nbits */\n      dup13\n        /* \"contracts/Pedersen.sol\":5243:5250  j<nbits */\n      0xff\n      and\n        /* \"contracts/Pedersen.sol\":5243:5244  j */\n      dup2\n        /* \"contracts/Pedersen.sol\":5243:5250  j<nbits */\n      0xff\n      and\n      lt\n        /* \"contracts/Pedersen.sol\":5229:5454  for(uint8 j=0;j<nbits;j++) {... */\n      iszero\n      tag_144\n      jumpi\n        /* \"contracts/Pedersen.sol\":5290:5291  1 */\n      0x01\n        /* \"contracts/Pedersen.sol\":5277:5286  bit(i, j) */\n      tag_146\n        /* \"contracts/Pedersen.sol\":5281:5282  i */\n      dup5\n        /* \"contracts/Pedersen.sol\":5284:5285  j */\n      dup4\n        /* \"contracts/Pedersen.sol\":5277:5280  bit */\n      tag_44\n        /* \"contracts/Pedersen.sol\":5277:5286  bit(i, j) */\n      jump\t// in\n    tag_146:\n        /* \"contracts/Pedersen.sol\":5277:5291  bit(i, j) == 1 */\n      0xff\n      and\n      sub\n        /* \"contracts/Pedersen.sol\":5274:5440  if(bit(i, j) == 1) {... */\n      tag_147\n      jumpi\n        /* \"contracts/Pedersen.sol\":5331:5333  fs */\n      dup8\n        /* \"contracts/Pedersen.sol\":5334:5335  j */\n      dup2\n        /* \"contracts/Pedersen.sol\":5331:5336  fs[j] */\n      0xff\n      and\n      dup2\n      mload\n      dup2\n      lt\n      tag_148\n      jumpi\n      tag_149\n      tag_150\n      jump\t// in\n    tag_149:\n    tag_148:\n      0x20\n      mul\n      0x20\n      add\n      add\n      mload\n        /* \"contracts/Pedersen.sol\":5323:5328  fprod */\n      dup3\n        /* \"contracts/Pedersen.sol\":5323:5336  fprod * fs[j] */\n      tag_151\n      swap2\n      swap1\n      tag_152\n      jump\t// in\n    tag_151:\n        /* \"contracts/Pedersen.sol\":5315:5336  fprod = fprod * fs[j] */\n      swap2\n      pop\n        /* \"contracts/Pedersen.sol\":5274:5440  if(bit(i, j) == 1) {... */\n      jump(tag_153)\n    tag_147:\n        /* \"contracts/Pedersen.sol\":5415:5417  fs */\n      dup8\n        /* \"contracts/Pedersen.sol\":5418:5419  j */\n      dup2\n        /* \"contracts/Pedersen.sol\":5415:5420  fs[j] */\n      0xff\n      and\n      dup2\n      mload\n      dup2\n      lt\n      tag_154\n      jumpi\n      tag_155\n      tag_150\n      jump\t// in\n    tag_155:\n    tag_154:\n      0x20\n      mul\n      0x20\n      add\n      add\n      mload\n        /* \"contracts/Pedersen.sol\":5400:5412  betaWithSign */\n      dup6\n        /* \"contracts/Pedersen.sol\":5400:5420  betaWithSign - fs[j] */\n      tag_156\n      swap2\n      swap1\n      tag_126\n      jump\t// in\n    tag_156:\n        /* \"contracts/Pedersen.sol\":5391:5396  fprod */\n      dup3\n        /* \"contracts/Pedersen.sol\":5391:5421  fprod * (betaWithSign - fs[j]) */\n      tag_157\n      swap2\n      swap1\n      tag_152\n      jump\t// in\n    tag_157:\n        /* \"contracts/Pedersen.sol\":5383:5421  fprod = fprod * (betaWithSign - fs[j]) */\n      swap2\n      pop\n        /* \"contracts/Pedersen.sol\":5274:5440  if(bit(i, j) == 1) {... */\n    tag_153:\n        /* \"contracts/Pedersen.sol\":5251:5254  j++ */\n      dup1\n      dup1\n      0x01\n      add\n      swap2\n      pop\n      pop\n        /* \"contracts/Pedersen.sol\":5229:5454  for(uint8 j=0;j<nbits;j++) {... */\n      jump(tag_143)\n    tag_144:\n      pop\n        /* \"contracts/Pedersen.sol\":5476:5513  homoAdd(ret31, homoMul(cs[i], fprod)) */\n      tag_158\n        /* \"contracts/Pedersen.sol\":5484:5489  ret31 */\n      dup4\n        /* \"contracts/Pedersen.sol\":5491:5512  homoMul(cs[i], fprod) */\n      tag_159\n        /* \"contracts/Pedersen.sol\":5499:5501  cs */\n      dup13\n        /* \"contracts/Pedersen.sol\":5502:5503  i */\n      dup6\n        /* \"contracts/Pedersen.sol\":5499:5504  cs[i] */\n      dup2\n      mload\n      dup2\n      lt\n      tag_160\n      jumpi\n      tag_161\n      tag_150\n      jump\t// in\n    tag_161:\n    tag_160:\n      0x20\n      mul\n      0x20\n      add\n      add\n      mload\n        /* \"contracts/Pedersen.sol\":5506:5511  fprod */\n      dup5\n        /* \"contracts/Pedersen.sol\":5491:5498  homoMul */\n      tag_87\n        /* \"contracts/Pedersen.sol\":5491:5512  homoMul(cs[i], fprod) */\n      jump\t// in\n    tag_159:\n        /* \"contracts/Pedersen.sol\":5476:5483  homoAdd */\n      tag_82\n        /* \"contracts/Pedersen.sol\":5476:5513  homoAdd(ret31, homoMul(cs[i], fprod)) */\n      jump\t// in\n    tag_158:\n        /* \"contracts/Pedersen.sol\":5468:5513  ret31 = homoAdd(ret31, homoMul(cs[i], fprod)) */\n      swap3\n      pop\n        /* \"contracts/Pedersen.sol\":5185:5524  {... */\n      pop\n        /* \"contracts/Pedersen.sol\":5180:5183  i++ */\n      dup1\n      dup1\n      0x01\n      add\n      swap2\n      pop\n      pop\n        /* \"contracts/Pedersen.sol\":5155:5524  for(uint i=0;i<cs.length;i++) {... */\n      jump(tag_140)\n    tag_141:\n      pop\n        /* \"contracts/Pedersen.sol\":5538:5544  uint i */\n      0x00\n        /* \"contracts/Pedersen.sol\":5534:5644  for(uint i=0;i<nbits;i++) {... */\n    tag_162:\n        /* \"contracts/Pedersen.sol\":5549:5554  nbits */\n      dup11\n        /* \"contracts/Pedersen.sol\":5547:5554  i<nbits */\n      0xff\n      and\n        /* \"contracts/Pedersen.sol\":5547:5548  i */\n      dup2\n        /* \"contracts/Pedersen.sol\":5547:5554  i<nbits */\n      lt\n        /* \"contracts/Pedersen.sol\":5534:5644  for(uint i=0;i<nbits;i++) {... */\n      iszero\n      tag_163\n      jumpi\n        /* \"contracts/Pedersen.sol\":5582:5633  homoAdd(ret31, homoMul(cds[i], -(betaWithSign**i))) */\n      tag_165\n        /* \"contracts/Pedersen.sol\":5590:5595  ret31 */\n      dup3\n        /* \"contracts/Pedersen.sol\":5597:5632  homoMul(cds[i], -(betaWithSign**i)) */\n      tag_166\n        /* \"contracts/Pedersen.sol\":5605:5608  cds */\n      dup10\n        /* \"contracts/Pedersen.sol\":5609:5610  i */\n      dup5\n        /* \"contracts/Pedersen.sol\":5605:5611  cds[i] */\n      dup2\n      mload\n      dup2\n      lt\n      tag_167\n      jumpi\n      tag_168\n      tag_150\n      jump\t// in\n    tag_168:\n    tag_167:\n      0x20\n      mul\n      0x20\n      add\n      add\n      mload\n        /* \"contracts/Pedersen.sol\":5629:5630  i */\n      dup5\n        /* \"contracts/Pedersen.sol\":5615:5627  betaWithSign */\n      dup8\n        /* \"contracts/Pedersen.sol\":5615:5630  betaWithSign**i */\n      tag_169\n      swap2\n      swap1\n      tag_170\n      jump\t// in\n    tag_169:\n        /* \"contracts/Pedersen.sol\":5613:5631  -(betaWithSign**i) */\n      tag_171\n      swap1\n      tag_172\n      jump\t// in\n    tag_171:\n        /* \"contracts/Pedersen.sol\":5597:5604  homoMul */\n      tag_87\n        /* \"contracts/Pedersen.sol\":5597:5632  homoMul(cds[i], -(betaWithSign**i)) */\n      jump\t// in\n    tag_166:\n        /* \"contracts/Pedersen.sol\":5582:5589  homoAdd */\n      tag_82\n        /* \"contracts/Pedersen.sol\":5582:5633  homoAdd(ret31, homoMul(cds[i], -(betaWithSign**i))) */\n      jump\t// in\n    tag_165:\n        /* \"contracts/Pedersen.sol\":5574:5633  ret31 = homoAdd(ret31, homoMul(cds[i], -(betaWithSign**i))) */\n      swap2\n      pop\n        /* \"contracts/Pedersen.sol\":5555:5558  i++ */\n      dup1\n      dup1\n      0x01\n      add\n      swap2\n      pop\n      pop\n        /* \"contracts/Pedersen.sol\":5534:5644  for(uint i=0;i<nbits;i++) {... */\n      jump(tag_162)\n    tag_163:\n      pop\n        /* \"contracts/Pedersen.sol\":5654:5667  uint256 ret32 */\n      0x00\n        /* \"contracts/Pedersen.sol\":5670:5685  commitTo(0, zd) */\n      tag_173\n        /* \"contracts/Pedersen.sol\":5679:5680  0 */\n      0x00\n        /* \"contracts/Pedersen.sol\":5682:5684  zd */\n      dup7\n        /* \"contracts/Pedersen.sol\":5670:5678  commitTo */\n      tag_35\n        /* \"contracts/Pedersen.sol\":5670:5685  commitTo(0, zd) */\n      jump\t// in\n    tag_173:\n        /* \"contracts/Pedersen.sol\":5654:5685  uint256 ret32 = commitTo(0, zd) */\n      swap1\n      pop\n        /* \"contracts/Pedersen.sol\":5709:5714  ret32 */\n      dup1\n        /* \"contracts/Pedersen.sol\":5700:5705  ret31 */\n      dup3\n        /* \"contracts/Pedersen.sol\":5700:5714  ret31 == ret32 */\n      sub\n        /* \"contracts/Pedersen.sol\":5696:5792  if (ret31 == ret32){... */\n      tag_174\n      jumpi\n        /* \"contracts/Pedersen.sol\":5736:5740  true */\n      0x01\n        /* \"contracts/Pedersen.sol\":5729:5740  return true */\n      swap10\n      pop\n      pop\n      pop\n      pop\n      pop\n      pop\n      pop\n      pop\n      pop\n      pop\n      jump(tag_132)\n        /* \"contracts/Pedersen.sol\":5696:5792  if (ret31 == ret32){... */\n    tag_174:\n        /* \"contracts/Pedersen.sol\":5776:5781  false */\n      0x00\n        /* \"contracts/Pedersen.sol\":5769:5781  return false */\n      swap10\n      pop\n      pop\n      pop\n      pop\n      pop\n      pop\n      pop\n      pop\n      pop\n      pop\n        /* \"contracts/Pedersen.sol\":4512:5798  function verifyZkpOneOfMany(Zkp1N1 memory zkp1, Zkp1N2 memory zkp2, uint8 nbits)... */\n    tag_132:\n      swap4\n      swap3\n      pop\n      pop\n      pop\n      jump\t// out\n        /* \"contracts/Pedersen.sol\":1058:1221  function commitTo(uint256 v, uint256 r)... */\n    tag_54:\n        /* \"contracts/Pedersen.sol\":1143:1150  uint256 */\n      0x00\n        /* \"contracts/Pedersen.sol\":1212:1213  q */\n      sload(0x02)\n        /* \"contracts/Pedersen.sol\":1173:1214  mulmod(g.modPow(v, q), h.modPow(r, q), q) */\n      dup1\n      tag_177\n      jumpi\n      tag_178\n      tag_92\n      jump\t// in\n    tag_178:\n    tag_177:\n        /* \"contracts/Pedersen.sol\":1196:1210  h.modPow(r, q) */\n      tag_179\n        /* \"contracts/Pedersen.sol\":1205:1206  r */\n      dup4\n        /* \"contracts/Pedersen.sol\":1208:1209  q */\n      sload(0x02)\n        /* \"contracts/Pedersen.sol\":1196:1197  h */\n      sload(0x01)\n        /* \"contracts/Pedersen.sol\":1196:1204  h.modPow */\n      tag_94\n      swap1\n        /* \"contracts/Pedersen.sol\":1196:1210  h.modPow(r, q) */\n      swap3\n      swap2\n      swap1\n      0xffffffff\n      and\n      jump\t// in\n    tag_179:\n        /* \"contracts/Pedersen.sol\":1180:1194  g.modPow(v, q) */\n      tag_180\n        /* \"contracts/Pedersen.sol\":1189:1190  v */\n      dup6\n        /* \"contracts/Pedersen.sol\":1192:1193  q */\n      sload(0x02)\n        /* \"contracts/Pedersen.sol\":1180:1181  g */\n      sload(0x00)\n        /* \"contracts/Pedersen.sol\":1180:1188  g.modPow */\n      tag_94\n      swap1\n        /* \"contracts/Pedersen.sol\":1180:1194  g.modPow(v, q) */\n      swap3\n      swap2\n      swap1\n      0xffffffff\n      and\n      jump\t// in\n    tag_180:\n        /* \"contracts/Pedersen.sol\":1173:1214  mulmod(g.modPow(v, q), h.modPow(r, q), q) */\n      mulmod\n        /* \"contracts/Pedersen.sol\":1166:1214  return mulmod(g.modPow(v, q), h.modPow(r, q), q) */\n      swap1\n      pop\n        /* \"contracts/Pedersen.sol\":1058:1221  function commitTo(uint256 v, uint256 r)... */\n      swap3\n      swap2\n      pop\n      pop\n      jump\t// out\n        /* \"contracts/Pedersen.sol\":1540:1786  function homoAdd(uint256[] memory cs)... */\n    tag_59:\n        /* \"contracts/Pedersen.sol\":1623:1630  uint256 */\n      0x00\n        /* \"contracts/Pedersen.sol\":1646:1657  uint256 sum */\n      dup1\n        /* \"contracts/Pedersen.sol\":1660:1661  1 */\n      0x01\n        /* \"contracts/Pedersen.sol\":1646:1661  uint256 sum = 1 */\n      swap1\n      pop\n        /* \"contracts/Pedersen.sol\":1675:1681  uint i */\n      0x00\n        /* \"contracts/Pedersen.sol\":1671:1752  for(uint i=0;i<cs.length;i++){... */\n    tag_182:\n        /* \"contracts/Pedersen.sol\":1686:1688  cs */\n      dup4\n        /* \"contracts/Pedersen.sol\":1686:1695  cs.length */\n      mload\n        /* \"contracts/Pedersen.sol\":1684:1685  i */\n      dup2\n        /* \"contracts/Pedersen.sol\":1684:1695  i<cs.length */\n      lt\n        /* \"contracts/Pedersen.sol\":1671:1752  for(uint i=0;i<cs.length;i++){... */\n      iszero\n      tag_183\n      jumpi\n        /* \"contracts/Pedersen.sol\":1739:1740  q */\n      sload(0x02)\n        /* \"contracts/Pedersen.sol\":1720:1741  mulmod(sum, cs[i], q) */\n      dup1\n      tag_185\n      jumpi\n      tag_186\n      tag_92\n      jump\t// in\n    tag_186:\n    tag_185:\n        /* \"contracts/Pedersen.sol\":1732:1734  cs */\n      dup5\n        /* \"contracts/Pedersen.sol\":1735:1736  i */\n      dup3\n        /* \"contracts/Pedersen.sol\":1732:1737  cs[i] */\n      dup2\n      mload\n      dup2\n      lt\n      tag_187\n      jumpi\n      tag_188\n      tag_150\n      jump\t// in\n    tag_188:\n    tag_187:\n      0x20\n      mul\n      0x20\n      add\n      add\n      mload\n        /* \"contracts/Pedersen.sol\":1727:1730  sum */\n      dup4\n        /* \"contracts/Pedersen.sol\":1720:1741  mulmod(sum, cs[i], q) */\n      mulmod\n        /* \"contracts/Pedersen.sol\":1714:1741  sum = mulmod(sum, cs[i], q) */\n      swap2\n      pop\n        /* \"contracts/Pedersen.sol\":1696:1699  i++ */\n      dup1\n      dup1\n      0x01\n      add\n      swap2\n      pop\n      pop\n        /* \"contracts/Pedersen.sol\":1671:1752  for(uint i=0;i<cs.length;i++){... */\n      jump(tag_182)\n    tag_183:\n      pop\n        /* \"contracts/Pedersen.sol\":1769:1772  sum */\n      dup1\n        /* \"contracts/Pedersen.sol\":1769:1776  sum.mod */\n      linkerSymbol(\"438773560da8ebd76b582f48732bda290a0db306f82403ff06c89d710c8696be\")\n      0xf43f523a\n      swap1\n      swap2\n        /* \"contracts/Pedersen.sol\":1777:1778  q */\n      sload(0x02)\n        /* \"contracts/Pedersen.sol\":1769:1779  sum.mod(q) */\n      mload(0x40)\n      dup4\n      0xffffffff\n      and\n      0xe0\n      shl\n      dup2\n      mstore\n      0x04\n      add\n      tag_189\n      swap3\n      swap2\n      swap1\n      tag_114\n      jump\t// in\n    tag_189:\n      0x20\n      mload(0x40)\n      dup1\n      dup4\n      sub\n      dup2\n      dup7\n      gas\n      delegatecall\n      iszero\n      dup1\n      iszero\n      tag_191\n      jumpi\n      returndatasize\n      0x00\n      dup1\n      returndatacopy\n      revert(0x00, returndatasize)\n    tag_191:\n      pop\n      pop\n      pop\n      pop\n      mload(0x40)\n      returndatasize\n      not(0x1f)\n      0x1f\n      dup3\n      add\n      and\n      dup3\n      add\n      dup1\n      0x40\n      mstore\n      pop\n      dup2\n      add\n      swap1\n      tag_192\n      swap2\n      swap1\n      tag_118\n      jump\t// in\n    tag_192:\n        /* \"contracts/Pedersen.sol\":1762:1779  return sum.mod(q) */\n      swap2\n      pop\n      pop\n        /* \"contracts/Pedersen.sol\":1540:1786  function homoAdd(uint256[] memory cs)... */\n      swap2\n      swap1\n      pop\n      jump\t// out\n        /* \"contracts/Pedersen.sol\":6779:7131  function verifyZkpOneOfManyWithX(uint256 serialNo, Zkp1N1 memory zkp1, Zkp1N2 memory zkp2, uint8 nbits) public view returns(bool){... */\n    tag_64:\n        /* \"contracts/Pedersen.sol\":6903:6907  bool */\n      0x00\n        /* \"contracts/Pedersen.sol\":6918:6937  uint256[] memory cs */\n      dup1\n        /* \"contracts/Pedersen.sol\":6940:6944  zkp1 */\n      dup5\n        /* \"contracts/Pedersen.sol\":6940:6947  zkp1.cs */\n      0x00\n      add\n      mload\n        /* \"contracts/Pedersen.sol\":6918:6947  uint256[] memory cs = zkp1.cs */\n      swap1\n      pop\n        /* \"contracts/Pedersen.sol\":6961:6967  uint i */\n      0x00\n        /* \"contracts/Pedersen.sol\":6957:7071  for(uint i=0; i < cs.length; i++){... */\n    tag_194:\n        /* \"contracts/Pedersen.sol\":6975:6977  cs */\n      dup2\n        /* \"contracts/Pedersen.sol\":6975:6984  cs.length */\n      mload\n        /* \"contracts/Pedersen.sol\":6971:6972  i */\n      dup2\n        /* \"contracts/Pedersen.sol\":6971:6984  i < cs.length */\n      lt\n        /* \"contracts/Pedersen.sol\":6957:7071  for(uint i=0; i < cs.length; i++){... */\n      iszero\n      tag_195\n      jumpi\n        /* \"contracts/Pedersen.sol\":7012:7060  homoAdd(cs[i], (g.modPow(serialNo.negate(), q))) */\n      tag_197\n        /* \"contracts/Pedersen.sol\":7020:7022  cs */\n      dup3\n        /* \"contracts/Pedersen.sol\":7023:7024  i */\n      dup3\n        /* \"contracts/Pedersen.sol\":7020:7025  cs[i] */\n      dup2\n      mload\n      dup2\n      lt\n      tag_198\n      jumpi\n      tag_199\n      tag_150\n      jump\t// in\n    tag_199:\n    tag_198:\n      0x20\n      mul\n      0x20\n      add\n      add\n      mload\n        /* \"contracts/Pedersen.sol\":7028:7058  g.modPow(serialNo.negate(), q) */\n      tag_200\n        /* \"contracts/Pedersen.sol\":7037:7054  serialNo.negate() */\n      tag_201\n        /* \"contracts/Pedersen.sol\":7037:7045  serialNo */\n      dup11\n        /* \"contracts/Pedersen.sol\":7037:7052  serialNo.negate */\n      tag_202\n        /* \"contracts/Pedersen.sol\":7037:7054  serialNo.negate() */\n      jump\t// in\n    tag_201:\n        /* \"contracts/Pedersen.sol\":7056:7057  q */\n      sload(0x02)\n        /* \"contracts/Pedersen.sol\":7028:7029  g */\n      sload(0x00)\n        /* \"contracts/Pedersen.sol\":7028:7036  g.modPow */\n      tag_108\n      swap1\n        /* \"contracts/Pedersen.sol\":7028:7058  g.modPow(serialNo.negate(), q) */\n      swap3\n      swap2\n      swap1\n      0xffffffff\n      and\n      jump\t// in\n    tag_200:\n        /* \"contracts/Pedersen.sol\":7012:7019  homoAdd */\n      tag_82\n        /* \"contracts/Pedersen.sol\":7012:7060  homoAdd(cs[i], (g.modPow(serialNo.negate(), q))) */\n      jump\t// in\n    tag_197:\n        /* \"contracts/Pedersen.sol\":7004:7006  cs */\n      dup3\n        /* \"contracts/Pedersen.sol\":7007:7008  i */\n      dup3\n        /* \"contracts/Pedersen.sol\":7004:7009  cs[i] */\n      dup2\n      mload\n      dup2\n      lt\n      tag_203\n      jumpi\n      tag_204\n      tag_150\n      jump\t// in\n    tag_204:\n    tag_203:\n      0x20\n      mul\n      0x20\n      add\n      add\n        /* \"contracts/Pedersen.sol\":7004:7060  cs[i] = homoAdd(cs[i], (g.modPow(serialNo.negate(), q))) */\n      dup2\n      dup2\n      mstore\n      pop\n      pop\n        /* \"contracts/Pedersen.sol\":6986:6989  i++ */\n      dup1\n      dup1\n      0x01\n      add\n      swap2\n      pop\n      pop\n        /* \"contracts/Pedersen.sol\":6957:7071  for(uint i=0; i < cs.length; i++){... */\n      jump(tag_194)\n    tag_195:\n      pop\n        /* \"contracts/Pedersen.sol\":7087:7124  verifyZkpOneOfMany(zkp1, zkp2, nbits) */\n      tag_205\n        /* \"contracts/Pedersen.sol\":7106:7110  zkp1 */\n      dup6\n        /* \"contracts/Pedersen.sol\":7112:7116  zkp2 */\n      dup6\n        /* \"contracts/Pedersen.sol\":7118:7123  nbits */\n      dup6\n        /* \"contracts/Pedersen.sol\":7087:7105  verifyZkpOneOfMany */\n      tag_50\n        /* \"contracts/Pedersen.sol\":7087:7124  verifyZkpOneOfMany(zkp1, zkp2, nbits) */\n      jump\t// in\n    tag_205:\n        /* \"contracts/Pedersen.sol\":7080:7124  return verifyZkpOneOfMany(zkp1, zkp2, nbits) */\n      swap2\n      pop\n      pop\n        /* \"contracts/Pedersen.sol\":6779:7131  function verifyZkpOneOfManyWithX(uint256 serialNo, Zkp1N1 memory zkp1, Zkp1N2 memory zkp2, uint8 nbits) public view returns(bool){... */\n      swap5\n      swap4\n      pop\n      pop\n      pop\n      pop\n      jump\t// out\n        /* \"contracts/Pedersen.sol\":5923:6773  function computeBeta(Zkp1N1 memory zkp)... */\n    tag_69:\n        /* \"contracts/Pedersen.sol\":6000:6007  uint256 */\n      0x00\n        /* \"contracts/Pedersen.sol\":6023:6042  uint256[] memory cs */\n      dup1\n        /* \"contracts/Pedersen.sol\":6045:6048  zkp */\n      dup3\n        /* \"contracts/Pedersen.sol\":6045:6051  zkp.cs */\n      0x00\n      add\n      mload\n        /* \"contracts/Pedersen.sol\":6023:6051  uint256[] memory cs = zkp.cs */\n      swap1\n      pop\n        /* \"contracts/Pedersen.sol\":6061:6081  uint256[] memory cls */\n      0x00\n        /* \"contracts/Pedersen.sol\":6084:6087  zkp */\n      dup4\n        /* \"contracts/Pedersen.sol\":6084:6091  zkp.cls */\n      0x40\n      add\n      mload\n        /* \"contracts/Pedersen.sol\":6061:6091  uint256[] memory cls = zkp.cls */\n      swap1\n      pop\n        /* \"contracts/Pedersen.sol\":6101:6121  uint256[] memory cas */\n      0x00\n        /* \"contracts/Pedersen.sol\":6124:6127  zkp */\n      dup5\n        /* \"contracts/Pedersen.sol\":6124:6131  zkp.cas */\n      0x60\n      add\n      mload\n        /* \"contracts/Pedersen.sol\":6101:6131  uint256[] memory cas = zkp.cas */\n      swap1\n      pop\n        /* \"contracts/Pedersen.sol\":6141:6161  uint256[] memory cbs */\n      0x00\n        /* \"contracts/Pedersen.sol\":6164:6167  zkp */\n      dup6\n        /* \"contracts/Pedersen.sol\":6164:6171  zkp.cbs */\n      0x80\n      add\n      mload\n        /* \"contracts/Pedersen.sol\":6141:6171  uint256[] memory cbs = zkp.cbs */\n      swap1\n      pop\n        /* \"contracts/Pedersen.sol\":6181:6201  uint256[] memory cds */\n      0x00\n        /* \"contracts/Pedersen.sol\":6204:6207  zkp */\n      dup7\n        /* \"contracts/Pedersen.sol\":6204:6211  zkp.cds */\n      0xa0\n      add\n      mload\n        /* \"contracts/Pedersen.sol\":6181:6211  uint256[] memory cds = zkp.cds */\n      swap1\n      pop\n        /* \"contracts/Pedersen.sol\":6222:6233  uint256 sum */\n      0x00\n        /* \"contracts/Pedersen.sol\":6251:6257  uint i */\n      dup1\n        /* \"contracts/Pedersen.sol\":6247:6329  for(uint i=0;i<cs.length;i++) {... */\n    tag_207:\n        /* \"contracts/Pedersen.sol\":6262:6264  cs */\n      dup7\n        /* \"contracts/Pedersen.sol\":6262:6271  cs.length */\n      mload\n        /* \"contracts/Pedersen.sol\":6260:6261  i */\n      dup2\n        /* \"contracts/Pedersen.sol\":6260:6271  i<cs.length */\n      lt\n        /* \"contracts/Pedersen.sol\":6247:6329  for(uint i=0;i<cs.length;i++) {... */\n      iszero\n      tag_208\n      jumpi\n        /* \"contracts/Pedersen.sol\":6316:6317  q */\n      sload(0x02)\n        /* \"contracts/Pedersen.sol\":6297:6318  addmod(sum, cs[i], q) */\n      dup1\n      tag_210\n      jumpi\n      tag_211\n      tag_92\n      jump\t// in\n    tag_211:\n    tag_210:\n        /* \"contracts/Pedersen.sol\":6309:6311  cs */\n      dup8\n        /* \"contracts/Pedersen.sol\":6312:6313  i */\n      dup3\n        /* \"contracts/Pedersen.sol\":6309:6314  cs[i] */\n      dup2\n      mload\n      dup2\n      lt\n      tag_212\n      jumpi\n      tag_213\n      tag_150\n      jump\t// in\n    tag_213:\n    tag_212:\n      0x20\n      mul\n      0x20\n      add\n      add\n      mload\n        /* \"contracts/Pedersen.sol\":6304:6307  sum */\n      dup4\n        /* \"contracts/Pedersen.sol\":6297:6318  addmod(sum, cs[i], q) */\n      addmod\n        /* \"contracts/Pedersen.sol\":6291:6318  sum = addmod(sum, cs[i], q) */\n      swap2\n      pop\n        /* \"contracts/Pedersen.sol\":6272:6275  i++ */\n      dup1\n      dup1\n      0x01\n      add\n      swap2\n      pop\n      pop\n        /* \"contracts/Pedersen.sol\":6247:6329  for(uint i=0;i<cs.length;i++) {... */\n      jump(tag_207)\n    tag_208:\n      pop\n        /* \"contracts/Pedersen.sol\":6342:6348  uint i */\n      0x00\n        /* \"contracts/Pedersen.sol\":6338:6422  for(uint i=0;i<cls.length;i++) {... */\n    tag_214:\n        /* \"contracts/Pedersen.sol\":6353:6356  cls */\n      dup6\n        /* \"contracts/Pedersen.sol\":6353:6363  cls.length */\n      mload\n        /* \"contracts/Pedersen.sol\":6351:6352  i */\n      dup2\n        /* \"contracts/Pedersen.sol\":6351:6363  i<cls.length */\n      lt\n        /* \"contracts/Pedersen.sol\":6338:6422  for(uint i=0;i<cls.length;i++) {... */\n      iszero\n      tag_215\n      jumpi\n        /* \"contracts/Pedersen.sol\":6409:6410  q */\n      sload(0x02)\n        /* \"contracts/Pedersen.sol\":6389:6411  addmod(sum, cls[i], q) */\n      dup1\n      tag_217\n      jumpi\n      tag_218\n      tag_92\n      jump\t// in\n    tag_218:\n    tag_217:\n        /* \"contracts/Pedersen.sol\":6401:6404  cls */\n      dup7\n        /* \"contracts/Pedersen.sol\":6405:6406  i */\n      dup3\n        /* \"contracts/Pedersen.sol\":6401:6407  cls[i] */\n      dup2\n      mload\n      dup2\n      lt\n      tag_219\n      jumpi\n      tag_220\n      tag_150\n      jump\t// in\n    tag_220:\n    tag_219:\n      0x20\n      mul\n      0x20\n      add\n      add\n      mload\n        /* \"contracts/Pedersen.sol\":6396:6399  sum */\n      dup4\n        /* \"contracts/Pedersen.sol\":6389:6411  addmod(sum, cls[i], q) */\n      addmod\n        /* \"contracts/Pedersen.sol\":6383:6411  sum = addmod(sum, cls[i], q) */\n      swap2\n      pop\n        /* \"contracts/Pedersen.sol\":6364:6367  i++ */\n      dup1\n      dup1\n      0x01\n      add\n      swap2\n      pop\n      pop\n        /* \"contracts/Pedersen.sol\":6338:6422  for(uint i=0;i<cls.length;i++) {... */\n      jump(tag_214)\n    tag_215:\n      pop\n        /* \"contracts/Pedersen.sol\":6435:6441  uint i */\n      0x00\n        /* \"contracts/Pedersen.sol\":6431:6515  for(uint i=0;i<cas.length;i++) {... */\n    tag_221:\n        /* \"contracts/Pedersen.sol\":6446:6449  cas */\n      dup5\n        /* \"contracts/Pedersen.sol\":6446:6456  cas.length */\n      mload\n        /* \"contracts/Pedersen.sol\":6444:6445  i */\n      dup2\n        /* \"contracts/Pedersen.sol\":6444:6456  i<cas.length */\n      lt\n        /* \"contracts/Pedersen.sol\":6431:6515  for(uint i=0;i<cas.length;i++) {... */\n      iszero\n      tag_222\n      jumpi\n        /* \"contracts/Pedersen.sol\":6502:6503  q */\n      sload(0x02)\n        /* \"contracts/Pedersen.sol\":6482:6504  addmod(sum, cas[i], q) */\n      dup1\n      tag_224\n      jumpi\n      tag_225\n      tag_92\n      jump\t// in\n    tag_225:\n    tag_224:\n        /* \"contracts/Pedersen.sol\":6494:6497  cas */\n      dup6\n        /* \"contracts/Pedersen.sol\":6498:6499  i */\n      dup3\n        /* \"contracts/Pedersen.sol\":6494:6500  cas[i] */\n      dup2\n      mload\n      dup2\n      lt\n      tag_226\n      jumpi\n      tag_227\n      tag_150\n      jump\t// in\n    tag_227:\n    tag_226:\n      0x20\n      mul\n      0x20\n      add\n      add\n      mload\n        /* \"contracts/Pedersen.sol\":6489:6492  sum */\n      dup4\n        /* \"contracts/Pedersen.sol\":6482:6504  addmod(sum, cas[i], q) */\n      addmod\n        /* \"contracts/Pedersen.sol\":6476:6504  sum = addmod(sum, cas[i], q) */\n      swap2\n      pop\n        /* \"contracts/Pedersen.sol\":6457:6460  i++ */\n      dup1\n      dup1\n      0x01\n      add\n      swap2\n      pop\n      pop\n        /* \"contracts/Pedersen.sol\":6431:6515  for(uint i=0;i<cas.length;i++) {... */\n      jump(tag_221)\n    tag_222:\n      pop\n        /* \"contracts/Pedersen.sol\":6528:6534  uint i */\n      0x00\n        /* \"contracts/Pedersen.sol\":6524:6608  for(uint i=0;i<cbs.length;i++) {... */\n    tag_228:\n        /* \"contracts/Pedersen.sol\":6539:6542  cbs */\n      dup4\n        /* \"contracts/Pedersen.sol\":6539:6549  cbs.length */\n      mload\n        /* \"contracts/Pedersen.sol\":6537:6538  i */\n      dup2\n        /* \"contracts/Pedersen.sol\":6537:6549  i<cbs.length */\n      lt\n        /* \"contracts/Pedersen.sol\":6524:6608  for(uint i=0;i<cbs.length;i++) {... */\n      iszero\n      tag_229\n      jumpi\n        /* \"contracts/Pedersen.sol\":6595:6596  q */\n      sload(0x02)\n        /* \"contracts/Pedersen.sol\":6575:6597  addmod(sum, cbs[i], q) */\n      dup1\n      tag_231\n      jumpi\n      tag_232\n      tag_92\n      jump\t// in\n    tag_232:\n    tag_231:\n        /* \"contracts/Pedersen.sol\":6587:6590  cbs */\n      dup5\n        /* \"contracts/Pedersen.sol\":6591:6592  i */\n      dup3\n        /* \"contracts/Pedersen.sol\":6587:6593  cbs[i] */\n      dup2\n      mload\n      dup2\n      lt\n      tag_233\n      jumpi\n      tag_234\n      tag_150\n      jump\t// in\n    tag_234:\n    tag_233:\n      0x20\n      mul\n      0x20\n      add\n      add\n      mload\n        /* \"contracts/Pedersen.sol\":6582:6585  sum */\n      dup4\n        /* \"contracts/Pedersen.sol\":6575:6597  addmod(sum, cbs[i], q) */\n      addmod\n        /* \"contracts/Pedersen.sol\":6569:6597  sum = addmod(sum, cbs[i], q) */\n      swap2\n      pop\n        /* \"contracts/Pedersen.sol\":6550:6553  i++ */\n      dup1\n      dup1\n      0x01\n      add\n      swap2\n      pop\n      pop\n        /* \"contracts/Pedersen.sol\":6524:6608  for(uint i=0;i<cbs.length;i++) {... */\n      jump(tag_228)\n    tag_229:\n      pop\n        /* \"contracts/Pedersen.sol\":6621:6627  uint i */\n      0x00\n        /* \"contracts/Pedersen.sol\":6617:6701  for(uint i=0;i<cds.length;i++) {... */\n    tag_235:\n        /* \"contracts/Pedersen.sol\":6632:6635  cds */\n      dup3\n        /* \"contracts/Pedersen.sol\":6632:6642  cds.length */\n      mload\n        /* \"contracts/Pedersen.sol\":6630:6631  i */\n      dup2\n        /* \"contracts/Pedersen.sol\":6630:6642  i<cds.length */\n      lt\n        /* \"contracts/Pedersen.sol\":6617:6701  for(uint i=0;i<cds.length;i++) {... */\n      iszero\n      tag_236\n      jumpi\n        /* \"contracts/Pedersen.sol\":6688:6689  q */\n      sload(0x02)\n        /* \"contracts/Pedersen.sol\":6668:6690  addmod(sum, cds[i], q) */\n      dup1\n      tag_238\n      jumpi\n      tag_239\n      tag_92\n      jump\t// in\n    tag_239:\n    tag_238:\n        /* \"contracts/Pedersen.sol\":6680:6683  cds */\n      dup4\n        /* \"contracts/Pedersen.sol\":6684:6685  i */\n      dup3\n        /* \"contracts/Pedersen.sol\":6680:6686  cds[i] */\n      dup2\n      mload\n      dup2\n      lt\n      tag_240\n      jumpi\n      tag_241\n      tag_150\n      jump\t// in\n    tag_241:\n    tag_240:\n      0x20\n      mul\n      0x20\n      add\n      add\n      mload\n        /* \"contracts/Pedersen.sol\":6675:6678  sum */\n      dup4\n        /* \"contracts/Pedersen.sol\":6668:6690  addmod(sum, cds[i], q) */\n      addmod\n        /* \"contracts/Pedersen.sol\":6662:6690  sum = addmod(sum, cds[i], q) */\n      swap2\n      pop\n        /* \"contracts/Pedersen.sol\":6643:6646  i++ */\n      dup1\n      dup1\n      0x01\n      add\n      swap2\n      pop\n      pop\n        /* \"contracts/Pedersen.sol\":6617:6701  for(uint i=0;i<cds.length;i++) {... */\n      jump(tag_235)\n    tag_236:\n      pop\n        /* \"contracts/Pedersen.sol\":6753:6756  sum */\n      dup1\n        /* \"contracts/Pedersen.sol\":6736:6757  abi.encodePacked(sum) */\n      add(0x20, mload(0x40))\n      tag_242\n      swap2\n      swap1\n      tag_243\n      jump\t// in\n    tag_242:\n      mload(0x40)\n      0x20\n      dup2\n      dup4\n      sub\n      sub\n      dup2\n      mstore\n      swap1\n      0x40\n      mstore\n        /* \"contracts/Pedersen.sol\":6726:6758  keccak256(abi.encodePacked(sum)) */\n      dup1\n      mload\n      swap1\n      0x20\n      add\n      keccak256\n        /* \"contracts/Pedersen.sol\":6718:6759  uint256(keccak256(abi.encodePacked(sum))) */\n      0x00\n      shr\n        /* \"contracts/Pedersen.sol\":6718:6763  uint256(keccak256(abi.encodePacked(sum))).mod */\n      linkerSymbol(\"438773560da8ebd76b582f48732bda290a0db306f82403ff06c89d710c8696be\")\n      0xf43f523a\n      swap1\n      swap2\n        /* \"contracts/Pedersen.sol\":6764:6765  k */\n      sload(0x03)\n        /* \"contracts/Pedersen.sol\":6718:6766  uint256(keccak256(abi.encodePacked(sum))).mod(k) */\n      mload(0x40)\n      dup4\n      0xffffffff\n      and\n      0xe0\n      shl\n      dup2\n      mstore\n      0x04\n      add\n      tag_244\n      swap3\n      swap2\n      swap1\n      tag_114\n      jump\t// in\n    tag_244:\n      0x20\n      mload(0x40)\n      dup1\n      dup4\n      sub\n      dup2\n      dup7\n      gas\n      delegatecall\n      iszero\n      dup1\n      iszero\n      tag_246\n      jumpi\n      returndatasize\n      0x00\n      dup1\n      returndatacopy\n      revert(0x00, returndatasize)\n    tag_246:\n      pop\n      pop\n      pop\n      pop\n      mload(0x40)\n      returndatasize\n      not(0x1f)\n      0x1f\n      dup3\n      add\n      and\n      dup3\n      add\n      dup1\n      0x40\n      mstore\n      pop\n      dup2\n      add\n      swap1\n      tag_247\n      swap2\n      swap1\n      tag_118\n      jump\t// in\n    tag_247:\n        /* \"contracts/Pedersen.sol\":6711:6766  return uint256(keccak256(abi.encodePacked(sum))).mod(k) */\n      swap7\n      pop\n      pop\n      pop\n      pop\n      pop\n      pop\n      pop\n        /* \"contracts/Pedersen.sol\":5923:6773  function computeBeta(Zkp1N1 memory zkp)... */\n      swap2\n      swap1\n      pop\n      jump\t// out\n        /* \"contracts/Pedersen.sol\":917:1052  function commitToWithNoRand(uint256 a)... */\n    tag_74:\n        /* \"contracts/Pedersen.sol\":1001:1008  uint256 */\n      0x00\n        /* \"contracts/Pedersen.sol\":1031:1045  g.modPow(a, q) */\n      tag_249\n        /* \"contracts/Pedersen.sol\":1040:1041  a */\n      dup3\n        /* \"contracts/Pedersen.sol\":1043:1044  q */\n      sload(0x02)\n        /* \"contracts/Pedersen.sol\":1031:1032  g */\n      sload(0x00)\n        /* \"contracts/Pedersen.sol\":1031:1039  g.modPow */\n      tag_94\n      swap1\n        /* \"contracts/Pedersen.sol\":1031:1045  g.modPow(a, q) */\n      swap3\n      swap2\n      swap1\n      0xffffffff\n      and\n      jump\t// in\n    tag_249:\n        /* \"contracts/Pedersen.sol\":1024:1045  return g.modPow(a, q) */\n      swap1\n      pop\n        /* \"contracts/Pedersen.sol\":917:1052  function commitToWithNoRand(uint256 a)... */\n      swap2\n      swap1\n      pop\n      jump\t// out\n        /* \"contracts/Pedersen.sol\":1977:2112  function homoMul(uint256 c, uint256 e)... */\n    tag_78:\n        /* \"contracts/Pedersen.sol\":2061:2068  uint256 */\n      0x00\n        /* \"contracts/Pedersen.sol\":2091:2105  c.modPow(e, q) */\n      tag_251\n        /* \"contracts/Pedersen.sol\":2100:2101  e */\n      dup3\n        /* \"contracts/Pedersen.sol\":2103:2104  q */\n      sload(0x02)\n        /* \"contracts/Pedersen.sol\":2091:2092  c */\n      dup6\n        /* \"contracts/Pedersen.sol\":2091:2099  c.modPow */\n      tag_94\n      swap1\n        /* \"contracts/Pedersen.sol\":2091:2105  c.modPow(e, q) */\n      swap3\n      swap2\n      swap1\n      0xffffffff\n      and\n      jump\t// in\n    tag_251:\n        /* \"contracts/Pedersen.sol\":2084:2105  return c.modPow(e, q) */\n      swap1\n      pop\n        /* \"contracts/Pedersen.sol\":1977:2112  function homoMul(uint256 c, uint256 e)... */\n      swap3\n      swap2\n      pop\n      pop\n      jump\t// out\n        /* \"contracts/Pedersen.sol\":1394:1534  function homoAdd(uint256 c1, uint256 c2)... */\n    tag_82:\n        /* \"contracts/Pedersen.sol\":1480:1487  uint256 */\n      0x00\n        /* \"contracts/Pedersen.sol\":1525:1526  q */\n      sload(0x02)\n        /* \"contracts/Pedersen.sol\":1510:1527  mulmod(c1, c2, q) */\n      dup1\n      tag_253\n      jumpi\n      tag_254\n      tag_92\n      jump\t// in\n    tag_254:\n    tag_253:\n        /* \"contracts/Pedersen.sol\":1521:1523  c2 */\n      dup3\n        /* \"contracts/Pedersen.sol\":1517:1519  c1 */\n      dup5\n        /* \"contracts/Pedersen.sol\":1510:1527  mulmod(c1, c2, q) */\n      mulmod\n        /* \"contracts/Pedersen.sol\":1503:1527  return mulmod(c1, c2, q) */\n      swap1\n      pop\n        /* \"contracts/Pedersen.sol\":1394:1534  function homoAdd(uint256 c1, uint256 c2)... */\n      swap3\n      swap2\n      pop\n      pop\n      jump\t// out\n        /* \"contracts/Pedersen.sol\":2118:2252  function homoMul(uint256 c, int256 e)... */\n    tag_87:\n        /* \"contracts/Pedersen.sol\":2201:2208  uint256 */\n      0x00\n        /* \"contracts/Pedersen.sol\":2231:2245  c.modPow(e, q) */\n      tag_256\n        /* \"contracts/Pedersen.sol\":2240:2241  e */\n      dup3\n        /* \"contracts/Pedersen.sol\":2243:2244  q */\n      sload(0x02)\n        /* \"contracts/Pedersen.sol\":2231:2232  c */\n      dup6\n        /* \"contracts/Pedersen.sol\":2231:2239  c.modPow */\n      tag_108\n      swap1\n        /* \"contracts/Pedersen.sol\":2231:2245  c.modPow(e, q) */\n      swap3\n      swap2\n      swap1\n      0xffffffff\n      and\n      jump\t// in\n    tag_256:\n        /* \"contracts/Pedersen.sol\":2224:2245  return c.modPow(e, q) */\n      swap1\n      pop\n        /* \"contracts/Pedersen.sol\":2118:2252  function homoMul(uint256 c, int256 e)... */\n      swap3\n      swap2\n      pop\n      pop\n      jump\t// out\n        /* \"contracts/SafeMath.sol\":6441:7287  function modPow(uint256 _base, uint256 _exponent, uint256 _modulus)... */\n    tag_94:\n        /* \"contracts/SafeMath.sol\":6556:6563  uint256 */\n      0x00\n        /* \"contracts/SafeMath.sol\":6579:6591  bool success */\n      dup1\n        /* \"contracts/SafeMath.sol\":6601:6625  uint256[1] memory output */\n      tag_258\n      tag_259\n      jump\t// in\n    tag_258:\n        /* \"contracts/SafeMath.sol\":6635:6655  uint[6] memory input */\n      tag_260\n      tag_261\n      jump\t// in\n    tag_260:\n        /* \"contracts/SafeMath.sol\":6676:6680  0x20 */\n      0x20\n        /* \"contracts/SafeMath.sol\":6665:6670  input */\n      dup2\n        /* \"contracts/SafeMath.sol\":6671:6672  0 */\n      0x00\n        /* \"contracts/SafeMath.sol\":6665:6673  input[0] */\n      0x06\n      dup2\n      lt\n      tag_262\n      jumpi\n      tag_263\n      tag_150\n      jump\t// in\n    tag_263:\n    tag_262:\n      0x20\n      mul\n      add\n        /* \"contracts/SafeMath.sol\":6665:6680  input[0] = 0x20 */\n      dup2\n      dup2\n      mstore\n      pop\n      pop\n        /* \"contracts/SafeMath.sol\":6766:6770  0x20 */\n      0x20\n        /* \"contracts/SafeMath.sol\":6755:6760  input */\n      dup2\n        /* \"contracts/SafeMath.sol\":6761:6762  1 */\n      0x01\n        /* \"contracts/SafeMath.sol\":6755:6763  input[1] */\n      0x06\n      dup2\n      lt\n      tag_264\n      jumpi\n      tag_265\n      tag_150\n      jump\t// in\n    tag_265:\n    tag_264:\n      0x20\n      mul\n      add\n        /* \"contracts/SafeMath.sol\":6755:6770  input[1] = 0x20 */\n      dup2\n      dup2\n      mstore\n      pop\n      pop\n        /* \"contracts/SafeMath.sol\":6857:6861  0x20 */\n      0x20\n        /* \"contracts/SafeMath.sol\":6846:6851  input */\n      dup2\n        /* \"contracts/SafeMath.sol\":6852:6853  2 */\n      0x02\n        /* \"contracts/SafeMath.sol\":6846:6854  input[2] */\n      0x06\n      dup2\n      lt\n      tag_266\n      jumpi\n      tag_267\n      tag_150\n      jump\t// in\n    tag_267:\n    tag_266:\n      0x20\n      mul\n      add\n        /* \"contracts/SafeMath.sol\":6846:6861  input[2] = 0x20 */\n      dup2\n      dup2\n      mstore\n      pop\n      pop\n        /* \"contracts/SafeMath.sol\":6948:6953  _base */\n      dup7\n        /* \"contracts/SafeMath.sol\":6937:6942  input */\n      dup2\n        /* \"contracts/SafeMath.sol\":6943:6944  3 */\n      0x03\n        /* \"contracts/SafeMath.sol\":6937:6945  input[3] */\n      0x06\n      dup2\n      lt\n      tag_268\n      jumpi\n      tag_269\n      tag_150\n      jump\t// in\n    tag_269:\n    tag_268:\n      0x20\n      mul\n      add\n        /* \"contracts/SafeMath.sol\":6937:6953  input[3] = _base */\n      dup2\n      dup2\n      mstore\n      pop\n      pop\n        /* \"contracts/SafeMath.sol\":6974:6983  _exponent */\n      dup6\n        /* \"contracts/SafeMath.sol\":6963:6968  input */\n      dup2\n        /* \"contracts/SafeMath.sol\":6969:6970  4 */\n      0x04\n        /* \"contracts/SafeMath.sol\":6963:6971  input[4] */\n      0x06\n      dup2\n      lt\n      tag_270\n      jumpi\n      tag_271\n      tag_150\n      jump\t// in\n    tag_271:\n    tag_270:\n      0x20\n      mul\n      add\n        /* \"contracts/SafeMath.sol\":6963:6983  input[4] = _exponent */\n      dup2\n      dup2\n      mstore\n      pop\n      pop\n        /* \"contracts/SafeMath.sol\":7004:7012  _modulus */\n      dup5\n        /* \"contracts/SafeMath.sol\":6993:6998  input */\n      dup2\n        /* \"contracts/SafeMath.sol\":6999:7000  5 */\n      0x05\n        /* \"contracts/SafeMath.sol\":6993:7001  input[5] */\n      0x06\n      dup2\n      lt\n      tag_272\n      jumpi\n      tag_273\n      tag_150\n      jump\t// in\n    tag_273:\n    tag_272:\n      0x20\n      mul\n      add\n        /* \"contracts/SafeMath.sol\":6993:7012  input[5] = _modulus */\n      dup2\n      dup2\n      mstore\n      pop\n      pop\n        /* \"contracts/SafeMath.sol\":7109:7113  0x20 */\n      0x20\n        /* \"contracts/SafeMath.sol\":7101:7107  output */\n      dup3\n        /* \"contracts/SafeMath.sol\":7095:7099  0xc0 */\n      0xc0\n        /* \"contracts/SafeMath.sol\":7088:7093  input */\n      dup4\n        /* \"contracts/SafeMath.sol\":7085:7086  5 */\n      0x05\n        /* \"contracts/SafeMath.sol\":7078:7082  2000 */\n      0x07d0\n        /* \"contracts/SafeMath.sol\":7071:7076  gas() */\n      gas\n        /* \"contracts/SafeMath.sol\":7067:7083  sub(gas(), 2000) */\n      sub\n        /* \"contracts/SafeMath.sol\":7056:7114  staticcall(sub(gas(), 2000), 5, input, 0xc0, output, 0x20) */\n      staticcall\n        /* \"contracts/SafeMath.sol\":7045:7114  success := staticcall(sub(gas(), 2000), 5, input, 0xc0, output, 0x20) */\n      swap3\n      pop\n        /* \"contracts/SafeMath.sol\":7191:7198  success */\n      dup3\n        /* \"contracts/SafeMath.sol\":7204:7205  0 */\n      0x00\n        /* \"contracts/SafeMath.sol\":7199:7219  case 0 { invalid() } */\n      dup2\n      sub\n        /* \"contracts/SafeMath.sol\":7184:7219  switch success case 0 { invalid() } */\n      tag_274\n        /* \"contracts/SafeMath.sol\":7199:7219  case 0 { invalid() } */\n      jumpi\n        /* \"contracts/SafeMath.sol\":7208:7217  invalid() */\n      invalid\n        /* \"contracts/SafeMath.sol\":7184:7219  switch success case 0 { invalid() } */\n    tag_274:\n      pop\n        /* \"contracts/SafeMath.sol\":7246:7253  success */\n      dup3\n        /* \"contracts/SafeMath.sol\":7238:7254  require(success) */\n      tag_276\n      jumpi\n      0x00\n      dup1\n      revert\n    tag_276:\n        /* \"contracts/SafeMath.sol\":7271:7277  output */\n      dup2\n        /* \"contracts/SafeMath.sol\":7278:7279  0 */\n      0x00\n        /* \"contracts/SafeMath.sol\":7271:7280  output[0] */\n      0x01\n      dup2\n      lt\n      tag_277\n      jumpi\n      tag_278\n      tag_150\n      jump\t// in\n    tag_278:\n    tag_277:\n      0x20\n      mul\n      add\n      mload\n        /* \"contracts/SafeMath.sol\":7264:7280  return output[0] */\n      swap4\n      pop\n      pop\n      pop\n      pop\n        /* \"contracts/SafeMath.sol\":6441:7287  function modPow(uint256 _base, uint256 _exponent, uint256 _modulus)... */\n      swap4\n      swap3\n      pop\n      pop\n      pop\n      jump\t// out\n        /* \"contracts/SafeMath.sol\":5755:6087  function modPow(uint256 _base, int256 _exponent, uint256 _modulus)... */\n    tag_108:\n        /* \"contracts/SafeMath.sol\":5869:5876  uint256 */\n      0x00\n        /* \"contracts/SafeMath.sol\":5908:5909  0 */\n      dup1\n        /* \"contracts/SafeMath.sol\":5895:5904  _exponent */\n      dup4\n        /* \"contracts/SafeMath.sol\":5895:5909  _exponent >= 0 */\n      slt\n        /* \"contracts/SafeMath.sol\":5892:6081  if(_exponent >= 0) {... */\n      tag_280\n      jumpi\n        /* \"contracts/SafeMath.sol\":5932:5975  modPow(_base, uint256(_exponent), _modulus) */\n      tag_281\n        /* \"contracts/SafeMath.sol\":5939:5944  _base */\n      dup5\n        /* \"contracts/SafeMath.sol\":5954:5963  _exponent */\n      dup5\n        /* \"contracts/SafeMath.sol\":5966:5974  _modulus */\n      dup5\n        /* \"contracts/SafeMath.sol\":5932:5938  modPow */\n      tag_94\n        /* \"contracts/SafeMath.sol\":5932:5975  modPow(_base, uint256(_exponent), _modulus) */\n      jump\t// in\n    tag_281:\n        /* \"contracts/SafeMath.sol\":5925:5975  return modPow(_base, uint256(_exponent), _modulus) */\n      swap1\n      pop\n      jump(tag_279)\n        /* \"contracts/SafeMath.sol\":5892:6081  if(_exponent >= 0) {... */\n    tag_280:\n        /* \"contracts/SafeMath.sol\":6013:6070  modPow(modInv(_base, _modulus), abs(_exponent), _modulus) */\n      tag_283\n        /* \"contracts/SafeMath.sol\":6020:6043  modInv(_base, _modulus) */\n      tag_284\n        /* \"contracts/SafeMath.sol\":6027:6032  _base */\n      dup6\n        /* \"contracts/SafeMath.sol\":6034:6042  _modulus */\n      dup5\n        /* \"contracts/SafeMath.sol\":6020:6026  modInv */\n      tag_285\n        /* \"contracts/SafeMath.sol\":6020:6043  modInv(_base, _modulus) */\n      jump\t// in\n    tag_284:\n        /* \"contracts/SafeMath.sol\":6045:6059  abs(_exponent) */\n      tag_286\n        /* \"contracts/SafeMath.sol\":6049:6058  _exponent */\n      dup6\n        /* \"contracts/SafeMath.sol\":6045:6048  abs */\n      tag_287\n        /* \"contracts/SafeMath.sol\":6045:6059  abs(_exponent) */\n      jump\t// in\n    tag_286:\n        /* \"contracts/SafeMath.sol\":6061:6069  _modulus */\n      dup5\n        /* \"contracts/SafeMath.sol\":6013:6019  modPow */\n      tag_94\n        /* \"contracts/SafeMath.sol\":6013:6070  modPow(modInv(_base, _modulus), abs(_exponent), _modulus) */\n      jump\t// in\n    tag_283:\n        /* \"contracts/SafeMath.sol\":6006:6070  return modPow(modInv(_base, _modulus), abs(_exponent), _modulus) */\n      swap1\n      pop\n        /* \"contracts/SafeMath.sol\":5755:6087  function modPow(uint256 _base, int256 _exponent, uint256 _modulus)... */\n    tag_279:\n      swap4\n      swap3\n      pop\n      pop\n      pop\n      jump\t// out\n        /* \"contracts/Pedersen.sol\":3452:3657  function checkZeroOneZkp(uint256[] memory cls, ZkpZeroOne[] memory zkps)... */\n    tag_134:\n        /* \"contracts/Pedersen.sol\":3569:3575  uint i */\n      0x00\n        /* \"contracts/Pedersen.sol\":3565:3651  for(uint i=0;i<cls.length;i++) {... */\n    tag_289:\n        /* \"contracts/Pedersen.sol\":3580:3583  cls */\n      dup3\n        /* \"contracts/Pedersen.sol\":3580:3590  cls.length */\n      mload\n        /* \"contracts/Pedersen.sol\":3578:3579  i */\n      dup2\n        /* \"contracts/Pedersen.sol\":3578:3590  i<cls.length */\n      lt\n        /* \"contracts/Pedersen.sol\":3565:3651  for(uint i=0;i<cls.length;i++) {... */\n      iszero\n      tag_290\n      jumpi\n        /* \"contracts/Pedersen.sol\":3610:3640  verifyZeroOne(cls[i], zkps[i]) */\n      tag_292\n        /* \"contracts/Pedersen.sol\":3624:3627  cls */\n      dup4\n        /* \"contracts/Pedersen.sol\":3628:3629  i */\n      dup3\n        /* \"contracts/Pedersen.sol\":3624:3630  cls[i] */\n      dup2\n      mload\n      dup2\n      lt\n      tag_293\n      jumpi\n      tag_294\n      tag_150\n      jump\t// in\n    tag_294:\n    tag_293:\n      0x20\n      mul\n      0x20\n      add\n      add\n      mload\n        /* \"contracts/Pedersen.sol\":3632:3636  zkps */\n      dup4\n        /* \"contracts/Pedersen.sol\":3637:3638  i */\n      dup4\n        /* \"contracts/Pedersen.sol\":3632:3639  zkps[i] */\n      dup2\n      mload\n      dup2\n      lt\n      tag_295\n      jumpi\n      tag_296\n      tag_150\n      jump\t// in\n    tag_296:\n    tag_295:\n      0x20\n      mul\n      0x20\n      add\n      add\n      mload\n        /* \"contracts/Pedersen.sol\":3610:3623  verifyZeroOne */\n      tag_40\n        /* \"contracts/Pedersen.sol\":3610:3640  verifyZeroOne(cls[i], zkps[i]) */\n      jump\t// in\n    tag_292:\n        /* \"contracts/Pedersen.sol\":3591:3594  i++ */\n      dup1\n      dup1\n      0x01\n      add\n      swap2\n      pop\n      pop\n        /* \"contracts/Pedersen.sol\":3565:3651  for(uint i=0;i<cls.length;i++) {... */\n      jump(tag_289)\n    tag_290:\n      pop\n        /* \"contracts/Pedersen.sol\":3452:3657  function checkZeroOneZkp(uint256[] memory cls, ZkpZeroOne[] memory zkps)... */\n      pop\n      pop\n      jump\t// out\n        /* \"contracts/Pedersen.sol\":3663:4079  function checkConstraint1(uint256[] memory cls, uint256[] memory cas, int256[] memory fs, int256[] memory zas, int256 betaWithSign, uint8 nbits)... */\n    tag_137:\n        /* \"contracts/Pedersen.sol\":3848:3854  uint i */\n      0x00\n        /* \"contracts/Pedersen.sol\":3844:4073  for(uint i=0;i<nbits;i++) {... */\n    tag_298:\n        /* \"contracts/Pedersen.sol\":3859:3864  nbits */\n      dup2\n        /* \"contracts/Pedersen.sol\":3857:3864  i<nbits */\n      0xff\n      and\n        /* \"contracts/Pedersen.sol\":3857:3858  i */\n      dup2\n        /* \"contracts/Pedersen.sol\":3857:3864  i<nbits */\n      lt\n        /* \"contracts/Pedersen.sol\":3844:4073  for(uint i=0;i<nbits;i++) {... */\n      iszero\n      tag_299\n      jumpi\n        /* \"contracts/Pedersen.sol\":3884:3892  int256 f */\n      0x00\n        /* \"contracts/Pedersen.sol\":3895:3897  fs */\n      dup6\n        /* \"contracts/Pedersen.sol\":3898:3899  i */\n      dup3\n        /* \"contracts/Pedersen.sol\":3895:3900  fs[i] */\n      dup2\n      mload\n      dup2\n      lt\n      tag_301\n      jumpi\n      tag_302\n      tag_150\n      jump\t// in\n    tag_302:\n    tag_301:\n      0x20\n      mul\n      0x20\n      add\n      add\n      mload\n        /* \"contracts/Pedersen.sol\":3884:3900  int256 f = fs[i] */\n      swap1\n      pop\n        /* \"contracts/Pedersen.sol\":3914:3927  uint256 ret11 */\n      0x00\n        /* \"contracts/Pedersen.sol\":3930:3976  homoAdd(homoMul(cls[i], betaWithSign), cas[i]) */\n      tag_303\n        /* \"contracts/Pedersen.sol\":3938:3967  homoMul(cls[i], betaWithSign) */\n      tag_304\n        /* \"contracts/Pedersen.sol\":3946:3949  cls */\n      dup11\n        /* \"contracts/Pedersen.sol\":3950:3951  i */\n      dup6\n        /* \"contracts/Pedersen.sol\":3946:3952  cls[i] */\n      dup2\n      mload\n      dup2\n      lt\n      tag_305\n      jumpi\n      tag_306\n      tag_150\n      jump\t// in\n    tag_306:\n    tag_305:\n      0x20\n      mul\n      0x20\n      add\n      add\n      mload\n        /* \"contracts/Pedersen.sol\":3954:3966  betaWithSign */\n      dup8\n        /* \"contracts/Pedersen.sol\":3938:3945  homoMul */\n      tag_87\n        /* \"contracts/Pedersen.sol\":3938:3967  homoMul(cls[i], betaWithSign) */\n      jump\t// in\n    tag_304:\n        /* \"contracts/Pedersen.sol\":3969:3972  cas */\n      dup10\n        /* \"contracts/Pedersen.sol\":3973:3974  i */\n      dup6\n        /* \"contracts/Pedersen.sol\":3969:3975  cas[i] */\n      dup2\n      mload\n      dup2\n      lt\n      tag_307\n      jumpi\n      tag_308\n      tag_150\n      jump\t// in\n    tag_308:\n    tag_307:\n      0x20\n      mul\n      0x20\n      add\n      add\n      mload\n        /* \"contracts/Pedersen.sol\":3930:3937  homoAdd */\n      tag_82\n        /* \"contracts/Pedersen.sol\":3930:3976  homoAdd(homoMul(cls[i], betaWithSign), cas[i]) */\n      jump\t// in\n    tag_303:\n        /* \"contracts/Pedersen.sol\":3914:3976  uint256 ret11 = homoAdd(homoMul(cls[i], betaWithSign), cas[i]) */\n      swap1\n      pop\n        /* \"contracts/Pedersen.sol\":3990:4003  uint256 ret12 */\n      0x00\n        /* \"contracts/Pedersen.sol\":4006:4025  commitTo(f, zas[i]) */\n      tag_309\n        /* \"contracts/Pedersen.sol\":4015:4016  f */\n      dup4\n        /* \"contracts/Pedersen.sol\":4018:4021  zas */\n      dup9\n        /* \"contracts/Pedersen.sol\":4022:4023  i */\n      dup7\n        /* \"contracts/Pedersen.sol\":4018:4024  zas[i] */\n      dup2\n      mload\n      dup2\n      lt\n      tag_310\n      jumpi\n      tag_311\n      tag_150\n      jump\t// in\n    tag_311:\n    tag_310:\n      0x20\n      mul\n      0x20\n      add\n      add\n      mload\n        /* \"contracts/Pedersen.sol\":4006:4014  commitTo */\n      tag_35\n        /* \"contracts/Pedersen.sol\":4006:4025  commitTo(f, zas[i]) */\n      jump\t// in\n    tag_309:\n        /* \"contracts/Pedersen.sol\":3990:4025  uint256 ret12 = commitTo(f, zas[i]) */\n      swap1\n      pop\n        /* \"contracts/Pedersen.sol\":4056:4061  ret12 */\n      dup1\n        /* \"contracts/Pedersen.sol\":4047:4052  ret11 */\n      dup3\n        /* \"contracts/Pedersen.sol\":4047:4061  ret11 == ret12 */\n      eq\n        /* \"contracts/Pedersen.sol\":4040:4062  assert(ret11 == ret12) */\n      tag_312\n      jumpi\n      tag_313\n      tag_130\n      jump\t// in\n    tag_313:\n    tag_312:\n        /* \"contracts/Pedersen.sol\":3870:4073  {... */\n      pop\n      pop\n      pop\n        /* \"contracts/Pedersen.sol\":3865:3868  i++ */\n      dup1\n      dup1\n      0x01\n      add\n      swap2\n      pop\n      pop\n        /* \"contracts/Pedersen.sol\":3844:4073  for(uint i=0;i<nbits;i++) {... */\n      jump(tag_298)\n    tag_299:\n      pop\n        /* \"contracts/Pedersen.sol\":3663:4079  function checkConstraint1(uint256[] memory cls, uint256[] memory cas, int256[] memory fs, int256[] memory zas, int256 betaWithSign, uint8 nbits)... */\n      pop\n      pop\n      pop\n      pop\n      pop\n      pop\n      jump\t// out\n        /* \"contracts/Pedersen.sol\":4085:4506  function checkConstraint2(uint256[] memory cls, uint256[] memory cbs, int256[] memory fs, int256[] memory zbs, int256 betaWithSign, uint8 nbits)... */\n    tag_139:\n        /* \"contracts/Pedersen.sol\":4270:4276  uint i */\n      0x00\n        /* \"contracts/Pedersen.sol\":4266:4500  for(uint i=0;i<nbits;i++) {... */\n    tag_315:\n        /* \"contracts/Pedersen.sol\":4281:4286  nbits */\n      dup2\n        /* \"contracts/Pedersen.sol\":4279:4286  i<nbits */\n      0xff\n      and\n        /* \"contracts/Pedersen.sol\":4279:4280  i */\n      dup2\n        /* \"contracts/Pedersen.sol\":4279:4286  i<nbits */\n      lt\n        /* \"contracts/Pedersen.sol\":4266:4500  for(uint i=0;i<nbits;i++) {... */\n      iszero\n      tag_316\n      jumpi\n        /* \"contracts/Pedersen.sol\":4306:4314  int256 f */\n      0x00\n        /* \"contracts/Pedersen.sol\":4317:4319  fs */\n      dup6\n        /* \"contracts/Pedersen.sol\":4320:4321  i */\n      dup3\n        /* \"contracts/Pedersen.sol\":4317:4322  fs[i] */\n      dup2\n      mload\n      dup2\n      lt\n      tag_318\n      jumpi\n      tag_319\n      tag_150\n      jump\t// in\n    tag_319:\n    tag_318:\n      0x20\n      mul\n      0x20\n      add\n      add\n      mload\n        /* \"contracts/Pedersen.sol\":4306:4322  int256 f = fs[i] */\n      swap1\n      pop\n        /* \"contracts/Pedersen.sol\":4337:4350  uint256 ret21 */\n      0x00\n        /* \"contracts/Pedersen.sol\":4353:4403  homoAdd(homoMul(cls[i], betaWithSign - f), cbs[i]) */\n      tag_320\n        /* \"contracts/Pedersen.sol\":4361:4394  homoMul(cls[i], betaWithSign - f) */\n      tag_321\n        /* \"contracts/Pedersen.sol\":4369:4372  cls */\n      dup11\n        /* \"contracts/Pedersen.sol\":4373:4374  i */\n      dup6\n        /* \"contracts/Pedersen.sol\":4369:4375  cls[i] */\n      dup2\n      mload\n      dup2\n      lt\n      tag_322\n      jumpi\n      tag_323\n      tag_150\n      jump\t// in\n    tag_323:\n    tag_322:\n      0x20\n      mul\n      0x20\n      add\n      add\n      mload\n        /* \"contracts/Pedersen.sol\":4392:4393  f */\n      dup5\n        /* \"contracts/Pedersen.sol\":4377:4389  betaWithSign */\n      dup9\n        /* \"contracts/Pedersen.sol\":4377:4393  betaWithSign - f */\n      tag_324\n      swap2\n      swap1\n      tag_126\n      jump\t// in\n    tag_324:\n        /* \"contracts/Pedersen.sol\":4361:4368  homoMul */\n      tag_87\n        /* \"contracts/Pedersen.sol\":4361:4394  homoMul(cls[i], betaWithSign - f) */\n      jump\t// in\n    tag_321:\n        /* \"contracts/Pedersen.sol\":4396:4399  cbs */\n      dup10\n        /* \"contracts/Pedersen.sol\":4400:4401  i */\n      dup6\n        /* \"contracts/Pedersen.sol\":4396:4402  cbs[i] */\n      dup2\n      mload\n      dup2\n      lt\n      tag_325\n      jumpi\n      tag_326\n      tag_150\n      jump\t// in\n    tag_326:\n    tag_325:\n      0x20\n      mul\n      0x20\n      add\n      add\n      mload\n        /* \"contracts/Pedersen.sol\":4353:4360  homoAdd */\n      tag_82\n        /* \"contracts/Pedersen.sol\":4353:4403  homoAdd(homoMul(cls[i], betaWithSign - f), cbs[i]) */\n      jump\t// in\n    tag_320:\n        /* \"contracts/Pedersen.sol\":4337:4403  uint256 ret21 = homoAdd(homoMul(cls[i], betaWithSign - f), cbs[i]) */\n      swap1\n      pop\n        /* \"contracts/Pedersen.sol\":4417:4430  uint256 ret22 */\n      0x00\n        /* \"contracts/Pedersen.sol\":4433:4452  commitTo(0, zbs[i]) */\n      tag_327\n        /* \"contracts/Pedersen.sol\":4442:4443  0 */\n      0x00\n        /* \"contracts/Pedersen.sol\":4445:4448  zbs */\n      dup9\n        /* \"contracts/Pedersen.sol\":4449:4450  i */\n      dup7\n        /* \"contracts/Pedersen.sol\":4445:4451  zbs[i] */\n      dup2\n      mload\n      dup2\n      lt\n      tag_328\n      jumpi\n      tag_329\n      tag_150\n      jump\t// in\n    tag_329:\n    tag_328:\n      0x20\n      mul\n      0x20\n      add\n      add\n      mload\n        /* \"contracts/Pedersen.sol\":4433:4441  commitTo */\n      tag_35\n        /* \"contracts/Pedersen.sol\":4433:4452  commitTo(0, zbs[i]) */\n      jump\t// in\n    tag_327:\n        /* \"contracts/Pedersen.sol\":4417:4452  uint256 ret22 = commitTo(0, zbs[i]) */\n      swap1\n      pop\n        /* \"contracts/Pedersen.sol\":4483:4488  ret22 */\n      dup1\n        /* \"contracts/Pedersen.sol\":4474:4479  ret21 */\n      dup3\n        /* \"contracts/Pedersen.sol\":4474:4488  ret21 == ret22 */\n      eq\n        /* \"contracts/Pedersen.sol\":4467:4489  assert(ret21 == ret22) */\n      tag_330\n      jumpi\n      tag_331\n      tag_130\n      jump\t// in\n    tag_331:\n    tag_330:\n        /* \"contracts/Pedersen.sol\":4292:4500  {... */\n      pop\n      pop\n      pop\n        /* \"contracts/Pedersen.sol\":4287:4290  i++ */\n      dup1\n      dup1\n      0x01\n      add\n      swap2\n      pop\n      pop\n        /* \"contracts/Pedersen.sol\":4266:4500  for(uint i=0;i<nbits;i++) {... */\n      jump(tag_315)\n    tag_316:\n      pop\n        /* \"contracts/Pedersen.sol\":4085:4506  function checkConstraint2(uint256[] memory cls, uint256[] memory cbs, int256[] memory fs, int256[] memory zbs, int256 betaWithSign, uint8 nbits)... */\n      pop\n      pop\n      pop\n      pop\n      pop\n      pop\n      jump\t// out\n        /* \"contracts/SafeMath.sol\":3915:4042  function negate(uint256 a)... */\n    tag_202:\n        /* \"contracts/SafeMath.sol\":3989:3995  int256 */\n      0x00\n        /* \"contracts/SafeMath.sol\":4018:4035  negate(int256(a)) */\n      tag_333\n        /* \"contracts/SafeMath.sol\":4032:4033  a */\n      dup3\n        /* \"contracts/SafeMath.sol\":4018:4024  negate */\n      tag_334\n        /* \"contracts/SafeMath.sol\":4018:4035  negate(int256(a)) */\n      jump\t// in\n    tag_333:\n        /* \"contracts/SafeMath.sol\":4011:4035  return negate(int256(a)) */\n      swap1\n      pop\n        /* \"contracts/SafeMath.sol\":3915:4042  function negate(uint256 a)... */\n      swap2\n      swap1\n      pop\n      jump\t// out\n        /* \"contracts/SafeMath.sol\":4400:4904  function modInv(uint256 a, uint256 b)... */\n    tag_285:\n        /* \"contracts/SafeMath.sol\":4485:4492  uint256 */\n      0x00\n        /* \"contracts/SafeMath.sol\":4515:4516  b */\n      dup2\n        /* \"contracts/SafeMath.sol\":4511:4512  a */\n      dup4\n        /* \"contracts/SafeMath.sol\":4511:4516  a > b */\n      gt\n        /* \"contracts/SafeMath.sol\":4508:4552  if(a > b) {... */\n      iszero\n      tag_336\n      jumpi\n        /* \"contracts/SafeMath.sol\":4540:4541  b */\n      dup2\n        /* \"contracts/SafeMath.sol\":4536:4537  a */\n      dup4\n        /* \"contracts/SafeMath.sol\":4536:4541  a % b */\n      tag_337\n      swap2\n      swap1\n      tag_338\n      jump\t// in\n    tag_337:\n        /* \"contracts/SafeMath.sol\":4532:4541  a = a % b */\n      swap3\n      pop\n        /* \"contracts/SafeMath.sol\":4508:4552  if(a > b) {... */\n    tag_336:\n        /* \"contracts/SafeMath.sol\":4562:4571  int256 t1 */\n      0x00\n        /* \"contracts/SafeMath.sol\":4585:4594  int256 t2 */\n      dup1\n        /* \"contracts/SafeMath.sol\":4597:4598  1 */\n      0x01\n        /* \"contracts/SafeMath.sol\":4585:4598  int256 t2 = 1 */\n      swap1\n      pop\n        /* \"contracts/SafeMath.sol\":4609:4619  uint256 r1 */\n      0x00\n        /* \"contracts/SafeMath.sol\":4622:4623  b */\n      dup5\n        /* \"contracts/SafeMath.sol\":4609:4623  uint256 r1 = b */\n      swap1\n      pop\n        /* \"contracts/SafeMath.sol\":4633:4643  uint256 r2 */\n      0x00\n        /* \"contracts/SafeMath.sol\":4646:4647  a */\n      dup7\n        /* \"contracts/SafeMath.sol\":4633:4647  uint256 r2 = a */\n      swap1\n      pop\n        /* \"contracts/SafeMath.sol\":4657:4666  uint256 q */\n      0x00\n        /* \"contracts/SafeMath.sol\":4676:4803  while (r2 != 0) {... */\n    tag_339:\n        /* \"contracts/SafeMath.sol\":4689:4690  0 */\n      0x00\n        /* \"contracts/SafeMath.sol\":4683:4685  r2 */\n      dup3\n        /* \"contracts/SafeMath.sol\":4683:4690  r2 != 0 */\n      eq\n        /* \"contracts/SafeMath.sol\":4676:4803  while (r2 != 0) {... */\n      tag_340\n      jumpi\n        /* \"contracts/SafeMath.sol\":4715:4717  r2 */\n      dup2\n        /* \"contracts/SafeMath.sol\":4710:4712  r1 */\n      dup4\n        /* \"contracts/SafeMath.sol\":4710:4717  r1 / r2 */\n      tag_341\n      swap2\n      swap1\n      tag_342\n      jump\t// in\n    tag_341:\n        /* \"contracts/SafeMath.sol\":4706:4717  q = r1 / r2 */\n      swap1\n      pop\n        /* \"contracts/SafeMath.sol\":4751:4753  t2 */\n      dup4\n        /* \"contracts/SafeMath.sol\":4772:4774  t2 */\n      dup5\n        /* \"contracts/SafeMath.sol\":4767:4768  q */\n      dup3\n        /* \"contracts/SafeMath.sol\":4760:4774  int256(q) * t2 */\n      tag_343\n      swap2\n      swap1\n      tag_152\n      jump\t// in\n    tag_343:\n        /* \"contracts/SafeMath.sol\":4755:4757  t1 */\n      dup7\n        /* \"contracts/SafeMath.sol\":4755:4774  t1 - int256(q) * t2 */\n      tag_344\n      swap2\n      swap1\n      tag_126\n      jump\t// in\n    tag_344:\n        /* \"contracts/SafeMath.sol\":4776:4778  r2 */\n      dup4\n        /* \"contracts/SafeMath.sol\":4789:4791  r2 */\n      dup5\n        /* \"contracts/SafeMath.sol\":4785:4786  q */\n      dup5\n        /* \"contracts/SafeMath.sol\":4785:4791  q * r2 */\n      tag_345\n      swap2\n      swap1\n      tag_346\n      jump\t// in\n    tag_345:\n        /* \"contracts/SafeMath.sol\":4780:4782  r1 */\n      dup7\n        /* \"contracts/SafeMath.sol\":4780:4791  r1 - q * r2 */\n      tag_347\n      swap2\n      swap1\n      tag_348\n      jump\t// in\n    tag_347:\n        /* \"contracts/SafeMath.sol\":4731:4792  (t1, t2, r1, r2) = (t2, t1 - int256(q) * t2, r2, r1 - q * r2) */\n      dup1\n      swap6\n      pop\n      dup2\n      swap7\n      pop\n      dup3\n      swap8\n      pop\n      dup4\n      swap9\n      pop\n      pop\n      pop\n      pop\n      pop\n        /* \"contracts/SafeMath.sol\":4676:4803  while (r2 != 0) {... */\n      jump(tag_339)\n    tag_340:\n        /* \"contracts/SafeMath.sol\":4821:4822  0 */\n      0x00\n        /* \"contracts/SafeMath.sol\":4816:4818  t1 */\n      dup6\n        /* \"contracts/SafeMath.sol\":4816:4822  t1 < 0 */\n      slt\n        /* \"contracts/SafeMath.sol\":4812:4869  if (t1 < 0) {... */\n      iszero\n      tag_349\n      jumpi\n        /* \"contracts/SafeMath.sol\":4850:4857  abs(t1) */\n      tag_350\n        /* \"contracts/SafeMath.sol\":4854:4856  t1 */\n      dup6\n        /* \"contracts/SafeMath.sol\":4850:4853  abs */\n      tag_287\n        /* \"contracts/SafeMath.sol\":4850:4857  abs(t1) */\n      jump\t// in\n    tag_350:\n        /* \"contracts/SafeMath.sol\":4846:4847  b */\n      dup8\n        /* \"contracts/SafeMath.sol\":4846:4857  b - abs(t1) */\n      tag_351\n      swap2\n      swap1\n      tag_348\n      jump\t// in\n    tag_351:\n        /* \"contracts/SafeMath.sol\":4838:4858  return (b - abs(t1)) */\n      swap6\n      pop\n      pop\n      pop\n      pop\n      pop\n      pop\n      jump(tag_335)\n        /* \"contracts/SafeMath.sol\":4812:4869  if (t1 < 0) {... */\n    tag_349:\n        /* \"contracts/SafeMath.sol\":4894:4896  t1 */\n      dup5\n        /* \"contracts/SafeMath.sol\":4879:4897  return uint256(t1) */\n      swap6\n      pop\n      pop\n      pop\n      pop\n      pop\n      pop\n        /* \"contracts/SafeMath.sol\":4400:4904  function modInv(uint256 a, uint256 b)... */\n    tag_335:\n      swap3\n      swap2\n      pop\n      pop\n      jump\t// out\n        /* \"contracts/SafeMath.sol\":4165:4394  function abs(int256 a)... */\n    tag_287:\n        /* \"contracts/SafeMath.sol\":4235:4242  uint256 */\n      0x00\n        /* \"contracts/SafeMath.sol\":4265:4266  0 */\n      dup1\n        /* \"contracts/SafeMath.sol\":4261:4262  a */\n      dup3\n        /* \"contracts/SafeMath.sol\":4261:4266  a > 0 */\n      sgt\n        /* \"contracts/SafeMath.sol\":4258:4369  if(a > 0) {... */\n      iszero\n      tag_353\n      jumpi\n        /* \"contracts/SafeMath.sol\":4297:4298  a */\n      dup2\n        /* \"contracts/SafeMath.sol\":4282:4299  return uint256(a) */\n      swap1\n      pop\n      jump(tag_352)\n        /* \"contracts/SafeMath.sol\":4258:4369  if(a > 0) {... */\n    tag_353:\n        /* \"contracts/SafeMath.sol\":4323:4324  0 */\n      0x00\n        /* \"contracts/SafeMath.sol\":4319:4320  a */\n      dup3\n        /* \"contracts/SafeMath.sol\":4319:4324  a < 0 */\n      slt\n        /* \"contracts/SafeMath.sol\":4316:4369  if(a < 0) {... */\n      iszero\n      tag_355\n      jumpi\n        /* \"contracts/SafeMath.sol\":4356:4357  a */\n      dup2\n        /* \"contracts/SafeMath.sol\":4355:4357  -a */\n      tag_356\n      swap1\n      tag_172\n      jump\t// in\n    tag_356:\n        /* \"contracts/SafeMath.sol\":4340:4358  return uint256(-a) */\n      swap1\n      pop\n      jump(tag_352)\n        /* \"contracts/SafeMath.sol\":4316:4369  if(a < 0) {... */\n    tag_355:\n        /* \"contracts/SafeMath.sol\":4386:4387  0 */\n      0x00\n        /* \"contracts/SafeMath.sol\":4379:4387  return 0 */\n      swap1\n      pop\n        /* \"contracts/SafeMath.sol\":4165:4394  function abs(int256 a)... */\n    tag_352:\n      swap2\n      swap1\n      pop\n      jump\t// out\n        /* \"contracts/SafeMath.sol\":4048:4159  function negate(int256 a)... */\n    tag_334:\n        /* \"contracts/SafeMath.sol\":4121:4127  int256 */\n      0x00\n        /* \"contracts/SafeMath.sol\":4151:4152  a */\n      dup2\n        /* \"contracts/SafeMath.sol\":4150:4152  -a */\n      tag_358\n      swap1\n      tag_172\n      jump\t// in\n    tag_358:\n        /* \"contracts/SafeMath.sol\":4143:4152  return -a */\n      swap1\n      pop\n        /* \"contracts/SafeMath.sol\":4048:4159  function negate(int256 a)... */\n      swap2\n      swap1\n      pop\n      jump\t// out\n    tag_259:\n      mload(0x40)\n      dup1\n      0x20\n      add\n      0x40\n      mstore\n      dup1\n      0x01\n      swap1\n      0x20\n      dup3\n      mul\n      dup1\n      calldatasize\n      dup4\n      calldatacopy\n      dup1\n      dup3\n      add\n      swap2\n      pop\n      pop\n      swap1\n      pop\n      pop\n      swap1\n      jump\t// out\n    tag_261:\n      mload(0x40)\n      dup1\n      0xc0\n      add\n      0x40\n      mstore\n      dup1\n      0x06\n      swap1\n      0x20\n      dup3\n      mul\n      dup1\n      calldatasize\n      dup4\n      calldatacopy\n      dup1\n      dup3\n      add\n      swap2\n      pop\n      pop\n      swap1\n      pop\n      pop\n      swap1\n      jump\t// out\n        /* \"#utility.yul\":7:82   */\n    tag_359:\n        /* \"#utility.yul\":40:46   */\n      0x00\n        /* \"#utility.yul\":73:75   */\n      0x40\n        /* \"#utility.yul\":67:76   */\n      mload\n        /* \"#utility.yul\":57:76   */\n      swap1\n      pop\n        /* \"#utility.yul\":7:82   */\n      swap1\n      jump\t// out\n        /* \"#utility.yul\":88:205   */\n    tag_360:\n        /* \"#utility.yul\":197:198   */\n      0x00\n        /* \"#utility.yul\":194:195   */\n      dup1\n        /* \"#utility.yul\":187:199   */\n      revert\n        /* \"#utility.yul\":211:328   */\n    tag_361:\n        /* \"#utility.yul\":320:321   */\n      0x00\n        /* \"#utility.yul\":317:318   */\n      dup1\n        /* \"#utility.yul\":310:322   */\n      revert\n        /* \"#utility.yul\":334:451   */\n    tag_362:\n        /* \"#utility.yul\":443:444   */\n      0x00\n        /* \"#utility.yul\":440:441   */\n      dup1\n        /* \"#utility.yul\":433:445   */\n      revert\n        /* \"#utility.yul\":457:559   */\n    tag_363:\n        /* \"#utility.yul\":498:504   */\n      0x00\n        /* \"#utility.yul\":549:551   */\n      0x1f\n        /* \"#utility.yul\":545:552   */\n      not\n        /* \"#utility.yul\":540:542   */\n      0x1f\n        /* \"#utility.yul\":533:538   */\n      dup4\n        /* \"#utility.yul\":529:543   */\n      add\n        /* \"#utility.yul\":525:553   */\n      and\n        /* \"#utility.yul\":515:553   */\n      swap1\n      pop\n        /* \"#utility.yul\":457:559   */\n      swap2\n      swap1\n      pop\n      jump\t// out\n        /* \"#utility.yul\":565:745   */\n    tag_364:\n        /* \"#utility.yul\":613:690   */\n      0x4e487b7100000000000000000000000000000000000000000000000000000000\n        /* \"#utility.yul\":610:611   */\n      0x00\n        /* \"#utility.yul\":603:691   */\n      mstore\n        /* \"#utility.yul\":710:714   */\n      0x41\n        /* \"#utility.yul\":707:708   */\n      0x04\n        /* \"#utility.yul\":700:715   */\n      mstore\n        /* \"#utility.yul\":734:738   */\n      0x24\n        /* \"#utility.yul\":731:732   */\n      0x00\n        /* \"#utility.yul\":724:739   */\n      revert\n        /* \"#utility.yul\":751:1032   */\n    tag_365:\n        /* \"#utility.yul\":834:861   */\n      tag_412\n        /* \"#utility.yul\":856:860   */\n      dup3\n        /* \"#utility.yul\":834:861   */\n      tag_363\n      jump\t// in\n    tag_412:\n        /* \"#utility.yul\":826:832   */\n      dup2\n        /* \"#utility.yul\":822:862   */\n      add\n        /* \"#utility.yul\":964:970   */\n      dup2\n        /* \"#utility.yul\":952:962   */\n      dup2\n        /* \"#utility.yul\":949:971   */\n      lt\n        /* \"#utility.yul\":928:946   */\n      0xffffffffffffffff\n        /* \"#utility.yul\":916:926   */\n      dup3\n        /* \"#utility.yul\":913:947   */\n      gt\n        /* \"#utility.yul\":910:972   */\n      or\n        /* \"#utility.yul\":907:995   */\n      iszero\n      tag_413\n      jumpi\n        /* \"#utility.yul\":975:993   */\n      tag_414\n      tag_364\n      jump\t// in\n    tag_414:\n        /* \"#utility.yul\":907:995   */\n    tag_413:\n        /* \"#utility.yul\":1015:1025   */\n      dup1\n        /* \"#utility.yul\":1011:1013   */\n      0x40\n        /* \"#utility.yul\":1004:1026   */\n      mstore\n        /* \"#utility.yul\":794:1032   */\n      pop\n        /* \"#utility.yul\":751:1032   */\n      pop\n      pop\n      jump\t// out\n        /* \"#utility.yul\":1038:1167   */\n    tag_366:\n        /* \"#utility.yul\":1072:1078   */\n      0x00\n        /* \"#utility.yul\":1099:1119   */\n      tag_416\n      tag_359\n      jump\t// in\n    tag_416:\n        /* \"#utility.yul\":1089:1119   */\n      swap1\n      pop\n        /* \"#utility.yul\":1128:1161   */\n      tag_417\n        /* \"#utility.yul\":1156:1160   */\n      dup3\n        /* \"#utility.yul\":1148:1154   */\n      dup3\n        /* \"#utility.yul\":1128:1161   */\n      tag_365\n      jump\t// in\n    tag_417:\n        /* \"#utility.yul\":1038:1167   */\n      swap2\n      swap1\n      pop\n      jump\t// out\n        /* \"#utility.yul\":1173:1290   */\n    tag_367:\n        /* \"#utility.yul\":1282:1283   */\n      0x00\n        /* \"#utility.yul\":1279:1280   */\n      dup1\n        /* \"#utility.yul\":1272:1284   */\n      revert\n        /* \"#utility.yul\":1296:1373   */\n    tag_368:\n        /* \"#utility.yul\":1333:1340   */\n      0x00\n        /* \"#utility.yul\":1362:1367   */\n      dup2\n        /* \"#utility.yul\":1351:1367   */\n      swap1\n      pop\n        /* \"#utility.yul\":1296:1373   */\n      swap2\n      swap1\n      pop\n      jump\t// out\n        /* \"#utility.yul\":1379:1501   */\n    tag_369:\n        /* \"#utility.yul\":1452:1476   */\n      tag_421\n        /* \"#utility.yul\":1470:1475   */\n      dup2\n        /* \"#utility.yul\":1452:1476   */\n      tag_368\n      jump\t// in\n    tag_421:\n        /* \"#utility.yul\":1445:1450   */\n      dup2\n        /* \"#utility.yul\":1442:1477   */\n      eq\n        /* \"#utility.yul\":1432:1495   */\n      tag_422\n      jumpi\n        /* \"#utility.yul\":1491:1492   */\n      0x00\n        /* \"#utility.yul\":1488:1489   */\n      dup1\n        /* \"#utility.yul\":1481:1493   */\n      revert\n        /* \"#utility.yul\":1432:1495   */\n    tag_422:\n        /* \"#utility.yul\":1379:1501   */\n      pop\n      jump\t// out\n        /* \"#utility.yul\":1507:1646   */\n    tag_370:\n        /* \"#utility.yul\":1553:1558   */\n      0x00\n        /* \"#utility.yul\":1591:1597   */\n      dup2\n        /* \"#utility.yul\":1578:1598   */\n      calldataload\n        /* \"#utility.yul\":1569:1598   */\n      swap1\n      pop\n        /* \"#utility.yul\":1607:1640   */\n      tag_424\n        /* \"#utility.yul\":1634:1639   */\n      dup2\n        /* \"#utility.yul\":1607:1640   */\n      tag_369\n      jump\t// in\n    tag_424:\n        /* \"#utility.yul\":1507:1646   */\n      swap3\n      swap2\n      pop\n      pop\n      jump\t// out\n        /* \"#utility.yul\":1672:2721   */\n    tag_371:\n        /* \"#utility.yul\":1742:1747   */\n      0x00\n        /* \"#utility.yul\":1786:1790   */\n      0xa0\n        /* \"#utility.yul\":1774:1783   */\n      dup3\n        /* \"#utility.yul\":1769:1772   */\n      dup5\n        /* \"#utility.yul\":1765:1784   */\n      sub\n        /* \"#utility.yul\":1761:1791   */\n      slt\n        /* \"#utility.yul\":1758:1875   */\n      iszero\n      tag_426\n      jumpi\n        /* \"#utility.yul\":1794:1873   */\n      tag_427\n      tag_362\n      jump\t// in\n    tag_427:\n        /* \"#utility.yul\":1758:1875   */\n    tag_426:\n        /* \"#utility.yul\":1893:1914   */\n      tag_428\n        /* \"#utility.yul\":1909:1913   */\n      0xa0\n        /* \"#utility.yul\":1893:1914   */\n      tag_366\n      jump\t// in\n    tag_428:\n        /* \"#utility.yul\":1884:1914   */\n      swap1\n      pop\n        /* \"#utility.yul\":1970:1971   */\n      0x00\n        /* \"#utility.yul\":2010:2059   */\n      tag_429\n        /* \"#utility.yul\":2055:2058   */\n      dup5\n        /* \"#utility.yul\":2046:2052   */\n      dup3\n        /* \"#utility.yul\":2035:2044   */\n      dup6\n        /* \"#utility.yul\":2031:2053   */\n      add\n        /* \"#utility.yul\":2010:2059   */\n      tag_370\n      jump\t// in\n    tag_429:\n        /* \"#utility.yul\":2003:2007   */\n      0x00\n        /* \"#utility.yul\":1996:2001   */\n      dup4\n        /* \"#utility.yul\":1992:2008   */\n      add\n        /* \"#utility.yul\":1985:2060   */\n      mstore\n        /* \"#utility.yul\":1924:2071   */\n      pop\n        /* \"#utility.yul\":2132:2134   */\n      0x20\n        /* \"#utility.yul\":2173:2222   */\n      tag_430\n        /* \"#utility.yul\":2218:2221   */\n      dup5\n        /* \"#utility.yul\":2209:2215   */\n      dup3\n        /* \"#utility.yul\":2198:2207   */\n      dup6\n        /* \"#utility.yul\":2194:2216   */\n      add\n        /* \"#utility.yul\":2173:2222   */\n      tag_370\n      jump\t// in\n    tag_430:\n        /* \"#utility.yul\":2166:2170   */\n      0x20\n        /* \"#utility.yul\":2159:2164   */\n      dup4\n        /* \"#utility.yul\":2155:2171   */\n      add\n        /* \"#utility.yul\":2148:2223   */\n      mstore\n        /* \"#utility.yul\":2081:2234   */\n      pop\n        /* \"#utility.yul\":2293:2295   */\n      0x40\n        /* \"#utility.yul\":2334:2383   */\n      tag_431\n        /* \"#utility.yul\":2379:2382   */\n      dup5\n        /* \"#utility.yul\":2370:2376   */\n      dup3\n        /* \"#utility.yul\":2359:2368   */\n      dup6\n        /* \"#utility.yul\":2355:2377   */\n      add\n        /* \"#utility.yul\":2334:2383   */\n      tag_370\n      jump\t// in\n    tag_431:\n        /* \"#utility.yul\":2327:2331   */\n      0x40\n        /* \"#utility.yul\":2320:2325   */\n      dup4\n        /* \"#utility.yul\":2316:2332   */\n      add\n        /* \"#utility.yul\":2309:2384   */\n      mstore\n        /* \"#utility.yul\":2244:2395   */\n      pop\n        /* \"#utility.yul\":2452:2454   */\n      0x60\n        /* \"#utility.yul\":2493:2542   */\n      tag_432\n        /* \"#utility.yul\":2538:2541   */\n      dup5\n        /* \"#utility.yul\":2529:2535   */\n      dup3\n        /* \"#utility.yul\":2518:2527   */\n      dup6\n        /* \"#utility.yul\":2514:2536   */\n      add\n        /* \"#utility.yul\":2493:2542   */\n      tag_370\n      jump\t// in\n    tag_432:\n        /* \"#utility.yul\":2486:2490   */\n      0x60\n        /* \"#utility.yul\":2479:2484   */\n      dup4\n        /* \"#utility.yul\":2475:2491   */\n      add\n        /* \"#utility.yul\":2468:2543   */\n      mstore\n        /* \"#utility.yul\":2405:2554   */\n      pop\n        /* \"#utility.yul\":2611:2614   */\n      0x80\n        /* \"#utility.yul\":2653:2702   */\n      tag_433\n        /* \"#utility.yul\":2698:2701   */\n      dup5\n        /* \"#utility.yul\":2689:2695   */\n      dup3\n        /* \"#utility.yul\":2678:2687   */\n      dup6\n        /* \"#utility.yul\":2674:2696   */\n      add\n        /* \"#utility.yul\":2653:2702   */\n      tag_370\n      jump\t// in\n    tag_433:\n        /* \"#utility.yul\":2646:2650   */\n      0x80\n        /* \"#utility.yul\":2639:2644   */\n      dup4\n        /* \"#utility.yul\":2635:2651   */\n      add\n        /* \"#utility.yul\":2628:2703   */\n      mstore\n        /* \"#utility.yul\":2564:2714   */\n      pop\n        /* \"#utility.yul\":1672:2721   */\n      swap3\n      swap2\n      pop\n      pop\n      jump\t// out\n        /* \"#utility.yul\":2727:3099   */\n    tag_22:\n        /* \"#utility.yul\":2807:2813   */\n      0x00\n        /* \"#utility.yul\":2856:2859   */\n      0xa0\n        /* \"#utility.yul\":2844:2853   */\n      dup3\n        /* \"#utility.yul\":2835:2842   */\n      dup5\n        /* \"#utility.yul\":2831:2854   */\n      sub\n        /* \"#utility.yul\":2827:2860   */\n      slt\n        /* \"#utility.yul\":2824:2944   */\n      iszero\n      tag_435\n      jumpi\n        /* \"#utility.yul\":2863:2942   */\n      tag_436\n      tag_360\n      jump\t// in\n    tag_436:\n        /* \"#utility.yul\":2824:2944   */\n    tag_435:\n        /* \"#utility.yul\":2983:2984   */\n      0x00\n        /* \"#utility.yul\":3008:3082   */\n      tag_437\n        /* \"#utility.yul\":3074:3081   */\n      dup5\n        /* \"#utility.yul\":3065:3071   */\n      dup3\n        /* \"#utility.yul\":3054:3063   */\n      dup6\n        /* \"#utility.yul\":3050:3072   */\n      add\n        /* \"#utility.yul\":3008:3082   */\n      tag_371\n      jump\t// in\n    tag_437:\n        /* \"#utility.yul\":2998:3082   */\n      swap2\n      pop\n        /* \"#utility.yul\":2954:3092   */\n      pop\n        /* \"#utility.yul\":2727:3099   */\n      swap3\n      swap2\n      pop\n      pop\n      jump\t// out\n        /* \"#utility.yul\":3105:3195   */\n    tag_372:\n        /* \"#utility.yul\":3139:3146   */\n      0x00\n        /* \"#utility.yul\":3182:3187   */\n      dup2\n        /* \"#utility.yul\":3175:3188   */\n      iszero\n        /* \"#utility.yul\":3168:3189   */\n      iszero\n        /* \"#utility.yul\":3157:3189   */\n      swap1\n      pop\n        /* \"#utility.yul\":3105:3195   */\n      swap2\n      swap1\n      pop\n      jump\t// out\n        /* \"#utility.yul\":3201:3310   */\n    tag_373:\n        /* \"#utility.yul\":3282:3303   */\n      tag_440\n        /* \"#utility.yul\":3297:3302   */\n      dup2\n        /* \"#utility.yul\":3282:3303   */\n      tag_372\n      jump\t// in\n    tag_440:\n        /* \"#utility.yul\":3277:3280   */\n      dup3\n        /* \"#utility.yul\":3270:3304   */\n      mstore\n        /* \"#utility.yul\":3201:3310   */\n      pop\n      pop\n      jump\t// out\n        /* \"#utility.yul\":3316:3526   */\n    tag_25:\n        /* \"#utility.yul\":3403:3407   */\n      0x00\n        /* \"#utility.yul\":3441:3443   */\n      0x20\n        /* \"#utility.yul\":3430:3439   */\n      dup3\n        /* \"#utility.yul\":3426:3444   */\n      add\n        /* \"#utility.yul\":3418:3444   */\n      swap1\n      pop\n        /* \"#utility.yul\":3454:3519   */\n      tag_442\n        /* \"#utility.yul\":3516:3517   */\n      0x00\n        /* \"#utility.yul\":3505:3514   */\n      dup4\n        /* \"#utility.yul\":3501:3518   */\n      add\n        /* \"#utility.yul\":3492:3498   */\n      dup5\n        /* \"#utility.yul\":3454:3519   */\n      tag_373\n      jump\t// in\n    tag_442:\n        /* \"#utility.yul\":3316:3526   */\n      swap3\n      swap2\n      pop\n      pop\n      jump\t// out\n        /* \"#utility.yul\":3532:4006   */\n    tag_28:\n        /* \"#utility.yul\":3600:3606   */\n      0x00\n        /* \"#utility.yul\":3608:3614   */\n      dup1\n        /* \"#utility.yul\":3657:3659   */\n      0x40\n        /* \"#utility.yul\":3645:3654   */\n      dup4\n        /* \"#utility.yul\":3636:3643   */\n      dup6\n        /* \"#utility.yul\":3632:3655   */\n      sub\n        /* \"#utility.yul\":3628:3660   */\n      slt\n        /* \"#utility.yul\":3625:3744   */\n      iszero\n      tag_444\n      jumpi\n        /* \"#utility.yul\":3663:3742   */\n      tag_445\n      tag_360\n      jump\t// in\n    tag_445:\n        /* \"#utility.yul\":3625:3744   */\n    tag_444:\n        /* \"#utility.yul\":3783:3784   */\n      0x00\n        /* \"#utility.yul\":3808:3861   */\n      tag_446\n        /* \"#utility.yul\":3853:3860   */\n      dup6\n        /* \"#utility.yul\":3844:3850   */\n      dup3\n        /* \"#utility.yul\":3833:3842   */\n      dup7\n        /* \"#utility.yul\":3829:3851   */\n      add\n        /* \"#utility.yul\":3808:3861   */\n      tag_370\n      jump\t// in\n    tag_446:\n        /* \"#utility.yul\":3798:3861   */\n      swap3\n      pop\n        /* \"#utility.yul\":3754:3871   */\n      pop\n        /* \"#utility.yul\":3910:3912   */\n      0x20\n        /* \"#utility.yul\":3936:3989   */\n      tag_447\n        /* \"#utility.yul\":3981:3988   */\n      dup6\n        /* \"#utility.yul\":3972:3978   */\n      dup3\n        /* \"#utility.yul\":3961:3970   */\n      dup7\n        /* \"#utility.yul\":3957:3979   */\n      add\n        /* \"#utility.yul\":3936:3989   */\n      tag_370\n      jump\t// in\n    tag_447:\n        /* \"#utility.yul\":3926:3989   */\n      swap2\n      pop\n        /* \"#utility.yul\":3881:3999   */\n      pop\n        /* \"#utility.yul\":3532:4006   */\n      swap3\n      pop\n      swap3\n      swap1\n      pop\n      jump\t// out\n        /* \"#utility.yul\":4012:4130   */\n    tag_374:\n        /* \"#utility.yul\":4099:4123   */\n      tag_449\n        /* \"#utility.yul\":4117:4122   */\n      dup2\n        /* \"#utility.yul\":4099:4123   */\n      tag_368\n      jump\t// in\n    tag_449:\n        /* \"#utility.yul\":4094:4097   */\n      dup3\n        /* \"#utility.yul\":4087:4124   */\n      mstore\n        /* \"#utility.yul\":4012:4130   */\n      pop\n      pop\n      jump\t// out\n        /* \"#utility.yul\":4136:4358   */\n    tag_31:\n        /* \"#utility.yul\":4229:4233   */\n      0x00\n        /* \"#utility.yul\":4267:4269   */\n      0x20\n        /* \"#utility.yul\":4256:4265   */\n      dup3\n        /* \"#utility.yul\":4252:4270   */\n      add\n        /* \"#utility.yul\":4244:4270   */\n      swap1\n      pop\n        /* \"#utility.yul\":4280:4351   */\n      tag_451\n        /* \"#utility.yul\":4348:4349   */\n      0x00\n        /* \"#utility.yul\":4337:4346   */\n      dup4\n        /* \"#utility.yul\":4333:4350   */\n      add\n        /* \"#utility.yul\":4324:4330   */\n      dup5\n        /* \"#utility.yul\":4280:4351   */\n      tag_374\n      jump\t// in\n    tag_451:\n        /* \"#utility.yul\":4136:4358   */\n      swap3\n      swap2\n      pop\n      pop\n      jump\t// out\n        /* \"#utility.yul\":4364:4440   */\n    tag_375:\n        /* \"#utility.yul\":4400:4407   */\n      0x00\n        /* \"#utility.yul\":4429:4434   */\n      dup2\n        /* \"#utility.yul\":4418:4434   */\n      swap1\n      pop\n        /* \"#utility.yul\":4364:4440   */\n      swap2\n      swap1\n      pop\n      jump\t// out\n        /* \"#utility.yul\":4446:4566   */\n    tag_376:\n        /* \"#utility.yul\":4518:4541   */\n      tag_454\n        /* \"#utility.yul\":4535:4540   */\n      dup2\n        /* \"#utility.yul\":4518:4541   */\n      tag_375\n      jump\t// in\n    tag_454:\n        /* \"#utility.yul\":4511:4516   */\n      dup2\n        /* \"#utility.yul\":4508:4542   */\n      eq\n        /* \"#utility.yul\":4498:4560   */\n      tag_455\n      jumpi\n        /* \"#utility.yul\":4556:4557   */\n      0x00\n        /* \"#utility.yul\":4553:4554   */\n      dup1\n        /* \"#utility.yul\":4546:4558   */\n      revert\n        /* \"#utility.yul\":4498:4560   */\n    tag_455:\n        /* \"#utility.yul\":4446:4566   */\n      pop\n      jump\t// out\n        /* \"#utility.yul\":4572:4709   */\n    tag_377:\n        /* \"#utility.yul\":4617:4622   */\n      0x00\n        /* \"#utility.yul\":4655:4661   */\n      dup2\n        /* \"#utility.yul\":4642:4662   */\n      calldataload\n        /* \"#utility.yul\":4633:4662   */\n      swap1\n      pop\n        /* \"#utility.yul\":4671:4703   */\n      tag_457\n        /* \"#utility.yul\":4697:4702   */\n      dup2\n        /* \"#utility.yul\":4671:4703   */\n      tag_376\n      jump\t// in\n    tag_457:\n        /* \"#utility.yul\":4572:4709   */\n      swap3\n      swap2\n      pop\n      pop\n      jump\t// out\n        /* \"#utility.yul\":4715:5185   */\n    tag_34:\n        /* \"#utility.yul\":4781:4787   */\n      0x00\n        /* \"#utility.yul\":4789:4795   */\n      dup1\n        /* \"#utility.yul\":4838:4840   */\n      0x40\n        /* \"#utility.yul\":4826:4835   */\n      dup4\n        /* \"#utility.yul\":4817:4824   */\n      dup6\n        /* \"#utility.yul\":4813:4836   */\n      sub\n        /* \"#utility.yul\":4809:4841   */\n      slt\n        /* \"#utility.yul\":4806:4925   */\n      iszero\n      tag_459\n      jumpi\n        /* \"#utility.yul\":4844:4923   */\n      tag_460\n      tag_360\n      jump\t// in\n    tag_460:\n        /* \"#utility.yul\":4806:4925   */\n    tag_459:\n        /* \"#utility.yul\":4964:4965   */\n      0x00\n        /* \"#utility.yul\":4989:5041   */\n      tag_461\n        /* \"#utility.yul\":5033:5040   */\n      dup6\n        /* \"#utility.yul\":5024:5030   */\n      dup3\n        /* \"#utility.yul\":5013:5022   */\n      dup7\n        /* \"#utility.yul\":5009:5031   */\n      add\n        /* \"#utility.yul\":4989:5041   */\n      tag_377\n      jump\t// in\n    tag_461:\n        /* \"#utility.yul\":4979:5041   */\n      swap3\n      pop\n        /* \"#utility.yul\":4935:5051   */\n      pop\n        /* \"#utility.yul\":5090:5092   */\n      0x20\n        /* \"#utility.yul\":5116:5168   */\n      tag_462\n        /* \"#utility.yul\":5160:5167   */\n      dup6\n        /* \"#utility.yul\":5151:5157   */\n      dup3\n        /* \"#utility.yul\":5140:5149   */\n      dup7\n        /* \"#utility.yul\":5136:5158   */\n      add\n        /* \"#utility.yul\":5116:5168   */\n      tag_377\n      jump\t// in\n    tag_462:\n        /* \"#utility.yul\":5106:5168   */\n      swap2\n      pop\n        /* \"#utility.yul\":5061:5178   */\n      pop\n        /* \"#utility.yul\":4715:5185   */\n      swap3\n      pop\n      swap3\n      swap1\n      pop\n      jump\t// out\n        /* \"#utility.yul\":5216:6261   */\n    tag_378:\n        /* \"#utility.yul\":5291:5296   */\n      0x00\n        /* \"#utility.yul\":5335:5339   */\n      0xa0\n        /* \"#utility.yul\":5323:5332   */\n      dup3\n        /* \"#utility.yul\":5318:5321   */\n      dup5\n        /* \"#utility.yul\":5314:5333   */\n      sub\n        /* \"#utility.yul\":5310:5340   */\n      slt\n        /* \"#utility.yul\":5307:5424   */\n      iszero\n      tag_464\n      jumpi\n        /* \"#utility.yul\":5343:5422   */\n      tag_465\n      tag_362\n      jump\t// in\n    tag_465:\n        /* \"#utility.yul\":5307:5424   */\n    tag_464:\n        /* \"#utility.yul\":5442:5463   */\n      tag_466\n        /* \"#utility.yul\":5458:5462   */\n      0xa0\n        /* \"#utility.yul\":5442:5463   */\n      tag_366\n      jump\t// in\n    tag_466:\n        /* \"#utility.yul\":5433:5463   */\n      swap1\n      pop\n        /* \"#utility.yul\":5520:5521   */\n      0x00\n        /* \"#utility.yul\":5560:5609   */\n      tag_467\n        /* \"#utility.yul\":5605:5608   */\n      dup5\n        /* \"#utility.yul\":5596:5602   */\n      dup3\n        /* \"#utility.yul\":5585:5594   */\n      dup6\n        /* \"#utility.yul\":5581:5603   */\n      add\n        /* \"#utility.yul\":5560:5609   */\n      tag_370\n      jump\t// in\n    tag_467:\n        /* \"#utility.yul\":5553:5557   */\n      0x00\n        /* \"#utility.yul\":5546:5551   */\n      dup4\n        /* \"#utility.yul\":5542:5558   */\n      add\n        /* \"#utility.yul\":5535:5610   */\n      mstore\n        /* \"#utility.yul\":5473:5621   */\n      pop\n        /* \"#utility.yul\":5678:5680   */\n      0x20\n        /* \"#utility.yul\":5719:5768   */\n      tag_468\n        /* \"#utility.yul\":5764:5767   */\n      dup5\n        /* \"#utility.yul\":5755:5761   */\n      dup3\n        /* \"#utility.yul\":5744:5753   */\n      dup6\n        /* \"#utility.yul\":5740:5762   */\n      add\n        /* \"#utility.yul\":5719:5768   */\n      tag_370\n      jump\t// in\n    tag_468:\n        /* \"#utility.yul\":5712:5716   */\n      0x20\n        /* \"#utility.yul\":5705:5710   */\n      dup4\n        /* \"#utility.yul\":5701:5717   */\n      add\n        /* \"#utility.yul\":5694:5769   */\n      mstore\n        /* \"#utility.yul\":5631:5780   */\n      pop\n        /* \"#utility.yul\":5836:5838   */\n      0x40\n        /* \"#utility.yul\":5877:5925   */\n      tag_469\n        /* \"#utility.yul\":5921:5924   */\n      dup5\n        /* \"#utility.yul\":5912:5918   */\n      dup3\n        /* \"#utility.yul\":5901:5910   */\n      dup6\n        /* \"#utility.yul\":5897:5919   */\n      add\n        /* \"#utility.yul\":5877:5925   */\n      tag_377\n      jump\t// in\n    tag_469:\n        /* \"#utility.yul\":5870:5874   */\n      0x40\n        /* \"#utility.yul\":5863:5868   */\n      dup4\n        /* \"#utility.yul\":5859:5875   */\n      add\n        /* \"#utility.yul\":5852:5926   */\n      mstore\n        /* \"#utility.yul\":5790:5937   */\n      pop\n        /* \"#utility.yul\":5994:5996   */\n      0x60\n        /* \"#utility.yul\":6035:6083   */\n      tag_470\n        /* \"#utility.yul\":6079:6082   */\n      dup5\n        /* \"#utility.yul\":6070:6076   */\n      dup3\n        /* \"#utility.yul\":6059:6068   */\n      dup6\n        /* \"#utility.yul\":6055:6077   */\n      add\n        /* \"#utility.yul\":6035:6083   */\n      tag_377\n      jump\t// in\n    tag_470:\n        /* \"#utility.yul\":6028:6032   */\n      0x60\n        /* \"#utility.yul\":6021:6026   */\n      dup4\n        /* \"#utility.yul\":6017:6033   */\n      add\n        /* \"#utility.yul\":6010:6084   */\n      mstore\n        /* \"#utility.yul\":5947:6095   */\n      pop\n        /* \"#utility.yul\":6152:6155   */\n      0x80\n        /* \"#utility.yul\":6194:6242   */\n      tag_471\n        /* \"#utility.yul\":6238:6241   */\n      dup5\n        /* \"#utility.yul\":6229:6235   */\n      dup3\n        /* \"#utility.yul\":6218:6227   */\n      dup6\n        /* \"#utility.yul\":6214:6236   */\n      add\n        /* \"#utility.yul\":6194:6242   */\n      tag_377\n      jump\t// in\n    tag_471:\n        /* \"#utility.yul\":6187:6191   */\n      0x80\n        /* \"#utility.yul\":6180:6185   */\n      dup4\n        /* \"#utility.yul\":6176:6192   */\n      add\n        /* \"#utility.yul\":6169:6243   */\n      mstore\n        /* \"#utility.yul\":6105:6254   */\n      pop\n        /* \"#utility.yul\":5216:6261   */\n      swap3\n      swap2\n      pop\n      pop\n      jump\t// out\n        /* \"#utility.yul\":6267:6794   */\n    tag_39:\n        /* \"#utility.yul\":6361:6367   */\n      0x00\n        /* \"#utility.yul\":6369:6375   */\n      dup1\n        /* \"#utility.yul\":6418:6421   */\n      0xc0\n        /* \"#utility.yul\":6406:6415   */\n      dup4\n        /* \"#utility.yul\":6397:6404   */\n      dup6\n        /* \"#utility.yul\":6393:6416   */\n      sub\n        /* \"#utility.yul\":6389:6422   */\n      slt\n        /* \"#utility.yul\":6386:6506   */\n      iszero\n      tag_473\n      jumpi\n        /* \"#utility.yul\":6425:6504   */\n      tag_474\n      tag_360\n      jump\t// in\n    tag_474:\n        /* \"#utility.yul\":6386:6506   */\n    tag_473:\n        /* \"#utility.yul\":6545:6546   */\n      0x00\n        /* \"#utility.yul\":6570:6623   */\n      tag_475\n        /* \"#utility.yul\":6615:6622   */\n      dup6\n        /* \"#utility.yul\":6606:6612   */\n      dup3\n        /* \"#utility.yul\":6595:6604   */\n      dup7\n        /* \"#utility.yul\":6591:6613   */\n      add\n        /* \"#utility.yul\":6570:6623   */\n      tag_370\n      jump\t// in\n    tag_475:\n        /* \"#utility.yul\":6560:6623   */\n      swap3\n      pop\n        /* \"#utility.yul\":6516:6633   */\n      pop\n        /* \"#utility.yul\":6672:6674   */\n      0x20\n        /* \"#utility.yul\":6698:6777   */\n      tag_476\n        /* \"#utility.yul\":6769:6776   */\n      dup6\n        /* \"#utility.yul\":6760:6766   */\n      dup3\n        /* \"#utility.yul\":6749:6758   */\n      dup7\n        /* \"#utility.yul\":6745:6767   */\n      add\n        /* \"#utility.yul\":6698:6777   */\n      tag_378\n      jump\t// in\n    tag_476:\n        /* \"#utility.yul\":6688:6777   */\n      swap2\n      pop\n        /* \"#utility.yul\":6643:6787   */\n      pop\n        /* \"#utility.yul\":6267:6794   */\n      swap3\n      pop\n      swap3\n      swap1\n      pop\n      jump\t// out\n        /* \"#utility.yul\":6800:6886   */\n    tag_379:\n        /* \"#utility.yul\":6835:6842   */\n      0x00\n        /* \"#utility.yul\":6875:6879   */\n      0xff\n        /* \"#utility.yul\":6868:6873   */\n      dup3\n        /* \"#utility.yul\":6864:6880   */\n      and\n        /* \"#utility.yul\":6853:6880   */\n      swap1\n      pop\n        /* \"#utility.yul\":6800:6886   */\n      swap2\n      swap1\n      pop\n      jump\t// out\n        /* \"#utility.yul\":6892:7010   */\n    tag_380:\n        /* \"#utility.yul\":6963:6985   */\n      tag_479\n        /* \"#utility.yul\":6979:6984   */\n      dup2\n        /* \"#utility.yul\":6963:6985   */\n      tag_379\n      jump\t// in\n    tag_479:\n        /* \"#utility.yul\":6956:6961   */\n      dup2\n        /* \"#utility.yul\":6953:6986   */\n      eq\n        /* \"#utility.yul\":6943:7004   */\n      tag_480\n      jumpi\n        /* \"#utility.yul\":7000:7001   */\n      0x00\n        /* \"#utility.yul\":6997:6998   */\n      dup1\n        /* \"#utility.yul\":6990:7002   */\n      revert\n        /* \"#utility.yul\":6943:7004   */\n    tag_480:\n        /* \"#utility.yul\":6892:7010   */\n      pop\n      jump\t// out\n        /* \"#utility.yul\":7016:7151   */\n    tag_381:\n        /* \"#utility.yul\":7060:7065   */\n      0x00\n        /* \"#utility.yul\":7098:7104   */\n      dup2\n        /* \"#utility.yul\":7085:7105   */\n      calldataload\n        /* \"#utility.yul\":7076:7105   */\n      swap1\n      pop\n        /* \"#utility.yul\":7114:7145   */\n      tag_482\n        /* \"#utility.yul\":7139:7144   */\n      dup2\n        /* \"#utility.yul\":7114:7145   */\n      tag_380\n      jump\t// in\n    tag_482:\n        /* \"#utility.yul\":7016:7151   */\n      swap3\n      swap2\n      pop\n      pop\n      jump\t// out\n        /* \"#utility.yul\":7157:7627   */\n    tag_43:\n        /* \"#utility.yul\":7223:7229   */\n      0x00\n        /* \"#utility.yul\":7231:7237   */\n      dup1\n        /* \"#utility.yul\":7280:7282   */\n      0x40\n        /* \"#utility.yul\":7268:7277   */\n      dup4\n        /* \"#utility.yul\":7259:7266   */\n      dup6\n        /* \"#utility.yul\":7255:7278   */\n      sub\n        /* \"#utility.yul\":7251:7283   */\n      slt\n        /* \"#utility.yul\":7248:7367   */\n      iszero\n      tag_484\n      jumpi\n        /* \"#utility.yul\":7286:7365   */\n      tag_485\n      tag_360\n      jump\t// in\n    tag_485:\n        /* \"#utility.yul\":7248:7367   */\n    tag_484:\n        /* \"#utility.yul\":7406:7407   */\n      0x00\n        /* \"#utility.yul\":7431:7484   */\n      tag_486\n        /* \"#utility.yul\":7476:7483   */\n      dup6\n        /* \"#utility.yul\":7467:7473   */\n      dup3\n        /* \"#utility.yul\":7456:7465   */\n      dup7\n        /* \"#utility.yul\":7452:7474   */\n      add\n        /* \"#utility.yul\":7431:7484   */\n      tag_370\n      jump\t// in\n    tag_486:\n        /* \"#utility.yul\":7421:7484   */\n      swap3\n      pop\n        /* \"#utility.yul\":7377:7494   */\n      pop\n        /* \"#utility.yul\":7533:7535   */\n      0x20\n        /* \"#utility.yul\":7559:7610   */\n      tag_487\n        /* \"#utility.yul\":7602:7609   */\n      dup6\n        /* \"#utility.yul\":7593:7599   */\n      dup3\n        /* \"#utility.yul\":7582:7591   */\n      dup7\n        /* \"#utility.yul\":7578:7600   */\n      add\n        /* \"#utility.yul\":7559:7610   */\n      tag_381\n      jump\t// in\n    tag_487:\n        /* \"#utility.yul\":7549:7610   */\n      swap2\n      pop\n        /* \"#utility.yul\":7504:7620   */\n      pop\n        /* \"#utility.yul\":7157:7627   */\n      swap3\n      pop\n      swap3\n      swap1\n      pop\n      jump\t// out\n        /* \"#utility.yul\":7633:7745   */\n    tag_382:\n        /* \"#utility.yul\":7716:7738   */\n      tag_489\n        /* \"#utility.yul\":7732:7737   */\n      dup2\n        /* \"#utility.yul\":7716:7738   */\n      tag_379\n      jump\t// in\n    tag_489:\n        /* \"#utility.yul\":7711:7714   */\n      dup3\n        /* \"#utility.yul\":7704:7739   */\n      mstore\n        /* \"#utility.yul\":7633:7745   */\n      pop\n      pop\n      jump\t// out\n        /* \"#utility.yul\":7751:7965   */\n    tag_46:\n        /* \"#utility.yul\":7840:7844   */\n      0x00\n        /* \"#utility.yul\":7878:7880   */\n      0x20\n        /* \"#utility.yul\":7867:7876   */\n      dup3\n        /* \"#utility.yul\":7863:7881   */\n      add\n        /* \"#utility.yul\":7855:7881   */\n      swap1\n      pop\n        /* \"#utility.yul\":7891:7958   */\n      tag_491\n        /* \"#utility.yul\":7955:7956   */\n      0x00\n        /* \"#utility.yul\":7944:7953   */\n      dup4\n        /* \"#utility.yul\":7940:7957   */\n      add\n        /* \"#utility.yul\":7931:7937   */\n      dup5\n        /* \"#utility.yul\":7891:7958   */\n      tag_382\n      jump\t// in\n    tag_491:\n        /* \"#utility.yul\":7751:7965   */\n      swap3\n      swap2\n      pop\n      pop\n      jump\t// out\n        /* \"#utility.yul\":7971:8088   */\n    tag_383:\n        /* \"#utility.yul\":8080:8081   */\n      0x00\n        /* \"#utility.yul\":8077:8078   */\n      dup1\n        /* \"#utility.yul\":8070:8082   */\n      revert\n        /* \"#utility.yul\":8094:8405   */\n    tag_384:\n        /* \"#utility.yul\":8171:8175   */\n      0x00\n        /* \"#utility.yul\":8261:8279   */\n      0xffffffffffffffff\n        /* \"#utility.yul\":8253:8259   */\n      dup3\n        /* \"#utility.yul\":8250:8280   */\n      gt\n        /* \"#utility.yul\":8247:8303   */\n      iszero\n      tag_494\n      jumpi\n        /* \"#utility.yul\":8283:8301   */\n      tag_495\n      tag_364\n      jump\t// in\n    tag_495:\n        /* \"#utility.yul\":8247:8303   */\n    tag_494:\n        /* \"#utility.yul\":8333:8337   */\n      0x20\n        /* \"#utility.yul\":8325:8331   */\n      dup3\n        /* \"#utility.yul\":8321:8338   */\n      mul\n        /* \"#utility.yul\":8313:8338   */\n      swap1\n      pop\n        /* \"#utility.yul\":8393:8397   */\n      0x20\n        /* \"#utility.yul\":8387:8391   */\n      dup2\n        /* \"#utility.yul\":8383:8398   */\n      add\n        /* \"#utility.yul\":8375:8398   */\n      swap1\n      pop\n        /* \"#utility.yul\":8094:8405   */\n      swap2\n      swap1\n      pop\n      jump\t// out\n        /* \"#utility.yul\":8411:8528   */\n    tag_385:\n        /* \"#utility.yul\":8520:8521   */\n      0x00\n        /* \"#utility.yul\":8517:8518   */\n      dup1\n        /* \"#utility.yul\":8510:8522   */\n      revert\n        /* \"#utility.yul\":8551:9261   */\n    tag_386:\n        /* \"#utility.yul\":8647:8652   */\n      0x00\n        /* \"#utility.yul\":8672:8753   */\n      tag_498\n        /* \"#utility.yul\":8688:8752   */\n      tag_499\n        /* \"#utility.yul\":8745:8751   */\n      dup5\n        /* \"#utility.yul\":8688:8752   */\n      tag_384\n      jump\t// in\n    tag_499:\n        /* \"#utility.yul\":8672:8753   */\n      tag_366\n      jump\t// in\n    tag_498:\n        /* \"#utility.yul\":8663:8753   */\n      swap1\n      pop\n        /* \"#utility.yul\":8773:8778   */\n      dup1\n        /* \"#utility.yul\":8802:8808   */\n      dup4\n        /* \"#utility.yul\":8795:8800   */\n      dup3\n        /* \"#utility.yul\":8788:8809   */\n      mstore\n        /* \"#utility.yul\":8836:8840   */\n      0x20\n        /* \"#utility.yul\":8829:8834   */\n      dup3\n        /* \"#utility.yul\":8825:8841   */\n      add\n        /* \"#utility.yul\":8818:8841   */\n      swap1\n      pop\n        /* \"#utility.yul\":8889:8893   */\n      0x20\n        /* \"#utility.yul\":8881:8887   */\n      dup5\n        /* \"#utility.yul\":8877:8894   */\n      mul\n        /* \"#utility.yul\":8869:8875   */\n      dup4\n        /* \"#utility.yul\":8865:8895   */\n      add\n        /* \"#utility.yul\":8918:8921   */\n      dup6\n        /* \"#utility.yul\":8910:8916   */\n      dup2\n        /* \"#utility.yul\":8907:8922   */\n      gt\n        /* \"#utility.yul\":8904:9026   */\n      iszero\n      tag_500\n      jumpi\n        /* \"#utility.yul\":8937:9016   */\n      tag_501\n      tag_385\n      jump\t// in\n    tag_501:\n        /* \"#utility.yul\":8904:9026   */\n    tag_500:\n        /* \"#utility.yul\":9052:9058   */\n      dup4\n        /* \"#utility.yul\":9035:9255   */\n    tag_502:\n        /* \"#utility.yul\":9069:9075   */\n      dup2\n        /* \"#utility.yul\":9064:9067   */\n      dup2\n        /* \"#utility.yul\":9061:9076   */\n      lt\n        /* \"#utility.yul\":9035:9255   */\n      iszero\n      tag_504\n      jumpi\n        /* \"#utility.yul\":9144:9147   */\n      dup1\n        /* \"#utility.yul\":9173:9210   */\n      tag_505\n        /* \"#utility.yul\":9206:9209   */\n      dup9\n        /* \"#utility.yul\":9194:9204   */\n      dup3\n        /* \"#utility.yul\":9173:9210   */\n      tag_370\n      jump\t// in\n    tag_505:\n        /* \"#utility.yul\":9168:9171   */\n      dup5\n        /* \"#utility.yul\":9161:9211   */\n      mstore\n        /* \"#utility.yul\":9240:9244   */\n      0x20\n        /* \"#utility.yul\":9235:9238   */\n      dup5\n        /* \"#utility.yul\":9231:9245   */\n      add\n        /* \"#utility.yul\":9224:9245   */\n      swap4\n      pop\n        /* \"#utility.yul\":9111:9255   */\n      pop\n        /* \"#utility.yul\":9095:9099   */\n      0x20\n        /* \"#utility.yul\":9090:9093   */\n      dup2\n        /* \"#utility.yul\":9086:9100   */\n      add\n        /* \"#utility.yul\":9079:9100   */\n      swap1\n      pop\n        /* \"#utility.yul\":9035:9255   */\n      jump(tag_502)\n    tag_504:\n        /* \"#utility.yul\":9039:9060   */\n      pop\n        /* \"#utility.yul\":8653:9261   */\n      pop\n      pop\n        /* \"#utility.yul\":8551:9261   */\n      swap4\n      swap3\n      pop\n      pop\n      pop\n      jump\t// out\n        /* \"#utility.yul\":9284:9654   */\n    tag_387:\n        /* \"#utility.yul\":9355:9360   */\n      0x00\n        /* \"#utility.yul\":9404:9407   */\n      dup3\n        /* \"#utility.yul\":9397:9401   */\n      0x1f\n        /* \"#utility.yul\":9389:9395   */\n      dup4\n        /* \"#utility.yul\":9385:9402   */\n      add\n        /* \"#utility.yul\":9381:9408   */\n      slt\n        /* \"#utility.yul\":9371:9493   */\n      tag_507\n      jumpi\n        /* \"#utility.yul\":9412:9491   */\n      tag_508\n      tag_383\n      jump\t// in\n    tag_508:\n        /* \"#utility.yul\":9371:9493   */\n    tag_507:\n        /* \"#utility.yul\":9529:9535   */\n      dup2\n        /* \"#utility.yul\":9516:9536   */\n      calldataload\n        /* \"#utility.yul\":9554:9648   */\n      tag_509\n        /* \"#utility.yul\":9644:9647   */\n      dup5\n        /* \"#utility.yul\":9636:9642   */\n      dup3\n        /* \"#utility.yul\":9629:9633   */\n      0x20\n        /* \"#utility.yul\":9621:9627   */\n      dup7\n        /* \"#utility.yul\":9617:9634   */\n      add\n        /* \"#utility.yul\":9554:9648   */\n      tag_386\n      jump\t// in\n    tag_509:\n        /* \"#utility.yul\":9545:9648   */\n      swap2\n      pop\n        /* \"#utility.yul\":9361:9654   */\n      pop\n        /* \"#utility.yul\":9284:9654   */\n      swap3\n      swap2\n      pop\n      pop\n      jump\t// out\n        /* \"#utility.yul\":9660:9997   */\n    tag_388:\n        /* \"#utility.yul\":9763:9767   */\n      0x00\n        /* \"#utility.yul\":9853:9871   */\n      0xffffffffffffffff\n        /* \"#utility.yul\":9845:9851   */\n      dup3\n        /* \"#utility.yul\":9842:9872   */\n      gt\n        /* \"#utility.yul\":9839:9895   */\n      iszero\n      tag_511\n      jumpi\n        /* \"#utility.yul\":9875:9893   */\n      tag_512\n      tag_364\n      jump\t// in\n    tag_512:\n        /* \"#utility.yul\":9839:9895   */\n    tag_511:\n        /* \"#utility.yul\":9925:9929   */\n      0x20\n        /* \"#utility.yul\":9917:9923   */\n      dup3\n        /* \"#utility.yul\":9913:9930   */\n      mul\n        /* \"#utility.yul\":9905:9930   */\n      swap1\n      pop\n        /* \"#utility.yul\":9985:9989   */\n      0x20\n        /* \"#utility.yul\":9979:9983   */\n      dup2\n        /* \"#utility.yul\":9975:9990   */\n      add\n        /* \"#utility.yul\":9967:9990   */\n      swap1\n      pop\n        /* \"#utility.yul\":9660:9997   */\n      swap2\n      swap1\n      pop\n      jump\t// out\n        /* \"#utility.yul\":10030:10818   */\n    tag_389:\n        /* \"#utility.yul\":10152:10157   */\n      0x00\n        /* \"#utility.yul\":10177:10284   */\n      tag_514\n        /* \"#utility.yul\":10193:10283   */\n      tag_515\n        /* \"#utility.yul\":10276:10282   */\n      dup5\n        /* \"#utility.yul\":10193:10283   */\n      tag_388\n      jump\t// in\n    tag_515:\n        /* \"#utility.yul\":10177:10284   */\n      tag_366\n      jump\t// in\n    tag_514:\n        /* \"#utility.yul\":10168:10284   */\n      swap1\n      pop\n        /* \"#utility.yul\":10304:10309   */\n      dup1\n        /* \"#utility.yul\":10333:10339   */\n      dup4\n        /* \"#utility.yul\":10326:10331   */\n      dup3\n        /* \"#utility.yul\":10319:10340   */\n      mstore\n        /* \"#utility.yul\":10367:10371   */\n      0x20\n        /* \"#utility.yul\":10360:10365   */\n      dup3\n        /* \"#utility.yul\":10356:10372   */\n      add\n        /* \"#utility.yul\":10349:10372   */\n      swap1\n      pop\n        /* \"#utility.yul\":10420:10424   */\n      0xa0\n        /* \"#utility.yul\":10412:10418   */\n      dup5\n        /* \"#utility.yul\":10408:10425   */\n      mul\n        /* \"#utility.yul\":10400:10406   */\n      dup4\n        /* \"#utility.yul\":10396:10426   */\n      add\n        /* \"#utility.yul\":10449:10452   */\n      dup6\n        /* \"#utility.yul\":10441:10447   */\n      dup2\n        /* \"#utility.yul\":10438:10453   */\n      gt\n        /* \"#utility.yul\":10435:10557   */\n      iszero\n      tag_516\n      jumpi\n        /* \"#utility.yul\":10468:10547   */\n      tag_517\n      tag_385\n      jump\t// in\n    tag_517:\n        /* \"#utility.yul\":10435:10557   */\n    tag_516:\n        /* \"#utility.yul\":10583:10589   */\n      dup4\n        /* \"#utility.yul\":10566:10812   */\n    tag_518:\n        /* \"#utility.yul\":10600:10606   */\n      dup2\n        /* \"#utility.yul\":10595:10598   */\n      dup2\n        /* \"#utility.yul\":10592:10607   */\n      lt\n        /* \"#utility.yul\":10566:10812   */\n      iszero\n      tag_520\n      jumpi\n        /* \"#utility.yul\":10675:10678   */\n      dup1\n        /* \"#utility.yul\":10704:10767   */\n      tag_521\n        /* \"#utility.yul\":10763:10766   */\n      dup9\n        /* \"#utility.yul\":10751:10761   */\n      dup3\n        /* \"#utility.yul\":10704:10767   */\n      tag_378\n      jump\t// in\n    tag_521:\n        /* \"#utility.yul\":10699:10702   */\n      dup5\n        /* \"#utility.yul\":10692:10768   */\n      mstore\n        /* \"#utility.yul\":10797:10801   */\n      0x20\n        /* \"#utility.yul\":10792:10795   */\n      dup5\n        /* \"#utility.yul\":10788:10802   */\n      add\n        /* \"#utility.yul\":10781:10802   */\n      swap4\n      pop\n        /* \"#utility.yul\":10642:10812   */\n      pop\n        /* \"#utility.yul\":10626:10630   */\n      0xa0\n        /* \"#utility.yul\":10621:10624   */\n      dup2\n        /* \"#utility.yul\":10617:10631   */\n      add\n        /* \"#utility.yul\":10610:10631   */\n      swap1\n      pop\n        /* \"#utility.yul\":10566:10812   */\n      jump(tag_518)\n    tag_520:\n        /* \"#utility.yul\":10570:10591   */\n      pop\n        /* \"#utility.yul\":10158:10818   */\n      pop\n      pop\n        /* \"#utility.yul\":10030:10818   */\n      swap4\n      swap3\n      pop\n      pop\n      pop\n      jump\t// out\n        /* \"#utility.yul\":10851:11273   */\n    tag_390:\n        /* \"#utility.yul\":10948:10953   */\n      0x00\n        /* \"#utility.yul\":10997:11000   */\n      dup3\n        /* \"#utility.yul\":10990:10994   */\n      0x1f\n        /* \"#utility.yul\":10982:10988   */\n      dup4\n        /* \"#utility.yul\":10978:10995   */\n      add\n        /* \"#utility.yul\":10974:11001   */\n      slt\n        /* \"#utility.yul\":10964:11086   */\n      tag_523\n      jumpi\n        /* \"#utility.yul\":11005:11084   */\n      tag_524\n      tag_383\n      jump\t// in\n    tag_524:\n        /* \"#utility.yul\":10964:11086   */\n    tag_523:\n        /* \"#utility.yul\":11122:11128   */\n      dup2\n        /* \"#utility.yul\":11109:11129   */\n      calldataload\n        /* \"#utility.yul\":11147:11267   */\n      tag_525\n        /* \"#utility.yul\":11263:11266   */\n      dup5\n        /* \"#utility.yul\":11255:11261   */\n      dup3\n        /* \"#utility.yul\":11248:11252   */\n      0x20\n        /* \"#utility.yul\":11240:11246   */\n      dup7\n        /* \"#utility.yul\":11236:11253   */\n      add\n        /* \"#utility.yul\":11147:11267   */\n      tag_389\n      jump\t// in\n    tag_525:\n        /* \"#utility.yul\":11138:11267   */\n      swap2\n      pop\n        /* \"#utility.yul\":10954:11273   */\n      pop\n        /* \"#utility.yul\":10851:11273   */\n      swap3\n      swap2\n      pop\n      pop\n      jump\t// out\n        /* \"#utility.yul\":11300:13647   */\n    tag_391:\n        /* \"#utility.yul\":11371:11376   */\n      0x00\n        /* \"#utility.yul\":11415:11419   */\n      0xc0\n        /* \"#utility.yul\":11403:11412   */\n      dup3\n        /* \"#utility.yul\":11398:11401   */\n      dup5\n        /* \"#utility.yul\":11394:11413   */\n      sub\n        /* \"#utility.yul\":11390:11420   */\n      slt\n        /* \"#utility.yul\":11387:11504   */\n      iszero\n      tag_527\n      jumpi\n        /* \"#utility.yul\":11423:11502   */\n      tag_528\n      tag_362\n      jump\t// in\n    tag_528:\n        /* \"#utility.yul\":11387:11504   */\n    tag_527:\n        /* \"#utility.yul\":11522:11543   */\n      tag_529\n        /* \"#utility.yul\":11538:11542   */\n      0xc0\n        /* \"#utility.yul\":11522:11543   */\n      tag_366\n      jump\t// in\n    tag_529:\n        /* \"#utility.yul\":11513:11543   */\n      swap1\n      pop\n        /* \"#utility.yul\":11628:11629   */\n      0x00\n        /* \"#utility.yul\":11617:11626   */\n      dup3\n        /* \"#utility.yul\":11613:11630   */\n      add\n        /* \"#utility.yul\":11600:11631   */\n      calldataload\n        /* \"#utility.yul\":11658:11676   */\n      0xffffffffffffffff\n        /* \"#utility.yul\":11650:11656   */\n      dup2\n        /* \"#utility.yul\":11647:11677   */\n      gt\n        /* \"#utility.yul\":11644:11761   */\n      iszero\n      tag_530\n      jumpi\n        /* \"#utility.yul\":11680:11759   */\n      tag_531\n      tag_367\n      jump\t// in\n    tag_531:\n        /* \"#utility.yul\":11644:11761   */\n    tag_530:\n        /* \"#utility.yul\":11800:11874   */\n      tag_532\n        /* \"#utility.yul\":11870:11873   */\n      dup5\n        /* \"#utility.yul\":11861:11867   */\n      dup3\n        /* \"#utility.yul\":11850:11859   */\n      dup6\n        /* \"#utility.yul\":11846:11868   */\n      add\n        /* \"#utility.yul\":11800:11874   */\n      tag_387\n      jump\t// in\n    tag_532:\n        /* \"#utility.yul\":11793:11797   */\n      0x00\n        /* \"#utility.yul\":11786:11791   */\n      dup4\n        /* \"#utility.yul\":11782:11798   */\n      add\n        /* \"#utility.yul\":11775:11875   */\n      mstore\n        /* \"#utility.yul\":11553:11886   */\n      pop\n        /* \"#utility.yul\":11973:11975   */\n      0x20\n        /* \"#utility.yul\":11962:11971   */\n      dup3\n        /* \"#utility.yul\":11958:11976   */\n      add\n        /* \"#utility.yul\":11945:11977   */\n      calldataload\n        /* \"#utility.yul\":12004:12022   */\n      0xffffffffffffffff\n        /* \"#utility.yul\":11996:12002   */\n      dup2\n        /* \"#utility.yul\":11993:12023   */\n      gt\n        /* \"#utility.yul\":11990:12107   */\n      iszero\n      tag_533\n      jumpi\n        /* \"#utility.yul\":12026:12105   */\n      tag_534\n      tag_367\n      jump\t// in\n    tag_534:\n        /* \"#utility.yul\":11990:12107   */\n    tag_533:\n        /* \"#utility.yul\":12146:12246   */\n      tag_535\n        /* \"#utility.yul\":12242:12245   */\n      dup5\n        /* \"#utility.yul\":12233:12239   */\n      dup3\n        /* \"#utility.yul\":12222:12231   */\n      dup6\n        /* \"#utility.yul\":12218:12240   */\n      add\n        /* \"#utility.yul\":12146:12246   */\n      tag_390\n      jump\t// in\n    tag_535:\n        /* \"#utility.yul\":12139:12143   */\n      0x20\n        /* \"#utility.yul\":12132:12137   */\n      dup4\n        /* \"#utility.yul\":12128:12144   */\n      add\n        /* \"#utility.yul\":12121:12247   */\n      mstore\n        /* \"#utility.yul\":11896:12258   */\n      pop\n        /* \"#utility.yul\":12344:12346   */\n      0x40\n        /* \"#utility.yul\":12333:12342   */\n      dup3\n        /* \"#utility.yul\":12329:12347   */\n      add\n        /* \"#utility.yul\":12316:12348   */\n      calldataload\n        /* \"#utility.yul\":12375:12393   */\n      0xffffffffffffffff\n        /* \"#utility.yul\":12367:12373   */\n      dup2\n        /* \"#utility.yul\":12364:12394   */\n      gt\n        /* \"#utility.yul\":12361:12478   */\n      iszero\n      tag_536\n      jumpi\n        /* \"#utility.yul\":12397:12476   */\n      tag_537\n      tag_367\n      jump\t// in\n    tag_537:\n        /* \"#utility.yul\":12361:12478   */\n    tag_536:\n        /* \"#utility.yul\":12517:12591   */\n      tag_538\n        /* \"#utility.yul\":12587:12590   */\n      dup5\n        /* \"#utility.yul\":12578:12584   */\n      dup3\n        /* \"#utility.yul\":12567:12576   */\n      dup6\n        /* \"#utility.yul\":12563:12585   */\n      add\n        /* \"#utility.yul\":12517:12591   */\n      tag_387\n      jump\t// in\n    tag_538:\n        /* \"#utility.yul\":12510:12514   */\n      0x40\n        /* \"#utility.yul\":12503:12508   */\n      dup4\n        /* \"#utility.yul\":12499:12515   */\n      add\n        /* \"#utility.yul\":12492:12592   */\n      mstore\n        /* \"#utility.yul\":12268:12603   */\n      pop\n        /* \"#utility.yul\":12689:12691   */\n      0x60\n        /* \"#utility.yul\":12678:12687   */\n      dup3\n        /* \"#utility.yul\":12674:12692   */\n      add\n        /* \"#utility.yul\":12661:12693   */\n      calldataload\n        /* \"#utility.yul\":12720:12738   */\n      0xffffffffffffffff\n        /* \"#utility.yul\":12712:12718   */\n      dup2\n        /* \"#utility.yul\":12709:12739   */\n      gt\n        /* \"#utility.yul\":12706:12823   */\n      iszero\n      tag_539\n      jumpi\n        /* \"#utility.yul\":12742:12821   */\n      tag_540\n      tag_367\n      jump\t// in\n    tag_540:\n        /* \"#utility.yul\":12706:12823   */\n    tag_539:\n        /* \"#utility.yul\":12862:12936   */\n      tag_541\n        /* \"#utility.yul\":12932:12935   */\n      dup5\n        /* \"#utility.yul\":12923:12929   */\n      dup3\n        /* \"#utility.yul\":12912:12921   */\n      dup6\n        /* \"#utility.yul\":12908:12930   */\n      add\n        /* \"#utility.yul\":12862:12936   */\n      tag_387\n      jump\t// in\n    tag_541:\n        /* \"#utility.yul\":12855:12859   */\n      0x60\n        /* \"#utility.yul\":12848:12853   */\n      dup4\n        /* \"#utility.yul\":12844:12860   */\n      add\n        /* \"#utility.yul\":12837:12937   */\n      mstore\n        /* \"#utility.yul\":12613:12948   */\n      pop\n        /* \"#utility.yul\":13034:13037   */\n      0x80\n        /* \"#utility.yul\":13023:13032   */\n      dup3\n        /* \"#utility.yul\":13019:13038   */\n      add\n        /* \"#utility.yul\":13006:13039   */\n      calldataload\n        /* \"#utility.yul\":13066:13084   */\n      0xffffffffffffffff\n        /* \"#utility.yul\":13058:13064   */\n      dup2\n        /* \"#utility.yul\":13055:13085   */\n      gt\n        /* \"#utility.yul\":13052:13169   */\n      iszero\n      tag_542\n      jumpi\n        /* \"#utility.yul\":13088:13167   */\n      tag_543\n      tag_367\n      jump\t// in\n    tag_543:\n        /* \"#utility.yul\":13052:13169   */\n    tag_542:\n        /* \"#utility.yul\":13208:13282   */\n      tag_544\n        /* \"#utility.yul\":13278:13281   */\n      dup5\n        /* \"#utility.yul\":13269:13275   */\n      dup3\n        /* \"#utility.yul\":13258:13267   */\n      dup6\n        /* \"#utility.yul\":13254:13276   */\n      add\n        /* \"#utility.yul\":13208:13282   */\n      tag_387\n      jump\t// in\n    tag_544:\n        /* \"#utility.yul\":13201:13205   */\n      0x80\n        /* \"#utility.yul\":13194:13199   */\n      dup4\n        /* \"#utility.yul\":13190:13206   */\n      add\n        /* \"#utility.yul\":13183:13283   */\n      mstore\n        /* \"#utility.yul\":12958:13294   */\n      pop\n        /* \"#utility.yul\":13380:13383   */\n      0xa0\n        /* \"#utility.yul\":13369:13378   */\n      dup3\n        /* \"#utility.yul\":13365:13384   */\n      add\n        /* \"#utility.yul\":13352:13385   */\n      calldataload\n        /* \"#utility.yul\":13412:13430   */\n      0xffffffffffffffff\n        /* \"#utility.yul\":13404:13410   */\n      dup2\n        /* \"#utility.yul\":13401:13431   */\n      gt\n        /* \"#utility.yul\":13398:13515   */\n      iszero\n      tag_545\n      jumpi\n        /* \"#utility.yul\":13434:13513   */\n      tag_546\n      tag_367\n      jump\t// in\n    tag_546:\n        /* \"#utility.yul\":13398:13515   */\n    tag_545:\n        /* \"#utility.yul\":13554:13628   */\n      tag_547\n        /* \"#utility.yul\":13624:13627   */\n      dup5\n        /* \"#utility.yul\":13615:13621   */\n      dup3\n        /* \"#utility.yul\":13604:13613   */\n      dup6\n        /* \"#utility.yul\":13600:13622   */\n      add\n        /* \"#utility.yul\":13554:13628   */\n      tag_387\n      jump\t// in\n    tag_547:\n        /* \"#utility.yul\":13547:13551   */\n      0xa0\n        /* \"#utility.yul\":13540:13545   */\n      dup4\n        /* \"#utility.yul\":13536:13552   */\n      add\n        /* \"#utility.yul\":13529:13629   */\n      mstore\n        /* \"#utility.yul\":13304:13640   */\n      pop\n        /* \"#utility.yul\":11300:13647   */\n      swap3\n      swap2\n      pop\n      pop\n      jump\t// out\n        /* \"#utility.yul\":13653:13963   */\n    tag_392:\n        /* \"#utility.yul\":13729:13733   */\n      0x00\n        /* \"#utility.yul\":13819:13837   */\n      0xffffffffffffffff\n        /* \"#utility.yul\":13811:13817   */\n      dup3\n        /* \"#utility.yul\":13808:13838   */\n      gt\n        /* \"#utility.yul\":13805:13861   */\n      iszero\n      tag_549\n      jumpi\n        /* \"#utility.yul\":13841:13859   */\n      tag_550\n      tag_364\n      jump\t// in\n    tag_550:\n        /* \"#utility.yul\":13805:13861   */\n    tag_549:\n        /* \"#utility.yul\":13891:13895   */\n      0x20\n        /* \"#utility.yul\":13883:13889   */\n      dup3\n        /* \"#utility.yul\":13879:13896   */\n      mul\n        /* \"#utility.yul\":13871:13896   */\n      swap1\n      pop\n        /* \"#utility.yul\":13951:13955   */\n      0x20\n        /* \"#utility.yul\":13945:13949   */\n      dup2\n        /* \"#utility.yul\":13941:13956   */\n      add\n        /* \"#utility.yul\":13933:13956   */\n      swap1\n      pop\n        /* \"#utility.yul\":13653:13963   */\n      swap2\n      swap1\n      pop\n      jump\t// out\n        /* \"#utility.yul\":13985:14692   */\n    tag_393:\n        /* \"#utility.yul\":14080:14085   */\n      0x00\n        /* \"#utility.yul\":14105:14185   */\n      tag_552\n        /* \"#utility.yul\":14121:14184   */\n      tag_553\n        /* \"#utility.yul\":14177:14183   */\n      dup5\n        /* \"#utility.yul\":14121:14184   */\n      tag_392\n      jump\t// in\n    tag_553:\n        /* \"#utility.yul\":14105:14185   */\n      tag_366\n      jump\t// in\n    tag_552:\n        /* \"#utility.yul\":14096:14185   */\n      swap1\n      pop\n        /* \"#utility.yul\":14205:14210   */\n      dup1\n        /* \"#utility.yul\":14234:14240   */\n      dup4\n        /* \"#utility.yul\":14227:14232   */\n      dup3\n        /* \"#utility.yul\":14220:14241   */\n      mstore\n        /* \"#utility.yul\":14268:14272   */\n      0x20\n        /* \"#utility.yul\":14261:14266   */\n      dup3\n        /* \"#utility.yul\":14257:14273   */\n      add\n        /* \"#utility.yul\":14250:14273   */\n      swap1\n      pop\n        /* \"#utility.yul\":14321:14325   */\n      0x20\n        /* \"#utility.yul\":14313:14319   */\n      dup5\n        /* \"#utility.yul\":14309:14326   */\n      mul\n        /* \"#utility.yul\":14301:14307   */\n      dup4\n        /* \"#utility.yul\":14297:14327   */\n      add\n        /* \"#utility.yul\":14350:14353   */\n      dup6\n        /* \"#utility.yul\":14342:14348   */\n      dup2\n        /* \"#utility.yul\":14339:14354   */\n      gt\n        /* \"#utility.yul\":14336:14458   */\n      iszero\n      tag_554\n      jumpi\n        /* \"#utility.yul\":14369:14448   */\n      tag_555\n      tag_385\n      jump\t// in\n    tag_555:\n        /* \"#utility.yul\":14336:14458   */\n    tag_554:\n        /* \"#utility.yul\":14484:14490   */\n      dup4\n        /* \"#utility.yul\":14467:14686   */\n    tag_556:\n        /* \"#utility.yul\":14501:14507   */\n      dup2\n        /* \"#utility.yul\":14496:14499   */\n      dup2\n        /* \"#utility.yul\":14493:14508   */\n      lt\n        /* \"#utility.yul\":14467:14686   */\n      iszero\n      tag_558\n      jumpi\n        /* \"#utility.yul\":14576:14579   */\n      dup1\n        /* \"#utility.yul\":14605:14641   */\n      tag_559\n        /* \"#utility.yul\":14637:14640   */\n      dup9\n        /* \"#utility.yul\":14625:14635   */\n      dup3\n        /* \"#utility.yul\":14605:14641   */\n      tag_377\n      jump\t// in\n    tag_559:\n        /* \"#utility.yul\":14600:14603   */\n      dup5\n        /* \"#utility.yul\":14593:14642   */\n      mstore\n        /* \"#utility.yul\":14671:14675   */\n      0x20\n        /* \"#utility.yul\":14666:14669   */\n      dup5\n        /* \"#utility.yul\":14662:14676   */\n      add\n        /* \"#utility.yul\":14655:14676   */\n      swap4\n      pop\n        /* \"#utility.yul\":14543:14686   */\n      pop\n        /* \"#utility.yul\":14527:14531   */\n      0x20\n        /* \"#utility.yul\":14522:14525   */\n      dup2\n        /* \"#utility.yul\":14518:14532   */\n      add\n        /* \"#utility.yul\":14511:14532   */\n      swap1\n      pop\n        /* \"#utility.yul\":14467:14686   */\n      jump(tag_556)\n    tag_558:\n        /* \"#utility.yul\":14471:14492   */\n      pop\n        /* \"#utility.yul\":14086:14692   */\n      pop\n      pop\n        /* \"#utility.yul\":13985:14692   */\n      swap4\n      swap3\n      pop\n      pop\n      pop\n      jump\t// out\n        /* \"#utility.yul\":14714:15082   */\n    tag_394:\n        /* \"#utility.yul\":14784:14789   */\n      0x00\n        /* \"#utility.yul\":14833:14836   */\n      dup3\n        /* \"#utility.yul\":14826:14830   */\n      0x1f\n        /* \"#utility.yul\":14818:14824   */\n      dup4\n        /* \"#utility.yul\":14814:14831   */\n      add\n        /* \"#utility.yul\":14810:14837   */\n      slt\n        /* \"#utility.yul\":14800:14922   */\n      tag_561\n      jumpi\n        /* \"#utility.yul\":14841:14920   */\n      tag_562\n      tag_383\n      jump\t// in\n    tag_562:\n        /* \"#utility.yul\":14800:14922   */\n    tag_561:\n        /* \"#utility.yul\":14958:14964   */\n      dup2\n        /* \"#utility.yul\":14945:14965   */\n      calldataload\n        /* \"#utility.yul\":14983:15076   */\n      tag_563\n        /* \"#utility.yul\":15072:15075   */\n      dup5\n        /* \"#utility.yul\":15064:15070   */\n      dup3\n        /* \"#utility.yul\":15057:15061   */\n      0x20\n        /* \"#utility.yul\":15049:15055   */\n      dup7\n        /* \"#utility.yul\":15045:15062   */\n      add\n        /* \"#utility.yul\":14983:15076   */\n      tag_393\n      jump\t// in\n    tag_563:\n        /* \"#utility.yul\":14974:15076   */\n      swap2\n      pop\n        /* \"#utility.yul\":14790:15082   */\n      pop\n        /* \"#utility.yul\":14714:15082   */\n      swap3\n      swap2\n      pop\n      pop\n      jump\t// out\n        /* \"#utility.yul\":15109:16547   */\n    tag_395:\n        /* \"#utility.yul\":15180:15185   */\n      0x00\n        /* \"#utility.yul\":15224:15228   */\n      0x80\n        /* \"#utility.yul\":15212:15221   */\n      dup3\n        /* \"#utility.yul\":15207:15210   */\n      dup5\n        /* \"#utility.yul\":15203:15222   */\n      sub\n        /* \"#utility.yul\":15199:15229   */\n      slt\n        /* \"#utility.yul\":15196:15313   */\n      iszero\n      tag_565\n      jumpi\n        /* \"#utility.yul\":15232:15311   */\n      tag_566\n      tag_362\n      jump\t// in\n    tag_566:\n        /* \"#utility.yul\":15196:15313   */\n    tag_565:\n        /* \"#utility.yul\":15331:15352   */\n      tag_567\n        /* \"#utility.yul\":15347:15351   */\n      0x80\n        /* \"#utility.yul\":15331:15352   */\n      tag_366\n      jump\t// in\n    tag_567:\n        /* \"#utility.yul\":15322:15352   */\n      swap1\n      pop\n        /* \"#utility.yul\":15437:15438   */\n      0x00\n        /* \"#utility.yul\":15426:15435   */\n      dup3\n        /* \"#utility.yul\":15422:15439   */\n      add\n        /* \"#utility.yul\":15409:15440   */\n      calldataload\n        /* \"#utility.yul\":15467:15485   */\n      0xffffffffffffffff\n        /* \"#utility.yul\":15459:15465   */\n      dup2\n        /* \"#utility.yul\":15456:15486   */\n      gt\n        /* \"#utility.yul\":15453:15570   */\n      iszero\n      tag_568\n      jumpi\n        /* \"#utility.yul\":15489:15568   */\n      tag_569\n      tag_367\n      jump\t// in\n    tag_569:\n        /* \"#utility.yul\":15453:15570   */\n    tag_568:\n        /* \"#utility.yul\":15609:15682   */\n      tag_570\n        /* \"#utility.yul\":15678:15681   */\n      dup5\n        /* \"#utility.yul\":15669:15675   */\n      dup3\n        /* \"#utility.yul\":15658:15667   */\n      dup6\n        /* \"#utility.yul\":15654:15676   */\n      add\n        /* \"#utility.yul\":15609:15682   */\n      tag_394\n      jump\t// in\n    tag_570:\n        /* \"#utility.yul\":15602:15606   */\n      0x00\n        /* \"#utility.yul\":15595:15600   */\n      dup4\n        /* \"#utility.yul\":15591:15607   */\n      add\n        /* \"#utility.yul\":15584:15683   */\n      mstore\n        /* \"#utility.yul\":15362:15694   */\n      pop\n        /* \"#utility.yul\":15780:15782   */\n      0x20\n        /* \"#utility.yul\":15769:15778   */\n      dup3\n        /* \"#utility.yul\":15765:15783   */\n      add\n        /* \"#utility.yul\":15752:15784   */\n      calldataload\n        /* \"#utility.yul\":15811:15829   */\n      0xffffffffffffffff\n        /* \"#utility.yul\":15803:15809   */\n      dup2\n        /* \"#utility.yul\":15800:15830   */\n      gt\n        /* \"#utility.yul\":15797:15914   */\n      iszero\n      tag_571\n      jumpi\n        /* \"#utility.yul\":15833:15912   */\n      tag_572\n      tag_367\n      jump\t// in\n    tag_572:\n        /* \"#utility.yul\":15797:15914   */\n    tag_571:\n        /* \"#utility.yul\":15953:16026   */\n      tag_573\n        /* \"#utility.yul\":16022:16025   */\n      dup5\n        /* \"#utility.yul\":16013:16019   */\n      dup3\n        /* \"#utility.yul\":16002:16011   */\n      dup6\n        /* \"#utility.yul\":15998:16020   */\n      add\n        /* \"#utility.yul\":15953:16026   */\n      tag_394\n      jump\t// in\n    tag_573:\n        /* \"#utility.yul\":15946:15950   */\n      0x20\n        /* \"#utility.yul\":15939:15944   */\n      dup4\n        /* \"#utility.yul\":15935:15951   */\n      add\n        /* \"#utility.yul\":15928:16027   */\n      mstore\n        /* \"#utility.yul\":15704:16038   */\n      pop\n        /* \"#utility.yul\":16124:16126   */\n      0x40\n        /* \"#utility.yul\":16113:16122   */\n      dup3\n        /* \"#utility.yul\":16109:16127   */\n      add\n        /* \"#utility.yul\":16096:16128   */\n      calldataload\n        /* \"#utility.yul\":16155:16173   */\n      0xffffffffffffffff\n        /* \"#utility.yul\":16147:16153   */\n      dup2\n        /* \"#utility.yul\":16144:16174   */\n      gt\n        /* \"#utility.yul\":16141:16258   */\n      iszero\n      tag_574\n      jumpi\n        /* \"#utility.yul\":16177:16256   */\n      tag_575\n      tag_367\n      jump\t// in\n    tag_575:\n        /* \"#utility.yul\":16141:16258   */\n    tag_574:\n        /* \"#utility.yul\":16297:16370   */\n      tag_576\n        /* \"#utility.yul\":16366:16369   */\n      dup5\n        /* \"#utility.yul\":16357:16363   */\n      dup3\n        /* \"#utility.yul\":16346:16355   */\n      dup6\n        /* \"#utility.yul\":16342:16364   */\n      add\n        /* \"#utility.yul\":16297:16370   */\n      tag_394\n      jump\t// in\n    tag_576:\n        /* \"#utility.yul\":16290:16294   */\n      0x40\n        /* \"#utility.yul\":16283:16288   */\n      dup4\n        /* \"#utility.yul\":16279:16295   */\n      add\n        /* \"#utility.yul\":16272:16371   */\n      mstore\n        /* \"#utility.yul\":16048:16382   */\n      pop\n        /* \"#utility.yul\":16439:16441   */\n      0x60\n        /* \"#utility.yul\":16480:16528   */\n      tag_577\n        /* \"#utility.yul\":16524:16527   */\n      dup5\n        /* \"#utility.yul\":16515:16521   */\n      dup3\n        /* \"#utility.yul\":16504:16513   */\n      dup6\n        /* \"#utility.yul\":16500:16522   */\n      add\n        /* \"#utility.yul\":16480:16528   */\n      tag_377\n      jump\t// in\n    tag_577:\n        /* \"#utility.yul\":16473:16477   */\n      0x60\n        /* \"#utility.yul\":16466:16471   */\n      dup4\n        /* \"#utility.yul\":16462:16478   */\n      add\n        /* \"#utility.yul\":16455:16529   */\n      mstore\n        /* \"#utility.yul\":16392:16540   */\n      pop\n        /* \"#utility.yul\":15109:16547   */\n      swap3\n      swap2\n      pop\n      pop\n      jump\t// out\n        /* \"#utility.yul\":16553:17576   */\n    tag_49:\n        /* \"#utility.yul\":16672:16678   */\n      0x00\n        /* \"#utility.yul\":16680:16686   */\n      dup1\n        /* \"#utility.yul\":16688:16694   */\n      0x00\n        /* \"#utility.yul\":16737:16739   */\n      0x60\n        /* \"#utility.yul\":16725:16734   */\n      dup5\n        /* \"#utility.yul\":16716:16723   */\n      dup7\n        /* \"#utility.yul\":16712:16735   */\n      sub\n        /* \"#utility.yul\":16708:16740   */\n      slt\n        /* \"#utility.yul\":16705:16824   */\n      iszero\n      tag_579\n      jumpi\n        /* \"#utility.yul\":16743:16822   */\n      tag_580\n      tag_360\n      jump\t// in\n    tag_580:\n        /* \"#utility.yul\":16705:16824   */\n    tag_579:\n        /* \"#utility.yul\":16891:16892   */\n      0x00\n        /* \"#utility.yul\":16880:16889   */\n      dup5\n        /* \"#utility.yul\":16876:16893   */\n      add\n        /* \"#utility.yul\":16863:16894   */\n      calldataload\n        /* \"#utility.yul\":16921:16939   */\n      0xffffffffffffffff\n        /* \"#utility.yul\":16913:16919   */\n      dup2\n        /* \"#utility.yul\":16910:16940   */\n      gt\n        /* \"#utility.yul\":16907:17024   */\n      iszero\n      tag_581\n      jumpi\n        /* \"#utility.yul\":16943:17022   */\n      tag_582\n      tag_361\n      jump\t// in\n    tag_582:\n        /* \"#utility.yul\":16907:17024   */\n    tag_581:\n        /* \"#utility.yul\":17048:17123   */\n      tag_583\n        /* \"#utility.yul\":17115:17122   */\n      dup7\n        /* \"#utility.yul\":17106:17112   */\n      dup3\n        /* \"#utility.yul\":17095:17104   */\n      dup8\n        /* \"#utility.yul\":17091:17113   */\n      add\n        /* \"#utility.yul\":17048:17123   */\n      tag_391\n      jump\t// in\n    tag_583:\n        /* \"#utility.yul\":17038:17123   */\n      swap4\n      pop\n        /* \"#utility.yul\":16834:17133   */\n      pop\n        /* \"#utility.yul\":17200:17202   */\n      0x20\n        /* \"#utility.yul\":17189:17198   */\n      dup5\n        /* \"#utility.yul\":17185:17203   */\n      add\n        /* \"#utility.yul\":17172:17204   */\n      calldataload\n        /* \"#utility.yul\":17231:17249   */\n      0xffffffffffffffff\n        /* \"#utility.yul\":17223:17229   */\n      dup2\n        /* \"#utility.yul\":17220:17250   */\n      gt\n        /* \"#utility.yul\":17217:17334   */\n      iszero\n      tag_584\n      jumpi\n        /* \"#utility.yul\":17253:17332   */\n      tag_585\n      tag_361\n      jump\t// in\n    tag_585:\n        /* \"#utility.yul\":17217:17334   */\n    tag_584:\n        /* \"#utility.yul\":17358:17433   */\n      tag_586\n        /* \"#utility.yul\":17425:17432   */\n      dup7\n        /* \"#utility.yul\":17416:17422   */\n      dup3\n        /* \"#utility.yul\":17405:17414   */\n      dup8\n        /* \"#utility.yul\":17401:17423   */\n      add\n        /* \"#utility.yul\":17358:17433   */\n      tag_395\n      jump\t// in\n    tag_586:\n        /* \"#utility.yul\":17348:17433   */\n      swap3\n      pop\n        /* \"#utility.yul\":17143:17443   */\n      pop\n        /* \"#utility.yul\":17482:17484   */\n      0x40\n        /* \"#utility.yul\":17508:17559   */\n      tag_587\n        /* \"#utility.yul\":17551:17558   */\n      dup7\n        /* \"#utility.yul\":17542:17548   */\n      dup3\n        /* \"#utility.yul\":17531:17540   */\n      dup8\n        /* \"#utility.yul\":17527:17549   */\n      add\n        /* \"#utility.yul\":17508:17559   */\n      tag_381\n      jump\t// in\n    tag_587:\n        /* \"#utility.yul\":17498:17559   */\n      swap2\n      pop\n        /* \"#utility.yul\":17453:17569   */\n      pop\n        /* \"#utility.yul\":16553:17576   */\n      swap3\n      pop\n      swap3\n      pop\n      swap3\n      jump\t// out\n        /* \"#utility.yul\":17582:18121   */\n    tag_58:\n        /* \"#utility.yul\":17666:17672   */\n      0x00\n        /* \"#utility.yul\":17715:17717   */\n      0x20\n        /* \"#utility.yul\":17703:17712   */\n      dup3\n        /* \"#utility.yul\":17694:17701   */\n      dup5\n        /* \"#utility.yul\":17690:17713   */\n      sub\n        /* \"#utility.yul\":17686:17718   */\n      slt\n        /* \"#utility.yul\":17683:17802   */\n      iszero\n      tag_589\n      jumpi\n        /* \"#utility.yul\":17721:17800   */\n      tag_590\n      tag_360\n      jump\t// in\n    tag_590:\n        /* \"#utility.yul\":17683:17802   */\n    tag_589:\n        /* \"#utility.yul\":17869:17870   */\n      0x00\n        /* \"#utility.yul\":17858:17867   */\n      dup3\n        /* \"#utility.yul\":17854:17871   */\n      add\n        /* \"#utility.yul\":17841:17872   */\n      calldataload\n        /* \"#utility.yul\":17899:17917   */\n      0xffffffffffffffff\n        /* \"#utility.yul\":17891:17897   */\n      dup2\n        /* \"#utility.yul\":17888:17918   */\n      gt\n        /* \"#utility.yul\":17885:18002   */\n      iszero\n      tag_591\n      jumpi\n        /* \"#utility.yul\":17921:18000   */\n      tag_592\n      tag_361\n      jump\t// in\n    tag_592:\n        /* \"#utility.yul\":17885:18002   */\n    tag_591:\n        /* \"#utility.yul\":18026:18104   */\n      tag_593\n        /* \"#utility.yul\":18096:18103   */\n      dup5\n        /* \"#utility.yul\":18087:18093   */\n      dup3\n        /* \"#utility.yul\":18076:18085   */\n      dup6\n        /* \"#utility.yul\":18072:18094   */\n      add\n        /* \"#utility.yul\":18026:18104   */\n      tag_387\n      jump\t// in\n    tag_593:\n        /* \"#utility.yul\":18016:18104   */\n      swap2\n      pop\n        /* \"#utility.yul\":17812:18114   */\n      pop\n        /* \"#utility.yul\":17582:18121   */\n      swap3\n      swap2\n      pop\n      pop\n      jump\t// out\n        /* \"#utility.yul\":18127:19296   */\n    tag_63:\n        /* \"#utility.yul\":18255:18261   */\n      0x00\n        /* \"#utility.yul\":18263:18269   */\n      dup1\n        /* \"#utility.yul\":18271:18277   */\n      0x00\n        /* \"#utility.yul\":18279:18285   */\n      dup1\n        /* \"#utility.yul\":18328:18331   */\n      0x80\n        /* \"#utility.yul\":18316:18325   */\n      dup6\n        /* \"#utility.yul\":18307:18314   */\n      dup8\n        /* \"#utility.yul\":18303:18326   */\n      sub\n        /* \"#utility.yul\":18299:18332   */\n      slt\n        /* \"#utility.yul\":18296:18416   */\n      iszero\n      tag_595\n      jumpi\n        /* \"#utility.yul\":18335:18414   */\n      tag_596\n      tag_360\n      jump\t// in\n    tag_596:\n        /* \"#utility.yul\":18296:18416   */\n    tag_595:\n        /* \"#utility.yul\":18455:18456   */\n      0x00\n        /* \"#utility.yul\":18480:18533   */\n      tag_597\n        /* \"#utility.yul\":18525:18532   */\n      dup8\n        /* \"#utility.yul\":18516:18522   */\n      dup3\n        /* \"#utility.yul\":18505:18514   */\n      dup9\n        /* \"#utility.yul\":18501:18523   */\n      add\n        /* \"#utility.yul\":18480:18533   */\n      tag_370\n      jump\t// in\n    tag_597:\n        /* \"#utility.yul\":18470:18533   */\n      swap5\n      pop\n        /* \"#utility.yul\":18426:18543   */\n      pop\n        /* \"#utility.yul\":18610:18612   */\n      0x20\n        /* \"#utility.yul\":18599:18608   */\n      dup6\n        /* \"#utility.yul\":18595:18613   */\n      add\n        /* \"#utility.yul\":18582:18614   */\n      calldataload\n        /* \"#utility.yul\":18641:18659   */\n      0xffffffffffffffff\n        /* \"#utility.yul\":18633:18639   */\n      dup2\n        /* \"#utility.yul\":18630:18660   */\n      gt\n        /* \"#utility.yul\":18627:18744   */\n      iszero\n      tag_598\n      jumpi\n        /* \"#utility.yul\":18663:18742   */\n      tag_599\n      tag_361\n      jump\t// in\n    tag_599:\n        /* \"#utility.yul\":18627:18744   */\n    tag_598:\n        /* \"#utility.yul\":18768:18843   */\n      tag_600\n        /* \"#utility.yul\":18835:18842   */\n      dup8\n        /* \"#utility.yul\":18826:18832   */\n      dup3\n        /* \"#utility.yul\":18815:18824   */\n      dup9\n        /* \"#utility.yul\":18811:18833   */\n      add\n        /* \"#utility.yul\":18768:18843   */\n      tag_391\n      jump\t// in\n    tag_600:\n        /* \"#utility.yul\":18758:18843   */\n      swap4\n      pop\n        /* \"#utility.yul\":18553:18853   */\n      pop\n        /* \"#utility.yul\":18920:18922   */\n      0x40\n        /* \"#utility.yul\":18909:18918   */\n      dup6\n        /* \"#utility.yul\":18905:18923   */\n      add\n        /* \"#utility.yul\":18892:18924   */\n      calldataload\n        /* \"#utility.yul\":18951:18969   */\n      0xffffffffffffffff\n        /* \"#utility.yul\":18943:18949   */\n      dup2\n        /* \"#utility.yul\":18940:18970   */\n      gt\n        /* \"#utility.yul\":18937:19054   */\n      iszero\n      tag_601\n      jumpi\n        /* \"#utility.yul\":18973:19052   */\n      tag_602\n      tag_361\n      jump\t// in\n    tag_602:\n        /* \"#utility.yul\":18937:19054   */\n    tag_601:\n        /* \"#utility.yul\":19078:19153   */\n      tag_603\n        /* \"#utility.yul\":19145:19152   */\n      dup8\n        /* \"#utility.yul\":19136:19142   */\n      dup3\n        /* \"#utility.yul\":19125:19134   */\n      dup9\n        /* \"#utility.yul\":19121:19143   */\n      add\n        /* \"#utility.yul\":19078:19153   */\n      tag_395\n      jump\t// in\n    tag_603:\n        /* \"#utility.yul\":19068:19153   */\n      swap3\n      pop\n        /* \"#utility.yul\":18863:19163   */\n      pop\n        /* \"#utility.yul\":19202:19204   */\n      0x60\n        /* \"#utility.yul\":19228:19279   */\n      tag_604\n        /* \"#utility.yul\":19271:19278   */\n      dup8\n        /* \"#utility.yul\":19262:19268   */\n      dup3\n        /* \"#utility.yul\":19251:19260   */\n      dup9\n        /* \"#utility.yul\":19247:19269   */\n      add\n        /* \"#utility.yul\":19228:19279   */\n      tag_381\n      jump\t// in\n    tag_604:\n        /* \"#utility.yul\":19218:19279   */\n      swap2\n      pop\n        /* \"#utility.yul\":19173:19289   */\n      pop\n        /* \"#utility.yul\":18127:19296   */\n      swap3\n      swap6\n      swap2\n      swap5\n      pop\n      swap3\n      pop\n      jump\t// out\n        /* \"#utility.yul\":19302:19835   */\n    tag_68:\n        /* \"#utility.yul\":19383:19389   */\n      0x00\n        /* \"#utility.yul\":19432:19434   */\n      0x20\n        /* \"#utility.yul\":19420:19429   */\n      dup3\n        /* \"#utility.yul\":19411:19418   */\n      dup5\n        /* \"#utility.yul\":19407:19430   */\n      sub\n        /* \"#utility.yul\":19403:19435   */\n      slt\n        /* \"#utility.yul\":19400:19519   */\n      iszero\n      tag_606\n      jumpi\n        /* \"#utility.yul\":19438:19517   */\n      tag_607\n      tag_360\n      jump\t// in\n    tag_607:\n        /* \"#utility.yul\":19400:19519   */\n    tag_606:\n        /* \"#utility.yul\":19586:19587   */\n      0x00\n        /* \"#utility.yul\":19575:19584   */\n      dup3\n        /* \"#utility.yul\":19571:19588   */\n      add\n        /* \"#utility.yul\":19558:19589   */\n      calldataload\n        /* \"#utility.yul\":19616:19634   */\n      0xffffffffffffffff\n        /* \"#utility.yul\":19608:19614   */\n      dup2\n        /* \"#utility.yul\":19605:19635   */\n      gt\n        /* \"#utility.yul\":19602:19719   */\n      iszero\n      tag_608\n      jumpi\n        /* \"#utility.yul\":19638:19717   */\n      tag_609\n      tag_361\n      jump\t// in\n    tag_609:\n        /* \"#utility.yul\":19602:19719   */\n    tag_608:\n        /* \"#utility.yul\":19743:19818   */\n      tag_610\n        /* \"#utility.yul\":19810:19817   */\n      dup5\n        /* \"#utility.yul\":19801:19807   */\n      dup3\n        /* \"#utility.yul\":19790:19799   */\n      dup6\n        /* \"#utility.yul\":19786:19808   */\n      add\n        /* \"#utility.yul\":19743:19818   */\n      tag_391\n      jump\t// in\n    tag_610:\n        /* \"#utility.yul\":19733:19818   */\n      swap2\n      pop\n        /* \"#utility.yul\":19529:19828   */\n      pop\n        /* \"#utility.yul\":19302:19835   */\n      swap3\n      swap2\n      pop\n      pop\n      jump\t// out\n        /* \"#utility.yul\":19841:20170   */\n    tag_73:\n        /* \"#utility.yul\":19900:19906   */\n      0x00\n        /* \"#utility.yul\":19949:19951   */\n      0x20\n        /* \"#utility.yul\":19937:19946   */\n      dup3\n        /* \"#utility.yul\":19928:19935   */\n      dup5\n        /* \"#utility.yul\":19924:19947   */\n      sub\n        /* \"#utility.yul\":19920:19952   */\n      slt\n        /* \"#utility.yul\":19917:20036   */\n      iszero\n      tag_612\n      jumpi\n        /* \"#utility.yul\":19955:20034   */\n      tag_613\n      tag_360\n      jump\t// in\n    tag_613:\n        /* \"#utility.yul\":19917:20036   */\n    tag_612:\n        /* \"#utility.yul\":20075:20076   */\n      0x00\n        /* \"#utility.yul\":20100:20153   */\n      tag_614\n        /* \"#utility.yul\":20145:20152   */\n      dup5\n        /* \"#utility.yul\":20136:20142   */\n      dup3\n        /* \"#utility.yul\":20125:20134   */\n      dup6\n        /* \"#utility.yul\":20121:20143   */\n      add\n        /* \"#utility.yul\":20100:20153   */\n      tag_370\n      jump\t// in\n    tag_614:\n        /* \"#utility.yul\":20090:20153   */\n      swap2\n      pop\n        /* \"#utility.yul\":20046:20163   */\n      pop\n        /* \"#utility.yul\":19841:20170   */\n      swap3\n      swap2\n      pop\n      pop\n      jump\t// out\n        /* \"#utility.yul\":20176:20648   */\n    tag_86:\n        /* \"#utility.yul\":20243:20249   */\n      0x00\n        /* \"#utility.yul\":20251:20257   */\n      dup1\n        /* \"#utility.yul\":20300:20302   */\n      0x40\n        /* \"#utility.yul\":20288:20297   */\n      dup4\n        /* \"#utility.yul\":20279:20286   */\n      dup6\n        /* \"#utility.yul\":20275:20298   */\n      sub\n        /* \"#utility.yul\":20271:20303   */\n      slt\n        /* \"#utility.yul\":20268:20387   */\n      iszero\n      tag_616\n      jumpi\n        /* \"#utility.yul\":20306:20385   */\n      tag_617\n      tag_360\n      jump\t// in\n    tag_617:\n        /* \"#utility.yul\":20268:20387   */\n    tag_616:\n        /* \"#utility.yul\":20426:20427   */\n      0x00\n        /* \"#utility.yul\":20451:20504   */\n      tag_618\n        /* \"#utility.yul\":20496:20503   */\n      dup6\n        /* \"#utility.yul\":20487:20493   */\n      dup3\n        /* \"#utility.yul\":20476:20485   */\n      dup7\n        /* \"#utility.yul\":20472:20494   */\n      add\n        /* \"#utility.yul\":20451:20504   */\n      tag_370\n      jump\t// in\n    tag_618:\n        /* \"#utility.yul\":20441:20504   */\n      swap3\n      pop\n        /* \"#utility.yul\":20397:20514   */\n      pop\n        /* \"#utility.yul\":20553:20555   */\n      0x20\n        /* \"#utility.yul\":20579:20631   */\n      tag_619\n        /* \"#utility.yul\":20623:20630   */\n      dup6\n        /* \"#utility.yul\":20614:20620   */\n      dup3\n        /* \"#utility.yul\":20603:20612   */\n      dup7\n        /* \"#utility.yul\":20599:20621   */\n      add\n        /* \"#utility.yul\":20579:20631   */\n      tag_377\n      jump\t// in\n    tag_619:\n        /* \"#utility.yul\":20569:20631   */\n      swap2\n      pop\n        /* \"#utility.yul\":20524:20641   */\n      pop\n        /* \"#utility.yul\":20176:20648   */\n      swap3\n      pop\n      swap3\n      swap1\n      pop\n      jump\t// out\n        /* \"#utility.yul\":20654:20834   */\n    tag_92:\n        /* \"#utility.yul\":20702:20779   */\n      0x4e487b7100000000000000000000000000000000000000000000000000000000\n        /* \"#utility.yul\":20699:20700   */\n      0x00\n        /* \"#utility.yul\":20692:20780   */\n      mstore\n        /* \"#utility.yul\":20799:20803   */\n      0x12\n        /* \"#utility.yul\":20796:20797   */\n      0x04\n        /* \"#utility.yul\":20789:20804   */\n      mstore\n        /* \"#utility.yul\":20823:20827   */\n      0x24\n        /* \"#utility.yul\":20820:20821   */\n      0x00\n        /* \"#utility.yul\":20813:20828   */\n      revert\n        /* \"#utility.yul\":20840:20919   */\n    tag_396:\n        /* \"#utility.yul\":20879:20886   */\n      0x00\n        /* \"#utility.yul\":20908:20913   */\n      dup2\n        /* \"#utility.yul\":20897:20913   */\n      swap1\n      pop\n        /* \"#utility.yul\":20840:20919   */\n      swap2\n      swap1\n      pop\n      jump\t// out\n        /* \"#utility.yul\":20925:21082   */\n    tag_397:\n        /* \"#utility.yul\":21030:21075   */\n      tag_623\n        /* \"#utility.yul\":21050:21074   */\n      tag_624\n        /* \"#utility.yul\":21068:21073   */\n      dup3\n        /* \"#utility.yul\":21050:21074   */\n      tag_368\n      jump\t// in\n    tag_624:\n        /* \"#utility.yul\":21030:21075   */\n      tag_396\n      jump\t// in\n    tag_623:\n        /* \"#utility.yul\":21025:21028   */\n      dup3\n        /* \"#utility.yul\":21018:21076   */\n      mstore\n        /* \"#utility.yul\":20925:21082   */\n      pop\n      pop\n      jump\t// out\n        /* \"#utility.yul\":21088:21626   */\n    tag_112:\n        /* \"#utility.yul\":21256:21259   */\n      0x00\n        /* \"#utility.yul\":21271:21346   */\n      tag_626\n        /* \"#utility.yul\":21342:21345   */\n      dup3\n        /* \"#utility.yul\":21333:21339   */\n      dup7\n        /* \"#utility.yul\":21271:21346   */\n      tag_397\n      jump\t// in\n    tag_626:\n        /* \"#utility.yul\":21371:21373   */\n      0x20\n        /* \"#utility.yul\":21366:21369   */\n      dup3\n        /* \"#utility.yul\":21362:21374   */\n      add\n        /* \"#utility.yul\":21355:21374   */\n      swap2\n      pop\n        /* \"#utility.yul\":21384:21459   */\n      tag_627\n        /* \"#utility.yul\":21455:21458   */\n      dup3\n        /* \"#utility.yul\":21446:21452   */\n      dup6\n        /* \"#utility.yul\":21384:21459   */\n      tag_397\n      jump\t// in\n    tag_627:\n        /* \"#utility.yul\":21484:21486   */\n      0x20\n        /* \"#utility.yul\":21479:21482   */\n      dup3\n        /* \"#utility.yul\":21475:21487   */\n      add\n        /* \"#utility.yul\":21468:21487   */\n      swap2\n      pop\n        /* \"#utility.yul\":21497:21572   */\n      tag_628\n        /* \"#utility.yul\":21568:21571   */\n      dup3\n        /* \"#utility.yul\":21559:21565   */\n      dup5\n        /* \"#utility.yul\":21497:21572   */\n      tag_397\n      jump\t// in\n    tag_628:\n        /* \"#utility.yul\":21597:21599   */\n      0x20\n        /* \"#utility.yul\":21592:21595   */\n      dup3\n        /* \"#utility.yul\":21588:21600   */\n      add\n        /* \"#utility.yul\":21581:21600   */\n      swap2\n      pop\n        /* \"#utility.yul\":21617:21620   */\n      dup2\n        /* \"#utility.yul\":21610:21620   */\n      swap1\n      pop\n        /* \"#utility.yul\":21088:21626   */\n      swap5\n      swap4\n      pop\n      pop\n      pop\n      pop\n      jump\t// out\n        /* \"#utility.yul\":21632:21758   */\n    tag_398:\n        /* \"#utility.yul\":21727:21751   */\n      tag_630\n        /* \"#utility.yul\":21745:21750   */\n      dup2\n        /* \"#utility.yul\":21727:21751   */\n      tag_368\n      jump\t// in\n    tag_630:\n        /* \"#utility.yul\":21722:21725   */\n      dup3\n        /* \"#utility.yul\":21715:21752   */\n      mstore\n        /* \"#utility.yul\":21632:21758   */\n      pop\n      pop\n      jump\t// out\n        /* \"#utility.yul\":21764:22120   */\n    tag_114:\n        /* \"#utility.yul\":21893:21897   */\n      0x00\n        /* \"#utility.yul\":21931:21933   */\n      0x40\n        /* \"#utility.yul\":21920:21929   */\n      dup3\n        /* \"#utility.yul\":21916:21934   */\n      add\n        /* \"#utility.yul\":21908:21934   */\n      swap1\n      pop\n        /* \"#utility.yul\":21944:22023   */\n      tag_632\n        /* \"#utility.yul\":22020:22021   */\n      0x00\n        /* \"#utility.yul\":22009:22018   */\n      dup4\n        /* \"#utility.yul\":22005:22022   */\n      add\n        /* \"#utility.yul\":21996:22002   */\n      dup6\n        /* \"#utility.yul\":21944:22023   */\n      tag_398\n      jump\t// in\n    tag_632:\n        /* \"#utility.yul\":22033:22113   */\n      tag_633\n        /* \"#utility.yul\":22109:22111   */\n      0x20\n        /* \"#utility.yul\":22098:22107   */\n      dup4\n        /* \"#utility.yul\":22094:22112   */\n      add\n        /* \"#utility.yul\":22085:22091   */\n      dup5\n        /* \"#utility.yul\":22033:22113   */\n      tag_398\n      jump\t// in\n    tag_633:\n        /* \"#utility.yul\":21764:22120   */\n      swap4\n      swap3\n      pop\n      pop\n      pop\n      jump\t// out\n        /* \"#utility.yul\":22126:22269   */\n    tag_399:\n        /* \"#utility.yul\":22183:22188   */\n      0x00\n        /* \"#utility.yul\":22214:22220   */\n      dup2\n        /* \"#utility.yul\":22208:22221   */\n      mload\n        /* \"#utility.yul\":22199:22221   */\n      swap1\n      pop\n        /* \"#utility.yul\":22230:22263   */\n      tag_635\n        /* \"#utility.yul\":22257:22262   */\n      dup2\n        /* \"#utility.yul\":22230:22263   */\n      tag_369\n      jump\t// in\n    tag_635:\n        /* \"#utility.yul\":22126:22269   */\n      swap3\n      swap2\n      pop\n      pop\n      jump\t// out\n        /* \"#utility.yul\":22275:22626   */\n    tag_118:\n        /* \"#utility.yul\":22345:22351   */\n      0x00\n        /* \"#utility.yul\":22394:22396   */\n      0x20\n        /* \"#utility.yul\":22382:22391   */\n      dup3\n        /* \"#utility.yul\":22373:22380   */\n      dup5\n        /* \"#utility.yul\":22369:22392   */\n      sub\n        /* \"#utility.yul\":22365:22397   */\n      slt\n        /* \"#utility.yul\":22362:22481   */\n      iszero\n      tag_637\n      jumpi\n        /* \"#utility.yul\":22400:22479   */\n      tag_638\n      tag_360\n      jump\t// in\n    tag_638:\n        /* \"#utility.yul\":22362:22481   */\n    tag_637:\n        /* \"#utility.yul\":22520:22521   */\n      0x00\n        /* \"#utility.yul\":22545:22609   */\n      tag_639\n        /* \"#utility.yul\":22601:22608   */\n      dup5\n        /* \"#utility.yul\":22592:22598   */\n      dup3\n        /* \"#utility.yul\":22581:22590   */\n      dup6\n        /* \"#utility.yul\":22577:22599   */\n      add\n        /* \"#utility.yul\":22545:22609   */\n      tag_399\n      jump\t// in\n    tag_639:\n        /* \"#utility.yul\":22535:22609   */\n      swap2\n      pop\n        /* \"#utility.yul\":22491:22619   */\n      pop\n        /* \"#utility.yul\":22275:22626   */\n      swap3\n      swap2\n      pop\n      pop\n      jump\t// out\n        /* \"#utility.yul\":22632:22812   */\n    tag_400:\n        /* \"#utility.yul\":22680:22757   */\n      0x4e487b7100000000000000000000000000000000000000000000000000000000\n        /* \"#utility.yul\":22677:22678   */\n      0x00\n        /* \"#utility.yul\":22670:22758   */\n      mstore\n        /* \"#utility.yul\":22777:22781   */\n      0x11\n        /* \"#utility.yul\":22774:22775   */\n      0x04\n        /* \"#utility.yul\":22767:22782   */\n      mstore\n        /* \"#utility.yul\":22801:22805   */\n      0x24\n        /* \"#utility.yul\":22798:22799   */\n      0x00\n        /* \"#utility.yul\":22791:22806   */\n      revert\n        /* \"#utility.yul\":22818:23190   */\n    tag_126:\n        /* \"#utility.yul\":22857:22861   */\n      0x00\n        /* \"#utility.yul\":22877:22896   */\n      tag_642\n        /* \"#utility.yul\":22894:22895   */\n      dup3\n        /* \"#utility.yul\":22877:22896   */\n      tag_375\n      jump\t// in\n    tag_642:\n        /* \"#utility.yul\":22872:22896   */\n      swap2\n      pop\n        /* \"#utility.yul\":22910:22929   */\n      tag_643\n        /* \"#utility.yul\":22927:22928   */\n      dup4\n        /* \"#utility.yul\":22910:22929   */\n      tag_375\n      jump\t// in\n    tag_643:\n        /* \"#utility.yul\":22905:22929   */\n      swap3\n      pop\n        /* \"#utility.yul\":22953:22954   */\n      dup3\n        /* \"#utility.yul\":22950:22951   */\n      dup3\n        /* \"#utility.yul\":22946:22955   */\n      sub\n        /* \"#utility.yul\":22938:22955   */\n      swap1\n      pop\n        /* \"#utility.yul\":23147:23148   */\n      dup2\n        /* \"#utility.yul\":23141:23145   */\n      dup2\n        /* \"#utility.yul\":23137:23149   */\n      slt\n        /* \"#utility.yul\":23133:23134   */\n      0x00\n        /* \"#utility.yul\":23130:23131   */\n      dup5\n        /* \"#utility.yul\":23126:23135   */\n      slt\n        /* \"#utility.yul\":23122:23150   */\n      and\n        /* \"#utility.yul\":23105:23106   */\n      dup3\n        /* \"#utility.yul\":23099:23103   */\n      dup3\n        /* \"#utility.yul\":23095:23107   */\n      sgt\n        /* \"#utility.yul\":23090:23091   */\n      0x00\n        /* \"#utility.yul\":23087:23088   */\n      dup6\n        /* \"#utility.yul\":23083:23092   */\n      slt\n        /* \"#utility.yul\":23076:23093   */\n      iszero\n        /* \"#utility.yul\":23072:23108   */\n      and\n        /* \"#utility.yul\":23056:23160   */\n      or\n        /* \"#utility.yul\":23053:23183   */\n      iszero\n      tag_644\n      jumpi\n        /* \"#utility.yul\":23163:23181   */\n      tag_645\n      tag_400\n      jump\t// in\n    tag_645:\n        /* \"#utility.yul\":23053:23183   */\n    tag_644:\n        /* \"#utility.yul\":22818:23190   */\n      swap3\n      swap2\n      pop\n      pop\n      jump\t// out\n        /* \"#utility.yul\":23196:23376   */\n    tag_130:\n        /* \"#utility.yul\":23244:23321   */\n      0x4e487b7100000000000000000000000000000000000000000000000000000000\n        /* \"#utility.yul\":23241:23242   */\n      0x00\n        /* \"#utility.yul\":23234:23322   */\n      mstore\n        /* \"#utility.yul\":23341:23345   */\n      0x01\n        /* \"#utility.yul\":23338:23339   */\n      0x04\n        /* \"#utility.yul\":23331:23346   */\n      mstore\n        /* \"#utility.yul\":23365:23369   */\n      0x24\n        /* \"#utility.yul\":23362:23363   */\n      0x00\n        /* \"#utility.yul\":23355:23370   */\n      revert\n        /* \"#utility.yul\":23382:23562   */\n    tag_150:\n        /* \"#utility.yul\":23430:23507   */\n      0x4e487b7100000000000000000000000000000000000000000000000000000000\n        /* \"#utility.yul\":23427:23428   */\n      0x00\n        /* \"#utility.yul\":23420:23508   */\n      mstore\n        /* \"#utility.yul\":23527:23531   */\n      0x32\n        /* \"#utility.yul\":23524:23525   */\n      0x04\n        /* \"#utility.yul\":23517:23532   */\n      mstore\n        /* \"#utility.yul\":23551:23555   */\n      0x24\n        /* \"#utility.yul\":23548:23549   */\n      0x00\n        /* \"#utility.yul\":23541:23556   */\n      revert\n        /* \"#utility.yul\":23568:24124   */\n    tag_152:\n        /* \"#utility.yul\":23607:23614   */\n      0x00\n        /* \"#utility.yul\":23630:23649   */\n      tag_649\n        /* \"#utility.yul\":23647:23648   */\n      dup3\n        /* \"#utility.yul\":23630:23649   */\n      tag_375\n      jump\t// in\n    tag_649:\n        /* \"#utility.yul\":23625:23649   */\n      swap2\n      pop\n        /* \"#utility.yul\":23663:23682   */\n      tag_650\n        /* \"#utility.yul\":23680:23681   */\n      dup4\n        /* \"#utility.yul\":23663:23682   */\n      tag_375\n      jump\t// in\n    tag_650:\n        /* \"#utility.yul\":23658:23682   */\n      swap3\n      pop\n        /* \"#utility.yul\":23717:23718   */\n      dup3\n        /* \"#utility.yul\":23714:23715   */\n      dup3\n        /* \"#utility.yul\":23710:23719   */\n      mul\n        /* \"#utility.yul\":23739:23768   */\n      tag_651\n        /* \"#utility.yul\":23756:23767   */\n      dup2\n        /* \"#utility.yul\":23739:23768   */\n      tag_375\n      jump\t// in\n    tag_651:\n        /* \"#utility.yul\":23728:23768   */\n      swap2\n      pop\n        /* \"#utility.yul\":23826:23892   */\n      0x8000000000000000000000000000000000000000000000000000000000000000\n        /* \"#utility.yul\":23823:23824   */\n      dup5\n        /* \"#utility.yul\":23820:23893   */\n      eq\n        /* \"#utility.yul\":23816:23817   */\n      0x00\n        /* \"#utility.yul\":23813:23814   */\n      dup5\n        /* \"#utility.yul\":23809:23818   */\n      slt\n        /* \"#utility.yul\":23805:23894   */\n      and\n        /* \"#utility.yul\":23802:23917   */\n      iszero\n      tag_652\n      jumpi\n        /* \"#utility.yul\":23897:23915   */\n      tag_653\n      tag_400\n      jump\t// in\n    tag_653:\n        /* \"#utility.yul\":23802:23917   */\n    tag_652:\n        /* \"#utility.yul\":24067:24068   */\n      dup3\n        /* \"#utility.yul\":24058:24065   */\n      dup3\n        /* \"#utility.yul\":24053:24069   */\n      sdiv\n        /* \"#utility.yul\":24050:24051   */\n      dup5\n        /* \"#utility.yul\":24047:24070   */\n      eq\n        /* \"#utility.yul\":24027:24028   */\n      dup4\n        /* \"#utility.yul\":24020:24029   */\n      iszero\n        /* \"#utility.yul\":24000:24084   */\n      or\n        /* \"#utility.yul\":23977:24117   */\n      tag_654\n      jumpi\n        /* \"#utility.yul\":24097:24115   */\n      tag_655\n      tag_400\n      jump\t// in\n    tag_655:\n        /* \"#utility.yul\":23977:24117   */\n    tag_654:\n        /* \"#utility.yul\":23615:24124   */\n      pop\n        /* \"#utility.yul\":23568:24124   */\n      swap3\n      swap2\n      pop\n      pop\n      jump\t// out\n        /* \"#utility.yul\":24130:24232   */\n    tag_401:\n        /* \"#utility.yul\":24172:24180   */\n      0x00\n        /* \"#utility.yul\":24219:24224   */\n      dup2\n        /* \"#utility.yul\":24216:24217   */\n      0x01\n        /* \"#utility.yul\":24212:24225   */\n      shr\n        /* \"#utility.yul\":24191:24225   */\n      swap1\n      pop\n        /* \"#utility.yul\":24130:24232   */\n      swap2\n      swap1\n      pop\n      jump\t// out\n        /* \"#utility.yul\":24238:25086   */\n    tag_402:\n        /* \"#utility.yul\":24299:24304   */\n      0x00\n        /* \"#utility.yul\":24306:24310   */\n      dup1\n        /* \"#utility.yul\":24330:24336   */\n      dup3\n        /* \"#utility.yul\":24321:24336   */\n      swap2\n      pop\n        /* \"#utility.yul\":24354:24359   */\n      dup4\n        /* \"#utility.yul\":24345:24359   */\n      swap1\n      pop\n        /* \"#utility.yul\":24368:25080   */\n    tag_658:\n        /* \"#utility.yul\":24389:24390   */\n      0x01\n        /* \"#utility.yul\":24379:24387   */\n      dup6\n        /* \"#utility.yul\":24376:24391   */\n      gt\n        /* \"#utility.yul\":24368:25080   */\n      iszero\n      tag_660\n      jumpi\n        /* \"#utility.yul\":24484:24488   */\n      dup1\n        /* \"#utility.yul\":24479:24482   */\n      dup7\n        /* \"#utility.yul\":24475:24489   */\n      div\n        /* \"#utility.yul\":24469:24473   */\n      dup2\n        /* \"#utility.yul\":24466:24490   */\n      gt\n        /* \"#utility.yul\":24463:24513   */\n      iszero\n      tag_661\n      jumpi\n        /* \"#utility.yul\":24493:24511   */\n      tag_662\n      tag_400\n      jump\t// in\n    tag_662:\n        /* \"#utility.yul\":24463:24513   */\n    tag_661:\n        /* \"#utility.yul\":24543:24544   */\n      0x01\n        /* \"#utility.yul\":24533:24541   */\n      dup6\n        /* \"#utility.yul\":24529:24545   */\n      and\n        /* \"#utility.yul\":24526:24977   */\n      iszero\n      tag_663\n      jumpi\n        /* \"#utility.yul\":24958:24962   */\n      dup1\n        /* \"#utility.yul\":24951:24956   */\n      dup3\n        /* \"#utility.yul\":24947:24963   */\n      mul\n        /* \"#utility.yul\":24938:24963   */\n      swap2\n      pop\n        /* \"#utility.yul\":24526:24977   */\n    tag_663:\n        /* \"#utility.yul\":25008:25012   */\n      dup1\n        /* \"#utility.yul\":25002:25006   */\n      dup2\n        /* \"#utility.yul\":24998:25013   */\n      mul\n        /* \"#utility.yul\":24990:25013   */\n      swap1\n      pop\n        /* \"#utility.yul\":25038:25070   */\n      tag_664\n        /* \"#utility.yul\":25061:25069   */\n      dup6\n        /* \"#utility.yul\":25038:25070   */\n      tag_401\n      jump\t// in\n    tag_664:\n        /* \"#utility.yul\":25026:25070   */\n      swap5\n      pop\n        /* \"#utility.yul\":24368:25080   */\n      jump(tag_658)\n    tag_660:\n        /* \"#utility.yul\":24238:25086   */\n      swap5\n      pop\n      swap5\n      swap3\n      pop\n      pop\n      pop\n      jump\t// out\n        /* \"#utility.yul\":25092:26317   */\n    tag_403:\n        /* \"#utility.yul\":25149:25154   */\n      0x00\n        /* \"#utility.yul\":25315:25323   */\n      dup3\n        /* \"#utility.yul\":25337:25338   */\n      0x00\n        /* \"#utility.yul\":25332:25359   */\n      dup2\n      eq\n      tag_667\n      jumpi\n        /* \"#utility.yul\":25373:25374   */\n      0x01\n        /* \"#utility.yul\":25368:25398   */\n      dup2\n      eq\n      tag_668\n      jumpi\n        /* \"#utility.yul\":25308:25398   */\n      jump(tag_666)\n        /* \"#utility.yul\":25332:25359   */\n    tag_667:\n        /* \"#utility.yul\":25350:25351   */\n      0x01\n        /* \"#utility.yul\":25341:25351   */\n      swap2\n      pop\n        /* \"#utility.yul\":25352:25357   */\n      pop\n      jump(tag_665)\n        /* \"#utility.yul\":25368:25398   */\n    tag_668:\n        /* \"#utility.yul\":25386:25390   */\n      dup3\n        /* \"#utility.yul\":25377:25390   */\n      swap2\n      pop\n        /* \"#utility.yul\":25391:25396   */\n      pop\n      jump(tag_665)\n        /* \"#utility.yul\":25308:25398   */\n    tag_666:\n      pop\n        /* \"#utility.yul\":25417:25421   */\n      dup2\n        /* \"#utility.yul\":25407:25443   */\n      tag_669\n      jumpi\n        /* \"#utility.yul\":25434:25435   */\n      0x00\n        /* \"#utility.yul\":25425:25435   */\n      swap1\n      pop\n        /* \"#utility.yul\":25436:25441   */\n      jump(tag_665)\n        /* \"#utility.yul\":25407:25443   */\n    tag_669:\n        /* \"#utility.yul\":25462:25463   */\n      0x01\n        /* \"#utility.yul\":25453:25463   */\n      swap1\n      pop\n        /* \"#utility.yul\":25685:25686   */\n      0x00\n        /* \"#utility.yul\":25679:25683   */\n      dup3\n        /* \"#utility.yul\":25675:25687   */\n      sgt\n        /* \"#utility.yul\":25701:25702   */\n      0x01\n        /* \"#utility.yul\":25696:25757   */\n      dup2\n      eq\n      tag_671\n      jumpi\n        /* \"#utility.yul\":25771:25772   */\n      0x00\n        /* \"#utility.yul\":25766:25829   */\n      dup2\n      eq\n      tag_672\n      jumpi\n        /* \"#utility.yul\":25668:25829   */\n      jump(tag_670)\n        /* \"#utility.yul\":25696:25757   */\n    tag_671:\n        /* \"#utility.yul\":25726:25730   */\n      dup3\n        /* \"#utility.yul\":25721:25724   */\n      dup7\n        /* \"#utility.yul\":25717:25731   */\n      div\n        /* \"#utility.yul\":25711:25715   */\n      dup4\n        /* \"#utility.yul\":25708:25732   */\n      gt\n        /* \"#utility.yul\":25705:25755   */\n      iszero\n      tag_673\n      jumpi\n        /* \"#utility.yul\":25735:25753   */\n      tag_674\n      tag_400\n      jump\t// in\n    tag_674:\n        /* \"#utility.yul\":25705:25755   */\n    tag_673:\n        /* \"#utility.yul\":25696:25757   */\n      jump(tag_670)\n        /* \"#utility.yul\":25766:25829   */\n    tag_672:\n        /* \"#utility.yul\":25798:25802   */\n      dup3\n        /* \"#utility.yul\":25793:25796   */\n      dup7\n        /* \"#utility.yul\":25788:25803   */\n      sdiv\n        /* \"#utility.yul\":25782:25786   */\n      dup4\n        /* \"#utility.yul\":25778:25804   */\n      slt\n        /* \"#utility.yul\":25775:25827   */\n      iszero\n      tag_675\n      jumpi\n        /* \"#utility.yul\":25807:25825   */\n      tag_676\n      tag_400\n      jump\t// in\n    tag_676:\n        /* \"#utility.yul\":25775:25827   */\n    tag_675:\n        /* \"#utility.yul\":25668:25829   */\n    tag_670:\n      pop\n        /* \"#utility.yul\":25855:25856   */\n      0x01\n        /* \"#utility.yul\":25845:25853   */\n      dup4\n        /* \"#utility.yul\":25841:25857   */\n      and\n        /* \"#utility.yul\":25838:25903   */\n      iszero\n      tag_677\n      jumpi\n        /* \"#utility.yul\":25889:25893   */\n      dup2\n        /* \"#utility.yul\":25880:25893   */\n      swap1\n      pop\n        /* \"#utility.yul\":25838:25903   */\n    tag_677:\n        /* \"#utility.yul\":25930:25934   */\n      dup2\n        /* \"#utility.yul\":25924:25928   */\n      dup3\n        /* \"#utility.yul\":25920:25935   */\n      mul\n        /* \"#utility.yul\":25912:25935   */\n      swap2\n      pop\n        /* \"#utility.yul\":25956:25988   */\n      tag_678\n        /* \"#utility.yul\":25979:25987   */\n      dup4\n        /* \"#utility.yul\":25956:25988   */\n      tag_401\n      jump\t// in\n    tag_678:\n        /* \"#utility.yul\":25944:25988   */\n      swap3\n      pop\n        /* \"#utility.yul\":26068:26114   */\n      tag_679\n        /* \"#utility.yul\":26110:26113   */\n      dup6\n        /* \"#utility.yul\":26100:26108   */\n      dup5\n        /* \"#utility.yul\":26094:26098   */\n      dup5\n        /* \"#utility.yul\":26087:26092   */\n      dup5\n        /* \"#utility.yul\":26068:26114   */\n      tag_402\n      jump\t// in\n    tag_679:\n        /* \"#utility.yul\":26053:26114   */\n      swap3\n      pop\n      swap1\n      pop\n        /* \"#utility.yul\":26165:26169   */\n      dup2\n        /* \"#utility.yul\":26160:26163   */\n      dup6\n        /* \"#utility.yul\":26156:26170   */\n      div\n        /* \"#utility.yul\":26149:26154   */\n      dup2\n        /* \"#utility.yul\":26146:26171   */\n      gt\n        /* \"#utility.yul\":26142:26143   */\n      0x00\n        /* \"#utility.yul\":26135:26140   */\n      dup3\n        /* \"#utility.yul\":26131:26144   */\n      sgt\n        /* \"#utility.yul\":26127:26172   */\n      and\n        /* \"#utility.yul\":26124:26195   */\n      iszero\n      tag_680\n      jumpi\n        /* \"#utility.yul\":26175:26193   */\n      tag_681\n      tag_400\n      jump\t// in\n    tag_681:\n        /* \"#utility.yul\":26124:26195   */\n    tag_680:\n        /* \"#utility.yul\":26247:26251   */\n      dup2\n        /* \"#utility.yul\":26242:26245   */\n      dup5\n        /* \"#utility.yul\":26237:26252   */\n      sdiv\n        /* \"#utility.yul\":26230:26235   */\n      dup2\n        /* \"#utility.yul\":26226:26253   */\n      slt\n        /* \"#utility.yul\":26222:26223   */\n      0x00\n        /* \"#utility.yul\":26215:26220   */\n      dup3\n        /* \"#utility.yul\":26211:26224   */\n      slt\n        /* \"#utility.yul\":26207:26254   */\n      and\n        /* \"#utility.yul\":26204:26277   */\n      iszero\n      tag_682\n      jumpi\n        /* \"#utility.yul\":26257:26275   */\n      tag_683\n      tag_400\n      jump\t// in\n    tag_683:\n        /* \"#utility.yul\":26204:26277   */\n    tag_682:\n        /* \"#utility.yul\":26306:26310   */\n      dup2\n        /* \"#utility.yul\":26299:26304   */\n      dup2\n        /* \"#utility.yul\":26295:26311   */\n      mul\n        /* \"#utility.yul\":26286:26311   */\n      swap1\n      pop\n        /* \"#utility.yul\":25092:26317   */\n    tag_665:\n      swap5\n      swap4\n      pop\n      pop\n      pop\n      pop\n      jump\t// out\n        /* \"#utility.yul\":26323:26672   */\n    tag_170:\n        /* \"#utility.yul\":26382:26387   */\n      0x00\n        /* \"#utility.yul\":26406:26428   */\n      tag_685\n        /* \"#utility.yul\":26423:26427   */\n      dup3\n        /* \"#utility.yul\":26406:26428   */\n      tag_375\n      jump\t// in\n    tag_685:\n        /* \"#utility.yul\":26398:26428   */\n      swap2\n      pop\n        /* \"#utility.yul\":26449:26476   */\n      tag_686\n        /* \"#utility.yul\":26467:26475   */\n      dup4\n        /* \"#utility.yul\":26449:26476   */\n      tag_368\n      jump\t// in\n    tag_686:\n        /* \"#utility.yul\":26437:26476   */\n      swap3\n      pop\n        /* \"#utility.yul\":26495:26665   */\n      tag_687\n        /* \"#utility.yul\":26598:26664   */\n      0x7fffffffffffffffffffffffffffffffffffffffffffffffffffffffffffffff\n        /* \"#utility.yul\":26530:26596   */\n      0x8000000000000000000000000000000000000000000000000000000000000000\n        /* \"#utility.yul\":26520:26528   */\n      dup6\n        /* \"#utility.yul\":26514:26518   */\n      dup6\n        /* \"#utility.yul\":26495:26665   */\n      tag_403\n      jump\t// in\n    tag_687:\n        /* \"#utility.yul\":26486:26665   */\n      swap1\n      pop\n        /* \"#utility.yul\":26323:26672   */\n      swap3\n      swap2\n      pop\n      pop\n      jump\t// out\n        /* \"#utility.yul\":26678:26906   */\n    tag_172:\n        /* \"#utility.yul\":26713:26716   */\n      0x00\n        /* \"#utility.yul\":26736:26759   */\n      tag_689\n        /* \"#utility.yul\":26753:26758   */\n      dup3\n        /* \"#utility.yul\":26736:26759   */\n      tag_375\n      jump\t// in\n    tag_689:\n        /* \"#utility.yul\":26727:26759   */\n      swap2\n      pop\n        /* \"#utility.yul\":26781:26847   */\n      0x8000000000000000000000000000000000000000000000000000000000000000\n        /* \"#utility.yul\":26774:26779   */\n      dup3\n        /* \"#utility.yul\":26771:26848   */\n      sub\n        /* \"#utility.yul\":26768:26871   */\n      tag_690\n      jumpi\n        /* \"#utility.yul\":26851:26869   */\n      tag_691\n      tag_400\n      jump\t// in\n    tag_691:\n        /* \"#utility.yul\":26768:26871   */\n    tag_690:\n        /* \"#utility.yul\":26894:26899   */\n      dup2\n        /* \"#utility.yul\":26891:26892   */\n      0x00\n        /* \"#utility.yul\":26887:26900   */\n      sub\n        /* \"#utility.yul\":26880:26900   */\n      swap1\n      pop\n        /* \"#utility.yul\":26678:26906   */\n      swap2\n      swap1\n      pop\n      jump\t// out\n        /* \"#utility.yul\":26912:27168   */\n    tag_243:\n        /* \"#utility.yul\":27024:27027   */\n      0x00\n        /* \"#utility.yul\":27039:27114   */\n      tag_693\n        /* \"#utility.yul\":27110:27113   */\n      dup3\n        /* \"#utility.yul\":27101:27107   */\n      dup5\n        /* \"#utility.yul\":27039:27114   */\n      tag_397\n      jump\t// in\n    tag_693:\n        /* \"#utility.yul\":27139:27141   */\n      0x20\n        /* \"#utility.yul\":27134:27137   */\n      dup3\n        /* \"#utility.yul\":27130:27142   */\n      add\n        /* \"#utility.yul\":27123:27142   */\n      swap2\n      pop\n        /* \"#utility.yul\":27159:27162   */\n      dup2\n        /* \"#utility.yul\":27152:27162   */\n      swap1\n      pop\n        /* \"#utility.yul\":26912:27168   */\n      swap3\n      swap2\n      pop\n      pop\n      jump\t// out\n        /* \"#utility.yul\":27174:27350   */\n    tag_338:\n        /* \"#utility.yul\":27206:27207   */\n      0x00\n        /* \"#utility.yul\":27223:27243   */\n      tag_695\n        /* \"#utility.yul\":27241:27242   */\n      dup3\n        /* \"#utility.yul\":27223:27243   */\n      tag_368\n      jump\t// in\n    tag_695:\n        /* \"#utility.yul\":27218:27243   */\n      swap2\n      pop\n        /* \"#utility.yul\":27257:27277   */\n      tag_696\n        /* \"#utility.yul\":27275:27276   */\n      dup4\n        /* \"#utility.yul\":27257:27277   */\n      tag_368\n      jump\t// in\n    tag_696:\n        /* \"#utility.yul\":27252:27277   */\n      swap3\n      pop\n        /* \"#utility.yul\":27296:27297   */\n      dup3\n        /* \"#utility.yul\":27286:27321   */\n      tag_697\n      jumpi\n        /* \"#utility.yul\":27301:27319   */\n      tag_698\n      tag_92\n      jump\t// in\n    tag_698:\n        /* \"#utility.yul\":27286:27321   */\n    tag_697:\n        /* \"#utility.yul\":27342:27343   */\n      dup3\n        /* \"#utility.yul\":27339:27340   */\n      dup3\n        /* \"#utility.yul\":27335:27344   */\n      mod\n        /* \"#utility.yul\":27330:27344   */\n      swap1\n      pop\n        /* \"#utility.yul\":27174:27350   */\n      swap3\n      swap2\n      pop\n      pop\n      jump\t// out\n        /* \"#utility.yul\":27356:27541   */\n    tag_342:\n        /* \"#utility.yul\":27396:27397   */\n      0x00\n        /* \"#utility.yul\":27413:27433   */\n      tag_700\n        /* \"#utility.yul\":27431:27432   */\n      dup3\n        /* \"#utility.yul\":27413:27433   */\n      tag_368\n      jump\t// in\n    tag_700:\n        /* \"#utility.yul\":27408:27433   */\n      swap2\n      pop\n        /* \"#utility.yul\":27447:27467   */\n      tag_701\n        /* \"#utility.yul\":27465:27466   */\n      dup4\n        /* \"#utility.yul\":27447:27467   */\n      tag_368\n      jump\t// in\n    tag_701:\n        /* \"#utility.yul\":27442:27467   */\n      swap3\n      pop\n        /* \"#utility.yul\":27486:27487   */\n      dup3\n        /* \"#utility.yul\":27476:27511   */\n      tag_702\n      jumpi\n        /* \"#utility.yul\":27491:27509   */\n      tag_703\n      tag_92\n      jump\t// in\n    tag_703:\n        /* \"#utility.yul\":27476:27511   */\n    tag_702:\n        /* \"#utility.yul\":27533:27534   */\n      dup3\n        /* \"#utility.yul\":27530:27531   */\n      dup3\n        /* \"#utility.yul\":27526:27535   */\n      div\n        /* \"#utility.yul\":27521:27535   */\n      swap1\n      pop\n        /* \"#utility.yul\":27356:27541   */\n      swap3\n      swap2\n      pop\n      pop\n      jump\t// out\n        /* \"#utility.yul\":27547:27957   */\n    tag_346:\n        /* \"#utility.yul\":27587:27594   */\n      0x00\n        /* \"#utility.yul\":27610:27630   */\n      tag_705\n        /* \"#utility.yul\":27628:27629   */\n      dup3\n        /* \"#utility.yul\":27610:27630   */\n      tag_368\n      jump\t// in\n    tag_705:\n        /* \"#utility.yul\":27605:27630   */\n      swap2\n      pop\n        /* \"#utility.yul\":27644:27664   */\n      tag_706\n        /* \"#utility.yul\":27662:27663   */\n      dup4\n        /* \"#utility.yul\":27644:27664   */\n      tag_368\n      jump\t// in\n    tag_706:\n        /* \"#utility.yul\":27639:27664   */\n      swap3\n      pop\n        /* \"#utility.yul\":27699:27700   */\n      dup3\n        /* \"#utility.yul\":27696:27697   */\n      dup3\n        /* \"#utility.yul\":27692:27701   */\n      mul\n        /* \"#utility.yul\":27721:27751   */\n      tag_707\n        /* \"#utility.yul\":27739:27750   */\n      dup2\n        /* \"#utility.yul\":27721:27751   */\n      tag_368\n      jump\t// in\n    tag_707:\n        /* \"#utility.yul\":27710:27751   */\n      swap2\n      pop\n        /* \"#utility.yul\":27900:27901   */\n      dup3\n        /* \"#utility.yul\":27891:27898   */\n      dup3\n        /* \"#utility.yul\":27887:27902   */\n      div\n        /* \"#utility.yul\":27884:27885   */\n      dup5\n        /* \"#utility.yul\":27881:27903   */\n      eq\n        /* \"#utility.yul\":27861:27862   */\n      dup4\n        /* \"#utility.yul\":27854:27863   */\n      iszero\n        /* \"#utility.yul\":27834:27917   */\n      or\n        /* \"#utility.yul\":27811:27950   */\n      tag_708\n      jumpi\n        /* \"#utility.yul\":27930:27948   */\n      tag_709\n      tag_400\n      jump\t// in\n    tag_709:\n        /* \"#utility.yul\":27811:27950   */\n    tag_708:\n        /* \"#utility.yul\":27595:27957   */\n      pop\n        /* \"#utility.yul\":27547:27957   */\n      swap3\n      swap2\n      pop\n      pop\n      jump\t// out\n        /* \"#utility.yul\":27963:28157   */\n    tag_348:\n        /* \"#utility.yul\":28003:28007   */\n      0x00\n        /* \"#utility.yul\":28023:28043   */\n      tag_711\n        /* \"#utility.yul\":28041:28042   */\n      dup3\n        /* \"#utility.yul\":28023:28043   */\n      tag_368\n      jump\t// in\n    tag_711:\n        /* \"#utility.yul\":28018:28043   */\n      swap2\n      pop\n        /* \"#utility.yul\":28057:28077   */\n      tag_712\n        /* \"#utility.yul\":28075:28076   */\n      dup4\n        /* \"#utility.yul\":28057:28077   */\n      tag_368\n      jump\t// in\n    tag_712:\n        /* \"#utility.yul\":28052:28077   */\n      swap3\n      pop\n        /* \"#utility.yul\":28101:28102   */\n      dup3\n        /* \"#utility.yul\":28098:28099   */\n      dup3\n        /* \"#utility.yul\":28094:28103   */\n      sub\n        /* \"#utility.yul\":28086:28103   */\n      swap1\n      pop\n        /* \"#utility.yul\":28125:28126   */\n      dup2\n        /* \"#utility.yul\":28119:28123   */\n      dup2\n        /* \"#utility.yul\":28116:28127   */\n      gt\n        /* \"#utility.yul\":28113:28150   */\n      iszero\n      tag_713\n      jumpi\n        /* \"#utility.yul\":28130:28148   */\n      tag_714\n      tag_400\n      jump\t// in\n    tag_714:\n        /* \"#utility.yul\":28113:28150   */\n    tag_713:\n        /* \"#utility.yul\":27963:28157   */\n      swap3\n      swap2\n      pop\n      pop\n      jump\t// out\n\n    auxdata: 0xa26469706673582212207e74345a526fe3081310f448a5ea741edac1c0d437be5e59ef20712480b1e4de64736f6c63430008160033\n}\n",
				"bytecode": {
					"linkReferences": {
						"contracts/SafeMath.sol": {
							"SafeMath": [
								{
									"length": 20,
									"start": 1573
								},
								{
									"length": 20,
									"start": 2496
								},
								{
									"length": 20,
									"start": 3227
								}
							]
						}
					},
					"object": "608060405234801562000010575f80fd5b50604051620021ed380380620021ed833981810160405281019062000036919062000097565b835f819055508260018190555081600281905550806003819055505050505062000106565b5f80fd5b5f819050919050565b62000073816200005f565b81146200007e575f80fd5b50565b5f81519050620000918162000068565b92915050565b5f805f8060808587031215620000b257620000b16200005b565b5b5f620000c18782880162000081565b9450506020620000d48782880162000081565b9350506040620000e78782880162000081565b9250506060620000fa8782880162000081565b91505092959194509250565b6120d980620001145f395ff3fe608060405234801561000f575f80fd5b50600436106100e8575f3560e01c80637e58f9011161008a578063a1991acc11610064578063a1991acc146102b8578063a6806d91146102e8578063ab22520614610318578063b455cb4b14610348576100e8565b80637e58f9011461022857806399977969146102585780639cd479b614610288576100e8565b80631be57fbb116100c65780631be57fbb1461017c578063229436461461019857806322b32dfd146101c857806360c4b7f1146101f8576100e8565b806309f175c1146100ec5780631351df0b1461011c578063156896741461014c575b5f80fd5b6101066004803603810190610101919061127a565b610378565b60405161011391906112bf565b60405180910390f35b610136600480360381019061013191906112d8565b610423565b6040516101439190611325565b60405180910390f35b61016660048036038101906101619190611371565b61046e565b6040516101739190611325565b60405180910390f35b61019660048036038101906101919190611438565b6104ba565b005b6101b260048036038101906101ad91906114ac565b610606565b6040516101bf91906114f9565b60405180910390f35b6101e260048036038101906101dd9190611968565b610619565b6040516101ef91906112bf565b60405180910390f35b610212600480360381019061020d91906112d8565b61080e565b60405161021f9190611325565b60405180910390f35b610242600480360381019061023d91906119f0565b61085a565b60405161024f9190611325565b60405180910390f35b610272600480360381019061026d9190611a37565b61092d565b60405161027f91906112bf565b60405180910390f35b6102a2600480360381019061029d9190611ad3565b6109c6565b6040516102af9190611325565b60405180910390f35b6102d260048036038101906102cd9190611b1a565b610c0d565b6040516102df9190611325565b60405180910390f35b61030260048036038101906102fd91906112d8565b610c2d565b60405161030f9190611325565b60405180910390f35b610332600480360381019061032d91906112d8565b610c4d565b60405161033f9190611325565b60405180910390f35b610362600480360381019061035d9190611b45565b610c6a565b60405161036f9190611325565b60405180910390f35b5f80825f015190505f836020015190505f846040015190505f856060015190505f866080015190505f600254806103b2576103b1611b83565b5b6103cb83600254600154610c8a9092919063ffffffff16565b6103e3856002545f54610c8a9092919063ffffffff16565b0990505f6103fa866103f58988610c2d565b610c4d565b905080820361041357600197505050505050505061041e565b5f9750505050505050505b919050565b5f807fffffffffffffffffffffffffffffffffffffffffffffffffffffffffffffffff90506002548061045957610458611b83565b5b6104638483610c6a565b850991505092915050565b5f600254806104805761047f611b83565b5b61049983600254600154610d9a9092919063ffffffff16565b6104b1856002545f54610d9a9092919063ffffffff16565b09905092915050565b5f815f015190505f826020015190505f836040015190505f846060015190505f856080015190505f8786866040516020016104f793929190611bd0565b604051602081830303815290604052805190602001205f1c73__$438773560da8ebd76b582f48732bda290a$__63f43f523a90916003546040518363ffffffff1660e01b815260040161054b929190611c1b565b602060405180830381865af4158015610566573d5f803e3d5ffd5b505050506040513d601f19601f8201168201806040525081019061058a9190611c56565b90505f610597858561046e565b90505f6105ad6105a78b85610c2d565b89610c4d565b90505f6105ba5f8661046e565b90505f6105db6105d58d8a886105d09190611cae565b610c6a565b8a610c4d565b905082841480156105eb57508082145b6105f8576105f7611cee565b5b505050505050505050505050565b5f60018260ff1684901c16905092915050565b5f80845f015190505f856040015190505f8660a0015190505f865f015190505f8760600151905061064e848a60200151610dda565b5f6106588a6109c6565b90505f819050610674868c60600151868d60200151858e610e35565b61068a868c60800151868d60400151858e610efa565b5f600190505f5b8851811015610775575f600190505f5b8c60ff168160ff1610156107375760016106bb8483610606565b60ff16036106f357878160ff16815181106106d9576106d8611d1b565b5b6020026020010151826106ec9190611d48565b915061072a565b878160ff168151811061070957610708611d1b565b5b60200260200101518561071c9190611cae565b826107279190611d48565b91505b80806001019150506106a1565b50610765836107608c858151811061075257610751611d1b565b5b602002602001015184610c6a565b610c4d565b9250508080600101915050610691565b505f5b8a60ff168110156107d3576107c4826107bf89848151811061079d5761079c611d1b565b5b602002602001015184876107b19190611f04565b6107ba90611f6f565b610c6a565b610c4d565b91508080600101915050610778565b505f6107df5f8661046e565b90508082036107fa5760019950505050505050505050610807565b5f99505050505050505050505b9392505050565b5f600254806108205761081f611b83565b5b61083983600254600154610c8a9092919063ffffffff16565b610851856002545f54610c8a9092919063ffffffff16565b09905092915050565b5f80600190505f5b83518110156108a8576002548061087c5761087b611b83565b5b84828151811061088f5761088e611d1b565b5b6020026020010151830991508080600101915050610862565b508073__$438773560da8ebd76b582f48732bda290a$__63f43f523a90916002546040518363ffffffff1660e01b81526004016108e6929190611c1b565b602060405180830381865af4158015610901573d5f803e3d5ffd5b505050506040513d601f19601f820116820180604052508101906109259190611c56565b915050919050565b5f80845f015190505f5b81518110156109af5761098382828151811061095657610955611d1b565b5b602002602001015161097e61096a8a610fca565b6002545f54610d9a9092919063ffffffff16565b610c4d565b82828151811061099657610995611d1b565b5b6020026020010181815250508080600101915050610937565b506109bb858585610619565b915050949350505050565b5f80825f015190505f836040015190505f846060015190505f856080015190505f8660a0015190505f805b8651811015610a375760025480610a0b57610a0a611b83565b5b878281518110610a1e57610a1d611d1b565b5b60200260200101518308915080806001019150506109f1565b505f5b8551811015610a805760025480610a5457610a53611b83565b5b868281518110610a6757610a66611d1b565b5b6020026020010151830891508080600101915050610a3a565b505f5b8451811015610ac95760025480610a9d57610a9c611b83565b5b858281518110610ab057610aaf611d1b565b5b6020026020010151830891508080600101915050610a83565b505f5b8351811015610b125760025480610ae657610ae5611b83565b5b848281518110610af957610af8611d1b565b5b6020026020010151830891508080600101915050610acc565b505f5b8251811015610b5b5760025480610b2f57610b2e611b83565b5b838281518110610b4257610b41611d1b565b5b6020026020010151830891508080600101915050610b15565b5080604051602001610b6d9190611fb5565b604051602081830303815290604052805190602001205f1c73__$438773560da8ebd76b582f48732bda290a$__63f43f523a90916003546040518363ffffffff1660e01b8152600401610bc1929190611c1b565b602060405180830381865af4158015610bdc573d5f803e3d5ffd5b505050506040513d601f19601f82011682018060405250810190610c009190611c56565b9650505050505050919050565b5f610c26826002545f54610c8a9092919063ffffffff16565b9050919050565b5f610c458260025485610c8a9092919063ffffffff16565b905092915050565b5f60025480610c5f57610c5e611b83565b5b828409905092915050565b5f610c828260025485610d9a9092919063ffffffff16565b905092915050565b5f80610c946110d9565b610c9c6110fb565b6020815f60068110610cb157610cb0611d1b565b5b602002018181525050602081600160068110610cd057610ccf611d1b565b5b602002018181525050602081600260068110610cef57610cee611d1b565b5b6020020181815250508681600360068110610d0d57610d0c611d1b565b5b6020020181815250508581600460068110610d2b57610d2a611d1b565b5b6020020181815250508481600560068110610d4957610d48611d1b565b5b60200201818152505060208260c08360056107d05a03fa9250825f8103610d6c57fe5b5082610d76575f80fd5b815f60018110610d8957610d88611d1b565b5b602002015193505050509392505050565b5f808312610db457610dad848484610c8a565b9050610dd3565b610dd0610dc18584610fdb565b610dca85611094565b84610c8a565b90505b9392505050565b5f5b8251811015610e3057610e23838281518110610dfb57610dfa611d1b565b5b6020026020010151838381518110610e1657610e15611d1b565b5b60200260200101516104ba565b8080600101915050610ddc565b505050565b5f5b8160ff16811015610ef1575f858281518110610e5657610e55611d1b565b5b602002602001015190505f610ea8610e888a8581518110610e7a57610e79611d1b565b5b602002602001015187610c6a565b898581518110610e9b57610e9a611d1b565b5b6020026020010151610c4d565b90505f610ecf83888681518110610ec257610ec1611d1b565b5b602002602001015161046e565b9050808214610ee157610ee0611cee565b5b5050508080600101915050610e37565b50505050505050565b5f5b8160ff16811015610fc1575f858281518110610f1b57610f1a611d1b565b5b602002602001015190505f610f78610f588a8581518110610f3f57610f3e611d1b565b5b60200260200101518488610f539190611cae565b610c6a565b898581518110610f6b57610f6a611d1b565b5b6020026020010151610c4d565b90505f610f9f5f888681518110610f9257610f91611d1b565b5b602002602001015161046e565b9050808214610fb157610fb0611cee565b5b5050508080600101915050610efc565b50505050505050565b5f610fd4826110c7565b9050919050565b5f81831115610ff3578183610ff09190611fcf565b92505b5f80600190505f8490505f8690505f5b5f821461105d5781836110169190611fff565b90508384826110259190611d48565b866110309190611cae565b83848461103d919061202f565b866110489190612070565b80955081965082975083985050505050611003565b5f8512156110855761106e85611094565b876110799190612070565b9550505050505061108e565b84955050505050505b92915050565b5f808213156110a5578190506110c2565b5f8212156110be57816110b790611f6f565b90506110c2565b5f90505b919050565b5f816110d290611f6f565b9050919050565b6040518060200160405280600190602082028036833780820191505090505090565b6040518060c00160405280600690602082028036833780820191505090505090565b5f604051905090565b5f80fd5b5f80fd5b5f80fd5b5f601f19601f8301169050919050565b7f4e487b71000000000000000000000000000000000000000000000000000000005f52604160045260245ffd5b61117882611132565b810181811067ffffffffffffffff8211171561119757611196611142565b5b80604052505050565b5f6111a961111d565b90506111b5828261116f565b919050565b5f80fd5b5f819050919050565b6111d0816111be565b81146111da575f80fd5b50565b5f813590506111eb816111c7565b92915050565b5f60a082840312156112065761120561112e565b5b61121060a06111a0565b90505f61121f848285016111dd565b5f830152506020611232848285016111dd565b6020830152506040611246848285016111dd565b604083015250606061125a848285016111dd565b606083015250608061126e848285016111dd565b60808301525092915050565b5f60a0828403121561128f5761128e611126565b5b5f61129c848285016111f1565b91505092915050565b5f8115159050919050565b6112b9816112a5565b82525050565b5f6020820190506112d25f8301846112b0565b92915050565b5f80604083850312156112ee576112ed611126565b5b5f6112fb858286016111dd565b925050602061130c858286016111dd565b9150509250929050565b61131f816111be565b82525050565b5f6020820190506113385f830184611316565b92915050565b5f819050919050565b6113508161133e565b811461135a575f80fd5b50565b5f8135905061136b81611347565b92915050565b5f806040838503121561138757611386611126565b5b5f6113948582860161135d565b92505060206113a58582860161135d565b9150509250929050565b5f60a082840312156113c4576113c361112e565b5b6113ce60a06111a0565b90505f6113dd848285016111dd565b5f8301525060206113f0848285016111dd565b60208301525060406114048482850161135d565b60408301525060606114188482850161135d565b606083015250608061142c8482850161135d565b60808301525092915050565b5f8060c0838503121561144e5761144d611126565b5b5f61145b858286016111dd565b925050602061146c858286016113af565b9150509250929050565b5f60ff82169050919050565b61148b81611476565b8114611495575f80fd5b50565b5f813590506114a681611482565b92915050565b5f80604083850312156114c2576114c1611126565b5b5f6114cf858286016111dd565b92505060206114e085828601611498565b9150509250929050565b6114f381611476565b82525050565b5f60208201905061150c5f8301846114ea565b92915050565b5f80fd5b5f67ffffffffffffffff8211156115305761152f611142565b5b602082029050602081019050919050565b5f80fd5b5f61155761155284611516565b6111a0565b9050808382526020820190506020840283018581111561157a57611579611541565b5b835b818110156115a3578061158f88826111dd565b84526020840193505060208101905061157c565b5050509392505050565b5f82601f8301126115c1576115c0611512565b5b81356115d1848260208601611545565b91505092915050565b5f67ffffffffffffffff8211156115f4576115f3611142565b5b602082029050602081019050919050565b5f611617611612846115da565b6111a0565b90508083825260208201905060a0840283018581111561163a57611639611541565b5b835b81811015611663578061164f88826113af565b84526020840193505060a08101905061163c565b5050509392505050565b5f82601f83011261168157611680611512565b5b8135611691848260208601611605565b91505092915050565b5f60c082840312156116af576116ae61112e565b5b6116b960c06111a0565b90505f82013567ffffffffffffffff8111156116d8576116d76111ba565b5b6116e4848285016115ad565b5f83015250602082013567ffffffffffffffff811115611707576117066111ba565b5b6117138482850161166d565b602083015250604082013567ffffffffffffffff811115611737576117366111ba565b5b611743848285016115ad565b604083015250606082013567ffffffffffffffff811115611767576117666111ba565b5b611773848285016115ad565b606083015250608082013567ffffffffffffffff811115611797576117966111ba565b5b6117a3848285016115ad565b60808301525060a082013567ffffffffffffffff8111156117c7576117c66111ba565b5b6117d3848285016115ad565b60a08301525092915050565b5f67ffffffffffffffff8211156117f9576117f8611142565b5b602082029050602081019050919050565b5f61181c611817846117df565b6111a0565b9050808382526020820190506020840283018581111561183f5761183e611541565b5b835b818110156118685780611854888261135d565b845260208401935050602081019050611841565b5050509392505050565b5f82601f83011261188657611885611512565b5b813561189684826020860161180a565b91505092915050565b5f608082840312156118b4576118b361112e565b5b6118be60806111a0565b90505f82013567ffffffffffffffff8111156118dd576118dc6111ba565b5b6118e984828501611872565b5f83015250602082013567ffffffffffffffff81111561190c5761190b6111ba565b5b61191884828501611872565b602083015250604082013567ffffffffffffffff81111561193c5761193b6111ba565b5b61194884828501611872565b604083015250606061195c8482850161135d565b60608301525092915050565b5f805f6060848603121561197f5761197e611126565b5b5f84013567ffffffffffffffff81111561199c5761199b61112a565b5b6119a88682870161169a565b935050602084013567ffffffffffffffff8111156119c9576119c861112a565b5b6119d58682870161189f565b92505060406119e686828701611498565b9150509250925092565b5f60208284031215611a0557611a04611126565b5b5f82013567ffffffffffffffff811115611a2257611a2161112a565b5b611a2e848285016115ad565b91505092915050565b5f805f8060808587031215611a4f57611a4e611126565b5b5f611a5c878288016111dd565b945050602085013567ffffffffffffffff811115611a7d57611a7c61112a565b5b611a898782880161169a565b935050604085013567ffffffffffffffff811115611aaa57611aa961112a565b5b611ab68782880161189f565b9250506060611ac787828801611498565b91505092959194509250565b5f60208284031215611ae857611ae7611126565b5b5f82013567ffffffffffffffff811115611b0557611b0461112a565b5b611b118482850161169a565b91505092915050565b5f60208284031215611b2f57611b2e611126565b5b5f611b3c848285016111dd565b91505092915050565b5f8060408385031215611b5b57611b5a611126565b5b5f611b68858286016111dd565b9250506020611b798582860161135d565b9150509250929050565b7f4e487b71000000000000000000000000000000000000000000000000000000005f52601260045260245ffd5b5f819050919050565b611bca611bc5826111be565b611bb0565b82525050565b5f611bdb8286611bb9565b602082019150611beb8285611bb9565b602082019150611bfb8284611bb9565b602082019150819050949350505050565b611c15816111be565b82525050565b5f604082019050611c2e5f830185611c0c565b611c3b6020830184611c0c565b9392505050565b5f81519050611c50816111c7565b92915050565b5f60208284031215611c6b57611c6a611126565b5b5f611c7884828501611c42565b91505092915050565b7f4e487b71000000000000000000000000000000000000000000000000000000005f52601160045260245ffd5b5f611cb88261133e565b9150611cc38361133e565b925082820390508181125f8412168282135f851215161715611ce857611ce7611c81565b5b92915050565b7f4e487b71000000000000000000000000000000000000000000000000000000005f52600160045260245ffd5b7f4e487b71000000000000000000000000000000000000000000000000000000005f52603260045260245ffd5b5f611d528261133e565b9150611d5d8361133e565b9250828202611d6b8161133e565b91507f800000000000000000000000000000000000000000000000000000000000000084145f84121615611da257611da1611c81565b5b8282058414831517611db757611db6611c81565b5b5092915050565b5f8160011c9050919050565b5f808291508390505b6001851115611e1357808604811115611def57611dee611c81565b5b6001851615611dfe5780820291505b8081029050611e0c85611dbe565b9450611dd3565b94509492505050565b5f825f8114611e325760018114611e3c57611e45565b6001915050611efc565b82915050611efc565b5081611e53575f9050611efc565b600190505f821360018114611e6e575f8114611e8657611e9a565b828604831115611e8157611e80611c81565b5b611e9a565b828605831215611e9957611e98611c81565b5b5b506001831615611ea8578190505b8182029150611eb683611dbe565b9250611ec485848484611dca565b9250905081850481115f82131615611edf57611ede611c81565b5b81840581125f82121615611ef657611ef5611c81565b5b81810290505b949350505050565b5f611f0e8261133e565b9150611f19836111be565b9250611f677f7fffffffffffffffffffffffffffffffffffffffffffffffffffffffffffffff7f80000000000000000000000000000000000000000000000000000000000000008585611e1c565b905092915050565b5f611f798261133e565b91507f80000000000000000000000000000000000000000000000000000000000000008203611fab57611faa611c81565b5b815f039050919050565b5f611fc08284611bb9565b60208201915081905092915050565b5f611fd9826111be565b9150611fe4836111be565b925082611ff457611ff3611b83565b5b828206905092915050565b5f612009826111be565b9150612014836111be565b92508261202457612023611b83565b5b828204905092915050565b5f612039826111be565b9150612044836111be565b9250828202612052816111be565b9150828204841483151761206957612068611c81565b5b5092915050565b5f61207a826111be565b9150612085836111be565b925082820390508181111561209d5761209c611c81565b5b9291505056fea26469706673582212207e74345a526fe3081310f448a5ea741edac1c0d437be5e59ef20712480b1e4de64736f6c63430008160033",
					"opcodes": "PUSH1 0x80 PUSH1 0x40 MSTORE CALLVALUE DUP1 ISZERO PUSH3 0x10 JUMPI PUSH0 DUP1 REVERT JUMPDEST POP PUSH1 0x40 MLOAD PUSH3 0x21ED CODESIZE SUB DUP1 PUSH3 0x21ED DUP4 CODECOPY DUP2 DUP2 ADD PUSH1 0x40 MSTORE DUP2 ADD SWAP1 PUSH3 0x36 SWAP2 SWAP1 PUSH3 0x97 JUMP JUMPDEST DUP4 PUSH0 DUP2 SWAP1 SSTORE POP DUP3 PUSH1 0x1 DUP2 SWAP1 SSTORE POP DUP2 PUSH1 0x2 DUP2 SWAP1 SSTORE POP DUP1 PUSH1 0x3 DUP2 SWAP1 SSTORE POP POP POP POP POP PUSH3 0x106 JUMP JUMPDEST PUSH0 DUP1 REVERT JUMPDEST PUSH0 DUP2 SWAP1 POP SWAP2 SWAP1 POP JUMP JUMPDEST PUSH3 0x73 DUP2 PUSH3 0x5F JUMP JUMPDEST DUP2 EQ PUSH3 0x7E JUMPI PUSH0 DUP1 REVERT JUMPDEST POP JUMP JUMPDEST PUSH0 DUP2 MLOAD SWAP1 POP PUSH3 0x91 DUP2 PUSH3 0x68 JUMP JUMPDEST SWAP3 SWAP2 POP POP JUMP JUMPDEST PUSH0 DUP1 PUSH0 DUP1 PUSH1 0x80 DUP6 DUP8 SUB SLT ISZERO PUSH3 0xB2 JUMPI PUSH3 0xB1 PUSH3 0x5B JUMP JUMPDEST JUMPDEST PUSH0 PUSH3 0xC1 DUP8 DUP3 DUP9 ADD PUSH3 0x81 JUMP JUMPDEST SWAP5 POP POP PUSH1 0x20 PUSH3 0xD4 DUP8 DUP3 DUP9 ADD PUSH3 0x81 JUMP JUMPDEST SWAP4 POP POP PUSH1 0x40 PUSH3 0xE7 DUP8 DUP3 DUP9 ADD PUSH3 0x81 JUMP JUMPDEST SWAP3 POP POP PUSH1 0x60 PUSH3 0xFA DUP8 DUP3 DUP9 ADD PUSH3 0x81 JUMP JUMPDEST SWAP2 POP POP SWAP3 SWAP6 SWAP2 SWAP5 POP SWAP3 POP JUMP JUMPDEST PUSH2 0x20D9 DUP1 PUSH3 0x114 PUSH0 CODECOPY PUSH0 RETURN INVALID PUSH1 0x80 PUSH1 0x40 MSTORE CALLVALUE DUP1 ISZERO PUSH2 0xF JUMPI PUSH0 DUP1 REVERT JUMPDEST POP PUSH1 0x4 CALLDATASIZE LT PUSH2 0xE8 JUMPI PUSH0 CALLDATALOAD PUSH1 0xE0 SHR DUP1 PUSH4 0x7E58F901 GT PUSH2 0x8A JUMPI DUP1 PUSH4 0xA1991ACC GT PUSH2 0x64 JUMPI DUP1 PUSH4 0xA1991ACC EQ PUSH2 0x2B8 JUMPI DUP1 PUSH4 0xA6806D91 EQ PUSH2 0x2E8 JUMPI DUP1 PUSH4 0xAB225206 EQ PUSH2 0x318 JUMPI DUP1 PUSH4 0xB455CB4B EQ PUSH2 0x348 JUMPI PUSH2 0xE8 JUMP JUMPDEST DUP1 PUSH4 0x7E58F901 EQ PUSH2 0x228 JUMPI DUP1 PUSH4 0x99977969 EQ PUSH2 0x258 JUMPI DUP1 PUSH4 0x9CD479B6 EQ PUSH2 0x288 JUMPI PUSH2 0xE8 JUMP JUMPDEST DUP1 PUSH4 0x1BE57FBB GT PUSH2 0xC6 JUMPI DUP1 PUSH4 0x1BE57FBB EQ PUSH2 0x17C JUMPI DUP1 PUSH4 0x22943646 EQ PUSH2 0x198 JUMPI DUP1 PUSH4 0x22B32DFD EQ PUSH2 0x1C8 JUMPI DUP1 PUSH4 0x60C4B7F1 EQ PUSH2 0x1F8 JUMPI PUSH2 0xE8 JUMP JUMPDEST DUP1 PUSH4 0x9F175C1 EQ PUSH2 0xEC JUMPI DUP1 PUSH4 0x1351DF0B EQ PUSH2 0x11C JUMPI DUP1 PUSH4 0x15689674 EQ PUSH2 0x14C JUMPI JUMPDEST PUSH0 DUP1 REVERT JUMPDEST PUSH2 0x106 PUSH1 0x4 DUP1 CALLDATASIZE SUB DUP2 ADD SWAP1 PUSH2 0x101 SWAP2 SWAP1 PUSH2 0x127A JUMP JUMPDEST PUSH2 0x378 JUMP JUMPDEST PUSH1 0x40 MLOAD PUSH2 0x113 SWAP2 SWAP1 PUSH2 0x12BF JUMP JUMPDEST PUSH1 0x40 MLOAD DUP1 SWAP2 SUB SWAP1 RETURN JUMPDEST PUSH2 0x136 PUSH1 0x4 DUP1 CALLDATASIZE SUB DUP2 ADD SWAP1 PUSH2 0x131 SWAP2 SWAP1 PUSH2 0x12D8 JUMP JUMPDEST PUSH2 0x423 JUMP JUMPDEST PUSH1 0x40 MLOAD PUSH2 0x143 SWAP2 SWAP1 PUSH2 0x1325 JUMP JUMPDEST PUSH1 0x40 MLOAD DUP1 SWAP2 SUB SWAP1 RETURN JUMPDEST PUSH2 0x166 PUSH1 0x4 DUP1 CALLDATASIZE SUB DUP2 ADD SWAP1 PUSH2 0x161 SWAP2 SWAP1 PUSH2 0x1371 JUMP JUMPDEST PUSH2 0x46E JUMP JUMPDEST PUSH1 0x40 MLOAD PUSH2 0x173 SWAP2 SWAP1 PUSH2 0x1325 JUMP JUMPDEST PUSH1 0x40 MLOAD DUP1 SWAP2 SUB SWAP1 RETURN JUMPDEST PUSH2 0x196 PUSH1 0x4 DUP1 CALLDATASIZE SUB DUP2 ADD SWAP1 PUSH2 0x191 SWAP2 SWAP1 PUSH2 0x1438 JUMP JUMPDEST PUSH2 0x4BA JUMP JUMPDEST STOP JUMPDEST PUSH2 0x1B2 PUSH1 0x4 DUP1 CALLDATASIZE SUB DUP2 ADD SWAP1 PUSH2 0x1AD SWAP2 SWAP1 PUSH2 0x14AC JUMP JUMPDEST PUSH2 0x606 JUMP JUMPDEST PUSH1 0x40 MLOAD PUSH2 0x1BF SWAP2 SWAP1 PUSH2 0x14F9 JUMP JUMPDEST PUSH1 0x40 MLOAD DUP1 SWAP2 SUB SWAP1 RETURN JUMPDEST PUSH2 0x1E2 PUSH1 0x4 DUP1 CALLDATASIZE SUB DUP2 ADD SWAP1 PUSH2 0x1DD SWAP2 SWAP1 PUSH2 0x1968 JUMP JUMPDEST PUSH2 0x619 JUMP JUMPDEST PUSH1 0x40 MLOAD PUSH2 0x1EF SWAP2 SWAP1 PUSH2 0x12BF JUMP JUMPDEST PUSH1 0x40 MLOAD DUP1 SWAP2 SUB SWAP1 RETURN JUMPDEST PUSH2 0x212 PUSH1 0x4 DUP1 CALLDATASIZE SUB DUP2 ADD SWAP1 PUSH2 0x20D SWAP2 SWAP1 PUSH2 0x12D8 JUMP JUMPDEST PUSH2 0x80E JUMP JUMPDEST PUSH1 0x40 MLOAD PUSH2 0x21F SWAP2 SWAP1 PUSH2 0x1325 JUMP JUMPDEST PUSH1 0x40 MLOAD DUP1 SWAP2 SUB SWAP1 RETURN JUMPDEST PUSH2 0x242 PUSH1 0x4 DUP1 CALLDATASIZE SUB DUP2 ADD SWAP1 PUSH2 0x23D SWAP2 SWAP1 PUSH2 0x19F0 JUMP JUMPDEST PUSH2 0x85A JUMP JUMPDEST PUSH1 0x40 MLOAD PUSH2 0x24F SWAP2 SWAP1 PUSH2 0x1325 JUMP JUMPDEST PUSH1 0x40 MLOAD DUP1 SWAP2 SUB SWAP1 RETURN JUMPDEST PUSH2 0x272 PUSH1 0x4 DUP1 CALLDATASIZE SUB DUP2 ADD SWAP1 PUSH2 0x26D SWAP2 SWAP1 PUSH2 0x1A37 JUMP JUMPDEST PUSH2 0x92D JUMP JUMPDEST PUSH1 0x40 MLOAD PUSH2 0x27F SWAP2 SWAP1 PUSH2 0x12BF JUMP JUMPDEST PUSH1 0x40 MLOAD DUP1 SWAP2 SUB SWAP1 RETURN JUMPDEST PUSH2 0x2A2 PUSH1 0x4 DUP1 CALLDATASIZE SUB DUP2 ADD SWAP1 PUSH2 0x29D SWAP2 SWAP1 PUSH2 0x1AD3 JUMP JUMPDEST PUSH2 0x9C6 JUMP JUMPDEST PUSH1 0x40 MLOAD PUSH2 0x2AF SWAP2 SWAP1 PUSH2 0x1325 JUMP JUMPDEST PUSH1 0x40 MLOAD DUP1 SWAP2 SUB SWAP1 RETURN JUMPDEST PUSH2 0x2D2 PUSH1 0x4 DUP1 CALLDATASIZE SUB DUP2 ADD SWAP1 PUSH2 0x2CD SWAP2 SWAP1 PUSH2 0x1B1A JUMP JUMPDEST PUSH2 0xC0D JUMP JUMPDEST PUSH1 0x40 MLOAD PUSH2 0x2DF SWAP2 SWAP1 PUSH2 0x1325 JUMP JUMPDEST PUSH1 0x40 MLOAD DUP1 SWAP2 SUB SWAP1 RETURN JUMPDEST PUSH2 0x302 PUSH1 0x4 DUP1 CALLDATASIZE SUB DUP2 ADD SWAP1 PUSH2 0x2FD SWAP2 SWAP1 PUSH2 0x12D8 JUMP JUMPDEST PUSH2 0xC2D JUMP JUMPDEST PUSH1 0x40 MLOAD PUSH2 0x30F SWAP2 SWAP1 PUSH2 0x1325 JUMP JUMPDEST PUSH1 0x40 MLOAD DUP1 SWAP2 SUB SWAP1 RETURN JUMPDEST PUSH2 0x332 PUSH1 0x4 DUP1 CALLDATASIZE SUB DUP2 ADD SWAP1 PUSH2 0x32D SWAP2 SWAP1 PUSH2 0x12D8 JUMP JUMPDEST PUSH2 0xC4D JUMP JUMPDEST PUSH1 0x40 MLOAD PUSH2 0x33F SWAP2 SWAP1 PUSH2 0x1325 JUMP JUMPDEST PUSH1 0x40 MLOAD DUP1 SWAP2 SUB SWAP1 RETURN JUMPDEST PUSH2 0x362 PUSH1 0x4 DUP1 CALLDATASIZE SUB DUP2 ADD SWAP1 PUSH2 0x35D SWAP2 SWAP1 PUSH2 0x1B45 JUMP JUMPDEST PUSH2 0xC6A JUMP JUMPDEST PUSH1 0x40 MLOAD PUSH2 0x36F SWAP2 SWAP1 PUSH2 0x1325 JUMP JUMPDEST PUSH1 0x40 MLOAD DUP1 SWAP2 SUB SWAP1 RETURN JUMPDEST PUSH0 DUP1 DUP3 PUSH0 ADD MLOAD SWAP1 POP PUSH0 DUP4 PUSH1 0x20 ADD MLOAD SWAP1 POP PUSH0 DUP5 PUSH1 0x40 ADD MLOAD SWAP1 POP PUSH0 DUP6 PUSH1 0x60 ADD MLOAD SWAP1 POP PUSH0 DUP7 PUSH1 0x80 ADD MLOAD SWAP1 POP PUSH0 PUSH1 0x2 SLOAD DUP1 PUSH2 0x3B2 JUMPI PUSH2 0x3B1 PUSH2 0x1B83 JUMP JUMPDEST JUMPDEST PUSH2 0x3CB DUP4 PUSH1 0x2 SLOAD PUSH1 0x1 SLOAD PUSH2 0xC8A SWAP1 SWAP3 SWAP2 SWAP1 PUSH4 0xFFFFFFFF AND JUMP JUMPDEST PUSH2 0x3E3 DUP6 PUSH1 0x2 SLOAD PUSH0 SLOAD PUSH2 0xC8A SWAP1 SWAP3 SWAP2 SWAP1 PUSH4 0xFFFFFFFF AND JUMP JUMPDEST MULMOD SWAP1 POP PUSH0 PUSH2 0x3FA DUP7 PUSH2 0x3F5 DUP10 DUP9 PUSH2 0xC2D JUMP JUMPDEST PUSH2 0xC4D JUMP JUMPDEST SWAP1 POP DUP1 DUP3 SUB PUSH2 0x413 JUMPI PUSH1 0x1 SWAP8 POP POP POP POP POP POP POP POP PUSH2 0x41E JUMP JUMPDEST PUSH0 SWAP8 POP POP POP POP POP POP POP POP JUMPDEST SWAP2 SWAP1 POP JUMP JUMPDEST PUSH0 DUP1 PUSH32 0xFFFFFFFFFFFFFFFFFFFFFFFFFFFFFFFFFFFFFFFFFFFFFFFFFFFFFFFFFFFFFFFF SWAP1 POP PUSH1 0x2 SLOAD DUP1 PUSH2 0x459 JUMPI PUSH2 0x458 PUSH2 0x1B83 JUMP JUMPDEST JUMPDEST PUSH2 0x463 DUP5 DUP4 PUSH2 0xC6A JUMP JUMPDEST DUP6 MULMOD SWAP2 POP POP SWAP3 SWAP2 POP POP JUMP JUMPDEST PUSH0 PUSH1 0x2 SLOAD DUP1 PUSH2 0x480 JUMPI PUSH2 0x47F PUSH2 0x1B83 JUMP JUMPDEST JUMPDEST PUSH2 0x499 DUP4 PUSH1 0x2 SLOAD PUSH1 0x1 SLOAD PUSH2 0xD9A SWAP1 SWAP3 SWAP2 SWAP1 PUSH4 0xFFFFFFFF AND JUMP JUMPDEST PUSH2 0x4B1 DUP6 PUSH1 0x2 SLOAD PUSH0 SLOAD PUSH2 0xD9A SWAP1 SWAP3 SWAP2 SWAP1 PUSH4 0xFFFFFFFF AND JUMP JUMPDEST MULMOD SWAP1 POP SWAP3 SWAP2 POP POP JUMP JUMPDEST PUSH0 DUP2 PUSH0 ADD MLOAD SWAP1 POP PUSH0 DUP3 PUSH1 0x20 ADD MLOAD SWAP1 POP PUSH0 DUP4 PUSH1 0x40 ADD MLOAD SWAP1 POP PUSH0 DUP5 PUSH1 0x60 ADD MLOAD SWAP1 POP PUSH0 DUP6 PUSH1 0x80 ADD MLOAD SWAP1 POP PUSH0 DUP8 DUP7 DUP7 PUSH1 0x40 MLOAD PUSH1 0x20 ADD PUSH2 0x4F7 SWAP4 SWAP3 SWAP2 SWAP1 PUSH2 0x1BD0 JUMP JUMPDEST PUSH1 0x40 MLOAD PUSH1 0x20 DUP2 DUP4 SUB SUB DUP2 MSTORE SWAP1 PUSH1 0x40 MSTORE DUP1 MLOAD SWAP1 PUSH1 0x20 ADD KECCAK256 PUSH0 SHR PUSH20 0x0 PUSH4 0xF43F523A SWAP1 SWAP2 PUSH1 0x3 SLOAD PUSH1 0x40 MLOAD DUP4 PUSH4 0xFFFFFFFF AND PUSH1 0xE0 SHL DUP2 MSTORE PUSH1 0x4 ADD PUSH2 0x54B SWAP3 SWAP2 SWAP1 PUSH2 0x1C1B JUMP JUMPDEST PUSH1 0x20 PUSH1 0x40 MLOAD DUP1 DUP4 SUB DUP2 DUP7 GAS DELEGATECALL ISZERO DUP1 ISZERO PUSH2 0x566 JUMPI RETURNDATASIZE PUSH0 DUP1 RETURNDATACOPY RETURNDATASIZE PUSH0 REVERT JUMPDEST POP POP POP POP PUSH1 0x40 MLOAD RETURNDATASIZE PUSH1 0x1F NOT PUSH1 0x1F DUP3 ADD AND DUP3 ADD DUP1 PUSH1 0x40 MSTORE POP DUP2 ADD SWAP1 PUSH2 0x58A SWAP2 SWAP1 PUSH2 0x1C56 JUMP JUMPDEST SWAP1 POP PUSH0 PUSH2 0x597 DUP6 DUP6 PUSH2 0x46E JUMP JUMPDEST SWAP1 POP PUSH0 PUSH2 0x5AD PUSH2 0x5A7 DUP12 DUP6 PUSH2 0xC2D JUMP JUMPDEST DUP10 PUSH2 0xC4D JUMP JUMPDEST SWAP1 POP PUSH0 PUSH2 0x5BA PUSH0 DUP7 PUSH2 0x46E JUMP JUMPDEST SWAP1 POP PUSH0 PUSH2 0x5DB PUSH2 0x5D5 DUP14 DUP11 DUP9 PUSH2 0x5D0 SWAP2 SWAP1 PUSH2 0x1CAE JUMP JUMPDEST PUSH2 0xC6A JUMP JUMPDEST DUP11 PUSH2 0xC4D JUMP JUMPDEST SWAP1 POP DUP3 DUP5 EQ DUP1 ISZERO PUSH2 0x5EB JUMPI POP DUP1 DUP3 EQ JUMPDEST PUSH2 0x5F8 JUMPI PUSH2 0x5F7 PUSH2 0x1CEE JUMP JUMPDEST JUMPDEST POP POP POP POP POP POP POP POP POP POP POP POP JUMP JUMPDEST PUSH0 PUSH1 0x1 DUP3 PUSH1 0xFF AND DUP5 SWAP1 SHR AND SWAP1 POP SWAP3 SWAP2 POP POP JUMP JUMPDEST PUSH0 DUP1 DUP5 PUSH0 ADD MLOAD SWAP1 POP PUSH0 DUP6 PUSH1 0x40 ADD MLOAD SWAP1 POP PUSH0 DUP7 PUSH1 0xA0 ADD MLOAD SWAP1 POP PUSH0 DUP7 PUSH0 ADD MLOAD SWAP1 POP PUSH0 DUP8 PUSH1 0x60 ADD MLOAD SWAP1 POP PUSH2 0x64E DUP5 DUP11 PUSH1 0x20 ADD MLOAD PUSH2 0xDDA JUMP JUMPDEST PUSH0 PUSH2 0x658 DUP11 PUSH2 0x9C6 JUMP JUMPDEST SWAP1 POP PUSH0 DUP2 SWAP1 POP PUSH2 0x674 DUP7 DUP13 PUSH1 0x60 ADD MLOAD DUP7 DUP14 PUSH1 0x20 ADD MLOAD DUP6 DUP15 PUSH2 0xE35 JUMP JUMPDEST PUSH2 0x68A DUP7 DUP13 PUSH1 0x80 ADD MLOAD DUP7 DUP14 PUSH1 0x40 ADD MLOAD DUP6 DUP15 PUSH2 0xEFA JUMP JUMPDEST PUSH0 PUSH1 0x1 SWAP1 POP PUSH0 JUMPDEST DUP9 MLOAD DUP2 LT ISZERO PUSH2 0x775 JUMPI PUSH0 PUSH1 0x1 SWAP1 POP PUSH0 JUMPDEST DUP13 PUSH1 0xFF AND DUP2 PUSH1 0xFF AND LT ISZERO PUSH2 0x737 JUMPI PUSH1 0x1 PUSH2 0x6BB DUP5 DUP4 PUSH2 0x606 JUMP JUMPDEST PUSH1 0xFF AND SUB PUSH2 0x6F3 JUMPI DUP8 DUP2 PUSH1 0xFF AND DUP2 MLOAD DUP2 LT PUSH2 0x6D9 JUMPI PUSH2 0x6D8 PUSH2 0x1D1B JUMP JUMPDEST JUMPDEST PUSH1 0x20 MUL PUSH1 0x20 ADD ADD MLOAD DUP3 PUSH2 0x6EC SWAP2 SWAP1 PUSH2 0x1D48 JUMP JUMPDEST SWAP2 POP PUSH2 0x72A JUMP JUMPDEST DUP8 DUP2 PUSH1 0xFF AND DUP2 MLOAD DUP2 LT PUSH2 0x709 JUMPI PUSH2 0x708 PUSH2 0x1D1B JUMP JUMPDEST JUMPDEST PUSH1 0x20 MUL PUSH1 0x20 ADD ADD MLOAD DUP6 PUSH2 0x71C SWAP2 SWAP1 PUSH2 0x1CAE JUMP JUMPDEST DUP3 PUSH2 0x727 SWAP2 SWAP1 PUSH2 0x1D48 JUMP JUMPDEST SWAP2 POP JUMPDEST DUP1 DUP1 PUSH1 0x1 ADD SWAP2 POP POP PUSH2 0x6A1 JUMP JUMPDEST POP PUSH2 0x765 DUP4 PUSH2 0x760 DUP13 DUP6 DUP2 MLOAD DUP2 LT PUSH2 0x752 JUMPI PUSH2 0x751 PUSH2 0x1D1B JUMP JUMPDEST JUMPDEST PUSH1 0x20 MUL PUSH1 0x20 ADD ADD MLOAD DUP5 PUSH2 0xC6A JUMP JUMPDEST PUSH2 0xC4D JUMP JUMPDEST SWAP3 POP POP DUP1 DUP1 PUSH1 0x1 ADD SWAP2 POP POP PUSH2 0x691 JUMP JUMPDEST POP PUSH0 JUMPDEST DUP11 PUSH1 0xFF AND DUP2 LT ISZERO PUSH2 0x7D3 JUMPI PUSH2 0x7C4 DUP3 PUSH2 0x7BF DUP10 DUP5 DUP2 MLOAD DUP2 LT PUSH2 0x79D JUMPI PUSH2 0x79C PUSH2 0x1D1B JUMP JUMPDEST JUMPDEST PUSH1 0x20 MUL PUSH1 0x20 ADD ADD MLOAD DUP5 DUP8 PUSH2 0x7B1 SWAP2 SWAP1 PUSH2 0x1F04 JUMP JUMPDEST PUSH2 0x7BA SWAP1 PUSH2 0x1F6F JUMP JUMPDEST PUSH2 0xC6A JUMP JUMPDEST PUSH2 0xC4D JUMP JUMPDEST SWAP2 POP DUP1 DUP1 PUSH1 0x1 ADD SWAP2 POP POP PUSH2 0x778 JUMP JUMPDEST POP PUSH0 PUSH2 0x7DF PUSH0 DUP7 PUSH2 0x46E JUMP JUMPDEST SWAP1 POP DUP1 DUP3 SUB PUSH2 0x7FA JUMPI PUSH1 0x1 SWAP10 POP POP POP POP POP POP POP POP POP POP PUSH2 0x807 JUMP JUMPDEST PUSH0 SWAP10 POP POP POP POP POP POP POP POP POP POP JUMPDEST SWAP4 SWAP3 POP POP POP JUMP JUMPDEST PUSH0 PUSH1 0x2 SLOAD DUP1 PUSH2 0x820 JUMPI PUSH2 0x81F PUSH2 0x1B83 JUMP JUMPDEST JUMPDEST PUSH2 0x839 DUP4 PUSH1 0x2 SLOAD PUSH1 0x1 SLOAD PUSH2 0xC8A SWAP1 SWAP3 SWAP2 SWAP1 PUSH4 0xFFFFFFFF AND JUMP JUMPDEST PUSH2 0x851 DUP6 PUSH1 0x2 SLOAD PUSH0 SLOAD PUSH2 0xC8A SWAP1 SWAP3 SWAP2 SWAP1 PUSH4 0xFFFFFFFF AND JUMP JUMPDEST MULMOD SWAP1 POP SWAP3 SWAP2 POP POP JUMP JUMPDEST PUSH0 DUP1 PUSH1 0x1 SWAP1 POP PUSH0 JUMPDEST DUP4 MLOAD DUP2 LT ISZERO PUSH2 0x8A8 JUMPI PUSH1 0x2 SLOAD DUP1 PUSH2 0x87C JUMPI PUSH2 0x87B PUSH2 0x1B83 JUMP JUMPDEST JUMPDEST DUP5 DUP3 DUP2 MLOAD DUP2 LT PUSH2 0x88F JUMPI PUSH2 0x88E PUSH2 0x1D1B JUMP JUMPDEST JUMPDEST PUSH1 0x20 MUL PUSH1 0x20 ADD ADD MLOAD DUP4 MULMOD SWAP2 POP DUP1 DUP1 PUSH1 0x1 ADD SWAP2 POP POP PUSH2 0x862 JUMP JUMPDEST POP DUP1 PUSH20 0x0 PUSH4 0xF43F523A SWAP1 SWAP2 PUSH1 0x2 SLOAD PUSH1 0x40 MLOAD DUP4 PUSH4 0xFFFFFFFF AND PUSH1 0xE0 SHL DUP2 MSTORE PUSH1 0x4 ADD PUSH2 0x8E6 SWAP3 SWAP2 SWAP1 PUSH2 0x1C1B JUMP JUMPDEST PUSH1 0x20 PUSH1 0x40 MLOAD DUP1 DUP4 SUB DUP2 DUP7 GAS DELEGATECALL ISZERO DUP1 ISZERO PUSH2 0x901 JUMPI RETURNDATASIZE PUSH0 DUP1 RETURNDATACOPY RETURNDATASIZE PUSH0 REVERT JUMPDEST POP POP POP POP PUSH1 0x40 MLOAD RETURNDATASIZE PUSH1 0x1F NOT PUSH1 0x1F DUP3 ADD AND DUP3 ADD DUP1 PUSH1 0x40 MSTORE POP DUP2 ADD SWAP1 PUSH2 0x925 SWAP2 SWAP1 PUSH2 0x1C56 JUMP JUMPDEST SWAP2 POP POP SWAP2 SWAP1 POP JUMP JUMPDEST PUSH0 DUP1 DUP5 PUSH0 ADD MLOAD SWAP1 POP PUSH0 JUMPDEST DUP2 MLOAD DUP2 LT ISZERO PUSH2 0x9AF JUMPI PUSH2 0x983 DUP3 DUP3 DUP2 MLOAD DUP2 LT PUSH2 0x956 JUMPI PUSH2 0x955 PUSH2 0x1D1B JUMP JUMPDEST JUMPDEST PUSH1 0x20 MUL PUSH1 0x20 ADD ADD MLOAD PUSH2 0x97E PUSH2 0x96A DUP11 PUSH2 0xFCA JUMP JUMPDEST PUSH1 0x2 SLOAD PUSH0 SLOAD PUSH2 0xD9A SWAP1 SWAP3 SWAP2 SWAP1 PUSH4 0xFFFFFFFF AND JUMP JUMPDEST PUSH2 0xC4D JUMP JUMPDEST DUP3 DUP3 DUP2 MLOAD DUP2 LT PUSH2 0x996 JUMPI PUSH2 0x995 PUSH2 0x1D1B JUMP JUMPDEST JUMPDEST PUSH1 0x20 MUL PUSH1 0x20 ADD ADD DUP2 DUP2 MSTORE POP POP DUP1 DUP1 PUSH1 0x1 ADD SWAP2 POP POP PUSH2 0x937 JUMP JUMPDEST POP PUSH2 0x9BB DUP6 DUP6 DUP6 PUSH2 0x619 JUMP JUMPDEST SWAP2 POP POP SWAP5 SWAP4 POP POP POP POP JUMP JUMPDEST PUSH0 DUP1 DUP3 PUSH0 ADD MLOAD SWAP1 POP PUSH0 DUP4 PUSH1 0x40 ADD MLOAD SWAP1 POP PUSH0 DUP5 PUSH1 0x60 ADD MLOAD SWAP1 POP PUSH0 DUP6 PUSH1 0x80 ADD MLOAD SWAP1 POP PUSH0 DUP7 PUSH1 0xA0 ADD MLOAD SWAP1 POP PUSH0 DUP1 JUMPDEST DUP7 MLOAD DUP2 LT ISZERO PUSH2 0xA37 JUMPI PUSH1 0x2 SLOAD DUP1 PUSH2 0xA0B JUMPI PUSH2 0xA0A PUSH2 0x1B83 JUMP JUMPDEST JUMPDEST DUP8 DUP3 DUP2 MLOAD DUP2 LT PUSH2 0xA1E JUMPI PUSH2 0xA1D PUSH2 0x1D1B JUMP JUMPDEST JUMPDEST PUSH1 0x20 MUL PUSH1 0x20 ADD ADD MLOAD DUP4 ADDMOD SWAP2 POP DUP1 DUP1 PUSH1 0x1 ADD SWAP2 POP POP PUSH2 0x9F1 JUMP JUMPDEST POP PUSH0 JUMPDEST DUP6 MLOAD DUP2 LT ISZERO PUSH2 0xA80 JUMPI PUSH1 0x2 SLOAD DUP1 PUSH2 0xA54 JUMPI PUSH2 0xA53 PUSH2 0x1B83 JUMP JUMPDEST JUMPDEST DUP7 DUP3 DUP2 MLOAD DUP2 LT PUSH2 0xA67 JUMPI PUSH2 0xA66 PUSH2 0x1D1B JUMP JUMPDEST JUMPDEST PUSH1 0x20 MUL PUSH1 0x20 ADD ADD MLOAD DUP4 ADDMOD SWAP2 POP DUP1 DUP1 PUSH1 0x1 ADD SWAP2 POP POP PUSH2 0xA3A JUMP JUMPDEST POP PUSH0 JUMPDEST DUP5 MLOAD DUP2 LT ISZERO PUSH2 0xAC9 JUMPI PUSH1 0x2 SLOAD DUP1 PUSH2 0xA9D JUMPI PUSH2 0xA9C PUSH2 0x1B83 JUMP JUMPDEST JUMPDEST DUP6 DUP3 DUP2 MLOAD DUP2 LT PUSH2 0xAB0 JUMPI PUSH2 0xAAF PUSH2 0x1D1B JUMP JUMPDEST JUMPDEST PUSH1 0x20 MUL PUSH1 0x20 ADD ADD MLOAD DUP4 ADDMOD SWAP2 POP DUP1 DUP1 PUSH1 0x1 ADD SWAP2 POP POP PUSH2 0xA83 JUMP JUMPDEST POP PUSH0 JUMPDEST DUP4 MLOAD DUP2 LT ISZERO PUSH2 0xB12 JUMPI PUSH1 0x2 SLOAD DUP1 PUSH2 0xAE6 JUMPI PUSH2 0xAE5 PUSH2 0x1B83 JUMP JUMPDEST JUMPDEST DUP5 DUP3 DUP2 MLOAD DUP2 LT PUSH2 0xAF9 JUMPI PUSH2 0xAF8 PUSH2 0x1D1B JUMP JUMPDEST JUMPDEST PUSH1 0x20 MUL PUSH1 0x20 ADD ADD MLOAD DUP4 ADDMOD SWAP2 POP DUP1 DUP1 PUSH1 0x1 ADD SWAP2 POP POP PUSH2 0xACC JUMP JUMPDEST POP PUSH0 JUMPDEST DUP3 MLOAD DUP2 LT ISZERO PUSH2 0xB5B JUMPI PUSH1 0x2 SLOAD DUP1 PUSH2 0xB2F JUMPI PUSH2 0xB2E PUSH2 0x1B83 JUMP JUMPDEST JUMPDEST DUP4 DUP3 DUP2 MLOAD DUP2 LT PUSH2 0xB42 JUMPI PUSH2 0xB41 PUSH2 0x1D1B JUMP JUMPDEST JUMPDEST PUSH1 0x20 MUL PUSH1 0x20 ADD ADD MLOAD DUP4 ADDMOD SWAP2 POP DUP1 DUP1 PUSH1 0x1 ADD SWAP2 POP POP PUSH2 0xB15 JUMP JUMPDEST POP DUP1 PUSH1 0x40 MLOAD PUSH1 0x20 ADD PUSH2 0xB6D SWAP2 SWAP1 PUSH2 0x1FB5 JUMP JUMPDEST PUSH1 0x40 MLOAD PUSH1 0x20 DUP2 DUP4 SUB SUB DUP2 MSTORE SWAP1 PUSH1 0x40 MSTORE DUP1 MLOAD SWAP1 PUSH1 0x20 ADD KECCAK256 PUSH0 SHR PUSH20 0x0 PUSH4 0xF43F523A SWAP1 SWAP2 PUSH1 0x3 SLOAD PUSH1 0x40 MLOAD DUP4 PUSH4 0xFFFFFFFF AND PUSH1 0xE0 SHL DUP2 MSTORE PUSH1 0x4 ADD PUSH2 0xBC1 SWAP3 SWAP2 SWAP1 PUSH2 0x1C1B JUMP JUMPDEST PUSH1 0x20 PUSH1 0x40 MLOAD DUP1 DUP4 SUB DUP2 DUP7 GAS DELEGATECALL ISZERO DUP1 ISZERO PUSH2 0xBDC JUMPI RETURNDATASIZE PUSH0 DUP1 RETURNDATACOPY RETURNDATASIZE PUSH0 REVERT JUMPDEST POP POP POP POP PUSH1 0x40 MLOAD RETURNDATASIZE PUSH1 0x1F NOT PUSH1 0x1F DUP3 ADD AND DUP3 ADD DUP1 PUSH1 0x40 MSTORE POP DUP2 ADD SWAP1 PUSH2 0xC00 SWAP2 SWAP1 PUSH2 0x1C56 JUMP JUMPDEST SWAP7 POP POP POP POP POP POP POP SWAP2 SWAP1 POP JUMP JUMPDEST PUSH0 PUSH2 0xC26 DUP3 PUSH1 0x2 SLOAD PUSH0 SLOAD PUSH2 0xC8A SWAP1 SWAP3 SWAP2 SWAP1 PUSH4 0xFFFFFFFF AND JUMP JUMPDEST SWAP1 POP SWAP2 SWAP1 POP JUMP JUMPDEST PUSH0 PUSH2 0xC45 DUP3 PUSH1 0x2 SLOAD DUP6 PUSH2 0xC8A SWAP1 SWAP3 SWAP2 SWAP1 PUSH4 0xFFFFFFFF AND JUMP JUMPDEST SWAP1 POP SWAP3 SWAP2 POP POP JUMP JUMPDEST PUSH0 PUSH1 0x2 SLOAD DUP1 PUSH2 0xC5F JUMPI PUSH2 0xC5E PUSH2 0x1B83 JUMP JUMPDEST JUMPDEST DUP3 DUP5 MULMOD SWAP1 POP SWAP3 SWAP2 POP POP JUMP JUMPDEST PUSH0 PUSH2 0xC82 DUP3 PUSH1 0x2 SLOAD DUP6 PUSH2 0xD9A SWAP1 SWAP3 SWAP2 SWAP1 PUSH4 0xFFFFFFFF AND JUMP JUMPDEST SWAP1 POP SWAP3 SWAP2 POP POP JUMP JUMPDEST PUSH0 DUP1 PUSH2 0xC94 PUSH2 0x10D9 JUMP JUMPDEST PUSH2 0xC9C PUSH2 0x10FB JUMP JUMPDEST PUSH1 0x20 DUP2 PUSH0 PUSH1 0x6 DUP2 LT PUSH2 0xCB1 JUMPI PUSH2 0xCB0 PUSH2 0x1D1B JUMP JUMPDEST JUMPDEST PUSH1 0x20 MUL ADD DUP2 DUP2 MSTORE POP POP PUSH1 0x20 DUP2 PUSH1 0x1 PUSH1 0x6 DUP2 LT PUSH2 0xCD0 JUMPI PUSH2 0xCCF PUSH2 0x1D1B JUMP JUMPDEST JUMPDEST PUSH1 0x20 MUL ADD DUP2 DUP2 MSTORE POP POP PUSH1 0x20 DUP2 PUSH1 0x2 PUSH1 0x6 DUP2 LT PUSH2 0xCEF JUMPI PUSH2 0xCEE PUSH2 0x1D1B JUMP JUMPDEST JUMPDEST PUSH1 0x20 MUL ADD DUP2 DUP2 MSTORE POP POP DUP7 DUP2 PUSH1 0x3 PUSH1 0x6 DUP2 LT PUSH2 0xD0D JUMPI PUSH2 0xD0C PUSH2 0x1D1B JUMP JUMPDEST JUMPDEST PUSH1 0x20 MUL ADD DUP2 DUP2 MSTORE POP POP DUP6 DUP2 PUSH1 0x4 PUSH1 0x6 DUP2 LT PUSH2 0xD2B JUMPI PUSH2 0xD2A PUSH2 0x1D1B JUMP JUMPDEST JUMPDEST PUSH1 0x20 MUL ADD DUP2 DUP2 MSTORE POP POP DUP5 DUP2 PUSH1 0x5 PUSH1 0x6 DUP2 LT PUSH2 0xD49 JUMPI PUSH2 0xD48 PUSH2 0x1D1B JUMP JUMPDEST JUMPDEST PUSH1 0x20 MUL ADD DUP2 DUP2 MSTORE POP POP PUSH1 0x20 DUP3 PUSH1 0xC0 DUP4 PUSH1 0x5 PUSH2 0x7D0 GAS SUB STATICCALL SWAP3 POP DUP3 PUSH0 DUP2 SUB PUSH2 0xD6C JUMPI INVALID JUMPDEST POP DUP3 PUSH2 0xD76 JUMPI PUSH0 DUP1 REVERT JUMPDEST DUP2 PUSH0 PUSH1 0x1 DUP2 LT PUSH2 0xD89 JUMPI PUSH2 0xD88 PUSH2 0x1D1B JUMP JUMPDEST JUMPDEST PUSH1 0x20 MUL ADD MLOAD SWAP4 POP POP POP POP SWAP4 SWAP3 POP POP POP JUMP JUMPDEST PUSH0 DUP1 DUP4 SLT PUSH2 0xDB4 JUMPI PUSH2 0xDAD DUP5 DUP5 DUP5 PUSH2 0xC8A JUMP JUMPDEST SWAP1 POP PUSH2 0xDD3 JUMP JUMPDEST PUSH2 0xDD0 PUSH2 0xDC1 DUP6 DUP5 PUSH2 0xFDB JUMP JUMPDEST PUSH2 0xDCA DUP6 PUSH2 0x1094 JUMP JUMPDEST DUP5 PUSH2 0xC8A JUMP JUMPDEST SWAP1 POP JUMPDEST SWAP4 SWAP3 POP POP POP JUMP JUMPDEST PUSH0 JUMPDEST DUP3 MLOAD DUP2 LT ISZERO PUSH2 0xE30 JUMPI PUSH2 0xE23 DUP4 DUP3 DUP2 MLOAD DUP2 LT PUSH2 0xDFB JUMPI PUSH2 0xDFA PUSH2 0x1D1B JUMP JUMPDEST JUMPDEST PUSH1 0x20 MUL PUSH1 0x20 ADD ADD MLOAD DUP4 DUP4 DUP2 MLOAD DUP2 LT PUSH2 0xE16 JUMPI PUSH2 0xE15 PUSH2 0x1D1B JUMP JUMPDEST JUMPDEST PUSH1 0x20 MUL PUSH1 0x20 ADD ADD MLOAD PUSH2 0x4BA JUMP JUMPDEST DUP1 DUP1 PUSH1 0x1 ADD SWAP2 POP POP PUSH2 0xDDC JUMP JUMPDEST POP POP POP JUMP JUMPDEST PUSH0 JUMPDEST DUP2 PUSH1 0xFF AND DUP2 LT ISZERO PUSH2 0xEF1 JUMPI PUSH0 DUP6 DUP3 DUP2 MLOAD DUP2 LT PUSH2 0xE56 JUMPI PUSH2 0xE55 PUSH2 0x1D1B JUMP JUMPDEST JUMPDEST PUSH1 0x20 MUL PUSH1 0x20 ADD ADD MLOAD SWAP1 POP PUSH0 PUSH2 0xEA8 PUSH2 0xE88 DUP11 DUP6 DUP2 MLOAD DUP2 LT PUSH2 0xE7A JUMPI PUSH2 0xE79 PUSH2 0x1D1B JUMP JUMPDEST JUMPDEST PUSH1 0x20 MUL PUSH1 0x20 ADD ADD MLOAD DUP8 PUSH2 0xC6A JUMP JUMPDEST DUP10 DUP6 DUP2 MLOAD DUP2 LT PUSH2 0xE9B JUMPI PUSH2 0xE9A PUSH2 0x1D1B JUMP JUMPDEST JUMPDEST PUSH1 0x20 MUL PUSH1 0x20 ADD ADD MLOAD PUSH2 0xC4D JUMP JUMPDEST SWAP1 POP PUSH0 PUSH2 0xECF DUP4 DUP9 DUP7 DUP2 MLOAD DUP2 LT PUSH2 0xEC2 JUMPI PUSH2 0xEC1 PUSH2 0x1D1B JUMP JUMPDEST JUMPDEST PUSH1 0x20 MUL PUSH1 0x20 ADD ADD MLOAD PUSH2 0x46E JUMP JUMPDEST SWAP1 POP DUP1 DUP3 EQ PUSH2 0xEE1 JUMPI PUSH2 0xEE0 PUSH2 0x1CEE JUMP JUMPDEST JUMPDEST POP POP POP DUP1 DUP1 PUSH1 0x1 ADD SWAP2 POP POP PUSH2 0xE37 JUMP JUMPDEST POP POP POP POP POP POP POP JUMP JUMPDEST PUSH0 JUMPDEST DUP2 PUSH1 0xFF AND DUP2 LT ISZERO PUSH2 0xFC1 JUMPI PUSH0 DUP6 DUP3 DUP2 MLOAD DUP2 LT PUSH2 0xF1B JUMPI PUSH2 0xF1A PUSH2 0x1D1B JUMP JUMPDEST JUMPDEST PUSH1 0x20 MUL PUSH1 0x20 ADD ADD MLOAD SWAP1 POP PUSH0 PUSH2 0xF78 PUSH2 0xF58 DUP11 DUP6 DUP2 MLOAD DUP2 LT PUSH2 0xF3F JUMPI PUSH2 0xF3E PUSH2 0x1D1B JUMP JUMPDEST JUMPDEST PUSH1 0x20 MUL PUSH1 0x20 ADD ADD MLOAD DUP5 DUP9 PUSH2 0xF53 SWAP2 SWAP1 PUSH2 0x1CAE JUMP JUMPDEST PUSH2 0xC6A JUMP JUMPDEST DUP10 DUP6 DUP2 MLOAD DUP2 LT PUSH2 0xF6B JUMPI PUSH2 0xF6A PUSH2 0x1D1B JUMP JUMPDEST JUMPDEST PUSH1 0x20 MUL PUSH1 0x20 ADD ADD MLOAD PUSH2 0xC4D JUMP JUMPDEST SWAP1 POP PUSH0 PUSH2 0xF9F PUSH0 DUP9 DUP7 DUP2 MLOAD DUP2 LT PUSH2 0xF92 JUMPI PUSH2 0xF91 PUSH2 0x1D1B JUMP JUMPDEST JUMPDEST PUSH1 0x20 MUL PUSH1 0x20 ADD ADD MLOAD PUSH2 0x46E JUMP JUMPDEST SWAP1 POP DUP1 DUP3 EQ PUSH2 0xFB1 JUMPI PUSH2 0xFB0 PUSH2 0x1CEE JUMP JUMPDEST JUMPDEST POP POP POP DUP1 DUP1 PUSH1 0x1 ADD SWAP2 POP POP PUSH2 0xEFC JUMP JUMPDEST POP POP POP POP POP POP POP JUMP JUMPDEST PUSH0 PUSH2 0xFD4 DUP3 PUSH2 0x10C7 JUMP JUMPDEST SWAP1 POP SWAP2 SWAP1 POP JUMP JUMPDEST PUSH0 DUP2 DUP4 GT ISZERO PUSH2 0xFF3 JUMPI DUP2 DUP4 PUSH2 0xFF0 SWAP2 SWAP1 PUSH2 0x1FCF JUMP JUMPDEST SWAP3 POP JUMPDEST PUSH0 DUP1 PUSH1 0x1 SWAP1 POP PUSH0 DUP5 SWAP1 POP PUSH0 DUP7 SWAP1 POP PUSH0 JUMPDEST PUSH0 DUP3 EQ PUSH2 0x105D JUMPI DUP2 DUP4 PUSH2 0x1016 SWAP2 SWAP1 PUSH2 0x1FFF JUMP JUMPDEST SWAP1 POP DUP4 DUP5 DUP3 PUSH2 0x1025 SWAP2 SWAP1 PUSH2 0x1D48 JUMP JUMPDEST DUP7 PUSH2 0x1030 SWAP2 SWAP1 PUSH2 0x1CAE JUMP JUMPDEST DUP4 DUP5 DUP5 PUSH2 0x103D SWAP2 SWAP1 PUSH2 0x202F JUMP JUMPDEST DUP7 PUSH2 0x1048 SWAP2 SWAP1 PUSH2 0x2070 JUMP JUMPDEST DUP1 SWAP6 POP DUP2 SWAP7 POP DUP3 SWAP8 POP DUP4 SWAP9 POP POP POP POP POP PUSH2 0x1003 JUMP JUMPDEST PUSH0 DUP6 SLT ISZERO PUSH2 0x1085 JUMPI PUSH2 0x106E DUP6 PUSH2 0x1094 JUMP JUMPDEST DUP8 PUSH2 0x1079 SWAP2 SWAP1 PUSH2 0x2070 JUMP JUMPDEST SWAP6 POP POP POP POP POP POP PUSH2 0x108E JUMP JUMPDEST DUP5 SWAP6 POP POP POP POP POP POP JUMPDEST SWAP3 SWAP2 POP POP JUMP JUMPDEST PUSH0 DUP1 DUP3 SGT ISZERO PUSH2 0x10A5 JUMPI DUP2 SWAP1 POP PUSH2 0x10C2 JUMP JUMPDEST PUSH0 DUP3 SLT ISZERO PUSH2 0x10BE JUMPI DUP2 PUSH2 0x10B7 SWAP1 PUSH2 0x1F6F JUMP JUMPDEST SWAP1 POP PUSH2 0x10C2 JUMP JUMPDEST PUSH0 SWAP1 POP JUMPDEST SWAP2 SWAP1 POP JUMP JUMPDEST PUSH0 DUP2 PUSH2 0x10D2 SWAP1 PUSH2 0x1F6F JUMP JUMPDEST SWAP1 POP SWAP2 SWAP1 POP JUMP JUMPDEST PUSH1 0x40 MLOAD DUP1 PUSH1 0x20 ADD PUSH1 0x40 MSTORE DUP1 PUSH1 0x1 SWAP1 PUSH1 0x20 DUP3 MUL DUP1 CALLDATASIZE DUP4 CALLDATACOPY DUP1 DUP3 ADD SWAP2 POP POP SWAP1 POP POP SWAP1 JUMP JUMPDEST PUSH1 0x40 MLOAD DUP1 PUSH1 0xC0 ADD PUSH1 0x40 MSTORE DUP1 PUSH1 0x6 SWAP1 PUSH1 0x20 DUP3 MUL DUP1 CALLDATASIZE DUP4 CALLDATACOPY DUP1 DUP3 ADD SWAP2 POP POP SWAP1 POP POP SWAP1 JUMP JUMPDEST PUSH0 PUSH1 0x40 MLOAD SWAP1 POP SWAP1 JUMP JUMPDEST PUSH0 DUP1 REVERT JUMPDEST PUSH0 DUP1 REVERT JUMPDEST PUSH0 DUP1 REVERT JUMPDEST PUSH0 PUSH1 0x1F NOT PUSH1 0x1F DUP4 ADD AND SWAP1 POP SWAP2 SWAP1 POP JUMP JUMPDEST PUSH32 0x4E487B7100000000000000000000000000000000000000000000000000000000 PUSH0 MSTORE PUSH1 0x41 PUSH1 0x4 MSTORE PUSH1 0x24 PUSH0 REVERT JUMPDEST PUSH2 0x1178 DUP3 PUSH2 0x1132 JUMP JUMPDEST DUP2 ADD DUP2 DUP2 LT PUSH8 0xFFFFFFFFFFFFFFFF DUP3 GT OR ISZERO PUSH2 0x1197 JUMPI PUSH2 0x1196 PUSH2 0x1142 JUMP JUMPDEST JUMPDEST DUP1 PUSH1 0x40 MSTORE POP POP POP JUMP JUMPDEST PUSH0 PUSH2 0x11A9 PUSH2 0x111D JUMP JUMPDEST SWAP1 POP PUSH2 0x11B5 DUP3 DUP3 PUSH2 0x116F JUMP JUMPDEST SWAP2 SWAP1 POP JUMP JUMPDEST PUSH0 DUP1 REVERT JUMPDEST PUSH0 DUP2 SWAP1 POP SWAP2 SWAP1 POP JUMP JUMPDEST PUSH2 0x11D0 DUP2 PUSH2 0x11BE JUMP JUMPDEST DUP2 EQ PUSH2 0x11DA JUMPI PUSH0 DUP1 REVERT JUMPDEST POP JUMP JUMPDEST PUSH0 DUP2 CALLDATALOAD SWAP1 POP PUSH2 0x11EB DUP2 PUSH2 0x11C7 JUMP JUMPDEST SWAP3 SWAP2 POP POP JUMP JUMPDEST PUSH0 PUSH1 0xA0 DUP3 DUP5 SUB SLT ISZERO PUSH2 0x1206 JUMPI PUSH2 0x1205 PUSH2 0x112E JUMP JUMPDEST JUMPDEST PUSH2 0x1210 PUSH1 0xA0 PUSH2 0x11A0 JUMP JUMPDEST SWAP1 POP PUSH0 PUSH2 0x121F DUP5 DUP3 DUP6 ADD PUSH2 0x11DD JUMP JUMPDEST PUSH0 DUP4 ADD MSTORE POP PUSH1 0x20 PUSH2 0x1232 DUP5 DUP3 DUP6 ADD PUSH2 0x11DD JUMP JUMPDEST PUSH1 0x20 DUP4 ADD MSTORE POP PUSH1 0x40 PUSH2 0x1246 DUP5 DUP3 DUP6 ADD PUSH2 0x11DD JUMP JUMPDEST PUSH1 0x40 DUP4 ADD MSTORE POP PUSH1 0x60 PUSH2 0x125A DUP5 DUP3 DUP6 ADD PUSH2 0x11DD JUMP JUMPDEST PUSH1 0x60 DUP4 ADD MSTORE POP PUSH1 0x80 PUSH2 0x126E DUP5 DUP3 DUP6 ADD PUSH2 0x11DD JUMP JUMPDEST PUSH1 0x80 DUP4 ADD MSTORE POP SWAP3 SWAP2 POP POP JUMP JUMPDEST PUSH0 PUSH1 0xA0 DUP3 DUP5 SUB SLT ISZERO PUSH2 0x128F JUMPI PUSH2 0x128E PUSH2 0x1126 JUMP JUMPDEST JUMPDEST PUSH0 PUSH2 0x129C DUP5 DUP3 DUP6 ADD PUSH2 0x11F1 JUMP JUMPDEST SWAP2 POP POP SWAP3 SWAP2 POP POP JUMP JUMPDEST PUSH0 DUP2 ISZERO ISZERO SWAP1 POP SWAP2 SWAP1 POP JUMP JUMPDEST PUSH2 0x12B9 DUP2 PUSH2 0x12A5 JUMP JUMPDEST DUP3 MSTORE POP POP JUMP JUMPDEST PUSH0 PUSH1 0x20 DUP3 ADD SWAP1 POP PUSH2 0x12D2 PUSH0 DUP4 ADD DUP5 PUSH2 0x12B0 JUMP JUMPDEST SWAP3 SWAP2 POP POP JUMP JUMPDEST PUSH0 DUP1 PUSH1 0x40 DUP4 DUP6 SUB SLT ISZERO PUSH2 0x12EE JUMPI PUSH2 0x12ED PUSH2 0x1126 JUMP JUMPDEST JUMPDEST PUSH0 PUSH2 0x12FB DUP6 DUP3 DUP7 ADD PUSH2 0x11DD JUMP JUMPDEST SWAP3 POP POP PUSH1 0x20 PUSH2 0x130C DUP6 DUP3 DUP7 ADD PUSH2 0x11DD JUMP JUMPDEST SWAP2 POP POP SWAP3 POP SWAP3 SWAP1 POP JUMP JUMPDEST PUSH2 0x131F DUP2 PUSH2 0x11BE JUMP JUMPDEST DUP3 MSTORE POP POP JUMP JUMPDEST PUSH0 PUSH1 0x20 DUP3 ADD SWAP1 POP PUSH2 0x1338 PUSH0 DUP4 ADD DUP5 PUSH2 0x1316 JUMP JUMPDEST SWAP3 SWAP2 POP POP JUMP JUMPDEST PUSH0 DUP2 SWAP1 POP SWAP2 SWAP1 POP JUMP JUMPDEST PUSH2 0x1350 DUP2 PUSH2 0x133E JUMP JUMPDEST DUP2 EQ PUSH2 0x135A JUMPI PUSH0 DUP1 REVERT JUMPDEST POP JUMP JUMPDEST PUSH0 DUP2 CALLDATALOAD SWAP1 POP PUSH2 0x136B DUP2 PUSH2 0x1347 JUMP JUMPDEST SWAP3 SWAP2 POP POP JUMP JUMPDEST PUSH0 DUP1 PUSH1 0x40 DUP4 DUP6 SUB SLT ISZERO PUSH2 0x1387 JUMPI PUSH2 0x1386 PUSH2 0x1126 JUMP JUMPDEST JUMPDEST PUSH0 PUSH2 0x1394 DUP6 DUP3 DUP7 ADD PUSH2 0x135D JUMP JUMPDEST SWAP3 POP POP PUSH1 0x20 PUSH2 0x13A5 DUP6 DUP3 DUP7 ADD PUSH2 0x135D JUMP JUMPDEST SWAP2 POP POP SWAP3 POP SWAP3 SWAP1 POP JUMP JUMPDEST PUSH0 PUSH1 0xA0 DUP3 DUP5 SUB SLT ISZERO PUSH2 0x13C4 JUMPI PUSH2 0x13C3 PUSH2 0x112E JUMP JUMPDEST JUMPDEST PUSH2 0x13CE PUSH1 0xA0 PUSH2 0x11A0 JUMP JUMPDEST SWAP1 POP PUSH0 PUSH2 0x13DD DUP5 DUP3 DUP6 ADD PUSH2 0x11DD JUMP JUMPDEST PUSH0 DUP4 ADD MSTORE POP PUSH1 0x20 PUSH2 0x13F0 DUP5 DUP3 DUP6 ADD PUSH2 0x11DD JUMP JUMPDEST PUSH1 0x20 DUP4 ADD MSTORE POP PUSH1 0x40 PUSH2 0x1404 DUP5 DUP3 DUP6 ADD PUSH2 0x135D JUMP JUMPDEST PUSH1 0x40 DUP4 ADD MSTORE POP PUSH1 0x60 PUSH2 0x1418 DUP5 DUP3 DUP6 ADD PUSH2 0x135D JUMP JUMPDEST PUSH1 0x60 DUP4 ADD MSTORE POP PUSH1 0x80 PUSH2 0x142C DUP5 DUP3 DUP6 ADD PUSH2 0x135D JUMP JUMPDEST PUSH1 0x80 DUP4 ADD MSTORE POP SWAP3 SWAP2 POP POP JUMP JUMPDEST PUSH0 DUP1 PUSH1 0xC0 DUP4 DUP6 SUB SLT ISZERO PUSH2 0x144E JUMPI PUSH2 0x144D PUSH2 0x1126 JUMP JUMPDEST JUMPDEST PUSH0 PUSH2 0x145B DUP6 DUP3 DUP7 ADD PUSH2 0x11DD JUMP JUMPDEST SWAP3 POP POP PUSH1 0x20 PUSH2 0x146C DUP6 DUP3 DUP7 ADD PUSH2 0x13AF JUMP JUMPDEST SWAP2 POP POP SWAP3 POP SWAP3 SWAP1 POP JUMP JUMPDEST PUSH0 PUSH1 0xFF DUP3 AND SWAP1 POP SWAP2 SWAP1 POP JUMP JUMPDEST PUSH2 0x148B DUP2 PUSH2 0x1476 JUMP JUMPDEST DUP2 EQ PUSH2 0x1495 JUMPI PUSH0 DUP1 REVERT JUMPDEST POP JUMP JUMPDEST PUSH0 DUP2 CALLDATALOAD SWAP1 POP PUSH2 0x14A6 DUP2 PUSH2 0x1482 JUMP JUMPDEST SWAP3 SWAP2 POP POP JUMP JUMPDEST PUSH0 DUP1 PUSH1 0x40 DUP4 DUP6 SUB SLT ISZERO PUSH2 0x14C2 JUMPI PUSH2 0x14C1 PUSH2 0x1126 JUMP JUMPDEST JUMPDEST PUSH0 PUSH2 0x14CF DUP6 DUP3 DUP7 ADD PUSH2 0x11DD JUMP JUMPDEST SWAP3 POP POP PUSH1 0x20 PUSH2 0x14E0 DUP6 DUP3 DUP7 ADD PUSH2 0x1498 JUMP JUMPDEST SWAP2 POP POP SWAP3 POP SWAP3 SWAP1 POP JUMP JUMPDEST PUSH2 0x14F3 DUP2 PUSH2 0x1476 JUMP JUMPDEST DUP3 MSTORE POP POP JUMP JUMPDEST PUSH0 PUSH1 0x20 DUP3 ADD SWAP1 POP PUSH2 0x150C PUSH0 DUP4 ADD DUP5 PUSH2 0x14EA JUMP JUMPDEST SWAP3 SWAP2 POP POP JUMP JUMPDEST PUSH0 DUP1 REVERT JUMPDEST PUSH0 PUSH8 0xFFFFFFFFFFFFFFFF DUP3 GT ISZERO PUSH2 0x1530 JUMPI PUSH2 0x152F PUSH2 0x1142 JUMP JUMPDEST JUMPDEST PUSH1 0x20 DUP3 MUL SWAP1 POP PUSH1 0x20 DUP2 ADD SWAP1 POP SWAP2 SWAP1 POP JUMP JUMPDEST PUSH0 DUP1 REVERT JUMPDEST PUSH0 PUSH2 0x1557 PUSH2 0x1552 DUP5 PUSH2 0x1516 JUMP JUMPDEST PUSH2 0x11A0 JUMP JUMPDEST SWAP1 POP DUP1 DUP4 DUP3 MSTORE PUSH1 0x20 DUP3 ADD SWAP1 POP PUSH1 0x20 DUP5 MUL DUP4 ADD DUP6 DUP2 GT ISZERO PUSH2 0x157A JUMPI PUSH2 0x1579 PUSH2 0x1541 JUMP JUMPDEST JUMPDEST DUP4 JUMPDEST DUP2 DUP2 LT ISZERO PUSH2 0x15A3 JUMPI DUP1 PUSH2 0x158F DUP9 DUP3 PUSH2 0x11DD JUMP JUMPDEST DUP5 MSTORE PUSH1 0x20 DUP5 ADD SWAP4 POP POP PUSH1 0x20 DUP2 ADD SWAP1 POP PUSH2 0x157C JUMP JUMPDEST POP POP POP SWAP4 SWAP3 POP POP POP JUMP JUMPDEST PUSH0 DUP3 PUSH1 0x1F DUP4 ADD SLT PUSH2 0x15C1 JUMPI PUSH2 0x15C0 PUSH2 0x1512 JUMP JUMPDEST JUMPDEST DUP2 CALLDATALOAD PUSH2 0x15D1 DUP5 DUP3 PUSH1 0x20 DUP7 ADD PUSH2 0x1545 JUMP JUMPDEST SWAP2 POP POP SWAP3 SWAP2 POP POP JUMP JUMPDEST PUSH0 PUSH8 0xFFFFFFFFFFFFFFFF DUP3 GT ISZERO PUSH2 0x15F4 JUMPI PUSH2 0x15F3 PUSH2 0x1142 JUMP JUMPDEST JUMPDEST PUSH1 0x20 DUP3 MUL SWAP1 POP PUSH1 0x20 DUP2 ADD SWAP1 POP SWAP2 SWAP1 POP JUMP JUMPDEST PUSH0 PUSH2 0x1617 PUSH2 0x1612 DUP5 PUSH2 0x15DA JUMP JUMPDEST PUSH2 0x11A0 JUMP JUMPDEST SWAP1 POP DUP1 DUP4 DUP3 MSTORE PUSH1 0x20 DUP3 ADD SWAP1 POP PUSH1 0xA0 DUP5 MUL DUP4 ADD DUP6 DUP2 GT ISZERO PUSH2 0x163A JUMPI PUSH2 0x1639 PUSH2 0x1541 JUMP JUMPDEST JUMPDEST DUP4 JUMPDEST DUP2 DUP2 LT ISZERO PUSH2 0x1663 JUMPI DUP1 PUSH2 0x164F DUP9 DUP3 PUSH2 0x13AF JUMP JUMPDEST DUP5 MSTORE PUSH1 0x20 DUP5 ADD SWAP4 POP POP PUSH1 0xA0 DUP2 ADD SWAP1 POP PUSH2 0x163C JUMP JUMPDEST POP POP POP SWAP4 SWAP3 POP POP POP JUMP JUMPDEST PUSH0 DUP3 PUSH1 0x1F DUP4 ADD SLT PUSH2 0x1681 JUMPI PUSH2 0x1680 PUSH2 0x1512 JUMP JUMPDEST JUMPDEST DUP2 CALLDATALOAD PUSH2 0x1691 DUP5 DUP3 PUSH1 0x20 DUP7 ADD PUSH2 0x1605 JUMP JUMPDEST SWAP2 POP POP SWAP3 SWAP2 POP POP JUMP JUMPDEST PUSH0 PUSH1 0xC0 DUP3 DUP5 SUB SLT ISZERO PUSH2 0x16AF JUMPI PUSH2 0x16AE PUSH2 0x112E JUMP JUMPDEST JUMPDEST PUSH2 0x16B9 PUSH1 0xC0 PUSH2 0x11A0 JUMP JUMPDEST SWAP1 POP PUSH0 DUP3 ADD CALLDATALOAD PUSH8 0xFFFFFFFFFFFFFFFF DUP2 GT ISZERO PUSH2 0x16D8 JUMPI PUSH2 0x16D7 PUSH2 0x11BA JUMP JUMPDEST JUMPDEST PUSH2 0x16E4 DUP5 DUP3 DUP6 ADD PUSH2 0x15AD JUMP JUMPDEST PUSH0 DUP4 ADD MSTORE POP PUSH1 0x20 DUP3 ADD CALLDATALOAD PUSH8 0xFFFFFFFFFFFFFFFF DUP2 GT ISZERO PUSH2 0x1707 JUMPI PUSH2 0x1706 PUSH2 0x11BA JUMP JUMPDEST JUMPDEST PUSH2 0x1713 DUP5 DUP3 DUP6 ADD PUSH2 0x166D JUMP JUMPDEST PUSH1 0x20 DUP4 ADD MSTORE POP PUSH1 0x40 DUP3 ADD CALLDATALOAD PUSH8 0xFFFFFFFFFFFFFFFF DUP2 GT ISZERO PUSH2 0x1737 JUMPI PUSH2 0x1736 PUSH2 0x11BA JUMP JUMPDEST JUMPDEST PUSH2 0x1743 DUP5 DUP3 DUP6 ADD PUSH2 0x15AD JUMP JUMPDEST PUSH1 0x40 DUP4 ADD MSTORE POP PUSH1 0x60 DUP3 ADD CALLDATALOAD PUSH8 0xFFFFFFFFFFFFFFFF DUP2 GT ISZERO PUSH2 0x1767 JUMPI PUSH2 0x1766 PUSH2 0x11BA JUMP JUMPDEST JUMPDEST PUSH2 0x1773 DUP5 DUP3 DUP6 ADD PUSH2 0x15AD JUMP JUMPDEST PUSH1 0x60 DUP4 ADD MSTORE POP PUSH1 0x80 DUP3 ADD CALLDATALOAD PUSH8 0xFFFFFFFFFFFFFFFF DUP2 GT ISZERO PUSH2 0x1797 JUMPI PUSH2 0x1796 PUSH2 0x11BA JUMP JUMPDEST JUMPDEST PUSH2 0x17A3 DUP5 DUP3 DUP6 ADD PUSH2 0x15AD JUMP JUMPDEST PUSH1 0x80 DUP4 ADD MSTORE POP PUSH1 0xA0 DUP3 ADD CALLDATALOAD PUSH8 0xFFFFFFFFFFFFFFFF DUP2 GT ISZERO PUSH2 0x17C7 JUMPI PUSH2 0x17C6 PUSH2 0x11BA JUMP JUMPDEST JUMPDEST PUSH2 0x17D3 DUP5 DUP3 DUP6 ADD PUSH2 0x15AD JUMP JUMPDEST PUSH1 0xA0 DUP4 ADD MSTORE POP SWAP3 SWAP2 POP POP JUMP JUMPDEST PUSH0 PUSH8 0xFFFFFFFFFFFFFFFF DUP3 GT ISZERO PUSH2 0x17F9 JUMPI PUSH2 0x17F8 PUSH2 0x1142 JUMP JUMPDEST JUMPDEST PUSH1 0x20 DUP3 MUL SWAP1 POP PUSH1 0x20 DUP2 ADD SWAP1 POP SWAP2 SWAP1 POP JUMP JUMPDEST PUSH0 PUSH2 0x181C PUSH2 0x1817 DUP5 PUSH2 0x17DF JUMP JUMPDEST PUSH2 0x11A0 JUMP JUMPDEST SWAP1 POP DUP1 DUP4 DUP3 MSTORE PUSH1 0x20 DUP3 ADD SWAP1 POP PUSH1 0x20 DUP5 MUL DUP4 ADD DUP6 DUP2 GT ISZERO PUSH2 0x183F JUMPI PUSH2 0x183E PUSH2 0x1541 JUMP JUMPDEST JUMPDEST DUP4 JUMPDEST DUP2 DUP2 LT ISZERO PUSH2 0x1868 JUMPI DUP1 PUSH2 0x1854 DUP9 DUP3 PUSH2 0x135D JUMP JUMPDEST DUP5 MSTORE PUSH1 0x20 DUP5 ADD SWAP4 POP POP PUSH1 0x20 DUP2 ADD SWAP1 POP PUSH2 0x1841 JUMP JUMPDEST POP POP POP SWAP4 SWAP3 POP POP POP JUMP JUMPDEST PUSH0 DUP3 PUSH1 0x1F DUP4 ADD SLT PUSH2 0x1886 JUMPI PUSH2 0x1885 PUSH2 0x1512 JUMP JUMPDEST JUMPDEST DUP2 CALLDATALOAD PUSH2 0x1896 DUP5 DUP3 PUSH1 0x20 DUP7 ADD PUSH2 0x180A JUMP JUMPDEST SWAP2 POP POP SWAP3 SWAP2 POP POP JUMP JUMPDEST PUSH0 PUSH1 0x80 DUP3 DUP5 SUB SLT ISZERO PUSH2 0x18B4 JUMPI PUSH2 0x18B3 PUSH2 0x112E JUMP JUMPDEST JUMPDEST PUSH2 0x18BE PUSH1 0x80 PUSH2 0x11A0 JUMP JUMPDEST SWAP1 POP PUSH0 DUP3 ADD CALLDATALOAD PUSH8 0xFFFFFFFFFFFFFFFF DUP2 GT ISZERO PUSH2 0x18DD JUMPI PUSH2 0x18DC PUSH2 0x11BA JUMP JUMPDEST JUMPDEST PUSH2 0x18E9 DUP5 DUP3 DUP6 ADD PUSH2 0x1872 JUMP JUMPDEST PUSH0 DUP4 ADD MSTORE POP PUSH1 0x20 DUP3 ADD CALLDATALOAD PUSH8 0xFFFFFFFFFFFFFFFF DUP2 GT ISZERO PUSH2 0x190C JUMPI PUSH2 0x190B PUSH2 0x11BA JUMP JUMPDEST JUMPDEST PUSH2 0x1918 DUP5 DUP3 DUP6 ADD PUSH2 0x1872 JUMP JUMPDEST PUSH1 0x20 DUP4 ADD MSTORE POP PUSH1 0x40 DUP3 ADD CALLDATALOAD PUSH8 0xFFFFFFFFFFFFFFFF DUP2 GT ISZERO PUSH2 0x193C JUMPI PUSH2 0x193B PUSH2 0x11BA JUMP JUMPDEST JUMPDEST PUSH2 0x1948 DUP5 DUP3 DUP6 ADD PUSH2 0x1872 JUMP JUMPDEST PUSH1 0x40 DUP4 ADD MSTORE POP PUSH1 0x60 PUSH2 0x195C DUP5 DUP3 DUP6 ADD PUSH2 0x135D JUMP JUMPDEST PUSH1 0x60 DUP4 ADD MSTORE POP SWAP3 SWAP2 POP POP JUMP JUMPDEST PUSH0 DUP1 PUSH0 PUSH1 0x60 DUP5 DUP7 SUB SLT ISZERO PUSH2 0x197F JUMPI PUSH2 0x197E PUSH2 0x1126 JUMP JUMPDEST JUMPDEST PUSH0 DUP5 ADD CALLDATALOAD PUSH8 0xFFFFFFFFFFFFFFFF DUP2 GT ISZERO PUSH2 0x199C JUMPI PUSH2 0x199B PUSH2 0x112A JUMP JUMPDEST JUMPDEST PUSH2 0x19A8 DUP7 DUP3 DUP8 ADD PUSH2 0x169A JUMP JUMPDEST SWAP4 POP POP PUSH1 0x20 DUP5 ADD CALLDATALOAD PUSH8 0xFFFFFFFFFFFFFFFF DUP2 GT ISZERO PUSH2 0x19C9 JUMPI PUSH2 0x19C8 PUSH2 0x112A JUMP JUMPDEST JUMPDEST PUSH2 0x19D5 DUP7 DUP3 DUP8 ADD PUSH2 0x189F JUMP JUMPDEST SWAP3 POP POP PUSH1 0x40 PUSH2 0x19E6 DUP7 DUP3 DUP8 ADD PUSH2 0x1498 JUMP JUMPDEST SWAP2 POP POP SWAP3 POP SWAP3 POP SWAP3 JUMP JUMPDEST PUSH0 PUSH1 0x20 DUP3 DUP5 SUB SLT ISZERO PUSH2 0x1A05 JUMPI PUSH2 0x1A04 PUSH2 0x1126 JUMP JUMPDEST JUMPDEST PUSH0 DUP3 ADD CALLDATALOAD PUSH8 0xFFFFFFFFFFFFFFFF DUP2 GT ISZERO PUSH2 0x1A22 JUMPI PUSH2 0x1A21 PUSH2 0x112A JUMP JUMPDEST JUMPDEST PUSH2 0x1A2E DUP5 DUP3 DUP6 ADD PUSH2 0x15AD JUMP JUMPDEST SWAP2 POP POP SWAP3 SWAP2 POP POP JUMP JUMPDEST PUSH0 DUP1 PUSH0 DUP1 PUSH1 0x80 DUP6 DUP8 SUB SLT ISZERO PUSH2 0x1A4F JUMPI PUSH2 0x1A4E PUSH2 0x1126 JUMP JUMPDEST JUMPDEST PUSH0 PUSH2 0x1A5C DUP8 DUP3 DUP9 ADD PUSH2 0x11DD JUMP JUMPDEST SWAP5 POP POP PUSH1 0x20 DUP6 ADD CALLDATALOAD PUSH8 0xFFFFFFFFFFFFFFFF DUP2 GT ISZERO PUSH2 0x1A7D JUMPI PUSH2 0x1A7C PUSH2 0x112A JUMP JUMPDEST JUMPDEST PUSH2 0x1A89 DUP8 DUP3 DUP9 ADD PUSH2 0x169A JUMP JUMPDEST SWAP4 POP POP PUSH1 0x40 DUP6 ADD CALLDATALOAD PUSH8 0xFFFFFFFFFFFFFFFF DUP2 GT ISZERO PUSH2 0x1AAA JUMPI PUSH2 0x1AA9 PUSH2 0x112A JUMP JUMPDEST JUMPDEST PUSH2 0x1AB6 DUP8 DUP3 DUP9 ADD PUSH2 0x189F JUMP JUMPDEST SWAP3 POP POP PUSH1 0x60 PUSH2 0x1AC7 DUP8 DUP3 DUP9 ADD PUSH2 0x1498 JUMP JUMPDEST SWAP2 POP POP SWAP3 SWAP6 SWAP2 SWAP5 POP SWAP3 POP JUMP JUMPDEST PUSH0 PUSH1 0x20 DUP3 DUP5 SUB SLT ISZERO PUSH2 0x1AE8 JUMPI PUSH2 0x1AE7 PUSH2 0x1126 JUMP JUMPDEST JUMPDEST PUSH0 DUP3 ADD CALLDATALOAD PUSH8 0xFFFFFFFFFFFFFFFF DUP2 GT ISZERO PUSH2 0x1B05 JUMPI PUSH2 0x1B04 PUSH2 0x112A JUMP JUMPDEST JUMPDEST PUSH2 0x1B11 DUP5 DUP3 DUP6 ADD PUSH2 0x169A JUMP JUMPDEST SWAP2 POP POP SWAP3 SWAP2 POP POP JUMP JUMPDEST PUSH0 PUSH1 0x20 DUP3 DUP5 SUB SLT ISZERO PUSH2 0x1B2F JUMPI PUSH2 0x1B2E PUSH2 0x1126 JUMP JUMPDEST JUMPDEST PUSH0 PUSH2 0x1B3C DUP5 DUP3 DUP6 ADD PUSH2 0x11DD JUMP JUMPDEST SWAP2 POP POP SWAP3 SWAP2 POP POP JUMP JUMPDEST PUSH0 DUP1 PUSH1 0x40 DUP4 DUP6 SUB SLT ISZERO PUSH2 0x1B5B JUMPI PUSH2 0x1B5A PUSH2 0x1126 JUMP JUMPDEST JUMPDEST PUSH0 PUSH2 0x1B68 DUP6 DUP3 DUP7 ADD PUSH2 0x11DD JUMP JUMPDEST SWAP3 POP POP PUSH1 0x20 PUSH2 0x1B79 DUP6 DUP3 DUP7 ADD PUSH2 0x135D JUMP JUMPDEST SWAP2 POP POP SWAP3 POP SWAP3 SWAP1 POP JUMP JUMPDEST PUSH32 0x4E487B7100000000000000000000000000000000000000000000000000000000 PUSH0 MSTORE PUSH1 0x12 PUSH1 0x4 MSTORE PUSH1 0x24 PUSH0 REVERT JUMPDEST PUSH0 DUP2 SWAP1 POP SWAP2 SWAP1 POP JUMP JUMPDEST PUSH2 0x1BCA PUSH2 0x1BC5 DUP3 PUSH2 0x11BE JUMP JUMPDEST PUSH2 0x1BB0 JUMP JUMPDEST DUP3 MSTORE POP POP JUMP JUMPDEST PUSH0 PUSH2 0x1BDB DUP3 DUP7 PUSH2 0x1BB9 JUMP JUMPDEST PUSH1 0x20 DUP3 ADD SWAP2 POP PUSH2 0x1BEB DUP3 DUP6 PUSH2 0x1BB9 JUMP JUMPDEST PUSH1 0x20 DUP3 ADD SWAP2 POP PUSH2 0x1BFB DUP3 DUP5 PUSH2 0x1BB9 JUMP JUMPDEST PUSH1 0x20 DUP3 ADD SWAP2 POP DUP2 SWAP1 POP SWAP5 SWAP4 POP POP POP POP JUMP JUMPDEST PUSH2 0x1C15 DUP2 PUSH2 0x11BE JUMP JUMPDEST DUP3 MSTORE POP POP JUMP JUMPDEST PUSH0 PUSH1 0x40 DUP3 ADD SWAP1 POP PUSH2 0x1C2E PUSH0 DUP4 ADD DUP6 PUSH2 0x1C0C JUMP JUMPDEST PUSH2 0x1C3B PUSH1 0x20 DUP4 ADD DUP5 PUSH2 0x1C0C JUMP JUMPDEST SWAP4 SWAP3 POP POP POP JUMP JUMPDEST PUSH0 DUP2 MLOAD SWAP1 POP PUSH2 0x1C50 DUP2 PUSH2 0x11C7 JUMP JUMPDEST SWAP3 SWAP2 POP POP JUMP JUMPDEST PUSH0 PUSH1 0x20 DUP3 DUP5 SUB SLT ISZERO PUSH2 0x1C6B JUMPI PUSH2 0x1C6A PUSH2 0x1126 JUMP JUMPDEST JUMPDEST PUSH0 PUSH2 0x1C78 DUP5 DUP3 DUP6 ADD PUSH2 0x1C42 JUMP JUMPDEST SWAP2 POP POP SWAP3 SWAP2 POP POP JUMP JUMPDEST PUSH32 0x4E487B7100000000000000000000000000000000000000000000000000000000 PUSH0 MSTORE PUSH1 0x11 PUSH1 0x4 MSTORE PUSH1 0x24 PUSH0 REVERT JUMPDEST PUSH0 PUSH2 0x1CB8 DUP3 PUSH2 0x133E JUMP JUMPDEST SWAP2 POP PUSH2 0x1CC3 DUP4 PUSH2 0x133E JUMP JUMPDEST SWAP3 POP DUP3 DUP3 SUB SWAP1 POP DUP2 DUP2 SLT PUSH0 DUP5 SLT AND DUP3 DUP3 SGT PUSH0 DUP6 SLT ISZERO AND OR ISZERO PUSH2 0x1CE8 JUMPI PUSH2 0x1CE7 PUSH2 0x1C81 JUMP JUMPDEST JUMPDEST SWAP3 SWAP2 POP POP JUMP JUMPDEST PUSH32 0x4E487B7100000000000000000000000000000000000000000000000000000000 PUSH0 MSTORE PUSH1 0x1 PUSH1 0x4 MSTORE PUSH1 0x24 PUSH0 REVERT JUMPDEST PUSH32 0x4E487B7100000000000000000000000000000000000000000000000000000000 PUSH0 MSTORE PUSH1 0x32 PUSH1 0x4 MSTORE PUSH1 0x24 PUSH0 REVERT JUMPDEST PUSH0 PUSH2 0x1D52 DUP3 PUSH2 0x133E JUMP JUMPDEST SWAP2 POP PUSH2 0x1D5D DUP4 PUSH2 0x133E JUMP JUMPDEST SWAP3 POP DUP3 DUP3 MUL PUSH2 0x1D6B DUP2 PUSH2 0x133E JUMP JUMPDEST SWAP2 POP PUSH32 0x8000000000000000000000000000000000000000000000000000000000000000 DUP5 EQ PUSH0 DUP5 SLT AND ISZERO PUSH2 0x1DA2 JUMPI PUSH2 0x1DA1 PUSH2 0x1C81 JUMP JUMPDEST JUMPDEST DUP3 DUP3 SDIV DUP5 EQ DUP4 ISZERO OR PUSH2 0x1DB7 JUMPI PUSH2 0x1DB6 PUSH2 0x1C81 JUMP JUMPDEST JUMPDEST POP SWAP3 SWAP2 POP POP JUMP JUMPDEST PUSH0 DUP2 PUSH1 0x1 SHR SWAP1 POP SWAP2 SWAP1 POP JUMP JUMPDEST PUSH0 DUP1 DUP3 SWAP2 POP DUP4 SWAP1 POP JUMPDEST PUSH1 0x1 DUP6 GT ISZERO PUSH2 0x1E13 JUMPI DUP1 DUP7 DIV DUP2 GT ISZERO PUSH2 0x1DEF JUMPI PUSH2 0x1DEE PUSH2 0x1C81 JUMP JUMPDEST JUMPDEST PUSH1 0x1 DUP6 AND ISZERO PUSH2 0x1DFE JUMPI DUP1 DUP3 MUL SWAP2 POP JUMPDEST DUP1 DUP2 MUL SWAP1 POP PUSH2 0x1E0C DUP6 PUSH2 0x1DBE JUMP JUMPDEST SWAP5 POP PUSH2 0x1DD3 JUMP JUMPDEST SWAP5 POP SWAP5 SWAP3 POP POP POP JUMP JUMPDEST PUSH0 DUP3 PUSH0 DUP2 EQ PUSH2 0x1E32 JUMPI PUSH1 0x1 DUP2 EQ PUSH2 0x1E3C JUMPI PUSH2 0x1E45 JUMP JUMPDEST PUSH1 0x1 SWAP2 POP POP PUSH2 0x1EFC JUMP JUMPDEST DUP3 SWAP2 POP POP PUSH2 0x1EFC JUMP JUMPDEST POP DUP2 PUSH2 0x1E53 JUMPI PUSH0 SWAP1 POP PUSH2 0x1EFC JUMP JUMPDEST PUSH1 0x1 SWAP1 POP PUSH0 DUP3 SGT PUSH1 0x1 DUP2 EQ PUSH2 0x1E6E JUMPI PUSH0 DUP2 EQ PUSH2 0x1E86 JUMPI PUSH2 0x1E9A JUMP JUMPDEST DUP3 DUP7 DIV DUP4 GT ISZERO PUSH2 0x1E81 JUMPI PUSH2 0x1E80 PUSH2 0x1C81 JUMP JUMPDEST JUMPDEST PUSH2 0x1E9A JUMP JUMPDEST DUP3 DUP7 SDIV DUP4 SLT ISZERO PUSH2 0x1E99 JUMPI PUSH2 0x1E98 PUSH2 0x1C81 JUMP JUMPDEST JUMPDEST JUMPDEST POP PUSH1 0x1 DUP4 AND ISZERO PUSH2 0x1EA8 JUMPI DUP2 SWAP1 POP JUMPDEST DUP2 DUP3 MUL SWAP2 POP PUSH2 0x1EB6 DUP4 PUSH2 0x1DBE JUMP JUMPDEST SWAP3 POP PUSH2 0x1EC4 DUP6 DUP5 DUP5 DUP5 PUSH2 0x1DCA JUMP JUMPDEST SWAP3 POP SWAP1 POP DUP2 DUP6 DIV DUP2 GT PUSH0 DUP3 SGT AND ISZERO PUSH2 0x1EDF JUMPI PUSH2 0x1EDE PUSH2 0x1C81 JUMP JUMPDEST JUMPDEST DUP2 DUP5 SDIV DUP2 SLT PUSH0 DUP3 SLT AND ISZERO PUSH2 0x1EF6 JUMPI PUSH2 0x1EF5 PUSH2 0x1C81 JUMP JUMPDEST JUMPDEST DUP2 DUP2 MUL SWAP1 POP JUMPDEST SWAP5 SWAP4 POP POP POP POP JUMP JUMPDEST PUSH0 PUSH2 0x1F0E DUP3 PUSH2 0x133E JUMP JUMPDEST SWAP2 POP PUSH2 0x1F19 DUP4 PUSH2 0x11BE JUMP JUMPDEST SWAP3 POP PUSH2 0x1F67 PUSH32 0x7FFFFFFFFFFFFFFFFFFFFFFFFFFFFFFFFFFFFFFFFFFFFFFFFFFFFFFFFFFFFFFF PUSH32 0x8000000000000000000000000000000000000000000000000000000000000000 DUP6 DUP6 PUSH2 0x1E1C JUMP JUMPDEST SWAP1 POP SWAP3 SWAP2 POP POP JUMP JUMPDEST PUSH0 PUSH2 0x1F79 DUP3 PUSH2 0x133E JUMP JUMPDEST SWAP2 POP PUSH32 0x8000000000000000000000000000000000000000000000000000000000000000 DUP3 SUB PUSH2 0x1FAB JUMPI PUSH2 0x1FAA PUSH2 0x1C81 JUMP JUMPDEST JUMPDEST DUP2 PUSH0 SUB SWAP1 POP SWAP2 SWAP1 POP JUMP JUMPDEST PUSH0 PUSH2 0x1FC0 DUP3 DUP5 PUSH2 0x1BB9 JUMP JUMPDEST PUSH1 0x20 DUP3 ADD SWAP2 POP DUP2 SWAP1 POP SWAP3 SWAP2 POP POP JUMP JUMPDEST PUSH0 PUSH2 0x1FD9 DUP3 PUSH2 0x11BE JUMP JUMPDEST SWAP2 POP PUSH2 0x1FE4 DUP4 PUSH2 0x11BE JUMP JUMPDEST SWAP3 POP DUP3 PUSH2 0x1FF4 JUMPI PUSH2 0x1FF3 PUSH2 0x1B83 JUMP JUMPDEST JUMPDEST DUP3 DUP3 MOD SWAP1 POP SWAP3 SWAP2 POP POP JUMP JUMPDEST PUSH0 PUSH2 0x2009 DUP3 PUSH2 0x11BE JUMP JUMPDEST SWAP2 POP PUSH2 0x2014 DUP4 PUSH2 0x11BE JUMP JUMPDEST SWAP3 POP DUP3 PUSH2 0x2024 JUMPI PUSH2 0x2023 PUSH2 0x1B83 JUMP JUMPDEST JUMPDEST DUP3 DUP3 DIV SWAP1 POP SWAP3 SWAP2 POP POP JUMP JUMPDEST PUSH0 PUSH2 0x2039 DUP3 PUSH2 0x11BE JUMP JUMPDEST SWAP2 POP PUSH2 0x2044 DUP4 PUSH2 0x11BE JUMP JUMPDEST SWAP3 POP DUP3 DUP3 MUL PUSH2 0x2052 DUP2 PUSH2 0x11BE JUMP JUMPDEST SWAP2 POP DUP3 DUP3 DIV DUP5 EQ DUP4 ISZERO OR PUSH2 0x2069 JUMPI PUSH2 0x2068 PUSH2 0x1C81 JUMP JUMPDEST JUMPDEST POP SWAP3 SWAP2 POP POP JUMP JUMPDEST PUSH0 PUSH2 0x207A DUP3 PUSH2 0x11BE JUMP JUMPDEST SWAP2 POP PUSH2 0x2085 DUP4 PUSH2 0x11BE JUMP JUMPDEST SWAP3 POP DUP3 DUP3 SUB SWAP1 POP DUP2 DUP2 GT ISZERO PUSH2 0x209D JUMPI PUSH2 0x209C PUSH2 0x1C81 JUMP JUMPDEST JUMPDEST SWAP3 SWAP2 POP POP JUMP INVALID LOG2 PUSH5 0x6970667358 0x22 SLT KECCAK256 PUSH31 0x74345A526FE3081310F448A5EA741EDAC1C0D437BE5E59EF20712480B1E4DE PUSH5 0x736F6C6343 STOP ADDMOD AND STOP CALLER "
				},
				"gasEstimates": {
					"creation": {
						"codeDepositCost": "1681800",
						"executionCost": "infinite",
						"totalCost": "infinite"
					},
					"external": {
						"bit(uint256,uint8)": "infinite",
						"commitTo(int256,int256)": "infinite",
						"commitTo(uint256,uint256)": "infinite",
						"commitToWithNoRand(uint256)": "infinite",
						"computeBeta((uint256[],(uint256,uint256,int256,int256,int256)[],uint256[],uint256[],uint256[],uint256[]))": "infinite",
						"homoAdd(uint256,uint256)": "infinite",
						"homoAdd(uint256[])": "infinite",
						"homoMul(uint256,int256)": "infinite",
						"homoMul(uint256,uint256)": "infinite",
						"homoSub(uint256,uint256)": "infinite",
						"verifyZeroOne(uint256,(uint256,uint256,int256,int256,int256))": "infinite",
						"verifyZkpCm((uint256,uint256,uint256,uint256,uint256))": "infinite",
						"verifyZkpOneOfMany((uint256[],(uint256,uint256,int256,int256,int256)[],uint256[],uint256[],uint256[],uint256[]),(int256[],int256[],int256[],int256),uint8)": "infinite",
						"verifyZkpOneOfManyWithX(uint256,(uint256[],(uint256,uint256,int256,int256,int256)[],uint256[],uint256[],uint256[],uint256[]),(int256[],int256[],int256[],int256),uint8)": "infinite"
					},
					"internal": {
						"checkConstraint1(uint256[] memory,uint256[] memory,int256[] memory,int256[] memory,int256,uint8)": "infinite",
						"checkConstraint2(uint256[] memory,uint256[] memory,int256[] memory,int256[] memory,int256,uint8)": "infinite",
						"checkZeroOneZkp(uint256[] memory,struct ZkpZeroOne memory[] memory)": "infinite"
					}
				},
				"methodIdentifiers": {
					"bit(uint256,uint8)": "22943646",
					"commitTo(int256,int256)": "15689674",
					"commitTo(uint256,uint256)": "60c4b7f1",
					"commitToWithNoRand(uint256)": "a1991acc",
					"computeBeta((uint256[],(uint256,uint256,int256,int256,int256)[],uint256[],uint256[],uint256[],uint256[]))": "9cd479b6",
					"homoAdd(uint256,uint256)": "ab225206",
					"homoAdd(uint256[])": "7e58f901",
					"homoMul(uint256,int256)": "b455cb4b",
					"homoMul(uint256,uint256)": "a6806d91",
					"homoSub(uint256,uint256)": "1351df0b",
					"verifyZeroOne(uint256,(uint256,uint256,int256,int256,int256))": "1be57fbb",
					"verifyZkpCm((uint256,uint256,uint256,uint256,uint256))": "09f175c1",
					"verifyZkpOneOfMany((uint256[],(uint256,uint256,int256,int256,int256)[],uint256[],uint256[],uint256[],uint256[]),(int256[],int256[],int256[],int256),uint8)": "22b32dfd",
					"verifyZkpOneOfManyWithX(uint256,(uint256[],(uint256,uint256,int256,int256,int256)[],uint256[],uint256[],uint256[],uint256[]),(int256[],int256[],int256[],int256),uint8)": "99977969"
				}
			},
			"storageLayout": {
				"storage": [
					{
						"astId": 66,
						"contract": "contracts/Pedersen.sol:Pedersen",
						"label": "g",
						"offset": 0,
						"slot": "0",
						"type": "t_uint256"
					},
					{
						"astId": 68,
						"contract": "contracts/Pedersen.sol:Pedersen",
						"label": "h",
						"offset": 0,
						"slot": "1",
						"type": "t_uint256"
					},
					{
						"astId": 70,
						"contract": "contracts/Pedersen.sol:Pedersen",
						"label": "q",
						"offset": 0,
						"slot": "2",
						"type": "t_uint256"
					},
					{
						"astId": 72,
						"contract": "contracts/Pedersen.sol:Pedersen",
						"label": "k",
						"offset": 0,
						"slot": "3",
						"type": "t_uint256"
					}
				],
				"types": {
					"t_uint256": {
						"encoding": "inplace",
						"label": "uint256",
						"numberOfBytes": "32"
					}
				}
			},
			"userdoc": {
				"kind": "user",
				"methods": {},
				"version": 1
			}
		}
	}
}