{
	"contracts/Utils.sol": {
		"Utils": {
			"abi": [
				{
					"inputs": [
						{
							"internalType": "address",
							"name": "target",
							"type": "address"
						},
						{
							"internalType": "address[]",
							"name": "addresses",
							"type": "address[]"
						}
					],
					"name": "addressIsIn",
					"outputs": [
						{
							"internalType": "bool",
							"name": "",
							"type": "bool"
						}
					],
					"stateMutability": "pure",
					"type": "function"
				},
				{
					"inputs": [
						{
							"internalType": "address",
							"name": "target",
							"type": "address"
						},
						{
							"internalType": "address[]",
							"name": "addresses",
							"type": "address[]"
						}
					],
					"name": "getIndexOf",
					"outputs": [
						{
							"internalType": "uint256",
							"name": "",
							"type": "uint256"
						}
					],
					"stateMutability": "pure",
					"type": "function"
				},
				{
					"inputs": [
						{
							"internalType": "int256[]",
							"name": "list",
							"type": "int256[]"
						}
					],
					"name": "sumOf",
					"outputs": [
						{
							"internalType": "int256",
							"name": "",
							"type": "int256"
						}
					],
					"stateMutability": "pure",
					"type": "function"
				}
			],
			"devdoc": {
				"kind": "dev",
				"methods": {},
				"version": 1
			},
			"evm": {
				"assembly": "    /* \"contracts/Utils.sol\":136:1056  library Utils {... */\n  dataSize(sub_0)\n  dataOffset(sub_0)\n  0x0b\n  dup3\n  dup3\n  dup3\n  codecopy\n  dup1\n  mload\n  0x00\n  byte\n  0x73\n  eq\n  tag_1\n  jumpi\n  mstore(0x00, 0x4e487b7100000000000000000000000000000000000000000000000000000000)\n  mstore(0x04, 0x00)\n  revert(0x00, 0x24)\ntag_1:\n  mstore(0x00, address)\n  0x73\n  dup2\n  mstore8\n  dup3\n  dup2\n  return\nstop\n\nsub_0: assembly {\n        /* \"contracts/Utils.sol\":136:1056  library Utils {... */\n      eq(address, deployTimeAddress())\n      mstore(0x40, 0x80)\n      jumpi(tag_1, lt(calldatasize, 0x04))\n      shr(0xe0, calldataload(0x00))\n      dup1\n      0x4dd0b820\n      eq\n      tag_2\n      jumpi\n      dup1\n      0x941dfecc\n      eq\n      tag_3\n      jumpi\n      dup1\n      0xb8053ff7\n      eq\n      tag_4\n      jumpi\n    tag_1:\n      0x00\n      dup1\n      revert\n        /* \"contracts/Utils.sol\":485:813  function getIndexOf(address target, address[] memory addresses)... */\n    tag_2:\n      tag_5\n      0x04\n      dup1\n      calldatasize\n      sub\n      dup2\n      add\n      swap1\n      tag_6\n      swap2\n      swap1\n      tag_7\n      jump\t// in\n    tag_6:\n      tag_8\n      jump\t// in\n    tag_5:\n      mload(0x40)\n      tag_9\n      swap2\n      swap1\n      tag_10\n      jump\t// in\n    tag_9:\n      mload(0x40)\n      dup1\n      swap2\n      sub\n      swap1\n      return\n        /* \"contracts/Utils.sol\":189:479  function addressIsIn(address target, address[] memory addresses)... */\n    tag_3:\n      tag_11\n      0x04\n      dup1\n      calldatasize\n      sub\n      dup2\n      add\n      swap1\n      tag_12\n      swap2\n      swap1\n      tag_7\n      jump\t// in\n    tag_12:\n      tag_13\n      jump\t// in\n    tag_11:\n      mload(0x40)\n      tag_14\n      swap2\n      swap1\n      tag_15\n      jump\t// in\n    tag_14:\n      mload(0x40)\n      dup1\n      swap2\n      sub\n      swap1\n      return\n        /* \"contracts/Utils.sol\":819:1054  function sumOf(int256[] memory list)... */\n    tag_4:\n      tag_16\n      0x04\n      dup1\n      calldatasize\n      sub\n      dup2\n      add\n      swap1\n      tag_17\n      swap2\n      swap1\n      tag_18\n      jump\t// in\n    tag_17:\n      tag_19\n      jump\t// in\n    tag_16:\n      mload(0x40)\n      tag_20\n      swap2\n      swap1\n      tag_21\n      jump\t// in\n    tag_20:\n      mload(0x40)\n      dup1\n      swap2\n      sub\n      swap1\n      return\n        /* \"contracts/Utils.sol\":485:813  function getIndexOf(address target, address[] memory addresses)... */\n    tag_8:\n        /* \"contracts/Utils.sol\":594:598  uint */\n      0x00\n        /* \"contracts/Utils.sol\":614:622  uint idx */\n      dup1\n        /* \"contracts/Utils.sol\":625:626  0 */\n      0x00\n        /* \"contracts/Utils.sol\":614:626  uint idx = 0 */\n      swap1\n      pop\n        /* \"contracts/Utils.sol\":640:646  uint i */\n      0x00\n        /* \"contracts/Utils.sol\":636:786  for(uint i=0;i<addresses.length;i++){... */\n    tag_23:\n        /* \"contracts/Utils.sol\":651:660  addresses */\n      dup4\n        /* \"contracts/Utils.sol\":651:667  addresses.length */\n      mload\n        /* \"contracts/Utils.sol\":649:650  i */\n      dup2\n        /* \"contracts/Utils.sol\":649:667  i<addresses.length */\n      lt\n        /* \"contracts/Utils.sol\":636:786  for(uint i=0;i<addresses.length;i++){... */\n      iszero\n      tag_24\n      jumpi\n        /* \"contracts/Utils.sol\":705:711  target */\n      dup5\n        /* \"contracts/Utils.sol\":689:711  addresses[i] == target */\n      0xffffffffffffffffffffffffffffffffffffffff\n      and\n        /* \"contracts/Utils.sol\":689:698  addresses */\n      dup5\n        /* \"contracts/Utils.sol\":699:700  i */\n      dup3\n        /* \"contracts/Utils.sol\":689:701  addresses[i] */\n      dup2\n      mload\n      dup2\n      lt\n      tag_26\n      jumpi\n      tag_27\n      tag_28\n      jump\t// in\n    tag_27:\n    tag_26:\n      0x20\n      mul\n      0x20\n      add\n      add\n      mload\n        /* \"contracts/Utils.sol\":689:711  addresses[i] == target */\n      0xffffffffffffffffffffffffffffffffffffffff\n      and\n      sub\n        /* \"contracts/Utils.sol\":686:776  if(addresses[i] == target) {... */\n      tag_29\n      jumpi\n        /* \"contracts/Utils.sol\":737:738  i */\n      dup1\n        /* \"contracts/Utils.sol\":731:738  idx = i */\n      swap2\n      pop\n        /* \"contracts/Utils.sol\":756:761  break */\n      jump(tag_24)\n        /* \"contracts/Utils.sol\":686:776  if(addresses[i] == target) {... */\n    tag_29:\n        /* \"contracts/Utils.sol\":668:671  i++ */\n      dup1\n      dup1\n      0x01\n      add\n      swap2\n      pop\n      pop\n        /* \"contracts/Utils.sol\":636:786  for(uint i=0;i<addresses.length;i++){... */\n      jump(tag_23)\n    tag_24:\n      pop\n        /* \"contracts/Utils.sol\":803:806  idx */\n      dup1\n        /* \"contracts/Utils.sol\":796:806  return idx */\n      swap2\n      pop\n      pop\n        /* \"contracts/Utils.sol\":485:813  function getIndexOf(address target, address[] memory addresses)... */\n      swap3\n      swap2\n      pop\n      pop\n      jump\t// out\n        /* \"contracts/Utils.sol\":189:479  function addressIsIn(address target, address[] memory addresses)... */\n    tag_13:\n        /* \"contracts/Utils.sol\":299:303  bool */\n      0x00\n        /* \"contracts/Utils.sol\":323:329  uint i */\n      dup1\n        /* \"contracts/Utils.sol\":330:331  0 */\n      0x00\n        /* \"contracts/Utils.sol\":323:331  uint i=0 */\n      swap1\n      pop\n        /* \"contracts/Utils.sol\":319:450  for(uint i=0;i<addresses.length;i++) {... */\n    tag_31:\n        /* \"contracts/Utils.sol\":334:343  addresses */\n      dup3\n        /* \"contracts/Utils.sol\":334:350  addresses.length */\n      mload\n        /* \"contracts/Utils.sol\":332:333  i */\n      dup2\n        /* \"contracts/Utils.sol\":332:350  i<addresses.length */\n      lt\n        /* \"contracts/Utils.sol\":319:450  for(uint i=0;i<addresses.length;i++) {... */\n      iszero\n      tag_32\n      jumpi\n        /* \"contracts/Utils.sol\":383:392  addresses */\n      dup3\n        /* \"contracts/Utils.sol\":393:394  i */\n      dup2\n        /* \"contracts/Utils.sol\":383:395  addresses[i] */\n      dup2\n      mload\n      dup2\n      lt\n      tag_34\n      jumpi\n      tag_35\n      tag_28\n      jump\t// in\n    tag_35:\n    tag_34:\n      0x20\n      mul\n      0x20\n      add\n      add\n      mload\n        /* \"contracts/Utils.sol\":373:395  target == addresses[i] */\n      0xffffffffffffffffffffffffffffffffffffffff\n      and\n        /* \"contracts/Utils.sol\":373:379  target */\n      dup5\n        /* \"contracts/Utils.sol\":373:395  target == addresses[i] */\n      0xffffffffffffffffffffffffffffffffffffffff\n      and\n      sub\n        /* \"contracts/Utils.sol\":370:440  if(target == addresses[i]){... */\n      tag_36\n      jumpi\n        /* \"contracts/Utils.sol\":421:425  true */\n      0x01\n        /* \"contracts/Utils.sol\":414:425  return true */\n      swap2\n      pop\n      pop\n      jump(tag_30)\n        /* \"contracts/Utils.sol\":370:440  if(target == addresses[i]){... */\n    tag_36:\n        /* \"contracts/Utils.sol\":351:354  i++ */\n      dup1\n      dup1\n      0x01\n      add\n      swap2\n      pop\n      pop\n        /* \"contracts/Utils.sol\":319:450  for(uint i=0;i<addresses.length;i++) {... */\n      jump(tag_31)\n    tag_32:\n      pop\n        /* \"contracts/Utils.sol\":467:472  false */\n      0x00\n        /* \"contracts/Utils.sol\":460:472  return false */\n      swap1\n      pop\n        /* \"contracts/Utils.sol\":189:479  function addressIsIn(address target, address[] memory addresses)... */\n    tag_30:\n      swap3\n      swap2\n      pop\n      pop\n      jump\t// out\n        /* \"contracts/Utils.sol\":819:1054  function sumOf(int256[] memory list)... */\n    tag_19:\n        /* \"contracts/Utils.sol\":901:907  int256 */\n      0x00\n        /* \"contracts/Utils.sol\":923:933  int256 ret */\n      dup1\n        /* \"contracts/Utils.sol\":936:937  0 */\n      0x00\n        /* \"contracts/Utils.sol\":923:937  int256 ret = 0 */\n      swap1\n      pop\n        /* \"contracts/Utils.sol\":952:958  uint i */\n      0x00\n        /* \"contracts/Utils.sol\":948:1027  for(uint i=0;i<list.length;i++) {... */\n    tag_38:\n        /* \"contracts/Utils.sol\":963:967  list */\n      dup4\n        /* \"contracts/Utils.sol\":963:974  list.length */\n      mload\n        /* \"contracts/Utils.sol\":961:962  i */\n      dup2\n        /* \"contracts/Utils.sol\":961:974  i<list.length */\n      lt\n        /* \"contracts/Utils.sol\":948:1027  for(uint i=0;i<list.length;i++) {... */\n      iszero\n      tag_39\n      jumpi\n        /* \"contracts/Utils.sol\":1000:1003  ret */\n      dup2\n        /* \"contracts/Utils.sol\":1000:1007  ret.add */\n      linkerSymbol(\"438773560da8ebd76b582f48732bda290a0db306f82403ff06c89d710c8696be\")\n      0xa5f3c23b\n      swap1\n      swap2\n        /* \"contracts/Utils.sol\":1008:1012  list */\n      dup7\n        /* \"contracts/Utils.sol\":1013:1014  i */\n      dup5\n        /* \"contracts/Utils.sol\":1008:1015  list[i] */\n      dup2\n      mload\n      dup2\n      lt\n      tag_41\n      jumpi\n      tag_42\n      tag_28\n      jump\t// in\n    tag_42:\n    tag_41:\n      0x20\n      mul\n      0x20\n      add\n      add\n      mload\n        /* \"contracts/Utils.sol\":1000:1016  ret.add(list[i]) */\n      mload(0x40)\n      dup4\n      0xffffffff\n      and\n      0xe0\n      shl\n      dup2\n      mstore\n      0x04\n      add\n      tag_43\n      swap3\n      swap2\n      swap1\n      tag_44\n      jump\t// in\n    tag_43:\n      0x20\n      mload(0x40)\n      dup1\n      dup4\n      sub\n      dup2\n      dup7\n      gas\n      delegatecall\n      iszero\n      dup1\n      iszero\n      tag_46\n      jumpi\n      returndatasize\n      0x00\n      dup1\n      returndatacopy\n      revert(0x00, returndatasize)\n    tag_46:\n      pop\n      pop\n      pop\n      pop\n      mload(0x40)\n      returndatasize\n      not(0x1f)\n      0x1f\n      dup3\n      add\n      and\n      dup3\n      add\n      dup1\n      0x40\n      mstore\n      pop\n      dup2\n      add\n      swap1\n      tag_47\n      swap2\n      swap1\n      tag_48\n      jump\t// in\n    tag_47:\n        /* \"contracts/Utils.sol\":994:1016  ret = ret.add(list[i]) */\n      swap2\n      pop\n        /* \"contracts/Utils.sol\":975:978  i++ */\n      dup1\n      dup1\n      0x01\n      add\n      swap2\n      pop\n      pop\n        /* \"contracts/Utils.sol\":948:1027  for(uint i=0;i<list.length;i++) {... */\n      jump(tag_38)\n    tag_39:\n      pop\n        /* \"contracts/Utils.sol\":1044:1047  ret */\n      dup1\n        /* \"contracts/Utils.sol\":1037:1047  return ret */\n      swap2\n      pop\n      pop\n        /* \"contracts/Utils.sol\":819:1054  function sumOf(int256[] memory list)... */\n      swap2\n      swap1\n      pop\n      jump\t// out\n        /* \"#utility.yul\":7:82   */\n    tag_49:\n        /* \"#utility.yul\":40:46   */\n      0x00\n        /* \"#utility.yul\":73:75   */\n      0x40\n        /* \"#utility.yul\":67:76   */\n      mload\n        /* \"#utility.yul\":57:76   */\n      swap1\n      pop\n        /* \"#utility.yul\":7:82   */\n      swap1\n      jump\t// out\n        /* \"#utility.yul\":88:205   */\n    tag_50:\n        /* \"#utility.yul\":197:198   */\n      0x00\n        /* \"#utility.yul\":194:195   */\n      dup1\n        /* \"#utility.yul\":187:199   */\n      revert\n        /* \"#utility.yul\":211:328   */\n    tag_51:\n        /* \"#utility.yul\":320:321   */\n      0x00\n        /* \"#utility.yul\":317:318   */\n      dup1\n        /* \"#utility.yul\":310:322   */\n      revert\n        /* \"#utility.yul\":334:460   */\n    tag_52:\n        /* \"#utility.yul\":371:378   */\n      0x00\n        /* \"#utility.yul\":411:453   */\n      0xffffffffffffffffffffffffffffffffffffffff\n        /* \"#utility.yul\":404:409   */\n      dup3\n        /* \"#utility.yul\":400:454   */\n      and\n        /* \"#utility.yul\":389:454   */\n      swap1\n      pop\n        /* \"#utility.yul\":334:460   */\n      swap2\n      swap1\n      pop\n      jump\t// out\n        /* \"#utility.yul\":466:562   */\n    tag_53:\n        /* \"#utility.yul\":503:510   */\n      0x00\n        /* \"#utility.yul\":532:556   */\n      tag_83\n        /* \"#utility.yul\":550:555   */\n      dup3\n        /* \"#utility.yul\":532:556   */\n      tag_52\n      jump\t// in\n    tag_83:\n        /* \"#utility.yul\":521:556   */\n      swap1\n      pop\n        /* \"#utility.yul\":466:562   */\n      swap2\n      swap1\n      pop\n      jump\t// out\n        /* \"#utility.yul\":568:690   */\n    tag_54:\n        /* \"#utility.yul\":641:665   */\n      tag_85\n        /* \"#utility.yul\":659:664   */\n      dup2\n        /* \"#utility.yul\":641:665   */\n      tag_53\n      jump\t// in\n    tag_85:\n        /* \"#utility.yul\":634:639   */\n      dup2\n        /* \"#utility.yul\":631:666   */\n      eq\n        /* \"#utility.yul\":621:684   */\n      tag_86\n      jumpi\n        /* \"#utility.yul\":680:681   */\n      0x00\n        /* \"#utility.yul\":677:678   */\n      dup1\n        /* \"#utility.yul\":670:682   */\n      revert\n        /* \"#utility.yul\":621:684   */\n    tag_86:\n        /* \"#utility.yul\":568:690   */\n      pop\n      jump\t// out\n        /* \"#utility.yul\":696:835   */\n    tag_55:\n        /* \"#utility.yul\":742:747   */\n      0x00\n        /* \"#utility.yul\":780:786   */\n      dup2\n        /* \"#utility.yul\":767:787   */\n      calldataload\n        /* \"#utility.yul\":758:787   */\n      swap1\n      pop\n        /* \"#utility.yul\":796:829   */\n      tag_88\n        /* \"#utility.yul\":823:828   */\n      dup2\n        /* \"#utility.yul\":796:829   */\n      tag_54\n      jump\t// in\n    tag_88:\n        /* \"#utility.yul\":696:835   */\n      swap3\n      swap2\n      pop\n      pop\n      jump\t// out\n        /* \"#utility.yul\":841:958   */\n    tag_56:\n        /* \"#utility.yul\":950:951   */\n      0x00\n        /* \"#utility.yul\":947:948   */\n      dup1\n        /* \"#utility.yul\":940:952   */\n      revert\n        /* \"#utility.yul\":964:1066   */\n    tag_57:\n        /* \"#utility.yul\":1005:1011   */\n      0x00\n        /* \"#utility.yul\":1056:1058   */\n      0x1f\n        /* \"#utility.yul\":1052:1059   */\n      not\n        /* \"#utility.yul\":1047:1049   */\n      0x1f\n        /* \"#utility.yul\":1040:1045   */\n      dup4\n        /* \"#utility.yul\":1036:1050   */\n      add\n        /* \"#utility.yul\":1032:1060   */\n      and\n        /* \"#utility.yul\":1022:1060   */\n      swap1\n      pop\n        /* \"#utility.yul\":964:1066   */\n      swap2\n      swap1\n      pop\n      jump\t// out\n        /* \"#utility.yul\":1072:1252   */\n    tag_58:\n        /* \"#utility.yul\":1120:1197   */\n      0x4e487b7100000000000000000000000000000000000000000000000000000000\n        /* \"#utility.yul\":1117:1118   */\n      0x00\n        /* \"#utility.yul\":1110:1198   */\n      mstore\n        /* \"#utility.yul\":1217:1221   */\n      0x41\n        /* \"#utility.yul\":1214:1215   */\n      0x04\n        /* \"#utility.yul\":1207:1222   */\n      mstore\n        /* \"#utility.yul\":1241:1245   */\n      0x24\n        /* \"#utility.yul\":1238:1239   */\n      0x00\n        /* \"#utility.yul\":1231:1246   */\n      revert\n        /* \"#utility.yul\":1258:1539   */\n    tag_59:\n        /* \"#utility.yul\":1341:1368   */\n      tag_93\n        /* \"#utility.yul\":1363:1367   */\n      dup3\n        /* \"#utility.yul\":1341:1368   */\n      tag_57\n      jump\t// in\n    tag_93:\n        /* \"#utility.yul\":1333:1339   */\n      dup2\n        /* \"#utility.yul\":1329:1369   */\n      add\n        /* \"#utility.yul\":1471:1477   */\n      dup2\n        /* \"#utility.yul\":1459:1469   */\n      dup2\n        /* \"#utility.yul\":1456:1478   */\n      lt\n        /* \"#utility.yul\":1435:1453   */\n      0xffffffffffffffff\n        /* \"#utility.yul\":1423:1433   */\n      dup3\n        /* \"#utility.yul\":1420:1454   */\n      gt\n        /* \"#utility.yul\":1417:1479   */\n      or\n        /* \"#utility.yul\":1414:1502   */\n      iszero\n      tag_94\n      jumpi\n        /* \"#utility.yul\":1482:1500   */\n      tag_95\n      tag_58\n      jump\t// in\n    tag_95:\n        /* \"#utility.yul\":1414:1502   */\n    tag_94:\n        /* \"#utility.yul\":1522:1532   */\n      dup1\n        /* \"#utility.yul\":1518:1520   */\n      0x40\n        /* \"#utility.yul\":1511:1533   */\n      mstore\n        /* \"#utility.yul\":1301:1539   */\n      pop\n        /* \"#utility.yul\":1258:1539   */\n      pop\n      pop\n      jump\t// out\n        /* \"#utility.yul\":1545:1674   */\n    tag_60:\n        /* \"#utility.yul\":1579:1585   */\n      0x00\n        /* \"#utility.yul\":1606:1626   */\n      tag_97\n      tag_49\n      jump\t// in\n    tag_97:\n        /* \"#utility.yul\":1596:1626   */\n      swap1\n      pop\n        /* \"#utility.yul\":1635:1668   */\n      tag_98\n        /* \"#utility.yul\":1663:1667   */\n      dup3\n        /* \"#utility.yul\":1655:1661   */\n      dup3\n        /* \"#utility.yul\":1635:1668   */\n      tag_59\n      jump\t// in\n    tag_98:\n        /* \"#utility.yul\":1545:1674   */\n      swap2\n      swap1\n      pop\n      jump\t// out\n        /* \"#utility.yul\":1680:1991   */\n    tag_61:\n        /* \"#utility.yul\":1757:1761   */\n      0x00\n        /* \"#utility.yul\":1847:1865   */\n      0xffffffffffffffff\n        /* \"#utility.yul\":1839:1845   */\n      dup3\n        /* \"#utility.yul\":1836:1866   */\n      gt\n        /* \"#utility.yul\":1833:1889   */\n      iszero\n      tag_100\n      jumpi\n        /* \"#utility.yul\":1869:1887   */\n      tag_101\n      tag_58\n      jump\t// in\n    tag_101:\n        /* \"#utility.yul\":1833:1889   */\n    tag_100:\n        /* \"#utility.yul\":1919:1923   */\n      0x20\n        /* \"#utility.yul\":1911:1917   */\n      dup3\n        /* \"#utility.yul\":1907:1924   */\n      mul\n        /* \"#utility.yul\":1899:1924   */\n      swap1\n      pop\n        /* \"#utility.yul\":1979:1983   */\n      0x20\n        /* \"#utility.yul\":1973:1977   */\n      dup2\n        /* \"#utility.yul\":1969:1984   */\n      add\n        /* \"#utility.yul\":1961:1984   */\n      swap1\n      pop\n        /* \"#utility.yul\":1680:1991   */\n      swap2\n      swap1\n      pop\n      jump\t// out\n        /* \"#utility.yul\":1997:2114   */\n    tag_62:\n        /* \"#utility.yul\":2106:2107   */\n      0x00\n        /* \"#utility.yul\":2103:2104   */\n      dup1\n        /* \"#utility.yul\":2096:2108   */\n      revert\n        /* \"#utility.yul\":2137:2847   */\n    tag_63:\n        /* \"#utility.yul\":2233:2238   */\n      0x00\n        /* \"#utility.yul\":2258:2339   */\n      tag_104\n        /* \"#utility.yul\":2274:2338   */\n      tag_105\n        /* \"#utility.yul\":2331:2337   */\n      dup5\n        /* \"#utility.yul\":2274:2338   */\n      tag_61\n      jump\t// in\n    tag_105:\n        /* \"#utility.yul\":2258:2339   */\n      tag_60\n      jump\t// in\n    tag_104:\n        /* \"#utility.yul\":2249:2339   */\n      swap1\n      pop\n        /* \"#utility.yul\":2359:2364   */\n      dup1\n        /* \"#utility.yul\":2388:2394   */\n      dup4\n        /* \"#utility.yul\":2381:2386   */\n      dup3\n        /* \"#utility.yul\":2374:2395   */\n      mstore\n        /* \"#utility.yul\":2422:2426   */\n      0x20\n        /* \"#utility.yul\":2415:2420   */\n      dup3\n        /* \"#utility.yul\":2411:2427   */\n      add\n        /* \"#utility.yul\":2404:2427   */\n      swap1\n      pop\n        /* \"#utility.yul\":2475:2479   */\n      0x20\n        /* \"#utility.yul\":2467:2473   */\n      dup5\n        /* \"#utility.yul\":2463:2480   */\n      mul\n        /* \"#utility.yul\":2455:2461   */\n      dup4\n        /* \"#utility.yul\":2451:2481   */\n      add\n        /* \"#utility.yul\":2504:2507   */\n      dup6\n        /* \"#utility.yul\":2496:2502   */\n      dup2\n        /* \"#utility.yul\":2493:2508   */\n      gt\n        /* \"#utility.yul\":2490:2612   */\n      iszero\n      tag_106\n      jumpi\n        /* \"#utility.yul\":2523:2602   */\n      tag_107\n      tag_62\n      jump\t// in\n    tag_107:\n        /* \"#utility.yul\":2490:2612   */\n    tag_106:\n        /* \"#utility.yul\":2638:2644   */\n      dup4\n        /* \"#utility.yul\":2621:2841   */\n    tag_108:\n        /* \"#utility.yul\":2655:2661   */\n      dup2\n        /* \"#utility.yul\":2650:2653   */\n      dup2\n        /* \"#utility.yul\":2647:2662   */\n      lt\n        /* \"#utility.yul\":2621:2841   */\n      iszero\n      tag_110\n      jumpi\n        /* \"#utility.yul\":2730:2733   */\n      dup1\n        /* \"#utility.yul\":2759:2796   */\n      tag_111\n        /* \"#utility.yul\":2792:2795   */\n      dup9\n        /* \"#utility.yul\":2780:2790   */\n      dup3\n        /* \"#utility.yul\":2759:2796   */\n      tag_55\n      jump\t// in\n    tag_111:\n        /* \"#utility.yul\":2754:2757   */\n      dup5\n        /* \"#utility.yul\":2747:2797   */\n      mstore\n        /* \"#utility.yul\":2826:2830   */\n      0x20\n        /* \"#utility.yul\":2821:2824   */\n      dup5\n        /* \"#utility.yul\":2817:2831   */\n      add\n        /* \"#utility.yul\":2810:2831   */\n      swap4\n      pop\n        /* \"#utility.yul\":2697:2841   */\n      pop\n        /* \"#utility.yul\":2681:2685   */\n      0x20\n        /* \"#utility.yul\":2676:2679   */\n      dup2\n        /* \"#utility.yul\":2672:2686   */\n      add\n        /* \"#utility.yul\":2665:2686   */\n      swap1\n      pop\n        /* \"#utility.yul\":2621:2841   */\n      jump(tag_108)\n    tag_110:\n        /* \"#utility.yul\":2625:2646   */\n      pop\n        /* \"#utility.yul\":2239:2847   */\n      pop\n      pop\n        /* \"#utility.yul\":2137:2847   */\n      swap4\n      swap3\n      pop\n      pop\n      pop\n      jump\t// out\n        /* \"#utility.yul\":2870:3240   */\n    tag_64:\n        /* \"#utility.yul\":2941:2946   */\n      0x00\n        /* \"#utility.yul\":2990:2993   */\n      dup3\n        /* \"#utility.yul\":2983:2987   */\n      0x1f\n        /* \"#utility.yul\":2975:2981   */\n      dup4\n        /* \"#utility.yul\":2971:2988   */\n      add\n        /* \"#utility.yul\":2967:2994   */\n      slt\n        /* \"#utility.yul\":2957:3079   */\n      tag_113\n      jumpi\n        /* \"#utility.yul\":2998:3077   */\n      tag_114\n      tag_56\n      jump\t// in\n    tag_114:\n        /* \"#utility.yul\":2957:3079   */\n    tag_113:\n        /* \"#utility.yul\":3115:3121   */\n      dup2\n        /* \"#utility.yul\":3102:3122   */\n      calldataload\n        /* \"#utility.yul\":3140:3234   */\n      tag_115\n        /* \"#utility.yul\":3230:3233   */\n      dup5\n        /* \"#utility.yul\":3222:3228   */\n      dup3\n        /* \"#utility.yul\":3215:3219   */\n      0x20\n        /* \"#utility.yul\":3207:3213   */\n      dup7\n        /* \"#utility.yul\":3203:3220   */\n      add\n        /* \"#utility.yul\":3140:3234   */\n      tag_63\n      jump\t// in\n    tag_115:\n        /* \"#utility.yul\":3131:3234   */\n      swap2\n      pop\n        /* \"#utility.yul\":2947:3240   */\n      pop\n        /* \"#utility.yul\":2870:3240   */\n      swap3\n      swap2\n      pop\n      pop\n      jump\t// out\n        /* \"#utility.yul\":3246:3930   */\n    tag_7:\n        /* \"#utility.yul\":3339:3345   */\n      0x00\n        /* \"#utility.yul\":3347:3353   */\n      dup1\n        /* \"#utility.yul\":3396:3398   */\n      0x40\n        /* \"#utility.yul\":3384:3393   */\n      dup4\n        /* \"#utility.yul\":3375:3382   */\n      dup6\n        /* \"#utility.yul\":3371:3394   */\n      sub\n        /* \"#utility.yul\":3367:3399   */\n      slt\n        /* \"#utility.yul\":3364:3483   */\n      iszero\n      tag_117\n      jumpi\n        /* \"#utility.yul\":3402:3481   */\n      tag_118\n      tag_50\n      jump\t// in\n    tag_118:\n        /* \"#utility.yul\":3364:3483   */\n    tag_117:\n        /* \"#utility.yul\":3522:3523   */\n      0x00\n        /* \"#utility.yul\":3547:3600   */\n      tag_119\n        /* \"#utility.yul\":3592:3599   */\n      dup6\n        /* \"#utility.yul\":3583:3589   */\n      dup3\n        /* \"#utility.yul\":3572:3581   */\n      dup7\n        /* \"#utility.yul\":3568:3590   */\n      add\n        /* \"#utility.yul\":3547:3600   */\n      tag_55\n      jump\t// in\n    tag_119:\n        /* \"#utility.yul\":3537:3600   */\n      swap3\n      pop\n        /* \"#utility.yul\":3493:3610   */\n      pop\n        /* \"#utility.yul\":3677:3679   */\n      0x20\n        /* \"#utility.yul\":3666:3675   */\n      dup4\n        /* \"#utility.yul\":3662:3680   */\n      add\n        /* \"#utility.yul\":3649:3681   */\n      calldataload\n        /* \"#utility.yul\":3708:3726   */\n      0xffffffffffffffff\n        /* \"#utility.yul\":3700:3706   */\n      dup2\n        /* \"#utility.yul\":3697:3727   */\n      gt\n        /* \"#utility.yul\":3694:3811   */\n      iszero\n      tag_120\n      jumpi\n        /* \"#utility.yul\":3730:3809   */\n      tag_121\n      tag_51\n      jump\t// in\n    tag_121:\n        /* \"#utility.yul\":3694:3811   */\n    tag_120:\n        /* \"#utility.yul\":3835:3913   */\n      tag_122\n        /* \"#utility.yul\":3905:3912   */\n      dup6\n        /* \"#utility.yul\":3896:3902   */\n      dup3\n        /* \"#utility.yul\":3885:3894   */\n      dup7\n        /* \"#utility.yul\":3881:3903   */\n      add\n        /* \"#utility.yul\":3835:3913   */\n      tag_64\n      jump\t// in\n    tag_122:\n        /* \"#utility.yul\":3825:3913   */\n      swap2\n      pop\n        /* \"#utility.yul\":3620:3923   */\n      pop\n        /* \"#utility.yul\":3246:3930   */\n      swap3\n      pop\n      swap3\n      swap1\n      pop\n      jump\t// out\n        /* \"#utility.yul\":3936:4013   */\n    tag_65:\n        /* \"#utility.yul\":3973:3980   */\n      0x00\n        /* \"#utility.yul\":4002:4007   */\n      dup2\n        /* \"#utility.yul\":3991:4007   */\n      swap1\n      pop\n        /* \"#utility.yul\":3936:4013   */\n      swap2\n      swap1\n      pop\n      jump\t// out\n        /* \"#utility.yul\":4019:4145   */\n    tag_66:\n        /* \"#utility.yul\":4114:4138   */\n      tag_125\n        /* \"#utility.yul\":4132:4137   */\n      dup2\n        /* \"#utility.yul\":4114:4138   */\n      tag_65\n      jump\t// in\n    tag_125:\n        /* \"#utility.yul\":4109:4112   */\n      dup3\n        /* \"#utility.yul\":4102:4139   */\n      mstore\n        /* \"#utility.yul\":4019:4145   */\n      pop\n      pop\n      jump\t// out\n        /* \"#utility.yul\":4151:4389   */\n    tag_10:\n        /* \"#utility.yul\":4252:4256   */\n      0x00\n        /* \"#utility.yul\":4290:4292   */\n      0x20\n        /* \"#utility.yul\":4279:4288   */\n      dup3\n        /* \"#utility.yul\":4275:4293   */\n      add\n        /* \"#utility.yul\":4267:4293   */\n      swap1\n      pop\n        /* \"#utility.yul\":4303:4382   */\n      tag_127\n        /* \"#utility.yul\":4379:4380   */\n      0x00\n        /* \"#utility.yul\":4368:4377   */\n      dup4\n        /* \"#utility.yul\":4364:4381   */\n      add\n        /* \"#utility.yul\":4355:4361   */\n      dup5\n        /* \"#utility.yul\":4303:4382   */\n      tag_66\n      jump\t// in\n    tag_127:\n        /* \"#utility.yul\":4151:4389   */\n      swap3\n      swap2\n      pop\n      pop\n      jump\t// out\n        /* \"#utility.yul\":4395:4485   */\n    tag_67:\n        /* \"#utility.yul\":4429:4436   */\n      0x00\n        /* \"#utility.yul\":4472:4477   */\n      dup2\n        /* \"#utility.yul\":4465:4478   */\n      iszero\n        /* \"#utility.yul\":4458:4479   */\n      iszero\n        /* \"#utility.yul\":4447:4479   */\n      swap1\n      pop\n        /* \"#utility.yul\":4395:4485   */\n      swap2\n      swap1\n      pop\n      jump\t// out\n        /* \"#utility.yul\":4491:4608   */\n    tag_68:\n        /* \"#utility.yul\":4580:4601   */\n      tag_130\n        /* \"#utility.yul\":4595:4600   */\n      dup2\n        /* \"#utility.yul\":4580:4601   */\n      tag_67\n      jump\t// in\n    tag_130:\n        /* \"#utility.yul\":4575:4578   */\n      dup3\n        /* \"#utility.yul\":4568:4602   */\n      mstore\n        /* \"#utility.yul\":4491:4608   */\n      pop\n      pop\n      jump\t// out\n        /* \"#utility.yul\":4614:4840   */\n    tag_15:\n        /* \"#utility.yul\":4709:4713   */\n      0x00\n        /* \"#utility.yul\":4747:4749   */\n      0x20\n        /* \"#utility.yul\":4736:4745   */\n      dup3\n        /* \"#utility.yul\":4732:4750   */\n      add\n        /* \"#utility.yul\":4724:4750   */\n      swap1\n      pop\n        /* \"#utility.yul\":4760:4833   */\n      tag_132\n        /* \"#utility.yul\":4830:4831   */\n      0x00\n        /* \"#utility.yul\":4819:4828   */\n      dup4\n        /* \"#utility.yul\":4815:4832   */\n      add\n        /* \"#utility.yul\":4806:4812   */\n      dup5\n        /* \"#utility.yul\":4760:4833   */\n      tag_68\n      jump\t// in\n    tag_132:\n        /* \"#utility.yul\":4614:4840   */\n      swap3\n      swap2\n      pop\n      pop\n      jump\t// out\n        /* \"#utility.yul\":4846:5156   */\n    tag_69:\n        /* \"#utility.yul\":4922:4926   */\n      0x00\n        /* \"#utility.yul\":5012:5030   */\n      0xffffffffffffffff\n        /* \"#utility.yul\":5004:5010   */\n      dup3\n        /* \"#utility.yul\":5001:5031   */\n      gt\n        /* \"#utility.yul\":4998:5054   */\n      iszero\n      tag_134\n      jumpi\n        /* \"#utility.yul\":5034:5052   */\n      tag_135\n      tag_58\n      jump\t// in\n    tag_135:\n        /* \"#utility.yul\":4998:5054   */\n    tag_134:\n        /* \"#utility.yul\":5084:5088   */\n      0x20\n        /* \"#utility.yul\":5076:5082   */\n      dup3\n        /* \"#utility.yul\":5072:5089   */\n      mul\n        /* \"#utility.yul\":5064:5089   */\n      swap1\n      pop\n        /* \"#utility.yul\":5144:5148   */\n      0x20\n        /* \"#utility.yul\":5138:5142   */\n      dup2\n        /* \"#utility.yul\":5134:5149   */\n      add\n        /* \"#utility.yul\":5126:5149   */\n      swap1\n      pop\n        /* \"#utility.yul\":4846:5156   */\n      swap2\n      swap1\n      pop\n      jump\t// out\n        /* \"#utility.yul\":5162:5238   */\n    tag_70:\n        /* \"#utility.yul\":5198:5205   */\n      0x00\n        /* \"#utility.yul\":5227:5232   */\n      dup2\n        /* \"#utility.yul\":5216:5232   */\n      swap1\n      pop\n        /* \"#utility.yul\":5162:5238   */\n      swap2\n      swap1\n      pop\n      jump\t// out\n        /* \"#utility.yul\":5244:5364   */\n    tag_71:\n        /* \"#utility.yul\":5316:5339   */\n      tag_138\n        /* \"#utility.yul\":5333:5338   */\n      dup2\n        /* \"#utility.yul\":5316:5339   */\n      tag_70\n      jump\t// in\n    tag_138:\n        /* \"#utility.yul\":5309:5314   */\n      dup2\n        /* \"#utility.yul\":5306:5340   */\n      eq\n        /* \"#utility.yul\":5296:5358   */\n      tag_139\n      jumpi\n        /* \"#utility.yul\":5354:5355   */\n      0x00\n        /* \"#utility.yul\":5351:5352   */\n      dup1\n        /* \"#utility.yul\":5344:5356   */\n      revert\n        /* \"#utility.yul\":5296:5358   */\n    tag_139:\n        /* \"#utility.yul\":5244:5364   */\n      pop\n      jump\t// out\n        /* \"#utility.yul\":5370:5507   */\n    tag_72:\n        /* \"#utility.yul\":5415:5420   */\n      0x00\n        /* \"#utility.yul\":5453:5459   */\n      dup2\n        /* \"#utility.yul\":5440:5460   */\n      calldataload\n        /* \"#utility.yul\":5431:5460   */\n      swap1\n      pop\n        /* \"#utility.yul\":5469:5501   */\n      tag_141\n        /* \"#utility.yul\":5495:5500   */\n      dup2\n        /* \"#utility.yul\":5469:5501   */\n      tag_71\n      jump\t// in\n    tag_141:\n        /* \"#utility.yul\":5370:5507   */\n      swap3\n      swap2\n      pop\n      pop\n      jump\t// out\n        /* \"#utility.yul\":5529:6236   */\n    tag_73:\n        /* \"#utility.yul\":5624:5629   */\n      0x00\n        /* \"#utility.yul\":5649:5729   */\n      tag_143\n        /* \"#utility.yul\":5665:5728   */\n      tag_144\n        /* \"#utility.yul\":5721:5727   */\n      dup5\n        /* \"#utility.yul\":5665:5728   */\n      tag_69\n      jump\t// in\n    tag_144:\n        /* \"#utility.yul\":5649:5729   */\n      tag_60\n      jump\t// in\n    tag_143:\n        /* \"#utility.yul\":5640:5729   */\n      swap1\n      pop\n        /* \"#utility.yul\":5749:5754   */\n      dup1\n        /* \"#utility.yul\":5778:5784   */\n      dup4\n        /* \"#utility.yul\":5771:5776   */\n      dup3\n        /* \"#utility.yul\":5764:5785   */\n      mstore\n        /* \"#utility.yul\":5812:5816   */\n      0x20\n        /* \"#utility.yul\":5805:5810   */\n      dup3\n        /* \"#utility.yul\":5801:5817   */\n      add\n        /* \"#utility.yul\":5794:5817   */\n      swap1\n      pop\n        /* \"#utility.yul\":5865:5869   */\n      0x20\n        /* \"#utility.yul\":5857:5863   */\n      dup5\n        /* \"#utility.yul\":5853:5870   */\n      mul\n        /* \"#utility.yul\":5845:5851   */\n      dup4\n        /* \"#utility.yul\":5841:5871   */\n      add\n        /* \"#utility.yul\":5894:5897   */\n      dup6\n        /* \"#utility.yul\":5886:5892   */\n      dup2\n        /* \"#utility.yul\":5883:5898   */\n      gt\n        /* \"#utility.yul\":5880:6002   */\n      iszero\n      tag_145\n      jumpi\n        /* \"#utility.yul\":5913:5992   */\n      tag_146\n      tag_62\n      jump\t// in\n    tag_146:\n        /* \"#utility.yul\":5880:6002   */\n    tag_145:\n        /* \"#utility.yul\":6028:6034   */\n      dup4\n        /* \"#utility.yul\":6011:6230   */\n    tag_147:\n        /* \"#utility.yul\":6045:6051   */\n      dup2\n        /* \"#utility.yul\":6040:6043   */\n      dup2\n        /* \"#utility.yul\":6037:6052   */\n      lt\n        /* \"#utility.yul\":6011:6230   */\n      iszero\n      tag_149\n      jumpi\n        /* \"#utility.yul\":6120:6123   */\n      dup1\n        /* \"#utility.yul\":6149:6185   */\n      tag_150\n        /* \"#utility.yul\":6181:6184   */\n      dup9\n        /* \"#utility.yul\":6169:6179   */\n      dup3\n        /* \"#utility.yul\":6149:6185   */\n      tag_72\n      jump\t// in\n    tag_150:\n        /* \"#utility.yul\":6144:6147   */\n      dup5\n        /* \"#utility.yul\":6137:6186   */\n      mstore\n        /* \"#utility.yul\":6215:6219   */\n      0x20\n        /* \"#utility.yul\":6210:6213   */\n      dup5\n        /* \"#utility.yul\":6206:6220   */\n      add\n        /* \"#utility.yul\":6199:6220   */\n      swap4\n      pop\n        /* \"#utility.yul\":6087:6230   */\n      pop\n        /* \"#utility.yul\":6071:6075   */\n      0x20\n        /* \"#utility.yul\":6066:6069   */\n      dup2\n        /* \"#utility.yul\":6062:6076   */\n      add\n        /* \"#utility.yul\":6055:6076   */\n      swap1\n      pop\n        /* \"#utility.yul\":6011:6230   */\n      jump(tag_147)\n    tag_149:\n        /* \"#utility.yul\":6015:6036   */\n      pop\n        /* \"#utility.yul\":5630:6236   */\n      pop\n      pop\n        /* \"#utility.yul\":5529:6236   */\n      swap4\n      swap3\n      pop\n      pop\n      pop\n      jump\t// out\n        /* \"#utility.yul\":6258:6626   */\n    tag_74:\n        /* \"#utility.yul\":6328:6333   */\n      0x00\n        /* \"#utility.yul\":6377:6380   */\n      dup3\n        /* \"#utility.yul\":6370:6374   */\n      0x1f\n        /* \"#utility.yul\":6362:6368   */\n      dup4\n        /* \"#utility.yul\":6358:6375   */\n      add\n        /* \"#utility.yul\":6354:6381   */\n      slt\n        /* \"#utility.yul\":6344:6466   */\n      tag_152\n      jumpi\n        /* \"#utility.yul\":6385:6464   */\n      tag_153\n      tag_56\n      jump\t// in\n    tag_153:\n        /* \"#utility.yul\":6344:6466   */\n    tag_152:\n        /* \"#utility.yul\":6502:6508   */\n      dup2\n        /* \"#utility.yul\":6489:6509   */\n      calldataload\n        /* \"#utility.yul\":6527:6620   */\n      tag_154\n        /* \"#utility.yul\":6616:6619   */\n      dup5\n        /* \"#utility.yul\":6608:6614   */\n      dup3\n        /* \"#utility.yul\":6601:6605   */\n      0x20\n        /* \"#utility.yul\":6593:6599   */\n      dup7\n        /* \"#utility.yul\":6589:6606   */\n      add\n        /* \"#utility.yul\":6527:6620   */\n      tag_73\n      jump\t// in\n    tag_154:\n        /* \"#utility.yul\":6518:6620   */\n      swap2\n      pop\n        /* \"#utility.yul\":6334:6626   */\n      pop\n        /* \"#utility.yul\":6258:6626   */\n      swap3\n      swap2\n      pop\n      pop\n      jump\t// out\n        /* \"#utility.yul\":6632:7169   */\n    tag_18:\n        /* \"#utility.yul\":6715:6721   */\n      0x00\n        /* \"#utility.yul\":6764:6766   */\n      0x20\n        /* \"#utility.yul\":6752:6761   */\n      dup3\n        /* \"#utility.yul\":6743:6750   */\n      dup5\n        /* \"#utility.yul\":6739:6762   */\n      sub\n        /* \"#utility.yul\":6735:6767   */\n      slt\n        /* \"#utility.yul\":6732:6851   */\n      iszero\n      tag_156\n      jumpi\n        /* \"#utility.yul\":6770:6849   */\n      tag_157\n      tag_50\n      jump\t// in\n    tag_157:\n        /* \"#utility.yul\":6732:6851   */\n    tag_156:\n        /* \"#utility.yul\":6918:6919   */\n      0x00\n        /* \"#utility.yul\":6907:6916   */\n      dup3\n        /* \"#utility.yul\":6903:6920   */\n      add\n        /* \"#utility.yul\":6890:6921   */\n      calldataload\n        /* \"#utility.yul\":6948:6966   */\n      0xffffffffffffffff\n        /* \"#utility.yul\":6940:6946   */\n      dup2\n        /* \"#utility.yul\":6937:6967   */\n      gt\n        /* \"#utility.yul\":6934:7051   */\n      iszero\n      tag_158\n      jumpi\n        /* \"#utility.yul\":6970:7049   */\n      tag_159\n      tag_51\n      jump\t// in\n    tag_159:\n        /* \"#utility.yul\":6934:7051   */\n    tag_158:\n        /* \"#utility.yul\":7075:7152   */\n      tag_160\n        /* \"#utility.yul\":7144:7151   */\n      dup5\n        /* \"#utility.yul\":7135:7141   */\n      dup3\n        /* \"#utility.yul\":7124:7133   */\n      dup6\n        /* \"#utility.yul\":7120:7142   */\n      add\n        /* \"#utility.yul\":7075:7152   */\n      tag_74\n      jump\t// in\n    tag_160:\n        /* \"#utility.yul\":7065:7152   */\n      swap2\n      pop\n        /* \"#utility.yul\":6861:7162   */\n      pop\n        /* \"#utility.yul\":6632:7169   */\n      swap3\n      swap2\n      pop\n      pop\n      jump\t// out\n        /* \"#utility.yul\":7175:7298   */\n    tag_75:\n        /* \"#utility.yul\":7268:7291   */\n      tag_162\n        /* \"#utility.yul\":7285:7290   */\n      dup2\n        /* \"#utility.yul\":7268:7291   */\n      tag_70\n      jump\t// in\n    tag_162:\n        /* \"#utility.yul\":7263:7266   */\n      dup3\n        /* \"#utility.yul\":7256:7292   */\n      mstore\n        /* \"#utility.yul\":7175:7298   */\n      pop\n      pop\n      jump\t// out\n        /* \"#utility.yul\":7304:7538   */\n    tag_21:\n        /* \"#utility.yul\":7403:7407   */\n      0x00\n        /* \"#utility.yul\":7441:7443   */\n      0x20\n        /* \"#utility.yul\":7430:7439   */\n      dup3\n        /* \"#utility.yul\":7426:7444   */\n      add\n        /* \"#utility.yul\":7418:7444   */\n      swap1\n      pop\n        /* \"#utility.yul\":7454:7531   */\n      tag_164\n        /* \"#utility.yul\":7528:7529   */\n      0x00\n        /* \"#utility.yul\":7517:7526   */\n      dup4\n        /* \"#utility.yul\":7513:7530   */\n      add\n        /* \"#utility.yul\":7504:7510   */\n      dup5\n        /* \"#utility.yul\":7454:7531   */\n      tag_75\n      jump\t// in\n    tag_164:\n        /* \"#utility.yul\":7304:7538   */\n      swap3\n      swap2\n      pop\n      pop\n      jump\t// out\n        /* \"#utility.yul\":7544:7724   */\n    tag_28:\n        /* \"#utility.yul\":7592:7669   */\n      0x4e487b7100000000000000000000000000000000000000000000000000000000\n        /* \"#utility.yul\":7589:7590   */\n      0x00\n        /* \"#utility.yul\":7582:7670   */\n      mstore\n        /* \"#utility.yul\":7689:7693   */\n      0x32\n        /* \"#utility.yul\":7686:7687   */\n      0x04\n        /* \"#utility.yul\":7679:7694   */\n      mstore\n        /* \"#utility.yul\":7713:7717   */\n      0x24\n        /* \"#utility.yul\":7710:7711   */\n      0x00\n        /* \"#utility.yul\":7703:7718   */\n      revert\n        /* \"#utility.yul\":7730:8078   */\n    tag_44:\n        /* \"#utility.yul\":7855:7859   */\n      0x00\n        /* \"#utility.yul\":7893:7895   */\n      0x40\n        /* \"#utility.yul\":7882:7891   */\n      dup3\n        /* \"#utility.yul\":7878:7896   */\n      add\n        /* \"#utility.yul\":7870:7896   */\n      swap1\n      pop\n        /* \"#utility.yul\":7906:7983   */\n      tag_167\n        /* \"#utility.yul\":7980:7981   */\n      0x00\n        /* \"#utility.yul\":7969:7978   */\n      dup4\n        /* \"#utility.yul\":7965:7982   */\n      add\n        /* \"#utility.yul\":7956:7962   */\n      dup6\n        /* \"#utility.yul\":7906:7983   */\n      tag_75\n      jump\t// in\n    tag_167:\n        /* \"#utility.yul\":7993:8071   */\n      tag_168\n        /* \"#utility.yul\":8067:8069   */\n      0x20\n        /* \"#utility.yul\":8056:8065   */\n      dup4\n        /* \"#utility.yul\":8052:8070   */\n      add\n        /* \"#utility.yul\":8043:8049   */\n      dup5\n        /* \"#utility.yul\":7993:8071   */\n      tag_75\n      jump\t// in\n    tag_168:\n        /* \"#utility.yul\":7730:8078   */\n      swap4\n      swap3\n      pop\n      pop\n      pop\n      jump\t// out\n        /* \"#utility.yul\":8084:8225   */\n    tag_76:\n        /* \"#utility.yul\":8140:8145   */\n      0x00\n        /* \"#utility.yul\":8171:8177   */\n      dup2\n        /* \"#utility.yul\":8165:8178   */\n      mload\n        /* \"#utility.yul\":8156:8178   */\n      swap1\n      pop\n        /* \"#utility.yul\":8187:8219   */\n      tag_170\n        /* \"#utility.yul\":8213:8218   */\n      dup2\n        /* \"#utility.yul\":8187:8219   */\n      tag_71\n      jump\t// in\n    tag_170:\n        /* \"#utility.yul\":8084:8225   */\n      swap3\n      swap2\n      pop\n      pop\n      jump\t// out\n        /* \"#utility.yul\":8231:8580   */\n    tag_48:\n        /* \"#utility.yul\":8300:8306   */\n      0x00\n        /* \"#utility.yul\":8349:8351   */\n      0x20\n        /* \"#utility.yul\":8337:8346   */\n      dup3\n        /* \"#utility.yul\":8328:8335   */\n      dup5\n        /* \"#utility.yul\":8324:8347   */\n      sub\n        /* \"#utility.yul\":8320:8352   */\n      slt\n        /* \"#utility.yul\":8317:8436   */\n      iszero\n      tag_172\n      jumpi\n        /* \"#utility.yul\":8355:8434   */\n      tag_173\n      tag_50\n      jump\t// in\n    tag_173:\n        /* \"#utility.yul\":8317:8436   */\n    tag_172:\n        /* \"#utility.yul\":8475:8476   */\n      0x00\n        /* \"#utility.yul\":8500:8563   */\n      tag_174\n        /* \"#utility.yul\":8555:8562   */\n      dup5\n        /* \"#utility.yul\":8546:8552   */\n      dup3\n        /* \"#utility.yul\":8535:8544   */\n      dup6\n        /* \"#utility.yul\":8531:8553   */\n      add\n        /* \"#utility.yul\":8500:8563   */\n      tag_76\n      jump\t// in\n    tag_174:\n        /* \"#utility.yul\":8490:8563   */\n      swap2\n      pop\n        /* \"#utility.yul\":8446:8573   */\n      pop\n        /* \"#utility.yul\":8231:8580   */\n      swap3\n      swap2\n      pop\n      pop\n      jump\t// out\n\n    auxdata: 0xa26469706673582212200e2c9199726a13719ea0e3c368c382cc446ebbdbc94137350e5dac8ef9887f4c64736f6c63430008160033\n}\n",
				"bytecode": {
					"linkReferences": {
						"contracts/SafeMath.sol": {
							"SafeMath": [
								{
									"length": 20,
									"start": 570
								}
							]
						}
					},
					"object": "61073a61004e600b8282823980515f1a607314610042577f4e487b71000000000000000000000000000000000000000000000000000000005f525f60045260245ffd5b305f52607381538281f3fe730000000000000000000000000000000000000000301460806040526004361061004a575f3560e01c80634dd0b8201461004e578063941dfecc1461007e578063b8053ff7146100ae575b5f80fd5b61006860048036038101906100639190610451565b6100de565b60405161007591906104c3565b60405180910390f35b61009860048036038101906100939190610451565b61015b565b6040516100a591906104f6565b60405180910390f35b6100c860048036038101906100c39190610602565b6101d9565b6040516100d59190610658565b60405180910390f35b5f805f90505f5b8351811015610150578473ffffffffffffffffffffffffffffffffffffffff1684828151811061011857610117610671565b5b602002602001015173ffffffffffffffffffffffffffffffffffffffff160361014357809150610150565b80806001019150506100e5565b508091505092915050565b5f805f90505b82518110156101ce5782818151811061017d5761017c610671565b5b602002602001015173ffffffffffffffffffffffffffffffffffffffff168473ffffffffffffffffffffffffffffffffffffffff16036101c15760019150506101d3565b8080600101915050610161565b505f90505b92915050565b5f805f90505f5b835181101561028c578173__$438773560da8ebd76b582f48732bda290a$__63a5f3c23b909186848151811061021957610218610671565b5b60200260200101516040518363ffffffff1660e01b815260040161023e92919061069e565b602060405180830381865af4158015610259573d5f803e3d5ffd5b505050506040513d601f19601f8201168201806040525081019061027d91906106d9565b915080806001019150506101e0565b5080915050919050565b5f604051905090565b5f80fd5b5f80fd5b5f73ffffffffffffffffffffffffffffffffffffffff82169050919050565b5f6102d0826102a7565b9050919050565b6102e0816102c6565b81146102ea575f80fd5b50565b5f813590506102fb816102d7565b92915050565b5f80fd5b5f601f19601f8301169050919050565b7f4e487b71000000000000000000000000000000000000000000000000000000005f52604160045260245ffd5b61034b82610305565b810181811067ffffffffffffffff8211171561036a57610369610315565b5b80604052505050565b5f61037c610296565b90506103888282610342565b919050565b5f67ffffffffffffffff8211156103a7576103a6610315565b5b602082029050602081019050919050565b5f80fd5b5f6103ce6103c98461038d565b610373565b905080838252602082019050602084028301858111156103f1576103f06103b8565b5b835b8181101561041a578061040688826102ed565b8452602084019350506020810190506103f3565b5050509392505050565b5f82601f83011261043857610437610301565b5b81356104488482602086016103bc565b91505092915050565b5f80604083850312156104675761046661029f565b5b5f610474858286016102ed565b925050602083013567ffffffffffffffff811115610495576104946102a3565b5b6104a185828601610424565b9150509250929050565b5f819050919050565b6104bd816104ab565b82525050565b5f6020820190506104d65f8301846104b4565b92915050565b5f8115159050919050565b6104f0816104dc565b82525050565b5f6020820190506105095f8301846104e7565b92915050565b5f67ffffffffffffffff82111561052957610528610315565b5b602082029050602081019050919050565b5f819050919050565b61054c8161053a565b8114610556575f80fd5b50565b5f8135905061056781610543565b92915050565b5f61057f61057a8461050f565b610373565b905080838252602082019050602084028301858111156105a2576105a16103b8565b5b835b818110156105cb57806105b78882610559565b8452602084019350506020810190506105a4565b5050509392505050565b5f82601f8301126105e9576105e8610301565b5b81356105f984826020860161056d565b91505092915050565b5f602082840312156106175761061661029f565b5b5f82013567ffffffffffffffff811115610634576106336102a3565b5b610640848285016105d5565b91505092915050565b6106528161053a565b82525050565b5f60208201905061066b5f830184610649565b92915050565b7f4e487b71000000000000000000000000000000000000000000000000000000005f52603260045260245ffd5b5f6040820190506106b15f830185610649565b6106be6020830184610649565b9392505050565b5f815190506106d381610543565b92915050565b5f602082840312156106ee576106ed61029f565b5b5f6106fb848285016106c5565b9150509291505056fea26469706673582212200e2c9199726a13719ea0e3c368c382cc446ebbdbc94137350e5dac8ef9887f4c64736f6c63430008160033",
					"opcodes": "PUSH2 0x73A PUSH2 0x4E PUSH1 0xB DUP3 DUP3 DUP3 CODECOPY DUP1 MLOAD PUSH0 BYTE PUSH1 0x73 EQ PUSH2 0x42 JUMPI PUSH32 0x4E487B7100000000000000000000000000000000000000000000000000000000 PUSH0 MSTORE PUSH0 PUSH1 0x4 MSTORE PUSH1 0x24 PUSH0 REVERT JUMPDEST ADDRESS PUSH0 MSTORE PUSH1 0x73 DUP2 MSTORE8 DUP3 DUP2 RETURN INVALID PUSH20 0x0 ADDRESS EQ PUSH1 0x80 PUSH1 0x40 MSTORE PUSH1 0x4 CALLDATASIZE LT PUSH2 0x4A JUMPI PUSH0 CALLDATALOAD PUSH1 0xE0 SHR DUP1 PUSH4 0x4DD0B820 EQ PUSH2 0x4E JUMPI DUP1 PUSH4 0x941DFECC EQ PUSH2 0x7E JUMPI DUP1 PUSH4 0xB8053FF7 EQ PUSH2 0xAE JUMPI JUMPDEST PUSH0 DUP1 REVERT JUMPDEST PUSH2 0x68 PUSH1 0x4 DUP1 CALLDATASIZE SUB DUP2 ADD SWAP1 PUSH2 0x63 SWAP2 SWAP1 PUSH2 0x451 JUMP JUMPDEST PUSH2 0xDE JUMP JUMPDEST PUSH1 0x40 MLOAD PUSH2 0x75 SWAP2 SWAP1 PUSH2 0x4C3 JUMP JUMPDEST PUSH1 0x40 MLOAD DUP1 SWAP2 SUB SWAP1 RETURN JUMPDEST PUSH2 0x98 PUSH1 0x4 DUP1 CALLDATASIZE SUB DUP2 ADD SWAP1 PUSH2 0x93 SWAP2 SWAP1 PUSH2 0x451 JUMP JUMPDEST PUSH2 0x15B JUMP JUMPDEST PUSH1 0x40 MLOAD PUSH2 0xA5 SWAP2 SWAP1 PUSH2 0x4F6 JUMP JUMPDEST PUSH1 0x40 MLOAD DUP1 SWAP2 SUB SWAP1 RETURN JUMPDEST PUSH2 0xC8 PUSH1 0x4 DUP1 CALLDATASIZE SUB DUP2 ADD SWAP1 PUSH2 0xC3 SWAP2 SWAP1 PUSH2 0x602 JUMP JUMPDEST PUSH2 0x1D9 JUMP JUMPDEST PUSH1 0x40 MLOAD PUSH2 0xD5 SWAP2 SWAP1 PUSH2 0x658 JUMP JUMPDEST PUSH1 0x40 MLOAD DUP1 SWAP2 SUB SWAP1 RETURN JUMPDEST PUSH0 DUP1 PUSH0 SWAP1 POP PUSH0 JUMPDEST DUP4 MLOAD DUP2 LT ISZERO PUSH2 0x150 JUMPI DUP5 PUSH20 0xFFFFFFFFFFFFFFFFFFFFFFFFFFFFFFFFFFFFFFFF AND DUP5 DUP3 DUP2 MLOAD DUP2 LT PUSH2 0x118 JUMPI PUSH2 0x117 PUSH2 0x671 JUMP JUMPDEST JUMPDEST PUSH1 0x20 MUL PUSH1 0x20 ADD ADD MLOAD PUSH20 0xFFFFFFFFFFFFFFFFFFFFFFFFFFFFFFFFFFFFFFFF AND SUB PUSH2 0x143 JUMPI DUP1 SWAP2 POP PUSH2 0x150 JUMP JUMPDEST DUP1 DUP1 PUSH1 0x1 ADD SWAP2 POP POP PUSH2 0xE5 JUMP JUMPDEST POP DUP1 SWAP2 POP POP SWAP3 SWAP2 POP POP JUMP JUMPDEST PUSH0 DUP1 PUSH0 SWAP1 POP JUMPDEST DUP3 MLOAD DUP2 LT ISZERO PUSH2 0x1CE JUMPI DUP3 DUP2 DUP2 MLOAD DUP2 LT PUSH2 0x17D JUMPI PUSH2 0x17C PUSH2 0x671 JUMP JUMPDEST JUMPDEST PUSH1 0x20 MUL PUSH1 0x20 ADD ADD MLOAD PUSH20 0xFFFFFFFFFFFFFFFFFFFFFFFFFFFFFFFFFFFFFFFF AND DUP5 PUSH20 0xFFFFFFFFFFFFFFFFFFFFFFFFFFFFFFFFFFFFFFFF AND SUB PUSH2 0x1C1 JUMPI PUSH1 0x1 SWAP2 POP POP PUSH2 0x1D3 JUMP JUMPDEST DUP1 DUP1 PUSH1 0x1 ADD SWAP2 POP POP PUSH2 0x161 JUMP JUMPDEST POP PUSH0 SWAP1 POP JUMPDEST SWAP3 SWAP2 POP POP JUMP JUMPDEST PUSH0 DUP1 PUSH0 SWAP1 POP PUSH0 JUMPDEST DUP4 MLOAD DUP2 LT ISZERO PUSH2 0x28C JUMPI DUP2 PUSH20 0x0 PUSH4 0xA5F3C23B SWAP1 SWAP2 DUP7 DUP5 DUP2 MLOAD DUP2 LT PUSH2 0x219 JUMPI PUSH2 0x218 PUSH2 0x671 JUMP JUMPDEST JUMPDEST PUSH1 0x20 MUL PUSH1 0x20 ADD ADD MLOAD PUSH1 0x40 MLOAD DUP4 PUSH4 0xFFFFFFFF AND PUSH1 0xE0 SHL DUP2 MSTORE PUSH1 0x4 ADD PUSH2 0x23E SWAP3 SWAP2 SWAP1 PUSH2 0x69E JUMP JUMPDEST PUSH1 0x20 PUSH1 0x40 MLOAD DUP1 DUP4 SUB DUP2 DUP7 GAS DELEGATECALL ISZERO DUP1 ISZERO PUSH2 0x259 JUMPI RETURNDATASIZE PUSH0 DUP1 RETURNDATACOPY RETURNDATASIZE PUSH0 REVERT JUMPDEST POP POP POP POP PUSH1 0x40 MLOAD RETURNDATASIZE PUSH1 0x1F NOT PUSH1 0x1F DUP3 ADD AND DUP3 ADD DUP1 PUSH1 0x40 MSTORE POP DUP2 ADD SWAP1 PUSH2 0x27D SWAP2 SWAP1 PUSH2 0x6D9 JUMP JUMPDEST SWAP2 POP DUP1 DUP1 PUSH1 0x1 ADD SWAP2 POP POP PUSH2 0x1E0 JUMP JUMPDEST POP DUP1 SWAP2 POP POP SWAP2 SWAP1 POP JUMP JUMPDEST PUSH0 PUSH1 0x40 MLOAD SWAP1 POP SWAP1 JUMP JUMPDEST PUSH0 DUP1 REVERT JUMPDEST PUSH0 DUP1 REVERT JUMPDEST PUSH0 PUSH20 0xFFFFFFFFFFFFFFFFFFFFFFFFFFFFFFFFFFFFFFFF DUP3 AND SWAP1 POP SWAP2 SWAP1 POP JUMP JUMPDEST PUSH0 PUSH2 0x2D0 DUP3 PUSH2 0x2A7 JUMP JUMPDEST SWAP1 POP SWAP2 SWAP1 POP JUMP JUMPDEST PUSH2 0x2E0 DUP2 PUSH2 0x2C6 JUMP JUMPDEST DUP2 EQ PUSH2 0x2EA JUMPI PUSH0 DUP1 REVERT JUMPDEST POP JUMP JUMPDEST PUSH0 DUP2 CALLDATALOAD SWAP1 POP PUSH2 0x2FB DUP2 PUSH2 0x2D7 JUMP JUMPDEST SWAP3 SWAP2 POP POP JUMP JUMPDEST PUSH0 DUP1 REVERT JUMPDEST PUSH0 PUSH1 0x1F NOT PUSH1 0x1F DUP4 ADD AND SWAP1 POP SWAP2 SWAP1 POP JUMP JUMPDEST PUSH32 0x4E487B7100000000000000000000000000000000000000000000000000000000 PUSH0 MSTORE PUSH1 0x41 PUSH1 0x4 MSTORE PUSH1 0x24 PUSH0 REVERT JUMPDEST PUSH2 0x34B DUP3 PUSH2 0x305 JUMP JUMPDEST DUP2 ADD DUP2 DUP2 LT PUSH8 0xFFFFFFFFFFFFFFFF DUP3 GT OR ISZERO PUSH2 0x36A JUMPI PUSH2 0x369 PUSH2 0x315 JUMP JUMPDEST JUMPDEST DUP1 PUSH1 0x40 MSTORE POP POP POP JUMP JUMPDEST PUSH0 PUSH2 0x37C PUSH2 0x296 JUMP JUMPDEST SWAP1 POP PUSH2 0x388 DUP3 DUP3 PUSH2 0x342 JUMP JUMPDEST SWAP2 SWAP1 POP JUMP JUMPDEST PUSH0 PUSH8 0xFFFFFFFFFFFFFFFF DUP3 GT ISZERO PUSH2 0x3A7 JUMPI PUSH2 0x3A6 PUSH2 0x315 JUMP JUMPDEST JUMPDEST PUSH1 0x20 DUP3 MUL SWAP1 POP PUSH1 0x20 DUP2 ADD SWAP1 POP SWAP2 SWAP1 POP JUMP JUMPDEST PUSH0 DUP1 REVERT JUMPDEST PUSH0 PUSH2 0x3CE PUSH2 0x3C9 DUP5 PUSH2 0x38D JUMP JUMPDEST PUSH2 0x373 JUMP JUMPDEST SWAP1 POP DUP1 DUP4 DUP3 MSTORE PUSH1 0x20 DUP3 ADD SWAP1 POP PUSH1 0x20 DUP5 MUL DUP4 ADD DUP6 DUP2 GT ISZERO PUSH2 0x3F1 JUMPI PUSH2 0x3F0 PUSH2 0x3B8 JUMP JUMPDEST JUMPDEST DUP4 JUMPDEST DUP2 DUP2 LT ISZERO PUSH2 0x41A JUMPI DUP1 PUSH2 0x406 DUP9 DUP3 PUSH2 0x2ED JUMP JUMPDEST DUP5 MSTORE PUSH1 0x20 DUP5 ADD SWAP4 POP POP PUSH1 0x20 DUP2 ADD SWAP1 POP PUSH2 0x3F3 JUMP JUMPDEST POP POP POP SWAP4 SWAP3 POP POP POP JUMP JUMPDEST PUSH0 DUP3 PUSH1 0x1F DUP4 ADD SLT PUSH2 0x438 JUMPI PUSH2 0x437 PUSH2 0x301 JUMP JUMPDEST JUMPDEST DUP2 CALLDATALOAD PUSH2 0x448 DUP5 DUP3 PUSH1 0x20 DUP7 ADD PUSH2 0x3BC JUMP JUMPDEST SWAP2 POP POP SWAP3 SWAP2 POP POP JUMP JUMPDEST PUSH0 DUP1 PUSH1 0x40 DUP4 DUP6 SUB SLT ISZERO PUSH2 0x467 JUMPI PUSH2 0x466 PUSH2 0x29F JUMP JUMPDEST JUMPDEST PUSH0 PUSH2 0x474 DUP6 DUP3 DUP7 ADD PUSH2 0x2ED JUMP JUMPDEST SWAP3 POP POP PUSH1 0x20 DUP4 ADD CALLDATALOAD PUSH8 0xFFFFFFFFFFFFFFFF DUP2 GT ISZERO PUSH2 0x495 JUMPI PUSH2 0x494 PUSH2 0x2A3 JUMP JUMPDEST JUMPDEST PUSH2 0x4A1 DUP6 DUP3 DUP7 ADD PUSH2 0x424 JUMP JUMPDEST SWAP2 POP POP SWAP3 POP SWAP3 SWAP1 POP JUMP JUMPDEST PUSH0 DUP2 SWAP1 POP SWAP2 SWAP1 POP JUMP JUMPDEST PUSH2 0x4BD DUP2 PUSH2 0x4AB JUMP JUMPDEST DUP3 MSTORE POP POP JUMP JUMPDEST PUSH0 PUSH1 0x20 DUP3 ADD SWAP1 POP PUSH2 0x4D6 PUSH0 DUP4 ADD DUP5 PUSH2 0x4B4 JUMP JUMPDEST SWAP3 SWAP2 POP POP JUMP JUMPDEST PUSH0 DUP2 ISZERO ISZERO SWAP1 POP SWAP2 SWAP1 POP JUMP JUMPDEST PUSH2 0x4F0 DUP2 PUSH2 0x4DC JUMP JUMPDEST DUP3 MSTORE POP POP JUMP JUMPDEST PUSH0 PUSH1 0x20 DUP3 ADD SWAP1 POP PUSH2 0x509 PUSH0 DUP4 ADD DUP5 PUSH2 0x4E7 JUMP JUMPDEST SWAP3 SWAP2 POP POP JUMP JUMPDEST PUSH0 PUSH8 0xFFFFFFFFFFFFFFFF DUP3 GT ISZERO PUSH2 0x529 JUMPI PUSH2 0x528 PUSH2 0x315 JUMP JUMPDEST JUMPDEST PUSH1 0x20 DUP3 MUL SWAP1 POP PUSH1 0x20 DUP2 ADD SWAP1 POP SWAP2 SWAP1 POP JUMP JUMPDEST PUSH0 DUP2 SWAP1 POP SWAP2 SWAP1 POP JUMP JUMPDEST PUSH2 0x54C DUP2 PUSH2 0x53A JUMP JUMPDEST DUP2 EQ PUSH2 0x556 JUMPI PUSH0 DUP1 REVERT JUMPDEST POP JUMP JUMPDEST PUSH0 DUP2 CALLDATALOAD SWAP1 POP PUSH2 0x567 DUP2 PUSH2 0x543 JUMP JUMPDEST SWAP3 SWAP2 POP POP JUMP JUMPDEST PUSH0 PUSH2 0x57F PUSH2 0x57A DUP5 PUSH2 0x50F JUMP JUMPDEST PUSH2 0x373 JUMP JUMPDEST SWAP1 POP DUP1 DUP4 DUP3 MSTORE PUSH1 0x20 DUP3 ADD SWAP1 POP PUSH1 0x20 DUP5 MUL DUP4 ADD DUP6 DUP2 GT ISZERO PUSH2 0x5A2 JUMPI PUSH2 0x5A1 PUSH2 0x3B8 JUMP JUMPDEST JUMPDEST DUP4 JUMPDEST DUP2 DUP2 LT ISZERO PUSH2 0x5CB JUMPI DUP1 PUSH2 0x5B7 DUP9 DUP3 PUSH2 0x559 JUMP JUMPDEST DUP5 MSTORE PUSH1 0x20 DUP5 ADD SWAP4 POP POP PUSH1 0x20 DUP2 ADD SWAP1 POP PUSH2 0x5A4 JUMP JUMPDEST POP POP POP SWAP4 SWAP3 POP POP POP JUMP JUMPDEST PUSH0 DUP3 PUSH1 0x1F DUP4 ADD SLT PUSH2 0x5E9 JUMPI PUSH2 0x5E8 PUSH2 0x301 JUMP JUMPDEST JUMPDEST DUP2 CALLDATALOAD PUSH2 0x5F9 DUP5 DUP3 PUSH1 0x20 DUP7 ADD PUSH2 0x56D JUMP JUMPDEST SWAP2 POP POP SWAP3 SWAP2 POP POP JUMP JUMPDEST PUSH0 PUSH1 0x20 DUP3 DUP5 SUB SLT ISZERO PUSH2 0x617 JUMPI PUSH2 0x616 PUSH2 0x29F JUMP JUMPDEST JUMPDEST PUSH0 DUP3 ADD CALLDATALOAD PUSH8 0xFFFFFFFFFFFFFFFF DUP2 GT ISZERO PUSH2 0x634 JUMPI PUSH2 0x633 PUSH2 0x2A3 JUMP JUMPDEST JUMPDEST PUSH2 0x640 DUP5 DUP3 DUP6 ADD PUSH2 0x5D5 JUMP JUMPDEST SWAP2 POP POP SWAP3 SWAP2 POP POP JUMP JUMPDEST PUSH2 0x652 DUP2 PUSH2 0x53A JUMP JUMPDEST DUP3 MSTORE POP POP JUMP JUMPDEST PUSH0 PUSH1 0x20 DUP3 ADD SWAP1 POP PUSH2 0x66B PUSH0 DUP4 ADD DUP5 PUSH2 0x649 JUMP JUMPDEST SWAP3 SWAP2 POP POP JUMP JUMPDEST PUSH32 0x4E487B7100000000000000000000000000000000000000000000000000000000 PUSH0 MSTORE PUSH1 0x32 PUSH1 0x4 MSTORE PUSH1 0x24 PUSH0 REVERT JUMPDEST PUSH0 PUSH1 0x40 DUP3 ADD SWAP1 POP PUSH2 0x6B1 PUSH0 DUP4 ADD DUP6 PUSH2 0x649 JUMP JUMPDEST PUSH2 0x6BE PUSH1 0x20 DUP4 ADD DUP5 PUSH2 0x649 JUMP JUMPDEST SWAP4 SWAP3 POP POP POP JUMP JUMPDEST PUSH0 DUP2 MLOAD SWAP1 POP PUSH2 0x6D3 DUP2 PUSH2 0x543 JUMP JUMPDEST SWAP3 SWAP2 POP POP JUMP JUMPDEST PUSH0 PUSH1 0x20 DUP3 DUP5 SUB SLT ISZERO PUSH2 0x6EE JUMPI PUSH2 0x6ED PUSH2 0x29F JUMP JUMPDEST JUMPDEST PUSH0 PUSH2 0x6FB DUP5 DUP3 DUP6 ADD PUSH2 0x6C5 JUMP JUMPDEST SWAP2 POP POP SWAP3 SWAP2 POP POP JUMP INVALID LOG2 PUSH5 0x6970667358 0x22 SLT KECCAK256 0xE 0x2C SWAP2 SWAP10 PUSH19 0x6A13719EA0E3C368C382CC446EBBDBC9413735 0xE 0x5D 0xAC DUP15 0xF9 DUP9 PUSH32 0x4C64736F6C634300081600330000000000000000000000000000000000000000 "
				},
				"gasEstimates": {
					"creation": {
						"codeDepositCost": "370000",
						"executionCost": "431",
						"totalCost": "370431"
					},
					"external": {
						"addressIsIn(address,address[])": "infinite",
						"getIndexOf(address,address[])": "infinite",
						"sumOf(int256[])": "infinite"
					}
				},
				"methodIdentifiers": {
					"addressIsIn(address,address[])": "941dfecc",
					"getIndexOf(address,address[])": "4dd0b820",
					"sumOf(int256[])": "b8053ff7"
				}
			},
			"storageLayout": {
				"storage": [],
				"types": null
			},
			"userdoc": {
				"kind": "user",
				"methods": {},
				"notice": "Author: Nan Wang Date: 13-01-2021*",
				"version": 1
			}
		}
	}
}