{
	"data": {
		"bytecode": {
			"linkReferences": {
				"contracts/SafeMath.sol": {
					"SafeMath": [
						{
							"length": 20,
							"start": 12375
						},
						{
							"length": 20,
							"start": 13298
						},
						{
							"length": 20,
							"start": 14029
						}
					]
				}
			},
			"object": "60806040526345f6a89a6012557f418aeeea6f03066901717a84f4e1c8155212eb247e5a01882d50b38687c3766b601355637c9bc7636014557f016bec42056b48d3f692db5367547b6f559463fdef76bbcaa30397dd149a21af60155560405162004c1f38038062004c1f8339818101604052810190620000819190620002d1565b5f3411620000c6576040517f08c379a0000000000000000000000000000000000000000000000000000000008152600401620000bd906200039e565b60405180910390fd5b34600181905550670de0b6b3a7640000600154620000e5919062000418565b60028190555083600381905550335f806101000a81548173ffffffffffffffffffffffffffffffffffffffff021916908373ffffffffffffffffffffffffffffffffffffffff16021790555082426200013f91906200044f565b60058190555081426200015391906200044f565b6006819055508060165f6101000a81548173ffffffffffffffffffffffffffffffffffffffff021916908373ffffffffffffffffffffffffffffffffffffffff160217905550601454601554601354601254604051620001b39062000226565b620001c294939291906200049a565b604051809103905ff080158015620001dc573d5f803e3d5ffd5b5060175f6101000a81548173ffffffffffffffffffffffffffffffffffffffff021916908373ffffffffffffffffffffffffffffffffffffffff16021790555050505050620004e5565b6121ed8062002a3283390190565b5f80fd5b5f819050919050565b6200024c8162000238565b811462000257575f80fd5b50565b5f815190506200026a8162000241565b92915050565b5f73ffffffffffffffffffffffffffffffffffffffff82169050919050565b5f6200029b8262000270565b9050919050565b620002ad816200028f565b8114620002b8575f80fd5b50565b5f81519050620002cb81620002a2565b92915050565b5f805f8060808587031215620002ec57620002eb62000234565b5b5f620002fb878288016200025a565b94505060206200030e878288016200025a565b935050604062000321878288016200025a565b92505060606200033487828801620002bb565b91505092959194509250565b5f82825260208201905092915050565b7f506c656173652073656e64206372656469747320666f7220726577617264732e5f82015250565b5f6200038660208362000340565b9150620003938262000350565b602082019050919050565b5f6020820190508181035f830152620003b78162000378565b9050919050565b7f4e487b71000000000000000000000000000000000000000000000000000000005f52601260045260245ffd5b7f4e487b71000000000000000000000000000000000000000000000000000000005f52601160045260245ffd5b5f620004248262000238565b9150620004318362000238565b925082620004445762000443620003be565b5b828204905092915050565b5f6200045b8262000238565b9150620004688362000238565b9250828201905080821115620004835762000482620003eb565b5b92915050565b620004948162000238565b82525050565b5f608082019050620004af5f83018762000489565b620004be602083018662000489565b620004cd604083018562000489565b620004dc606083018462000489565b95945050505050565b61253f80620004f35f395ff3fe6080604052600436106100f6575f3560e01c80637355a42411610089578063ec98c2c311610058578063ec98c2c314610371578063f9938e28146103ad578063fa840a45146103e9578063ff3bd1fc1461041157610136565b80637355a424146102d75780638e62080214610301578063b5af57191461033d578063caf1124a1461034757610136565b806337d9a251116100c557806337d9a2511461021b5780634da24f031461025757806352a5acce1461027f578063568eb9d1146102bb57610136565b806304ee37e31461013a57806315246493146101675780631b76cf53146101a35780632b1cd65b146101df57610136565b36610136577fa828cd9ff16c976ee98f37c4b96645624f01ae6fde47408f3dfd64833c6b9979333460405161012c929190611320565b60405180910390a1005b5f80fd5b348015610145575f80fd5b5061014e61043b565b60405161015e9493929190611347565b60405180910390f35b348015610172575f80fd5b5061018d600480360381019061018891906113c5565b610459565b60405161019a91906113f0565b60405180910390f35b3480156101ae575f80fd5b506101c960048036038101906101c491906113c5565b610479565b6040516101d691906113f0565b60405180910390f35b3480156101ea575f80fd5b50610205600480360381019061020091906113c5565b610499565b60405161021291906113f0565b60405180910390f35b348015610226575f80fd5b50610241600480360381019061023c91906113c5565b6104b9565b60405161024e91906113f0565b60405180910390f35b348015610262575f80fd5b5061027d60048036038101906102789190611a6a565b6104d9565b005b34801561028a575f80fd5b506102a560048036038101906102a091906113c5565b61089e565b6040516102b291906113f0565b60405180910390f35b6102d560048036038101906102d09190611bb3565b6108be565b005b3480156102e2575f80fd5b506102eb610b6e565b6040516102f891906113f0565b60405180910390f35b34801561030c575f80fd5b50610327600480360381019061032291906113c5565b610bda565b60405161033491906113f0565b60405180910390f35b610345610bfa565b005b348015610352575f80fd5b5061035b610cb2565b6040516103689190611c6c565b60405180910390f35b34801561037c575f80fd5b50610397600480360381019061039291906113c5565b610fd8565b6040516103a491906113f0565b60405180910390f35b3480156103b8575f80fd5b506103d360048036038101906103ce91906113c5565b610ff8565b6040516103e091906113f0565b60405180910390f35b3480156103f4575f80fd5b5061040f600480360381019061040a9190611c8c565b611018565b005b34801561041c575f80fd5b50610425611217565b60405161043291906113f0565b60405180910390f35b5f805f80600354600554600654600254935093509350935090919293565b600d8181548110610468575f80fd5b905f5260205f20015f915090505481565b60098181548110610488575f80fd5b905f5260205f20015f915090505481565b600a81815481106104a8575f80fd5b905f5260205f20015f915090505481565b600f81815481106104c8575f80fd5b905f5260205f20015f915090505481565b5f8054906101000a900473ffffffffffffffffffffffffffffffffffffffff1673ffffffffffffffffffffffffffffffffffffffff163373ffffffffffffffffffffffffffffffffffffffff160361052f575f80fd5b6001151560175f9054906101000a900473ffffffffffffffffffffffffffffffffffffffff1673ffffffffffffffffffffffffffffffffffffffff166322b32dfd8b8b8b6040518463ffffffff1660e01b8152600401610591939291906120ca565b602060405180830381865afa1580156105ac573d5f803e3d5ffd5b505050506040513d601f19601f820116820180604052508101906105d09190612142565b1515146105db575f80fd5b6001151560175f9054906101000a900473ffffffffffffffffffffffffffffffffffffffff1673ffffffffffffffffffffffffffffffffffffffff166322b32dfd8787876040518463ffffffff1660e01b815260040161063d939291906120ca565b602060405180830381865afa158015610658573d5f803e3d5ffd5b505050506040513d601f19601f8201168201806040525081019061067c9190612142565b151514610687575f80fd5b6001151560175f9054906101000a900473ffffffffffffffffffffffffffffffffffffffff1673ffffffffffffffffffffffffffffffffffffffff166309f175c1836040518263ffffffff1660e01b81526004016106e591906121d3565b602060405180830381865afa158015610700573d5f803e3d5ffd5b505050506040513d601f19601f820116820180604052508101906107249190612142565b15151461072f575f80fd5b60018a148061073d57505f8a145b610745575f80fd5b5f5b600c805490508110156107bf5786600c8281548110610769576107686121ec565b5b905f5260205f200154036107b2576040517f08c379a00000000000000000000000000000000000000000000000000000000081526004016107a990612263565b60405180910390fd5b8080600101915050610747565b50600b8a908060018154018082558091505060019003905f5260205f20015f9091909190915055600c86908060018154018082558091505060019003905f5260205f20015f9091909190915055600d82908060018154018082558091505060019003905f5260205f20015f9091909190915055600e815f0151908060018154018082558091505060019003905f5260205f20015f90919091909150557fd7af40570cd7f5f0e1be0997fb6c9e15e4bb0e94e95c76709e186ab29b43986e3360405161088a9190612281565b60405180910390a150505050505050505050565b600e81815481106108ad575f80fd5b905f5260205f20015f915090505481565b5f8054906101000a900473ffffffffffffffffffffffffffffffffffffffff1673ffffffffffffffffffffffffffffffffffffffff163373ffffffffffffffffffffffffffffffffffffffff1603610914575f80fd5b670de0b6b3a7640000341461095e576040517f08c379a00000000000000000000000000000000000000000000000000000000081526004016109559061230a565b60405180910390fd5b6001151560175f9054906101000a900473ffffffffffffffffffffffffffffffffffffffff1673ffffffffffffffffffffffffffffffffffffffff166309f175c1846040518263ffffffff1660e01b81526004016109bc91906121d3565b602060405180830381865afa1580156109d7573d5f803e3d5ffd5b505050506040513d601f19601f820116820180604052508101906109fb9190612142565b1515148015610aa657506001151560175f9054906101000a900473ffffffffffffffffffffffffffffffffffffffff1673ffffffffffffffffffffffffffffffffffffffff166309f175c1836040518263ffffffff1660e01b8152600401610a6391906121d3565b602060405180830381865afa158015610a7e573d5f803e3d5ffd5b505050506040513d601f19601f82011682018060405250810190610aa29190612142565b1515145b610aae575f80fd5b600833908060018154018082558091505060019003905f5260205f20015f9091909190916101000a81548173ffffffffffffffffffffffffffffffffffffffff021916908373ffffffffffffffffffffffffffffffffffffffff1602179055505f825f015190505f825f01519050600982908060018154018082558091505060019003905f5260205f20015f9091909190915055600a81908060018154018082558091505060019003905f5260205f20015f909190919091505550505050565b5f805f9054906101000a900473ffffffffffffffffffffffffffffffffffffffff1673ffffffffffffffffffffffffffffffffffffffff163373ffffffffffffffffffffffffffffffffffffffff1614610bc6575f80fd5b600b80549050600481905550600454905090565b600c8181548110610be9575f80fd5b905f5260205f20015f915090505481565b5f8054906101000a900473ffffffffffffffffffffffffffffffffffffffff1673ffffffffffffffffffffffffffffffffffffffff163373ffffffffffffffffffffffffffffffffffffffff1614610c50575f80fd5b3460015f828254610c619190612355565b92505081905550670de0b6b3a7640000600154610c7e91906123b5565b6002819055507f9fa2f5fb280eee942e87fdf32de60bac1c4349a22c8458b671859aae5a07623760405160405180910390a1565b60605f8054906101000a900473ffffffffffffffffffffffffffffffffffffffff1673ffffffffffffffffffffffffffffffffffffffff163373ffffffffffffffffffffffffffffffffffffffff1614610d0a575f80fd5b5f8060605f5b600b80549050811015610d94576001600b8281548110610d3357610d326121ec565b5b905f5260205f20015403610d54578380610d4c906123e5565b945050610d87565b5f600b8281548110610d6957610d686121ec565b5b905f5260205f20015403610d86578280610d82906123e5565b9350505b5b8080600101915050610d10565b50818310610de15760016011819055506040518060400160405280600981526020017f417661696c61626c6500000000000000000000000000000000000000000000008152509050610e21565b5f6011819055506040518060400160405280600b81526020017f556e617661696c61626c6500000000000000000000000000000000000000000081525090505b5f5b600b80549050811015610eb857601154600b8281548110610e4757610e466121ec565b5b905f5260205f200154148015610e635750600254601080549050105b15610eab576010600d8281548110610e7e57610e7d6121ec565b5b905f5260205f200154908060018154018082558091505060019003905f5260205f20015f90919091909150555b8080600101915050610e23565b50610f3260165f9054906101000a900473ffffffffffffffffffffffffffffffffffffffff166010805480602002602001604051908101604052809291908181526020018280548015610f2857602002820191905f5260205f20905b815481526020019060010190808311610f14575b505050505061121d565b6002546010805490501015610fcf575f670de0b6b3a7640000601080549050600254610f5e919061242c565b610f68919061245f565b90505f8054906101000a900473ffffffffffffffffffffffffffffffffffffffff1673ffffffffffffffffffffffffffffffffffffffff166108fc8290811502906040515f60405180830381858888f19350505050158015610fcc573d5f803e3d5ffd5b50505b80935050505090565b60108181548110610fe7575f80fd5b905f5260205f20015f915090505481565b600b8181548110611007575f80fd5b905f5260205f20015f915090505481565b5f8054906101000a900473ffffffffffffffffffffffffffffffffffffffff1673ffffffffffffffffffffffffffffffffffffffff163373ffffffffffffffffffffffffffffffffffffffff160361106e575f80fd5b5f5b600f805490508110156110b15784600f8281548110611092576110916121ec565b5b905f5260205f200154036110a4575f80fd5b8080600101915050611070565b506001151560175f9054906101000a900473ffffffffffffffffffffffffffffffffffffffff1673ffffffffffffffffffffffffffffffffffffffff166322b32dfd8585856040518463ffffffff1660e01b8152600401611114939291906120ca565b602060405180830381865afa15801561112f573d5f803e3d5ffd5b505050506040513d601f19601f820116820180604052508101906111539190612142565b15151461115e575f80fd5b600f84908060018154018082558091505060019003905f5260205f20015f90919091909150553373ffffffffffffffffffffffffffffffffffffffff166108fc670de0b6b3a764000090811502906040515f60405180830381858888f193505050501580156111cf573d5f803e3d5ffd5b507fcfdb447677de4c6a2d0236986b3a97471105966e41efe3e103788bedb2cd63f033670de0b6b3a76400006040516112099291906124e2565b60405180910390a150505050565b60115481565b5f8290505f5b82518110156112c3578173ffffffffffffffffffffffffffffffffffffffff1663a0712d68670de0b6b3a7640000858481518110611264576112636121ec565b5b60200260200101516040518363ffffffff1660e01b815260040161128891906113f0565b5f604051808303818588803b15801561129f575f80fd5b505af11580156112b1573d5f803e3d5ffd5b50505050508080600101915050611223565b50505050565b5f73ffffffffffffffffffffffffffffffffffffffff82169050919050565b5f6112f2826112c9565b9050919050565b611302816112e8565b82525050565b5f819050919050565b61131a81611308565b82525050565b5f6040820190506113335f8301856112f9565b6113406020830184611311565b9392505050565b5f60808201905061135a5f830187611311565b6113676020830186611311565b6113746040830185611311565b6113816060830184611311565b95945050505050565b5f604051905090565b5f80fd5b5f80fd5b6113a481611308565b81146113ae575f80fd5b50565b5f813590506113bf8161139b565b92915050565b5f602082840312156113da576113d9611393565b5b5f6113e7848285016113b1565b91505092915050565b5f6020820190506114035f830184611311565b92915050565b5f80fd5b5f601f19601f8301169050919050565b7f4e487b71000000000000000000000000000000000000000000000000000000005f52604160045260245ffd5b6114538261140d565b810181811067ffffffffffffffff821117156114725761147161141d565b5b80604052505050565b5f61148461138a565b9050611490828261144a565b919050565b5f80fd5b5f80fd5b5f67ffffffffffffffff8211156114b7576114b661141d565b5b602082029050602081019050919050565b5f80fd5b5f6114de6114d98461149d565b61147b565b90508083825260208201905060208402830185811115611501576115006114c8565b5b835b8181101561152a578061151688826113b1565b845260208401935050602081019050611503565b5050509392505050565b5f82601f83011261154857611547611499565b5b81356115588482602086016114cc565b91505092915050565b5f67ffffffffffffffff82111561157b5761157a61141d565b5b602082029050602081019050919050565b5f819050919050565b61159e8161158c565b81146115a8575f80fd5b50565b5f813590506115b981611595565b92915050565b5f60a082840312156115d4576115d3611409565b5b6115de60a061147b565b90505f6115ed848285016113b1565b5f830152506020611600848285016113b1565b6020830152506040611614848285016115ab565b6040830152506060611628848285016115ab565b606083015250608061163c848285016115ab565b60808301525092915050565b5f61165a61165584611561565b61147b565b90508083825260208201905060a0840283018581111561167d5761167c6114c8565b5b835b818110156116a6578061169288826115bf565b84526020840193505060a08101905061167f565b5050509392505050565b5f82601f8301126116c4576116c3611499565b5b81356116d4848260208601611648565b91505092915050565b5f60c082840312156116f2576116f1611409565b5b6116fc60c061147b565b90505f82013567ffffffffffffffff81111561171b5761171a611495565b5b61172784828501611534565b5f83015250602082013567ffffffffffffffff81111561174a57611749611495565b5b611756848285016116b0565b602083015250604082013567ffffffffffffffff81111561177a57611779611495565b5b61178684828501611534565b604083015250606082013567ffffffffffffffff8111156117aa576117a9611495565b5b6117b684828501611534565b606083015250608082013567ffffffffffffffff8111156117da576117d9611495565b5b6117e684828501611534565b60808301525060a082013567ffffffffffffffff81111561180a57611809611495565b5b61181684828501611534565b60a08301525092915050565b5f67ffffffffffffffff82111561183c5761183b61141d565b5b602082029050602081019050919050565b5f61185f61185a84611822565b61147b565b90508083825260208201905060208402830185811115611882576118816114c8565b5b835b818110156118ab578061189788826115ab565b845260208401935050602081019050611884565b5050509392505050565b5f82601f8301126118c9576118c8611499565b5b81356118d984826020860161184d565b91505092915050565b5f608082840312156118f7576118f6611409565b5b611901608061147b565b90505f82013567ffffffffffffffff8111156119205761191f611495565b5b61192c848285016118b5565b5f83015250602082013567ffffffffffffffff81111561194f5761194e611495565b5b61195b848285016118b5565b602083015250604082013567ffffffffffffffff81111561197f5761197e611495565b5b61198b848285016118b5565b604083015250606061199f848285016115ab565b60608301525092915050565b5f60ff82169050919050565b6119c0816119ab565b81146119ca575f80fd5b50565b5f813590506119db816119b7565b92915050565b5f60a082840312156119f6576119f5611409565b5b611a0060a061147b565b90505f611a0f848285016113b1565b5f830152506020611a22848285016113b1565b6020830152506040611a36848285016113b1565b6040830152506060611a4a848285016113b1565b6060830152506080611a5e848285016113b1565b60808301525092915050565b5f805f805f805f805f806101c08b8d031215611a8957611a88611393565b5b5f611a968d828e016113b1565b9a505060208b013567ffffffffffffffff811115611ab757611ab6611397565b5b611ac38d828e016116dd565b99505060408b013567ffffffffffffffff811115611ae457611ae3611397565b5b611af08d828e016118e2565b9850506060611b018d828e016119cd565b9750506080611b128d828e016113b1565b96505060a08b013567ffffffffffffffff811115611b3357611b32611397565b5b611b3f8d828e016116dd565b95505060c08b013567ffffffffffffffff811115611b6057611b5f611397565b5b611b6c8d828e016118e2565b94505060e0611b7d8d828e016119cd565b935050610100611b8f8d828e016113b1565b925050610120611ba18d828e016119e1565b9150509295989b9194979a5092959850565b5f806101408385031215611bca57611bc9611393565b5b5f611bd7858286016119e1565b92505060a0611be8858286016119e1565b9150509250929050565b5f81519050919050565b5f82825260208201905092915050565b5f5b83811015611c29578082015181840152602081019050611c0e565b5f8484015250505050565b5f611c3e82611bf2565b611c488185611bfc565b9350611c58818560208601611c0c565b611c618161140d565b840191505092915050565b5f6020820190508181035f830152611c848184611c34565b905092915050565b5f805f8060808587031215611ca457611ca3611393565b5b5f611cb1878288016113b1565b945050602085013567ffffffffffffffff811115611cd257611cd1611397565b5b611cde878288016116dd565b935050604085013567ffffffffffffffff811115611cff57611cfe611397565b5b611d0b878288016118e2565b9250506060611d1c878288016119cd565b91505092959194509250565b5f81519050919050565b5f82825260208201905092915050565b5f819050602082019050919050565b611d5a81611308565b82525050565b5f611d6b8383611d51565b60208301905092915050565b5f602082019050919050565b5f611d8d82611d28565b611d978185611d32565b9350611da283611d42565b805f5b83811015611dd2578151611db98882611d60565b9750611dc483611d77565b925050600181019050611da5565b5085935050505092915050565b5f81519050919050565b5f82825260208201905092915050565b5f819050602082019050919050565b611e118161158c565b82525050565b60a082015f820151611e2b5f850182611d51565b506020820151611e3e6020850182611d51565b506040820151611e516040850182611e08565b506060820151611e646060850182611e08565b506080820151611e776080850182611e08565b50505050565b5f611e888383611e17565b60a08301905092915050565b5f602082019050919050565b5f611eaa82611ddf565b611eb48185611de9565b9350611ebf83611df9565b805f5b83811015611eef578151611ed68882611e7d565b9750611ee183611e94565b925050600181019050611ec2565b5085935050505092915050565b5f60c083015f8301518482035f860152611f168282611d83565b91505060208301518482036020860152611f308282611ea0565b91505060408301518482036040860152611f4a8282611d83565b91505060608301518482036060860152611f648282611d83565b91505060808301518482036080860152611f7e8282611d83565b91505060a083015184820360a0860152611f988282611d83565b9150508091505092915050565b5f81519050919050565b5f82825260208201905092915050565b5f819050602082019050919050565b5f611fd98383611e08565b60208301905092915050565b5f602082019050919050565b5f611ffb82611fa5565b6120058185611faf565b935061201083611fbf565b805f5b838110156120405781516120278882611fce565b975061203283611fe5565b925050600181019050612013565b5085935050505092915050565b5f608083015f8301518482035f8601526120678282611ff1565b915050602083015184820360208601526120818282611ff1565b9150506040830151848203604086015261209b8282611ff1565b91505060608301516120b06060860182611e08565b508091505092915050565b6120c4816119ab565b82525050565b5f6060820190508181035f8301526120e28186611efc565b905081810360208301526120f6818561204d565b905061210560408301846120bb565b949350505050565b5f8115159050919050565b6121218161210d565b811461212b575f80fd5b50565b5f8151905061213c81612118565b92915050565b5f6020828403121561215757612156611393565b5b5f6121648482850161212e565b91505092915050565b60a082015f8201516121815f850182611d51565b5060208201516121946020850182611d51565b5060408201516121a76040850182611d51565b5060608201516121ba6060850182611d51565b5060808201516121cd6080850182611d51565b50505050565b5f60a0820190506121e65f83018461216d565b92915050565b7f4e487b71000000000000000000000000000000000000000000000000000000005f52603260045260245ffd5b7f7120686173206265656e2072657665616c6564206265666f72650000000000005f82015250565b5f61224d601a83611bfc565b915061225882612219565b602082019050919050565b5f6020820190508181035f83015261227a81612241565b9050919050565b5f6020820190506122945f8301846112f9565b92915050565b7f596f75206e65656420746f207374616b65203120457468657220746f207375625f8201527f6d69742064617461210000000000000000000000000000000000000000000000602082015250565b5f6122f4602983611bfc565b91506122ff8261229a565b604082019050919050565b5f6020820190508181035f830152612321816122e8565b9050919050565b7f4e487b71000000000000000000000000000000000000000000000000000000005f52601160045260245ffd5b5f61235f82611308565b915061236a83611308565b925082820190508082111561238257612381612328565b5b92915050565b7f4e487b71000000000000000000000000000000000000000000000000000000005f52601260045260245ffd5b5f6123bf82611308565b91506123ca83611308565b9250826123da576123d9612388565b5b828204905092915050565b5f6123ef82611308565b91507fffffffffffffffffffffffffffffffffffffffffffffffffffffffffffffffff820361242157612420612328565b5b600182019050919050565b5f61243682611308565b915061244183611308565b925082820390508181111561245957612458612328565b5b92915050565b5f61246982611308565b915061247483611308565b925082820261248281611308565b9150828204841483151761249957612498612328565b5b5092915050565b5f819050919050565b5f819050919050565b5f6124cc6124c76124c2846124a0565b6124a9565b611308565b9050919050565b6124dc816124b2565b82525050565b5f6040820190506124f55f8301856112f9565b61250260208301846124d3565b939250505056fea2646970667358221220bd52b3488c81ec873bc068c216367c50d28a0afdd135ffbc077827f3049d4e2264736f6c63430008160033608060405234801562000010575f80fd5b50604051620021ed380380620021ed833981810160405281019062000036919062000097565b835f819055508260018190555081600281905550806003819055505050505062000106565b5f80fd5b5f819050919050565b62000073816200005f565b81146200007e575f80fd5b50565b5f81519050620000918162000068565b92915050565b5f805f8060808587031215620000b257620000b16200005b565b5b5f620000c18782880162000081565b9450506020620000d48782880162000081565b9350506040620000e78782880162000081565b9250506060620000fa8782880162000081565b91505092959194509250565b6120d980620001145f395ff3fe608060405234801561000f575f80fd5b50600436106100e8575f3560e01c80637e58f9011161008a578063a1991acc11610064578063a1991acc146102b8578063a6806d91146102e8578063ab22520614610318578063b455cb4b14610348576100e8565b80637e58f9011461022857806399977969146102585780639cd479b614610288576100e8565b80631be57fbb116100c65780631be57fbb1461017c578063229436461461019857806322b32dfd146101c857806360c4b7f1146101f8576100e8565b806309f175c1146100ec5780631351df0b1461011c578063156896741461014c575b5f80fd5b6101066004803603810190610101919061127a565b610378565b60405161011391906112bf565b60405180910390f35b610136600480360381019061013191906112d8565b610423565b6040516101439190611325565b60405180910390f35b61016660048036038101906101619190611371565b61046e565b6040516101739190611325565b60405180910390f35b61019660048036038101906101919190611438565b6104ba565b005b6101b260048036038101906101ad91906114ac565b610606565b6040516101bf91906114f9565b60405180910390f35b6101e260048036038101906101dd9190611968565b610619565b6040516101ef91906112bf565b60405180910390f35b610212600480360381019061020d91906112d8565b61080e565b60405161021f9190611325565b60405180910390f35b610242600480360381019061023d91906119f0565b61085a565b60405161024f9190611325565b60405180910390f35b610272600480360381019061026d9190611a37565b61092d565b60405161027f91906112bf565b60405180910390f35b6102a2600480360381019061029d9190611ad3565b6109c6565b6040516102af9190611325565b60405180910390f35b6102d260048036038101906102cd9190611b1a565b610c0d565b6040516102df9190611325565b60405180910390f35b61030260048036038101906102fd91906112d8565b610c2d565b60405161030f9190611325565b60405180910390f35b610332600480360381019061032d91906112d8565b610c4d565b60405161033f9190611325565b60405180910390f35b610362600480360381019061035d9190611b45565b610c6a565b60405161036f9190611325565b60405180910390f35b5f80825f015190505f836020015190505f846040015190505f856060015190505f866080015190505f600254806103b2576103b1611b83565b5b6103cb83600254600154610c8a9092919063ffffffff16565b6103e3856002545f54610c8a9092919063ffffffff16565b0990505f6103fa866103f58988610c2d565b610c4d565b905080820361041357600197505050505050505061041e565b5f9750505050505050505b919050565b5f807fffffffffffffffffffffffffffffffffffffffffffffffffffffffffffffffff90506002548061045957610458611b83565b5b6104638483610c6a565b850991505092915050565b5f600254806104805761047f611b83565b5b61049983600254600154610d9a9092919063ffffffff16565b6104b1856002545f54610d9a9092919063ffffffff16565b09905092915050565b5f815f015190505f826020015190505f836040015190505f846060015190505f856080015190505f8786866040516020016104f793929190611bd0565b604051602081830303815290604052805190602001205f1c73__$438773560da8ebd76b582f48732bda290a$__63f43f523a90916003546040518363ffffffff1660e01b815260040161054b929190611c1b565b602060405180830381865af4158015610566573d5f803e3d5ffd5b505050506040513d601f19601f8201168201806040525081019061058a9190611c56565b90505f610597858561046e565b90505f6105ad6105a78b85610c2d565b89610c4d565b90505f6105ba5f8661046e565b90505f6105db6105d58d8a886105d09190611cae565b610c6a565b8a610c4d565b905082841480156105eb57508082145b6105f8576105f7611cee565b5b505050505050505050505050565b5f60018260ff1684901c16905092915050565b5f80845f015190505f856040015190505f8660a0015190505f865f015190505f8760600151905061064e848a60200151610dda565b5f6106588a6109c6565b90505f819050610674868c60600151868d60200151858e610e35565b61068a868c60800151868d60400151858e610efa565b5f600190505f5b8851811015610775575f600190505f5b8c60ff168160ff1610156107375760016106bb8483610606565b60ff16036106f357878160ff16815181106106d9576106d8611d1b565b5b6020026020010151826106ec9190611d48565b915061072a565b878160ff168151811061070957610708611d1b565b5b60200260200101518561071c9190611cae565b826107279190611d48565b91505b80806001019150506106a1565b50610765836107608c858151811061075257610751611d1b565b5b602002602001015184610c6a565b610c4d565b9250508080600101915050610691565b505f5b8a60ff168110156107d3576107c4826107bf89848151811061079d5761079c611d1b565b5b602002602001015184876107b19190611f04565b6107ba90611f6f565b610c6a565b610c4d565b91508080600101915050610778565b505f6107df5f8661046e565b90508082036107fa5760019950505050505050505050610807565b5f99505050505050505050505b9392505050565b5f600254806108205761081f611b83565b5b61083983600254600154610c8a9092919063ffffffff16565b610851856002545f54610c8a9092919063ffffffff16565b09905092915050565b5f80600190505f5b83518110156108a8576002548061087c5761087b611b83565b5b84828151811061088f5761088e611d1b565b5b6020026020010151830991508080600101915050610862565b508073__$438773560da8ebd76b582f48732bda290a$__63f43f523a90916002546040518363ffffffff1660e01b81526004016108e6929190611c1b565b602060405180830381865af4158015610901573d5f803e3d5ffd5b505050506040513d601f19601f820116820180604052508101906109259190611c56565b915050919050565b5f80845f015190505f5b81518110156109af5761098382828151811061095657610955611d1b565b5b602002602001015161097e61096a8a610fca565b6002545f54610d9a9092919063ffffffff16565b610c4d565b82828151811061099657610995611d1b565b5b6020026020010181815250508080600101915050610937565b506109bb858585610619565b915050949350505050565b5f80825f015190505f836040015190505f846060015190505f856080015190505f8660a0015190505f805b8651811015610a375760025480610a0b57610a0a611b83565b5b878281518110610a1e57610a1d611d1b565b5b60200260200101518308915080806001019150506109f1565b505f5b8551811015610a805760025480610a5457610a53611b83565b5b868281518110610a6757610a66611d1b565b5b6020026020010151830891508080600101915050610a3a565b505f5b8451811015610ac95760025480610a9d57610a9c611b83565b5b858281518110610ab057610aaf611d1b565b5b6020026020010151830891508080600101915050610a83565b505f5b8351811015610b125760025480610ae657610ae5611b83565b5b848281518110610af957610af8611d1b565b5b6020026020010151830891508080600101915050610acc565b505f5b8251811015610b5b5760025480610b2f57610b2e611b83565b5b838281518110610b4257610b41611d1b565b5b6020026020010151830891508080600101915050610b15565b5080604051602001610b6d9190611fb5565b604051602081830303815290604052805190602001205f1c73__$438773560da8ebd76b582f48732bda290a$__63f43f523a90916003546040518363ffffffff1660e01b8152600401610bc1929190611c1b565b602060405180830381865af4158015610bdc573d5f803e3d5ffd5b505050506040513d601f19601f82011682018060405250810190610c009190611c56565b9650505050505050919050565b5f610c26826002545f54610c8a9092919063ffffffff16565b9050919050565b5f610c458260025485610c8a9092919063ffffffff16565b905092915050565b5f60025480610c5f57610c5e611b83565b5b828409905092915050565b5f610c828260025485610d9a9092919063ffffffff16565b905092915050565b5f80610c946110d9565b610c9c6110fb565b6020815f60068110610cb157610cb0611d1b565b5b602002018181525050602081600160068110610cd057610ccf611d1b565b5b602002018181525050602081600260068110610cef57610cee611d1b565b5b6020020181815250508681600360068110610d0d57610d0c611d1b565b5b6020020181815250508581600460068110610d2b57610d2a611d1b565b5b6020020181815250508481600560068110610d4957610d48611d1b565b5b60200201818152505060208260c08360056107d05a03fa9250825f8103610d6c57fe5b5082610d76575f80fd5b815f60018110610d8957610d88611d1b565b5b602002015193505050509392505050565b5f808312610db457610dad848484610c8a565b9050610dd3565b610dd0610dc18584610fdb565b610dca85611094565b84610c8a565b90505b9392505050565b5f5b8251811015610e3057610e23838281518110610dfb57610dfa611d1b565b5b6020026020010151838381518110610e1657610e15611d1b565b5b60200260200101516104ba565b8080600101915050610ddc565b505050565b5f5b8160ff16811015610ef1575f858281518110610e5657610e55611d1b565b5b602002602001015190505f610ea8610e888a8581518110610e7a57610e79611d1b565b5b602002602001015187610c6a565b898581518110610e9b57610e9a611d1b565b5b6020026020010151610c4d565b90505f610ecf83888681518110610ec257610ec1611d1b565b5b602002602001015161046e565b9050808214610ee157610ee0611cee565b5b5050508080600101915050610e37565b50505050505050565b5f5b8160ff16811015610fc1575f858281518110610f1b57610f1a611d1b565b5b602002602001015190505f610f78610f588a8581518110610f3f57610f3e611d1b565b5b60200260200101518488610f539190611cae565b610c6a565b898581518110610f6b57610f6a611d1b565b5b6020026020010151610c4d565b90505f610f9f5f888681518110610f9257610f91611d1b565b5b602002602001015161046e565b9050808214610fb157610fb0611cee565b5b5050508080600101915050610efc565b50505050505050565b5f610fd4826110c7565b9050919050565b5f81831115610ff3578183610ff09190611fcf565b92505b5f80600190505f8490505f8690505f5b5f821461105d5781836110169190611fff565b90508384826110259190611d48565b866110309190611cae565b83848461103d919061202f565b866110489190612070565b80955081965082975083985050505050611003565b5f8512156110855761106e85611094565b876110799190612070565b9550505050505061108e565b84955050505050505b92915050565b5f808213156110a5578190506110c2565b5f8212156110be57816110b790611f6f565b90506110c2565b5f90505b919050565b5f816110d290611f6f565b9050919050565b6040518060200160405280600190602082028036833780820191505090505090565b6040518060c00160405280600690602082028036833780820191505090505090565b5f604051905090565b5f80fd5b5f80fd5b5f80fd5b5f601f19601f8301169050919050565b7f4e487b71000000000000000000000000000000000000000000000000000000005f52604160045260245ffd5b61117882611132565b810181811067ffffffffffffffff8211171561119757611196611142565b5b80604052505050565b5f6111a961111d565b90506111b5828261116f565b919050565b5f80fd5b5f819050919050565b6111d0816111be565b81146111da575f80fd5b50565b5f813590506111eb816111c7565b92915050565b5f60a082840312156112065761120561112e565b5b61121060a06111a0565b90505f61121f848285016111dd565b5f830152506020611232848285016111dd565b6020830152506040611246848285016111dd565b604083015250606061125a848285016111dd565b606083015250608061126e848285016111dd565b60808301525092915050565b5f60a0828403121561128f5761128e611126565b5b5f61129c848285016111f1565b91505092915050565b5f8115159050919050565b6112b9816112a5565b82525050565b5f6020820190506112d25f8301846112b0565b92915050565b5f80604083850312156112ee576112ed611126565b5b5f6112fb858286016111dd565b925050602061130c858286016111dd565b9150509250929050565b61131f816111be565b82525050565b5f6020820190506113385f830184611316565b92915050565b5f819050919050565b6113508161133e565b811461135a575f80fd5b50565b5f8135905061136b81611347565b92915050565b5f806040838503121561138757611386611126565b5b5f6113948582860161135d565b92505060206113a58582860161135d565b9150509250929050565b5f60a082840312156113c4576113c361112e565b5b6113ce60a06111a0565b90505f6113dd848285016111dd565b5f8301525060206113f0848285016111dd565b60208301525060406114048482850161135d565b60408301525060606114188482850161135d565b606083015250608061142c8482850161135d565b60808301525092915050565b5f8060c0838503121561144e5761144d611126565b5b5f61145b858286016111dd565b925050602061146c858286016113af565b9150509250929050565b5f60ff82169050919050565b61148b81611476565b8114611495575f80fd5b50565b5f813590506114a681611482565b92915050565b5f80604083850312156114c2576114c1611126565b5b5f6114cf858286016111dd565b92505060206114e085828601611498565b9150509250929050565b6114f381611476565b82525050565b5f60208201905061150c5f8301846114ea565b92915050565b5f80fd5b5f67ffffffffffffffff8211156115305761152f611142565b5b602082029050602081019050919050565b5f80fd5b5f61155761155284611516565b6111a0565b9050808382526020820190506020840283018581111561157a57611579611541565b5b835b818110156115a3578061158f88826111dd565b84526020840193505060208101905061157c565b5050509392505050565b5f82601f8301126115c1576115c0611512565b5b81356115d1848260208601611545565b91505092915050565b5f67ffffffffffffffff8211156115f4576115f3611142565b5b602082029050602081019050919050565b5f611617611612846115da565b6111a0565b90508083825260208201905060a0840283018581111561163a57611639611541565b5b835b81811015611663578061164f88826113af565b84526020840193505060a08101905061163c565b5050509392505050565b5f82601f83011261168157611680611512565b5b8135611691848260208601611605565b91505092915050565b5f60c082840312156116af576116ae61112e565b5b6116b960c06111a0565b90505f82013567ffffffffffffffff8111156116d8576116d76111ba565b5b6116e4848285016115ad565b5f83015250602082013567ffffffffffffffff811115611707576117066111ba565b5b6117138482850161166d565b602083015250604082013567ffffffffffffffff811115611737576117366111ba565b5b611743848285016115ad565b604083015250606082013567ffffffffffffffff811115611767576117666111ba565b5b611773848285016115ad565b606083015250608082013567ffffffffffffffff811115611797576117966111ba565b5b6117a3848285016115ad565b60808301525060a082013567ffffffffffffffff8111156117c7576117c66111ba565b5b6117d3848285016115ad565b60a08301525092915050565b5f67ffffffffffffffff8211156117f9576117f8611142565b5b602082029050602081019050919050565b5f61181c611817846117df565b6111a0565b9050808382526020820190506020840283018581111561183f5761183e611541565b5b835b818110156118685780611854888261135d565b845260208401935050602081019050611841565b5050509392505050565b5f82601f83011261188657611885611512565b5b813561189684826020860161180a565b91505092915050565b5f608082840312156118b4576118b361112e565b5b6118be60806111a0565b90505f82013567ffffffffffffffff8111156118dd576118dc6111ba565b5b6118e984828501611872565b5f83015250602082013567ffffffffffffffff81111561190c5761190b6111ba565b5b61191884828501611872565b602083015250604082013567ffffffffffffffff81111561193c5761193b6111ba565b5b61194884828501611872565b604083015250606061195c8482850161135d565b60608301525092915050565b5f805f6060848603121561197f5761197e611126565b5b5f84013567ffffffffffffffff81111561199c5761199b61112a565b5b6119a88682870161169a565b935050602084013567ffffffffffffffff8111156119c9576119c861112a565b5b6119d58682870161189f565b92505060406119e686828701611498565b9150509250925092565b5f60208284031215611a0557611a04611126565b5b5f82013567ffffffffffffffff811115611a2257611a2161112a565b5b611a2e848285016115ad565b91505092915050565b5f805f8060808587031215611a4f57611a4e611126565b5b5f611a5c878288016111dd565b945050602085013567ffffffffffffffff811115611a7d57611a7c61112a565b5b611a898782880161169a565b935050604085013567ffffffffffffffff811115611aaa57611aa961112a565b5b611ab68782880161189f565b9250506060611ac787828801611498565b91505092959194509250565b5f60208284031215611ae857611ae7611126565b5b5f82013567ffffffffffffffff811115611b0557611b0461112a565b5b611b118482850161169a565b91505092915050565b5f60208284031215611b2f57611b2e611126565b5b5f611b3c848285016111dd565b91505092915050565b5f8060408385031215611b5b57611b5a611126565b5b5f611b68858286016111dd565b9250506020611b798582860161135d565b9150509250929050565b7f4e487b71000000000000000000000000000000000000000000000000000000005f52601260045260245ffd5b5f819050919050565b611bca611bc5826111be565b611bb0565b82525050565b5f611bdb8286611bb9565b602082019150611beb8285611bb9565b602082019150611bfb8284611bb9565b602082019150819050949350505050565b611c15816111be565b82525050565b5f604082019050611c2e5f830185611c0c565b611c3b6020830184611c0c565b9392505050565b5f81519050611c50816111c7565b92915050565b5f60208284031215611c6b57611c6a611126565b5b5f611c7884828501611c42565b91505092915050565b7f4e487b71000000000000000000000000000000000000000000000000000000005f52601160045260245ffd5b5f611cb88261133e565b9150611cc38361133e565b925082820390508181125f8412168282135f851215161715611ce857611ce7611c81565b5b92915050565b7f4e487b71000000000000000000000000000000000000000000000000000000005f52600160045260245ffd5b7f4e487b71000000000000000000000000000000000000000000000000000000005f52603260045260245ffd5b5f611d528261133e565b9150611d5d8361133e565b9250828202611d6b8161133e565b91507f800000000000000000000000000000000000000000000000000000000000000084145f84121615611da257611da1611c81565b5b8282058414831517611db757611db6611c81565b5b5092915050565b5f8160011c9050919050565b5f808291508390505b6001851115611e1357808604811115611def57611dee611c81565b5b6001851615611dfe5780820291505b8081029050611e0c85611dbe565b9450611dd3565b94509492505050565b5f825f8114611e325760018114611e3c57611e45565b6001915050611efc565b82915050611efc565b5081611e53575f9050611efc565b600190505f821360018114611e6e575f8114611e8657611e9a565b828604831115611e8157611e80611c81565b5b611e9a565b828605831215611e9957611e98611c81565b5b5b506001831615611ea8578190505b8182029150611eb683611dbe565b9250611ec485848484611dca565b9250905081850481115f82131615611edf57611ede611c81565b5b81840581125f82121615611ef657611ef5611c81565b5b81810290505b949350505050565b5f611f0e8261133e565b9150611f19836111be565b9250611f677f7fffffffffffffffffffffffffffffffffffffffffffffffffffffffffffffff7f80000000000000000000000000000000000000000000000000000000000000008585611e1c565b905092915050565b5f611f798261133e565b91507f80000000000000000000000000000000000000000000000000000000000000008203611fab57611faa611c81565b5b815f039050919050565b5f611fc08284611bb9565b60208201915081905092915050565b5f611fd9826111be565b9150611fe4836111be565b925082611ff457611ff3611b83565b5b828206905092915050565b5f612009826111be565b9150612014836111be565b92508261202457612023611b83565b5b828204905092915050565b5f612039826111be565b9150612044836111be565b9250828202612052816111be565b9150828204841483151761206957612068611c81565b5b5092915050565b5f61207a826111be565b9150612085836111be565b925082820390508181111561209d5761209c611c81565b5b9291505056fea26469706673582212207e74345a526fe3081310f448a5ea741edac1c0d437be5e59ef20712480b1e4de64736f6c63430008160033",
			"opcodes": "PUSH1 0x80 PUSH1 0x40 MSTORE PUSH4 0x45F6A89A PUSH1 0x12 SSTORE PUSH32 0x418AEEEA6F03066901717A84F4E1C8155212EB247E5A01882D50B38687C3766B PUSH1 0x13 SSTORE PUSH4 0x7C9BC763 PUSH1 0x14 SSTORE PUSH32 0x16BEC42056B48D3F692DB5367547B6F559463FDEF76BBCAA30397DD149A21AF PUSH1 0x15 SSTORE PUSH1 0x40 MLOAD PUSH3 0x4C1F CODESIZE SUB DUP1 PUSH3 0x4C1F DUP4 CODECOPY DUP2 DUP2 ADD PUSH1 0x40 MSTORE DUP2 ADD SWAP1 PUSH3 0x81 SWAP2 SWAP1 PUSH3 0x2D1 JUMP JUMPDEST PUSH0 CALLVALUE GT PUSH3 0xC6 JUMPI PUSH1 0x40 MLOAD PUSH32 0x8C379A000000000000000000000000000000000000000000000000000000000 DUP2 MSTORE PUSH1 0x4 ADD PUSH3 0xBD SWAP1 PUSH3 0x39E JUMP JUMPDEST PUSH1 0x40 MLOAD DUP1 SWAP2 SUB SWAP1 REVERT JUMPDEST CALLVALUE PUSH1 0x1 DUP2 SWAP1 SSTORE POP PUSH8 0xDE0B6B3A7640000 PUSH1 0x1 SLOAD PUSH3 0xE5 SWAP2 SWAP1 PUSH3 0x418 JUMP JUMPDEST PUSH1 0x2 DUP2 SWAP1 SSTORE POP DUP4 PUSH1 0x3 DUP2 SWAP1 SSTORE POP CALLER PUSH0 DUP1 PUSH2 0x100 EXP DUP2 SLOAD DUP2 PUSH20 0xFFFFFFFFFFFFFFFFFFFFFFFFFFFFFFFFFFFFFFFF MUL NOT AND SWAP1 DUP4 PUSH20 0xFFFFFFFFFFFFFFFFFFFFFFFFFFFFFFFFFFFFFFFF AND MUL OR SWAP1 SSTORE POP DUP3 TIMESTAMP PUSH3 0x13F SWAP2 SWAP1 PUSH3 0x44F JUMP JUMPDEST PUSH1 0x5 DUP2 SWAP1 SSTORE POP DUP2 TIMESTAMP PUSH3 0x153 SWAP2 SWAP1 PUSH3 0x44F JUMP JUMPDEST PUSH1 0x6 DUP2 SWAP1 SSTORE POP DUP1 PUSH1 0x16 PUSH0 PUSH2 0x100 EXP DUP2 SLOAD DUP2 PUSH20 0xFFFFFFFFFFFFFFFFFFFFFFFFFFFFFFFFFFFFFFFF MUL NOT AND SWAP1 DUP4 PUSH20 0xFFFFFFFFFFFFFFFFFFFFFFFFFFFFFFFFFFFFFFFF AND MUL OR SWAP1 SSTORE POP PUSH1 0x14 SLOAD PUSH1 0x15 SLOAD PUSH1 0x13 SLOAD PUSH1 0x12 SLOAD PUSH1 0x40 MLOAD PUSH3 0x1B3 SWAP1 PUSH3 0x226 JUMP JUMPDEST PUSH3 0x1C2 SWAP5 SWAP4 SWAP3 SWAP2 SWAP1 PUSH3 0x49A JUMP JUMPDEST PUSH1 0x40 MLOAD DUP1 SWAP2 SUB SWAP1 PUSH0 CREATE DUP1 ISZERO DUP1 ISZERO PUSH3 0x1DC JUMPI RETURNDATASIZE PUSH0 DUP1 RETURNDATACOPY RETURNDATASIZE PUSH0 REVERT JUMPDEST POP PUSH1 0x17 PUSH0 PUSH2 0x100 EXP DUP2 SLOAD DUP2 PUSH20 0xFFFFFFFFFFFFFFFFFFFFFFFFFFFFFFFFFFFFFFFF MUL NOT AND SWAP1 DUP4 PUSH20 0xFFFFFFFFFFFFFFFFFFFFFFFFFFFFFFFFFFFFFFFF AND MUL OR SWAP1 SSTORE POP POP POP POP POP PUSH3 0x4E5 JUMP JUMPDEST PUSH2 0x21ED DUP1 PUSH3 0x2A32 DUP4 CODECOPY ADD SWAP1 JUMP JUMPDEST PUSH0 DUP1 REVERT JUMPDEST PUSH0 DUP2 SWAP1 POP SWAP2 SWAP1 POP JUMP JUMPDEST PUSH3 0x24C DUP2 PUSH3 0x238 JUMP JUMPDEST DUP2 EQ PUSH3 0x257 JUMPI PUSH0 DUP1 REVERT JUMPDEST POP JUMP JUMPDEST PUSH0 DUP2 MLOAD SWAP1 POP PUSH3 0x26A DUP2 PUSH3 0x241 JUMP JUMPDEST SWAP3 SWAP2 POP POP JUMP JUMPDEST PUSH0 PUSH20 0xFFFFFFFFFFFFFFFFFFFFFFFFFFFFFFFFFFFFFFFF DUP3 AND SWAP1 POP SWAP2 SWAP1 POP JUMP JUMPDEST PUSH0 PUSH3 0x29B DUP3 PUSH3 0x270 JUMP JUMPDEST SWAP1 POP SWAP2 SWAP1 POP JUMP JUMPDEST PUSH3 0x2AD DUP2 PUSH3 0x28F JUMP JUMPDEST DUP2 EQ PUSH3 0x2B8 JUMPI PUSH0 DUP1 REVERT JUMPDEST POP JUMP JUMPDEST PUSH0 DUP2 MLOAD SWAP1 POP PUSH3 0x2CB DUP2 PUSH3 0x2A2 JUMP JUMPDEST SWAP3 SWAP2 POP POP JUMP JUMPDEST PUSH0 DUP1 PUSH0 DUP1 PUSH1 0x80 DUP6 DUP8 SUB SLT ISZERO PUSH3 0x2EC JUMPI PUSH3 0x2EB PUSH3 0x234 JUMP JUMPDEST JUMPDEST PUSH0 PUSH3 0x2FB DUP8 DUP3 DUP9 ADD PUSH3 0x25A JUMP JUMPDEST SWAP5 POP POP PUSH1 0x20 PUSH3 0x30E DUP8 DUP3 DUP9 ADD PUSH3 0x25A JUMP JUMPDEST SWAP4 POP POP PUSH1 0x40 PUSH3 0x321 DUP8 DUP3 DUP9 ADD PUSH3 0x25A JUMP JUMPDEST SWAP3 POP POP PUSH1 0x60 PUSH3 0x334 DUP8 DUP3 DUP9 ADD PUSH3 0x2BB JUMP JUMPDEST SWAP2 POP POP SWAP3 SWAP6 SWAP2 SWAP5 POP SWAP3 POP JUMP JUMPDEST PUSH0 DUP3 DUP3 MSTORE PUSH1 0x20 DUP3 ADD SWAP1 POP SWAP3 SWAP2 POP POP JUMP JUMPDEST PUSH32 0x506C656173652073656E64206372656469747320666F7220726577617264732E PUSH0 DUP3 ADD MSTORE POP JUMP JUMPDEST PUSH0 PUSH3 0x386 PUSH1 0x20 DUP4 PUSH3 0x340 JUMP JUMPDEST SWAP2 POP PUSH3 0x393 DUP3 PUSH3 0x350 JUMP JUMPDEST PUSH1 0x20 DUP3 ADD SWAP1 POP SWAP2 SWAP1 POP JUMP JUMPDEST PUSH0 PUSH1 0x20 DUP3 ADD SWAP1 POP DUP2 DUP2 SUB PUSH0 DUP4 ADD MSTORE PUSH3 0x3B7 DUP2 PUSH3 0x378 JUMP JUMPDEST SWAP1 POP SWAP2 SWAP1 POP JUMP JUMPDEST PUSH32 0x4E487B7100000000000000000000000000000000000000000000000000000000 PUSH0 MSTORE PUSH1 0x12 PUSH1 0x4 MSTORE PUSH1 0x24 PUSH0 REVERT JUMPDEST PUSH32 0x4E487B7100000000000000000000000000000000000000000000000000000000 PUSH0 MSTORE PUSH1 0x11 PUSH1 0x4 MSTORE PUSH1 0x24 PUSH0 REVERT JUMPDEST PUSH0 PUSH3 0x424 DUP3 PUSH3 0x238 JUMP JUMPDEST SWAP2 POP PUSH3 0x431 DUP4 PUSH3 0x238 JUMP JUMPDEST SWAP3 POP DUP3 PUSH3 0x444 JUMPI PUSH3 0x443 PUSH3 0x3BE JUMP JUMPDEST JUMPDEST DUP3 DUP3 DIV SWAP1 POP SWAP3 SWAP2 POP POP JUMP JUMPDEST PUSH0 PUSH3 0x45B DUP3 PUSH3 0x238 JUMP JUMPDEST SWAP2 POP PUSH3 0x468 DUP4 PUSH3 0x238 JUMP JUMPDEST SWAP3 POP DUP3 DUP3 ADD SWAP1 POP DUP1 DUP3 GT ISZERO PUSH3 0x483 JUMPI PUSH3 0x482 PUSH3 0x3EB JUMP JUMPDEST JUMPDEST SWAP3 SWAP2 POP POP JUMP JUMPDEST PUSH3 0x494 DUP2 PUSH3 0x238 JUMP JUMPDEST DUP3 MSTORE POP POP JUMP JUMPDEST PUSH0 PUSH1 0x80 DUP3 ADD SWAP1 POP PUSH3 0x4AF PUSH0 DUP4 ADD DUP8 PUSH3 0x489 JUMP JUMPDEST PUSH3 0x4BE PUSH1 0x20 DUP4 ADD DUP7 PUSH3 0x489 JUMP JUMPDEST PUSH3 0x4CD PUSH1 0x40 DUP4 ADD DUP6 PUSH3 0x489 JUMP JUMPDEST PUSH3 0x4DC PUSH1 0x60 DUP4 ADD DUP5 PUSH3 0x489 JUMP JUMPDEST SWAP6 SWAP5 POP POP POP POP POP JUMP JUMPDEST PUSH2 0x253F DUP1 PUSH3 0x4F3 PUSH0 CODECOPY PUSH0 RETURN INVALID PUSH1 0x80 PUSH1 0x40 MSTORE PUSH1 0x4 CALLDATASIZE LT PUSH2 0xF6 JUMPI PUSH0 CALLDATALOAD PUSH1 0xE0 SHR DUP1 PUSH4 0x7355A424 GT PUSH2 0x89 JUMPI DUP1 PUSH4 0xEC98C2C3 GT PUSH2 0x58 JUMPI DUP1 PUSH4 0xEC98C2C3 EQ PUSH2 0x371 JUMPI DUP1 PUSH4 0xF9938E28 EQ PUSH2 0x3AD JUMPI DUP1 PUSH4 0xFA840A45 EQ PUSH2 0x3E9 JUMPI DUP1 PUSH4 0xFF3BD1FC EQ PUSH2 0x411 JUMPI PUSH2 0x136 JUMP JUMPDEST DUP1 PUSH4 0x7355A424 EQ PUSH2 0x2D7 JUMPI DUP1 PUSH4 0x8E620802 EQ PUSH2 0x301 JUMPI DUP1 PUSH4 0xB5AF5719 EQ PUSH2 0x33D JUMPI DUP1 PUSH4 0xCAF1124A EQ PUSH2 0x347 JUMPI PUSH2 0x136 JUMP JUMPDEST DUP1 PUSH4 0x37D9A251 GT PUSH2 0xC5 JUMPI DUP1 PUSH4 0x37D9A251 EQ PUSH2 0x21B JUMPI DUP1 PUSH4 0x4DA24F03 EQ PUSH2 0x257 JUMPI DUP1 PUSH4 0x52A5ACCE EQ PUSH2 0x27F JUMPI DUP1 PUSH4 0x568EB9D1 EQ PUSH2 0x2BB JUMPI PUSH2 0x136 JUMP JUMPDEST DUP1 PUSH4 0x4EE37E3 EQ PUSH2 0x13A JUMPI DUP1 PUSH4 0x15246493 EQ PUSH2 0x167 JUMPI DUP1 PUSH4 0x1B76CF53 EQ PUSH2 0x1A3 JUMPI DUP1 PUSH4 0x2B1CD65B EQ PUSH2 0x1DF JUMPI PUSH2 0x136 JUMP JUMPDEST CALLDATASIZE PUSH2 0x136 JUMPI PUSH32 0xA828CD9FF16C976EE98F37C4B96645624F01AE6FDE47408F3DFD64833C6B9979 CALLER CALLVALUE PUSH1 0x40 MLOAD PUSH2 0x12C SWAP3 SWAP2 SWAP1 PUSH2 0x1320 JUMP JUMPDEST PUSH1 0x40 MLOAD DUP1 SWAP2 SUB SWAP1 LOG1 STOP JUMPDEST PUSH0 DUP1 REVERT JUMPDEST CALLVALUE DUP1 ISZERO PUSH2 0x145 JUMPI PUSH0 DUP1 REVERT JUMPDEST POP PUSH2 0x14E PUSH2 0x43B JUMP JUMPDEST PUSH1 0x40 MLOAD PUSH2 0x15E SWAP5 SWAP4 SWAP3 SWAP2 SWAP1 PUSH2 0x1347 JUMP JUMPDEST PUSH1 0x40 MLOAD DUP1 SWAP2 SUB SWAP1 RETURN JUMPDEST CALLVALUE DUP1 ISZERO PUSH2 0x172 JUMPI PUSH0 DUP1 REVERT JUMPDEST POP PUSH2 0x18D PUSH1 0x4 DUP1 CALLDATASIZE SUB DUP2 ADD SWAP1 PUSH2 0x188 SWAP2 SWAP1 PUSH2 0x13C5 JUMP JUMPDEST PUSH2 0x459 JUMP JUMPDEST PUSH1 0x40 MLOAD PUSH2 0x19A SWAP2 SWAP1 PUSH2 0x13F0 JUMP JUMPDEST PUSH1 0x40 MLOAD DUP1 SWAP2 SUB SWAP1 RETURN JUMPDEST CALLVALUE DUP1 ISZERO PUSH2 0x1AE JUMPI PUSH0 DUP1 REVERT JUMPDEST POP PUSH2 0x1C9 PUSH1 0x4 DUP1 CALLDATASIZE SUB DUP2 ADD SWAP1 PUSH2 0x1C4 SWAP2 SWAP1 PUSH2 0x13C5 JUMP JUMPDEST PUSH2 0x479 JUMP JUMPDEST PUSH1 0x40 MLOAD PUSH2 0x1D6 SWAP2 SWAP1 PUSH2 0x13F0 JUMP JUMPDEST PUSH1 0x40 MLOAD DUP1 SWAP2 SUB SWAP1 RETURN JUMPDEST CALLVALUE DUP1 ISZERO PUSH2 0x1EA JUMPI PUSH0 DUP1 REVERT JUMPDEST POP PUSH2 0x205 PUSH1 0x4 DUP1 CALLDATASIZE SUB DUP2 ADD SWAP1 PUSH2 0x200 SWAP2 SWAP1 PUSH2 0x13C5 JUMP JUMPDEST PUSH2 0x499 JUMP JUMPDEST PUSH1 0x40 MLOAD PUSH2 0x212 SWAP2 SWAP1 PUSH2 0x13F0 JUMP JUMPDEST PUSH1 0x40 MLOAD DUP1 SWAP2 SUB SWAP1 RETURN JUMPDEST CALLVALUE DUP1 ISZERO PUSH2 0x226 JUMPI PUSH0 DUP1 REVERT JUMPDEST POP PUSH2 0x241 PUSH1 0x4 DUP1 CALLDATASIZE SUB DUP2 ADD SWAP1 PUSH2 0x23C SWAP2 SWAP1 PUSH2 0x13C5 JUMP JUMPDEST PUSH2 0x4B9 JUMP JUMPDEST PUSH1 0x40 MLOAD PUSH2 0x24E SWAP2 SWAP1 PUSH2 0x13F0 JUMP JUMPDEST PUSH1 0x40 MLOAD DUP1 SWAP2 SUB SWAP1 RETURN JUMPDEST CALLVALUE DUP1 ISZERO PUSH2 0x262 JUMPI PUSH0 DUP1 REVERT JUMPDEST POP PUSH2 0x27D PUSH1 0x4 DUP1 CALLDATASIZE SUB DUP2 ADD SWAP1 PUSH2 0x278 SWAP2 SWAP1 PUSH2 0x1A6A JUMP JUMPDEST PUSH2 0x4D9 JUMP JUMPDEST STOP JUMPDEST CALLVALUE DUP1 ISZERO PUSH2 0x28A JUMPI PUSH0 DUP1 REVERT JUMPDEST POP PUSH2 0x2A5 PUSH1 0x4 DUP1 CALLDATASIZE SUB DUP2 ADD SWAP1 PUSH2 0x2A0 SWAP2 SWAP1 PUSH2 0x13C5 JUMP JUMPDEST PUSH2 0x89E JUMP JUMPDEST PUSH1 0x40 MLOAD PUSH2 0x2B2 SWAP2 SWAP1 PUSH2 0x13F0 JUMP JUMPDEST PUSH1 0x40 MLOAD DUP1 SWAP2 SUB SWAP1 RETURN JUMPDEST PUSH2 0x2D5 PUSH1 0x4 DUP1 CALLDATASIZE SUB DUP2 ADD SWAP1 PUSH2 0x2D0 SWAP2 SWAP1 PUSH2 0x1BB3 JUMP JUMPDEST PUSH2 0x8BE JUMP JUMPDEST STOP JUMPDEST CALLVALUE DUP1 ISZERO PUSH2 0x2E2 JUMPI PUSH0 DUP1 REVERT JUMPDEST POP PUSH2 0x2EB PUSH2 0xB6E JUMP JUMPDEST PUSH1 0x40 MLOAD PUSH2 0x2F8 SWAP2 SWAP1 PUSH2 0x13F0 JUMP JUMPDEST PUSH1 0x40 MLOAD DUP1 SWAP2 SUB SWAP1 RETURN JUMPDEST CALLVALUE DUP1 ISZERO PUSH2 0x30C JUMPI PUSH0 DUP1 REVERT JUMPDEST POP PUSH2 0x327 PUSH1 0x4 DUP1 CALLDATASIZE SUB DUP2 ADD SWAP1 PUSH2 0x322 SWAP2 SWAP1 PUSH2 0x13C5 JUMP JUMPDEST PUSH2 0xBDA JUMP JUMPDEST PUSH1 0x40 MLOAD PUSH2 0x334 SWAP2 SWAP1 PUSH2 0x13F0 JUMP JUMPDEST PUSH1 0x40 MLOAD DUP1 SWAP2 SUB SWAP1 RETURN JUMPDEST PUSH2 0x345 PUSH2 0xBFA JUMP JUMPDEST STOP JUMPDEST CALLVALUE DUP1 ISZERO PUSH2 0x352 JUMPI PUSH0 DUP1 REVERT JUMPDEST POP PUSH2 0x35B PUSH2 0xCB2 JUMP JUMPDEST PUSH1 0x40 MLOAD PUSH2 0x368 SWAP2 SWAP1 PUSH2 0x1C6C JUMP JUMPDEST PUSH1 0x40 MLOAD DUP1 SWAP2 SUB SWAP1 RETURN JUMPDEST CALLVALUE DUP1 ISZERO PUSH2 0x37C JUMPI PUSH0 DUP1 REVERT JUMPDEST POP PUSH2 0x397 PUSH1 0x4 DUP1 CALLDATASIZE SUB DUP2 ADD SWAP1 PUSH2 0x392 SWAP2 SWAP1 PUSH2 0x13C5 JUMP JUMPDEST PUSH2 0xFD8 JUMP JUMPDEST PUSH1 0x40 MLOAD PUSH2 0x3A4 SWAP2 SWAP1 PUSH2 0x13F0 JUMP JUMPDEST PUSH1 0x40 MLOAD DUP1 SWAP2 SUB SWAP1 RETURN JUMPDEST CALLVALUE DUP1 ISZERO PUSH2 0x3B8 JUMPI PUSH0 DUP1 REVERT JUMPDEST POP PUSH2 0x3D3 PUSH1 0x4 DUP1 CALLDATASIZE SUB DUP2 ADD SWAP1 PUSH2 0x3CE SWAP2 SWAP1 PUSH2 0x13C5 JUMP JUMPDEST PUSH2 0xFF8 JUMP JUMPDEST PUSH1 0x40 MLOAD PUSH2 0x3E0 SWAP2 SWAP1 PUSH2 0x13F0 JUMP JUMPDEST PUSH1 0x40 MLOAD DUP1 SWAP2 SUB SWAP1 RETURN JUMPDEST CALLVALUE DUP1 ISZERO PUSH2 0x3F4 JUMPI PUSH0 DUP1 REVERT JUMPDEST POP PUSH2 0x40F PUSH1 0x4 DUP1 CALLDATASIZE SUB DUP2 ADD SWAP1 PUSH2 0x40A SWAP2 SWAP1 PUSH2 0x1C8C JUMP JUMPDEST PUSH2 0x1018 JUMP JUMPDEST STOP JUMPDEST CALLVALUE DUP1 ISZERO PUSH2 0x41C JUMPI PUSH0 DUP1 REVERT JUMPDEST POP PUSH2 0x425 PUSH2 0x1217 JUMP JUMPDEST PUSH1 0x40 MLOAD PUSH2 0x432 SWAP2 SWAP1 PUSH2 0x13F0 JUMP JUMPDEST PUSH1 0x40 MLOAD DUP1 SWAP2 SUB SWAP1 RETURN JUMPDEST PUSH0 DUP1 PUSH0 DUP1 PUSH1 0x3 SLOAD PUSH1 0x5 SLOAD PUSH1 0x6 SLOAD PUSH1 0x2 SLOAD SWAP4 POP SWAP4 POP SWAP4 POP SWAP4 POP SWAP1 SWAP2 SWAP3 SWAP4 JUMP JUMPDEST PUSH1 0xD DUP2 DUP2 SLOAD DUP2 LT PUSH2 0x468 JUMPI PUSH0 DUP1 REVERT JUMPDEST SWAP1 PUSH0 MSTORE PUSH1 0x20 PUSH0 KECCAK256 ADD PUSH0 SWAP2 POP SWAP1 POP SLOAD DUP2 JUMP JUMPDEST PUSH1 0x9 DUP2 DUP2 SLOAD DUP2 LT PUSH2 0x488 JUMPI PUSH0 DUP1 REVERT JUMPDEST SWAP1 PUSH0 MSTORE PUSH1 0x20 PUSH0 KECCAK256 ADD PUSH0 SWAP2 POP SWAP1 POP SLOAD DUP2 JUMP JUMPDEST PUSH1 0xA DUP2 DUP2 SLOAD DUP2 LT PUSH2 0x4A8 JUMPI PUSH0 DUP1 REVERT JUMPDEST SWAP1 PUSH0 MSTORE PUSH1 0x20 PUSH0 KECCAK256 ADD PUSH0 SWAP2 POP SWAP1 POP SLOAD DUP2 JUMP JUMPDEST PUSH1 0xF DUP2 DUP2 SLOAD DUP2 LT PUSH2 0x4C8 JUMPI PUSH0 DUP1 REVERT JUMPDEST SWAP1 PUSH0 MSTORE PUSH1 0x20 PUSH0 KECCAK256 ADD PUSH0 SWAP2 POP SWAP1 POP SLOAD DUP2 JUMP JUMPDEST PUSH0 DUP1 SLOAD SWAP1 PUSH2 0x100 EXP SWAP1 DIV PUSH20 0xFFFFFFFFFFFFFFFFFFFFFFFFFFFFFFFFFFFFFFFF AND PUSH20 0xFFFFFFFFFFFFFFFFFFFFFFFFFFFFFFFFFFFFFFFF AND CALLER PUSH20 0xFFFFFFFFFFFFFFFFFFFFFFFFFFFFFFFFFFFFFFFF AND SUB PUSH2 0x52F JUMPI PUSH0 DUP1 REVERT JUMPDEST PUSH1 0x1 ISZERO ISZERO PUSH1 0x17 PUSH0 SWAP1 SLOAD SWAP1 PUSH2 0x100 EXP SWAP1 DIV PUSH20 0xFFFFFFFFFFFFFFFFFFFFFFFFFFFFFFFFFFFFFFFF AND PUSH20 0xFFFFFFFFFFFFFFFFFFFFFFFFFFFFFFFFFFFFFFFF AND PUSH4 0x22B32DFD DUP12 DUP12 DUP12 PUSH1 0x40 MLOAD DUP5 PUSH4 0xFFFFFFFF AND PUSH1 0xE0 SHL DUP2 MSTORE PUSH1 0x4 ADD PUSH2 0x591 SWAP4 SWAP3 SWAP2 SWAP1 PUSH2 0x20CA JUMP JUMPDEST PUSH1 0x20 PUSH1 0x40 MLOAD DUP1 DUP4 SUB DUP2 DUP7 GAS STATICCALL ISZERO DUP1 ISZERO PUSH2 0x5AC JUMPI RETURNDATASIZE PUSH0 DUP1 RETURNDATACOPY RETURNDATASIZE PUSH0 REVERT JUMPDEST POP POP POP POP PUSH1 0x40 MLOAD RETURNDATASIZE PUSH1 0x1F NOT PUSH1 0x1F DUP3 ADD AND DUP3 ADD DUP1 PUSH1 0x40 MSTORE POP DUP2 ADD SWAP1 PUSH2 0x5D0 SWAP2 SWAP1 PUSH2 0x2142 JUMP JUMPDEST ISZERO ISZERO EQ PUSH2 0x5DB JUMPI PUSH0 DUP1 REVERT JUMPDEST PUSH1 0x1 ISZERO ISZERO PUSH1 0x17 PUSH0 SWAP1 SLOAD SWAP1 PUSH2 0x100 EXP SWAP1 DIV PUSH20 0xFFFFFFFFFFFFFFFFFFFFFFFFFFFFFFFFFFFFFFFF AND PUSH20 0xFFFFFFFFFFFFFFFFFFFFFFFFFFFFFFFFFFFFFFFF AND PUSH4 0x22B32DFD DUP8 DUP8 DUP8 PUSH1 0x40 MLOAD DUP5 PUSH4 0xFFFFFFFF AND PUSH1 0xE0 SHL DUP2 MSTORE PUSH1 0x4 ADD PUSH2 0x63D SWAP4 SWAP3 SWAP2 SWAP1 PUSH2 0x20CA JUMP JUMPDEST PUSH1 0x20 PUSH1 0x40 MLOAD DUP1 DUP4 SUB DUP2 DUP7 GAS STATICCALL ISZERO DUP1 ISZERO PUSH2 0x658 JUMPI RETURNDATASIZE PUSH0 DUP1 RETURNDATACOPY RETURNDATASIZE PUSH0 REVERT JUMPDEST POP POP POP POP PUSH1 0x40 MLOAD RETURNDATASIZE PUSH1 0x1F NOT PUSH1 0x1F DUP3 ADD AND DUP3 ADD DUP1 PUSH1 0x40 MSTORE POP DUP2 ADD SWAP1 PUSH2 0x67C SWAP2 SWAP1 PUSH2 0x2142 JUMP JUMPDEST ISZERO ISZERO EQ PUSH2 0x687 JUMPI PUSH0 DUP1 REVERT JUMPDEST PUSH1 0x1 ISZERO ISZERO PUSH1 0x17 PUSH0 SWAP1 SLOAD SWAP1 PUSH2 0x100 EXP SWAP1 DIV PUSH20 0xFFFFFFFFFFFFFFFFFFFFFFFFFFFFFFFFFFFFFFFF AND PUSH20 0xFFFFFFFFFFFFFFFFFFFFFFFFFFFFFFFFFFFFFFFF AND PUSH4 0x9F175C1 DUP4 PUSH1 0x40 MLOAD DUP3 PUSH4 0xFFFFFFFF AND PUSH1 0xE0 SHL DUP2 MSTORE PUSH1 0x4 ADD PUSH2 0x6E5 SWAP2 SWAP1 PUSH2 0x21D3 JUMP JUMPDEST PUSH1 0x20 PUSH1 0x40 MLOAD DUP1 DUP4 SUB DUP2 DUP7 GAS STATICCALL ISZERO DUP1 ISZERO PUSH2 0x700 JUMPI RETURNDATASIZE PUSH0 DUP1 RETURNDATACOPY RETURNDATASIZE PUSH0 REVERT JUMPDEST POP POP POP POP PUSH1 0x40 MLOAD RETURNDATASIZE PUSH1 0x1F NOT PUSH1 0x1F DUP3 ADD AND DUP3 ADD DUP1 PUSH1 0x40 MSTORE POP DUP2 ADD SWAP1 PUSH2 0x724 SWAP2 SWAP1 PUSH2 0x2142 JUMP JUMPDEST ISZERO ISZERO EQ PUSH2 0x72F JUMPI PUSH0 DUP1 REVERT JUMPDEST PUSH1 0x1 DUP11 EQ DUP1 PUSH2 0x73D JUMPI POP PUSH0 DUP11 EQ JUMPDEST PUSH2 0x745 JUMPI PUSH0 DUP1 REVERT JUMPDEST PUSH0 JUMPDEST PUSH1 0xC DUP1 SLOAD SWAP1 POP DUP2 LT ISZERO PUSH2 0x7BF JUMPI DUP7 PUSH1 0xC DUP3 DUP2 SLOAD DUP2 LT PUSH2 0x769 JUMPI PUSH2 0x768 PUSH2 0x21EC JUMP JUMPDEST JUMPDEST SWAP1 PUSH0 MSTORE PUSH1 0x20 PUSH0 KECCAK256 ADD SLOAD SUB PUSH2 0x7B2 JUMPI PUSH1 0x40 MLOAD PUSH32 0x8C379A000000000000000000000000000000000000000000000000000000000 DUP2 MSTORE PUSH1 0x4 ADD PUSH2 0x7A9 SWAP1 PUSH2 0x2263 JUMP JUMPDEST PUSH1 0x40 MLOAD DUP1 SWAP2 SUB SWAP1 REVERT JUMPDEST DUP1 DUP1 PUSH1 0x1 ADD SWAP2 POP POP PUSH2 0x747 JUMP JUMPDEST POP PUSH1 0xB DUP11 SWAP1 DUP1 PUSH1 0x1 DUP2 SLOAD ADD DUP1 DUP3 SSTORE DUP1 SWAP2 POP POP PUSH1 0x1 SWAP1 SUB SWAP1 PUSH0 MSTORE PUSH1 0x20 PUSH0 KECCAK256 ADD PUSH0 SWAP1 SWAP2 SWAP1 SWAP2 SWAP1 SWAP2 POP SSTORE PUSH1 0xC DUP7 SWAP1 DUP1 PUSH1 0x1 DUP2 SLOAD ADD DUP1 DUP3 SSTORE DUP1 SWAP2 POP POP PUSH1 0x1 SWAP1 SUB SWAP1 PUSH0 MSTORE PUSH1 0x20 PUSH0 KECCAK256 ADD PUSH0 SWAP1 SWAP2 SWAP1 SWAP2 SWAP1 SWAP2 POP SSTORE PUSH1 0xD DUP3 SWAP1 DUP1 PUSH1 0x1 DUP2 SLOAD ADD DUP1 DUP3 SSTORE DUP1 SWAP2 POP POP PUSH1 0x1 SWAP1 SUB SWAP1 PUSH0 MSTORE PUSH1 0x20 PUSH0 KECCAK256 ADD PUSH0 SWAP1 SWAP2 SWAP1 SWAP2 SWAP1 SWAP2 POP SSTORE PUSH1 0xE DUP2 PUSH0 ADD MLOAD SWAP1 DUP1 PUSH1 0x1 DUP2 SLOAD ADD DUP1 DUP3 SSTORE DUP1 SWAP2 POP POP PUSH1 0x1 SWAP1 SUB SWAP1 PUSH0 MSTORE PUSH1 0x20 PUSH0 KECCAK256 ADD PUSH0 SWAP1 SWAP2 SWAP1 SWAP2 SWAP1 SWAP2 POP SSTORE PUSH32 0xD7AF40570CD7F5F0E1BE0997FB6C9E15E4BB0E94E95C76709E186AB29B43986E CALLER PUSH1 0x40 MLOAD PUSH2 0x88A SWAP2 SWAP1 PUSH2 0x2281 JUMP JUMPDEST PUSH1 0x40 MLOAD DUP1 SWAP2 SUB SWAP1 LOG1 POP POP POP POP POP POP POP POP POP POP JUMP JUMPDEST PUSH1 0xE DUP2 DUP2 SLOAD DUP2 LT PUSH2 0x8AD JUMPI PUSH0 DUP1 REVERT JUMPDEST SWAP1 PUSH0 MSTORE PUSH1 0x20 PUSH0 KECCAK256 ADD PUSH0 SWAP2 POP SWAP1 POP SLOAD DUP2 JUMP JUMPDEST PUSH0 DUP1 SLOAD SWAP1 PUSH2 0x100 EXP SWAP1 DIV PUSH20 0xFFFFFFFFFFFFFFFFFFFFFFFFFFFFFFFFFFFFFFFF AND PUSH20 0xFFFFFFFFFFFFFFFFFFFFFFFFFFFFFFFFFFFFFFFF AND CALLER PUSH20 0xFFFFFFFFFFFFFFFFFFFFFFFFFFFFFFFFFFFFFFFF AND SUB PUSH2 0x914 JUMPI PUSH0 DUP1 REVERT JUMPDEST PUSH8 0xDE0B6B3A7640000 CALLVALUE EQ PUSH2 0x95E JUMPI PUSH1 0x40 MLOAD PUSH32 0x8C379A000000000000000000000000000000000000000000000000000000000 DUP2 MSTORE PUSH1 0x4 ADD PUSH2 0x955 SWAP1 PUSH2 0x230A JUMP JUMPDEST PUSH1 0x40 MLOAD DUP1 SWAP2 SUB SWAP1 REVERT JUMPDEST PUSH1 0x1 ISZERO ISZERO PUSH1 0x17 PUSH0 SWAP1 SLOAD SWAP1 PUSH2 0x100 EXP SWAP1 DIV PUSH20 0xFFFFFFFFFFFFFFFFFFFFFFFFFFFFFFFFFFFFFFFF AND PUSH20 0xFFFFFFFFFFFFFFFFFFFFFFFFFFFFFFFFFFFFFFFF AND PUSH4 0x9F175C1 DUP5 PUSH1 0x40 MLOAD DUP3 PUSH4 0xFFFFFFFF AND PUSH1 0xE0 SHL DUP2 MSTORE PUSH1 0x4 ADD PUSH2 0x9BC SWAP2 SWAP1 PUSH2 0x21D3 JUMP JUMPDEST PUSH1 0x20 PUSH1 0x40 MLOAD DUP1 DUP4 SUB DUP2 DUP7 GAS STATICCALL ISZERO DUP1 ISZERO PUSH2 0x9D7 JUMPI RETURNDATASIZE PUSH0 DUP1 RETURNDATACOPY RETURNDATASIZE PUSH0 REVERT JUMPDEST POP POP POP POP PUSH1 0x40 MLOAD RETURNDATASIZE PUSH1 0x1F NOT PUSH1 0x1F DUP3 ADD AND DUP3 ADD DUP1 PUSH1 0x40 MSTORE POP DUP2 ADD SWAP1 PUSH2 0x9FB SWAP2 SWAP1 PUSH2 0x2142 JUMP JUMPDEST ISZERO ISZERO EQ DUP1 ISZERO PUSH2 0xAA6 JUMPI POP PUSH1 0x1 ISZERO ISZERO PUSH1 0x17 PUSH0 SWAP1 SLOAD SWAP1 PUSH2 0x100 EXP SWAP1 DIV PUSH20 0xFFFFFFFFFFFFFFFFFFFFFFFFFFFFFFFFFFFFFFFF AND PUSH20 0xFFFFFFFFFFFFFFFFFFFFFFFFFFFFFFFFFFFFFFFF AND PUSH4 0x9F175C1 DUP4 PUSH1 0x40 MLOAD DUP3 PUSH4 0xFFFFFFFF AND PUSH1 0xE0 SHL DUP2 MSTORE PUSH1 0x4 ADD PUSH2 0xA63 SWAP2 SWAP1 PUSH2 0x21D3 JUMP JUMPDEST PUSH1 0x20 PUSH1 0x40 MLOAD DUP1 DUP4 SUB DUP2 DUP7 GAS STATICCALL ISZERO DUP1 ISZERO PUSH2 0xA7E JUMPI RETURNDATASIZE PUSH0 DUP1 RETURNDATACOPY RETURNDATASIZE PUSH0 REVERT JUMPDEST POP POP POP POP PUSH1 0x40 MLOAD RETURNDATASIZE PUSH1 0x1F NOT PUSH1 0x1F DUP3 ADD AND DUP3 ADD DUP1 PUSH1 0x40 MSTORE POP DUP2 ADD SWAP1 PUSH2 0xAA2 SWAP2 SWAP1 PUSH2 0x2142 JUMP JUMPDEST ISZERO ISZERO EQ JUMPDEST PUSH2 0xAAE JUMPI PUSH0 DUP1 REVERT JUMPDEST PUSH1 0x8 CALLER SWAP1 DUP1 PUSH1 0x1 DUP2 SLOAD ADD DUP1 DUP3 SSTORE DUP1 SWAP2 POP POP PUSH1 0x1 SWAP1 SUB SWAP1 PUSH0 MSTORE PUSH1 0x20 PUSH0 KECCAK256 ADD PUSH0 SWAP1 SWAP2 SWAP1 SWAP2 SWAP1 SWAP2 PUSH2 0x100 EXP DUP2 SLOAD DUP2 PUSH20 0xFFFFFFFFFFFFFFFFFFFFFFFFFFFFFFFFFFFFFFFF MUL NOT AND SWAP1 DUP4 PUSH20 0xFFFFFFFFFFFFFFFFFFFFFFFFFFFFFFFFFFFFFFFF AND MUL OR SWAP1 SSTORE POP PUSH0 DUP3 PUSH0 ADD MLOAD SWAP1 POP PUSH0 DUP3 PUSH0 ADD MLOAD SWAP1 POP PUSH1 0x9 DUP3 SWAP1 DUP1 PUSH1 0x1 DUP2 SLOAD ADD DUP1 DUP3 SSTORE DUP1 SWAP2 POP POP PUSH1 0x1 SWAP1 SUB SWAP1 PUSH0 MSTORE PUSH1 0x20 PUSH0 KECCAK256 ADD PUSH0 SWAP1 SWAP2 SWAP1 SWAP2 SWAP1 SWAP2 POP SSTORE PUSH1 0xA DUP2 SWAP1 DUP1 PUSH1 0x1 DUP2 SLOAD ADD DUP1 DUP3 SSTORE DUP1 SWAP2 POP POP PUSH1 0x1 SWAP1 SUB SWAP1 PUSH0 MSTORE PUSH1 0x20 PUSH0 KECCAK256 ADD PUSH0 SWAP1 SWAP2 SWAP1 SWAP2 SWAP1 SWAP2 POP SSTORE POP POP POP POP JUMP JUMPDEST PUSH0 DUP1 PUSH0 SWAP1 SLOAD SWAP1 PUSH2 0x100 EXP SWAP1 DIV PUSH20 0xFFFFFFFFFFFFFFFFFFFFFFFFFFFFFFFFFFFFFFFF AND PUSH20 0xFFFFFFFFFFFFFFFFFFFFFFFFFFFFFFFFFFFFFFFF AND CALLER PUSH20 0xFFFFFFFFFFFFFFFFFFFFFFFFFFFFFFFFFFFFFFFF AND EQ PUSH2 0xBC6 JUMPI PUSH0 DUP1 REVERT JUMPDEST PUSH1 0xB DUP1 SLOAD SWAP1 POP PUSH1 0x4 DUP2 SWAP1 SSTORE POP PUSH1 0x4 SLOAD SWAP1 POP SWAP1 JUMP JUMPDEST PUSH1 0xC DUP2 DUP2 SLOAD DUP2 LT PUSH2 0xBE9 JUMPI PUSH0 DUP1 REVERT JUMPDEST SWAP1 PUSH0 MSTORE PUSH1 0x20 PUSH0 KECCAK256 ADD PUSH0 SWAP2 POP SWAP1 POP SLOAD DUP2 JUMP JUMPDEST PUSH0 DUP1 SLOAD SWAP1 PUSH2 0x100 EXP SWAP1 DIV PUSH20 0xFFFFFFFFFFFFFFFFFFFFFFFFFFFFFFFFFFFFFFFF AND PUSH20 0xFFFFFFFFFFFFFFFFFFFFFFFFFFFFFFFFFFFFFFFF AND CALLER PUSH20 0xFFFFFFFFFFFFFFFFFFFFFFFFFFFFFFFFFFFFFFFF AND EQ PUSH2 0xC50 JUMPI PUSH0 DUP1 REVERT JUMPDEST CALLVALUE PUSH1 0x1 PUSH0 DUP3 DUP3 SLOAD PUSH2 0xC61 SWAP2 SWAP1 PUSH2 0x2355 JUMP JUMPDEST SWAP3 POP POP DUP2 SWAP1 SSTORE POP PUSH8 0xDE0B6B3A7640000 PUSH1 0x1 SLOAD PUSH2 0xC7E SWAP2 SWAP1 PUSH2 0x23B5 JUMP JUMPDEST PUSH1 0x2 DUP2 SWAP1 SSTORE POP PUSH32 0x9FA2F5FB280EEE942E87FDF32DE60BAC1C4349A22C8458B671859AAE5A076237 PUSH1 0x40 MLOAD PUSH1 0x40 MLOAD DUP1 SWAP2 SUB SWAP1 LOG1 JUMP JUMPDEST PUSH1 0x60 PUSH0 DUP1 SLOAD SWAP1 PUSH2 0x100 EXP SWAP1 DIV PUSH20 0xFFFFFFFFFFFFFFFFFFFFFFFFFFFFFFFFFFFFFFFF AND PUSH20 0xFFFFFFFFFFFFFFFFFFFFFFFFFFFFFFFFFFFFFFFF AND CALLER PUSH20 0xFFFFFFFFFFFFFFFFFFFFFFFFFFFFFFFFFFFFFFFF AND EQ PUSH2 0xD0A JUMPI PUSH0 DUP1 REVERT JUMPDEST PUSH0 DUP1 PUSH1 0x60 PUSH0 JUMPDEST PUSH1 0xB DUP1 SLOAD SWAP1 POP DUP2 LT ISZERO PUSH2 0xD94 JUMPI PUSH1 0x1 PUSH1 0xB DUP3 DUP2 SLOAD DUP2 LT PUSH2 0xD33 JUMPI PUSH2 0xD32 PUSH2 0x21EC JUMP JUMPDEST JUMPDEST SWAP1 PUSH0 MSTORE PUSH1 0x20 PUSH0 KECCAK256 ADD SLOAD SUB PUSH2 0xD54 JUMPI DUP4 DUP1 PUSH2 0xD4C SWAP1 PUSH2 0x23E5 JUMP JUMPDEST SWAP5 POP POP PUSH2 0xD87 JUMP JUMPDEST PUSH0 PUSH1 0xB DUP3 DUP2 SLOAD DUP2 LT PUSH2 0xD69 JUMPI PUSH2 0xD68 PUSH2 0x21EC JUMP JUMPDEST JUMPDEST SWAP1 PUSH0 MSTORE PUSH1 0x20 PUSH0 KECCAK256 ADD SLOAD SUB PUSH2 0xD86 JUMPI DUP3 DUP1 PUSH2 0xD82 SWAP1 PUSH2 0x23E5 JUMP JUMPDEST SWAP4 POP POP JUMPDEST JUMPDEST DUP1 DUP1 PUSH1 0x1 ADD SWAP2 POP POP PUSH2 0xD10 JUMP JUMPDEST POP DUP2 DUP4 LT PUSH2 0xDE1 JUMPI PUSH1 0x1 PUSH1 0x11 DUP2 SWAP1 SSTORE POP PUSH1 0x40 MLOAD DUP1 PUSH1 0x40 ADD PUSH1 0x40 MSTORE DUP1 PUSH1 0x9 DUP2 MSTORE PUSH1 0x20 ADD PUSH32 0x417661696C61626C650000000000000000000000000000000000000000000000 DUP2 MSTORE POP SWAP1 POP PUSH2 0xE21 JUMP JUMPDEST PUSH0 PUSH1 0x11 DUP2 SWAP1 SSTORE POP PUSH1 0x40 MLOAD DUP1 PUSH1 0x40 ADD PUSH1 0x40 MSTORE DUP1 PUSH1 0xB DUP2 MSTORE PUSH1 0x20 ADD PUSH32 0x556E617661696C61626C65000000000000000000000000000000000000000000 DUP2 MSTORE POP SWAP1 POP JUMPDEST PUSH0 JUMPDEST PUSH1 0xB DUP1 SLOAD SWAP1 POP DUP2 LT ISZERO PUSH2 0xEB8 JUMPI PUSH1 0x11 SLOAD PUSH1 0xB DUP3 DUP2 SLOAD DUP2 LT PUSH2 0xE47 JUMPI PUSH2 0xE46 PUSH2 0x21EC JUMP JUMPDEST JUMPDEST SWAP1 PUSH0 MSTORE PUSH1 0x20 PUSH0 KECCAK256 ADD SLOAD EQ DUP1 ISZERO PUSH2 0xE63 JUMPI POP PUSH1 0x2 SLOAD PUSH1 0x10 DUP1 SLOAD SWAP1 POP LT JUMPDEST ISZERO PUSH2 0xEAB JUMPI PUSH1 0x10 PUSH1 0xD DUP3 DUP2 SLOAD DUP2 LT PUSH2 0xE7E JUMPI PUSH2 0xE7D PUSH2 0x21EC JUMP JUMPDEST JUMPDEST SWAP1 PUSH0 MSTORE PUSH1 0x20 PUSH0 KECCAK256 ADD SLOAD SWAP1 DUP1 PUSH1 0x1 DUP2 SLOAD ADD DUP1 DUP3 SSTORE DUP1 SWAP2 POP POP PUSH1 0x1 SWAP1 SUB SWAP1 PUSH0 MSTORE PUSH1 0x20 PUSH0 KECCAK256 ADD PUSH0 SWAP1 SWAP2 SWAP1 SWAP2 SWAP1 SWAP2 POP SSTORE JUMPDEST DUP1 DUP1 PUSH1 0x1 ADD SWAP2 POP POP PUSH2 0xE23 JUMP JUMPDEST POP PUSH2 0xF32 PUSH1 0x16 PUSH0 SWAP1 SLOAD SWAP1 PUSH2 0x100 EXP SWAP1 DIV PUSH20 0xFFFFFFFFFFFFFFFFFFFFFFFFFFFFFFFFFFFFFFFF AND PUSH1 0x10 DUP1 SLOAD DUP1 PUSH1 0x20 MUL PUSH1 0x20 ADD PUSH1 0x40 MLOAD SWAP1 DUP2 ADD PUSH1 0x40 MSTORE DUP1 SWAP3 SWAP2 SWAP1 DUP2 DUP2 MSTORE PUSH1 0x20 ADD DUP3 DUP1 SLOAD DUP1 ISZERO PUSH2 0xF28 JUMPI PUSH1 0x20 MUL DUP3 ADD SWAP2 SWAP1 PUSH0 MSTORE PUSH1 0x20 PUSH0 KECCAK256 SWAP1 JUMPDEST DUP2 SLOAD DUP2 MSTORE PUSH1 0x20 ADD SWAP1 PUSH1 0x1 ADD SWAP1 DUP1 DUP4 GT PUSH2 0xF14 JUMPI JUMPDEST POP POP POP POP POP PUSH2 0x121D JUMP JUMPDEST PUSH1 0x2 SLOAD PUSH1 0x10 DUP1 SLOAD SWAP1 POP LT ISZERO PUSH2 0xFCF JUMPI PUSH0 PUSH8 0xDE0B6B3A7640000 PUSH1 0x10 DUP1 SLOAD SWAP1 POP PUSH1 0x2 SLOAD PUSH2 0xF5E SWAP2 SWAP1 PUSH2 0x242C JUMP JUMPDEST PUSH2 0xF68 SWAP2 SWAP1 PUSH2 0x245F JUMP JUMPDEST SWAP1 POP PUSH0 DUP1 SLOAD SWAP1 PUSH2 0x100 EXP SWAP1 DIV PUSH20 0xFFFFFFFFFFFFFFFFFFFFFFFFFFFFFFFFFFFFFFFF AND PUSH20 0xFFFFFFFFFFFFFFFFFFFFFFFFFFFFFFFFFFFFFFFF AND PUSH2 0x8FC DUP3 SWAP1 DUP2 ISZERO MUL SWAP1 PUSH1 0x40 MLOAD PUSH0 PUSH1 0x40 MLOAD DUP1 DUP4 SUB DUP2 DUP6 DUP9 DUP9 CALL SWAP4 POP POP POP POP ISZERO DUP1 ISZERO PUSH2 0xFCC JUMPI RETURNDATASIZE PUSH0 DUP1 RETURNDATACOPY RETURNDATASIZE PUSH0 REVERT JUMPDEST POP POP JUMPDEST DUP1 SWAP4 POP POP POP POP SWAP1 JUMP JUMPDEST PUSH1 0x10 DUP2 DUP2 SLOAD DUP2 LT PUSH2 0xFE7 JUMPI PUSH0 DUP1 REVERT JUMPDEST SWAP1 PUSH0 MSTORE PUSH1 0x20 PUSH0 KECCAK256 ADD PUSH0 SWAP2 POP SWAP1 POP SLOAD DUP2 JUMP JUMPDEST PUSH1 0xB DUP2 DUP2 SLOAD DUP2 LT PUSH2 0x1007 JUMPI PUSH0 DUP1 REVERT JUMPDEST SWAP1 PUSH0 MSTORE PUSH1 0x20 PUSH0 KECCAK256 ADD PUSH0 SWAP2 POP SWAP1 POP SLOAD DUP2 JUMP JUMPDEST PUSH0 DUP1 SLOAD SWAP1 PUSH2 0x100 EXP SWAP1 DIV PUSH20 0xFFFFFFFFFFFFFFFFFFFFFFFFFFFFFFFFFFFFFFFF AND PUSH20 0xFFFFFFFFFFFFFFFFFFFFFFFFFFFFFFFFFFFFFFFF AND CALLER PUSH20 0xFFFFFFFFFFFFFFFFFFFFFFFFFFFFFFFFFFFFFFFF AND SUB PUSH2 0x106E JUMPI PUSH0 DUP1 REVERT JUMPDEST PUSH0 JUMPDEST PUSH1 0xF DUP1 SLOAD SWAP1 POP DUP2 LT ISZERO PUSH2 0x10B1 JUMPI DUP5 PUSH1 0xF DUP3 DUP2 SLOAD DUP2 LT PUSH2 0x1092 JUMPI PUSH2 0x1091 PUSH2 0x21EC JUMP JUMPDEST JUMPDEST SWAP1 PUSH0 MSTORE PUSH1 0x20 PUSH0 KECCAK256 ADD SLOAD SUB PUSH2 0x10A4 JUMPI PUSH0 DUP1 REVERT JUMPDEST DUP1 DUP1 PUSH1 0x1 ADD SWAP2 POP POP PUSH2 0x1070 JUMP JUMPDEST POP PUSH1 0x1 ISZERO ISZERO PUSH1 0x17 PUSH0 SWAP1 SLOAD SWAP1 PUSH2 0x100 EXP SWAP1 DIV PUSH20 0xFFFFFFFFFFFFFFFFFFFFFFFFFFFFFFFFFFFFFFFF AND PUSH20 0xFFFFFFFFFFFFFFFFFFFFFFFFFFFFFFFFFFFFFFFF AND PUSH4 0x22B32DFD DUP6 DUP6 DUP6 PUSH1 0x40 MLOAD DUP5 PUSH4 0xFFFFFFFF AND PUSH1 0xE0 SHL DUP2 MSTORE PUSH1 0x4 ADD PUSH2 0x1114 SWAP4 SWAP3 SWAP2 SWAP1 PUSH2 0x20CA JUMP JUMPDEST PUSH1 0x20 PUSH1 0x40 MLOAD DUP1 DUP4 SUB DUP2 DUP7 GAS STATICCALL ISZERO DUP1 ISZERO PUSH2 0x112F JUMPI RETURNDATASIZE PUSH0 DUP1 RETURNDATACOPY RETURNDATASIZE PUSH0 REVERT JUMPDEST POP POP POP POP PUSH1 0x40 MLOAD RETURNDATASIZE PUSH1 0x1F NOT PUSH1 0x1F DUP3 ADD AND DUP3 ADD DUP1 PUSH1 0x40 MSTORE POP DUP2 ADD SWAP1 PUSH2 0x1153 SWAP2 SWAP1 PUSH2 0x2142 JUMP JUMPDEST ISZERO ISZERO EQ PUSH2 0x115E JUMPI PUSH0 DUP1 REVERT JUMPDEST PUSH1 0xF DUP5 SWAP1 DUP1 PUSH1 0x1 DUP2 SLOAD ADD DUP1 DUP3 SSTORE DUP1 SWAP2 POP POP PUSH1 0x1 SWAP1 SUB SWAP1 PUSH0 MSTORE PUSH1 0x20 PUSH0 KECCAK256 ADD PUSH0 SWAP1 SWAP2 SWAP1 SWAP2 SWAP1 SWAP2 POP SSTORE CALLER PUSH20 0xFFFFFFFFFFFFFFFFFFFFFFFFFFFFFFFFFFFFFFFF AND PUSH2 0x8FC PUSH8 0xDE0B6B3A7640000 SWAP1 DUP2 ISZERO MUL SWAP1 PUSH1 0x40 MLOAD PUSH0 PUSH1 0x40 MLOAD DUP1 DUP4 SUB DUP2 DUP6 DUP9 DUP9 CALL SWAP4 POP POP POP POP ISZERO DUP1 ISZERO PUSH2 0x11CF JUMPI RETURNDATASIZE PUSH0 DUP1 RETURNDATACOPY RETURNDATASIZE PUSH0 REVERT JUMPDEST POP PUSH32 0xCFDB447677DE4C6A2D0236986B3A97471105966E41EFE3E103788BEDB2CD63F0 CALLER PUSH8 0xDE0B6B3A7640000 PUSH1 0x40 MLOAD PUSH2 0x1209 SWAP3 SWAP2 SWAP1 PUSH2 0x24E2 JUMP JUMPDEST PUSH1 0x40 MLOAD DUP1 SWAP2 SUB SWAP1 LOG1 POP POP POP POP JUMP JUMPDEST PUSH1 0x11 SLOAD DUP2 JUMP JUMPDEST PUSH0 DUP3 SWAP1 POP PUSH0 JUMPDEST DUP3 MLOAD DUP2 LT ISZERO PUSH2 0x12C3 JUMPI DUP2 PUSH20 0xFFFFFFFFFFFFFFFFFFFFFFFFFFFFFFFFFFFFFFFF AND PUSH4 0xA0712D68 PUSH8 0xDE0B6B3A7640000 DUP6 DUP5 DUP2 MLOAD DUP2 LT PUSH2 0x1264 JUMPI PUSH2 0x1263 PUSH2 0x21EC JUMP JUMPDEST JUMPDEST PUSH1 0x20 MUL PUSH1 0x20 ADD ADD MLOAD PUSH1 0x40 MLOAD DUP4 PUSH4 0xFFFFFFFF AND PUSH1 0xE0 SHL DUP2 MSTORE PUSH1 0x4 ADD PUSH2 0x1288 SWAP2 SWAP1 PUSH2 0x13F0 JUMP JUMPDEST PUSH0 PUSH1 0x40 MLOAD DUP1 DUP4 SUB DUP2 DUP6 DUP9 DUP1 EXTCODESIZE ISZERO DUP1 ISZERO PUSH2 0x129F JUMPI PUSH0 DUP1 REVERT JUMPDEST POP GAS CALL ISZERO DUP1 ISZERO PUSH2 0x12B1 JUMPI RETURNDATASIZE PUSH0 DUP1 RETURNDATACOPY RETURNDATASIZE PUSH0 REVERT JUMPDEST POP POP POP POP POP DUP1 DUP1 PUSH1 0x1 ADD SWAP2 POP POP PUSH2 0x1223 JUMP JUMPDEST POP POP POP POP JUMP JUMPDEST PUSH0 PUSH20 0xFFFFFFFFFFFFFFFFFFFFFFFFFFFFFFFFFFFFFFFF DUP3 AND SWAP1 POP SWAP2 SWAP1 POP JUMP JUMPDEST PUSH0 PUSH2 0x12F2 DUP3 PUSH2 0x12C9 JUMP JUMPDEST SWAP1 POP SWAP2 SWAP1 POP JUMP JUMPDEST PUSH2 0x1302 DUP2 PUSH2 0x12E8 JUMP JUMPDEST DUP3 MSTORE POP POP JUMP JUMPDEST PUSH0 DUP2 SWAP1 POP SWAP2 SWAP1 POP JUMP JUMPDEST PUSH2 0x131A DUP2 PUSH2 0x1308 JUMP JUMPDEST DUP3 MSTORE POP POP JUMP JUMPDEST PUSH0 PUSH1 0x40 DUP3 ADD SWAP1 POP PUSH2 0x1333 PUSH0 DUP4 ADD DUP6 PUSH2 0x12F9 JUMP JUMPDEST PUSH2 0x1340 PUSH1 0x20 DUP4 ADD DUP5 PUSH2 0x1311 JUMP JUMPDEST SWAP4 SWAP3 POP POP POP JUMP JUMPDEST PUSH0 PUSH1 0x80 DUP3 ADD SWAP1 POP PUSH2 0x135A PUSH0 DUP4 ADD DUP8 PUSH2 0x1311 JUMP JUMPDEST PUSH2 0x1367 PUSH1 0x20 DUP4 ADD DUP7 PUSH2 0x1311 JUMP JUMPDEST PUSH2 0x1374 PUSH1 0x40 DUP4 ADD DUP6 PUSH2 0x1311 JUMP JUMPDEST PUSH2 0x1381 PUSH1 0x60 DUP4 ADD DUP5 PUSH2 0x1311 JUMP JUMPDEST SWAP6 SWAP5 POP POP POP POP POP JUMP JUMPDEST PUSH0 PUSH1 0x40 MLOAD SWAP1 POP SWAP1 JUMP JUMPDEST PUSH0 DUP1 REVERT JUMPDEST PUSH0 DUP1 REVERT JUMPDEST PUSH2 0x13A4 DUP2 PUSH2 0x1308 JUMP JUMPDEST DUP2 EQ PUSH2 0x13AE JUMPI PUSH0 DUP1 REVERT JUMPDEST POP JUMP JUMPDEST PUSH0 DUP2 CALLDATALOAD SWAP1 POP PUSH2 0x13BF DUP2 PUSH2 0x139B JUMP JUMPDEST SWAP3 SWAP2 POP POP JUMP JUMPDEST PUSH0 PUSH1 0x20 DUP3 DUP5 SUB SLT ISZERO PUSH2 0x13DA JUMPI PUSH2 0x13D9 PUSH2 0x1393 JUMP JUMPDEST JUMPDEST PUSH0 PUSH2 0x13E7 DUP5 DUP3 DUP6 ADD PUSH2 0x13B1 JUMP JUMPDEST SWAP2 POP POP SWAP3 SWAP2 POP POP JUMP JUMPDEST PUSH0 PUSH1 0x20 DUP3 ADD SWAP1 POP PUSH2 0x1403 PUSH0 DUP4 ADD DUP5 PUSH2 0x1311 JUMP JUMPDEST SWAP3 SWAP2 POP POP JUMP JUMPDEST PUSH0 DUP1 REVERT JUMPDEST PUSH0 PUSH1 0x1F NOT PUSH1 0x1F DUP4 ADD AND SWAP1 POP SWAP2 SWAP1 POP JUMP JUMPDEST PUSH32 0x4E487B7100000000000000000000000000000000000000000000000000000000 PUSH0 MSTORE PUSH1 0x41 PUSH1 0x4 MSTORE PUSH1 0x24 PUSH0 REVERT JUMPDEST PUSH2 0x1453 DUP3 PUSH2 0x140D JUMP JUMPDEST DUP2 ADD DUP2 DUP2 LT PUSH8 0xFFFFFFFFFFFFFFFF DUP3 GT OR ISZERO PUSH2 0x1472 JUMPI PUSH2 0x1471 PUSH2 0x141D JUMP JUMPDEST JUMPDEST DUP1 PUSH1 0x40 MSTORE POP POP POP JUMP JUMPDEST PUSH0 PUSH2 0x1484 PUSH2 0x138A JUMP JUMPDEST SWAP1 POP PUSH2 0x1490 DUP3 DUP3 PUSH2 0x144A JUMP JUMPDEST SWAP2 SWAP1 POP JUMP JUMPDEST PUSH0 DUP1 REVERT JUMPDEST PUSH0 DUP1 REVERT JUMPDEST PUSH0 PUSH8 0xFFFFFFFFFFFFFFFF DUP3 GT ISZERO PUSH2 0x14B7 JUMPI PUSH2 0x14B6 PUSH2 0x141D JUMP JUMPDEST JUMPDEST PUSH1 0x20 DUP3 MUL SWAP1 POP PUSH1 0x20 DUP2 ADD SWAP1 POP SWAP2 SWAP1 POP JUMP JUMPDEST PUSH0 DUP1 REVERT JUMPDEST PUSH0 PUSH2 0x14DE PUSH2 0x14D9 DUP5 PUSH2 0x149D JUMP JUMPDEST PUSH2 0x147B JUMP JUMPDEST SWAP1 POP DUP1 DUP4 DUP3 MSTORE PUSH1 0x20 DUP3 ADD SWAP1 POP PUSH1 0x20 DUP5 MUL DUP4 ADD DUP6 DUP2 GT ISZERO PUSH2 0x1501 JUMPI PUSH2 0x1500 PUSH2 0x14C8 JUMP JUMPDEST JUMPDEST DUP4 JUMPDEST DUP2 DUP2 LT ISZERO PUSH2 0x152A JUMPI DUP1 PUSH2 0x1516 DUP9 DUP3 PUSH2 0x13B1 JUMP JUMPDEST DUP5 MSTORE PUSH1 0x20 DUP5 ADD SWAP4 POP POP PUSH1 0x20 DUP2 ADD SWAP1 POP PUSH2 0x1503 JUMP JUMPDEST POP POP POP SWAP4 SWAP3 POP POP POP JUMP JUMPDEST PUSH0 DUP3 PUSH1 0x1F DUP4 ADD SLT PUSH2 0x1548 JUMPI PUSH2 0x1547 PUSH2 0x1499 JUMP JUMPDEST JUMPDEST DUP2 CALLDATALOAD PUSH2 0x1558 DUP5 DUP3 PUSH1 0x20 DUP7 ADD PUSH2 0x14CC JUMP JUMPDEST SWAP2 POP POP SWAP3 SWAP2 POP POP JUMP JUMPDEST PUSH0 PUSH8 0xFFFFFFFFFFFFFFFF DUP3 GT ISZERO PUSH2 0x157B JUMPI PUSH2 0x157A PUSH2 0x141D JUMP JUMPDEST JUMPDEST PUSH1 0x20 DUP3 MUL SWAP1 POP PUSH1 0x20 DUP2 ADD SWAP1 POP SWAP2 SWAP1 POP JUMP JUMPDEST PUSH0 DUP2 SWAP1 POP SWAP2 SWAP1 POP JUMP JUMPDEST PUSH2 0x159E DUP2 PUSH2 0x158C JUMP JUMPDEST DUP2 EQ PUSH2 0x15A8 JUMPI PUSH0 DUP1 REVERT JUMPDEST POP JUMP JUMPDEST PUSH0 DUP2 CALLDATALOAD SWAP1 POP PUSH2 0x15B9 DUP2 PUSH2 0x1595 JUMP JUMPDEST SWAP3 SWAP2 POP POP JUMP JUMPDEST PUSH0 PUSH1 0xA0 DUP3 DUP5 SUB SLT ISZERO PUSH2 0x15D4 JUMPI PUSH2 0x15D3 PUSH2 0x1409 JUMP JUMPDEST JUMPDEST PUSH2 0x15DE PUSH1 0xA0 PUSH2 0x147B JUMP JUMPDEST SWAP1 POP PUSH0 PUSH2 0x15ED DUP5 DUP3 DUP6 ADD PUSH2 0x13B1 JUMP JUMPDEST PUSH0 DUP4 ADD MSTORE POP PUSH1 0x20 PUSH2 0x1600 DUP5 DUP3 DUP6 ADD PUSH2 0x13B1 JUMP JUMPDEST PUSH1 0x20 DUP4 ADD MSTORE POP PUSH1 0x40 PUSH2 0x1614 DUP5 DUP3 DUP6 ADD PUSH2 0x15AB JUMP JUMPDEST PUSH1 0x40 DUP4 ADD MSTORE POP PUSH1 0x60 PUSH2 0x1628 DUP5 DUP3 DUP6 ADD PUSH2 0x15AB JUMP JUMPDEST PUSH1 0x60 DUP4 ADD MSTORE POP PUSH1 0x80 PUSH2 0x163C DUP5 DUP3 DUP6 ADD PUSH2 0x15AB JUMP JUMPDEST PUSH1 0x80 DUP4 ADD MSTORE POP SWAP3 SWAP2 POP POP JUMP JUMPDEST PUSH0 PUSH2 0x165A PUSH2 0x1655 DUP5 PUSH2 0x1561 JUMP JUMPDEST PUSH2 0x147B JUMP JUMPDEST SWAP1 POP DUP1 DUP4 DUP3 MSTORE PUSH1 0x20 DUP3 ADD SWAP1 POP PUSH1 0xA0 DUP5 MUL DUP4 ADD DUP6 DUP2 GT ISZERO PUSH2 0x167D JUMPI PUSH2 0x167C PUSH2 0x14C8 JUMP JUMPDEST JUMPDEST DUP4 JUMPDEST DUP2 DUP2 LT ISZERO PUSH2 0x16A6 JUMPI DUP1 PUSH2 0x1692 DUP9 DUP3 PUSH2 0x15BF JUMP JUMPDEST DUP5 MSTORE PUSH1 0x20 DUP5 ADD SWAP4 POP POP PUSH1 0xA0 DUP2 ADD SWAP1 POP PUSH2 0x167F JUMP JUMPDEST POP POP POP SWAP4 SWAP3 POP POP POP JUMP JUMPDEST PUSH0 DUP3 PUSH1 0x1F DUP4 ADD SLT PUSH2 0x16C4 JUMPI PUSH2 0x16C3 PUSH2 0x1499 JUMP JUMPDEST JUMPDEST DUP2 CALLDATALOAD PUSH2 0x16D4 DUP5 DUP3 PUSH1 0x20 DUP7 ADD PUSH2 0x1648 JUMP JUMPDEST SWAP2 POP POP SWAP3 SWAP2 POP POP JUMP JUMPDEST PUSH0 PUSH1 0xC0 DUP3 DUP5 SUB SLT ISZERO PUSH2 0x16F2 JUMPI PUSH2 0x16F1 PUSH2 0x1409 JUMP JUMPDEST JUMPDEST PUSH2 0x16FC PUSH1 0xC0 PUSH2 0x147B JUMP JUMPDEST SWAP1 POP PUSH0 DUP3 ADD CALLDATALOAD PUSH8 0xFFFFFFFFFFFFFFFF DUP2 GT ISZERO PUSH2 0x171B JUMPI PUSH2 0x171A PUSH2 0x1495 JUMP JUMPDEST JUMPDEST PUSH2 0x1727 DUP5 DUP3 DUP6 ADD PUSH2 0x1534 JUMP JUMPDEST PUSH0 DUP4 ADD MSTORE POP PUSH1 0x20 DUP3 ADD CALLDATALOAD PUSH8 0xFFFFFFFFFFFFFFFF DUP2 GT ISZERO PUSH2 0x174A JUMPI PUSH2 0x1749 PUSH2 0x1495 JUMP JUMPDEST JUMPDEST PUSH2 0x1756 DUP5 DUP3 DUP6 ADD PUSH2 0x16B0 JUMP JUMPDEST PUSH1 0x20 DUP4 ADD MSTORE POP PUSH1 0x40 DUP3 ADD CALLDATALOAD PUSH8 0xFFFFFFFFFFFFFFFF DUP2 GT ISZERO PUSH2 0x177A JUMPI PUSH2 0x1779 PUSH2 0x1495 JUMP JUMPDEST JUMPDEST PUSH2 0x1786 DUP5 DUP3 DUP6 ADD PUSH2 0x1534 JUMP JUMPDEST PUSH1 0x40 DUP4 ADD MSTORE POP PUSH1 0x60 DUP3 ADD CALLDATALOAD PUSH8 0xFFFFFFFFFFFFFFFF DUP2 GT ISZERO PUSH2 0x17AA JUMPI PUSH2 0x17A9 PUSH2 0x1495 JUMP JUMPDEST JUMPDEST PUSH2 0x17B6 DUP5 DUP3 DUP6 ADD PUSH2 0x1534 JUMP JUMPDEST PUSH1 0x60 DUP4 ADD MSTORE POP PUSH1 0x80 DUP3 ADD CALLDATALOAD PUSH8 0xFFFFFFFFFFFFFFFF DUP2 GT ISZERO PUSH2 0x17DA JUMPI PUSH2 0x17D9 PUSH2 0x1495 JUMP JUMPDEST JUMPDEST PUSH2 0x17E6 DUP5 DUP3 DUP6 ADD PUSH2 0x1534 JUMP JUMPDEST PUSH1 0x80 DUP4 ADD MSTORE POP PUSH1 0xA0 DUP3 ADD CALLDATALOAD PUSH8 0xFFFFFFFFFFFFFFFF DUP2 GT ISZERO PUSH2 0x180A JUMPI PUSH2 0x1809 PUSH2 0x1495 JUMP JUMPDEST JUMPDEST PUSH2 0x1816 DUP5 DUP3 DUP6 ADD PUSH2 0x1534 JUMP JUMPDEST PUSH1 0xA0 DUP4 ADD MSTORE POP SWAP3 SWAP2 POP POP JUMP JUMPDEST PUSH0 PUSH8 0xFFFFFFFFFFFFFFFF DUP3 GT ISZERO PUSH2 0x183C JUMPI PUSH2 0x183B PUSH2 0x141D JUMP JUMPDEST JUMPDEST PUSH1 0x20 DUP3 MUL SWAP1 POP PUSH1 0x20 DUP2 ADD SWAP1 POP SWAP2 SWAP1 POP JUMP JUMPDEST PUSH0 PUSH2 0x185F PUSH2 0x185A DUP5 PUSH2 0x1822 JUMP JUMPDEST PUSH2 0x147B JUMP JUMPDEST SWAP1 POP DUP1 DUP4 DUP3 MSTORE PUSH1 0x20 DUP3 ADD SWAP1 POP PUSH1 0x20 DUP5 MUL DUP4 ADD DUP6 DUP2 GT ISZERO PUSH2 0x1882 JUMPI PUSH2 0x1881 PUSH2 0x14C8 JUMP JUMPDEST JUMPDEST DUP4 JUMPDEST DUP2 DUP2 LT ISZERO PUSH2 0x18AB JUMPI DUP1 PUSH2 0x1897 DUP9 DUP3 PUSH2 0x15AB JUMP JUMPDEST DUP5 MSTORE PUSH1 0x20 DUP5 ADD SWAP4 POP POP PUSH1 0x20 DUP2 ADD SWAP1 POP PUSH2 0x1884 JUMP JUMPDEST POP POP POP SWAP4 SWAP3 POP POP POP JUMP JUMPDEST PUSH0 DUP3 PUSH1 0x1F DUP4 ADD SLT PUSH2 0x18C9 JUMPI PUSH2 0x18C8 PUSH2 0x1499 JUMP JUMPDEST JUMPDEST DUP2 CALLDATALOAD PUSH2 0x18D9 DUP5 DUP3 PUSH1 0x20 DUP7 ADD PUSH2 0x184D JUMP JUMPDEST SWAP2 POP POP SWAP3 SWAP2 POP POP JUMP JUMPDEST PUSH0 PUSH1 0x80 DUP3 DUP5 SUB SLT ISZERO PUSH2 0x18F7 JUMPI PUSH2 0x18F6 PUSH2 0x1409 JUMP JUMPDEST JUMPDEST PUSH2 0x1901 PUSH1 0x80 PUSH2 0x147B JUMP JUMPDEST SWAP1 POP PUSH0 DUP3 ADD CALLDATALOAD PUSH8 0xFFFFFFFFFFFFFFFF DUP2 GT ISZERO PUSH2 0x1920 JUMPI PUSH2 0x191F PUSH2 0x1495 JUMP JUMPDEST JUMPDEST PUSH2 0x192C DUP5 DUP3 DUP6 ADD PUSH2 0x18B5 JUMP JUMPDEST PUSH0 DUP4 ADD MSTORE POP PUSH1 0x20 DUP3 ADD CALLDATALOAD PUSH8 0xFFFFFFFFFFFFFFFF DUP2 GT ISZERO PUSH2 0x194F JUMPI PUSH2 0x194E PUSH2 0x1495 JUMP JUMPDEST JUMPDEST PUSH2 0x195B DUP5 DUP3 DUP6 ADD PUSH2 0x18B5 JUMP JUMPDEST PUSH1 0x20 DUP4 ADD MSTORE POP PUSH1 0x40 DUP3 ADD CALLDATALOAD PUSH8 0xFFFFFFFFFFFFFFFF DUP2 GT ISZERO PUSH2 0x197F JUMPI PUSH2 0x197E PUSH2 0x1495 JUMP JUMPDEST JUMPDEST PUSH2 0x198B DUP5 DUP3 DUP6 ADD PUSH2 0x18B5 JUMP JUMPDEST PUSH1 0x40 DUP4 ADD MSTORE POP PUSH1 0x60 PUSH2 0x199F DUP5 DUP3 DUP6 ADD PUSH2 0x15AB JUMP JUMPDEST PUSH1 0x60 DUP4 ADD MSTORE POP SWAP3 SWAP2 POP POP JUMP JUMPDEST PUSH0 PUSH1 0xFF DUP3 AND SWAP1 POP SWAP2 SWAP1 POP JUMP JUMPDEST PUSH2 0x19C0 DUP2 PUSH2 0x19AB JUMP JUMPDEST DUP2 EQ PUSH2 0x19CA JUMPI PUSH0 DUP1 REVERT JUMPDEST POP JUMP JUMPDEST PUSH0 DUP2 CALLDATALOAD SWAP1 POP PUSH2 0x19DB DUP2 PUSH2 0x19B7 JUMP JUMPDEST SWAP3 SWAP2 POP POP JUMP JUMPDEST PUSH0 PUSH1 0xA0 DUP3 DUP5 SUB SLT ISZERO PUSH2 0x19F6 JUMPI PUSH2 0x19F5 PUSH2 0x1409 JUMP JUMPDEST JUMPDEST PUSH2 0x1A00 PUSH1 0xA0 PUSH2 0x147B JUMP JUMPDEST SWAP1 POP PUSH0 PUSH2 0x1A0F DUP5 DUP3 DUP6 ADD PUSH2 0x13B1 JUMP JUMPDEST PUSH0 DUP4 ADD MSTORE POP PUSH1 0x20 PUSH2 0x1A22 DUP5 DUP3 DUP6 ADD PUSH2 0x13B1 JUMP JUMPDEST PUSH1 0x20 DUP4 ADD MSTORE POP PUSH1 0x40 PUSH2 0x1A36 DUP5 DUP3 DUP6 ADD PUSH2 0x13B1 JUMP JUMPDEST PUSH1 0x40 DUP4 ADD MSTORE POP PUSH1 0x60 PUSH2 0x1A4A DUP5 DUP3 DUP6 ADD PUSH2 0x13B1 JUMP JUMPDEST PUSH1 0x60 DUP4 ADD MSTORE POP PUSH1 0x80 PUSH2 0x1A5E DUP5 DUP3 DUP6 ADD PUSH2 0x13B1 JUMP JUMPDEST PUSH1 0x80 DUP4 ADD MSTORE POP SWAP3 SWAP2 POP POP JUMP JUMPDEST PUSH0 DUP1 PUSH0 DUP1 PUSH0 DUP1 PUSH0 DUP1 PUSH0 DUP1 PUSH2 0x1C0 DUP12 DUP14 SUB SLT ISZERO PUSH2 0x1A89 JUMPI PUSH2 0x1A88 PUSH2 0x1393 JUMP JUMPDEST JUMPDEST PUSH0 PUSH2 0x1A96 DUP14 DUP3 DUP15 ADD PUSH2 0x13B1 JUMP JUMPDEST SWAP11 POP POP PUSH1 0x20 DUP12 ADD CALLDATALOAD PUSH8 0xFFFFFFFFFFFFFFFF DUP2 GT ISZERO PUSH2 0x1AB7 JUMPI PUSH2 0x1AB6 PUSH2 0x1397 JUMP JUMPDEST JUMPDEST PUSH2 0x1AC3 DUP14 DUP3 DUP15 ADD PUSH2 0x16DD JUMP JUMPDEST SWAP10 POP POP PUSH1 0x40 DUP12 ADD CALLDATALOAD PUSH8 0xFFFFFFFFFFFFFFFF DUP2 GT ISZERO PUSH2 0x1AE4 JUMPI PUSH2 0x1AE3 PUSH2 0x1397 JUMP JUMPDEST JUMPDEST PUSH2 0x1AF0 DUP14 DUP3 DUP15 ADD PUSH2 0x18E2 JUMP JUMPDEST SWAP9 POP POP PUSH1 0x60 PUSH2 0x1B01 DUP14 DUP3 DUP15 ADD PUSH2 0x19CD JUMP JUMPDEST SWAP8 POP POP PUSH1 0x80 PUSH2 0x1B12 DUP14 DUP3 DUP15 ADD PUSH2 0x13B1 JUMP JUMPDEST SWAP7 POP POP PUSH1 0xA0 DUP12 ADD CALLDATALOAD PUSH8 0xFFFFFFFFFFFFFFFF DUP2 GT ISZERO PUSH2 0x1B33 JUMPI PUSH2 0x1B32 PUSH2 0x1397 JUMP JUMPDEST JUMPDEST PUSH2 0x1B3F DUP14 DUP3 DUP15 ADD PUSH2 0x16DD JUMP JUMPDEST SWAP6 POP POP PUSH1 0xC0 DUP12 ADD CALLDATALOAD PUSH8 0xFFFFFFFFFFFFFFFF DUP2 GT ISZERO PUSH2 0x1B60 JUMPI PUSH2 0x1B5F PUSH2 0x1397 JUMP JUMPDEST JUMPDEST PUSH2 0x1B6C DUP14 DUP3 DUP15 ADD PUSH2 0x18E2 JUMP JUMPDEST SWAP5 POP POP PUSH1 0xE0 PUSH2 0x1B7D DUP14 DUP3 DUP15 ADD PUSH2 0x19CD JUMP JUMPDEST SWAP4 POP POP PUSH2 0x100 PUSH2 0x1B8F DUP14 DUP3 DUP15 ADD PUSH2 0x13B1 JUMP JUMPDEST SWAP3 POP POP PUSH2 0x120 PUSH2 0x1BA1 DUP14 DUP3 DUP15 ADD PUSH2 0x19E1 JUMP JUMPDEST SWAP2 POP POP SWAP3 SWAP6 SWAP9 SWAP12 SWAP2 SWAP5 SWAP8 SWAP11 POP SWAP3 SWAP6 SWAP9 POP JUMP JUMPDEST PUSH0 DUP1 PUSH2 0x140 DUP4 DUP6 SUB SLT ISZERO PUSH2 0x1BCA JUMPI PUSH2 0x1BC9 PUSH2 0x1393 JUMP JUMPDEST JUMPDEST PUSH0 PUSH2 0x1BD7 DUP6 DUP3 DUP7 ADD PUSH2 0x19E1 JUMP JUMPDEST SWAP3 POP POP PUSH1 0xA0 PUSH2 0x1BE8 DUP6 DUP3 DUP7 ADD PUSH2 0x19E1 JUMP JUMPDEST SWAP2 POP POP SWAP3 POP SWAP3 SWAP1 POP JUMP JUMPDEST PUSH0 DUP2 MLOAD SWAP1 POP SWAP2 SWAP1 POP JUMP JUMPDEST PUSH0 DUP3 DUP3 MSTORE PUSH1 0x20 DUP3 ADD SWAP1 POP SWAP3 SWAP2 POP POP JUMP JUMPDEST PUSH0 JUMPDEST DUP4 DUP2 LT ISZERO PUSH2 0x1C29 JUMPI DUP1 DUP3 ADD MLOAD DUP2 DUP5 ADD MSTORE PUSH1 0x20 DUP2 ADD SWAP1 POP PUSH2 0x1C0E JUMP JUMPDEST PUSH0 DUP5 DUP5 ADD MSTORE POP POP POP POP JUMP JUMPDEST PUSH0 PUSH2 0x1C3E DUP3 PUSH2 0x1BF2 JUMP JUMPDEST PUSH2 0x1C48 DUP2 DUP6 PUSH2 0x1BFC JUMP JUMPDEST SWAP4 POP PUSH2 0x1C58 DUP2 DUP6 PUSH1 0x20 DUP7 ADD PUSH2 0x1C0C JUMP JUMPDEST PUSH2 0x1C61 DUP2 PUSH2 0x140D JUMP JUMPDEST DUP5 ADD SWAP2 POP POP SWAP3 SWAP2 POP POP JUMP JUMPDEST PUSH0 PUSH1 0x20 DUP3 ADD SWAP1 POP DUP2 DUP2 SUB PUSH0 DUP4 ADD MSTORE PUSH2 0x1C84 DUP2 DUP5 PUSH2 0x1C34 JUMP JUMPDEST SWAP1 POP SWAP3 SWAP2 POP POP JUMP JUMPDEST PUSH0 DUP1 PUSH0 DUP1 PUSH1 0x80 DUP6 DUP8 SUB SLT ISZERO PUSH2 0x1CA4 JUMPI PUSH2 0x1CA3 PUSH2 0x1393 JUMP JUMPDEST JUMPDEST PUSH0 PUSH2 0x1CB1 DUP8 DUP3 DUP9 ADD PUSH2 0x13B1 JUMP JUMPDEST SWAP5 POP POP PUSH1 0x20 DUP6 ADD CALLDATALOAD PUSH8 0xFFFFFFFFFFFFFFFF DUP2 GT ISZERO PUSH2 0x1CD2 JUMPI PUSH2 0x1CD1 PUSH2 0x1397 JUMP JUMPDEST JUMPDEST PUSH2 0x1CDE DUP8 DUP3 DUP9 ADD PUSH2 0x16DD JUMP JUMPDEST SWAP4 POP POP PUSH1 0x40 DUP6 ADD CALLDATALOAD PUSH8 0xFFFFFFFFFFFFFFFF DUP2 GT ISZERO PUSH2 0x1CFF JUMPI PUSH2 0x1CFE PUSH2 0x1397 JUMP JUMPDEST JUMPDEST PUSH2 0x1D0B DUP8 DUP3 DUP9 ADD PUSH2 0x18E2 JUMP JUMPDEST SWAP3 POP POP PUSH1 0x60 PUSH2 0x1D1C DUP8 DUP3 DUP9 ADD PUSH2 0x19CD JUMP JUMPDEST SWAP2 POP POP SWAP3 SWAP6 SWAP2 SWAP5 POP SWAP3 POP JUMP JUMPDEST PUSH0 DUP2 MLOAD SWAP1 POP SWAP2 SWAP1 POP JUMP JUMPDEST PUSH0 DUP3 DUP3 MSTORE PUSH1 0x20 DUP3 ADD SWAP1 POP SWAP3 SWAP2 POP POP JUMP JUMPDEST PUSH0 DUP2 SWAP1 POP PUSH1 0x20 DUP3 ADD SWAP1 POP SWAP2 SWAP1 POP JUMP JUMPDEST PUSH2 0x1D5A DUP2 PUSH2 0x1308 JUMP JUMPDEST DUP3 MSTORE POP POP JUMP JUMPDEST PUSH0 PUSH2 0x1D6B DUP4 DUP4 PUSH2 0x1D51 JUMP JUMPDEST PUSH1 0x20 DUP4 ADD SWAP1 POP SWAP3 SWAP2 POP POP JUMP JUMPDEST PUSH0 PUSH1 0x20 DUP3 ADD SWAP1 POP SWAP2 SWAP1 POP JUMP JUMPDEST PUSH0 PUSH2 0x1D8D DUP3 PUSH2 0x1D28 JUMP JUMPDEST PUSH2 0x1D97 DUP2 DUP6 PUSH2 0x1D32 JUMP JUMPDEST SWAP4 POP PUSH2 0x1DA2 DUP4 PUSH2 0x1D42 JUMP JUMPDEST DUP1 PUSH0 JUMPDEST DUP4 DUP2 LT ISZERO PUSH2 0x1DD2 JUMPI DUP2 MLOAD PUSH2 0x1DB9 DUP9 DUP3 PUSH2 0x1D60 JUMP JUMPDEST SWAP8 POP PUSH2 0x1DC4 DUP4 PUSH2 0x1D77 JUMP JUMPDEST SWAP3 POP POP PUSH1 0x1 DUP2 ADD SWAP1 POP PUSH2 0x1DA5 JUMP JUMPDEST POP DUP6 SWAP4 POP POP POP POP SWAP3 SWAP2 POP POP JUMP JUMPDEST PUSH0 DUP2 MLOAD SWAP1 POP SWAP2 SWAP1 POP JUMP JUMPDEST PUSH0 DUP3 DUP3 MSTORE PUSH1 0x20 DUP3 ADD SWAP1 POP SWAP3 SWAP2 POP POP JUMP JUMPDEST PUSH0 DUP2 SWAP1 POP PUSH1 0x20 DUP3 ADD SWAP1 POP SWAP2 SWAP1 POP JUMP JUMPDEST PUSH2 0x1E11 DUP2 PUSH2 0x158C JUMP JUMPDEST DUP3 MSTORE POP POP JUMP JUMPDEST PUSH1 0xA0 DUP3 ADD PUSH0 DUP3 ADD MLOAD PUSH2 0x1E2B PUSH0 DUP6 ADD DUP3 PUSH2 0x1D51 JUMP JUMPDEST POP PUSH1 0x20 DUP3 ADD MLOAD PUSH2 0x1E3E PUSH1 0x20 DUP6 ADD DUP3 PUSH2 0x1D51 JUMP JUMPDEST POP PUSH1 0x40 DUP3 ADD MLOAD PUSH2 0x1E51 PUSH1 0x40 DUP6 ADD DUP3 PUSH2 0x1E08 JUMP JUMPDEST POP PUSH1 0x60 DUP3 ADD MLOAD PUSH2 0x1E64 PUSH1 0x60 DUP6 ADD DUP3 PUSH2 0x1E08 JUMP JUMPDEST POP PUSH1 0x80 DUP3 ADD MLOAD PUSH2 0x1E77 PUSH1 0x80 DUP6 ADD DUP3 PUSH2 0x1E08 JUMP JUMPDEST POP POP POP POP JUMP JUMPDEST PUSH0 PUSH2 0x1E88 DUP4 DUP4 PUSH2 0x1E17 JUMP JUMPDEST PUSH1 0xA0 DUP4 ADD SWAP1 POP SWAP3 SWAP2 POP POP JUMP JUMPDEST PUSH0 PUSH1 0x20 DUP3 ADD SWAP1 POP SWAP2 SWAP1 POP JUMP JUMPDEST PUSH0 PUSH2 0x1EAA DUP3 PUSH2 0x1DDF JUMP JUMPDEST PUSH2 0x1EB4 DUP2 DUP6 PUSH2 0x1DE9 JUMP JUMPDEST SWAP4 POP PUSH2 0x1EBF DUP4 PUSH2 0x1DF9 JUMP JUMPDEST DUP1 PUSH0 JUMPDEST DUP4 DUP2 LT ISZERO PUSH2 0x1EEF JUMPI DUP2 MLOAD PUSH2 0x1ED6 DUP9 DUP3 PUSH2 0x1E7D JUMP JUMPDEST SWAP8 POP PUSH2 0x1EE1 DUP4 PUSH2 0x1E94 JUMP JUMPDEST SWAP3 POP POP PUSH1 0x1 DUP2 ADD SWAP1 POP PUSH2 0x1EC2 JUMP JUMPDEST POP DUP6 SWAP4 POP POP POP POP SWAP3 SWAP2 POP POP JUMP JUMPDEST PUSH0 PUSH1 0xC0 DUP4 ADD PUSH0 DUP4 ADD MLOAD DUP5 DUP3 SUB PUSH0 DUP7 ADD MSTORE PUSH2 0x1F16 DUP3 DUP3 PUSH2 0x1D83 JUMP JUMPDEST SWAP2 POP POP PUSH1 0x20 DUP4 ADD MLOAD DUP5 DUP3 SUB PUSH1 0x20 DUP7 ADD MSTORE PUSH2 0x1F30 DUP3 DUP3 PUSH2 0x1EA0 JUMP JUMPDEST SWAP2 POP POP PUSH1 0x40 DUP4 ADD MLOAD DUP5 DUP3 SUB PUSH1 0x40 DUP7 ADD MSTORE PUSH2 0x1F4A DUP3 DUP3 PUSH2 0x1D83 JUMP JUMPDEST SWAP2 POP POP PUSH1 0x60 DUP4 ADD MLOAD DUP5 DUP3 SUB PUSH1 0x60 DUP7 ADD MSTORE PUSH2 0x1F64 DUP3 DUP3 PUSH2 0x1D83 JUMP JUMPDEST SWAP2 POP POP PUSH1 0x80 DUP4 ADD MLOAD DUP5 DUP3 SUB PUSH1 0x80 DUP7 ADD MSTORE PUSH2 0x1F7E DUP3 DUP3 PUSH2 0x1D83 JUMP JUMPDEST SWAP2 POP POP PUSH1 0xA0 DUP4 ADD MLOAD DUP5 DUP3 SUB PUSH1 0xA0 DUP7 ADD MSTORE PUSH2 0x1F98 DUP3 DUP3 PUSH2 0x1D83 JUMP JUMPDEST SWAP2 POP POP DUP1 SWAP2 POP POP SWAP3 SWAP2 POP POP JUMP JUMPDEST PUSH0 DUP2 MLOAD SWAP1 POP SWAP2 SWAP1 POP JUMP JUMPDEST PUSH0 DUP3 DUP3 MSTORE PUSH1 0x20 DUP3 ADD SWAP1 POP SWAP3 SWAP2 POP POP JUMP JUMPDEST PUSH0 DUP2 SWAP1 POP PUSH1 0x20 DUP3 ADD SWAP1 POP SWAP2 SWAP1 POP JUMP JUMPDEST PUSH0 PUSH2 0x1FD9 DUP4 DUP4 PUSH2 0x1E08 JUMP JUMPDEST PUSH1 0x20 DUP4 ADD SWAP1 POP SWAP3 SWAP2 POP POP JUMP JUMPDEST PUSH0 PUSH1 0x20 DUP3 ADD SWAP1 POP SWAP2 SWAP1 POP JUMP JUMPDEST PUSH0 PUSH2 0x1FFB DUP3 PUSH2 0x1FA5 JUMP JUMPDEST PUSH2 0x2005 DUP2 DUP6 PUSH2 0x1FAF JUMP JUMPDEST SWAP4 POP PUSH2 0x2010 DUP4 PUSH2 0x1FBF JUMP JUMPDEST DUP1 PUSH0 JUMPDEST DUP4 DUP2 LT ISZERO PUSH2 0x2040 JUMPI DUP2 MLOAD PUSH2 0x2027 DUP9 DUP3 PUSH2 0x1FCE JUMP JUMPDEST SWAP8 POP PUSH2 0x2032 DUP4 PUSH2 0x1FE5 JUMP JUMPDEST SWAP3 POP POP PUSH1 0x1 DUP2 ADD SWAP1 POP PUSH2 0x2013 JUMP JUMPDEST POP DUP6 SWAP4 POP POP POP POP SWAP3 SWAP2 POP POP JUMP JUMPDEST PUSH0 PUSH1 0x80 DUP4 ADD PUSH0 DUP4 ADD MLOAD DUP5 DUP3 SUB PUSH0 DUP7 ADD MSTORE PUSH2 0x2067 DUP3 DUP3 PUSH2 0x1FF1 JUMP JUMPDEST SWAP2 POP POP PUSH1 0x20 DUP4 ADD MLOAD DUP5 DUP3 SUB PUSH1 0x20 DUP7 ADD MSTORE PUSH2 0x2081 DUP3 DUP3 PUSH2 0x1FF1 JUMP JUMPDEST SWAP2 POP POP PUSH1 0x40 DUP4 ADD MLOAD DUP5 DUP3 SUB PUSH1 0x40 DUP7 ADD MSTORE PUSH2 0x209B DUP3 DUP3 PUSH2 0x1FF1 JUMP JUMPDEST SWAP2 POP POP PUSH1 0x60 DUP4 ADD MLOAD PUSH2 0x20B0 PUSH1 0x60 DUP7 ADD DUP3 PUSH2 0x1E08 JUMP JUMPDEST POP DUP1 SWAP2 POP POP SWAP3 SWAP2 POP POP JUMP JUMPDEST PUSH2 0x20C4 DUP2 PUSH2 0x19AB JUMP JUMPDEST DUP3 MSTORE POP POP JUMP JUMPDEST PUSH0 PUSH1 0x60 DUP3 ADD SWAP1 POP DUP2 DUP2 SUB PUSH0 DUP4 ADD MSTORE PUSH2 0x20E2 DUP2 DUP7 PUSH2 0x1EFC JUMP JUMPDEST SWAP1 POP DUP2 DUP2 SUB PUSH1 0x20 DUP4 ADD MSTORE PUSH2 0x20F6 DUP2 DUP6 PUSH2 0x204D JUMP JUMPDEST SWAP1 POP PUSH2 0x2105 PUSH1 0x40 DUP4 ADD DUP5 PUSH2 0x20BB JUMP JUMPDEST SWAP5 SWAP4 POP POP POP POP JUMP JUMPDEST PUSH0 DUP2 ISZERO ISZERO SWAP1 POP SWAP2 SWAP1 POP JUMP JUMPDEST PUSH2 0x2121 DUP2 PUSH2 0x210D JUMP JUMPDEST DUP2 EQ PUSH2 0x212B JUMPI PUSH0 DUP1 REVERT JUMPDEST POP JUMP JUMPDEST PUSH0 DUP2 MLOAD SWAP1 POP PUSH2 0x213C DUP2 PUSH2 0x2118 JUMP JUMPDEST SWAP3 SWAP2 POP POP JUMP JUMPDEST PUSH0 PUSH1 0x20 DUP3 DUP5 SUB SLT ISZERO PUSH2 0x2157 JUMPI PUSH2 0x2156 PUSH2 0x1393 JUMP JUMPDEST JUMPDEST PUSH0 PUSH2 0x2164 DUP5 DUP3 DUP6 ADD PUSH2 0x212E JUMP JUMPDEST SWAP2 POP POP SWAP3 SWAP2 POP POP JUMP JUMPDEST PUSH1 0xA0 DUP3 ADD PUSH0 DUP3 ADD MLOAD PUSH2 0x2181 PUSH0 DUP6 ADD DUP3 PUSH2 0x1D51 JUMP JUMPDEST POP PUSH1 0x20 DUP3 ADD MLOAD PUSH2 0x2194 PUSH1 0x20 DUP6 ADD DUP3 PUSH2 0x1D51 JUMP JUMPDEST POP PUSH1 0x40 DUP3 ADD MLOAD PUSH2 0x21A7 PUSH1 0x40 DUP6 ADD DUP3 PUSH2 0x1D51 JUMP JUMPDEST POP PUSH1 0x60 DUP3 ADD MLOAD PUSH2 0x21BA PUSH1 0x60 DUP6 ADD DUP3 PUSH2 0x1D51 JUMP JUMPDEST POP PUSH1 0x80 DUP3 ADD MLOAD PUSH2 0x21CD PUSH1 0x80 DUP6 ADD DUP3 PUSH2 0x1D51 JUMP JUMPDEST POP POP POP POP JUMP JUMPDEST PUSH0 PUSH1 0xA0 DUP3 ADD SWAP1 POP PUSH2 0x21E6 PUSH0 DUP4 ADD DUP5 PUSH2 0x216D JUMP JUMPDEST SWAP3 SWAP2 POP POP JUMP JUMPDEST PUSH32 0x4E487B7100000000000000000000000000000000000000000000000000000000 PUSH0 MSTORE PUSH1 0x32 PUSH1 0x4 MSTORE PUSH1 0x24 PUSH0 REVERT JUMPDEST PUSH32 0x7120686173206265656E2072657665616C6564206265666F7265000000000000 PUSH0 DUP3 ADD MSTORE POP JUMP JUMPDEST PUSH0 PUSH2 0x224D PUSH1 0x1A DUP4 PUSH2 0x1BFC JUMP JUMPDEST SWAP2 POP PUSH2 0x2258 DUP3 PUSH2 0x2219 JUMP JUMPDEST PUSH1 0x20 DUP3 ADD SWAP1 POP SWAP2 SWAP1 POP JUMP JUMPDEST PUSH0 PUSH1 0x20 DUP3 ADD SWAP1 POP DUP2 DUP2 SUB PUSH0 DUP4 ADD MSTORE PUSH2 0x227A DUP2 PUSH2 0x2241 JUMP JUMPDEST SWAP1 POP SWAP2 SWAP1 POP JUMP JUMPDEST PUSH0 PUSH1 0x20 DUP3 ADD SWAP1 POP PUSH2 0x2294 PUSH0 DUP4 ADD DUP5 PUSH2 0x12F9 JUMP JUMPDEST SWAP3 SWAP2 POP POP JUMP JUMPDEST PUSH32 0x596F75206E65656420746F207374616B65203120457468657220746F20737562 PUSH0 DUP3 ADD MSTORE PUSH32 0x6D69742064617461210000000000000000000000000000000000000000000000 PUSH1 0x20 DUP3 ADD MSTORE POP JUMP JUMPDEST PUSH0 PUSH2 0x22F4 PUSH1 0x29 DUP4 PUSH2 0x1BFC JUMP JUMPDEST SWAP2 POP PUSH2 0x22FF DUP3 PUSH2 0x229A JUMP JUMPDEST PUSH1 0x40 DUP3 ADD SWAP1 POP SWAP2 SWAP1 POP JUMP JUMPDEST PUSH0 PUSH1 0x20 DUP3 ADD SWAP1 POP DUP2 DUP2 SUB PUSH0 DUP4 ADD MSTORE PUSH2 0x2321 DUP2 PUSH2 0x22E8 JUMP JUMPDEST SWAP1 POP SWAP2 SWAP1 POP JUMP JUMPDEST PUSH32 0x4E487B7100000000000000000000000000000000000000000000000000000000 PUSH0 MSTORE PUSH1 0x11 PUSH1 0x4 MSTORE PUSH1 0x24 PUSH0 REVERT JUMPDEST PUSH0 PUSH2 0x235F DUP3 PUSH2 0x1308 JUMP JUMPDEST SWAP2 POP PUSH2 0x236A DUP4 PUSH2 0x1308 JUMP JUMPDEST SWAP3 POP DUP3 DUP3 ADD SWAP1 POP DUP1 DUP3 GT ISZERO PUSH2 0x2382 JUMPI PUSH2 0x2381 PUSH2 0x2328 JUMP JUMPDEST JUMPDEST SWAP3 SWAP2 POP POP JUMP JUMPDEST PUSH32 0x4E487B7100000000000000000000000000000000000000000000000000000000 PUSH0 MSTORE PUSH1 0x12 PUSH1 0x4 MSTORE PUSH1 0x24 PUSH0 REVERT JUMPDEST PUSH0 PUSH2 0x23BF DUP3 PUSH2 0x1308 JUMP JUMPDEST SWAP2 POP PUSH2 0x23CA DUP4 PUSH2 0x1308 JUMP JUMPDEST SWAP3 POP DUP3 PUSH2 0x23DA JUMPI PUSH2 0x23D9 PUSH2 0x2388 JUMP JUMPDEST JUMPDEST DUP3 DUP3 DIV SWAP1 POP SWAP3 SWAP2 POP POP JUMP JUMPDEST PUSH0 PUSH2 0x23EF DUP3 PUSH2 0x1308 JUMP JUMPDEST SWAP2 POP PUSH32 0xFFFFFFFFFFFFFFFFFFFFFFFFFFFFFFFFFFFFFFFFFFFFFFFFFFFFFFFFFFFFFFFF DUP3 SUB PUSH2 0x2421 JUMPI PUSH2 0x2420 PUSH2 0x2328 JUMP JUMPDEST JUMPDEST PUSH1 0x1 DUP3 ADD SWAP1 POP SWAP2 SWAP1 POP JUMP JUMPDEST PUSH0 PUSH2 0x2436 DUP3 PUSH2 0x1308 JUMP JUMPDEST SWAP2 POP PUSH2 0x2441 DUP4 PUSH2 0x1308 JUMP JUMPDEST SWAP3 POP DUP3 DUP3 SUB SWAP1 POP DUP2 DUP2 GT ISZERO PUSH2 0x2459 JUMPI PUSH2 0x2458 PUSH2 0x2328 JUMP JUMPDEST JUMPDEST SWAP3 SWAP2 POP POP JUMP JUMPDEST PUSH0 PUSH2 0x2469 DUP3 PUSH2 0x1308 JUMP JUMPDEST SWAP2 POP PUSH2 0x2474 DUP4 PUSH2 0x1308 JUMP JUMPDEST SWAP3 POP DUP3 DUP3 MUL PUSH2 0x2482 DUP2 PUSH2 0x1308 JUMP JUMPDEST SWAP2 POP DUP3 DUP3 DIV DUP5 EQ DUP4 ISZERO OR PUSH2 0x2499 JUMPI PUSH2 0x2498 PUSH2 0x2328 JUMP JUMPDEST JUMPDEST POP SWAP3 SWAP2 POP POP JUMP JUMPDEST PUSH0 DUP2 SWAP1 POP SWAP2 SWAP1 POP JUMP JUMPDEST PUSH0 DUP2 SWAP1 POP SWAP2 SWAP1 POP JUMP JUMPDEST PUSH0 PUSH2 0x24CC PUSH2 0x24C7 PUSH2 0x24C2 DUP5 PUSH2 0x24A0 JUMP JUMPDEST PUSH2 0x24A9 JUMP JUMPDEST PUSH2 0x1308 JUMP JUMPDEST SWAP1 POP SWAP2 SWAP1 POP JUMP JUMPDEST PUSH2 0x24DC DUP2 PUSH2 0x24B2 JUMP JUMPDEST DUP3 MSTORE POP POP JUMP JUMPDEST PUSH0 PUSH1 0x40 DUP3 ADD SWAP1 POP PUSH2 0x24F5 PUSH0 DUP4 ADD DUP6 PUSH2 0x12F9 JUMP JUMPDEST PUSH2 0x2502 PUSH1 0x20 DUP4 ADD DUP5 PUSH2 0x24D3 JUMP JUMPDEST SWAP4 SWAP3 POP POP POP JUMP INVALID LOG2 PUSH5 0x6970667358 0x22 SLT KECCAK256 0xBD MSTORE 0xB3 BASEFEE DUP13 DUP2 0xEC DUP8 EXTCODESIZE 0xC0 PUSH9 0xC216367C50D28A0AFD 0xD1 CALLDATALOAD SELFDESTRUCT 0xBC SMOD PUSH25 0x27F3049D4E2264736F6C634300081600336080604052348015 PUSH3 0x10 JUMPI PUSH0 DUP1 REVERT JUMPDEST POP PUSH1 0x40 MLOAD PUSH3 0x21ED CODESIZE SUB DUP1 PUSH3 0x21ED DUP4 CODECOPY DUP2 DUP2 ADD PUSH1 0x40 MSTORE DUP2 ADD SWAP1 PUSH3 0x36 SWAP2 SWAP1 PUSH3 0x97 JUMP JUMPDEST DUP4 PUSH0 DUP2 SWAP1 SSTORE POP DUP3 PUSH1 0x1 DUP2 SWAP1 SSTORE POP DUP2 PUSH1 0x2 DUP2 SWAP1 SSTORE POP DUP1 PUSH1 0x3 DUP2 SWAP1 SSTORE POP POP POP POP POP PUSH3 0x106 JUMP JUMPDEST PUSH0 DUP1 REVERT JUMPDEST PUSH0 DUP2 SWAP1 POP SWAP2 SWAP1 POP JUMP JUMPDEST PUSH3 0x73 DUP2 PUSH3 0x5F JUMP JUMPDEST DUP2 EQ PUSH3 0x7E JUMPI PUSH0 DUP1 REVERT JUMPDEST POP JUMP JUMPDEST PUSH0 DUP2 MLOAD SWAP1 POP PUSH3 0x91 DUP2 PUSH3 0x68 JUMP JUMPDEST SWAP3 SWAP2 POP POP JUMP JUMPDEST PUSH0 DUP1 PUSH0 DUP1 PUSH1 0x80 DUP6 DUP8 SUB SLT ISZERO PUSH3 0xB2 JUMPI PUSH3 0xB1 PUSH3 0x5B JUMP JUMPDEST JUMPDEST PUSH0 PUSH3 0xC1 DUP8 DUP3 DUP9 ADD PUSH3 0x81 JUMP JUMPDEST SWAP5 POP POP PUSH1 0x20 PUSH3 0xD4 DUP8 DUP3 DUP9 ADD PUSH3 0x81 JUMP JUMPDEST SWAP4 POP POP PUSH1 0x40 PUSH3 0xE7 DUP8 DUP3 DUP9 ADD PUSH3 0x81 JUMP JUMPDEST SWAP3 POP POP PUSH1 0x60 PUSH3 0xFA DUP8 DUP3 DUP9 ADD PUSH3 0x81 JUMP JUMPDEST SWAP2 POP POP SWAP3 SWAP6 SWAP2 SWAP5 POP SWAP3 POP JUMP JUMPDEST PUSH2 0x20D9 DUP1 PUSH3 0x114 PUSH0 CODECOPY PUSH0 RETURN INVALID PUSH1 0x80 PUSH1 0x40 MSTORE CALLVALUE DUP1 ISZERO PUSH2 0xF JUMPI PUSH0 DUP1 REVERT JUMPDEST POP PUSH1 0x4 CALLDATASIZE LT PUSH2 0xE8 JUMPI PUSH0 CALLDATALOAD PUSH1 0xE0 SHR DUP1 PUSH4 0x7E58F901 GT PUSH2 0x8A JUMPI DUP1 PUSH4 0xA1991ACC GT PUSH2 0x64 JUMPI DUP1 PUSH4 0xA1991ACC EQ PUSH2 0x2B8 JUMPI DUP1 PUSH4 0xA6806D91 EQ PUSH2 0x2E8 JUMPI DUP1 PUSH4 0xAB225206 EQ PUSH2 0x318 JUMPI DUP1 PUSH4 0xB455CB4B EQ PUSH2 0x348 JUMPI PUSH2 0xE8 JUMP JUMPDEST DUP1 PUSH4 0x7E58F901 EQ PUSH2 0x228 JUMPI DUP1 PUSH4 0x99977969 EQ PUSH2 0x258 JUMPI DUP1 PUSH4 0x9CD479B6 EQ PUSH2 0x288 JUMPI PUSH2 0xE8 JUMP JUMPDEST DUP1 PUSH4 0x1BE57FBB GT PUSH2 0xC6 JUMPI DUP1 PUSH4 0x1BE57FBB EQ PUSH2 0x17C JUMPI DUP1 PUSH4 0x22943646 EQ PUSH2 0x198 JUMPI DUP1 PUSH4 0x22B32DFD EQ PUSH2 0x1C8 JUMPI DUP1 PUSH4 0x60C4B7F1 EQ PUSH2 0x1F8 JUMPI PUSH2 0xE8 JUMP JUMPDEST DUP1 PUSH4 0x9F175C1 EQ PUSH2 0xEC JUMPI DUP1 PUSH4 0x1351DF0B EQ PUSH2 0x11C JUMPI DUP1 PUSH4 0x15689674 EQ PUSH2 0x14C JUMPI JUMPDEST PUSH0 DUP1 REVERT JUMPDEST PUSH2 0x106 PUSH1 0x4 DUP1 CALLDATASIZE SUB DUP2 ADD SWAP1 PUSH2 0x101 SWAP2 SWAP1 PUSH2 0x127A JUMP JUMPDEST PUSH2 0x378 JUMP JUMPDEST PUSH1 0x40 MLOAD PUSH2 0x113 SWAP2 SWAP1 PUSH2 0x12BF JUMP JUMPDEST PUSH1 0x40 MLOAD DUP1 SWAP2 SUB SWAP1 RETURN JUMPDEST PUSH2 0x136 PUSH1 0x4 DUP1 CALLDATASIZE SUB DUP2 ADD SWAP1 PUSH2 0x131 SWAP2 SWAP1 PUSH2 0x12D8 JUMP JUMPDEST PUSH2 0x423 JUMP JUMPDEST PUSH1 0x40 MLOAD PUSH2 0x143 SWAP2 SWAP1 PUSH2 0x1325 JUMP JUMPDEST PUSH1 0x40 MLOAD DUP1 SWAP2 SUB SWAP1 RETURN JUMPDEST PUSH2 0x166 PUSH1 0x4 DUP1 CALLDATASIZE SUB DUP2 ADD SWAP1 PUSH2 0x161 SWAP2 SWAP1 PUSH2 0x1371 JUMP JUMPDEST PUSH2 0x46E JUMP JUMPDEST PUSH1 0x40 MLOAD PUSH2 0x173 SWAP2 SWAP1 PUSH2 0x1325 JUMP JUMPDEST PUSH1 0x40 MLOAD DUP1 SWAP2 SUB SWAP1 RETURN JUMPDEST PUSH2 0x196 PUSH1 0x4 DUP1 CALLDATASIZE SUB DUP2 ADD SWAP1 PUSH2 0x191 SWAP2 SWAP1 PUSH2 0x1438 JUMP JUMPDEST PUSH2 0x4BA JUMP JUMPDEST STOP JUMPDEST PUSH2 0x1B2 PUSH1 0x4 DUP1 CALLDATASIZE SUB DUP2 ADD SWAP1 PUSH2 0x1AD SWAP2 SWAP1 PUSH2 0x14AC JUMP JUMPDEST PUSH2 0x606 JUMP JUMPDEST PUSH1 0x40 MLOAD PUSH2 0x1BF SWAP2 SWAP1 PUSH2 0x14F9 JUMP JUMPDEST PUSH1 0x40 MLOAD DUP1 SWAP2 SUB SWAP1 RETURN JUMPDEST PUSH2 0x1E2 PUSH1 0x4 DUP1 CALLDATASIZE SUB DUP2 ADD SWAP1 PUSH2 0x1DD SWAP2 SWAP1 PUSH2 0x1968 JUMP JUMPDEST PUSH2 0x619 JUMP JUMPDEST PUSH1 0x40 MLOAD PUSH2 0x1EF SWAP2 SWAP1 PUSH2 0x12BF JUMP JUMPDEST PUSH1 0x40 MLOAD DUP1 SWAP2 SUB SWAP1 RETURN JUMPDEST PUSH2 0x212 PUSH1 0x4 DUP1 CALLDATASIZE SUB DUP2 ADD SWAP1 PUSH2 0x20D SWAP2 SWAP1 PUSH2 0x12D8 JUMP JUMPDEST PUSH2 0x80E JUMP JUMPDEST PUSH1 0x40 MLOAD PUSH2 0x21F SWAP2 SWAP1 PUSH2 0x1325 JUMP JUMPDEST PUSH1 0x40 MLOAD DUP1 SWAP2 SUB SWAP1 RETURN JUMPDEST PUSH2 0x242 PUSH1 0x4 DUP1 CALLDATASIZE SUB DUP2 ADD SWAP1 PUSH2 0x23D SWAP2 SWAP1 PUSH2 0x19F0 JUMP JUMPDEST PUSH2 0x85A JUMP JUMPDEST PUSH1 0x40 MLOAD PUSH2 0x24F SWAP2 SWAP1 PUSH2 0x1325 JUMP JUMPDEST PUSH1 0x40 MLOAD DUP1 SWAP2 SUB SWAP1 RETURN JUMPDEST PUSH2 0x272 PUSH1 0x4 DUP1 CALLDATASIZE SUB DUP2 ADD SWAP1 PUSH2 0x26D SWAP2 SWAP1 PUSH2 0x1A37 JUMP JUMPDEST PUSH2 0x92D JUMP JUMPDEST PUSH1 0x40 MLOAD PUSH2 0x27F SWAP2 SWAP1 PUSH2 0x12BF JUMP JUMPDEST PUSH1 0x40 MLOAD DUP1 SWAP2 SUB SWAP1 RETURN JUMPDEST PUSH2 0x2A2 PUSH1 0x4 DUP1 CALLDATASIZE SUB DUP2 ADD SWAP1 PUSH2 0x29D SWAP2 SWAP1 PUSH2 0x1AD3 JUMP JUMPDEST PUSH2 0x9C6 JUMP JUMPDEST PUSH1 0x40 MLOAD PUSH2 0x2AF SWAP2 SWAP1 PUSH2 0x1325 JUMP JUMPDEST PUSH1 0x40 MLOAD DUP1 SWAP2 SUB SWAP1 RETURN JUMPDEST PUSH2 0x2D2 PUSH1 0x4 DUP1 CALLDATASIZE SUB DUP2 ADD SWAP1 PUSH2 0x2CD SWAP2 SWAP1 PUSH2 0x1B1A JUMP JUMPDEST PUSH2 0xC0D JUMP JUMPDEST PUSH1 0x40 MLOAD PUSH2 0x2DF SWAP2 SWAP1 PUSH2 0x1325 JUMP JUMPDEST PUSH1 0x40 MLOAD DUP1 SWAP2 SUB SWAP1 RETURN JUMPDEST PUSH2 0x302 PUSH1 0x4 DUP1 CALLDATASIZE SUB DUP2 ADD SWAP1 PUSH2 0x2FD SWAP2 SWAP1 PUSH2 0x12D8 JUMP JUMPDEST PUSH2 0xC2D JUMP JUMPDEST PUSH1 0x40 MLOAD PUSH2 0x30F SWAP2 SWAP1 PUSH2 0x1325 JUMP JUMPDEST PUSH1 0x40 MLOAD DUP1 SWAP2 SUB SWAP1 RETURN JUMPDEST PUSH2 0x332 PUSH1 0x4 DUP1 CALLDATASIZE SUB DUP2 ADD SWAP1 PUSH2 0x32D SWAP2 SWAP1 PUSH2 0x12D8 JUMP JUMPDEST PUSH2 0xC4D JUMP JUMPDEST PUSH1 0x40 MLOAD PUSH2 0x33F SWAP2 SWAP1 PUSH2 0x1325 JUMP JUMPDEST PUSH1 0x40 MLOAD DUP1 SWAP2 SUB SWAP1 RETURN JUMPDEST PUSH2 0x362 PUSH1 0x4 DUP1 CALLDATASIZE SUB DUP2 ADD SWAP1 PUSH2 0x35D SWAP2 SWAP1 PUSH2 0x1B45 JUMP JUMPDEST PUSH2 0xC6A JUMP JUMPDEST PUSH1 0x40 MLOAD PUSH2 0x36F SWAP2 SWAP1 PUSH2 0x1325 JUMP JUMPDEST PUSH1 0x40 MLOAD DUP1 SWAP2 SUB SWAP1 RETURN JUMPDEST PUSH0 DUP1 DUP3 PUSH0 ADD MLOAD SWAP1 POP PUSH0 DUP4 PUSH1 0x20 ADD MLOAD SWAP1 POP PUSH0 DUP5 PUSH1 0x40 ADD MLOAD SWAP1 POP PUSH0 DUP6 PUSH1 0x60 ADD MLOAD SWAP1 POP PUSH0 DUP7 PUSH1 0x80 ADD MLOAD SWAP1 POP PUSH0 PUSH1 0x2 SLOAD DUP1 PUSH2 0x3B2 JUMPI PUSH2 0x3B1 PUSH2 0x1B83 JUMP JUMPDEST JUMPDEST PUSH2 0x3CB DUP4 PUSH1 0x2 SLOAD PUSH1 0x1 SLOAD PUSH2 0xC8A SWAP1 SWAP3 SWAP2 SWAP1 PUSH4 0xFFFFFFFF AND JUMP JUMPDEST PUSH2 0x3E3 DUP6 PUSH1 0x2 SLOAD PUSH0 SLOAD PUSH2 0xC8A SWAP1 SWAP3 SWAP2 SWAP1 PUSH4 0xFFFFFFFF AND JUMP JUMPDEST MULMOD SWAP1 POP PUSH0 PUSH2 0x3FA DUP7 PUSH2 0x3F5 DUP10 DUP9 PUSH2 0xC2D JUMP JUMPDEST PUSH2 0xC4D JUMP JUMPDEST SWAP1 POP DUP1 DUP3 SUB PUSH2 0x413 JUMPI PUSH1 0x1 SWAP8 POP POP POP POP POP POP POP POP PUSH2 0x41E JUMP JUMPDEST PUSH0 SWAP8 POP POP POP POP POP POP POP POP JUMPDEST SWAP2 SWAP1 POP JUMP JUMPDEST PUSH0 DUP1 PUSH32 0xFFFFFFFFFFFFFFFFFFFFFFFFFFFFFFFFFFFFFFFFFFFFFFFFFFFFFFFFFFFFFFFF SWAP1 POP PUSH1 0x2 SLOAD DUP1 PUSH2 0x459 JUMPI PUSH2 0x458 PUSH2 0x1B83 JUMP JUMPDEST JUMPDEST PUSH2 0x463 DUP5 DUP4 PUSH2 0xC6A JUMP JUMPDEST DUP6 MULMOD SWAP2 POP POP SWAP3 SWAP2 POP POP JUMP JUMPDEST PUSH0 PUSH1 0x2 SLOAD DUP1 PUSH2 0x480 JUMPI PUSH2 0x47F PUSH2 0x1B83 JUMP JUMPDEST JUMPDEST PUSH2 0x499 DUP4 PUSH1 0x2 SLOAD PUSH1 0x1 SLOAD PUSH2 0xD9A SWAP1 SWAP3 SWAP2 SWAP1 PUSH4 0xFFFFFFFF AND JUMP JUMPDEST PUSH2 0x4B1 DUP6 PUSH1 0x2 SLOAD PUSH0 SLOAD PUSH2 0xD9A SWAP1 SWAP3 SWAP2 SWAP1 PUSH4 0xFFFFFFFF AND JUMP JUMPDEST MULMOD SWAP1 POP SWAP3 SWAP2 POP POP JUMP JUMPDEST PUSH0 DUP2 PUSH0 ADD MLOAD SWAP1 POP PUSH0 DUP3 PUSH1 0x20 ADD MLOAD SWAP1 POP PUSH0 DUP4 PUSH1 0x40 ADD MLOAD SWAP1 POP PUSH0 DUP5 PUSH1 0x60 ADD MLOAD SWAP1 POP PUSH0 DUP6 PUSH1 0x80 ADD MLOAD SWAP1 POP PUSH0 DUP8 DUP7 DUP7 PUSH1 0x40 MLOAD PUSH1 0x20 ADD PUSH2 0x4F7 SWAP4 SWAP3 SWAP2 SWAP1 PUSH2 0x1BD0 JUMP JUMPDEST PUSH1 0x40 MLOAD PUSH1 0x20 DUP2 DUP4 SUB SUB DUP2 MSTORE SWAP1 PUSH1 0x40 MSTORE DUP1 MLOAD SWAP1 PUSH1 0x20 ADD KECCAK256 PUSH0 SHR PUSH20 0x0 PUSH4 0xF43F523A SWAP1 SWAP2 PUSH1 0x3 SLOAD PUSH1 0x40 MLOAD DUP4 PUSH4 0xFFFFFFFF AND PUSH1 0xE0 SHL DUP2 MSTORE PUSH1 0x4 ADD PUSH2 0x54B SWAP3 SWAP2 SWAP1 PUSH2 0x1C1B JUMP JUMPDEST PUSH1 0x20 PUSH1 0x40 MLOAD DUP1 DUP4 SUB DUP2 DUP7 GAS DELEGATECALL ISZERO DUP1 ISZERO PUSH2 0x566 JUMPI RETURNDATASIZE PUSH0 DUP1 RETURNDATACOPY RETURNDATASIZE PUSH0 REVERT JUMPDEST POP POP POP POP PUSH1 0x40 MLOAD RETURNDATASIZE PUSH1 0x1F NOT PUSH1 0x1F DUP3 ADD AND DUP3 ADD DUP1 PUSH1 0x40 MSTORE POP DUP2 ADD SWAP1 PUSH2 0x58A SWAP2 SWAP1 PUSH2 0x1C56 JUMP JUMPDEST SWAP1 POP PUSH0 PUSH2 0x597 DUP6 DUP6 PUSH2 0x46E JUMP JUMPDEST SWAP1 POP PUSH0 PUSH2 0x5AD PUSH2 0x5A7 DUP12 DUP6 PUSH2 0xC2D JUMP JUMPDEST DUP10 PUSH2 0xC4D JUMP JUMPDEST SWAP1 POP PUSH0 PUSH2 0x5BA PUSH0 DUP7 PUSH2 0x46E JUMP JUMPDEST SWAP1 POP PUSH0 PUSH2 0x5DB PUSH2 0x5D5 DUP14 DUP11 DUP9 PUSH2 0x5D0 SWAP2 SWAP1 PUSH2 0x1CAE JUMP JUMPDEST PUSH2 0xC6A JUMP JUMPDEST DUP11 PUSH2 0xC4D JUMP JUMPDEST SWAP1 POP DUP3 DUP5 EQ DUP1 ISZERO PUSH2 0x5EB JUMPI POP DUP1 DUP3 EQ JUMPDEST PUSH2 0x5F8 JUMPI PUSH2 0x5F7 PUSH2 0x1CEE JUMP JUMPDEST JUMPDEST POP POP POP POP POP POP POP POP POP POP POP POP JUMP JUMPDEST PUSH0 PUSH1 0x1 DUP3 PUSH1 0xFF AND DUP5 SWAP1 SHR AND SWAP1 POP SWAP3 SWAP2 POP POP JUMP JUMPDEST PUSH0 DUP1 DUP5 PUSH0 ADD MLOAD SWAP1 POP PUSH0 DUP6 PUSH1 0x40 ADD MLOAD SWAP1 POP PUSH0 DUP7 PUSH1 0xA0 ADD MLOAD SWAP1 POP PUSH0 DUP7 PUSH0 ADD MLOAD SWAP1 POP PUSH0 DUP8 PUSH1 0x60 ADD MLOAD SWAP1 POP PUSH2 0x64E DUP5 DUP11 PUSH1 0x20 ADD MLOAD PUSH2 0xDDA JUMP JUMPDEST PUSH0 PUSH2 0x658 DUP11 PUSH2 0x9C6 JUMP JUMPDEST SWAP1 POP PUSH0 DUP2 SWAP1 POP PUSH2 0x674 DUP7 DUP13 PUSH1 0x60 ADD MLOAD DUP7 DUP14 PUSH1 0x20 ADD MLOAD DUP6 DUP15 PUSH2 0xE35 JUMP JUMPDEST PUSH2 0x68A DUP7 DUP13 PUSH1 0x80 ADD MLOAD DUP7 DUP14 PUSH1 0x40 ADD MLOAD DUP6 DUP15 PUSH2 0xEFA JUMP JUMPDEST PUSH0 PUSH1 0x1 SWAP1 POP PUSH0 JUMPDEST DUP9 MLOAD DUP2 LT ISZERO PUSH2 0x775 JUMPI PUSH0 PUSH1 0x1 SWAP1 POP PUSH0 JUMPDEST DUP13 PUSH1 0xFF AND DUP2 PUSH1 0xFF AND LT ISZERO PUSH2 0x737 JUMPI PUSH1 0x1 PUSH2 0x6BB DUP5 DUP4 PUSH2 0x606 JUMP JUMPDEST PUSH1 0xFF AND SUB PUSH2 0x6F3 JUMPI DUP8 DUP2 PUSH1 0xFF AND DUP2 MLOAD DUP2 LT PUSH2 0x6D9 JUMPI PUSH2 0x6D8 PUSH2 0x1D1B JUMP JUMPDEST JUMPDEST PUSH1 0x20 MUL PUSH1 0x20 ADD ADD MLOAD DUP3 PUSH2 0x6EC SWAP2 SWAP1 PUSH2 0x1D48 JUMP JUMPDEST SWAP2 POP PUSH2 0x72A JUMP JUMPDEST DUP8 DUP2 PUSH1 0xFF AND DUP2 MLOAD DUP2 LT PUSH2 0x709 JUMPI PUSH2 0x708 PUSH2 0x1D1B JUMP JUMPDEST JUMPDEST PUSH1 0x20 MUL PUSH1 0x20 ADD ADD MLOAD DUP6 PUSH2 0x71C SWAP2 SWAP1 PUSH2 0x1CAE JUMP JUMPDEST DUP3 PUSH2 0x727 SWAP2 SWAP1 PUSH2 0x1D48 JUMP JUMPDEST SWAP2 POP JUMPDEST DUP1 DUP1 PUSH1 0x1 ADD SWAP2 POP POP PUSH2 0x6A1 JUMP JUMPDEST POP PUSH2 0x765 DUP4 PUSH2 0x760 DUP13 DUP6 DUP2 MLOAD DUP2 LT PUSH2 0x752 JUMPI PUSH2 0x751 PUSH2 0x1D1B JUMP JUMPDEST JUMPDEST PUSH1 0x20 MUL PUSH1 0x20 ADD ADD MLOAD DUP5 PUSH2 0xC6A JUMP JUMPDEST PUSH2 0xC4D JUMP JUMPDEST SWAP3 POP POP DUP1 DUP1 PUSH1 0x1 ADD SWAP2 POP POP PUSH2 0x691 JUMP JUMPDEST POP PUSH0 JUMPDEST DUP11 PUSH1 0xFF AND DUP2 LT ISZERO PUSH2 0x7D3 JUMPI PUSH2 0x7C4 DUP3 PUSH2 0x7BF DUP10 DUP5 DUP2 MLOAD DUP2 LT PUSH2 0x79D JUMPI PUSH2 0x79C PUSH2 0x1D1B JUMP JUMPDEST JUMPDEST PUSH1 0x20 MUL PUSH1 0x20 ADD ADD MLOAD DUP5 DUP8 PUSH2 0x7B1 SWAP2 SWAP1 PUSH2 0x1F04 JUMP JUMPDEST PUSH2 0x7BA SWAP1 PUSH2 0x1F6F JUMP JUMPDEST PUSH2 0xC6A JUMP JUMPDEST PUSH2 0xC4D JUMP JUMPDEST SWAP2 POP DUP1 DUP1 PUSH1 0x1 ADD SWAP2 POP POP PUSH2 0x778 JUMP JUMPDEST POP PUSH0 PUSH2 0x7DF PUSH0 DUP7 PUSH2 0x46E JUMP JUMPDEST SWAP1 POP DUP1 DUP3 SUB PUSH2 0x7FA JUMPI PUSH1 0x1 SWAP10 POP POP POP POP POP POP POP POP POP POP PUSH2 0x807 JUMP JUMPDEST PUSH0 SWAP10 POP POP POP POP POP POP POP POP POP POP JUMPDEST SWAP4 SWAP3 POP POP POP JUMP JUMPDEST PUSH0 PUSH1 0x2 SLOAD DUP1 PUSH2 0x820 JUMPI PUSH2 0x81F PUSH2 0x1B83 JUMP JUMPDEST JUMPDEST PUSH2 0x839 DUP4 PUSH1 0x2 SLOAD PUSH1 0x1 SLOAD PUSH2 0xC8A SWAP1 SWAP3 SWAP2 SWAP1 PUSH4 0xFFFFFFFF AND JUMP JUMPDEST PUSH2 0x851 DUP6 PUSH1 0x2 SLOAD PUSH0 SLOAD PUSH2 0xC8A SWAP1 SWAP3 SWAP2 SWAP1 PUSH4 0xFFFFFFFF AND JUMP JUMPDEST MULMOD SWAP1 POP SWAP3 SWAP2 POP POP JUMP JUMPDEST PUSH0 DUP1 PUSH1 0x1 SWAP1 POP PUSH0 JUMPDEST DUP4 MLOAD DUP2 LT ISZERO PUSH2 0x8A8 JUMPI PUSH1 0x2 SLOAD DUP1 PUSH2 0x87C JUMPI PUSH2 0x87B PUSH2 0x1B83 JUMP JUMPDEST JUMPDEST DUP5 DUP3 DUP2 MLOAD DUP2 LT PUSH2 0x88F JUMPI PUSH2 0x88E PUSH2 0x1D1B JUMP JUMPDEST JUMPDEST PUSH1 0x20 MUL PUSH1 0x20 ADD ADD MLOAD DUP4 MULMOD SWAP2 POP DUP1 DUP1 PUSH1 0x1 ADD SWAP2 POP POP PUSH2 0x862 JUMP JUMPDEST POP DUP1 PUSH20 0x0 PUSH4 0xF43F523A SWAP1 SWAP2 PUSH1 0x2 SLOAD PUSH1 0x40 MLOAD DUP4 PUSH4 0xFFFFFFFF AND PUSH1 0xE0 SHL DUP2 MSTORE PUSH1 0x4 ADD PUSH2 0x8E6 SWAP3 SWAP2 SWAP1 PUSH2 0x1C1B JUMP JUMPDEST PUSH1 0x20 PUSH1 0x40 MLOAD DUP1 DUP4 SUB DUP2 DUP7 GAS DELEGATECALL ISZERO DUP1 ISZERO PUSH2 0x901 JUMPI RETURNDATASIZE PUSH0 DUP1 RETURNDATACOPY RETURNDATASIZE PUSH0 REVERT JUMPDEST POP POP POP POP PUSH1 0x40 MLOAD RETURNDATASIZE PUSH1 0x1F NOT PUSH1 0x1F DUP3 ADD AND DUP3 ADD DUP1 PUSH1 0x40 MSTORE POP DUP2 ADD SWAP1 PUSH2 0x925 SWAP2 SWAP1 PUSH2 0x1C56 JUMP JUMPDEST SWAP2 POP POP SWAP2 SWAP1 POP JUMP JUMPDEST PUSH0 DUP1 DUP5 PUSH0 ADD MLOAD SWAP1 POP PUSH0 JUMPDEST DUP2 MLOAD DUP2 LT ISZERO PUSH2 0x9AF JUMPI PUSH2 0x983 DUP3 DUP3 DUP2 MLOAD DUP2 LT PUSH2 0x956 JUMPI PUSH2 0x955 PUSH2 0x1D1B JUMP JUMPDEST JUMPDEST PUSH1 0x20 MUL PUSH1 0x20 ADD ADD MLOAD PUSH2 0x97E PUSH2 0x96A DUP11 PUSH2 0xFCA JUMP JUMPDEST PUSH1 0x2 SLOAD PUSH0 SLOAD PUSH2 0xD9A SWAP1 SWAP3 SWAP2 SWAP1 PUSH4 0xFFFFFFFF AND JUMP JUMPDEST PUSH2 0xC4D JUMP JUMPDEST DUP3 DUP3 DUP2 MLOAD DUP2 LT PUSH2 0x996 JUMPI PUSH2 0x995 PUSH2 0x1D1B JUMP JUMPDEST JUMPDEST PUSH1 0x20 MUL PUSH1 0x20 ADD ADD DUP2 DUP2 MSTORE POP POP DUP1 DUP1 PUSH1 0x1 ADD SWAP2 POP POP PUSH2 0x937 JUMP JUMPDEST POP PUSH2 0x9BB DUP6 DUP6 DUP6 PUSH2 0x619 JUMP JUMPDEST SWAP2 POP POP SWAP5 SWAP4 POP POP POP POP JUMP JUMPDEST PUSH0 DUP1 DUP3 PUSH0 ADD MLOAD SWAP1 POP PUSH0 DUP4 PUSH1 0x40 ADD MLOAD SWAP1 POP PUSH0 DUP5 PUSH1 0x60 ADD MLOAD SWAP1 POP PUSH0 DUP6 PUSH1 0x80 ADD MLOAD SWAP1 POP PUSH0 DUP7 PUSH1 0xA0 ADD MLOAD SWAP1 POP PUSH0 DUP1 JUMPDEST DUP7 MLOAD DUP2 LT ISZERO PUSH2 0xA37 JUMPI PUSH1 0x2 SLOAD DUP1 PUSH2 0xA0B JUMPI PUSH2 0xA0A PUSH2 0x1B83 JUMP JUMPDEST JUMPDEST DUP8 DUP3 DUP2 MLOAD DUP2 LT PUSH2 0xA1E JUMPI PUSH2 0xA1D PUSH2 0x1D1B JUMP JUMPDEST JUMPDEST PUSH1 0x20 MUL PUSH1 0x20 ADD ADD MLOAD DUP4 ADDMOD SWAP2 POP DUP1 DUP1 PUSH1 0x1 ADD SWAP2 POP POP PUSH2 0x9F1 JUMP JUMPDEST POP PUSH0 JUMPDEST DUP6 MLOAD DUP2 LT ISZERO PUSH2 0xA80 JUMPI PUSH1 0x2 SLOAD DUP1 PUSH2 0xA54 JUMPI PUSH2 0xA53 PUSH2 0x1B83 JUMP JUMPDEST JUMPDEST DUP7 DUP3 DUP2 MLOAD DUP2 LT PUSH2 0xA67 JUMPI PUSH2 0xA66 PUSH2 0x1D1B JUMP JUMPDEST JUMPDEST PUSH1 0x20 MUL PUSH1 0x20 ADD ADD MLOAD DUP4 ADDMOD SWAP2 POP DUP1 DUP1 PUSH1 0x1 ADD SWAP2 POP POP PUSH2 0xA3A JUMP JUMPDEST POP PUSH0 JUMPDEST DUP5 MLOAD DUP2 LT ISZERO PUSH2 0xAC9 JUMPI PUSH1 0x2 SLOAD DUP1 PUSH2 0xA9D JUMPI PUSH2 0xA9C PUSH2 0x1B83 JUMP JUMPDEST JUMPDEST DUP6 DUP3 DUP2 MLOAD DUP2 LT PUSH2 0xAB0 JUMPI PUSH2 0xAAF PUSH2 0x1D1B JUMP JUMPDEST JUMPDEST PUSH1 0x20 MUL PUSH1 0x20 ADD ADD MLOAD DUP4 ADDMOD SWAP2 POP DUP1 DUP1 PUSH1 0x1 ADD SWAP2 POP POP PUSH2 0xA83 JUMP JUMPDEST POP PUSH0 JUMPDEST DUP4 MLOAD DUP2 LT ISZERO PUSH2 0xB12 JUMPI PUSH1 0x2 SLOAD DUP1 PUSH2 0xAE6 JUMPI PUSH2 0xAE5 PUSH2 0x1B83 JUMP JUMPDEST JUMPDEST DUP5 DUP3 DUP2 MLOAD DUP2 LT PUSH2 0xAF9 JUMPI PUSH2 0xAF8 PUSH2 0x1D1B JUMP JUMPDEST JUMPDEST PUSH1 0x20 MUL PUSH1 0x20 ADD ADD MLOAD DUP4 ADDMOD SWAP2 POP DUP1 DUP1 PUSH1 0x1 ADD SWAP2 POP POP PUSH2 0xACC JUMP JUMPDEST POP PUSH0 JUMPDEST DUP3 MLOAD DUP2 LT ISZERO PUSH2 0xB5B JUMPI PUSH1 0x2 SLOAD DUP1 PUSH2 0xB2F JUMPI PUSH2 0xB2E PUSH2 0x1B83 JUMP JUMPDEST JUMPDEST DUP4 DUP3 DUP2 MLOAD DUP2 LT PUSH2 0xB42 JUMPI PUSH2 0xB41 PUSH2 0x1D1B JUMP JUMPDEST JUMPDEST PUSH1 0x20 MUL PUSH1 0x20 ADD ADD MLOAD DUP4 ADDMOD SWAP2 POP DUP1 DUP1 PUSH1 0x1 ADD SWAP2 POP POP PUSH2 0xB15 JUMP JUMPDEST POP DUP1 PUSH1 0x40 MLOAD PUSH1 0x20 ADD PUSH2 0xB6D SWAP2 SWAP1 PUSH2 0x1FB5 JUMP JUMPDEST PUSH1 0x40 MLOAD PUSH1 0x20 DUP2 DUP4 SUB SUB DUP2 MSTORE SWAP1 PUSH1 0x40 MSTORE DUP1 MLOAD SWAP1 PUSH1 0x20 ADD KECCAK256 PUSH0 SHR PUSH20 0x0 PUSH4 0xF43F523A SWAP1 SWAP2 PUSH1 0x3 SLOAD PUSH1 0x40 MLOAD DUP4 PUSH4 0xFFFFFFFF AND PUSH1 0xE0 SHL DUP2 MSTORE PUSH1 0x4 ADD PUSH2 0xBC1 SWAP3 SWAP2 SWAP1 PUSH2 0x1C1B JUMP JUMPDEST PUSH1 0x20 PUSH1 0x40 MLOAD DUP1 DUP4 SUB DUP2 DUP7 GAS DELEGATECALL ISZERO DUP1 ISZERO PUSH2 0xBDC JUMPI RETURNDATASIZE PUSH0 DUP1 RETURNDATACOPY RETURNDATASIZE PUSH0 REVERT JUMPDEST POP POP POP POP PUSH1 0x40 MLOAD RETURNDATASIZE PUSH1 0x1F NOT PUSH1 0x1F DUP3 ADD AND DUP3 ADD DUP1 PUSH1 0x40 MSTORE POP DUP2 ADD SWAP1 PUSH2 0xC00 SWAP2 SWAP1 PUSH2 0x1C56 JUMP JUMPDEST SWAP7 POP POP POP POP POP POP POP SWAP2 SWAP1 POP JUMP JUMPDEST PUSH0 PUSH2 0xC26 DUP3 PUSH1 0x2 SLOAD PUSH0 SLOAD PUSH2 0xC8A SWAP1 SWAP3 SWAP2 SWAP1 PUSH4 0xFFFFFFFF AND JUMP JUMPDEST SWAP1 POP SWAP2 SWAP1 POP JUMP JUMPDEST PUSH0 PUSH2 0xC45 DUP3 PUSH1 0x2 SLOAD DUP6 PUSH2 0xC8A SWAP1 SWAP3 SWAP2 SWAP1 PUSH4 0xFFFFFFFF AND JUMP JUMPDEST SWAP1 POP SWAP3 SWAP2 POP POP JUMP JUMPDEST PUSH0 PUSH1 0x2 SLOAD DUP1 PUSH2 0xC5F JUMPI PUSH2 0xC5E PUSH2 0x1B83 JUMP JUMPDEST JUMPDEST DUP3 DUP5 MULMOD SWAP1 POP SWAP3 SWAP2 POP POP JUMP JUMPDEST PUSH0 PUSH2 0xC82 DUP3 PUSH1 0x2 SLOAD DUP6 PUSH2 0xD9A SWAP1 SWAP3 SWAP2 SWAP1 PUSH4 0xFFFFFFFF AND JUMP JUMPDEST SWAP1 POP SWAP3 SWAP2 POP POP JUMP JUMPDEST PUSH0 DUP1 PUSH2 0xC94 PUSH2 0x10D9 JUMP JUMPDEST PUSH2 0xC9C PUSH2 0x10FB JUMP JUMPDEST PUSH1 0x20 DUP2 PUSH0 PUSH1 0x6 DUP2 LT PUSH2 0xCB1 JUMPI PUSH2 0xCB0 PUSH2 0x1D1B JUMP JUMPDEST JUMPDEST PUSH1 0x20 MUL ADD DUP2 DUP2 MSTORE POP POP PUSH1 0x20 DUP2 PUSH1 0x1 PUSH1 0x6 DUP2 LT PUSH2 0xCD0 JUMPI PUSH2 0xCCF PUSH2 0x1D1B JUMP JUMPDEST JUMPDEST PUSH1 0x20 MUL ADD DUP2 DUP2 MSTORE POP POP PUSH1 0x20 DUP2 PUSH1 0x2 PUSH1 0x6 DUP2 LT PUSH2 0xCEF JUMPI PUSH2 0xCEE PUSH2 0x1D1B JUMP JUMPDEST JUMPDEST PUSH1 0x20 MUL ADD DUP2 DUP2 MSTORE POP POP DUP7 DUP2 PUSH1 0x3 PUSH1 0x6 DUP2 LT PUSH2 0xD0D JUMPI PUSH2 0xD0C PUSH2 0x1D1B JUMP JUMPDEST JUMPDEST PUSH1 0x20 MUL ADD DUP2 DUP2 MSTORE POP POP DUP6 DUP2 PUSH1 0x4 PUSH1 0x6 DUP2 LT PUSH2 0xD2B JUMPI PUSH2 0xD2A PUSH2 0x1D1B JUMP JUMPDEST JUMPDEST PUSH1 0x20 MUL ADD DUP2 DUP2 MSTORE POP POP DUP5 DUP2 PUSH1 0x5 PUSH1 0x6 DUP2 LT PUSH2 0xD49 JUMPI PUSH2 0xD48 PUSH2 0x1D1B JUMP JUMPDEST JUMPDEST PUSH1 0x20 MUL ADD DUP2 DUP2 MSTORE POP POP PUSH1 0x20 DUP3 PUSH1 0xC0 DUP4 PUSH1 0x5 PUSH2 0x7D0 GAS SUB STATICCALL SWAP3 POP DUP3 PUSH0 DUP2 SUB PUSH2 0xD6C JUMPI INVALID JUMPDEST POP DUP3 PUSH2 0xD76 JUMPI PUSH0 DUP1 REVERT JUMPDEST DUP2 PUSH0 PUSH1 0x1 DUP2 LT PUSH2 0xD89 JUMPI PUSH2 0xD88 PUSH2 0x1D1B JUMP JUMPDEST JUMPDEST PUSH1 0x20 MUL ADD MLOAD SWAP4 POP POP POP POP SWAP4 SWAP3 POP POP POP JUMP JUMPDEST PUSH0 DUP1 DUP4 SLT PUSH2 0xDB4 JUMPI PUSH2 0xDAD DUP5 DUP5 DUP5 PUSH2 0xC8A JUMP JUMPDEST SWAP1 POP PUSH2 0xDD3 JUMP JUMPDEST PUSH2 0xDD0 PUSH2 0xDC1 DUP6 DUP5 PUSH2 0xFDB JUMP JUMPDEST PUSH2 0xDCA DUP6 PUSH2 0x1094 JUMP JUMPDEST DUP5 PUSH2 0xC8A JUMP JUMPDEST SWAP1 POP JUMPDEST SWAP4 SWAP3 POP POP POP JUMP JUMPDEST PUSH0 JUMPDEST DUP3 MLOAD DUP2 LT ISZERO PUSH2 0xE30 JUMPI PUSH2 0xE23 DUP4 DUP3 DUP2 MLOAD DUP2 LT PUSH2 0xDFB JUMPI PUSH2 0xDFA PUSH2 0x1D1B JUMP JUMPDEST JUMPDEST PUSH1 0x20 MUL PUSH1 0x20 ADD ADD MLOAD DUP4 DUP4 DUP2 MLOAD DUP2 LT PUSH2 0xE16 JUMPI PUSH2 0xE15 PUSH2 0x1D1B JUMP JUMPDEST JUMPDEST PUSH1 0x20 MUL PUSH1 0x20 ADD ADD MLOAD PUSH2 0x4BA JUMP JUMPDEST DUP1 DUP1 PUSH1 0x1 ADD SWAP2 POP POP PUSH2 0xDDC JUMP JUMPDEST POP POP POP JUMP JUMPDEST PUSH0 JUMPDEST DUP2 PUSH1 0xFF AND DUP2 LT ISZERO PUSH2 0xEF1 JUMPI PUSH0 DUP6 DUP3 DUP2 MLOAD DUP2 LT PUSH2 0xE56 JUMPI PUSH2 0xE55 PUSH2 0x1D1B JUMP JUMPDEST JUMPDEST PUSH1 0x20 MUL PUSH1 0x20 ADD ADD MLOAD SWAP1 POP PUSH0 PUSH2 0xEA8 PUSH2 0xE88 DUP11 DUP6 DUP2 MLOAD DUP2 LT PUSH2 0xE7A JUMPI PUSH2 0xE79 PUSH2 0x1D1B JUMP JUMPDEST JUMPDEST PUSH1 0x20 MUL PUSH1 0x20 ADD ADD MLOAD DUP8 PUSH2 0xC6A JUMP JUMPDEST DUP10 DUP6 DUP2 MLOAD DUP2 LT PUSH2 0xE9B JUMPI PUSH2 0xE9A PUSH2 0x1D1B JUMP JUMPDEST JUMPDEST PUSH1 0x20 MUL PUSH1 0x20 ADD ADD MLOAD PUSH2 0xC4D JUMP JUMPDEST SWAP1 POP PUSH0 PUSH2 0xECF DUP4 DUP9 DUP7 DUP2 MLOAD DUP2 LT PUSH2 0xEC2 JUMPI PUSH2 0xEC1 PUSH2 0x1D1B JUMP JUMPDEST JUMPDEST PUSH1 0x20 MUL PUSH1 0x20 ADD ADD MLOAD PUSH2 0x46E JUMP JUMPDEST SWAP1 POP DUP1 DUP3 EQ PUSH2 0xEE1 JUMPI PUSH2 0xEE0 PUSH2 0x1CEE JUMP JUMPDEST JUMPDEST POP POP POP DUP1 DUP1 PUSH1 0x1 ADD SWAP2 POP POP PUSH2 0xE37 JUMP JUMPDEST POP POP POP POP POP POP POP JUMP JUMPDEST PUSH0 JUMPDEST DUP2 PUSH1 0xFF AND DUP2 LT ISZERO PUSH2 0xFC1 JUMPI PUSH0 DUP6 DUP3 DUP2 MLOAD DUP2 LT PUSH2 0xF1B JUMPI PUSH2 0xF1A PUSH2 0x1D1B JUMP JUMPDEST JUMPDEST PUSH1 0x20 MUL PUSH1 0x20 ADD ADD MLOAD SWAP1 POP PUSH0 PUSH2 0xF78 PUSH2 0xF58 DUP11 DUP6 DUP2 MLOAD DUP2 LT PUSH2 0xF3F JUMPI PUSH2 0xF3E PUSH2 0x1D1B JUMP JUMPDEST JUMPDEST PUSH1 0x20 MUL PUSH1 0x20 ADD ADD MLOAD DUP5 DUP9 PUSH2 0xF53 SWAP2 SWAP1 PUSH2 0x1CAE JUMP JUMPDEST PUSH2 0xC6A JUMP JUMPDEST DUP10 DUP6 DUP2 MLOAD DUP2 LT PUSH2 0xF6B JUMPI PUSH2 0xF6A PUSH2 0x1D1B JUMP JUMPDEST JUMPDEST PUSH1 0x20 MUL PUSH1 0x20 ADD ADD MLOAD PUSH2 0xC4D JUMP JUMPDEST SWAP1 POP PUSH0 PUSH2 0xF9F PUSH0 DUP9 DUP7 DUP2 MLOAD DUP2 LT PUSH2 0xF92 JUMPI PUSH2 0xF91 PUSH2 0x1D1B JUMP JUMPDEST JUMPDEST PUSH1 0x20 MUL PUSH1 0x20 ADD ADD MLOAD PUSH2 0x46E JUMP JUMPDEST SWAP1 POP DUP1 DUP3 EQ PUSH2 0xFB1 JUMPI PUSH2 0xFB0 PUSH2 0x1CEE JUMP JUMPDEST JUMPDEST POP POP POP DUP1 DUP1 PUSH1 0x1 ADD SWAP2 POP POP PUSH2 0xEFC JUMP JUMPDEST POP POP POP POP POP POP POP JUMP JUMPDEST PUSH0 PUSH2 0xFD4 DUP3 PUSH2 0x10C7 JUMP JUMPDEST SWAP1 POP SWAP2 SWAP1 POP JUMP JUMPDEST PUSH0 DUP2 DUP4 GT ISZERO PUSH2 0xFF3 JUMPI DUP2 DUP4 PUSH2 0xFF0 SWAP2 SWAP1 PUSH2 0x1FCF JUMP JUMPDEST SWAP3 POP JUMPDEST PUSH0 DUP1 PUSH1 0x1 SWAP1 POP PUSH0 DUP5 SWAP1 POP PUSH0 DUP7 SWAP1 POP PUSH0 JUMPDEST PUSH0 DUP3 EQ PUSH2 0x105D JUMPI DUP2 DUP4 PUSH2 0x1016 SWAP2 SWAP1 PUSH2 0x1FFF JUMP JUMPDEST SWAP1 POP DUP4 DUP5 DUP3 PUSH2 0x1025 SWAP2 SWAP1 PUSH2 0x1D48 JUMP JUMPDEST DUP7 PUSH2 0x1030 SWAP2 SWAP1 PUSH2 0x1CAE JUMP JUMPDEST DUP4 DUP5 DUP5 PUSH2 0x103D SWAP2 SWAP1 PUSH2 0x202F JUMP JUMPDEST DUP7 PUSH2 0x1048 SWAP2 SWAP1 PUSH2 0x2070 JUMP JUMPDEST DUP1 SWAP6 POP DUP2 SWAP7 POP DUP3 SWAP8 POP DUP4 SWAP9 POP POP POP POP POP PUSH2 0x1003 JUMP JUMPDEST PUSH0 DUP6 SLT ISZERO PUSH2 0x1085 JUMPI PUSH2 0x106E DUP6 PUSH2 0x1094 JUMP JUMPDEST DUP8 PUSH2 0x1079 SWAP2 SWAP1 PUSH2 0x2070 JUMP JUMPDEST SWAP6 POP POP POP POP POP POP PUSH2 0x108E JUMP JUMPDEST DUP5 SWAP6 POP POP POP POP POP POP JUMPDEST SWAP3 SWAP2 POP POP JUMP JUMPDEST PUSH0 DUP1 DUP3 SGT ISZERO PUSH2 0x10A5 JUMPI DUP2 SWAP1 POP PUSH2 0x10C2 JUMP JUMPDEST PUSH0 DUP3 SLT ISZERO PUSH2 0x10BE JUMPI DUP2 PUSH2 0x10B7 SWAP1 PUSH2 0x1F6F JUMP JUMPDEST SWAP1 POP PUSH2 0x10C2 JUMP JUMPDEST PUSH0 SWAP1 POP JUMPDEST SWAP2 SWAP1 POP JUMP JUMPDEST PUSH0 DUP2 PUSH2 0x10D2 SWAP1 PUSH2 0x1F6F JUMP JUMPDEST SWAP1 POP SWAP2 SWAP1 POP JUMP JUMPDEST PUSH1 0x40 MLOAD DUP1 PUSH1 0x20 ADD PUSH1 0x40 MSTORE DUP1 PUSH1 0x1 SWAP1 PUSH1 0x20 DUP3 MUL DUP1 CALLDATASIZE DUP4 CALLDATACOPY DUP1 DUP3 ADD SWAP2 POP POP SWAP1 POP POP SWAP1 JUMP JUMPDEST PUSH1 0x40 MLOAD DUP1 PUSH1 0xC0 ADD PUSH1 0x40 MSTORE DUP1 PUSH1 0x6 SWAP1 PUSH1 0x20 DUP3 MUL DUP1 CALLDATASIZE DUP4 CALLDATACOPY DUP1 DUP3 ADD SWAP2 POP POP SWAP1 POP POP SWAP1 JUMP JUMPDEST PUSH0 PUSH1 0x40 MLOAD SWAP1 POP SWAP1 JUMP JUMPDEST PUSH0 DUP1 REVERT JUMPDEST PUSH0 DUP1 REVERT JUMPDEST PUSH0 DUP1 REVERT JUMPDEST PUSH0 PUSH1 0x1F NOT PUSH1 0x1F DUP4 ADD AND SWAP1 POP SWAP2 SWAP1 POP JUMP JUMPDEST PUSH32 0x4E487B7100000000000000000000000000000000000000000000000000000000 PUSH0 MSTORE PUSH1 0x41 PUSH1 0x4 MSTORE PUSH1 0x24 PUSH0 REVERT JUMPDEST PUSH2 0x1178 DUP3 PUSH2 0x1132 JUMP JUMPDEST DUP2 ADD DUP2 DUP2 LT PUSH8 0xFFFFFFFFFFFFFFFF DUP3 GT OR ISZERO PUSH2 0x1197 JUMPI PUSH2 0x1196 PUSH2 0x1142 JUMP JUMPDEST JUMPDEST DUP1 PUSH1 0x40 MSTORE POP POP POP JUMP JUMPDEST PUSH0 PUSH2 0x11A9 PUSH2 0x111D JUMP JUMPDEST SWAP1 POP PUSH2 0x11B5 DUP3 DUP3 PUSH2 0x116F JUMP JUMPDEST SWAP2 SWAP1 POP JUMP JUMPDEST PUSH0 DUP1 REVERT JUMPDEST PUSH0 DUP2 SWAP1 POP SWAP2 SWAP1 POP JUMP JUMPDEST PUSH2 0x11D0 DUP2 PUSH2 0x11BE JUMP JUMPDEST DUP2 EQ PUSH2 0x11DA JUMPI PUSH0 DUP1 REVERT JUMPDEST POP JUMP JUMPDEST PUSH0 DUP2 CALLDATALOAD SWAP1 POP PUSH2 0x11EB DUP2 PUSH2 0x11C7 JUMP JUMPDEST SWAP3 SWAP2 POP POP JUMP JUMPDEST PUSH0 PUSH1 0xA0 DUP3 DUP5 SUB SLT ISZERO PUSH2 0x1206 JUMPI PUSH2 0x1205 PUSH2 0x112E JUMP JUMPDEST JUMPDEST PUSH2 0x1210 PUSH1 0xA0 PUSH2 0x11A0 JUMP JUMPDEST SWAP1 POP PUSH0 PUSH2 0x121F DUP5 DUP3 DUP6 ADD PUSH2 0x11DD JUMP JUMPDEST PUSH0 DUP4 ADD MSTORE POP PUSH1 0x20 PUSH2 0x1232 DUP5 DUP3 DUP6 ADD PUSH2 0x11DD JUMP JUMPDEST PUSH1 0x20 DUP4 ADD MSTORE POP PUSH1 0x40 PUSH2 0x1246 DUP5 DUP3 DUP6 ADD PUSH2 0x11DD JUMP JUMPDEST PUSH1 0x40 DUP4 ADD MSTORE POP PUSH1 0x60 PUSH2 0x125A DUP5 DUP3 DUP6 ADD PUSH2 0x11DD JUMP JUMPDEST PUSH1 0x60 DUP4 ADD MSTORE POP PUSH1 0x80 PUSH2 0x126E DUP5 DUP3 DUP6 ADD PUSH2 0x11DD JUMP JUMPDEST PUSH1 0x80 DUP4 ADD MSTORE POP SWAP3 SWAP2 POP POP JUMP JUMPDEST PUSH0 PUSH1 0xA0 DUP3 DUP5 SUB SLT ISZERO PUSH2 0x128F JUMPI PUSH2 0x128E PUSH2 0x1126 JUMP JUMPDEST JUMPDEST PUSH0 PUSH2 0x129C DUP5 DUP3 DUP6 ADD PUSH2 0x11F1 JUMP JUMPDEST SWAP2 POP POP SWAP3 SWAP2 POP POP JUMP JUMPDEST PUSH0 DUP2 ISZERO ISZERO SWAP1 POP SWAP2 SWAP1 POP JUMP JUMPDEST PUSH2 0x12B9 DUP2 PUSH2 0x12A5 JUMP JUMPDEST DUP3 MSTORE POP POP JUMP JUMPDEST PUSH0 PUSH1 0x20 DUP3 ADD SWAP1 POP PUSH2 0x12D2 PUSH0 DUP4 ADD DUP5 PUSH2 0x12B0 JUMP JUMPDEST SWAP3 SWAP2 POP POP JUMP JUMPDEST PUSH0 DUP1 PUSH1 0x40 DUP4 DUP6 SUB SLT ISZERO PUSH2 0x12EE JUMPI PUSH2 0x12ED PUSH2 0x1126 JUMP JUMPDEST JUMPDEST PUSH0 PUSH2 0x12FB DUP6 DUP3 DUP7 ADD PUSH2 0x11DD JUMP JUMPDEST SWAP3 POP POP PUSH1 0x20 PUSH2 0x130C DUP6 DUP3 DUP7 ADD PUSH2 0x11DD JUMP JUMPDEST SWAP2 POP POP SWAP3 POP SWAP3 SWAP1 POP JUMP JUMPDEST PUSH2 0x131F DUP2 PUSH2 0x11BE JUMP JUMPDEST DUP3 MSTORE POP POP JUMP JUMPDEST PUSH0 PUSH1 0x20 DUP3 ADD SWAP1 POP PUSH2 0x1338 PUSH0 DUP4 ADD DUP5 PUSH2 0x1316 JUMP JUMPDEST SWAP3 SWAP2 POP POP JUMP JUMPDEST PUSH0 DUP2 SWAP1 POP SWAP2 SWAP1 POP JUMP JUMPDEST PUSH2 0x1350 DUP2 PUSH2 0x133E JUMP JUMPDEST DUP2 EQ PUSH2 0x135A JUMPI PUSH0 DUP1 REVERT JUMPDEST POP JUMP JUMPDEST PUSH0 DUP2 CALLDATALOAD SWAP1 POP PUSH2 0x136B DUP2 PUSH2 0x1347 JUMP JUMPDEST SWAP3 SWAP2 POP POP JUMP JUMPDEST PUSH0 DUP1 PUSH1 0x40 DUP4 DUP6 SUB SLT ISZERO PUSH2 0x1387 JUMPI PUSH2 0x1386 PUSH2 0x1126 JUMP JUMPDEST JUMPDEST PUSH0 PUSH2 0x1394 DUP6 DUP3 DUP7 ADD PUSH2 0x135D JUMP JUMPDEST SWAP3 POP POP PUSH1 0x20 PUSH2 0x13A5 DUP6 DUP3 DUP7 ADD PUSH2 0x135D JUMP JUMPDEST SWAP2 POP POP SWAP3 POP SWAP3 SWAP1 POP JUMP JUMPDEST PUSH0 PUSH1 0xA0 DUP3 DUP5 SUB SLT ISZERO PUSH2 0x13C4 JUMPI PUSH2 0x13C3 PUSH2 0x112E JUMP JUMPDEST JUMPDEST PUSH2 0x13CE PUSH1 0xA0 PUSH2 0x11A0 JUMP JUMPDEST SWAP1 POP PUSH0 PUSH2 0x13DD DUP5 DUP3 DUP6 ADD PUSH2 0x11DD JUMP JUMPDEST PUSH0 DUP4 ADD MSTORE POP PUSH1 0x20 PUSH2 0x13F0 DUP5 DUP3 DUP6 ADD PUSH2 0x11DD JUMP JUMPDEST PUSH1 0x20 DUP4 ADD MSTORE POP PUSH1 0x40 PUSH2 0x1404 DUP5 DUP3 DUP6 ADD PUSH2 0x135D JUMP JUMPDEST PUSH1 0x40 DUP4 ADD MSTORE POP PUSH1 0x60 PUSH2 0x1418 DUP5 DUP3 DUP6 ADD PUSH2 0x135D JUMP JUMPDEST PUSH1 0x60 DUP4 ADD MSTORE POP PUSH1 0x80 PUSH2 0x142C DUP5 DUP3 DUP6 ADD PUSH2 0x135D JUMP JUMPDEST PUSH1 0x80 DUP4 ADD MSTORE POP SWAP3 SWAP2 POP POP JUMP JUMPDEST PUSH0 DUP1 PUSH1 0xC0 DUP4 DUP6 SUB SLT ISZERO PUSH2 0x144E JUMPI PUSH2 0x144D PUSH2 0x1126 JUMP JUMPDEST JUMPDEST PUSH0 PUSH2 0x145B DUP6 DUP3 DUP7 ADD PUSH2 0x11DD JUMP JUMPDEST SWAP3 POP POP PUSH1 0x20 PUSH2 0x146C DUP6 DUP3 DUP7 ADD PUSH2 0x13AF JUMP JUMPDEST SWAP2 POP POP SWAP3 POP SWAP3 SWAP1 POP JUMP JUMPDEST PUSH0 PUSH1 0xFF DUP3 AND SWAP1 POP SWAP2 SWAP1 POP JUMP JUMPDEST PUSH2 0x148B DUP2 PUSH2 0x1476 JUMP JUMPDEST DUP2 EQ PUSH2 0x1495 JUMPI PUSH0 DUP1 REVERT JUMPDEST POP JUMP JUMPDEST PUSH0 DUP2 CALLDATALOAD SWAP1 POP PUSH2 0x14A6 DUP2 PUSH2 0x1482 JUMP JUMPDEST SWAP3 SWAP2 POP POP JUMP JUMPDEST PUSH0 DUP1 PUSH1 0x40 DUP4 DUP6 SUB SLT ISZERO PUSH2 0x14C2 JUMPI PUSH2 0x14C1 PUSH2 0x1126 JUMP JUMPDEST JUMPDEST PUSH0 PUSH2 0x14CF DUP6 DUP3 DUP7 ADD PUSH2 0x11DD JUMP JUMPDEST SWAP3 POP POP PUSH1 0x20 PUSH2 0x14E0 DUP6 DUP3 DUP7 ADD PUSH2 0x1498 JUMP JUMPDEST SWAP2 POP POP SWAP3 POP SWAP3 SWAP1 POP JUMP JUMPDEST PUSH2 0x14F3 DUP2 PUSH2 0x1476 JUMP JUMPDEST DUP3 MSTORE POP POP JUMP JUMPDEST PUSH0 PUSH1 0x20 DUP3 ADD SWAP1 POP PUSH2 0x150C PUSH0 DUP4 ADD DUP5 PUSH2 0x14EA JUMP JUMPDEST SWAP3 SWAP2 POP POP JUMP JUMPDEST PUSH0 DUP1 REVERT JUMPDEST PUSH0 PUSH8 0xFFFFFFFFFFFFFFFF DUP3 GT ISZERO PUSH2 0x1530 JUMPI PUSH2 0x152F PUSH2 0x1142 JUMP JUMPDEST JUMPDEST PUSH1 0x20 DUP3 MUL SWAP1 POP PUSH1 0x20 DUP2 ADD SWAP1 POP SWAP2 SWAP1 POP JUMP JUMPDEST PUSH0 DUP1 REVERT JUMPDEST PUSH0 PUSH2 0x1557 PUSH2 0x1552 DUP5 PUSH2 0x1516 JUMP JUMPDEST PUSH2 0x11A0 JUMP JUMPDEST SWAP1 POP DUP1 DUP4 DUP3 MSTORE PUSH1 0x20 DUP3 ADD SWAP1 POP PUSH1 0x20 DUP5 MUL DUP4 ADD DUP6 DUP2 GT ISZERO PUSH2 0x157A JUMPI PUSH2 0x1579 PUSH2 0x1541 JUMP JUMPDEST JUMPDEST DUP4 JUMPDEST DUP2 DUP2 LT ISZERO PUSH2 0x15A3 JUMPI DUP1 PUSH2 0x158F DUP9 DUP3 PUSH2 0x11DD JUMP JUMPDEST DUP5 MSTORE PUSH1 0x20 DUP5 ADD SWAP4 POP POP PUSH1 0x20 DUP2 ADD SWAP1 POP PUSH2 0x157C JUMP JUMPDEST POP POP POP SWAP4 SWAP3 POP POP POP JUMP JUMPDEST PUSH0 DUP3 PUSH1 0x1F DUP4 ADD SLT PUSH2 0x15C1 JUMPI PUSH2 0x15C0 PUSH2 0x1512 JUMP JUMPDEST JUMPDEST DUP2 CALLDATALOAD PUSH2 0x15D1 DUP5 DUP3 PUSH1 0x20 DUP7 ADD PUSH2 0x1545 JUMP JUMPDEST SWAP2 POP POP SWAP3 SWAP2 POP POP JUMP JUMPDEST PUSH0 PUSH8 0xFFFFFFFFFFFFFFFF DUP3 GT ISZERO PUSH2 0x15F4 JUMPI PUSH2 0x15F3 PUSH2 0x1142 JUMP JUMPDEST JUMPDEST PUSH1 0x20 DUP3 MUL SWAP1 POP PUSH1 0x20 DUP2 ADD SWAP1 POP SWAP2 SWAP1 POP JUMP JUMPDEST PUSH0 PUSH2 0x1617 PUSH2 0x1612 DUP5 PUSH2 0x15DA JUMP JUMPDEST PUSH2 0x11A0 JUMP JUMPDEST SWAP1 POP DUP1 DUP4 DUP3 MSTORE PUSH1 0x20 DUP3 ADD SWAP1 POP PUSH1 0xA0 DUP5 MUL DUP4 ADD DUP6 DUP2 GT ISZERO PUSH2 0x163A JUMPI PUSH2 0x1639 PUSH2 0x1541 JUMP JUMPDEST JUMPDEST DUP4 JUMPDEST DUP2 DUP2 LT ISZERO PUSH2 0x1663 JUMPI DUP1 PUSH2 0x164F DUP9 DUP3 PUSH2 0x13AF JUMP JUMPDEST DUP5 MSTORE PUSH1 0x20 DUP5 ADD SWAP4 POP POP PUSH1 0xA0 DUP2 ADD SWAP1 POP PUSH2 0x163C JUMP JUMPDEST POP POP POP SWAP4 SWAP3 POP POP POP JUMP JUMPDEST PUSH0 DUP3 PUSH1 0x1F DUP4 ADD SLT PUSH2 0x1681 JUMPI PUSH2 0x1680 PUSH2 0x1512 JUMP JUMPDEST JUMPDEST DUP2 CALLDATALOAD PUSH2 0x1691 DUP5 DUP3 PUSH1 0x20 DUP7 ADD PUSH2 0x1605 JUMP JUMPDEST SWAP2 POP POP SWAP3 SWAP2 POP POP JUMP JUMPDEST PUSH0 PUSH1 0xC0 DUP3 DUP5 SUB SLT ISZERO PUSH2 0x16AF JUMPI PUSH2 0x16AE PUSH2 0x112E JUMP JUMPDEST JUMPDEST PUSH2 0x16B9 PUSH1 0xC0 PUSH2 0x11A0 JUMP JUMPDEST SWAP1 POP PUSH0 DUP3 ADD CALLDATALOAD PUSH8 0xFFFFFFFFFFFFFFFF DUP2 GT ISZERO PUSH2 0x16D8 JUMPI PUSH2 0x16D7 PUSH2 0x11BA JUMP JUMPDEST JUMPDEST PUSH2 0x16E4 DUP5 DUP3 DUP6 ADD PUSH2 0x15AD JUMP JUMPDEST PUSH0 DUP4 ADD MSTORE POP PUSH1 0x20 DUP3 ADD CALLDATALOAD PUSH8 0xFFFFFFFFFFFFFFFF DUP2 GT ISZERO PUSH2 0x1707 JUMPI PUSH2 0x1706 PUSH2 0x11BA JUMP JUMPDEST JUMPDEST PUSH2 0x1713 DUP5 DUP3 DUP6 ADD PUSH2 0x166D JUMP JUMPDEST PUSH1 0x20 DUP4 ADD MSTORE POP PUSH1 0x40 DUP3 ADD CALLDATALOAD PUSH8 0xFFFFFFFFFFFFFFFF DUP2 GT ISZERO PUSH2 0x1737 JUMPI PUSH2 0x1736 PUSH2 0x11BA JUMP JUMPDEST JUMPDEST PUSH2 0x1743 DUP5 DUP3 DUP6 ADD PUSH2 0x15AD JUMP JUMPDEST PUSH1 0x40 DUP4 ADD MSTORE POP PUSH1 0x60 DUP3 ADD CALLDATALOAD PUSH8 0xFFFFFFFFFFFFFFFF DUP2 GT ISZERO PUSH2 0x1767 JUMPI PUSH2 0x1766 PUSH2 0x11BA JUMP JUMPDEST JUMPDEST PUSH2 0x1773 DUP5 DUP3 DUP6 ADD PUSH2 0x15AD JUMP JUMPDEST PUSH1 0x60 DUP4 ADD MSTORE POP PUSH1 0x80 DUP3 ADD CALLDATALOAD PUSH8 0xFFFFFFFFFFFFFFFF DUP2 GT ISZERO PUSH2 0x1797 JUMPI PUSH2 0x1796 PUSH2 0x11BA JUMP JUMPDEST JUMPDEST PUSH2 0x17A3 DUP5 DUP3 DUP6 ADD PUSH2 0x15AD JUMP JUMPDEST PUSH1 0x80 DUP4 ADD MSTORE POP PUSH1 0xA0 DUP3 ADD CALLDATALOAD PUSH8 0xFFFFFFFFFFFFFFFF DUP2 GT ISZERO PUSH2 0x17C7 JUMPI PUSH2 0x17C6 PUSH2 0x11BA JUMP JUMPDEST JUMPDEST PUSH2 0x17D3 DUP5 DUP3 DUP6 ADD PUSH2 0x15AD JUMP JUMPDEST PUSH1 0xA0 DUP4 ADD MSTORE POP SWAP3 SWAP2 POP POP JUMP JUMPDEST PUSH0 PUSH8 0xFFFFFFFFFFFFFFFF DUP3 GT ISZERO PUSH2 0x17F9 JUMPI PUSH2 0x17F8 PUSH2 0x1142 JUMP JUMPDEST JUMPDEST PUSH1 0x20 DUP3 MUL SWAP1 POP PUSH1 0x20 DUP2 ADD SWAP1 POP SWAP2 SWAP1 POP JUMP JUMPDEST PUSH0 PUSH2 0x181C PUSH2 0x1817 DUP5 PUSH2 0x17DF JUMP JUMPDEST PUSH2 0x11A0 JUMP JUMPDEST SWAP1 POP DUP1 DUP4 DUP3 MSTORE PUSH1 0x20 DUP3 ADD SWAP1 POP PUSH1 0x20 DUP5 MUL DUP4 ADD DUP6 DUP2 GT ISZERO PUSH2 0x183F JUMPI PUSH2 0x183E PUSH2 0x1541 JUMP JUMPDEST JUMPDEST DUP4 JUMPDEST DUP2 DUP2 LT ISZERO PUSH2 0x1868 JUMPI DUP1 PUSH2 0x1854 DUP9 DUP3 PUSH2 0x135D JUMP JUMPDEST DUP5 MSTORE PUSH1 0x20 DUP5 ADD SWAP4 POP POP PUSH1 0x20 DUP2 ADD SWAP1 POP PUSH2 0x1841 JUMP JUMPDEST POP POP POP SWAP4 SWAP3 POP POP POP JUMP JUMPDEST PUSH0 DUP3 PUSH1 0x1F DUP4 ADD SLT PUSH2 0x1886 JUMPI PUSH2 0x1885 PUSH2 0x1512 JUMP JUMPDEST JUMPDEST DUP2 CALLDATALOAD PUSH2 0x1896 DUP5 DUP3 PUSH1 0x20 DUP7 ADD PUSH2 0x180A JUMP JUMPDEST SWAP2 POP POP SWAP3 SWAP2 POP POP JUMP JUMPDEST PUSH0 PUSH1 0x80 DUP3 DUP5 SUB SLT ISZERO PUSH2 0x18B4 JUMPI PUSH2 0x18B3 PUSH2 0x112E JUMP JUMPDEST JUMPDEST PUSH2 0x18BE PUSH1 0x80 PUSH2 0x11A0 JUMP JUMPDEST SWAP1 POP PUSH0 DUP3 ADD CALLDATALOAD PUSH8 0xFFFFFFFFFFFFFFFF DUP2 GT ISZERO PUSH2 0x18DD JUMPI PUSH2 0x18DC PUSH2 0x11BA JUMP JUMPDEST JUMPDEST PUSH2 0x18E9 DUP5 DUP3 DUP6 ADD PUSH2 0x1872 JUMP JUMPDEST PUSH0 DUP4 ADD MSTORE POP PUSH1 0x20 DUP3 ADD CALLDATALOAD PUSH8 0xFFFFFFFFFFFFFFFF DUP2 GT ISZERO PUSH2 0x190C JUMPI PUSH2 0x190B PUSH2 0x11BA JUMP JUMPDEST JUMPDEST PUSH2 0x1918 DUP5 DUP3 DUP6 ADD PUSH2 0x1872 JUMP JUMPDEST PUSH1 0x20 DUP4 ADD MSTORE POP PUSH1 0x40 DUP3 ADD CALLDATALOAD PUSH8 0xFFFFFFFFFFFFFFFF DUP2 GT ISZERO PUSH2 0x193C JUMPI PUSH2 0x193B PUSH2 0x11BA JUMP JUMPDEST JUMPDEST PUSH2 0x1948 DUP5 DUP3 DUP6 ADD PUSH2 0x1872 JUMP JUMPDEST PUSH1 0x40 DUP4 ADD MSTORE POP PUSH1 0x60 PUSH2 0x195C DUP5 DUP3 DUP6 ADD PUSH2 0x135D JUMP JUMPDEST PUSH1 0x60 DUP4 ADD MSTORE POP SWAP3 SWAP2 POP POP JUMP JUMPDEST PUSH0 DUP1 PUSH0 PUSH1 0x60 DUP5 DUP7 SUB SLT ISZERO PUSH2 0x197F JUMPI PUSH2 0x197E PUSH2 0x1126 JUMP JUMPDEST JUMPDEST PUSH0 DUP5 ADD CALLDATALOAD PUSH8 0xFFFFFFFFFFFFFFFF DUP2 GT ISZERO PUSH2 0x199C JUMPI PUSH2 0x199B PUSH2 0x112A JUMP JUMPDEST JUMPDEST PUSH2 0x19A8 DUP7 DUP3 DUP8 ADD PUSH2 0x169A JUMP JUMPDEST SWAP4 POP POP PUSH1 0x20 DUP5 ADD CALLDATALOAD PUSH8 0xFFFFFFFFFFFFFFFF DUP2 GT ISZERO PUSH2 0x19C9 JUMPI PUSH2 0x19C8 PUSH2 0x112A JUMP JUMPDEST JUMPDEST PUSH2 0x19D5 DUP7 DUP3 DUP8 ADD PUSH2 0x189F JUMP JUMPDEST SWAP3 POP POP PUSH1 0x40 PUSH2 0x19E6 DUP7 DUP3 DUP8 ADD PUSH2 0x1498 JUMP JUMPDEST SWAP2 POP POP SWAP3 POP SWAP3 POP SWAP3 JUMP JUMPDEST PUSH0 PUSH1 0x20 DUP3 DUP5 SUB SLT ISZERO PUSH2 0x1A05 JUMPI PUSH2 0x1A04 PUSH2 0x1126 JUMP JUMPDEST JUMPDEST PUSH0 DUP3 ADD CALLDATALOAD PUSH8 0xFFFFFFFFFFFFFFFF DUP2 GT ISZERO PUSH2 0x1A22 JUMPI PUSH2 0x1A21 PUSH2 0x112A JUMP JUMPDEST JUMPDEST PUSH2 0x1A2E DUP5 DUP3 DUP6 ADD PUSH2 0x15AD JUMP JUMPDEST SWAP2 POP POP SWAP3 SWAP2 POP POP JUMP JUMPDEST PUSH0 DUP1 PUSH0 DUP1 PUSH1 0x80 DUP6 DUP8 SUB SLT ISZERO PUSH2 0x1A4F JUMPI PUSH2 0x1A4E PUSH2 0x1126 JUMP JUMPDEST JUMPDEST PUSH0 PUSH2 0x1A5C DUP8 DUP3 DUP9 ADD PUSH2 0x11DD JUMP JUMPDEST SWAP5 POP POP PUSH1 0x20 DUP6 ADD CALLDATALOAD PUSH8 0xFFFFFFFFFFFFFFFF DUP2 GT ISZERO PUSH2 0x1A7D JUMPI PUSH2 0x1A7C PUSH2 0x112A JUMP JUMPDEST JUMPDEST PUSH2 0x1A89 DUP8 DUP3 DUP9 ADD PUSH2 0x169A JUMP JUMPDEST SWAP4 POP POP PUSH1 0x40 DUP6 ADD CALLDATALOAD PUSH8 0xFFFFFFFFFFFFFFFF DUP2 GT ISZERO PUSH2 0x1AAA JUMPI PUSH2 0x1AA9 PUSH2 0x112A JUMP JUMPDEST JUMPDEST PUSH2 0x1AB6 DUP8 DUP3 DUP9 ADD PUSH2 0x189F JUMP JUMPDEST SWAP3 POP POP PUSH1 0x60 PUSH2 0x1AC7 DUP8 DUP3 DUP9 ADD PUSH2 0x1498 JUMP JUMPDEST SWAP2 POP POP SWAP3 SWAP6 SWAP2 SWAP5 POP SWAP3 POP JUMP JUMPDEST PUSH0 PUSH1 0x20 DUP3 DUP5 SUB SLT ISZERO PUSH2 0x1AE8 JUMPI PUSH2 0x1AE7 PUSH2 0x1126 JUMP JUMPDEST JUMPDEST PUSH0 DUP3 ADD CALLDATALOAD PUSH8 0xFFFFFFFFFFFFFFFF DUP2 GT ISZERO PUSH2 0x1B05 JUMPI PUSH2 0x1B04 PUSH2 0x112A JUMP JUMPDEST JUMPDEST PUSH2 0x1B11 DUP5 DUP3 DUP6 ADD PUSH2 0x169A JUMP JUMPDEST SWAP2 POP POP SWAP3 SWAP2 POP POP JUMP JUMPDEST PUSH0 PUSH1 0x20 DUP3 DUP5 SUB SLT ISZERO PUSH2 0x1B2F JUMPI PUSH2 0x1B2E PUSH2 0x1126 JUMP JUMPDEST JUMPDEST PUSH0 PUSH2 0x1B3C DUP5 DUP3 DUP6 ADD PUSH2 0x11DD JUMP JUMPDEST SWAP2 POP POP SWAP3 SWAP2 POP POP JUMP JUMPDEST PUSH0 DUP1 PUSH1 0x40 DUP4 DUP6 SUB SLT ISZERO PUSH2 0x1B5B JUMPI PUSH2 0x1B5A PUSH2 0x1126 JUMP JUMPDEST JUMPDEST PUSH0 PUSH2 0x1B68 DUP6 DUP3 DUP7 ADD PUSH2 0x11DD JUMP JUMPDEST SWAP3 POP POP PUSH1 0x20 PUSH2 0x1B79 DUP6 DUP3 DUP7 ADD PUSH2 0x135D JUMP JUMPDEST SWAP2 POP POP SWAP3 POP SWAP3 SWAP1 POP JUMP JUMPDEST PUSH32 0x4E487B7100000000000000000000000000000000000000000000000000000000 PUSH0 MSTORE PUSH1 0x12 PUSH1 0x4 MSTORE PUSH1 0x24 PUSH0 REVERT JUMPDEST PUSH0 DUP2 SWAP1 POP SWAP2 SWAP1 POP JUMP JUMPDEST PUSH2 0x1BCA PUSH2 0x1BC5 DUP3 PUSH2 0x11BE JUMP JUMPDEST PUSH2 0x1BB0 JUMP JUMPDEST DUP3 MSTORE POP POP JUMP JUMPDEST PUSH0 PUSH2 0x1BDB DUP3 DUP7 PUSH2 0x1BB9 JUMP JUMPDEST PUSH1 0x20 DUP3 ADD SWAP2 POP PUSH2 0x1BEB DUP3 DUP6 PUSH2 0x1BB9 JUMP JUMPDEST PUSH1 0x20 DUP3 ADD SWAP2 POP PUSH2 0x1BFB DUP3 DUP5 PUSH2 0x1BB9 JUMP JUMPDEST PUSH1 0x20 DUP3 ADD SWAP2 POP DUP2 SWAP1 POP SWAP5 SWAP4 POP POP POP POP JUMP JUMPDEST PUSH2 0x1C15 DUP2 PUSH2 0x11BE JUMP JUMPDEST DUP3 MSTORE POP POP JUMP JUMPDEST PUSH0 PUSH1 0x40 DUP3 ADD SWAP1 POP PUSH2 0x1C2E PUSH0 DUP4 ADD DUP6 PUSH2 0x1C0C JUMP JUMPDEST PUSH2 0x1C3B PUSH1 0x20 DUP4 ADD DUP5 PUSH2 0x1C0C JUMP JUMPDEST SWAP4 SWAP3 POP POP POP JUMP JUMPDEST PUSH0 DUP2 MLOAD SWAP1 POP PUSH2 0x1C50 DUP2 PUSH2 0x11C7 JUMP JUMPDEST SWAP3 SWAP2 POP POP JUMP JUMPDEST PUSH0 PUSH1 0x20 DUP3 DUP5 SUB SLT ISZERO PUSH2 0x1C6B JUMPI PUSH2 0x1C6A PUSH2 0x1126 JUMP JUMPDEST JUMPDEST PUSH0 PUSH2 0x1C78 DUP5 DUP3 DUP6 ADD PUSH2 0x1C42 JUMP JUMPDEST SWAP2 POP POP SWAP3 SWAP2 POP POP JUMP JUMPDEST PUSH32 0x4E487B7100000000000000000000000000000000000000000000000000000000 PUSH0 MSTORE PUSH1 0x11 PUSH1 0x4 MSTORE PUSH1 0x24 PUSH0 REVERT JUMPDEST PUSH0 PUSH2 0x1CB8 DUP3 PUSH2 0x133E JUMP JUMPDEST SWAP2 POP PUSH2 0x1CC3 DUP4 PUSH2 0x133E JUMP JUMPDEST SWAP3 POP DUP3 DUP3 SUB SWAP1 POP DUP2 DUP2 SLT PUSH0 DUP5 SLT AND DUP3 DUP3 SGT PUSH0 DUP6 SLT ISZERO AND OR ISZERO PUSH2 0x1CE8 JUMPI PUSH2 0x1CE7 PUSH2 0x1C81 JUMP JUMPDEST JUMPDEST SWAP3 SWAP2 POP POP JUMP JUMPDEST PUSH32 0x4E487B7100000000000000000000000000000000000000000000000000000000 PUSH0 MSTORE PUSH1 0x1 PUSH1 0x4 MSTORE PUSH1 0x24 PUSH0 REVERT JUMPDEST PUSH32 0x4E487B7100000000000000000000000000000000000000000000000000000000 PUSH0 MSTORE PUSH1 0x32 PUSH1 0x4 MSTORE PUSH1 0x24 PUSH0 REVERT JUMPDEST PUSH0 PUSH2 0x1D52 DUP3 PUSH2 0x133E JUMP JUMPDEST SWAP2 POP PUSH2 0x1D5D DUP4 PUSH2 0x133E JUMP JUMPDEST SWAP3 POP DUP3 DUP3 MUL PUSH2 0x1D6B DUP2 PUSH2 0x133E JUMP JUMPDEST SWAP2 POP PUSH32 0x8000000000000000000000000000000000000000000000000000000000000000 DUP5 EQ PUSH0 DUP5 SLT AND ISZERO PUSH2 0x1DA2 JUMPI PUSH2 0x1DA1 PUSH2 0x1C81 JUMP JUMPDEST JUMPDEST DUP3 DUP3 SDIV DUP5 EQ DUP4 ISZERO OR PUSH2 0x1DB7 JUMPI PUSH2 0x1DB6 PUSH2 0x1C81 JUMP JUMPDEST JUMPDEST POP SWAP3 SWAP2 POP POP JUMP JUMPDEST PUSH0 DUP2 PUSH1 0x1 SHR SWAP1 POP SWAP2 SWAP1 POP JUMP JUMPDEST PUSH0 DUP1 DUP3 SWAP2 POP DUP4 SWAP1 POP JUMPDEST PUSH1 0x1 DUP6 GT ISZERO PUSH2 0x1E13 JUMPI DUP1 DUP7 DIV DUP2 GT ISZERO PUSH2 0x1DEF JUMPI PUSH2 0x1DEE PUSH2 0x1C81 JUMP JUMPDEST JUMPDEST PUSH1 0x1 DUP6 AND ISZERO PUSH2 0x1DFE JUMPI DUP1 DUP3 MUL SWAP2 POP JUMPDEST DUP1 DUP2 MUL SWAP1 POP PUSH2 0x1E0C DUP6 PUSH2 0x1DBE JUMP JUMPDEST SWAP5 POP PUSH2 0x1DD3 JUMP JUMPDEST SWAP5 POP SWAP5 SWAP3 POP POP POP JUMP JUMPDEST PUSH0 DUP3 PUSH0 DUP2 EQ PUSH2 0x1E32 JUMPI PUSH1 0x1 DUP2 EQ PUSH2 0x1E3C JUMPI PUSH2 0x1E45 JUMP JUMPDEST PUSH1 0x1 SWAP2 POP POP PUSH2 0x1EFC JUMP JUMPDEST DUP3 SWAP2 POP POP PUSH2 0x1EFC JUMP JUMPDEST POP DUP2 PUSH2 0x1E53 JUMPI PUSH0 SWAP1 POP PUSH2 0x1EFC JUMP JUMPDEST PUSH1 0x1 SWAP1 POP PUSH0 DUP3 SGT PUSH1 0x1 DUP2 EQ PUSH2 0x1E6E JUMPI PUSH0 DUP2 EQ PUSH2 0x1E86 JUMPI PUSH2 0x1E9A JUMP JUMPDEST DUP3 DUP7 DIV DUP4 GT ISZERO PUSH2 0x1E81 JUMPI PUSH2 0x1E80 PUSH2 0x1C81 JUMP JUMPDEST JUMPDEST PUSH2 0x1E9A JUMP JUMPDEST DUP3 DUP7 SDIV DUP4 SLT ISZERO PUSH2 0x1E99 JUMPI PUSH2 0x1E98 PUSH2 0x1C81 JUMP JUMPDEST JUMPDEST JUMPDEST POP PUSH1 0x1 DUP4 AND ISZERO PUSH2 0x1EA8 JUMPI DUP2 SWAP1 POP JUMPDEST DUP2 DUP3 MUL SWAP2 POP PUSH2 0x1EB6 DUP4 PUSH2 0x1DBE JUMP JUMPDEST SWAP3 POP PUSH2 0x1EC4 DUP6 DUP5 DUP5 DUP5 PUSH2 0x1DCA JUMP JUMPDEST SWAP3 POP SWAP1 POP DUP2 DUP6 DIV DUP2 GT PUSH0 DUP3 SGT AND ISZERO PUSH2 0x1EDF JUMPI PUSH2 0x1EDE PUSH2 0x1C81 JUMP JUMPDEST JUMPDEST DUP2 DUP5 SDIV DUP2 SLT PUSH0 DUP3 SLT AND ISZERO PUSH2 0x1EF6 JUMPI PUSH2 0x1EF5 PUSH2 0x1C81 JUMP JUMPDEST JUMPDEST DUP2 DUP2 MUL SWAP1 POP JUMPDEST SWAP5 SWAP4 POP POP POP POP JUMP JUMPDEST PUSH0 PUSH2 0x1F0E DUP3 PUSH2 0x133E JUMP JUMPDEST SWAP2 POP PUSH2 0x1F19 DUP4 PUSH2 0x11BE JUMP JUMPDEST SWAP3 POP PUSH2 0x1F67 PUSH32 0x7FFFFFFFFFFFFFFFFFFFFFFFFFFFFFFFFFFFFFFFFFFFFFFFFFFFFFFFFFFFFFFF PUSH32 0x8000000000000000000000000000000000000000000000000000000000000000 DUP6 DUP6 PUSH2 0x1E1C JUMP JUMPDEST SWAP1 POP SWAP3 SWAP2 POP POP JUMP JUMPDEST PUSH0 PUSH2 0x1F79 DUP3 PUSH2 0x133E JUMP JUMPDEST SWAP2 POP PUSH32 0x8000000000000000000000000000000000000000000000000000000000000000 DUP3 SUB PUSH2 0x1FAB JUMPI PUSH2 0x1FAA PUSH2 0x1C81 JUMP JUMPDEST JUMPDEST DUP2 PUSH0 SUB SWAP1 POP SWAP2 SWAP1 POP JUMP JUMPDEST PUSH0 PUSH2 0x1FC0 DUP3 DUP5 PUSH2 0x1BB9 JUMP JUMPDEST PUSH1 0x20 DUP3 ADD SWAP2 POP DUP2 SWAP1 POP SWAP3 SWAP2 POP POP JUMP JUMPDEST PUSH0 PUSH2 0x1FD9 DUP3 PUSH2 0x11BE JUMP JUMPDEST SWAP2 POP PUSH2 0x1FE4 DUP4 PUSH2 0x11BE JUMP JUMPDEST SWAP3 POP DUP3 PUSH2 0x1FF4 JUMPI PUSH2 0x1FF3 PUSH2 0x1B83 JUMP JUMPDEST JUMPDEST DUP3 DUP3 MOD SWAP1 POP SWAP3 SWAP2 POP POP JUMP JUMPDEST PUSH0 PUSH2 0x2009 DUP3 PUSH2 0x11BE JUMP JUMPDEST SWAP2 POP PUSH2 0x2014 DUP4 PUSH2 0x11BE JUMP JUMPDEST SWAP3 POP DUP3 PUSH2 0x2024 JUMPI PUSH2 0x2023 PUSH2 0x1B83 JUMP JUMPDEST JUMPDEST DUP3 DUP3 DIV SWAP1 POP SWAP3 SWAP2 POP POP JUMP JUMPDEST PUSH0 PUSH2 0x2039 DUP3 PUSH2 0x11BE JUMP JUMPDEST SWAP2 POP PUSH2 0x2044 DUP4 PUSH2 0x11BE JUMP JUMPDEST SWAP3 POP DUP3 DUP3 MUL PUSH2 0x2052 DUP2 PUSH2 0x11BE JUMP JUMPDEST SWAP2 POP DUP3 DUP3 DIV DUP5 EQ DUP4 ISZERO OR PUSH2 0x2069 JUMPI PUSH2 0x2068 PUSH2 0x1C81 JUMP JUMPDEST JUMPDEST POP SWAP3 SWAP2 POP POP JUMP JUMPDEST PUSH0 PUSH2 0x207A DUP3 PUSH2 0x11BE JUMP JUMPDEST SWAP2 POP PUSH2 0x2085 DUP4 PUSH2 0x11BE JUMP JUMPDEST SWAP3 POP DUP3 DUP3 SUB SWAP1 POP DUP2 DUP2 GT ISZERO PUSH2 0x209D JUMPI PUSH2 0x209C PUSH2 0x1C81 JUMP JUMPDEST JUMPDEST SWAP3 SWAP2 POP POP JUMP INVALID LOG2 PUSH5 0x6970667358 0x22 SLT KECCAK256 PUSH31 0x74345A526FE3081310F448A5EA741EDAC1C0D437BE5E59EF20712480B1E4DE PUSH5 0x736F6C6343 STOP ADDMOD AND STOP CALLER "
		},
		"gasEstimates": {
			"creation": {
				"codeDepositCost": "1907000",
				"executionCost": "infinite",
				"totalCost": "infinite"
			},
			"external": {
				"Cmm(uint256)": "infinite",
				"Cmq(uint256)": "infinite",
				"Cmqprime(uint256)": "infinite",
				"Cms(uint256)": "infinite",
				"Tak(uint256)": "infinite",
				"Tm(uint256)": "infinite",
				"Tq(uint256)": "infinite",
				"addRewardCredits()": "infinite",
				"akTm()": "2513",
				"getAggregatedResults()": "infinite",
				"getDataCount()": "28846",
				"getEtherBack(uint256,(uint256[],(uint256,uint256,int256,int256,int256)[],uint256[],uint256[],uint256[],uint256[]),(int256[],int256[],int256[],int256),uint8)": "infinite",
				"getSensingTask()": "infinite",
				"proveSubmittedData(uint256,(uint256[],(uint256,uint256,int256,int256,int256)[],uint256[],uint256[],uint256[],uint256[]),(int256[],int256[],int256[],int256),uint8,uint256,(uint256[],(uint256,uint256,int256,int256,int256)[],uint256[],uint256[],uint256[],uint256[]),(int256[],int256[],int256[],int256),uint8,uint256,(uint256,uint256,uint256,uint256,uint256))": "infinite",
				"revealedQPrime(uint256)": "infinite",
				"submitSensingData((uint256,uint256,uint256,uint256,uint256),(uint256,uint256,uint256,uint256,uint256))": "infinite"
			},
			"internal": {
				"mintNewCoin(address payable,uint256[] memory)": "infinite"
			}
		},
		"methodIdentifiers": {
			"Cmm(uint256)": "1b76cf53",
			"Cmq(uint256)": "2b1cd65b",
			"Cmqprime(uint256)": "52a5acce",
			"Cms(uint256)": "15246493",
			"Tak(uint256)": "ec98c2c3",
			"Tm(uint256)": "f9938e28",
			"Tq(uint256)": "8e620802",
			"addRewardCredits()": "b5af5719",
			"akTm()": "ff3bd1fc",
			"getAggregatedResults()": "caf1124a",
			"getDataCount()": "7355a424",
			"getEtherBack(uint256,(uint256[],(uint256,uint256,int256,int256,int256)[],uint256[],uint256[],uint256[],uint256[]),(int256[],int256[],int256[],int256),uint8)": "fa840a45",
			"getSensingTask()": "04ee37e3",
			"proveSubmittedData(uint256,(uint256[],(uint256,uint256,int256,int256,int256)[],uint256[],uint256[],uint256[],uint256[]),(int256[],int256[],int256[],int256),uint8,uint256,(uint256[],(uint256,uint256,int256,int256,int256)[],uint256[],uint256[],uint256[],uint256[]),(int256[],int256[],int256[],int256),uint8,uint256,(uint256,uint256,uint256,uint256,uint256))": "4da24f03",
			"revealedQPrime(uint256)": "37d9a251",
			"submitSensingData((uint256,uint256,uint256,uint256,uint256),(uint256,uint256,uint256,uint256,uint256))": "568eb9d1"
		}
	},
	"abi": [
		{
			"inputs": [
				{
					"internalType": "uint256",
					"name": "_parkingSpaceNo",
					"type": "uint256"
				},
				{
					"internalType": "uint256",
					"name": "_sensingTime",
					"type": "uint256"
				},
				{
					"internalType": "uint256",
					"name": "_refundTime",
					"type": "uint256"
				},
				{
					"internalType": "address payable",
					"name": "_zeroCoinAddr",
					"type": "address"
				}
			],
			"stateMutability": "payable",
			"type": "constructor"
		},
		{
			"anonymous": false,
			"inputs": [],
			"name": "AcceptingData",
			"type": "event"
		},
		{
			"anonymous": false,
			"inputs": [],
			"name": "AggregatedData",
			"type": "event"
		},
		{
			"anonymous": false,
			"inputs": [],
			"name": "CreditsIncreased",
			"type": "event"
		},
		{
			"anonymous": false,
			"inputs": [
				{
					"indexed": false,
					"internalType": "address",
					"name": "addr",
					"type": "address"
				},
				{
					"indexed": false,
					"internalType": "uint256",
					"name": "value",
					"type": "uint256"
				}
			],
			"name": "CreditsReceived",
			"type": "event"
		},
		{
			"anonymous": false,
			"inputs": [
				{
					"indexed": false,
					"internalType": "address",
					"name": "addr",
					"type": "address"
				}
			],
			"name": "ProvingData",
			"type": "event"
		},
		{
			"anonymous": false,
			"inputs": [],
			"name": "RewardGenerated",
			"type": "event"
		},
		{
			"anonymous": false,
			"inputs": [],
			"name": "Withdrawn",
			"type": "event"
		},
		{
			"anonymous": false,
			"inputs": [
				{
					"indexed": false,
					"internalType": "address",
					"name": "addr",
					"type": "address"
				},
				{
					"indexed": false,
					"internalType": "uint256",
					"name": "amount",
					"type": "uint256"
				}
			],
			"name": "etherRefund",
			"type": "event"
		},
		{
			"inputs": [
				{
					"internalType": "uint256",
					"name": "",
					"type": "uint256"
				}
			],
			"name": "Cmm",
			"outputs": [
				{
					"internalType": "uint256",
					"name": "",
					"type": "uint256"
				}
			],
			"stateMutability": "view",
			"type": "function"
		},
		{
			"inputs": [
				{
					"internalType": "uint256",
					"name": "",
					"type": "uint256"
				}
			],
			"name": "Cmq",
			"outputs": [
				{
					"internalType": "uint256",
					"name": "",
					"type": "uint256"
				}
			],
			"stateMutability": "view",
			"type": "function"
		},
		{
			"inputs": [
				{
					"internalType": "uint256",
					"name": "",
					"type": "uint256"
				}
			],
			"name": "Cmqprime",
			"outputs": [
				{
					"internalType": "uint256",
					"name": "",
					"type": "uint256"
				}
			],
			"stateMutability": "view",
			"type": "function"
		},
		{
			"inputs": [
				{
					"internalType": "uint256",
					"name": "",
					"type": "uint256"
				}
			],
			"name": "Cms",
			"outputs": [
				{
					"internalType": "uint256",
					"name": "",
					"type": "uint256"
				}
			],
			"stateMutability": "view",
			"type": "function"
		},
		{
			"inputs": [
				{
					"internalType": "uint256",
					"name": "",
					"type": "uint256"
				}
			],
			"name": "Tak",
			"outputs": [
				{
					"internalType": "uint256",
					"name": "",
					"type": "uint256"
				}
			],
			"stateMutability": "view",
			"type": "function"
		},
		{
			"inputs": [
				{
					"internalType": "uint256",
					"name": "",
					"type": "uint256"
				}
			],
			"name": "Tm",
			"outputs": [
				{
					"internalType": "uint256",
					"name": "",
					"type": "uint256"
				}
			],
			"stateMutability": "view",
			"type": "function"
		},
		{
			"inputs": [
				{
					"internalType": "uint256",
					"name": "",
					"type": "uint256"
				}
			],
			"name": "Tq",
			"outputs": [
				{
					"internalType": "uint256",
					"name": "",
					"type": "uint256"
				}
			],
			"stateMutability": "view",
			"type": "function"
		},
		{
			"inputs": [],
			"name": "addRewardCredits",
			"outputs": [],
			"stateMutability": "payable",
			"type": "function"
		},
		{
			"inputs": [],
			"name": "akTm",
			"outputs": [
				{
					"internalType": "uint256",
					"name": "",
					"type": "uint256"
				}
			],
			"stateMutability": "view",
			"type": "function"
		},
		{
			"inputs": [],
			"name": "getAggregatedResults",
			"outputs": [
				{
					"internalType": "string",
					"name": "",
					"type": "string"
				}
			],
			"stateMutability": "nonpayable",
			"type": "function"
		},
		{
			"inputs": [],
			"name": "getDataCount",
			"outputs": [
				{
					"internalType": "uint256",
					"name": "",
					"type": "uint256"
				}
			],
			"stateMutability": "nonpayable",
			"type": "function"
		},
		{
			"inputs": [
				{
					"internalType": "uint256",
					"name": "_qprime",
					"type": "uint256"
				},
				{
					"components": [
						{
							"internalType": "uint256[]",
							"name": "cs",
							"type": "uint256[]"
						},
						{
							"components": [
								{
									"internalType": "uint256",
									"name": "ca",
									"type": "uint256"
								},
								{
									"internalType": "uint256",
									"name": "cb",
									"type": "uint256"
								},
								{
									"internalType": "int256",
									"name": "f",
									"type": "int256"
								},
								{
									"internalType": "int256",
									"name": "za",
									"type": "int256"
								},
								{
									"internalType": "int256",
									"name": "zb",
									"type": "int256"
								}
							],
							"internalType": "struct ZkpZeroOne[]",
							"name": "zkps",
							"type": "tuple[]"
						},
						{
							"internalType": "uint256[]",
							"name": "cls",
							"type": "uint256[]"
						},
						{
							"internalType": "uint256[]",
							"name": "cas",
							"type": "uint256[]"
						},
						{
							"internalType": "uint256[]",
							"name": "cbs",
							"type": "uint256[]"
						},
						{
							"internalType": "uint256[]",
							"name": "cds",
							"type": "uint256[]"
						}
					],
					"internalType": "struct Zkp1N1",
					"name": "zkp1qprime",
					"type": "tuple"
				},
				{
					"components": [
						{
							"internalType": "int256[]",
							"name": "fs",
							"type": "int256[]"
						},
						{
							"internalType": "int256[]",
							"name": "zas",
							"type": "int256[]"
						},
						{
							"internalType": "int256[]",
							"name": "zbs",
							"type": "int256[]"
						},
						{
							"internalType": "int256",
							"name": "zd",
							"type": "int256"
						}
					],
					"internalType": "struct Zkp1N2",
					"name": "zkp2qprime",
					"type": "tuple"
				},
				{
					"internalType": "uint8",
					"name": "nbitsqprime",
					"type": "uint8"
				}
			],
			"name": "getEtherBack",
			"outputs": [],
			"stateMutability": "nonpayable",
			"type": "function"
		},
		{
			"inputs": [],
			"name": "getSensingTask",
			"outputs": [
				{
					"internalType": "uint256",
					"name": "",
					"type": "uint256"
				},
				{
					"internalType": "uint256",
					"name": "",
					"type": "uint256"
				},
				{
					"internalType": "uint256",
					"name": "",
					"type": "uint256"
				},
				{
					"internalType": "uint256",
					"name": "",
					"type": "uint256"
				}
			],
			"stateMutability": "view",
			"type": "function"
		},
		{
			"inputs": [
				{
					"internalType": "uint256",
					"name": "obs",
					"type": "uint256"
				},
				{
					"components": [
						{
							"internalType": "uint256[]",
							"name": "cs",
							"type": "uint256[]"
						},
						{
							"components": [
								{
									"internalType": "uint256",
									"name": "ca",
									"type": "uint256"
								},
								{
									"internalType": "uint256",
									"name": "cb",
									"type": "uint256"
								},
								{
									"internalType": "int256",
									"name": "f",
									"type": "int256"
								},
								{
									"internalType": "int256",
									"name": "za",
									"type": "int256"
								},
								{
									"internalType": "int256",
									"name": "zb",
									"type": "int256"
								}
							],
							"internalType": "struct ZkpZeroOne[]",
							"name": "zkps",
							"type": "tuple[]"
						},
						{
							"internalType": "uint256[]",
							"name": "cls",
							"type": "uint256[]"
						},
						{
							"internalType": "uint256[]",
							"name": "cas",
							"type": "uint256[]"
						},
						{
							"internalType": "uint256[]",
							"name": "cbs",
							"type": "uint256[]"
						},
						{
							"internalType": "uint256[]",
							"name": "cds",
							"type": "uint256[]"
						}
					],
					"internalType": "struct Zkp1N1",
					"name": "zkp1obs",
					"type": "tuple"
				},
				{
					"components": [
						{
							"internalType": "int256[]",
							"name": "fs",
							"type": "int256[]"
						},
						{
							"internalType": "int256[]",
							"name": "zas",
							"type": "int256[]"
						},
						{
							"internalType": "int256[]",
							"name": "zbs",
							"type": "int256[]"
						},
						{
							"internalType": "int256",
							"name": "zd",
							"type": "int256"
						}
					],
					"internalType": "struct Zkp1N2",
					"name": "zkp2obs",
					"type": "tuple"
				},
				{
					"internalType": "uint8",
					"name": "nbitsobs",
					"type": "uint8"
				},
				{
					"internalType": "uint256",
					"name": "_q",
					"type": "uint256"
				},
				{
					"components": [
						{
							"internalType": "uint256[]",
							"name": "cs",
							"type": "uint256[]"
						},
						{
							"components": [
								{
									"internalType": "uint256",
									"name": "ca",
									"type": "uint256"
								},
								{
									"internalType": "uint256",
									"name": "cb",
									"type": "uint256"
								},
								{
									"internalType": "int256",
									"name": "f",
									"type": "int256"
								},
								{
									"internalType": "int256",
									"name": "za",
									"type": "int256"
								},
								{
									"internalType": "int256",
									"name": "zb",
									"type": "int256"
								}
							],
							"internalType": "struct ZkpZeroOne[]",
							"name": "zkps",
							"type": "tuple[]"
						},
						{
							"internalType": "uint256[]",
							"name": "cls",
							"type": "uint256[]"
						},
						{
							"internalType": "uint256[]",
							"name": "cas",
							"type": "uint256[]"
						},
						{
							"internalType": "uint256[]",
							"name": "cbs",
							"type": "uint256[]"
						},
						{
							"internalType": "uint256[]",
							"name": "cds",
							"type": "uint256[]"
						}
					],
					"internalType": "struct Zkp1N1",
					"name": "zkp1q",
					"type": "tuple"
				},
				{
					"components": [
						{
							"internalType": "int256[]",
							"name": "fs",
							"type": "int256[]"
						},
						{
							"internalType": "int256[]",
							"name": "zas",
							"type": "int256[]"
						},
						{
							"internalType": "int256[]",
							"name": "zbs",
							"type": "int256[]"
						},
						{
							"internalType": "int256",
							"name": "zd",
							"type": "int256"
						}
					],
					"internalType": "struct Zkp1N2",
					"name": "zkp2q",
					"type": "tuple"
				},
				{
					"internalType": "uint8",
					"name": "nbitsq",
					"type": "uint8"
				},
				{
					"internalType": "uint256",
					"name": "_Cms",
					"type": "uint256"
				},
				{
					"components": [
						{
							"internalType": "uint256",
							"name": "c",
							"type": "uint256"
						},
						{
							"internalType": "uint256",
							"name": "cprime",
							"type": "uint256"
						},
						{
							"internalType": "uint256",
							"name": "beta",
							"type": "uint256"
						},
						{
							"internalType": "uint256",
							"name": "zx",
							"type": "uint256"
						},
						{
							"internalType": "uint256",
							"name": "zr",
							"type": "uint256"
						}
					],
					"internalType": "struct ZkpCm",
					"name": "_Cmqprime",
					"type": "tuple"
				}
			],
			"name": "proveSubmittedData",
			"outputs": [],
			"stateMutability": "nonpayable",
			"type": "function"
		},
		{
			"inputs": [
				{
					"internalType": "uint256",
					"name": "",
					"type": "uint256"
				}
			],
			"name": "revealedQPrime",
			"outputs": [
				{
					"internalType": "uint256",
					"name": "",
					"type": "uint256"
				}
			],
			"stateMutability": "view",
			"type": "function"
		},
		{
			"inputs": [
				{
					"components": [
						{
							"internalType": "uint256",
							"name": "c",
							"type": "uint256"
						},
						{
							"internalType": "uint256",
							"name": "cprime",
							"type": "uint256"
						},
						{
							"internalType": "uint256",
							"name": "beta",
							"type": "uint256"
						},
						{
							"internalType": "uint256",
							"name": "zx",
							"type": "uint256"
						},
						{
							"internalType": "uint256",
							"name": "zr",
							"type": "uint256"
						}
					],
					"internalType": "struct ZkpCm",
					"name": "Cm1",
					"type": "tuple"
				},
				{
					"components": [
						{
							"internalType": "uint256",
							"name": "c",
							"type": "uint256"
						},
						{
							"internalType": "uint256",
							"name": "cprime",
							"type": "uint256"
						},
						{
							"internalType": "uint256",
							"name": "beta",
							"type": "uint256"
						},
						{
							"internalType": "uint256",
							"name": "zx",
							"type": "uint256"
						},
						{
							"internalType": "uint256",
							"name": "zr",
							"type": "uint256"
						}
					],
					"internalType": "struct ZkpCm",
					"name": "Cm2",
					"type": "tuple"
				}
			],
			"name": "submitSensingData",
			"outputs": [],
			"stateMutability": "payable",
			"type": "function"
		},
		{
			"stateMutability": "payable",
			"type": "receive"
		}
	]
}