{
	"data": {
		"bytecode": {
			"linkReferences": {
				"contracts/SafeMath.sol": {
					"SafeMath": [
						{
							"length": 20,
							"start": 6701
						},
						{
							"length": 20,
							"start": 7624
						},
						{
							"length": 20,
							"start": 8355
						}
					]
				}
			},
			"object": "60806040526345f6a89a5f557f418aeeea6f03066901717a84f4e1c8155212eb247e5a01882d50b38687c3766b600155637c9bc7636002557f016bec42056b48d3f692db5367547b6f559463fdef76bbcaa30397dd149a21af6003556002546003546001545f546040516200007490620000e3565b6200008394939291906200010b565b604051809103905ff0801580156200009d573d5f803e3d5ffd5b5060045f6101000a81548173ffffffffffffffffffffffffffffffffffffffff021916908373ffffffffffffffffffffffffffffffffffffffff16021790555062000156565b6121ed806200140883390190565b5f819050919050565b6200010581620000f1565b82525050565b5f608082019050620001205f830187620000fa565b6200012f6020830186620000fa565b6200013e6040830185620000fa565b6200014d6060830184620000fa565b95945050505050565b6112a480620001645f395ff3fe60806040526004361061004d575f3560e01c8063912d598f1461009157806394f86c12146100b9578063a0712d68146100e1578063b5c18928146100fd578063ceaff496146101395761008d565b3661008d577fa828cd9ff16c976ee98f37c4b96645624f01ae6fde47408f3dfd64833c6b99793334604051610083929190610553565b60405180910390a1005b5f80fd5b34801561009c575f80fd5b506100b760048036038101906100b29190610b8d565b610175565b005b3480156100c4575f80fd5b506100df60048036038101906100da9190610c3c565b6102b1565b005b6100fb60048036038101906100f69190610cd8565b610449565b005b348015610108575f80fd5b50610123600480360381019061011e9190610cd8565b6104bc565b6040516101309190610d03565b60405180910390f35b348015610144575f80fd5b5061015f600480360381019061015a9190610cd8565b6104dc565b60405161016c9190610d03565b60405180910390f35b60045f9054906101000a900473ffffffffffffffffffffffffffffffffffffffff1673ffffffffffffffffffffffffffffffffffffffff166322b32dfd8585856040518463ffffffff1660e01b81526004016101d3939291906110be565b602060405180830381865afa1580156101ee573d5f803e3d5ffd5b505050506040513d601f19601f820116820180604052508101906102129190611136565b61021a575f80fd5b5f5b60068054905081101561025d57856006828154811061023e5761023d611161565b5b905f5260205f20015403610250575f80fd5b808060010191505061021c565b50600685908060018154018082558091505060019003905f5260205f20015f9091909190915055600581908060018154018082558091505060019003905f5260205f20015f90919091909150555050505050565b60045f9054906101000a900473ffffffffffffffffffffffffffffffffffffffff1673ffffffffffffffffffffffffffffffffffffffff166322b32dfd8484846040518463ffffffff1660e01b815260040161030f939291906110be565b602060405180830381865afa15801561032a573d5f803e3d5ffd5b505050506040513d601f19601f8201168201806040525081019061034e9190611136565b610356575f80fd5b5f5b6006805490508110156103d057846006828154811061037a57610379611161565b5b905f5260205f200154036103c3576040517f08c379a00000000000000000000000000000000000000000000000000000000081526004016103ba906111e8565b60405180910390fd5b8080600101915050610358565b50600684908060018154018082558091505060019003905f5260205f20015f90919091909150553373ffffffffffffffffffffffffffffffffffffffff166108fc670de0b6b3a764000090811502906040515f60405180830381858888f19350505050158015610442573d5f803e3d5ffd5b5050505050565b670de0b6b3a76400003414610493576040517f08c379a000000000000000000000000000000000000000000000000000000000815260040161048a90611250565b60405180910390fd5b600581908060018154018082558091505060019003905f5260205f20015f909190919091505550565b600581815481106104cb575f80fd5b905f5260205f20015f915090505481565b600681815481106104eb575f80fd5b905f5260205f20015f915090505481565b5f73ffffffffffffffffffffffffffffffffffffffff82169050919050565b5f610525826104fc565b9050919050565b6105358161051b565b82525050565b5f819050919050565b61054d8161053b565b82525050565b5f6040820190506105665f83018561052c565b6105736020830184610544565b9392505050565b5f604051905090565b5f80fd5b5f80fd5b6105948161053b565b811461059e575f80fd5b50565b5f813590506105af8161058b565b92915050565b5f80fd5b5f601f19601f8301169050919050565b7f4e487b71000000000000000000000000000000000000000000000000000000005f52604160045260245ffd5b6105ff826105b9565b810181811067ffffffffffffffff8211171561061e5761061d6105c9565b5b80604052505050565b5f61063061057a565b905061063c82826105f6565b919050565b5f80fd5b5f80fd5b5f67ffffffffffffffff821115610663576106626105c9565b5b602082029050602081019050919050565b5f80fd5b5f61068a61068584610649565b610627565b905080838252602082019050602084028301858111156106ad576106ac610674565b5b835b818110156106d657806106c288826105a1565b8452602084019350506020810190506106af565b5050509392505050565b5f82601f8301126106f4576106f3610645565b5b8135610704848260208601610678565b91505092915050565b5f67ffffffffffffffff821115610727576107266105c9565b5b602082029050602081019050919050565b5f819050919050565b61074a81610738565b8114610754575f80fd5b50565b5f8135905061076581610741565b92915050565b5f60a082840312156107805761077f6105b5565b5b61078a60a0610627565b90505f610799848285016105a1565b5f8301525060206107ac848285016105a1565b60208301525060406107c084828501610757565b60408301525060606107d484828501610757565b60608301525060806107e884828501610757565b60808301525092915050565b5f6108066108018461070d565b610627565b90508083825260208201905060a0840283018581111561082957610828610674565b5b835b81811015610852578061083e888261076b565b84526020840193505060a08101905061082b565b5050509392505050565b5f82601f8301126108705761086f610645565b5b81356108808482602086016107f4565b91505092915050565b5f60c0828403121561089e5761089d6105b5565b5b6108a860c0610627565b90505f82013567ffffffffffffffff8111156108c7576108c6610641565b5b6108d3848285016106e0565b5f83015250602082013567ffffffffffffffff8111156108f6576108f5610641565b5b6109028482850161085c565b602083015250604082013567ffffffffffffffff81111561092657610925610641565b5b610932848285016106e0565b604083015250606082013567ffffffffffffffff81111561095657610955610641565b5b610962848285016106e0565b606083015250608082013567ffffffffffffffff81111561098657610985610641565b5b610992848285016106e0565b60808301525060a082013567ffffffffffffffff8111156109b6576109b5610641565b5b6109c2848285016106e0565b60a08301525092915050565b5f67ffffffffffffffff8211156109e8576109e76105c9565b5b602082029050602081019050919050565b5f610a0b610a06846109ce565b610627565b90508083825260208201905060208402830185811115610a2e57610a2d610674565b5b835b81811015610a575780610a438882610757565b845260208401935050602081019050610a30565b5050509392505050565b5f82601f830112610a7557610a74610645565b5b8135610a858482602086016109f9565b91505092915050565b5f60808284031215610aa357610aa26105b5565b5b610aad6080610627565b90505f82013567ffffffffffffffff811115610acc57610acb610641565b5b610ad884828501610a61565b5f83015250602082013567ffffffffffffffff811115610afb57610afa610641565b5b610b0784828501610a61565b602083015250604082013567ffffffffffffffff811115610b2b57610b2a610641565b5b610b3784828501610a61565b6040830152506060610b4b84828501610757565b60608301525092915050565b5f60ff82169050919050565b610b6c81610b57565b8114610b76575f80fd5b50565b5f81359050610b8781610b63565b92915050565b5f805f805f60a08688031215610ba657610ba5610583565b5b5f610bb3888289016105a1565b955050602086013567ffffffffffffffff811115610bd457610bd3610587565b5b610be088828901610889565b945050604086013567ffffffffffffffff811115610c0157610c00610587565b5b610c0d88828901610a8e565b9350506060610c1e88828901610b79565b9250506080610c2f888289016105a1565b9150509295509295909350565b5f805f8060808587031215610c5457610c53610583565b5b5f610c61878288016105a1565b945050602085013567ffffffffffffffff811115610c8257610c81610587565b5b610c8e87828801610889565b935050604085013567ffffffffffffffff811115610caf57610cae610587565b5b610cbb87828801610a8e565b9250506060610ccc87828801610b79565b91505092959194509250565b5f60208284031215610ced57610cec610583565b5b5f610cfa848285016105a1565b91505092915050565b5f602082019050610d165f830184610544565b92915050565b5f81519050919050565b5f82825260208201905092915050565b5f819050602082019050919050565b610d4e8161053b565b82525050565b5f610d5f8383610d45565b60208301905092915050565b5f602082019050919050565b5f610d8182610d1c565b610d8b8185610d26565b9350610d9683610d36565b805f5b83811015610dc6578151610dad8882610d54565b9750610db883610d6b565b925050600181019050610d99565b5085935050505092915050565b5f81519050919050565b5f82825260208201905092915050565b5f819050602082019050919050565b610e0581610738565b82525050565b60a082015f820151610e1f5f850182610d45565b506020820151610e326020850182610d45565b506040820151610e456040850182610dfc565b506060820151610e586060850182610dfc565b506080820151610e6b6080850182610dfc565b50505050565b5f610e7c8383610e0b565b60a08301905092915050565b5f602082019050919050565b5f610e9e82610dd3565b610ea88185610ddd565b9350610eb383610ded565b805f5b83811015610ee3578151610eca8882610e71565b9750610ed583610e88565b925050600181019050610eb6565b5085935050505092915050565b5f60c083015f8301518482035f860152610f0a8282610d77565b91505060208301518482036020860152610f248282610e94565b91505060408301518482036040860152610f3e8282610d77565b91505060608301518482036060860152610f588282610d77565b91505060808301518482036080860152610f728282610d77565b91505060a083015184820360a0860152610f8c8282610d77565b9150508091505092915050565b5f81519050919050565b5f82825260208201905092915050565b5f819050602082019050919050565b5f610fcd8383610dfc565b60208301905092915050565b5f602082019050919050565b5f610fef82610f99565b610ff98185610fa3565b935061100483610fb3565b805f5b8381101561103457815161101b8882610fc2565b975061102683610fd9565b925050600181019050611007565b5085935050505092915050565b5f608083015f8301518482035f86015261105b8282610fe5565b915050602083015184820360208601526110758282610fe5565b9150506040830151848203604086015261108f8282610fe5565b91505060608301516110a46060860182610dfc565b508091505092915050565b6110b881610b57565b82525050565b5f6060820190508181035f8301526110d68186610ef0565b905081810360208301526110ea8185611041565b90506110f960408301846110af565b949350505050565b5f8115159050919050565b61111581611101565b811461111f575f80fd5b50565b5f815190506111308161110c565b92915050565b5f6020828403121561114b5761114a610583565b5b5f61115884828501611122565b91505092915050565b7f4e487b71000000000000000000000000000000000000000000000000000000005f52603260045260245ffd5b5f82825260208201905092915050565b7f54686520636f696e20686173206265656e207370656e740000000000000000005f82015250565b5f6111d260178361118e565b91506111dd8261119e565b602082019050919050565b5f6020820190508181035f8301526111ff816111c6565b9050919050565b7f6e65656420746f206d696e74206120636f696e207769746820312065746865725f82015250565b5f61123a60208361118e565b915061124582611206565b602082019050919050565b5f6020820190508181035f8301526112678161122e565b905091905056fea2646970667358221220179ce7be2c02b6ee3590b86141506e424d0f8edcc8e317e8ed1400de664584dd64736f6c63430008160033608060405234801562000010575f80fd5b50604051620021ed380380620021ed833981810160405281019062000036919062000097565b835f819055508260018190555081600281905550806003819055505050505062000106565b5f80fd5b5f819050919050565b62000073816200005f565b81146200007e575f80fd5b50565b5f81519050620000918162000068565b92915050565b5f805f8060808587031215620000b257620000b16200005b565b5b5f620000c18782880162000081565b9450506020620000d48782880162000081565b9350506040620000e78782880162000081565b9250506060620000fa8782880162000081565b91505092959194509250565b6120d980620001145f395ff3fe608060405234801561000f575f80fd5b50600436106100e8575f3560e01c80637e58f9011161008a578063a1991acc11610064578063a1991acc146102b8578063a6806d91146102e8578063ab22520614610318578063b455cb4b14610348576100e8565b80637e58f9011461022857806399977969146102585780639cd479b614610288576100e8565b80631be57fbb116100c65780631be57fbb1461017c578063229436461461019857806322b32dfd146101c857806360c4b7f1146101f8576100e8565b806309f175c1146100ec5780631351df0b1461011c578063156896741461014c575b5f80fd5b6101066004803603810190610101919061127a565b610378565b60405161011391906112bf565b60405180910390f35b610136600480360381019061013191906112d8565b610423565b6040516101439190611325565b60405180910390f35b61016660048036038101906101619190611371565b61046e565b6040516101739190611325565b60405180910390f35b61019660048036038101906101919190611438565b6104ba565b005b6101b260048036038101906101ad91906114ac565b610606565b6040516101bf91906114f9565b60405180910390f35b6101e260048036038101906101dd9190611968565b610619565b6040516101ef91906112bf565b60405180910390f35b610212600480360381019061020d91906112d8565b61080e565b60405161021f9190611325565b60405180910390f35b610242600480360381019061023d91906119f0565b61085a565b60405161024f9190611325565b60405180910390f35b610272600480360381019061026d9190611a37565b61092d565b60405161027f91906112bf565b60405180910390f35b6102a2600480360381019061029d9190611ad3565b6109c6565b6040516102af9190611325565b60405180910390f35b6102d260048036038101906102cd9190611b1a565b610c0d565b6040516102df9190611325565b60405180910390f35b61030260048036038101906102fd91906112d8565b610c2d565b60405161030f9190611325565b60405180910390f35b610332600480360381019061032d91906112d8565b610c4d565b60405161033f9190611325565b60405180910390f35b610362600480360381019061035d9190611b45565b610c6a565b60405161036f9190611325565b60405180910390f35b5f80825f015190505f836020015190505f846040015190505f856060015190505f866080015190505f600254806103b2576103b1611b83565b5b6103cb83600254600154610c8a9092919063ffffffff16565b6103e3856002545f54610c8a9092919063ffffffff16565b0990505f6103fa866103f58988610c2d565b610c4d565b905080820361041357600197505050505050505061041e565b5f9750505050505050505b919050565b5f807fffffffffffffffffffffffffffffffffffffffffffffffffffffffffffffffff90506002548061045957610458611b83565b5b6104638483610c6a565b850991505092915050565b5f600254806104805761047f611b83565b5b61049983600254600154610d9a9092919063ffffffff16565b6104b1856002545f54610d9a9092919063ffffffff16565b09905092915050565b5f815f015190505f826020015190505f836040015190505f846060015190505f856080015190505f8786866040516020016104f793929190611bd0565b604051602081830303815290604052805190602001205f1c73__$438773560da8ebd76b582f48732bda290a$__63f43f523a90916003546040518363ffffffff1660e01b815260040161054b929190611c1b565b602060405180830381865af4158015610566573d5f803e3d5ffd5b505050506040513d601f19601f8201168201806040525081019061058a9190611c56565b90505f610597858561046e565b90505f6105ad6105a78b85610c2d565b89610c4d565b90505f6105ba5f8661046e565b90505f6105db6105d58d8a886105d09190611cae565b610c6a565b8a610c4d565b905082841480156105eb57508082145b6105f8576105f7611cee565b5b505050505050505050505050565b5f60018260ff1684901c16905092915050565b5f80845f015190505f856040015190505f8660a0015190505f865f015190505f8760600151905061064e848a60200151610dda565b5f6106588a6109c6565b90505f819050610674868c60600151868d60200151858e610e35565b61068a868c60800151868d60400151858e610efa565b5f600190505f5b8851811015610775575f600190505f5b8c60ff168160ff1610156107375760016106bb8483610606565b60ff16036106f357878160ff16815181106106d9576106d8611d1b565b5b6020026020010151826106ec9190611d48565b915061072a565b878160ff168151811061070957610708611d1b565b5b60200260200101518561071c9190611cae565b826107279190611d48565b91505b80806001019150506106a1565b50610765836107608c858151811061075257610751611d1b565b5b602002602001015184610c6a565b610c4d565b9250508080600101915050610691565b505f5b8a60ff168110156107d3576107c4826107bf89848151811061079d5761079c611d1b565b5b602002602001015184876107b19190611f04565b6107ba90611f6f565b610c6a565b610c4d565b91508080600101915050610778565b505f6107df5f8661046e565b90508082036107fa5760019950505050505050505050610807565b5f99505050505050505050505b9392505050565b5f600254806108205761081f611b83565b5b61083983600254600154610c8a9092919063ffffffff16565b610851856002545f54610c8a9092919063ffffffff16565b09905092915050565b5f80600190505f5b83518110156108a8576002548061087c5761087b611b83565b5b84828151811061088f5761088e611d1b565b5b6020026020010151830991508080600101915050610862565b508073__$438773560da8ebd76b582f48732bda290a$__63f43f523a90916002546040518363ffffffff1660e01b81526004016108e6929190611c1b565b602060405180830381865af4158015610901573d5f803e3d5ffd5b505050506040513d601f19601f820116820180604052508101906109259190611c56565b915050919050565b5f80845f015190505f5b81518110156109af5761098382828151811061095657610955611d1b565b5b602002602001015161097e61096a8a610fca565b6002545f54610d9a9092919063ffffffff16565b610c4d565b82828151811061099657610995611d1b565b5b6020026020010181815250508080600101915050610937565b506109bb858585610619565b915050949350505050565b5f80825f015190505f836040015190505f846060015190505f856080015190505f8660a0015190505f805b8651811015610a375760025480610a0b57610a0a611b83565b5b878281518110610a1e57610a1d611d1b565b5b60200260200101518308915080806001019150506109f1565b505f5b8551811015610a805760025480610a5457610a53611b83565b5b868281518110610a6757610a66611d1b565b5b6020026020010151830891508080600101915050610a3a565b505f5b8451811015610ac95760025480610a9d57610a9c611b83565b5b858281518110610ab057610aaf611d1b565b5b6020026020010151830891508080600101915050610a83565b505f5b8351811015610b125760025480610ae657610ae5611b83565b5b848281518110610af957610af8611d1b565b5b6020026020010151830891508080600101915050610acc565b505f5b8251811015610b5b5760025480610b2f57610b2e611b83565b5b838281518110610b4257610b41611d1b565b5b6020026020010151830891508080600101915050610b15565b5080604051602001610b6d9190611fb5565b604051602081830303815290604052805190602001205f1c73__$438773560da8ebd76b582f48732bda290a$__63f43f523a90916003546040518363ffffffff1660e01b8152600401610bc1929190611c1b565b602060405180830381865af4158015610bdc573d5f803e3d5ffd5b505050506040513d601f19601f82011682018060405250810190610c009190611c56565b9650505050505050919050565b5f610c26826002545f54610c8a9092919063ffffffff16565b9050919050565b5f610c458260025485610c8a9092919063ffffffff16565b905092915050565b5f60025480610c5f57610c5e611b83565b5b828409905092915050565b5f610c828260025485610d9a9092919063ffffffff16565b905092915050565b5f80610c946110d9565b610c9c6110fb565b6020815f60068110610cb157610cb0611d1b565b5b602002018181525050602081600160068110610cd057610ccf611d1b565b5b602002018181525050602081600260068110610cef57610cee611d1b565b5b6020020181815250508681600360068110610d0d57610d0c611d1b565b5b6020020181815250508581600460068110610d2b57610d2a611d1b565b5b6020020181815250508481600560068110610d4957610d48611d1b565b5b60200201818152505060208260c08360056107d05a03fa9250825f8103610d6c57fe5b5082610d76575f80fd5b815f60018110610d8957610d88611d1b565b5b602002015193505050509392505050565b5f808312610db457610dad848484610c8a565b9050610dd3565b610dd0610dc18584610fdb565b610dca85611094565b84610c8a565b90505b9392505050565b5f5b8251811015610e3057610e23838281518110610dfb57610dfa611d1b565b5b6020026020010151838381518110610e1657610e15611d1b565b5b60200260200101516104ba565b8080600101915050610ddc565b505050565b5f5b8160ff16811015610ef1575f858281518110610e5657610e55611d1b565b5b602002602001015190505f610ea8610e888a8581518110610e7a57610e79611d1b565b5b602002602001015187610c6a565b898581518110610e9b57610e9a611d1b565b5b6020026020010151610c4d565b90505f610ecf83888681518110610ec257610ec1611d1b565b5b602002602001015161046e565b9050808214610ee157610ee0611cee565b5b5050508080600101915050610e37565b50505050505050565b5f5b8160ff16811015610fc1575f858281518110610f1b57610f1a611d1b565b5b602002602001015190505f610f78610f588a8581518110610f3f57610f3e611d1b565b5b60200260200101518488610f539190611cae565b610c6a565b898581518110610f6b57610f6a611d1b565b5b6020026020010151610c4d565b90505f610f9f5f888681518110610f9257610f91611d1b565b5b602002602001015161046e565b9050808214610fb157610fb0611cee565b5b5050508080600101915050610efc565b50505050505050565b5f610fd4826110c7565b9050919050565b5f81831115610ff3578183610ff09190611fcf565b92505b5f80600190505f8490505f8690505f5b5f821461105d5781836110169190611fff565b90508384826110259190611d48565b866110309190611cae565b83848461103d919061202f565b866110489190612070565b80955081965082975083985050505050611003565b5f8512156110855761106e85611094565b876110799190612070565b9550505050505061108e565b84955050505050505b92915050565b5f808213156110a5578190506110c2565b5f8212156110be57816110b790611f6f565b90506110c2565b5f90505b919050565b5f816110d290611f6f565b9050919050565b6040518060200160405280600190602082028036833780820191505090505090565b6040518060c00160405280600690602082028036833780820191505090505090565b5f604051905090565b5f80fd5b5f80fd5b5f80fd5b5f601f19601f8301169050919050565b7f4e487b71000000000000000000000000000000000000000000000000000000005f52604160045260245ffd5b61117882611132565b810181811067ffffffffffffffff8211171561119757611196611142565b5b80604052505050565b5f6111a961111d565b90506111b5828261116f565b919050565b5f80fd5b5f819050919050565b6111d0816111be565b81146111da575f80fd5b50565b5f813590506111eb816111c7565b92915050565b5f60a082840312156112065761120561112e565b5b61121060a06111a0565b90505f61121f848285016111dd565b5f830152506020611232848285016111dd565b6020830152506040611246848285016111dd565b604083015250606061125a848285016111dd565b606083015250608061126e848285016111dd565b60808301525092915050565b5f60a0828403121561128f5761128e611126565b5b5f61129c848285016111f1565b91505092915050565b5f8115159050919050565b6112b9816112a5565b82525050565b5f6020820190506112d25f8301846112b0565b92915050565b5f80604083850312156112ee576112ed611126565b5b5f6112fb858286016111dd565b925050602061130c858286016111dd565b9150509250929050565b61131f816111be565b82525050565b5f6020820190506113385f830184611316565b92915050565b5f819050919050565b6113508161133e565b811461135a575f80fd5b50565b5f8135905061136b81611347565b92915050565b5f806040838503121561138757611386611126565b5b5f6113948582860161135d565b92505060206113a58582860161135d565b9150509250929050565b5f60a082840312156113c4576113c361112e565b5b6113ce60a06111a0565b90505f6113dd848285016111dd565b5f8301525060206113f0848285016111dd565b60208301525060406114048482850161135d565b60408301525060606114188482850161135d565b606083015250608061142c8482850161135d565b60808301525092915050565b5f8060c0838503121561144e5761144d611126565b5b5f61145b858286016111dd565b925050602061146c858286016113af565b9150509250929050565b5f60ff82169050919050565b61148b81611476565b8114611495575f80fd5b50565b5f813590506114a681611482565b92915050565b5f80604083850312156114c2576114c1611126565b5b5f6114cf858286016111dd565b92505060206114e085828601611498565b9150509250929050565b6114f381611476565b82525050565b5f60208201905061150c5f8301846114ea565b92915050565b5f80fd5b5f67ffffffffffffffff8211156115305761152f611142565b5b602082029050602081019050919050565b5f80fd5b5f61155761155284611516565b6111a0565b9050808382526020820190506020840283018581111561157a57611579611541565b5b835b818110156115a3578061158f88826111dd565b84526020840193505060208101905061157c565b5050509392505050565b5f82601f8301126115c1576115c0611512565b5b81356115d1848260208601611545565b91505092915050565b5f67ffffffffffffffff8211156115f4576115f3611142565b5b602082029050602081019050919050565b5f611617611612846115da565b6111a0565b90508083825260208201905060a0840283018581111561163a57611639611541565b5b835b81811015611663578061164f88826113af565b84526020840193505060a08101905061163c565b5050509392505050565b5f82601f83011261168157611680611512565b5b8135611691848260208601611605565b91505092915050565b5f60c082840312156116af576116ae61112e565b5b6116b960c06111a0565b90505f82013567ffffffffffffffff8111156116d8576116d76111ba565b5b6116e4848285016115ad565b5f83015250602082013567ffffffffffffffff811115611707576117066111ba565b5b6117138482850161166d565b602083015250604082013567ffffffffffffffff811115611737576117366111ba565b5b611743848285016115ad565b604083015250606082013567ffffffffffffffff811115611767576117666111ba565b5b611773848285016115ad565b606083015250608082013567ffffffffffffffff811115611797576117966111ba565b5b6117a3848285016115ad565b60808301525060a082013567ffffffffffffffff8111156117c7576117c66111ba565b5b6117d3848285016115ad565b60a08301525092915050565b5f67ffffffffffffffff8211156117f9576117f8611142565b5b602082029050602081019050919050565b5f61181c611817846117df565b6111a0565b9050808382526020820190506020840283018581111561183f5761183e611541565b5b835b818110156118685780611854888261135d565b845260208401935050602081019050611841565b5050509392505050565b5f82601f83011261188657611885611512565b5b813561189684826020860161180a565b91505092915050565b5f608082840312156118b4576118b361112e565b5b6118be60806111a0565b90505f82013567ffffffffffffffff8111156118dd576118dc6111ba565b5b6118e984828501611872565b5f83015250602082013567ffffffffffffffff81111561190c5761190b6111ba565b5b61191884828501611872565b602083015250604082013567ffffffffffffffff81111561193c5761193b6111ba565b5b61194884828501611872565b604083015250606061195c8482850161135d565b60608301525092915050565b5f805f6060848603121561197f5761197e611126565b5b5f84013567ffffffffffffffff81111561199c5761199b61112a565b5b6119a88682870161169a565b935050602084013567ffffffffffffffff8111156119c9576119c861112a565b5b6119d58682870161189f565b92505060406119e686828701611498565b9150509250925092565b5f60208284031215611a0557611a04611126565b5b5f82013567ffffffffffffffff811115611a2257611a2161112a565b5b611a2e848285016115ad565b91505092915050565b5f805f8060808587031215611a4f57611a4e611126565b5b5f611a5c878288016111dd565b945050602085013567ffffffffffffffff811115611a7d57611a7c61112a565b5b611a898782880161169a565b935050604085013567ffffffffffffffff811115611aaa57611aa961112a565b5b611ab68782880161189f565b9250506060611ac787828801611498565b91505092959194509250565b5f60208284031215611ae857611ae7611126565b5b5f82013567ffffffffffffffff811115611b0557611b0461112a565b5b611b118482850161169a565b91505092915050565b5f60208284031215611b2f57611b2e611126565b5b5f611b3c848285016111dd565b91505092915050565b5f8060408385031215611b5b57611b5a611126565b5b5f611b68858286016111dd565b9250506020611b798582860161135d565b9150509250929050565b7f4e487b71000000000000000000000000000000000000000000000000000000005f52601260045260245ffd5b5f819050919050565b611bca611bc5826111be565b611bb0565b82525050565b5f611bdb8286611bb9565b602082019150611beb8285611bb9565b602082019150611bfb8284611bb9565b602082019150819050949350505050565b611c15816111be565b82525050565b5f604082019050611c2e5f830185611c0c565b611c3b6020830184611c0c565b9392505050565b5f81519050611c50816111c7565b92915050565b5f60208284031215611c6b57611c6a611126565b5b5f611c7884828501611c42565b91505092915050565b7f4e487b71000000000000000000000000000000000000000000000000000000005f52601160045260245ffd5b5f611cb88261133e565b9150611cc38361133e565b925082820390508181125f8412168282135f851215161715611ce857611ce7611c81565b5b92915050565b7f4e487b71000000000000000000000000000000000000000000000000000000005f52600160045260245ffd5b7f4e487b71000000000000000000000000000000000000000000000000000000005f52603260045260245ffd5b5f611d528261133e565b9150611d5d8361133e565b9250828202611d6b8161133e565b91507f800000000000000000000000000000000000000000000000000000000000000084145f84121615611da257611da1611c81565b5b8282058414831517611db757611db6611c81565b5b5092915050565b5f8160011c9050919050565b5f808291508390505b6001851115611e1357808604811115611def57611dee611c81565b5b6001851615611dfe5780820291505b8081029050611e0c85611dbe565b9450611dd3565b94509492505050565b5f825f8114611e325760018114611e3c57611e45565b6001915050611efc565b82915050611efc565b5081611e53575f9050611efc565b600190505f821360018114611e6e575f8114611e8657611e9a565b828604831115611e8157611e80611c81565b5b611e9a565b828605831215611e9957611e98611c81565b5b5b506001831615611ea8578190505b8182029150611eb683611dbe565b9250611ec485848484611dca565b9250905081850481115f82131615611edf57611ede611c81565b5b81840581125f82121615611ef657611ef5611c81565b5b81810290505b949350505050565b5f611f0e8261133e565b9150611f19836111be565b9250611f677f7fffffffffffffffffffffffffffffffffffffffffffffffffffffffffffffff7f80000000000000000000000000000000000000000000000000000000000000008585611e1c565b905092915050565b5f611f798261133e565b91507f80000000000000000000000000000000000000000000000000000000000000008203611fab57611faa611c81565b5b815f039050919050565b5f611fc08284611bb9565b60208201915081905092915050565b5f611fd9826111be565b9150611fe4836111be565b925082611ff457611ff3611b83565b5b828206905092915050565b5f612009826111be565b9150612014836111be565b92508261202457612023611b83565b5b828204905092915050565b5f612039826111be565b9150612044836111be565b9250828202612052816111be565b9150828204841483151761206957612068611c81565b5b5092915050565b5f61207a826111be565b9150612085836111be565b925082820390508181111561209d5761209c611c81565b5b9291505056fea26469706673582212207e74345a526fe3081310f448a5ea741edac1c0d437be5e59ef20712480b1e4de64736f6c63430008160033",
			"opcodes": "PUSH1 0x80 PUSH1 0x40 MSTORE PUSH4 0x45F6A89A PUSH0 SSTORE PUSH32 0x418AEEEA6F03066901717A84F4E1C8155212EB247E5A01882D50B38687C3766B PUSH1 0x1 SSTORE PUSH4 0x7C9BC763 PUSH1 0x2 SSTORE PUSH32 0x16BEC42056B48D3F692DB5367547B6F559463FDEF76BBCAA30397DD149A21AF PUSH1 0x3 SSTORE PUSH1 0x2 SLOAD PUSH1 0x3 SLOAD PUSH1 0x1 SLOAD PUSH0 SLOAD PUSH1 0x40 MLOAD PUSH3 0x74 SWAP1 PUSH3 0xE3 JUMP JUMPDEST PUSH3 0x83 SWAP5 SWAP4 SWAP3 SWAP2 SWAP1 PUSH3 0x10B JUMP JUMPDEST PUSH1 0x40 MLOAD DUP1 SWAP2 SUB SWAP1 PUSH0 CREATE DUP1 ISZERO DUP1 ISZERO PUSH3 0x9D JUMPI RETURNDATASIZE PUSH0 DUP1 RETURNDATACOPY RETURNDATASIZE PUSH0 REVERT JUMPDEST POP PUSH1 0x4 PUSH0 PUSH2 0x100 EXP DUP2 SLOAD DUP2 PUSH20 0xFFFFFFFFFFFFFFFFFFFFFFFFFFFFFFFFFFFFFFFF MUL NOT AND SWAP1 DUP4 PUSH20 0xFFFFFFFFFFFFFFFFFFFFFFFFFFFFFFFFFFFFFFFF AND MUL OR SWAP1 SSTORE POP PUSH3 0x156 JUMP JUMPDEST PUSH2 0x21ED DUP1 PUSH3 0x1408 DUP4 CODECOPY ADD SWAP1 JUMP JUMPDEST PUSH0 DUP2 SWAP1 POP SWAP2 SWAP1 POP JUMP JUMPDEST PUSH3 0x105 DUP2 PUSH3 0xF1 JUMP JUMPDEST DUP3 MSTORE POP POP JUMP JUMPDEST PUSH0 PUSH1 0x80 DUP3 ADD SWAP1 POP PUSH3 0x120 PUSH0 DUP4 ADD DUP8 PUSH3 0xFA JUMP JUMPDEST PUSH3 0x12F PUSH1 0x20 DUP4 ADD DUP7 PUSH3 0xFA JUMP JUMPDEST PUSH3 0x13E PUSH1 0x40 DUP4 ADD DUP6 PUSH3 0xFA JUMP JUMPDEST PUSH3 0x14D PUSH1 0x60 DUP4 ADD DUP5 PUSH3 0xFA JUMP JUMPDEST SWAP6 SWAP5 POP POP POP POP POP JUMP JUMPDEST PUSH2 0x12A4 DUP1 PUSH3 0x164 PUSH0 CODECOPY PUSH0 RETURN INVALID PUSH1 0x80 PUSH1 0x40 MSTORE PUSH1 0x4 CALLDATASIZE LT PUSH2 0x4D JUMPI PUSH0 CALLDATALOAD PUSH1 0xE0 SHR DUP1 PUSH4 0x912D598F EQ PUSH2 0x91 JUMPI DUP1 PUSH4 0x94F86C12 EQ PUSH2 0xB9 JUMPI DUP1 PUSH4 0xA0712D68 EQ PUSH2 0xE1 JUMPI DUP1 PUSH4 0xB5C18928 EQ PUSH2 0xFD JUMPI DUP1 PUSH4 0xCEAFF496 EQ PUSH2 0x139 JUMPI PUSH2 0x8D JUMP JUMPDEST CALLDATASIZE PUSH2 0x8D JUMPI PUSH32 0xA828CD9FF16C976EE98F37C4B96645624F01AE6FDE47408F3DFD64833C6B9979 CALLER CALLVALUE PUSH1 0x40 MLOAD PUSH2 0x83 SWAP3 SWAP2 SWAP1 PUSH2 0x553 JUMP JUMPDEST PUSH1 0x40 MLOAD DUP1 SWAP2 SUB SWAP1 LOG1 STOP JUMPDEST PUSH0 DUP1 REVERT JUMPDEST CALLVALUE DUP1 ISZERO PUSH2 0x9C JUMPI PUSH0 DUP1 REVERT JUMPDEST POP PUSH2 0xB7 PUSH1 0x4 DUP1 CALLDATASIZE SUB DUP2 ADD SWAP1 PUSH2 0xB2 SWAP2 SWAP1 PUSH2 0xB8D JUMP JUMPDEST PUSH2 0x175 JUMP JUMPDEST STOP JUMPDEST CALLVALUE DUP1 ISZERO PUSH2 0xC4 JUMPI PUSH0 DUP1 REVERT JUMPDEST POP PUSH2 0xDF PUSH1 0x4 DUP1 CALLDATASIZE SUB DUP2 ADD SWAP1 PUSH2 0xDA SWAP2 SWAP1 PUSH2 0xC3C JUMP JUMPDEST PUSH2 0x2B1 JUMP JUMPDEST STOP JUMPDEST PUSH2 0xFB PUSH1 0x4 DUP1 CALLDATASIZE SUB DUP2 ADD SWAP1 PUSH2 0xF6 SWAP2 SWAP1 PUSH2 0xCD8 JUMP JUMPDEST PUSH2 0x449 JUMP JUMPDEST STOP JUMPDEST CALLVALUE DUP1 ISZERO PUSH2 0x108 JUMPI PUSH0 DUP1 REVERT JUMPDEST POP PUSH2 0x123 PUSH1 0x4 DUP1 CALLDATASIZE SUB DUP2 ADD SWAP1 PUSH2 0x11E SWAP2 SWAP1 PUSH2 0xCD8 JUMP JUMPDEST PUSH2 0x4BC JUMP JUMPDEST PUSH1 0x40 MLOAD PUSH2 0x130 SWAP2 SWAP1 PUSH2 0xD03 JUMP JUMPDEST PUSH1 0x40 MLOAD DUP1 SWAP2 SUB SWAP1 RETURN JUMPDEST CALLVALUE DUP1 ISZERO PUSH2 0x144 JUMPI PUSH0 DUP1 REVERT JUMPDEST POP PUSH2 0x15F PUSH1 0x4 DUP1 CALLDATASIZE SUB DUP2 ADD SWAP1 PUSH2 0x15A SWAP2 SWAP1 PUSH2 0xCD8 JUMP JUMPDEST PUSH2 0x4DC JUMP JUMPDEST PUSH1 0x40 MLOAD PUSH2 0x16C SWAP2 SWAP1 PUSH2 0xD03 JUMP JUMPDEST PUSH1 0x40 MLOAD DUP1 SWAP2 SUB SWAP1 RETURN JUMPDEST PUSH1 0x4 PUSH0 SWAP1 SLOAD SWAP1 PUSH2 0x100 EXP SWAP1 DIV PUSH20 0xFFFFFFFFFFFFFFFFFFFFFFFFFFFFFFFFFFFFFFFF AND PUSH20 0xFFFFFFFFFFFFFFFFFFFFFFFFFFFFFFFFFFFFFFFF AND PUSH4 0x22B32DFD DUP6 DUP6 DUP6 PUSH1 0x40 MLOAD DUP5 PUSH4 0xFFFFFFFF AND PUSH1 0xE0 SHL DUP2 MSTORE PUSH1 0x4 ADD PUSH2 0x1D3 SWAP4 SWAP3 SWAP2 SWAP1 PUSH2 0x10BE JUMP JUMPDEST PUSH1 0x20 PUSH1 0x40 MLOAD DUP1 DUP4 SUB DUP2 DUP7 GAS STATICCALL ISZERO DUP1 ISZERO PUSH2 0x1EE JUMPI RETURNDATASIZE PUSH0 DUP1 RETURNDATACOPY RETURNDATASIZE PUSH0 REVERT JUMPDEST POP POP POP POP PUSH1 0x40 MLOAD RETURNDATASIZE PUSH1 0x1F NOT PUSH1 0x1F DUP3 ADD AND DUP3 ADD DUP1 PUSH1 0x40 MSTORE POP DUP2 ADD SWAP1 PUSH2 0x212 SWAP2 SWAP1 PUSH2 0x1136 JUMP JUMPDEST PUSH2 0x21A JUMPI PUSH0 DUP1 REVERT JUMPDEST PUSH0 JUMPDEST PUSH1 0x6 DUP1 SLOAD SWAP1 POP DUP2 LT ISZERO PUSH2 0x25D JUMPI DUP6 PUSH1 0x6 DUP3 DUP2 SLOAD DUP2 LT PUSH2 0x23E JUMPI PUSH2 0x23D PUSH2 0x1161 JUMP JUMPDEST JUMPDEST SWAP1 PUSH0 MSTORE PUSH1 0x20 PUSH0 KECCAK256 ADD SLOAD SUB PUSH2 0x250 JUMPI PUSH0 DUP1 REVERT JUMPDEST DUP1 DUP1 PUSH1 0x1 ADD SWAP2 POP POP PUSH2 0x21C JUMP JUMPDEST POP PUSH1 0x6 DUP6 SWAP1 DUP1 PUSH1 0x1 DUP2 SLOAD ADD DUP1 DUP3 SSTORE DUP1 SWAP2 POP POP PUSH1 0x1 SWAP1 SUB SWAP1 PUSH0 MSTORE PUSH1 0x20 PUSH0 KECCAK256 ADD PUSH0 SWAP1 SWAP2 SWAP1 SWAP2 SWAP1 SWAP2 POP SSTORE PUSH1 0x5 DUP2 SWAP1 DUP1 PUSH1 0x1 DUP2 SLOAD ADD DUP1 DUP3 SSTORE DUP1 SWAP2 POP POP PUSH1 0x1 SWAP1 SUB SWAP1 PUSH0 MSTORE PUSH1 0x20 PUSH0 KECCAK256 ADD PUSH0 SWAP1 SWAP2 SWAP1 SWAP2 SWAP1 SWAP2 POP SSTORE POP POP POP POP POP JUMP JUMPDEST PUSH1 0x4 PUSH0 SWAP1 SLOAD SWAP1 PUSH2 0x100 EXP SWAP1 DIV PUSH20 0xFFFFFFFFFFFFFFFFFFFFFFFFFFFFFFFFFFFFFFFF AND PUSH20 0xFFFFFFFFFFFFFFFFFFFFFFFFFFFFFFFFFFFFFFFF AND PUSH4 0x22B32DFD DUP5 DUP5 DUP5 PUSH1 0x40 MLOAD DUP5 PUSH4 0xFFFFFFFF AND PUSH1 0xE0 SHL DUP2 MSTORE PUSH1 0x4 ADD PUSH2 0x30F SWAP4 SWAP3 SWAP2 SWAP1 PUSH2 0x10BE JUMP JUMPDEST PUSH1 0x20 PUSH1 0x40 MLOAD DUP1 DUP4 SUB DUP2 DUP7 GAS STATICCALL ISZERO DUP1 ISZERO PUSH2 0x32A JUMPI RETURNDATASIZE PUSH0 DUP1 RETURNDATACOPY RETURNDATASIZE PUSH0 REVERT JUMPDEST POP POP POP POP PUSH1 0x40 MLOAD RETURNDATASIZE PUSH1 0x1F NOT PUSH1 0x1F DUP3 ADD AND DUP3 ADD DUP1 PUSH1 0x40 MSTORE POP DUP2 ADD SWAP1 PUSH2 0x34E SWAP2 SWAP1 PUSH2 0x1136 JUMP JUMPDEST PUSH2 0x356 JUMPI PUSH0 DUP1 REVERT JUMPDEST PUSH0 JUMPDEST PUSH1 0x6 DUP1 SLOAD SWAP1 POP DUP2 LT ISZERO PUSH2 0x3D0 JUMPI DUP5 PUSH1 0x6 DUP3 DUP2 SLOAD DUP2 LT PUSH2 0x37A JUMPI PUSH2 0x379 PUSH2 0x1161 JUMP JUMPDEST JUMPDEST SWAP1 PUSH0 MSTORE PUSH1 0x20 PUSH0 KECCAK256 ADD SLOAD SUB PUSH2 0x3C3 JUMPI PUSH1 0x40 MLOAD PUSH32 0x8C379A000000000000000000000000000000000000000000000000000000000 DUP2 MSTORE PUSH1 0x4 ADD PUSH2 0x3BA SWAP1 PUSH2 0x11E8 JUMP JUMPDEST PUSH1 0x40 MLOAD DUP1 SWAP2 SUB SWAP1 REVERT JUMPDEST DUP1 DUP1 PUSH1 0x1 ADD SWAP2 POP POP PUSH2 0x358 JUMP JUMPDEST POP PUSH1 0x6 DUP5 SWAP1 DUP1 PUSH1 0x1 DUP2 SLOAD ADD DUP1 DUP3 SSTORE DUP1 SWAP2 POP POP PUSH1 0x1 SWAP1 SUB SWAP1 PUSH0 MSTORE PUSH1 0x20 PUSH0 KECCAK256 ADD PUSH0 SWAP1 SWAP2 SWAP1 SWAP2 SWAP1 SWAP2 POP SSTORE CALLER PUSH20 0xFFFFFFFFFFFFFFFFFFFFFFFFFFFFFFFFFFFFFFFF AND PUSH2 0x8FC PUSH8 0xDE0B6B3A7640000 SWAP1 DUP2 ISZERO MUL SWAP1 PUSH1 0x40 MLOAD PUSH0 PUSH1 0x40 MLOAD DUP1 DUP4 SUB DUP2 DUP6 DUP9 DUP9 CALL SWAP4 POP POP POP POP ISZERO DUP1 ISZERO PUSH2 0x442 JUMPI RETURNDATASIZE PUSH0 DUP1 RETURNDATACOPY RETURNDATASIZE PUSH0 REVERT JUMPDEST POP POP POP POP POP JUMP JUMPDEST PUSH8 0xDE0B6B3A7640000 CALLVALUE EQ PUSH2 0x493 JUMPI PUSH1 0x40 MLOAD PUSH32 0x8C379A000000000000000000000000000000000000000000000000000000000 DUP2 MSTORE PUSH1 0x4 ADD PUSH2 0x48A SWAP1 PUSH2 0x1250 JUMP JUMPDEST PUSH1 0x40 MLOAD DUP1 SWAP2 SUB SWAP1 REVERT JUMPDEST PUSH1 0x5 DUP2 SWAP1 DUP1 PUSH1 0x1 DUP2 SLOAD ADD DUP1 DUP3 SSTORE DUP1 SWAP2 POP POP PUSH1 0x1 SWAP1 SUB SWAP1 PUSH0 MSTORE PUSH1 0x20 PUSH0 KECCAK256 ADD PUSH0 SWAP1 SWAP2 SWAP1 SWAP2 SWAP1 SWAP2 POP SSTORE POP JUMP JUMPDEST PUSH1 0x5 DUP2 DUP2 SLOAD DUP2 LT PUSH2 0x4CB JUMPI PUSH0 DUP1 REVERT JUMPDEST SWAP1 PUSH0 MSTORE PUSH1 0x20 PUSH0 KECCAK256 ADD PUSH0 SWAP2 POP SWAP1 POP SLOAD DUP2 JUMP JUMPDEST PUSH1 0x6 DUP2 DUP2 SLOAD DUP2 LT PUSH2 0x4EB JUMPI PUSH0 DUP1 REVERT JUMPDEST SWAP1 PUSH0 MSTORE PUSH1 0x20 PUSH0 KECCAK256 ADD PUSH0 SWAP2 POP SWAP1 POP SLOAD DUP2 JUMP JUMPDEST PUSH0 PUSH20 0xFFFFFFFFFFFFFFFFFFFFFFFFFFFFFFFFFFFFFFFF DUP3 AND SWAP1 POP SWAP2 SWAP1 POP JUMP JUMPDEST PUSH0 PUSH2 0x525 DUP3 PUSH2 0x4FC JUMP JUMPDEST SWAP1 POP SWAP2 SWAP1 POP JUMP JUMPDEST PUSH2 0x535 DUP2 PUSH2 0x51B JUMP JUMPDEST DUP3 MSTORE POP POP JUMP JUMPDEST PUSH0 DUP2 SWAP1 POP SWAP2 SWAP1 POP JUMP JUMPDEST PUSH2 0x54D DUP2 PUSH2 0x53B JUMP JUMPDEST DUP3 MSTORE POP POP JUMP JUMPDEST PUSH0 PUSH1 0x40 DUP3 ADD SWAP1 POP PUSH2 0x566 PUSH0 DUP4 ADD DUP6 PUSH2 0x52C JUMP JUMPDEST PUSH2 0x573 PUSH1 0x20 DUP4 ADD DUP5 PUSH2 0x544 JUMP JUMPDEST SWAP4 SWAP3 POP POP POP JUMP JUMPDEST PUSH0 PUSH1 0x40 MLOAD SWAP1 POP SWAP1 JUMP JUMPDEST PUSH0 DUP1 REVERT JUMPDEST PUSH0 DUP1 REVERT JUMPDEST PUSH2 0x594 DUP2 PUSH2 0x53B JUMP JUMPDEST DUP2 EQ PUSH2 0x59E JUMPI PUSH0 DUP1 REVERT JUMPDEST POP JUMP JUMPDEST PUSH0 DUP2 CALLDATALOAD SWAP1 POP PUSH2 0x5AF DUP2 PUSH2 0x58B JUMP JUMPDEST SWAP3 SWAP2 POP POP JUMP JUMPDEST PUSH0 DUP1 REVERT JUMPDEST PUSH0 PUSH1 0x1F NOT PUSH1 0x1F DUP4 ADD AND SWAP1 POP SWAP2 SWAP1 POP JUMP JUMPDEST PUSH32 0x4E487B7100000000000000000000000000000000000000000000000000000000 PUSH0 MSTORE PUSH1 0x41 PUSH1 0x4 MSTORE PUSH1 0x24 PUSH0 REVERT JUMPDEST PUSH2 0x5FF DUP3 PUSH2 0x5B9 JUMP JUMPDEST DUP2 ADD DUP2 DUP2 LT PUSH8 0xFFFFFFFFFFFFFFFF DUP3 GT OR ISZERO PUSH2 0x61E JUMPI PUSH2 0x61D PUSH2 0x5C9 JUMP JUMPDEST JUMPDEST DUP1 PUSH1 0x40 MSTORE POP POP POP JUMP JUMPDEST PUSH0 PUSH2 0x630 PUSH2 0x57A JUMP JUMPDEST SWAP1 POP PUSH2 0x63C DUP3 DUP3 PUSH2 0x5F6 JUMP JUMPDEST SWAP2 SWAP1 POP JUMP JUMPDEST PUSH0 DUP1 REVERT JUMPDEST PUSH0 DUP1 REVERT JUMPDEST PUSH0 PUSH8 0xFFFFFFFFFFFFFFFF DUP3 GT ISZERO PUSH2 0x663 JUMPI PUSH2 0x662 PUSH2 0x5C9 JUMP JUMPDEST JUMPDEST PUSH1 0x20 DUP3 MUL SWAP1 POP PUSH1 0x20 DUP2 ADD SWAP1 POP SWAP2 SWAP1 POP JUMP JUMPDEST PUSH0 DUP1 REVERT JUMPDEST PUSH0 PUSH2 0x68A PUSH2 0x685 DUP5 PUSH2 0x649 JUMP JUMPDEST PUSH2 0x627 JUMP JUMPDEST SWAP1 POP DUP1 DUP4 DUP3 MSTORE PUSH1 0x20 DUP3 ADD SWAP1 POP PUSH1 0x20 DUP5 MUL DUP4 ADD DUP6 DUP2 GT ISZERO PUSH2 0x6AD JUMPI PUSH2 0x6AC PUSH2 0x674 JUMP JUMPDEST JUMPDEST DUP4 JUMPDEST DUP2 DUP2 LT ISZERO PUSH2 0x6D6 JUMPI DUP1 PUSH2 0x6C2 DUP9 DUP3 PUSH2 0x5A1 JUMP JUMPDEST DUP5 MSTORE PUSH1 0x20 DUP5 ADD SWAP4 POP POP PUSH1 0x20 DUP2 ADD SWAP1 POP PUSH2 0x6AF JUMP JUMPDEST POP POP POP SWAP4 SWAP3 POP POP POP JUMP JUMPDEST PUSH0 DUP3 PUSH1 0x1F DUP4 ADD SLT PUSH2 0x6F4 JUMPI PUSH2 0x6F3 PUSH2 0x645 JUMP JUMPDEST JUMPDEST DUP2 CALLDATALOAD PUSH2 0x704 DUP5 DUP3 PUSH1 0x20 DUP7 ADD PUSH2 0x678 JUMP JUMPDEST SWAP2 POP POP SWAP3 SWAP2 POP POP JUMP JUMPDEST PUSH0 PUSH8 0xFFFFFFFFFFFFFFFF DUP3 GT ISZERO PUSH2 0x727 JUMPI PUSH2 0x726 PUSH2 0x5C9 JUMP JUMPDEST JUMPDEST PUSH1 0x20 DUP3 MUL SWAP1 POP PUSH1 0x20 DUP2 ADD SWAP1 POP SWAP2 SWAP1 POP JUMP JUMPDEST PUSH0 DUP2 SWAP1 POP SWAP2 SWAP1 POP JUMP JUMPDEST PUSH2 0x74A DUP2 PUSH2 0x738 JUMP JUMPDEST DUP2 EQ PUSH2 0x754 JUMPI PUSH0 DUP1 REVERT JUMPDEST POP JUMP JUMPDEST PUSH0 DUP2 CALLDATALOAD SWAP1 POP PUSH2 0x765 DUP2 PUSH2 0x741 JUMP JUMPDEST SWAP3 SWAP2 POP POP JUMP JUMPDEST PUSH0 PUSH1 0xA0 DUP3 DUP5 SUB SLT ISZERO PUSH2 0x780 JUMPI PUSH2 0x77F PUSH2 0x5B5 JUMP JUMPDEST JUMPDEST PUSH2 0x78A PUSH1 0xA0 PUSH2 0x627 JUMP JUMPDEST SWAP1 POP PUSH0 PUSH2 0x799 DUP5 DUP3 DUP6 ADD PUSH2 0x5A1 JUMP JUMPDEST PUSH0 DUP4 ADD MSTORE POP PUSH1 0x20 PUSH2 0x7AC DUP5 DUP3 DUP6 ADD PUSH2 0x5A1 JUMP JUMPDEST PUSH1 0x20 DUP4 ADD MSTORE POP PUSH1 0x40 PUSH2 0x7C0 DUP5 DUP3 DUP6 ADD PUSH2 0x757 JUMP JUMPDEST PUSH1 0x40 DUP4 ADD MSTORE POP PUSH1 0x60 PUSH2 0x7D4 DUP5 DUP3 DUP6 ADD PUSH2 0x757 JUMP JUMPDEST PUSH1 0x60 DUP4 ADD MSTORE POP PUSH1 0x80 PUSH2 0x7E8 DUP5 DUP3 DUP6 ADD PUSH2 0x757 JUMP JUMPDEST PUSH1 0x80 DUP4 ADD MSTORE POP SWAP3 SWAP2 POP POP JUMP JUMPDEST PUSH0 PUSH2 0x806 PUSH2 0x801 DUP5 PUSH2 0x70D JUMP JUMPDEST PUSH2 0x627 JUMP JUMPDEST SWAP1 POP DUP1 DUP4 DUP3 MSTORE PUSH1 0x20 DUP3 ADD SWAP1 POP PUSH1 0xA0 DUP5 MUL DUP4 ADD DUP6 DUP2 GT ISZERO PUSH2 0x829 JUMPI PUSH2 0x828 PUSH2 0x674 JUMP JUMPDEST JUMPDEST DUP4 JUMPDEST DUP2 DUP2 LT ISZERO PUSH2 0x852 JUMPI DUP1 PUSH2 0x83E DUP9 DUP3 PUSH2 0x76B JUMP JUMPDEST DUP5 MSTORE PUSH1 0x20 DUP5 ADD SWAP4 POP POP PUSH1 0xA0 DUP2 ADD SWAP1 POP PUSH2 0x82B JUMP JUMPDEST POP POP POP SWAP4 SWAP3 POP POP POP JUMP JUMPDEST PUSH0 DUP3 PUSH1 0x1F DUP4 ADD SLT PUSH2 0x870 JUMPI PUSH2 0x86F PUSH2 0x645 JUMP JUMPDEST JUMPDEST DUP2 CALLDATALOAD PUSH2 0x880 DUP5 DUP3 PUSH1 0x20 DUP7 ADD PUSH2 0x7F4 JUMP JUMPDEST SWAP2 POP POP SWAP3 SWAP2 POP POP JUMP JUMPDEST PUSH0 PUSH1 0xC0 DUP3 DUP5 SUB SLT ISZERO PUSH2 0x89E JUMPI PUSH2 0x89D PUSH2 0x5B5 JUMP JUMPDEST JUMPDEST PUSH2 0x8A8 PUSH1 0xC0 PUSH2 0x627 JUMP JUMPDEST SWAP1 POP PUSH0 DUP3 ADD CALLDATALOAD PUSH8 0xFFFFFFFFFFFFFFFF DUP2 GT ISZERO PUSH2 0x8C7 JUMPI PUSH2 0x8C6 PUSH2 0x641 JUMP JUMPDEST JUMPDEST PUSH2 0x8D3 DUP5 DUP3 DUP6 ADD PUSH2 0x6E0 JUMP JUMPDEST PUSH0 DUP4 ADD MSTORE POP PUSH1 0x20 DUP3 ADD CALLDATALOAD PUSH8 0xFFFFFFFFFFFFFFFF DUP2 GT ISZERO PUSH2 0x8F6 JUMPI PUSH2 0x8F5 PUSH2 0x641 JUMP JUMPDEST JUMPDEST PUSH2 0x902 DUP5 DUP3 DUP6 ADD PUSH2 0x85C JUMP JUMPDEST PUSH1 0x20 DUP4 ADD MSTORE POP PUSH1 0x40 DUP3 ADD CALLDATALOAD PUSH8 0xFFFFFFFFFFFFFFFF DUP2 GT ISZERO PUSH2 0x926 JUMPI PUSH2 0x925 PUSH2 0x641 JUMP JUMPDEST JUMPDEST PUSH2 0x932 DUP5 DUP3 DUP6 ADD PUSH2 0x6E0 JUMP JUMPDEST PUSH1 0x40 DUP4 ADD MSTORE POP PUSH1 0x60 DUP3 ADD CALLDATALOAD PUSH8 0xFFFFFFFFFFFFFFFF DUP2 GT ISZERO PUSH2 0x956 JUMPI PUSH2 0x955 PUSH2 0x641 JUMP JUMPDEST JUMPDEST PUSH2 0x962 DUP5 DUP3 DUP6 ADD PUSH2 0x6E0 JUMP JUMPDEST PUSH1 0x60 DUP4 ADD MSTORE POP PUSH1 0x80 DUP3 ADD CALLDATALOAD PUSH8 0xFFFFFFFFFFFFFFFF DUP2 GT ISZERO PUSH2 0x986 JUMPI PUSH2 0x985 PUSH2 0x641 JUMP JUMPDEST JUMPDEST PUSH2 0x992 DUP5 DUP3 DUP6 ADD PUSH2 0x6E0 JUMP JUMPDEST PUSH1 0x80 DUP4 ADD MSTORE POP PUSH1 0xA0 DUP3 ADD CALLDATALOAD PUSH8 0xFFFFFFFFFFFFFFFF DUP2 GT ISZERO PUSH2 0x9B6 JUMPI PUSH2 0x9B5 PUSH2 0x641 JUMP JUMPDEST JUMPDEST PUSH2 0x9C2 DUP5 DUP3 DUP6 ADD PUSH2 0x6E0 JUMP JUMPDEST PUSH1 0xA0 DUP4 ADD MSTORE POP SWAP3 SWAP2 POP POP JUMP JUMPDEST PUSH0 PUSH8 0xFFFFFFFFFFFFFFFF DUP3 GT ISZERO PUSH2 0x9E8 JUMPI PUSH2 0x9E7 PUSH2 0x5C9 JUMP JUMPDEST JUMPDEST PUSH1 0x20 DUP3 MUL SWAP1 POP PUSH1 0x20 DUP2 ADD SWAP1 POP SWAP2 SWAP1 POP JUMP JUMPDEST PUSH0 PUSH2 0xA0B PUSH2 0xA06 DUP5 PUSH2 0x9CE JUMP JUMPDEST PUSH2 0x627 JUMP JUMPDEST SWAP1 POP DUP1 DUP4 DUP3 MSTORE PUSH1 0x20 DUP3 ADD SWAP1 POP PUSH1 0x20 DUP5 MUL DUP4 ADD DUP6 DUP2 GT ISZERO PUSH2 0xA2E JUMPI PUSH2 0xA2D PUSH2 0x674 JUMP JUMPDEST JUMPDEST DUP4 JUMPDEST DUP2 DUP2 LT ISZERO PUSH2 0xA57 JUMPI DUP1 PUSH2 0xA43 DUP9 DUP3 PUSH2 0x757 JUMP JUMPDEST DUP5 MSTORE PUSH1 0x20 DUP5 ADD SWAP4 POP POP PUSH1 0x20 DUP2 ADD SWAP1 POP PUSH2 0xA30 JUMP JUMPDEST POP POP POP SWAP4 SWAP3 POP POP POP JUMP JUMPDEST PUSH0 DUP3 PUSH1 0x1F DUP4 ADD SLT PUSH2 0xA75 JUMPI PUSH2 0xA74 PUSH2 0x645 JUMP JUMPDEST JUMPDEST DUP2 CALLDATALOAD PUSH2 0xA85 DUP5 DUP3 PUSH1 0x20 DUP7 ADD PUSH2 0x9F9 JUMP JUMPDEST SWAP2 POP POP SWAP3 SWAP2 POP POP JUMP JUMPDEST PUSH0 PUSH1 0x80 DUP3 DUP5 SUB SLT ISZERO PUSH2 0xAA3 JUMPI PUSH2 0xAA2 PUSH2 0x5B5 JUMP JUMPDEST JUMPDEST PUSH2 0xAAD PUSH1 0x80 PUSH2 0x627 JUMP JUMPDEST SWAP1 POP PUSH0 DUP3 ADD CALLDATALOAD PUSH8 0xFFFFFFFFFFFFFFFF DUP2 GT ISZERO PUSH2 0xACC JUMPI PUSH2 0xACB PUSH2 0x641 JUMP JUMPDEST JUMPDEST PUSH2 0xAD8 DUP5 DUP3 DUP6 ADD PUSH2 0xA61 JUMP JUMPDEST PUSH0 DUP4 ADD MSTORE POP PUSH1 0x20 DUP3 ADD CALLDATALOAD PUSH8 0xFFFFFFFFFFFFFFFF DUP2 GT ISZERO PUSH2 0xAFB JUMPI PUSH2 0xAFA PUSH2 0x641 JUMP JUMPDEST JUMPDEST PUSH2 0xB07 DUP5 DUP3 DUP6 ADD PUSH2 0xA61 JUMP JUMPDEST PUSH1 0x20 DUP4 ADD MSTORE POP PUSH1 0x40 DUP3 ADD CALLDATALOAD PUSH8 0xFFFFFFFFFFFFFFFF DUP2 GT ISZERO PUSH2 0xB2B JUMPI PUSH2 0xB2A PUSH2 0x641 JUMP JUMPDEST JUMPDEST PUSH2 0xB37 DUP5 DUP3 DUP6 ADD PUSH2 0xA61 JUMP JUMPDEST PUSH1 0x40 DUP4 ADD MSTORE POP PUSH1 0x60 PUSH2 0xB4B DUP5 DUP3 DUP6 ADD PUSH2 0x757 JUMP JUMPDEST PUSH1 0x60 DUP4 ADD MSTORE POP SWAP3 SWAP2 POP POP JUMP JUMPDEST PUSH0 PUSH1 0xFF DUP3 AND SWAP1 POP SWAP2 SWAP1 POP JUMP JUMPDEST PUSH2 0xB6C DUP2 PUSH2 0xB57 JUMP JUMPDEST DUP2 EQ PUSH2 0xB76 JUMPI PUSH0 DUP1 REVERT JUMPDEST POP JUMP JUMPDEST PUSH0 DUP2 CALLDATALOAD SWAP1 POP PUSH2 0xB87 DUP2 PUSH2 0xB63 JUMP JUMPDEST SWAP3 SWAP2 POP POP JUMP JUMPDEST PUSH0 DUP1 PUSH0 DUP1 PUSH0 PUSH1 0xA0 DUP7 DUP9 SUB SLT ISZERO PUSH2 0xBA6 JUMPI PUSH2 0xBA5 PUSH2 0x583 JUMP JUMPDEST JUMPDEST PUSH0 PUSH2 0xBB3 DUP9 DUP3 DUP10 ADD PUSH2 0x5A1 JUMP JUMPDEST SWAP6 POP POP PUSH1 0x20 DUP7 ADD CALLDATALOAD PUSH8 0xFFFFFFFFFFFFFFFF DUP2 GT ISZERO PUSH2 0xBD4 JUMPI PUSH2 0xBD3 PUSH2 0x587 JUMP JUMPDEST JUMPDEST PUSH2 0xBE0 DUP9 DUP3 DUP10 ADD PUSH2 0x889 JUMP JUMPDEST SWAP5 POP POP PUSH1 0x40 DUP7 ADD CALLDATALOAD PUSH8 0xFFFFFFFFFFFFFFFF DUP2 GT ISZERO PUSH2 0xC01 JUMPI PUSH2 0xC00 PUSH2 0x587 JUMP JUMPDEST JUMPDEST PUSH2 0xC0D DUP9 DUP3 DUP10 ADD PUSH2 0xA8E JUMP JUMPDEST SWAP4 POP POP PUSH1 0x60 PUSH2 0xC1E DUP9 DUP3 DUP10 ADD PUSH2 0xB79 JUMP JUMPDEST SWAP3 POP POP PUSH1 0x80 PUSH2 0xC2F DUP9 DUP3 DUP10 ADD PUSH2 0x5A1 JUMP JUMPDEST SWAP2 POP POP SWAP3 SWAP6 POP SWAP3 SWAP6 SWAP1 SWAP4 POP JUMP JUMPDEST PUSH0 DUP1 PUSH0 DUP1 PUSH1 0x80 DUP6 DUP8 SUB SLT ISZERO PUSH2 0xC54 JUMPI PUSH2 0xC53 PUSH2 0x583 JUMP JUMPDEST JUMPDEST PUSH0 PUSH2 0xC61 DUP8 DUP3 DUP9 ADD PUSH2 0x5A1 JUMP JUMPDEST SWAP5 POP POP PUSH1 0x20 DUP6 ADD CALLDATALOAD PUSH8 0xFFFFFFFFFFFFFFFF DUP2 GT ISZERO PUSH2 0xC82 JUMPI PUSH2 0xC81 PUSH2 0x587 JUMP JUMPDEST JUMPDEST PUSH2 0xC8E DUP8 DUP3 DUP9 ADD PUSH2 0x889 JUMP JUMPDEST SWAP4 POP POP PUSH1 0x40 DUP6 ADD CALLDATALOAD PUSH8 0xFFFFFFFFFFFFFFFF DUP2 GT ISZERO PUSH2 0xCAF JUMPI PUSH2 0xCAE PUSH2 0x587 JUMP JUMPDEST JUMPDEST PUSH2 0xCBB DUP8 DUP3 DUP9 ADD PUSH2 0xA8E JUMP JUMPDEST SWAP3 POP POP PUSH1 0x60 PUSH2 0xCCC DUP8 DUP3 DUP9 ADD PUSH2 0xB79 JUMP JUMPDEST SWAP2 POP POP SWAP3 SWAP6 SWAP2 SWAP5 POP SWAP3 POP JUMP JUMPDEST PUSH0 PUSH1 0x20 DUP3 DUP5 SUB SLT ISZERO PUSH2 0xCED JUMPI PUSH2 0xCEC PUSH2 0x583 JUMP JUMPDEST JUMPDEST PUSH0 PUSH2 0xCFA DUP5 DUP3 DUP6 ADD PUSH2 0x5A1 JUMP JUMPDEST SWAP2 POP POP SWAP3 SWAP2 POP POP JUMP JUMPDEST PUSH0 PUSH1 0x20 DUP3 ADD SWAP1 POP PUSH2 0xD16 PUSH0 DUP4 ADD DUP5 PUSH2 0x544 JUMP JUMPDEST SWAP3 SWAP2 POP POP JUMP JUMPDEST PUSH0 DUP2 MLOAD SWAP1 POP SWAP2 SWAP1 POP JUMP JUMPDEST PUSH0 DUP3 DUP3 MSTORE PUSH1 0x20 DUP3 ADD SWAP1 POP SWAP3 SWAP2 POP POP JUMP JUMPDEST PUSH0 DUP2 SWAP1 POP PUSH1 0x20 DUP3 ADD SWAP1 POP SWAP2 SWAP1 POP JUMP JUMPDEST PUSH2 0xD4E DUP2 PUSH2 0x53B JUMP JUMPDEST DUP3 MSTORE POP POP JUMP JUMPDEST PUSH0 PUSH2 0xD5F DUP4 DUP4 PUSH2 0xD45 JUMP JUMPDEST PUSH1 0x20 DUP4 ADD SWAP1 POP SWAP3 SWAP2 POP POP JUMP JUMPDEST PUSH0 PUSH1 0x20 DUP3 ADD SWAP1 POP SWAP2 SWAP1 POP JUMP JUMPDEST PUSH0 PUSH2 0xD81 DUP3 PUSH2 0xD1C JUMP JUMPDEST PUSH2 0xD8B DUP2 DUP6 PUSH2 0xD26 JUMP JUMPDEST SWAP4 POP PUSH2 0xD96 DUP4 PUSH2 0xD36 JUMP JUMPDEST DUP1 PUSH0 JUMPDEST DUP4 DUP2 LT ISZERO PUSH2 0xDC6 JUMPI DUP2 MLOAD PUSH2 0xDAD DUP9 DUP3 PUSH2 0xD54 JUMP JUMPDEST SWAP8 POP PUSH2 0xDB8 DUP4 PUSH2 0xD6B JUMP JUMPDEST SWAP3 POP POP PUSH1 0x1 DUP2 ADD SWAP1 POP PUSH2 0xD99 JUMP JUMPDEST POP DUP6 SWAP4 POP POP POP POP SWAP3 SWAP2 POP POP JUMP JUMPDEST PUSH0 DUP2 MLOAD SWAP1 POP SWAP2 SWAP1 POP JUMP JUMPDEST PUSH0 DUP3 DUP3 MSTORE PUSH1 0x20 DUP3 ADD SWAP1 POP SWAP3 SWAP2 POP POP JUMP JUMPDEST PUSH0 DUP2 SWAP1 POP PUSH1 0x20 DUP3 ADD SWAP1 POP SWAP2 SWAP1 POP JUMP JUMPDEST PUSH2 0xE05 DUP2 PUSH2 0x738 JUMP JUMPDEST DUP3 MSTORE POP POP JUMP JUMPDEST PUSH1 0xA0 DUP3 ADD PUSH0 DUP3 ADD MLOAD PUSH2 0xE1F PUSH0 DUP6 ADD DUP3 PUSH2 0xD45 JUMP JUMPDEST POP PUSH1 0x20 DUP3 ADD MLOAD PUSH2 0xE32 PUSH1 0x20 DUP6 ADD DUP3 PUSH2 0xD45 JUMP JUMPDEST POP PUSH1 0x40 DUP3 ADD MLOAD PUSH2 0xE45 PUSH1 0x40 DUP6 ADD DUP3 PUSH2 0xDFC JUMP JUMPDEST POP PUSH1 0x60 DUP3 ADD MLOAD PUSH2 0xE58 PUSH1 0x60 DUP6 ADD DUP3 PUSH2 0xDFC JUMP JUMPDEST POP PUSH1 0x80 DUP3 ADD MLOAD PUSH2 0xE6B PUSH1 0x80 DUP6 ADD DUP3 PUSH2 0xDFC JUMP JUMPDEST POP POP POP POP JUMP JUMPDEST PUSH0 PUSH2 0xE7C DUP4 DUP4 PUSH2 0xE0B JUMP JUMPDEST PUSH1 0xA0 DUP4 ADD SWAP1 POP SWAP3 SWAP2 POP POP JUMP JUMPDEST PUSH0 PUSH1 0x20 DUP3 ADD SWAP1 POP SWAP2 SWAP1 POP JUMP JUMPDEST PUSH0 PUSH2 0xE9E DUP3 PUSH2 0xDD3 JUMP JUMPDEST PUSH2 0xEA8 DUP2 DUP6 PUSH2 0xDDD JUMP JUMPDEST SWAP4 POP PUSH2 0xEB3 DUP4 PUSH2 0xDED JUMP JUMPDEST DUP1 PUSH0 JUMPDEST DUP4 DUP2 LT ISZERO PUSH2 0xEE3 JUMPI DUP2 MLOAD PUSH2 0xECA DUP9 DUP3 PUSH2 0xE71 JUMP JUMPDEST SWAP8 POP PUSH2 0xED5 DUP4 PUSH2 0xE88 JUMP JUMPDEST SWAP3 POP POP PUSH1 0x1 DUP2 ADD SWAP1 POP PUSH2 0xEB6 JUMP JUMPDEST POP DUP6 SWAP4 POP POP POP POP SWAP3 SWAP2 POP POP JUMP JUMPDEST PUSH0 PUSH1 0xC0 DUP4 ADD PUSH0 DUP4 ADD MLOAD DUP5 DUP3 SUB PUSH0 DUP7 ADD MSTORE PUSH2 0xF0A DUP3 DUP3 PUSH2 0xD77 JUMP JUMPDEST SWAP2 POP POP PUSH1 0x20 DUP4 ADD MLOAD DUP5 DUP3 SUB PUSH1 0x20 DUP7 ADD MSTORE PUSH2 0xF24 DUP3 DUP3 PUSH2 0xE94 JUMP JUMPDEST SWAP2 POP POP PUSH1 0x40 DUP4 ADD MLOAD DUP5 DUP3 SUB PUSH1 0x40 DUP7 ADD MSTORE PUSH2 0xF3E DUP3 DUP3 PUSH2 0xD77 JUMP JUMPDEST SWAP2 POP POP PUSH1 0x60 DUP4 ADD MLOAD DUP5 DUP3 SUB PUSH1 0x60 DUP7 ADD MSTORE PUSH2 0xF58 DUP3 DUP3 PUSH2 0xD77 JUMP JUMPDEST SWAP2 POP POP PUSH1 0x80 DUP4 ADD MLOAD DUP5 DUP3 SUB PUSH1 0x80 DUP7 ADD MSTORE PUSH2 0xF72 DUP3 DUP3 PUSH2 0xD77 JUMP JUMPDEST SWAP2 POP POP PUSH1 0xA0 DUP4 ADD MLOAD DUP5 DUP3 SUB PUSH1 0xA0 DUP7 ADD MSTORE PUSH2 0xF8C DUP3 DUP3 PUSH2 0xD77 JUMP JUMPDEST SWAP2 POP POP DUP1 SWAP2 POP POP SWAP3 SWAP2 POP POP JUMP JUMPDEST PUSH0 DUP2 MLOAD SWAP1 POP SWAP2 SWAP1 POP JUMP JUMPDEST PUSH0 DUP3 DUP3 MSTORE PUSH1 0x20 DUP3 ADD SWAP1 POP SWAP3 SWAP2 POP POP JUMP JUMPDEST PUSH0 DUP2 SWAP1 POP PUSH1 0x20 DUP3 ADD SWAP1 POP SWAP2 SWAP1 POP JUMP JUMPDEST PUSH0 PUSH2 0xFCD DUP4 DUP4 PUSH2 0xDFC JUMP JUMPDEST PUSH1 0x20 DUP4 ADD SWAP1 POP SWAP3 SWAP2 POP POP JUMP JUMPDEST PUSH0 PUSH1 0x20 DUP3 ADD SWAP1 POP SWAP2 SWAP1 POP JUMP JUMPDEST PUSH0 PUSH2 0xFEF DUP3 PUSH2 0xF99 JUMP JUMPDEST PUSH2 0xFF9 DUP2 DUP6 PUSH2 0xFA3 JUMP JUMPDEST SWAP4 POP PUSH2 0x1004 DUP4 PUSH2 0xFB3 JUMP JUMPDEST DUP1 PUSH0 JUMPDEST DUP4 DUP2 LT ISZERO PUSH2 0x1034 JUMPI DUP2 MLOAD PUSH2 0x101B DUP9 DUP3 PUSH2 0xFC2 JUMP JUMPDEST SWAP8 POP PUSH2 0x1026 DUP4 PUSH2 0xFD9 JUMP JUMPDEST SWAP3 POP POP PUSH1 0x1 DUP2 ADD SWAP1 POP PUSH2 0x1007 JUMP JUMPDEST POP DUP6 SWAP4 POP POP POP POP SWAP3 SWAP2 POP POP JUMP JUMPDEST PUSH0 PUSH1 0x80 DUP4 ADD PUSH0 DUP4 ADD MLOAD DUP5 DUP3 SUB PUSH0 DUP7 ADD MSTORE PUSH2 0x105B DUP3 DUP3 PUSH2 0xFE5 JUMP JUMPDEST SWAP2 POP POP PUSH1 0x20 DUP4 ADD MLOAD DUP5 DUP3 SUB PUSH1 0x20 DUP7 ADD MSTORE PUSH2 0x1075 DUP3 DUP3 PUSH2 0xFE5 JUMP JUMPDEST SWAP2 POP POP PUSH1 0x40 DUP4 ADD MLOAD DUP5 DUP3 SUB PUSH1 0x40 DUP7 ADD MSTORE PUSH2 0x108F DUP3 DUP3 PUSH2 0xFE5 JUMP JUMPDEST SWAP2 POP POP PUSH1 0x60 DUP4 ADD MLOAD PUSH2 0x10A4 PUSH1 0x60 DUP7 ADD DUP3 PUSH2 0xDFC JUMP JUMPDEST POP DUP1 SWAP2 POP POP SWAP3 SWAP2 POP POP JUMP JUMPDEST PUSH2 0x10B8 DUP2 PUSH2 0xB57 JUMP JUMPDEST DUP3 MSTORE POP POP JUMP JUMPDEST PUSH0 PUSH1 0x60 DUP3 ADD SWAP1 POP DUP2 DUP2 SUB PUSH0 DUP4 ADD MSTORE PUSH2 0x10D6 DUP2 DUP7 PUSH2 0xEF0 JUMP JUMPDEST SWAP1 POP DUP2 DUP2 SUB PUSH1 0x20 DUP4 ADD MSTORE PUSH2 0x10EA DUP2 DUP6 PUSH2 0x1041 JUMP JUMPDEST SWAP1 POP PUSH2 0x10F9 PUSH1 0x40 DUP4 ADD DUP5 PUSH2 0x10AF JUMP JUMPDEST SWAP5 SWAP4 POP POP POP POP JUMP JUMPDEST PUSH0 DUP2 ISZERO ISZERO SWAP1 POP SWAP2 SWAP1 POP JUMP JUMPDEST PUSH2 0x1115 DUP2 PUSH2 0x1101 JUMP JUMPDEST DUP2 EQ PUSH2 0x111F JUMPI PUSH0 DUP1 REVERT JUMPDEST POP JUMP JUMPDEST PUSH0 DUP2 MLOAD SWAP1 POP PUSH2 0x1130 DUP2 PUSH2 0x110C JUMP JUMPDEST SWAP3 SWAP2 POP POP JUMP JUMPDEST PUSH0 PUSH1 0x20 DUP3 DUP5 SUB SLT ISZERO PUSH2 0x114B JUMPI PUSH2 0x114A PUSH2 0x583 JUMP JUMPDEST JUMPDEST PUSH0 PUSH2 0x1158 DUP5 DUP3 DUP6 ADD PUSH2 0x1122 JUMP JUMPDEST SWAP2 POP POP SWAP3 SWAP2 POP POP JUMP JUMPDEST PUSH32 0x4E487B7100000000000000000000000000000000000000000000000000000000 PUSH0 MSTORE PUSH1 0x32 PUSH1 0x4 MSTORE PUSH1 0x24 PUSH0 REVERT JUMPDEST PUSH0 DUP3 DUP3 MSTORE PUSH1 0x20 DUP3 ADD SWAP1 POP SWAP3 SWAP2 POP POP JUMP JUMPDEST PUSH32 0x54686520636F696E20686173206265656E207370656E74000000000000000000 PUSH0 DUP3 ADD MSTORE POP JUMP JUMPDEST PUSH0 PUSH2 0x11D2 PUSH1 0x17 DUP4 PUSH2 0x118E JUMP JUMPDEST SWAP2 POP PUSH2 0x11DD DUP3 PUSH2 0x119E JUMP JUMPDEST PUSH1 0x20 DUP3 ADD SWAP1 POP SWAP2 SWAP1 POP JUMP JUMPDEST PUSH0 PUSH1 0x20 DUP3 ADD SWAP1 POP DUP2 DUP2 SUB PUSH0 DUP4 ADD MSTORE PUSH2 0x11FF DUP2 PUSH2 0x11C6 JUMP JUMPDEST SWAP1 POP SWAP2 SWAP1 POP JUMP JUMPDEST PUSH32 0x6E65656420746F206D696E74206120636F696E20776974682031206574686572 PUSH0 DUP3 ADD MSTORE POP JUMP JUMPDEST PUSH0 PUSH2 0x123A PUSH1 0x20 DUP4 PUSH2 0x118E JUMP JUMPDEST SWAP2 POP PUSH2 0x1245 DUP3 PUSH2 0x1206 JUMP JUMPDEST PUSH1 0x20 DUP3 ADD SWAP1 POP SWAP2 SWAP1 POP JUMP JUMPDEST PUSH0 PUSH1 0x20 DUP3 ADD SWAP1 POP DUP2 DUP2 SUB PUSH0 DUP4 ADD MSTORE PUSH2 0x1267 DUP2 PUSH2 0x122E JUMP JUMPDEST SWAP1 POP SWAP2 SWAP1 POP JUMP INVALID LOG2 PUSH5 0x6970667358 0x22 SLT KECCAK256 OR SWAP13 0xE7 0xBE 0x2C MUL 0xB6 0xEE CALLDATALOAD SWAP1 0xB8 PUSH2 0x4150 PUSH15 0x424D0F8EDCC8E317E8ED1400DE6645 DUP5 0xDD PUSH5 0x736F6C6343 STOP ADDMOD AND STOP CALLER PUSH1 0x80 PUSH1 0x40 MSTORE CALLVALUE DUP1 ISZERO PUSH3 0x10 JUMPI PUSH0 DUP1 REVERT JUMPDEST POP PUSH1 0x40 MLOAD PUSH3 0x21ED CODESIZE SUB DUP1 PUSH3 0x21ED DUP4 CODECOPY DUP2 DUP2 ADD PUSH1 0x40 MSTORE DUP2 ADD SWAP1 PUSH3 0x36 SWAP2 SWAP1 PUSH3 0x97 JUMP JUMPDEST DUP4 PUSH0 DUP2 SWAP1 SSTORE POP DUP3 PUSH1 0x1 DUP2 SWAP1 SSTORE POP DUP2 PUSH1 0x2 DUP2 SWAP1 SSTORE POP DUP1 PUSH1 0x3 DUP2 SWAP1 SSTORE POP POP POP POP POP PUSH3 0x106 JUMP JUMPDEST PUSH0 DUP1 REVERT JUMPDEST PUSH0 DUP2 SWAP1 POP SWAP2 SWAP1 POP JUMP JUMPDEST PUSH3 0x73 DUP2 PUSH3 0x5F JUMP JUMPDEST DUP2 EQ PUSH3 0x7E JUMPI PUSH0 DUP1 REVERT JUMPDEST POP JUMP JUMPDEST PUSH0 DUP2 MLOAD SWAP1 POP PUSH3 0x91 DUP2 PUSH3 0x68 JUMP JUMPDEST SWAP3 SWAP2 POP POP JUMP JUMPDEST PUSH0 DUP1 PUSH0 DUP1 PUSH1 0x80 DUP6 DUP8 SUB SLT ISZERO PUSH3 0xB2 JUMPI PUSH3 0xB1 PUSH3 0x5B JUMP JUMPDEST JUMPDEST PUSH0 PUSH3 0xC1 DUP8 DUP3 DUP9 ADD PUSH3 0x81 JUMP JUMPDEST SWAP5 POP POP PUSH1 0x20 PUSH3 0xD4 DUP8 DUP3 DUP9 ADD PUSH3 0x81 JUMP JUMPDEST SWAP4 POP POP PUSH1 0x40 PUSH3 0xE7 DUP8 DUP3 DUP9 ADD PUSH3 0x81 JUMP JUMPDEST SWAP3 POP POP PUSH1 0x60 PUSH3 0xFA DUP8 DUP3 DUP9 ADD PUSH3 0x81 JUMP JUMPDEST SWAP2 POP POP SWAP3 SWAP6 SWAP2 SWAP5 POP SWAP3 POP JUMP JUMPDEST PUSH2 0x20D9 DUP1 PUSH3 0x114 PUSH0 CODECOPY PUSH0 RETURN INVALID PUSH1 0x80 PUSH1 0x40 MSTORE CALLVALUE DUP1 ISZERO PUSH2 0xF JUMPI PUSH0 DUP1 REVERT JUMPDEST POP PUSH1 0x4 CALLDATASIZE LT PUSH2 0xE8 JUMPI PUSH0 CALLDATALOAD PUSH1 0xE0 SHR DUP1 PUSH4 0x7E58F901 GT PUSH2 0x8A JUMPI DUP1 PUSH4 0xA1991ACC GT PUSH2 0x64 JUMPI DUP1 PUSH4 0xA1991ACC EQ PUSH2 0x2B8 JUMPI DUP1 PUSH4 0xA6806D91 EQ PUSH2 0x2E8 JUMPI DUP1 PUSH4 0xAB225206 EQ PUSH2 0x318 JUMPI DUP1 PUSH4 0xB455CB4B EQ PUSH2 0x348 JUMPI PUSH2 0xE8 JUMP JUMPDEST DUP1 PUSH4 0x7E58F901 EQ PUSH2 0x228 JUMPI DUP1 PUSH4 0x99977969 EQ PUSH2 0x258 JUMPI DUP1 PUSH4 0x9CD479B6 EQ PUSH2 0x288 JUMPI PUSH2 0xE8 JUMP JUMPDEST DUP1 PUSH4 0x1BE57FBB GT PUSH2 0xC6 JUMPI DUP1 PUSH4 0x1BE57FBB EQ PUSH2 0x17C JUMPI DUP1 PUSH4 0x22943646 EQ PUSH2 0x198 JUMPI DUP1 PUSH4 0x22B32DFD EQ PUSH2 0x1C8 JUMPI DUP1 PUSH4 0x60C4B7F1 EQ PUSH2 0x1F8 JUMPI PUSH2 0xE8 JUMP JUMPDEST DUP1 PUSH4 0x9F175C1 EQ PUSH2 0xEC JUMPI DUP1 PUSH4 0x1351DF0B EQ PUSH2 0x11C JUMPI DUP1 PUSH4 0x15689674 EQ PUSH2 0x14C JUMPI JUMPDEST PUSH0 DUP1 REVERT JUMPDEST PUSH2 0x106 PUSH1 0x4 DUP1 CALLDATASIZE SUB DUP2 ADD SWAP1 PUSH2 0x101 SWAP2 SWAP1 PUSH2 0x127A JUMP JUMPDEST PUSH2 0x378 JUMP JUMPDEST PUSH1 0x40 MLOAD PUSH2 0x113 SWAP2 SWAP1 PUSH2 0x12BF JUMP JUMPDEST PUSH1 0x40 MLOAD DUP1 SWAP2 SUB SWAP1 RETURN JUMPDEST PUSH2 0x136 PUSH1 0x4 DUP1 CALLDATASIZE SUB DUP2 ADD SWAP1 PUSH2 0x131 SWAP2 SWAP1 PUSH2 0x12D8 JUMP JUMPDEST PUSH2 0x423 JUMP JUMPDEST PUSH1 0x40 MLOAD PUSH2 0x143 SWAP2 SWAP1 PUSH2 0x1325 JUMP JUMPDEST PUSH1 0x40 MLOAD DUP1 SWAP2 SUB SWAP1 RETURN JUMPDEST PUSH2 0x166 PUSH1 0x4 DUP1 CALLDATASIZE SUB DUP2 ADD SWAP1 PUSH2 0x161 SWAP2 SWAP1 PUSH2 0x1371 JUMP JUMPDEST PUSH2 0x46E JUMP JUMPDEST PUSH1 0x40 MLOAD PUSH2 0x173 SWAP2 SWAP1 PUSH2 0x1325 JUMP JUMPDEST PUSH1 0x40 MLOAD DUP1 SWAP2 SUB SWAP1 RETURN JUMPDEST PUSH2 0x196 PUSH1 0x4 DUP1 CALLDATASIZE SUB DUP2 ADD SWAP1 PUSH2 0x191 SWAP2 SWAP1 PUSH2 0x1438 JUMP JUMPDEST PUSH2 0x4BA JUMP JUMPDEST STOP JUMPDEST PUSH2 0x1B2 PUSH1 0x4 DUP1 CALLDATASIZE SUB DUP2 ADD SWAP1 PUSH2 0x1AD SWAP2 SWAP1 PUSH2 0x14AC JUMP JUMPDEST PUSH2 0x606 JUMP JUMPDEST PUSH1 0x40 MLOAD PUSH2 0x1BF SWAP2 SWAP1 PUSH2 0x14F9 JUMP JUMPDEST PUSH1 0x40 MLOAD DUP1 SWAP2 SUB SWAP1 RETURN JUMPDEST PUSH2 0x1E2 PUSH1 0x4 DUP1 CALLDATASIZE SUB DUP2 ADD SWAP1 PUSH2 0x1DD SWAP2 SWAP1 PUSH2 0x1968 JUMP JUMPDEST PUSH2 0x619 JUMP JUMPDEST PUSH1 0x40 MLOAD PUSH2 0x1EF SWAP2 SWAP1 PUSH2 0x12BF JUMP JUMPDEST PUSH1 0x40 MLOAD DUP1 SWAP2 SUB SWAP1 RETURN JUMPDEST PUSH2 0x212 PUSH1 0x4 DUP1 CALLDATASIZE SUB DUP2 ADD SWAP1 PUSH2 0x20D SWAP2 SWAP1 PUSH2 0x12D8 JUMP JUMPDEST PUSH2 0x80E JUMP JUMPDEST PUSH1 0x40 MLOAD PUSH2 0x21F SWAP2 SWAP1 PUSH2 0x1325 JUMP JUMPDEST PUSH1 0x40 MLOAD DUP1 SWAP2 SUB SWAP1 RETURN JUMPDEST PUSH2 0x242 PUSH1 0x4 DUP1 CALLDATASIZE SUB DUP2 ADD SWAP1 PUSH2 0x23D SWAP2 SWAP1 PUSH2 0x19F0 JUMP JUMPDEST PUSH2 0x85A JUMP JUMPDEST PUSH1 0x40 MLOAD PUSH2 0x24F SWAP2 SWAP1 PUSH2 0x1325 JUMP JUMPDEST PUSH1 0x40 MLOAD DUP1 SWAP2 SUB SWAP1 RETURN JUMPDEST PUSH2 0x272 PUSH1 0x4 DUP1 CALLDATASIZE SUB DUP2 ADD SWAP1 PUSH2 0x26D SWAP2 SWAP1 PUSH2 0x1A37 JUMP JUMPDEST PUSH2 0x92D JUMP JUMPDEST PUSH1 0x40 MLOAD PUSH2 0x27F SWAP2 SWAP1 PUSH2 0x12BF JUMP JUMPDEST PUSH1 0x40 MLOAD DUP1 SWAP2 SUB SWAP1 RETURN JUMPDEST PUSH2 0x2A2 PUSH1 0x4 DUP1 CALLDATASIZE SUB DUP2 ADD SWAP1 PUSH2 0x29D SWAP2 SWAP1 PUSH2 0x1AD3 JUMP JUMPDEST PUSH2 0x9C6 JUMP JUMPDEST PUSH1 0x40 MLOAD PUSH2 0x2AF SWAP2 SWAP1 PUSH2 0x1325 JUMP JUMPDEST PUSH1 0x40 MLOAD DUP1 SWAP2 SUB SWAP1 RETURN JUMPDEST PUSH2 0x2D2 PUSH1 0x4 DUP1 CALLDATASIZE SUB DUP2 ADD SWAP1 PUSH2 0x2CD SWAP2 SWAP1 PUSH2 0x1B1A JUMP JUMPDEST PUSH2 0xC0D JUMP JUMPDEST PUSH1 0x40 MLOAD PUSH2 0x2DF SWAP2 SWAP1 PUSH2 0x1325 JUMP JUMPDEST PUSH1 0x40 MLOAD DUP1 SWAP2 SUB SWAP1 RETURN JUMPDEST PUSH2 0x302 PUSH1 0x4 DUP1 CALLDATASIZE SUB DUP2 ADD SWAP1 PUSH2 0x2FD SWAP2 SWAP1 PUSH2 0x12D8 JUMP JUMPDEST PUSH2 0xC2D JUMP JUMPDEST PUSH1 0x40 MLOAD PUSH2 0x30F SWAP2 SWAP1 PUSH2 0x1325 JUMP JUMPDEST PUSH1 0x40 MLOAD DUP1 SWAP2 SUB SWAP1 RETURN JUMPDEST PUSH2 0x332 PUSH1 0x4 DUP1 CALLDATASIZE SUB DUP2 ADD SWAP1 PUSH2 0x32D SWAP2 SWAP1 PUSH2 0x12D8 JUMP JUMPDEST PUSH2 0xC4D JUMP JUMPDEST PUSH1 0x40 MLOAD PUSH2 0x33F SWAP2 SWAP1 PUSH2 0x1325 JUMP JUMPDEST PUSH1 0x40 MLOAD DUP1 SWAP2 SUB SWAP1 RETURN JUMPDEST PUSH2 0x362 PUSH1 0x4 DUP1 CALLDATASIZE SUB DUP2 ADD SWAP1 PUSH2 0x35D SWAP2 SWAP1 PUSH2 0x1B45 JUMP JUMPDEST PUSH2 0xC6A JUMP JUMPDEST PUSH1 0x40 MLOAD PUSH2 0x36F SWAP2 SWAP1 PUSH2 0x1325 JUMP JUMPDEST PUSH1 0x40 MLOAD DUP1 SWAP2 SUB SWAP1 RETURN JUMPDEST PUSH0 DUP1 DUP3 PUSH0 ADD MLOAD SWAP1 POP PUSH0 DUP4 PUSH1 0x20 ADD MLOAD SWAP1 POP PUSH0 DUP5 PUSH1 0x40 ADD MLOAD SWAP1 POP PUSH0 DUP6 PUSH1 0x60 ADD MLOAD SWAP1 POP PUSH0 DUP7 PUSH1 0x80 ADD MLOAD SWAP1 POP PUSH0 PUSH1 0x2 SLOAD DUP1 PUSH2 0x3B2 JUMPI PUSH2 0x3B1 PUSH2 0x1B83 JUMP JUMPDEST JUMPDEST PUSH2 0x3CB DUP4 PUSH1 0x2 SLOAD PUSH1 0x1 SLOAD PUSH2 0xC8A SWAP1 SWAP3 SWAP2 SWAP1 PUSH4 0xFFFFFFFF AND JUMP JUMPDEST PUSH2 0x3E3 DUP6 PUSH1 0x2 SLOAD PUSH0 SLOAD PUSH2 0xC8A SWAP1 SWAP3 SWAP2 SWAP1 PUSH4 0xFFFFFFFF AND JUMP JUMPDEST MULMOD SWAP1 POP PUSH0 PUSH2 0x3FA DUP7 PUSH2 0x3F5 DUP10 DUP9 PUSH2 0xC2D JUMP JUMPDEST PUSH2 0xC4D JUMP JUMPDEST SWAP1 POP DUP1 DUP3 SUB PUSH2 0x413 JUMPI PUSH1 0x1 SWAP8 POP POP POP POP POP POP POP POP PUSH2 0x41E JUMP JUMPDEST PUSH0 SWAP8 POP POP POP POP POP POP POP POP JUMPDEST SWAP2 SWAP1 POP JUMP JUMPDEST PUSH0 DUP1 PUSH32 0xFFFFFFFFFFFFFFFFFFFFFFFFFFFFFFFFFFFFFFFFFFFFFFFFFFFFFFFFFFFFFFFF SWAP1 POP PUSH1 0x2 SLOAD DUP1 PUSH2 0x459 JUMPI PUSH2 0x458 PUSH2 0x1B83 JUMP JUMPDEST JUMPDEST PUSH2 0x463 DUP5 DUP4 PUSH2 0xC6A JUMP JUMPDEST DUP6 MULMOD SWAP2 POP POP SWAP3 SWAP2 POP POP JUMP JUMPDEST PUSH0 PUSH1 0x2 SLOAD DUP1 PUSH2 0x480 JUMPI PUSH2 0x47F PUSH2 0x1B83 JUMP JUMPDEST JUMPDEST PUSH2 0x499 DUP4 PUSH1 0x2 SLOAD PUSH1 0x1 SLOAD PUSH2 0xD9A SWAP1 SWAP3 SWAP2 SWAP1 PUSH4 0xFFFFFFFF AND JUMP JUMPDEST PUSH2 0x4B1 DUP6 PUSH1 0x2 SLOAD PUSH0 SLOAD PUSH2 0xD9A SWAP1 SWAP3 SWAP2 SWAP1 PUSH4 0xFFFFFFFF AND JUMP JUMPDEST MULMOD SWAP1 POP SWAP3 SWAP2 POP POP JUMP JUMPDEST PUSH0 DUP2 PUSH0 ADD MLOAD SWAP1 POP PUSH0 DUP3 PUSH1 0x20 ADD MLOAD SWAP1 POP PUSH0 DUP4 PUSH1 0x40 ADD MLOAD SWAP1 POP PUSH0 DUP5 PUSH1 0x60 ADD MLOAD SWAP1 POP PUSH0 DUP6 PUSH1 0x80 ADD MLOAD SWAP1 POP PUSH0 DUP8 DUP7 DUP7 PUSH1 0x40 MLOAD PUSH1 0x20 ADD PUSH2 0x4F7 SWAP4 SWAP3 SWAP2 SWAP1 PUSH2 0x1BD0 JUMP JUMPDEST PUSH1 0x40 MLOAD PUSH1 0x20 DUP2 DUP4 SUB SUB DUP2 MSTORE SWAP1 PUSH1 0x40 MSTORE DUP1 MLOAD SWAP1 PUSH1 0x20 ADD KECCAK256 PUSH0 SHR PUSH20 0x0 PUSH4 0xF43F523A SWAP1 SWAP2 PUSH1 0x3 SLOAD PUSH1 0x40 MLOAD DUP4 PUSH4 0xFFFFFFFF AND PUSH1 0xE0 SHL DUP2 MSTORE PUSH1 0x4 ADD PUSH2 0x54B SWAP3 SWAP2 SWAP1 PUSH2 0x1C1B JUMP JUMPDEST PUSH1 0x20 PUSH1 0x40 MLOAD DUP1 DUP4 SUB DUP2 DUP7 GAS DELEGATECALL ISZERO DUP1 ISZERO PUSH2 0x566 JUMPI RETURNDATASIZE PUSH0 DUP1 RETURNDATACOPY RETURNDATASIZE PUSH0 REVERT JUMPDEST POP POP POP POP PUSH1 0x40 MLOAD RETURNDATASIZE PUSH1 0x1F NOT PUSH1 0x1F DUP3 ADD AND DUP3 ADD DUP1 PUSH1 0x40 MSTORE POP DUP2 ADD SWAP1 PUSH2 0x58A SWAP2 SWAP1 PUSH2 0x1C56 JUMP JUMPDEST SWAP1 POP PUSH0 PUSH2 0x597 DUP6 DUP6 PUSH2 0x46E JUMP JUMPDEST SWAP1 POP PUSH0 PUSH2 0x5AD PUSH2 0x5A7 DUP12 DUP6 PUSH2 0xC2D JUMP JUMPDEST DUP10 PUSH2 0xC4D JUMP JUMPDEST SWAP1 POP PUSH0 PUSH2 0x5BA PUSH0 DUP7 PUSH2 0x46E JUMP JUMPDEST SWAP1 POP PUSH0 PUSH2 0x5DB PUSH2 0x5D5 DUP14 DUP11 DUP9 PUSH2 0x5D0 SWAP2 SWAP1 PUSH2 0x1CAE JUMP JUMPDEST PUSH2 0xC6A JUMP JUMPDEST DUP11 PUSH2 0xC4D JUMP JUMPDEST SWAP1 POP DUP3 DUP5 EQ DUP1 ISZERO PUSH2 0x5EB JUMPI POP DUP1 DUP3 EQ JUMPDEST PUSH2 0x5F8 JUMPI PUSH2 0x5F7 PUSH2 0x1CEE JUMP JUMPDEST JUMPDEST POP POP POP POP POP POP POP POP POP POP POP POP JUMP JUMPDEST PUSH0 PUSH1 0x1 DUP3 PUSH1 0xFF AND DUP5 SWAP1 SHR AND SWAP1 POP SWAP3 SWAP2 POP POP JUMP JUMPDEST PUSH0 DUP1 DUP5 PUSH0 ADD MLOAD SWAP1 POP PUSH0 DUP6 PUSH1 0x40 ADD MLOAD SWAP1 POP PUSH0 DUP7 PUSH1 0xA0 ADD MLOAD SWAP1 POP PUSH0 DUP7 PUSH0 ADD MLOAD SWAP1 POP PUSH0 DUP8 PUSH1 0x60 ADD MLOAD SWAP1 POP PUSH2 0x64E DUP5 DUP11 PUSH1 0x20 ADD MLOAD PUSH2 0xDDA JUMP JUMPDEST PUSH0 PUSH2 0x658 DUP11 PUSH2 0x9C6 JUMP JUMPDEST SWAP1 POP PUSH0 DUP2 SWAP1 POP PUSH2 0x674 DUP7 DUP13 PUSH1 0x60 ADD MLOAD DUP7 DUP14 PUSH1 0x20 ADD MLOAD DUP6 DUP15 PUSH2 0xE35 JUMP JUMPDEST PUSH2 0x68A DUP7 DUP13 PUSH1 0x80 ADD MLOAD DUP7 DUP14 PUSH1 0x40 ADD MLOAD DUP6 DUP15 PUSH2 0xEFA JUMP JUMPDEST PUSH0 PUSH1 0x1 SWAP1 POP PUSH0 JUMPDEST DUP9 MLOAD DUP2 LT ISZERO PUSH2 0x775 JUMPI PUSH0 PUSH1 0x1 SWAP1 POP PUSH0 JUMPDEST DUP13 PUSH1 0xFF AND DUP2 PUSH1 0xFF AND LT ISZERO PUSH2 0x737 JUMPI PUSH1 0x1 PUSH2 0x6BB DUP5 DUP4 PUSH2 0x606 JUMP JUMPDEST PUSH1 0xFF AND SUB PUSH2 0x6F3 JUMPI DUP8 DUP2 PUSH1 0xFF AND DUP2 MLOAD DUP2 LT PUSH2 0x6D9 JUMPI PUSH2 0x6D8 PUSH2 0x1D1B JUMP JUMPDEST JUMPDEST PUSH1 0x20 MUL PUSH1 0x20 ADD ADD MLOAD DUP3 PUSH2 0x6EC SWAP2 SWAP1 PUSH2 0x1D48 JUMP JUMPDEST SWAP2 POP PUSH2 0x72A JUMP JUMPDEST DUP8 DUP2 PUSH1 0xFF AND DUP2 MLOAD DUP2 LT PUSH2 0x709 JUMPI PUSH2 0x708 PUSH2 0x1D1B JUMP JUMPDEST JUMPDEST PUSH1 0x20 MUL PUSH1 0x20 ADD ADD MLOAD DUP6 PUSH2 0x71C SWAP2 SWAP1 PUSH2 0x1CAE JUMP JUMPDEST DUP3 PUSH2 0x727 SWAP2 SWAP1 PUSH2 0x1D48 JUMP JUMPDEST SWAP2 POP JUMPDEST DUP1 DUP1 PUSH1 0x1 ADD SWAP2 POP POP PUSH2 0x6A1 JUMP JUMPDEST POP PUSH2 0x765 DUP4 PUSH2 0x760 DUP13 DUP6 DUP2 MLOAD DUP2 LT PUSH2 0x752 JUMPI PUSH2 0x751 PUSH2 0x1D1B JUMP JUMPDEST JUMPDEST PUSH1 0x20 MUL PUSH1 0x20 ADD ADD MLOAD DUP5 PUSH2 0xC6A JUMP JUMPDEST PUSH2 0xC4D JUMP JUMPDEST SWAP3 POP POP DUP1 DUP1 PUSH1 0x1 ADD SWAP2 POP POP PUSH2 0x691 JUMP JUMPDEST POP PUSH0 JUMPDEST DUP11 PUSH1 0xFF AND DUP2 LT ISZERO PUSH2 0x7D3 JUMPI PUSH2 0x7C4 DUP3 PUSH2 0x7BF DUP10 DUP5 DUP2 MLOAD DUP2 LT PUSH2 0x79D JUMPI PUSH2 0x79C PUSH2 0x1D1B JUMP JUMPDEST JUMPDEST PUSH1 0x20 MUL PUSH1 0x20 ADD ADD MLOAD DUP5 DUP8 PUSH2 0x7B1 SWAP2 SWAP1 PUSH2 0x1F04 JUMP JUMPDEST PUSH2 0x7BA SWAP1 PUSH2 0x1F6F JUMP JUMPDEST PUSH2 0xC6A JUMP JUMPDEST PUSH2 0xC4D JUMP JUMPDEST SWAP2 POP DUP1 DUP1 PUSH1 0x1 ADD SWAP2 POP POP PUSH2 0x778 JUMP JUMPDEST POP PUSH0 PUSH2 0x7DF PUSH0 DUP7 PUSH2 0x46E JUMP JUMPDEST SWAP1 POP DUP1 DUP3 SUB PUSH2 0x7FA JUMPI PUSH1 0x1 SWAP10 POP POP POP POP POP POP POP POP POP POP PUSH2 0x807 JUMP JUMPDEST PUSH0 SWAP10 POP POP POP POP POP POP POP POP POP POP JUMPDEST SWAP4 SWAP3 POP POP POP JUMP JUMPDEST PUSH0 PUSH1 0x2 SLOAD DUP1 PUSH2 0x820 JUMPI PUSH2 0x81F PUSH2 0x1B83 JUMP JUMPDEST JUMPDEST PUSH2 0x839 DUP4 PUSH1 0x2 SLOAD PUSH1 0x1 SLOAD PUSH2 0xC8A SWAP1 SWAP3 SWAP2 SWAP1 PUSH4 0xFFFFFFFF AND JUMP JUMPDEST PUSH2 0x851 DUP6 PUSH1 0x2 SLOAD PUSH0 SLOAD PUSH2 0xC8A SWAP1 SWAP3 SWAP2 SWAP1 PUSH4 0xFFFFFFFF AND JUMP JUMPDEST MULMOD SWAP1 POP SWAP3 SWAP2 POP POP JUMP JUMPDEST PUSH0 DUP1 PUSH1 0x1 SWAP1 POP PUSH0 JUMPDEST DUP4 MLOAD DUP2 LT ISZERO PUSH2 0x8A8 JUMPI PUSH1 0x2 SLOAD DUP1 PUSH2 0x87C JUMPI PUSH2 0x87B PUSH2 0x1B83 JUMP JUMPDEST JUMPDEST DUP5 DUP3 DUP2 MLOAD DUP2 LT PUSH2 0x88F JUMPI PUSH2 0x88E PUSH2 0x1D1B JUMP JUMPDEST JUMPDEST PUSH1 0x20 MUL PUSH1 0x20 ADD ADD MLOAD DUP4 MULMOD SWAP2 POP DUP1 DUP1 PUSH1 0x1 ADD SWAP2 POP POP PUSH2 0x862 JUMP JUMPDEST POP DUP1 PUSH20 0x0 PUSH4 0xF43F523A SWAP1 SWAP2 PUSH1 0x2 SLOAD PUSH1 0x40 MLOAD DUP4 PUSH4 0xFFFFFFFF AND PUSH1 0xE0 SHL DUP2 MSTORE PUSH1 0x4 ADD PUSH2 0x8E6 SWAP3 SWAP2 SWAP1 PUSH2 0x1C1B JUMP JUMPDEST PUSH1 0x20 PUSH1 0x40 MLOAD DUP1 DUP4 SUB DUP2 DUP7 GAS DELEGATECALL ISZERO DUP1 ISZERO PUSH2 0x901 JUMPI RETURNDATASIZE PUSH0 DUP1 RETURNDATACOPY RETURNDATASIZE PUSH0 REVERT JUMPDEST POP POP POP POP PUSH1 0x40 MLOAD RETURNDATASIZE PUSH1 0x1F NOT PUSH1 0x1F DUP3 ADD AND DUP3 ADD DUP1 PUSH1 0x40 MSTORE POP DUP2 ADD SWAP1 PUSH2 0x925 SWAP2 SWAP1 PUSH2 0x1C56 JUMP JUMPDEST SWAP2 POP POP SWAP2 SWAP1 POP JUMP JUMPDEST PUSH0 DUP1 DUP5 PUSH0 ADD MLOAD SWAP1 POP PUSH0 JUMPDEST DUP2 MLOAD DUP2 LT ISZERO PUSH2 0x9AF JUMPI PUSH2 0x983 DUP3 DUP3 DUP2 MLOAD DUP2 LT PUSH2 0x956 JUMPI PUSH2 0x955 PUSH2 0x1D1B JUMP JUMPDEST JUMPDEST PUSH1 0x20 MUL PUSH1 0x20 ADD ADD MLOAD PUSH2 0x97E PUSH2 0x96A DUP11 PUSH2 0xFCA JUMP JUMPDEST PUSH1 0x2 SLOAD PUSH0 SLOAD PUSH2 0xD9A SWAP1 SWAP3 SWAP2 SWAP1 PUSH4 0xFFFFFFFF AND JUMP JUMPDEST PUSH2 0xC4D JUMP JUMPDEST DUP3 DUP3 DUP2 MLOAD DUP2 LT PUSH2 0x996 JUMPI PUSH2 0x995 PUSH2 0x1D1B JUMP JUMPDEST JUMPDEST PUSH1 0x20 MUL PUSH1 0x20 ADD ADD DUP2 DUP2 MSTORE POP POP DUP1 DUP1 PUSH1 0x1 ADD SWAP2 POP POP PUSH2 0x937 JUMP JUMPDEST POP PUSH2 0x9BB DUP6 DUP6 DUP6 PUSH2 0x619 JUMP JUMPDEST SWAP2 POP POP SWAP5 SWAP4 POP POP POP POP JUMP JUMPDEST PUSH0 DUP1 DUP3 PUSH0 ADD MLOAD SWAP1 POP PUSH0 DUP4 PUSH1 0x40 ADD MLOAD SWAP1 POP PUSH0 DUP5 PUSH1 0x60 ADD MLOAD SWAP1 POP PUSH0 DUP6 PUSH1 0x80 ADD MLOAD SWAP1 POP PUSH0 DUP7 PUSH1 0xA0 ADD MLOAD SWAP1 POP PUSH0 DUP1 JUMPDEST DUP7 MLOAD DUP2 LT ISZERO PUSH2 0xA37 JUMPI PUSH1 0x2 SLOAD DUP1 PUSH2 0xA0B JUMPI PUSH2 0xA0A PUSH2 0x1B83 JUMP JUMPDEST JUMPDEST DUP8 DUP3 DUP2 MLOAD DUP2 LT PUSH2 0xA1E JUMPI PUSH2 0xA1D PUSH2 0x1D1B JUMP JUMPDEST JUMPDEST PUSH1 0x20 MUL PUSH1 0x20 ADD ADD MLOAD DUP4 ADDMOD SWAP2 POP DUP1 DUP1 PUSH1 0x1 ADD SWAP2 POP POP PUSH2 0x9F1 JUMP JUMPDEST POP PUSH0 JUMPDEST DUP6 MLOAD DUP2 LT ISZERO PUSH2 0xA80 JUMPI PUSH1 0x2 SLOAD DUP1 PUSH2 0xA54 JUMPI PUSH2 0xA53 PUSH2 0x1B83 JUMP JUMPDEST JUMPDEST DUP7 DUP3 DUP2 MLOAD DUP2 LT PUSH2 0xA67 JUMPI PUSH2 0xA66 PUSH2 0x1D1B JUMP JUMPDEST JUMPDEST PUSH1 0x20 MUL PUSH1 0x20 ADD ADD MLOAD DUP4 ADDMOD SWAP2 POP DUP1 DUP1 PUSH1 0x1 ADD SWAP2 POP POP PUSH2 0xA3A JUMP JUMPDEST POP PUSH0 JUMPDEST DUP5 MLOAD DUP2 LT ISZERO PUSH2 0xAC9 JUMPI PUSH1 0x2 SLOAD DUP1 PUSH2 0xA9D JUMPI PUSH2 0xA9C PUSH2 0x1B83 JUMP JUMPDEST JUMPDEST DUP6 DUP3 DUP2 MLOAD DUP2 LT PUSH2 0xAB0 JUMPI PUSH2 0xAAF PUSH2 0x1D1B JUMP JUMPDEST JUMPDEST PUSH1 0x20 MUL PUSH1 0x20 ADD ADD MLOAD DUP4 ADDMOD SWAP2 POP DUP1 DUP1 PUSH1 0x1 ADD SWAP2 POP POP PUSH2 0xA83 JUMP JUMPDEST POP PUSH0 JUMPDEST DUP4 MLOAD DUP2 LT ISZERO PUSH2 0xB12 JUMPI PUSH1 0x2 SLOAD DUP1 PUSH2 0xAE6 JUMPI PUSH2 0xAE5 PUSH2 0x1B83 JUMP JUMPDEST JUMPDEST DUP5 DUP3 DUP2 MLOAD DUP2 LT PUSH2 0xAF9 JUMPI PUSH2 0xAF8 PUSH2 0x1D1B JUMP JUMPDEST JUMPDEST PUSH1 0x20 MUL PUSH1 0x20 ADD ADD MLOAD DUP4 ADDMOD SWAP2 POP DUP1 DUP1 PUSH1 0x1 ADD SWAP2 POP POP PUSH2 0xACC JUMP JUMPDEST POP PUSH0 JUMPDEST DUP3 MLOAD DUP2 LT ISZERO PUSH2 0xB5B JUMPI PUSH1 0x2 SLOAD DUP1 PUSH2 0xB2F JUMPI PUSH2 0xB2E PUSH2 0x1B83 JUMP JUMPDEST JUMPDEST DUP4 DUP3 DUP2 MLOAD DUP2 LT PUSH2 0xB42 JUMPI PUSH2 0xB41 PUSH2 0x1D1B JUMP JUMPDEST JUMPDEST PUSH1 0x20 MUL PUSH1 0x20 ADD ADD MLOAD DUP4 ADDMOD SWAP2 POP DUP1 DUP1 PUSH1 0x1 ADD SWAP2 POP POP PUSH2 0xB15 JUMP JUMPDEST POP DUP1 PUSH1 0x40 MLOAD PUSH1 0x20 ADD PUSH2 0xB6D SWAP2 SWAP1 PUSH2 0x1FB5 JUMP JUMPDEST PUSH1 0x40 MLOAD PUSH1 0x20 DUP2 DUP4 SUB SUB DUP2 MSTORE SWAP1 PUSH1 0x40 MSTORE DUP1 MLOAD SWAP1 PUSH1 0x20 ADD KECCAK256 PUSH0 SHR PUSH20 0x0 PUSH4 0xF43F523A SWAP1 SWAP2 PUSH1 0x3 SLOAD PUSH1 0x40 MLOAD DUP4 PUSH4 0xFFFFFFFF AND PUSH1 0xE0 SHL DUP2 MSTORE PUSH1 0x4 ADD PUSH2 0xBC1 SWAP3 SWAP2 SWAP1 PUSH2 0x1C1B JUMP JUMPDEST PUSH1 0x20 PUSH1 0x40 MLOAD DUP1 DUP4 SUB DUP2 DUP7 GAS DELEGATECALL ISZERO DUP1 ISZERO PUSH2 0xBDC JUMPI RETURNDATASIZE PUSH0 DUP1 RETURNDATACOPY RETURNDATASIZE PUSH0 REVERT JUMPDEST POP POP POP POP PUSH1 0x40 MLOAD RETURNDATASIZE PUSH1 0x1F NOT PUSH1 0x1F DUP3 ADD AND DUP3 ADD DUP1 PUSH1 0x40 MSTORE POP DUP2 ADD SWAP1 PUSH2 0xC00 SWAP2 SWAP1 PUSH2 0x1C56 JUMP JUMPDEST SWAP7 POP POP POP POP POP POP POP SWAP2 SWAP1 POP JUMP JUMPDEST PUSH0 PUSH2 0xC26 DUP3 PUSH1 0x2 SLOAD PUSH0 SLOAD PUSH2 0xC8A SWAP1 SWAP3 SWAP2 SWAP1 PUSH4 0xFFFFFFFF AND JUMP JUMPDEST SWAP1 POP SWAP2 SWAP1 POP JUMP JUMPDEST PUSH0 PUSH2 0xC45 DUP3 PUSH1 0x2 SLOAD DUP6 PUSH2 0xC8A SWAP1 SWAP3 SWAP2 SWAP1 PUSH4 0xFFFFFFFF AND JUMP JUMPDEST SWAP1 POP SWAP3 SWAP2 POP POP JUMP JUMPDEST PUSH0 PUSH1 0x2 SLOAD DUP1 PUSH2 0xC5F JUMPI PUSH2 0xC5E PUSH2 0x1B83 JUMP JUMPDEST JUMPDEST DUP3 DUP5 MULMOD SWAP1 POP SWAP3 SWAP2 POP POP JUMP JUMPDEST PUSH0 PUSH2 0xC82 DUP3 PUSH1 0x2 SLOAD DUP6 PUSH2 0xD9A SWAP1 SWAP3 SWAP2 SWAP1 PUSH4 0xFFFFFFFF AND JUMP JUMPDEST SWAP1 POP SWAP3 SWAP2 POP POP JUMP JUMPDEST PUSH0 DUP1 PUSH2 0xC94 PUSH2 0x10D9 JUMP JUMPDEST PUSH2 0xC9C PUSH2 0x10FB JUMP JUMPDEST PUSH1 0x20 DUP2 PUSH0 PUSH1 0x6 DUP2 LT PUSH2 0xCB1 JUMPI PUSH2 0xCB0 PUSH2 0x1D1B JUMP JUMPDEST JUMPDEST PUSH1 0x20 MUL ADD DUP2 DUP2 MSTORE POP POP PUSH1 0x20 DUP2 PUSH1 0x1 PUSH1 0x6 DUP2 LT PUSH2 0xCD0 JUMPI PUSH2 0xCCF PUSH2 0x1D1B JUMP JUMPDEST JUMPDEST PUSH1 0x20 MUL ADD DUP2 DUP2 MSTORE POP POP PUSH1 0x20 DUP2 PUSH1 0x2 PUSH1 0x6 DUP2 LT PUSH2 0xCEF JUMPI PUSH2 0xCEE PUSH2 0x1D1B JUMP JUMPDEST JUMPDEST PUSH1 0x20 MUL ADD DUP2 DUP2 MSTORE POP POP DUP7 DUP2 PUSH1 0x3 PUSH1 0x6 DUP2 LT PUSH2 0xD0D JUMPI PUSH2 0xD0C PUSH2 0x1D1B JUMP JUMPDEST JUMPDEST PUSH1 0x20 MUL ADD DUP2 DUP2 MSTORE POP POP DUP6 DUP2 PUSH1 0x4 PUSH1 0x6 DUP2 LT PUSH2 0xD2B JUMPI PUSH2 0xD2A PUSH2 0x1D1B JUMP JUMPDEST JUMPDEST PUSH1 0x20 MUL ADD DUP2 DUP2 MSTORE POP POP DUP5 DUP2 PUSH1 0x5 PUSH1 0x6 DUP2 LT PUSH2 0xD49 JUMPI PUSH2 0xD48 PUSH2 0x1D1B JUMP JUMPDEST JUMPDEST PUSH1 0x20 MUL ADD DUP2 DUP2 MSTORE POP POP PUSH1 0x20 DUP3 PUSH1 0xC0 DUP4 PUSH1 0x5 PUSH2 0x7D0 GAS SUB STATICCALL SWAP3 POP DUP3 PUSH0 DUP2 SUB PUSH2 0xD6C JUMPI INVALID JUMPDEST POP DUP3 PUSH2 0xD76 JUMPI PUSH0 DUP1 REVERT JUMPDEST DUP2 PUSH0 PUSH1 0x1 DUP2 LT PUSH2 0xD89 JUMPI PUSH2 0xD88 PUSH2 0x1D1B JUMP JUMPDEST JUMPDEST PUSH1 0x20 MUL ADD MLOAD SWAP4 POP POP POP POP SWAP4 SWAP3 POP POP POP JUMP JUMPDEST PUSH0 DUP1 DUP4 SLT PUSH2 0xDB4 JUMPI PUSH2 0xDAD DUP5 DUP5 DUP5 PUSH2 0xC8A JUMP JUMPDEST SWAP1 POP PUSH2 0xDD3 JUMP JUMPDEST PUSH2 0xDD0 PUSH2 0xDC1 DUP6 DUP5 PUSH2 0xFDB JUMP JUMPDEST PUSH2 0xDCA DUP6 PUSH2 0x1094 JUMP JUMPDEST DUP5 PUSH2 0xC8A JUMP JUMPDEST SWAP1 POP JUMPDEST SWAP4 SWAP3 POP POP POP JUMP JUMPDEST PUSH0 JUMPDEST DUP3 MLOAD DUP2 LT ISZERO PUSH2 0xE30 JUMPI PUSH2 0xE23 DUP4 DUP3 DUP2 MLOAD DUP2 LT PUSH2 0xDFB JUMPI PUSH2 0xDFA PUSH2 0x1D1B JUMP JUMPDEST JUMPDEST PUSH1 0x20 MUL PUSH1 0x20 ADD ADD MLOAD DUP4 DUP4 DUP2 MLOAD DUP2 LT PUSH2 0xE16 JUMPI PUSH2 0xE15 PUSH2 0x1D1B JUMP JUMPDEST JUMPDEST PUSH1 0x20 MUL PUSH1 0x20 ADD ADD MLOAD PUSH2 0x4BA JUMP JUMPDEST DUP1 DUP1 PUSH1 0x1 ADD SWAP2 POP POP PUSH2 0xDDC JUMP JUMPDEST POP POP POP JUMP JUMPDEST PUSH0 JUMPDEST DUP2 PUSH1 0xFF AND DUP2 LT ISZERO PUSH2 0xEF1 JUMPI PUSH0 DUP6 DUP3 DUP2 MLOAD DUP2 LT PUSH2 0xE56 JUMPI PUSH2 0xE55 PUSH2 0x1D1B JUMP JUMPDEST JUMPDEST PUSH1 0x20 MUL PUSH1 0x20 ADD ADD MLOAD SWAP1 POP PUSH0 PUSH2 0xEA8 PUSH2 0xE88 DUP11 DUP6 DUP2 MLOAD DUP2 LT PUSH2 0xE7A JUMPI PUSH2 0xE79 PUSH2 0x1D1B JUMP JUMPDEST JUMPDEST PUSH1 0x20 MUL PUSH1 0x20 ADD ADD MLOAD DUP8 PUSH2 0xC6A JUMP JUMPDEST DUP10 DUP6 DUP2 MLOAD DUP2 LT PUSH2 0xE9B JUMPI PUSH2 0xE9A PUSH2 0x1D1B JUMP JUMPDEST JUMPDEST PUSH1 0x20 MUL PUSH1 0x20 ADD ADD MLOAD PUSH2 0xC4D JUMP JUMPDEST SWAP1 POP PUSH0 PUSH2 0xECF DUP4 DUP9 DUP7 DUP2 MLOAD DUP2 LT PUSH2 0xEC2 JUMPI PUSH2 0xEC1 PUSH2 0x1D1B JUMP JUMPDEST JUMPDEST PUSH1 0x20 MUL PUSH1 0x20 ADD ADD MLOAD PUSH2 0x46E JUMP JUMPDEST SWAP1 POP DUP1 DUP3 EQ PUSH2 0xEE1 JUMPI PUSH2 0xEE0 PUSH2 0x1CEE JUMP JUMPDEST JUMPDEST POP POP POP DUP1 DUP1 PUSH1 0x1 ADD SWAP2 POP POP PUSH2 0xE37 JUMP JUMPDEST POP POP POP POP POP POP POP JUMP JUMPDEST PUSH0 JUMPDEST DUP2 PUSH1 0xFF AND DUP2 LT ISZERO PUSH2 0xFC1 JUMPI PUSH0 DUP6 DUP3 DUP2 MLOAD DUP2 LT PUSH2 0xF1B JUMPI PUSH2 0xF1A PUSH2 0x1D1B JUMP JUMPDEST JUMPDEST PUSH1 0x20 MUL PUSH1 0x20 ADD ADD MLOAD SWAP1 POP PUSH0 PUSH2 0xF78 PUSH2 0xF58 DUP11 DUP6 DUP2 MLOAD DUP2 LT PUSH2 0xF3F JUMPI PUSH2 0xF3E PUSH2 0x1D1B JUMP JUMPDEST JUMPDEST PUSH1 0x20 MUL PUSH1 0x20 ADD ADD MLOAD DUP5 DUP9 PUSH2 0xF53 SWAP2 SWAP1 PUSH2 0x1CAE JUMP JUMPDEST PUSH2 0xC6A JUMP JUMPDEST DUP10 DUP6 DUP2 MLOAD DUP2 LT PUSH2 0xF6B JUMPI PUSH2 0xF6A PUSH2 0x1D1B JUMP JUMPDEST JUMPDEST PUSH1 0x20 MUL PUSH1 0x20 ADD ADD MLOAD PUSH2 0xC4D JUMP JUMPDEST SWAP1 POP PUSH0 PUSH2 0xF9F PUSH0 DUP9 DUP7 DUP2 MLOAD DUP2 LT PUSH2 0xF92 JUMPI PUSH2 0xF91 PUSH2 0x1D1B JUMP JUMPDEST JUMPDEST PUSH1 0x20 MUL PUSH1 0x20 ADD ADD MLOAD PUSH2 0x46E JUMP JUMPDEST SWAP1 POP DUP1 DUP3 EQ PUSH2 0xFB1 JUMPI PUSH2 0xFB0 PUSH2 0x1CEE JUMP JUMPDEST JUMPDEST POP POP POP DUP1 DUP1 PUSH1 0x1 ADD SWAP2 POP POP PUSH2 0xEFC JUMP JUMPDEST POP POP POP POP POP POP POP JUMP JUMPDEST PUSH0 PUSH2 0xFD4 DUP3 PUSH2 0x10C7 JUMP JUMPDEST SWAP1 POP SWAP2 SWAP1 POP JUMP JUMPDEST PUSH0 DUP2 DUP4 GT ISZERO PUSH2 0xFF3 JUMPI DUP2 DUP4 PUSH2 0xFF0 SWAP2 SWAP1 PUSH2 0x1FCF JUMP JUMPDEST SWAP3 POP JUMPDEST PUSH0 DUP1 PUSH1 0x1 SWAP1 POP PUSH0 DUP5 SWAP1 POP PUSH0 DUP7 SWAP1 POP PUSH0 JUMPDEST PUSH0 DUP3 EQ PUSH2 0x105D JUMPI DUP2 DUP4 PUSH2 0x1016 SWAP2 SWAP1 PUSH2 0x1FFF JUMP JUMPDEST SWAP1 POP DUP4 DUP5 DUP3 PUSH2 0x1025 SWAP2 SWAP1 PUSH2 0x1D48 JUMP JUMPDEST DUP7 PUSH2 0x1030 SWAP2 SWAP1 PUSH2 0x1CAE JUMP JUMPDEST DUP4 DUP5 DUP5 PUSH2 0x103D SWAP2 SWAP1 PUSH2 0x202F JUMP JUMPDEST DUP7 PUSH2 0x1048 SWAP2 SWAP1 PUSH2 0x2070 JUMP JUMPDEST DUP1 SWAP6 POP DUP2 SWAP7 POP DUP3 SWAP8 POP DUP4 SWAP9 POP POP POP POP POP PUSH2 0x1003 JUMP JUMPDEST PUSH0 DUP6 SLT ISZERO PUSH2 0x1085 JUMPI PUSH2 0x106E DUP6 PUSH2 0x1094 JUMP JUMPDEST DUP8 PUSH2 0x1079 SWAP2 SWAP1 PUSH2 0x2070 JUMP JUMPDEST SWAP6 POP POP POP POP POP POP PUSH2 0x108E JUMP JUMPDEST DUP5 SWAP6 POP POP POP POP POP POP JUMPDEST SWAP3 SWAP2 POP POP JUMP JUMPDEST PUSH0 DUP1 DUP3 SGT ISZERO PUSH2 0x10A5 JUMPI DUP2 SWAP1 POP PUSH2 0x10C2 JUMP JUMPDEST PUSH0 DUP3 SLT ISZERO PUSH2 0x10BE JUMPI DUP2 PUSH2 0x10B7 SWAP1 PUSH2 0x1F6F JUMP JUMPDEST SWAP1 POP PUSH2 0x10C2 JUMP JUMPDEST PUSH0 SWAP1 POP JUMPDEST SWAP2 SWAP1 POP JUMP JUMPDEST PUSH0 DUP2 PUSH2 0x10D2 SWAP1 PUSH2 0x1F6F JUMP JUMPDEST SWAP1 POP SWAP2 SWAP1 POP JUMP JUMPDEST PUSH1 0x40 MLOAD DUP1 PUSH1 0x20 ADD PUSH1 0x40 MSTORE DUP1 PUSH1 0x1 SWAP1 PUSH1 0x20 DUP3 MUL DUP1 CALLDATASIZE DUP4 CALLDATACOPY DUP1 DUP3 ADD SWAP2 POP POP SWAP1 POP POP SWAP1 JUMP JUMPDEST PUSH1 0x40 MLOAD DUP1 PUSH1 0xC0 ADD PUSH1 0x40 MSTORE DUP1 PUSH1 0x6 SWAP1 PUSH1 0x20 DUP3 MUL DUP1 CALLDATASIZE DUP4 CALLDATACOPY DUP1 DUP3 ADD SWAP2 POP POP SWAP1 POP POP SWAP1 JUMP JUMPDEST PUSH0 PUSH1 0x40 MLOAD SWAP1 POP SWAP1 JUMP JUMPDEST PUSH0 DUP1 REVERT JUMPDEST PUSH0 DUP1 REVERT JUMPDEST PUSH0 DUP1 REVERT JUMPDEST PUSH0 PUSH1 0x1F NOT PUSH1 0x1F DUP4 ADD AND SWAP1 POP SWAP2 SWAP1 POP JUMP JUMPDEST PUSH32 0x4E487B7100000000000000000000000000000000000000000000000000000000 PUSH0 MSTORE PUSH1 0x41 PUSH1 0x4 MSTORE PUSH1 0x24 PUSH0 REVERT JUMPDEST PUSH2 0x1178 DUP3 PUSH2 0x1132 JUMP JUMPDEST DUP2 ADD DUP2 DUP2 LT PUSH8 0xFFFFFFFFFFFFFFFF DUP3 GT OR ISZERO PUSH2 0x1197 JUMPI PUSH2 0x1196 PUSH2 0x1142 JUMP JUMPDEST JUMPDEST DUP1 PUSH1 0x40 MSTORE POP POP POP JUMP JUMPDEST PUSH0 PUSH2 0x11A9 PUSH2 0x111D JUMP JUMPDEST SWAP1 POP PUSH2 0x11B5 DUP3 DUP3 PUSH2 0x116F JUMP JUMPDEST SWAP2 SWAP1 POP JUMP JUMPDEST PUSH0 DUP1 REVERT JUMPDEST PUSH0 DUP2 SWAP1 POP SWAP2 SWAP1 POP JUMP JUMPDEST PUSH2 0x11D0 DUP2 PUSH2 0x11BE JUMP JUMPDEST DUP2 EQ PUSH2 0x11DA JUMPI PUSH0 DUP1 REVERT JUMPDEST POP JUMP JUMPDEST PUSH0 DUP2 CALLDATALOAD SWAP1 POP PUSH2 0x11EB DUP2 PUSH2 0x11C7 JUMP JUMPDEST SWAP3 SWAP2 POP POP JUMP JUMPDEST PUSH0 PUSH1 0xA0 DUP3 DUP5 SUB SLT ISZERO PUSH2 0x1206 JUMPI PUSH2 0x1205 PUSH2 0x112E JUMP JUMPDEST JUMPDEST PUSH2 0x1210 PUSH1 0xA0 PUSH2 0x11A0 JUMP JUMPDEST SWAP1 POP PUSH0 PUSH2 0x121F DUP5 DUP3 DUP6 ADD PUSH2 0x11DD JUMP JUMPDEST PUSH0 DUP4 ADD MSTORE POP PUSH1 0x20 PUSH2 0x1232 DUP5 DUP3 DUP6 ADD PUSH2 0x11DD JUMP JUMPDEST PUSH1 0x20 DUP4 ADD MSTORE POP PUSH1 0x40 PUSH2 0x1246 DUP5 DUP3 DUP6 ADD PUSH2 0x11DD JUMP JUMPDEST PUSH1 0x40 DUP4 ADD MSTORE POP PUSH1 0x60 PUSH2 0x125A DUP5 DUP3 DUP6 ADD PUSH2 0x11DD JUMP JUMPDEST PUSH1 0x60 DUP4 ADD MSTORE POP PUSH1 0x80 PUSH2 0x126E DUP5 DUP3 DUP6 ADD PUSH2 0x11DD JUMP JUMPDEST PUSH1 0x80 DUP4 ADD MSTORE POP SWAP3 SWAP2 POP POP JUMP JUMPDEST PUSH0 PUSH1 0xA0 DUP3 DUP5 SUB SLT ISZERO PUSH2 0x128F JUMPI PUSH2 0x128E PUSH2 0x1126 JUMP JUMPDEST JUMPDEST PUSH0 PUSH2 0x129C DUP5 DUP3 DUP6 ADD PUSH2 0x11F1 JUMP JUMPDEST SWAP2 POP POP SWAP3 SWAP2 POP POP JUMP JUMPDEST PUSH0 DUP2 ISZERO ISZERO SWAP1 POP SWAP2 SWAP1 POP JUMP JUMPDEST PUSH2 0x12B9 DUP2 PUSH2 0x12A5 JUMP JUMPDEST DUP3 MSTORE POP POP JUMP JUMPDEST PUSH0 PUSH1 0x20 DUP3 ADD SWAP1 POP PUSH2 0x12D2 PUSH0 DUP4 ADD DUP5 PUSH2 0x12B0 JUMP JUMPDEST SWAP3 SWAP2 POP POP JUMP JUMPDEST PUSH0 DUP1 PUSH1 0x40 DUP4 DUP6 SUB SLT ISZERO PUSH2 0x12EE JUMPI PUSH2 0x12ED PUSH2 0x1126 JUMP JUMPDEST JUMPDEST PUSH0 PUSH2 0x12FB DUP6 DUP3 DUP7 ADD PUSH2 0x11DD JUMP JUMPDEST SWAP3 POP POP PUSH1 0x20 PUSH2 0x130C DUP6 DUP3 DUP7 ADD PUSH2 0x11DD JUMP JUMPDEST SWAP2 POP POP SWAP3 POP SWAP3 SWAP1 POP JUMP JUMPDEST PUSH2 0x131F DUP2 PUSH2 0x11BE JUMP JUMPDEST DUP3 MSTORE POP POP JUMP JUMPDEST PUSH0 PUSH1 0x20 DUP3 ADD SWAP1 POP PUSH2 0x1338 PUSH0 DUP4 ADD DUP5 PUSH2 0x1316 JUMP JUMPDEST SWAP3 SWAP2 POP POP JUMP JUMPDEST PUSH0 DUP2 SWAP1 POP SWAP2 SWAP1 POP JUMP JUMPDEST PUSH2 0x1350 DUP2 PUSH2 0x133E JUMP JUMPDEST DUP2 EQ PUSH2 0x135A JUMPI PUSH0 DUP1 REVERT JUMPDEST POP JUMP JUMPDEST PUSH0 DUP2 CALLDATALOAD SWAP1 POP PUSH2 0x136B DUP2 PUSH2 0x1347 JUMP JUMPDEST SWAP3 SWAP2 POP POP JUMP JUMPDEST PUSH0 DUP1 PUSH1 0x40 DUP4 DUP6 SUB SLT ISZERO PUSH2 0x1387 JUMPI PUSH2 0x1386 PUSH2 0x1126 JUMP JUMPDEST JUMPDEST PUSH0 PUSH2 0x1394 DUP6 DUP3 DUP7 ADD PUSH2 0x135D JUMP JUMPDEST SWAP3 POP POP PUSH1 0x20 PUSH2 0x13A5 DUP6 DUP3 DUP7 ADD PUSH2 0x135D JUMP JUMPDEST SWAP2 POP POP SWAP3 POP SWAP3 SWAP1 POP JUMP JUMPDEST PUSH0 PUSH1 0xA0 DUP3 DUP5 SUB SLT ISZERO PUSH2 0x13C4 JUMPI PUSH2 0x13C3 PUSH2 0x112E JUMP JUMPDEST JUMPDEST PUSH2 0x13CE PUSH1 0xA0 PUSH2 0x11A0 JUMP JUMPDEST SWAP1 POP PUSH0 PUSH2 0x13DD DUP5 DUP3 DUP6 ADD PUSH2 0x11DD JUMP JUMPDEST PUSH0 DUP4 ADD MSTORE POP PUSH1 0x20 PUSH2 0x13F0 DUP5 DUP3 DUP6 ADD PUSH2 0x11DD JUMP JUMPDEST PUSH1 0x20 DUP4 ADD MSTORE POP PUSH1 0x40 PUSH2 0x1404 DUP5 DUP3 DUP6 ADD PUSH2 0x135D JUMP JUMPDEST PUSH1 0x40 DUP4 ADD MSTORE POP PUSH1 0x60 PUSH2 0x1418 DUP5 DUP3 DUP6 ADD PUSH2 0x135D JUMP JUMPDEST PUSH1 0x60 DUP4 ADD MSTORE POP PUSH1 0x80 PUSH2 0x142C DUP5 DUP3 DUP6 ADD PUSH2 0x135D JUMP JUMPDEST PUSH1 0x80 DUP4 ADD MSTORE POP SWAP3 SWAP2 POP POP JUMP JUMPDEST PUSH0 DUP1 PUSH1 0xC0 DUP4 DUP6 SUB SLT ISZERO PUSH2 0x144E JUMPI PUSH2 0x144D PUSH2 0x1126 JUMP JUMPDEST JUMPDEST PUSH0 PUSH2 0x145B DUP6 DUP3 DUP7 ADD PUSH2 0x11DD JUMP JUMPDEST SWAP3 POP POP PUSH1 0x20 PUSH2 0x146C DUP6 DUP3 DUP7 ADD PUSH2 0x13AF JUMP JUMPDEST SWAP2 POP POP SWAP3 POP SWAP3 SWAP1 POP JUMP JUMPDEST PUSH0 PUSH1 0xFF DUP3 AND SWAP1 POP SWAP2 SWAP1 POP JUMP JUMPDEST PUSH2 0x148B DUP2 PUSH2 0x1476 JUMP JUMPDEST DUP2 EQ PUSH2 0x1495 JUMPI PUSH0 DUP1 REVERT JUMPDEST POP JUMP JUMPDEST PUSH0 DUP2 CALLDATALOAD SWAP1 POP PUSH2 0x14A6 DUP2 PUSH2 0x1482 JUMP JUMPDEST SWAP3 SWAP2 POP POP JUMP JUMPDEST PUSH0 DUP1 PUSH1 0x40 DUP4 DUP6 SUB SLT ISZERO PUSH2 0x14C2 JUMPI PUSH2 0x14C1 PUSH2 0x1126 JUMP JUMPDEST JUMPDEST PUSH0 PUSH2 0x14CF DUP6 DUP3 DUP7 ADD PUSH2 0x11DD JUMP JUMPDEST SWAP3 POP POP PUSH1 0x20 PUSH2 0x14E0 DUP6 DUP3 DUP7 ADD PUSH2 0x1498 JUMP JUMPDEST SWAP2 POP POP SWAP3 POP SWAP3 SWAP1 POP JUMP JUMPDEST PUSH2 0x14F3 DUP2 PUSH2 0x1476 JUMP JUMPDEST DUP3 MSTORE POP POP JUMP JUMPDEST PUSH0 PUSH1 0x20 DUP3 ADD SWAP1 POP PUSH2 0x150C PUSH0 DUP4 ADD DUP5 PUSH2 0x14EA JUMP JUMPDEST SWAP3 SWAP2 POP POP JUMP JUMPDEST PUSH0 DUP1 REVERT JUMPDEST PUSH0 PUSH8 0xFFFFFFFFFFFFFFFF DUP3 GT ISZERO PUSH2 0x1530 JUMPI PUSH2 0x152F PUSH2 0x1142 JUMP JUMPDEST JUMPDEST PUSH1 0x20 DUP3 MUL SWAP1 POP PUSH1 0x20 DUP2 ADD SWAP1 POP SWAP2 SWAP1 POP JUMP JUMPDEST PUSH0 DUP1 REVERT JUMPDEST PUSH0 PUSH2 0x1557 PUSH2 0x1552 DUP5 PUSH2 0x1516 JUMP JUMPDEST PUSH2 0x11A0 JUMP JUMPDEST SWAP1 POP DUP1 DUP4 DUP3 MSTORE PUSH1 0x20 DUP3 ADD SWAP1 POP PUSH1 0x20 DUP5 MUL DUP4 ADD DUP6 DUP2 GT ISZERO PUSH2 0x157A JUMPI PUSH2 0x1579 PUSH2 0x1541 JUMP JUMPDEST JUMPDEST DUP4 JUMPDEST DUP2 DUP2 LT ISZERO PUSH2 0x15A3 JUMPI DUP1 PUSH2 0x158F DUP9 DUP3 PUSH2 0x11DD JUMP JUMPDEST DUP5 MSTORE PUSH1 0x20 DUP5 ADD SWAP4 POP POP PUSH1 0x20 DUP2 ADD SWAP1 POP PUSH2 0x157C JUMP JUMPDEST POP POP POP SWAP4 SWAP3 POP POP POP JUMP JUMPDEST PUSH0 DUP3 PUSH1 0x1F DUP4 ADD SLT PUSH2 0x15C1 JUMPI PUSH2 0x15C0 PUSH2 0x1512 JUMP JUMPDEST JUMPDEST DUP2 CALLDATALOAD PUSH2 0x15D1 DUP5 DUP3 PUSH1 0x20 DUP7 ADD PUSH2 0x1545 JUMP JUMPDEST SWAP2 POP POP SWAP3 SWAP2 POP POP JUMP JUMPDEST PUSH0 PUSH8 0xFFFFFFFFFFFFFFFF DUP3 GT ISZERO PUSH2 0x15F4 JUMPI PUSH2 0x15F3 PUSH2 0x1142 JUMP JUMPDEST JUMPDEST PUSH1 0x20 DUP3 MUL SWAP1 POP PUSH1 0x20 DUP2 ADD SWAP1 POP SWAP2 SWAP1 POP JUMP JUMPDEST PUSH0 PUSH2 0x1617 PUSH2 0x1612 DUP5 PUSH2 0x15DA JUMP JUMPDEST PUSH2 0x11A0 JUMP JUMPDEST SWAP1 POP DUP1 DUP4 DUP3 MSTORE PUSH1 0x20 DUP3 ADD SWAP1 POP PUSH1 0xA0 DUP5 MUL DUP4 ADD DUP6 DUP2 GT ISZERO PUSH2 0x163A JUMPI PUSH2 0x1639 PUSH2 0x1541 JUMP JUMPDEST JUMPDEST DUP4 JUMPDEST DUP2 DUP2 LT ISZERO PUSH2 0x1663 JUMPI DUP1 PUSH2 0x164F DUP9 DUP3 PUSH2 0x13AF JUMP JUMPDEST DUP5 MSTORE PUSH1 0x20 DUP5 ADD SWAP4 POP POP PUSH1 0xA0 DUP2 ADD SWAP1 POP PUSH2 0x163C JUMP JUMPDEST POP POP POP SWAP4 SWAP3 POP POP POP JUMP JUMPDEST PUSH0 DUP3 PUSH1 0x1F DUP4 ADD SLT PUSH2 0x1681 JUMPI PUSH2 0x1680 PUSH2 0x1512 JUMP JUMPDEST JUMPDEST DUP2 CALLDATALOAD PUSH2 0x1691 DUP5 DUP3 PUSH1 0x20 DUP7 ADD PUSH2 0x1605 JUMP JUMPDEST SWAP2 POP POP SWAP3 SWAP2 POP POP JUMP JUMPDEST PUSH0 PUSH1 0xC0 DUP3 DUP5 SUB SLT ISZERO PUSH2 0x16AF JUMPI PUSH2 0x16AE PUSH2 0x112E JUMP JUMPDEST JUMPDEST PUSH2 0x16B9 PUSH1 0xC0 PUSH2 0x11A0 JUMP JUMPDEST SWAP1 POP PUSH0 DUP3 ADD CALLDATALOAD PUSH8 0xFFFFFFFFFFFFFFFF DUP2 GT ISZERO PUSH2 0x16D8 JUMPI PUSH2 0x16D7 PUSH2 0x11BA JUMP JUMPDEST JUMPDEST PUSH2 0x16E4 DUP5 DUP3 DUP6 ADD PUSH2 0x15AD JUMP JUMPDEST PUSH0 DUP4 ADD MSTORE POP PUSH1 0x20 DUP3 ADD CALLDATALOAD PUSH8 0xFFFFFFFFFFFFFFFF DUP2 GT ISZERO PUSH2 0x1707 JUMPI PUSH2 0x1706 PUSH2 0x11BA JUMP JUMPDEST JUMPDEST PUSH2 0x1713 DUP5 DUP3 DUP6 ADD PUSH2 0x166D JUMP JUMPDEST PUSH1 0x20 DUP4 ADD MSTORE POP PUSH1 0x40 DUP3 ADD CALLDATALOAD PUSH8 0xFFFFFFFFFFFFFFFF DUP2 GT ISZERO PUSH2 0x1737 JUMPI PUSH2 0x1736 PUSH2 0x11BA JUMP JUMPDEST JUMPDEST PUSH2 0x1743 DUP5 DUP3 DUP6 ADD PUSH2 0x15AD JUMP JUMPDEST PUSH1 0x40 DUP4 ADD MSTORE POP PUSH1 0x60 DUP3 ADD CALLDATALOAD PUSH8 0xFFFFFFFFFFFFFFFF DUP2 GT ISZERO PUSH2 0x1767 JUMPI PUSH2 0x1766 PUSH2 0x11BA JUMP JUMPDEST JUMPDEST PUSH2 0x1773 DUP5 DUP3 DUP6 ADD PUSH2 0x15AD JUMP JUMPDEST PUSH1 0x60 DUP4 ADD MSTORE POP PUSH1 0x80 DUP3 ADD CALLDATALOAD PUSH8 0xFFFFFFFFFFFFFFFF DUP2 GT ISZERO PUSH2 0x1797 JUMPI PUSH2 0x1796 PUSH2 0x11BA JUMP JUMPDEST JUMPDEST PUSH2 0x17A3 DUP5 DUP3 DUP6 ADD PUSH2 0x15AD JUMP JUMPDEST PUSH1 0x80 DUP4 ADD MSTORE POP PUSH1 0xA0 DUP3 ADD CALLDATALOAD PUSH8 0xFFFFFFFFFFFFFFFF DUP2 GT ISZERO PUSH2 0x17C7 JUMPI PUSH2 0x17C6 PUSH2 0x11BA JUMP JUMPDEST JUMPDEST PUSH2 0x17D3 DUP5 DUP3 DUP6 ADD PUSH2 0x15AD JUMP JUMPDEST PUSH1 0xA0 DUP4 ADD MSTORE POP SWAP3 SWAP2 POP POP JUMP JUMPDEST PUSH0 PUSH8 0xFFFFFFFFFFFFFFFF DUP3 GT ISZERO PUSH2 0x17F9 JUMPI PUSH2 0x17F8 PUSH2 0x1142 JUMP JUMPDEST JUMPDEST PUSH1 0x20 DUP3 MUL SWAP1 POP PUSH1 0x20 DUP2 ADD SWAP1 POP SWAP2 SWAP1 POP JUMP JUMPDEST PUSH0 PUSH2 0x181C PUSH2 0x1817 DUP5 PUSH2 0x17DF JUMP JUMPDEST PUSH2 0x11A0 JUMP JUMPDEST SWAP1 POP DUP1 DUP4 DUP3 MSTORE PUSH1 0x20 DUP3 ADD SWAP1 POP PUSH1 0x20 DUP5 MUL DUP4 ADD DUP6 DUP2 GT ISZERO PUSH2 0x183F JUMPI PUSH2 0x183E PUSH2 0x1541 JUMP JUMPDEST JUMPDEST DUP4 JUMPDEST DUP2 DUP2 LT ISZERO PUSH2 0x1868 JUMPI DUP1 PUSH2 0x1854 DUP9 DUP3 PUSH2 0x135D JUMP JUMPDEST DUP5 MSTORE PUSH1 0x20 DUP5 ADD SWAP4 POP POP PUSH1 0x20 DUP2 ADD SWAP1 POP PUSH2 0x1841 JUMP JUMPDEST POP POP POP SWAP4 SWAP3 POP POP POP JUMP JUMPDEST PUSH0 DUP3 PUSH1 0x1F DUP4 ADD SLT PUSH2 0x1886 JUMPI PUSH2 0x1885 PUSH2 0x1512 JUMP JUMPDEST JUMPDEST DUP2 CALLDATALOAD PUSH2 0x1896 DUP5 DUP3 PUSH1 0x20 DUP7 ADD PUSH2 0x180A JUMP JUMPDEST SWAP2 POP POP SWAP3 SWAP2 POP POP JUMP JUMPDEST PUSH0 PUSH1 0x80 DUP3 DUP5 SUB SLT ISZERO PUSH2 0x18B4 JUMPI PUSH2 0x18B3 PUSH2 0x112E JUMP JUMPDEST JUMPDEST PUSH2 0x18BE PUSH1 0x80 PUSH2 0x11A0 JUMP JUMPDEST SWAP1 POP PUSH0 DUP3 ADD CALLDATALOAD PUSH8 0xFFFFFFFFFFFFFFFF DUP2 GT ISZERO PUSH2 0x18DD JUMPI PUSH2 0x18DC PUSH2 0x11BA JUMP JUMPDEST JUMPDEST PUSH2 0x18E9 DUP5 DUP3 DUP6 ADD PUSH2 0x1872 JUMP JUMPDEST PUSH0 DUP4 ADD MSTORE POP PUSH1 0x20 DUP3 ADD CALLDATALOAD PUSH8 0xFFFFFFFFFFFFFFFF DUP2 GT ISZERO PUSH2 0x190C JUMPI PUSH2 0x190B PUSH2 0x11BA JUMP JUMPDEST JUMPDEST PUSH2 0x1918 DUP5 DUP3 DUP6 ADD PUSH2 0x1872 JUMP JUMPDEST PUSH1 0x20 DUP4 ADD MSTORE POP PUSH1 0x40 DUP3 ADD CALLDATALOAD PUSH8 0xFFFFFFFFFFFFFFFF DUP2 GT ISZERO PUSH2 0x193C JUMPI PUSH2 0x193B PUSH2 0x11BA JUMP JUMPDEST JUMPDEST PUSH2 0x1948 DUP5 DUP3 DUP6 ADD PUSH2 0x1872 JUMP JUMPDEST PUSH1 0x40 DUP4 ADD MSTORE POP PUSH1 0x60 PUSH2 0x195C DUP5 DUP3 DUP6 ADD PUSH2 0x135D JUMP JUMPDEST PUSH1 0x60 DUP4 ADD MSTORE POP SWAP3 SWAP2 POP POP JUMP JUMPDEST PUSH0 DUP1 PUSH0 PUSH1 0x60 DUP5 DUP7 SUB SLT ISZERO PUSH2 0x197F JUMPI PUSH2 0x197E PUSH2 0x1126 JUMP JUMPDEST JUMPDEST PUSH0 DUP5 ADD CALLDATALOAD PUSH8 0xFFFFFFFFFFFFFFFF DUP2 GT ISZERO PUSH2 0x199C JUMPI PUSH2 0x199B PUSH2 0x112A JUMP JUMPDEST JUMPDEST PUSH2 0x19A8 DUP7 DUP3 DUP8 ADD PUSH2 0x169A JUMP JUMPDEST SWAP4 POP POP PUSH1 0x20 DUP5 ADD CALLDATALOAD PUSH8 0xFFFFFFFFFFFFFFFF DUP2 GT ISZERO PUSH2 0x19C9 JUMPI PUSH2 0x19C8 PUSH2 0x112A JUMP JUMPDEST JUMPDEST PUSH2 0x19D5 DUP7 DUP3 DUP8 ADD PUSH2 0x189F JUMP JUMPDEST SWAP3 POP POP PUSH1 0x40 PUSH2 0x19E6 DUP7 DUP3 DUP8 ADD PUSH2 0x1498 JUMP JUMPDEST SWAP2 POP POP SWAP3 POP SWAP3 POP SWAP3 JUMP JUMPDEST PUSH0 PUSH1 0x20 DUP3 DUP5 SUB SLT ISZERO PUSH2 0x1A05 JUMPI PUSH2 0x1A04 PUSH2 0x1126 JUMP JUMPDEST JUMPDEST PUSH0 DUP3 ADD CALLDATALOAD PUSH8 0xFFFFFFFFFFFFFFFF DUP2 GT ISZERO PUSH2 0x1A22 JUMPI PUSH2 0x1A21 PUSH2 0x112A JUMP JUMPDEST JUMPDEST PUSH2 0x1A2E DUP5 DUP3 DUP6 ADD PUSH2 0x15AD JUMP JUMPDEST SWAP2 POP POP SWAP3 SWAP2 POP POP JUMP JUMPDEST PUSH0 DUP1 PUSH0 DUP1 PUSH1 0x80 DUP6 DUP8 SUB SLT ISZERO PUSH2 0x1A4F JUMPI PUSH2 0x1A4E PUSH2 0x1126 JUMP JUMPDEST JUMPDEST PUSH0 PUSH2 0x1A5C DUP8 DUP3 DUP9 ADD PUSH2 0x11DD JUMP JUMPDEST SWAP5 POP POP PUSH1 0x20 DUP6 ADD CALLDATALOAD PUSH8 0xFFFFFFFFFFFFFFFF DUP2 GT ISZERO PUSH2 0x1A7D JUMPI PUSH2 0x1A7C PUSH2 0x112A JUMP JUMPDEST JUMPDEST PUSH2 0x1A89 DUP8 DUP3 DUP9 ADD PUSH2 0x169A JUMP JUMPDEST SWAP4 POP POP PUSH1 0x40 DUP6 ADD CALLDATALOAD PUSH8 0xFFFFFFFFFFFFFFFF DUP2 GT ISZERO PUSH2 0x1AAA JUMPI PUSH2 0x1AA9 PUSH2 0x112A JUMP JUMPDEST JUMPDEST PUSH2 0x1AB6 DUP8 DUP3 DUP9 ADD PUSH2 0x189F JUMP JUMPDEST SWAP3 POP POP PUSH1 0x60 PUSH2 0x1AC7 DUP8 DUP3 DUP9 ADD PUSH2 0x1498 JUMP JUMPDEST SWAP2 POP POP SWAP3 SWAP6 SWAP2 SWAP5 POP SWAP3 POP JUMP JUMPDEST PUSH0 PUSH1 0x20 DUP3 DUP5 SUB SLT ISZERO PUSH2 0x1AE8 JUMPI PUSH2 0x1AE7 PUSH2 0x1126 JUMP JUMPDEST JUMPDEST PUSH0 DUP3 ADD CALLDATALOAD PUSH8 0xFFFFFFFFFFFFFFFF DUP2 GT ISZERO PUSH2 0x1B05 JUMPI PUSH2 0x1B04 PUSH2 0x112A JUMP JUMPDEST JUMPDEST PUSH2 0x1B11 DUP5 DUP3 DUP6 ADD PUSH2 0x169A JUMP JUMPDEST SWAP2 POP POP SWAP3 SWAP2 POP POP JUMP JUMPDEST PUSH0 PUSH1 0x20 DUP3 DUP5 SUB SLT ISZERO PUSH2 0x1B2F JUMPI PUSH2 0x1B2E PUSH2 0x1126 JUMP JUMPDEST JUMPDEST PUSH0 PUSH2 0x1B3C DUP5 DUP3 DUP6 ADD PUSH2 0x11DD JUMP JUMPDEST SWAP2 POP POP SWAP3 SWAP2 POP POP JUMP JUMPDEST PUSH0 DUP1 PUSH1 0x40 DUP4 DUP6 SUB SLT ISZERO PUSH2 0x1B5B JUMPI PUSH2 0x1B5A PUSH2 0x1126 JUMP JUMPDEST JUMPDEST PUSH0 PUSH2 0x1B68 DUP6 DUP3 DUP7 ADD PUSH2 0x11DD JUMP JUMPDEST SWAP3 POP POP PUSH1 0x20 PUSH2 0x1B79 DUP6 DUP3 DUP7 ADD PUSH2 0x135D JUMP JUMPDEST SWAP2 POP POP SWAP3 POP SWAP3 SWAP1 POP JUMP JUMPDEST PUSH32 0x4E487B7100000000000000000000000000000000000000000000000000000000 PUSH0 MSTORE PUSH1 0x12 PUSH1 0x4 MSTORE PUSH1 0x24 PUSH0 REVERT JUMPDEST PUSH0 DUP2 SWAP1 POP SWAP2 SWAP1 POP JUMP JUMPDEST PUSH2 0x1BCA PUSH2 0x1BC5 DUP3 PUSH2 0x11BE JUMP JUMPDEST PUSH2 0x1BB0 JUMP JUMPDEST DUP3 MSTORE POP POP JUMP JUMPDEST PUSH0 PUSH2 0x1BDB DUP3 DUP7 PUSH2 0x1BB9 JUMP JUMPDEST PUSH1 0x20 DUP3 ADD SWAP2 POP PUSH2 0x1BEB DUP3 DUP6 PUSH2 0x1BB9 JUMP JUMPDEST PUSH1 0x20 DUP3 ADD SWAP2 POP PUSH2 0x1BFB DUP3 DUP5 PUSH2 0x1BB9 JUMP JUMPDEST PUSH1 0x20 DUP3 ADD SWAP2 POP DUP2 SWAP1 POP SWAP5 SWAP4 POP POP POP POP JUMP JUMPDEST PUSH2 0x1C15 DUP2 PUSH2 0x11BE JUMP JUMPDEST DUP3 MSTORE POP POP JUMP JUMPDEST PUSH0 PUSH1 0x40 DUP3 ADD SWAP1 POP PUSH2 0x1C2E PUSH0 DUP4 ADD DUP6 PUSH2 0x1C0C JUMP JUMPDEST PUSH2 0x1C3B PUSH1 0x20 DUP4 ADD DUP5 PUSH2 0x1C0C JUMP JUMPDEST SWAP4 SWAP3 POP POP POP JUMP JUMPDEST PUSH0 DUP2 MLOAD SWAP1 POP PUSH2 0x1C50 DUP2 PUSH2 0x11C7 JUMP JUMPDEST SWAP3 SWAP2 POP POP JUMP JUMPDEST PUSH0 PUSH1 0x20 DUP3 DUP5 SUB SLT ISZERO PUSH2 0x1C6B JUMPI PUSH2 0x1C6A PUSH2 0x1126 JUMP JUMPDEST JUMPDEST PUSH0 PUSH2 0x1C78 DUP5 DUP3 DUP6 ADD PUSH2 0x1C42 JUMP JUMPDEST SWAP2 POP POP SWAP3 SWAP2 POP POP JUMP JUMPDEST PUSH32 0x4E487B7100000000000000000000000000000000000000000000000000000000 PUSH0 MSTORE PUSH1 0x11 PUSH1 0x4 MSTORE PUSH1 0x24 PUSH0 REVERT JUMPDEST PUSH0 PUSH2 0x1CB8 DUP3 PUSH2 0x133E JUMP JUMPDEST SWAP2 POP PUSH2 0x1CC3 DUP4 PUSH2 0x133E JUMP JUMPDEST SWAP3 POP DUP3 DUP3 SUB SWAP1 POP DUP2 DUP2 SLT PUSH0 DUP5 SLT AND DUP3 DUP3 SGT PUSH0 DUP6 SLT ISZERO AND OR ISZERO PUSH2 0x1CE8 JUMPI PUSH2 0x1CE7 PUSH2 0x1C81 JUMP JUMPDEST JUMPDEST SWAP3 SWAP2 POP POP JUMP JUMPDEST PUSH32 0x4E487B7100000000000000000000000000000000000000000000000000000000 PUSH0 MSTORE PUSH1 0x1 PUSH1 0x4 MSTORE PUSH1 0x24 PUSH0 REVERT JUMPDEST PUSH32 0x4E487B7100000000000000000000000000000000000000000000000000000000 PUSH0 MSTORE PUSH1 0x32 PUSH1 0x4 MSTORE PUSH1 0x24 PUSH0 REVERT JUMPDEST PUSH0 PUSH2 0x1D52 DUP3 PUSH2 0x133E JUMP JUMPDEST SWAP2 POP PUSH2 0x1D5D DUP4 PUSH2 0x133E JUMP JUMPDEST SWAP3 POP DUP3 DUP3 MUL PUSH2 0x1D6B DUP2 PUSH2 0x133E JUMP JUMPDEST SWAP2 POP PUSH32 0x8000000000000000000000000000000000000000000000000000000000000000 DUP5 EQ PUSH0 DUP5 SLT AND ISZERO PUSH2 0x1DA2 JUMPI PUSH2 0x1DA1 PUSH2 0x1C81 JUMP JUMPDEST JUMPDEST DUP3 DUP3 SDIV DUP5 EQ DUP4 ISZERO OR PUSH2 0x1DB7 JUMPI PUSH2 0x1DB6 PUSH2 0x1C81 JUMP JUMPDEST JUMPDEST POP SWAP3 SWAP2 POP POP JUMP JUMPDEST PUSH0 DUP2 PUSH1 0x1 SHR SWAP1 POP SWAP2 SWAP1 POP JUMP JUMPDEST PUSH0 DUP1 DUP3 SWAP2 POP DUP4 SWAP1 POP JUMPDEST PUSH1 0x1 DUP6 GT ISZERO PUSH2 0x1E13 JUMPI DUP1 DUP7 DIV DUP2 GT ISZERO PUSH2 0x1DEF JUMPI PUSH2 0x1DEE PUSH2 0x1C81 JUMP JUMPDEST JUMPDEST PUSH1 0x1 DUP6 AND ISZERO PUSH2 0x1DFE JUMPI DUP1 DUP3 MUL SWAP2 POP JUMPDEST DUP1 DUP2 MUL SWAP1 POP PUSH2 0x1E0C DUP6 PUSH2 0x1DBE JUMP JUMPDEST SWAP5 POP PUSH2 0x1DD3 JUMP JUMPDEST SWAP5 POP SWAP5 SWAP3 POP POP POP JUMP JUMPDEST PUSH0 DUP3 PUSH0 DUP2 EQ PUSH2 0x1E32 JUMPI PUSH1 0x1 DUP2 EQ PUSH2 0x1E3C JUMPI PUSH2 0x1E45 JUMP JUMPDEST PUSH1 0x1 SWAP2 POP POP PUSH2 0x1EFC JUMP JUMPDEST DUP3 SWAP2 POP POP PUSH2 0x1EFC JUMP JUMPDEST POP DUP2 PUSH2 0x1E53 JUMPI PUSH0 SWAP1 POP PUSH2 0x1EFC JUMP JUMPDEST PUSH1 0x1 SWAP1 POP PUSH0 DUP3 SGT PUSH1 0x1 DUP2 EQ PUSH2 0x1E6E JUMPI PUSH0 DUP2 EQ PUSH2 0x1E86 JUMPI PUSH2 0x1E9A JUMP JUMPDEST DUP3 DUP7 DIV DUP4 GT ISZERO PUSH2 0x1E81 JUMPI PUSH2 0x1E80 PUSH2 0x1C81 JUMP JUMPDEST JUMPDEST PUSH2 0x1E9A JUMP JUMPDEST DUP3 DUP7 SDIV DUP4 SLT ISZERO PUSH2 0x1E99 JUMPI PUSH2 0x1E98 PUSH2 0x1C81 JUMP JUMPDEST JUMPDEST JUMPDEST POP PUSH1 0x1 DUP4 AND ISZERO PUSH2 0x1EA8 JUMPI DUP2 SWAP1 POP JUMPDEST DUP2 DUP3 MUL SWAP2 POP PUSH2 0x1EB6 DUP4 PUSH2 0x1DBE JUMP JUMPDEST SWAP3 POP PUSH2 0x1EC4 DUP6 DUP5 DUP5 DUP5 PUSH2 0x1DCA JUMP JUMPDEST SWAP3 POP SWAP1 POP DUP2 DUP6 DIV DUP2 GT PUSH0 DUP3 SGT AND ISZERO PUSH2 0x1EDF JUMPI PUSH2 0x1EDE PUSH2 0x1C81 JUMP JUMPDEST JUMPDEST DUP2 DUP5 SDIV DUP2 SLT PUSH0 DUP3 SLT AND ISZERO PUSH2 0x1EF6 JUMPI PUSH2 0x1EF5 PUSH2 0x1C81 JUMP JUMPDEST JUMPDEST DUP2 DUP2 MUL SWAP1 POP JUMPDEST SWAP5 SWAP4 POP POP POP POP JUMP JUMPDEST PUSH0 PUSH2 0x1F0E DUP3 PUSH2 0x133E JUMP JUMPDEST SWAP2 POP PUSH2 0x1F19 DUP4 PUSH2 0x11BE JUMP JUMPDEST SWAP3 POP PUSH2 0x1F67 PUSH32 0x7FFFFFFFFFFFFFFFFFFFFFFFFFFFFFFFFFFFFFFFFFFFFFFFFFFFFFFFFFFFFFFF PUSH32 0x8000000000000000000000000000000000000000000000000000000000000000 DUP6 DUP6 PUSH2 0x1E1C JUMP JUMPDEST SWAP1 POP SWAP3 SWAP2 POP POP JUMP JUMPDEST PUSH0 PUSH2 0x1F79 DUP3 PUSH2 0x133E JUMP JUMPDEST SWAP2 POP PUSH32 0x8000000000000000000000000000000000000000000000000000000000000000 DUP3 SUB PUSH2 0x1FAB JUMPI PUSH2 0x1FAA PUSH2 0x1C81 JUMP JUMPDEST JUMPDEST DUP2 PUSH0 SUB SWAP1 POP SWAP2 SWAP1 POP JUMP JUMPDEST PUSH0 PUSH2 0x1FC0 DUP3 DUP5 PUSH2 0x1BB9 JUMP JUMPDEST PUSH1 0x20 DUP3 ADD SWAP2 POP DUP2 SWAP1 POP SWAP3 SWAP2 POP POP JUMP JUMPDEST PUSH0 PUSH2 0x1FD9 DUP3 PUSH2 0x11BE JUMP JUMPDEST SWAP2 POP PUSH2 0x1FE4 DUP4 PUSH2 0x11BE JUMP JUMPDEST SWAP3 POP DUP3 PUSH2 0x1FF4 JUMPI PUSH2 0x1FF3 PUSH2 0x1B83 JUMP JUMPDEST JUMPDEST DUP3 DUP3 MOD SWAP1 POP SWAP3 SWAP2 POP POP JUMP JUMPDEST PUSH0 PUSH2 0x2009 DUP3 PUSH2 0x11BE JUMP JUMPDEST SWAP2 POP PUSH2 0x2014 DUP4 PUSH2 0x11BE JUMP JUMPDEST SWAP3 POP DUP3 PUSH2 0x2024 JUMPI PUSH2 0x2023 PUSH2 0x1B83 JUMP JUMPDEST JUMPDEST DUP3 DUP3 DIV SWAP1 POP SWAP3 SWAP2 POP POP JUMP JUMPDEST PUSH0 PUSH2 0x2039 DUP3 PUSH2 0x11BE JUMP JUMPDEST SWAP2 POP PUSH2 0x2044 DUP4 PUSH2 0x11BE JUMP JUMPDEST SWAP3 POP DUP3 DUP3 MUL PUSH2 0x2052 DUP2 PUSH2 0x11BE JUMP JUMPDEST SWAP2 POP DUP3 DUP3 DIV DUP5 EQ DUP4 ISZERO OR PUSH2 0x2069 JUMPI PUSH2 0x2068 PUSH2 0x1C81 JUMP JUMPDEST JUMPDEST POP SWAP3 SWAP2 POP POP JUMP JUMPDEST PUSH0 PUSH2 0x207A DUP3 PUSH2 0x11BE JUMP JUMPDEST SWAP2 POP PUSH2 0x2085 DUP4 PUSH2 0x11BE JUMP JUMPDEST SWAP3 POP DUP3 DUP3 SUB SWAP1 POP DUP2 DUP2 GT ISZERO PUSH2 0x209D JUMPI PUSH2 0x209C PUSH2 0x1C81 JUMP JUMPDEST JUMPDEST SWAP3 SWAP2 POP POP JUMP INVALID LOG2 PUSH5 0x6970667358 0x22 SLT KECCAK256 PUSH31 0x74345A526FE3081310F448A5EA741EDAC1C0D437BE5E59EF20712480B1E4DE PUSH5 0x736F6C6343 STOP ADDMOD AND STOP CALLER "
		},
		"gasEstimates": {
			"creation": {
				"codeDepositCost": "954400",
				"executionCost": "infinite",
				"totalCost": "infinite"
			},
			"external": {
				"mint(uint256)": "46841",
				"mintedCoins(uint256)": "infinite",
				"spendnRedeem(uint256,(uint256[],(uint256,uint256,int256,int256,int256)[],uint256[],uint256[],uint256[],uint256[]),(int256[],int256[],int256[],int256),uint8)": "infinite",
				"spendnRemint(uint256,(uint256[],(uint256,uint256,int256,int256,int256)[],uint256[],uint256[],uint256[],uint256[]),(int256[],int256[],int256[],int256),uint8,uint256)": "infinite",
				"spentCoins(uint256)": "infinite"
			}
		},
		"methodIdentifiers": {
			"mint(uint256)": "a0712d68",
			"mintedCoins(uint256)": "b5c18928",
			"spendnRedeem(uint256,(uint256[],(uint256,uint256,int256,int256,int256)[],uint256[],uint256[],uint256[],uint256[]),(int256[],int256[],int256[],int256),uint8)": "94f86c12",
			"spendnRemint(uint256,(uint256[],(uint256,uint256,int256,int256,int256)[],uint256[],uint256[],uint256[],uint256[]),(int256[],int256[],int256[],int256),uint8,uint256)": "912d598f",
			"spentCoins(uint256)": "ceaff496"
		}
	},
	"abi": [
		{
			"inputs": [],
			"stateMutability": "payable",
			"type": "constructor"
		},
		{
			"anonymous": false,
			"inputs": [
				{
					"indexed": false,
					"internalType": "address",
					"name": "addr",
					"type": "address"
				},
				{
					"indexed": false,
					"internalType": "uint256",
					"name": "value",
					"type": "uint256"
				}
			],
			"name": "CreditsReceived",
			"type": "event"
		},
		{
			"inputs": [
				{
					"internalType": "uint256",
					"name": "coin",
					"type": "uint256"
				}
			],
			"name": "mint",
			"outputs": [],
			"stateMutability": "payable",
			"type": "function"
		},
		{
			"inputs": [
				{
					"internalType": "uint256",
					"name": "",
					"type": "uint256"
				}
			],
			"name": "mintedCoins",
			"outputs": [
				{
					"internalType": "uint256",
					"name": "",
					"type": "uint256"
				}
			],
			"stateMutability": "view",
			"type": "function"
		},
		{
			"inputs": [
				{
					"internalType": "uint256",
					"name": "serialNo",
					"type": "uint256"
				},
				{
					"components": [
						{
							"internalType": "uint256[]",
							"name": "cs",
							"type": "uint256[]"
						},
						{
							"components": [
								{
									"internalType": "uint256",
									"name": "ca",
									"type": "uint256"
								},
								{
									"internalType": "uint256",
									"name": "cb",
									"type": "uint256"
								},
								{
									"internalType": "int256",
									"name": "f",
									"type": "int256"
								},
								{
									"internalType": "int256",
									"name": "za",
									"type": "int256"
								},
								{
									"internalType": "int256",
									"name": "zb",
									"type": "int256"
								}
							],
							"internalType": "struct ZkpZeroOne[]",
							"name": "zkps",
							"type": "tuple[]"
						},
						{
							"internalType": "uint256[]",
							"name": "cls",
							"type": "uint256[]"
						},
						{
							"internalType": "uint256[]",
							"name": "cas",
							"type": "uint256[]"
						},
						{
							"internalType": "uint256[]",
							"name": "cbs",
							"type": "uint256[]"
						},
						{
							"internalType": "uint256[]",
							"name": "cds",
							"type": "uint256[]"
						}
					],
					"internalType": "struct Zkp1N1",
					"name": "zkp1",
					"type": "tuple"
				},
				{
					"components": [
						{
							"internalType": "int256[]",
							"name": "fs",
							"type": "int256[]"
						},
						{
							"internalType": "int256[]",
							"name": "zas",
							"type": "int256[]"
						},
						{
							"internalType": "int256[]",
							"name": "zbs",
							"type": "int256[]"
						},
						{
							"internalType": "int256",
							"name": "zd",
							"type": "int256"
						}
					],
					"internalType": "struct Zkp1N2",
					"name": "zkp2",
					"type": "tuple"
				},
				{
					"internalType": "uint8",
					"name": "nbits",
					"type": "uint8"
				}
			],
			"name": "spendnRedeem",
			"outputs": [],
			"stateMutability": "nonpayable",
			"type": "function"
		},
		{
			"inputs": [
				{
					"internalType": "uint256",
					"name": "serialNo",
					"type": "uint256"
				},
				{
					"components": [
						{
							"internalType": "uint256[]",
							"name": "cs",
							"type": "uint256[]"
						},
						{
							"components": [
								{
									"internalType": "uint256",
									"name": "ca",
									"type": "uint256"
								},
								{
									"internalType": "uint256",
									"name": "cb",
									"type": "uint256"
								},
								{
									"internalType": "int256",
									"name": "f",
									"type": "int256"
								},
								{
									"internalType": "int256",
									"name": "za",
									"type": "int256"
								},
								{
									"internalType": "int256",
									"name": "zb",
									"type": "int256"
								}
							],
							"internalType": "struct ZkpZeroOne[]",
							"name": "zkps",
							"type": "tuple[]"
						},
						{
							"internalType": "uint256[]",
							"name": "cls",
							"type": "uint256[]"
						},
						{
							"internalType": "uint256[]",
							"name": "cas",
							"type": "uint256[]"
						},
						{
							"internalType": "uint256[]",
							"name": "cbs",
							"type": "uint256[]"
						},
						{
							"internalType": "uint256[]",
							"name": "cds",
							"type": "uint256[]"
						}
					],
					"internalType": "struct Zkp1N1",
					"name": "zkp1",
					"type": "tuple"
				},
				{
					"components": [
						{
							"internalType": "int256[]",
							"name": "fs",
							"type": "int256[]"
						},
						{
							"internalType": "int256[]",
							"name": "zas",
							"type": "int256[]"
						},
						{
							"internalType": "int256[]",
							"name": "zbs",
							"type": "int256[]"
						},
						{
							"internalType": "int256",
							"name": "zd",
							"type": "int256"
						}
					],
					"internalType": "struct Zkp1N2",
					"name": "zkp2",
					"type": "tuple"
				},
				{
					"internalType": "uint8",
					"name": "nbits",
					"type": "uint8"
				},
				{
					"internalType": "uint256",
					"name": "newCoin",
					"type": "uint256"
				}
			],
			"name": "spendnRemint",
			"outputs": [],
			"stateMutability": "nonpayable",
			"type": "function"
		},
		{
			"inputs": [
				{
					"internalType": "uint256",
					"name": "",
					"type": "uint256"
				}
			],
			"name": "spentCoins",
			"outputs": [
				{
					"internalType": "uint256",
					"name": "",
					"type": "uint256"
				}
			],
			"stateMutability": "view",
			"type": "function"
		},
		{
			"stateMutability": "payable",
			"type": "receive"
		}
	]
}