{
  "contractName": "AnonymousCrowdsourcing",
  "abi": [
    {
      "inputs": [
        {
          "internalType": "uint256",
          "name": "_parkingSpaceNo",
          "type": "uint256"
        },
        {
          "internalType": "uint256",
          "name": "_sensingTime",
          "type": "uint256"
        },
        {
          "internalType": "uint256",
          "name": "_refundTime",
          "type": "uint256"
        },
        {
          "internalType": "address payable",
          "name": "_zeroCoinAddr",
          "type": "address"
        }
      ],
      "stateMutability": "payable",
      "type": "constructor"
    },
    {
      "anonymous": false,
      "inputs": [],
      "name": "AcceptingData",
      "type": "event"
    },
    {
      "anonymous": false,
      "inputs": [],
      "name": "AggregatedData",
      "type": "event"
    },
    {
      "anonymous": false,
      "inputs": [],
      "name": "CreditsIncreased",
      "type": "event"
    },
    {
      "anonymous": false,
      "inputs": [
        {
          "indexed": false,
          "internalType": "address",
          "name": "addr",
          "type": "address"
        },
        {
          "indexed": false,
          "internalType": "uint256",
          "name": "value",
          "type": "uint256"
        }
      ],
      "name": "CreditsReceived",
      "type": "event"
    },
    {
      "anonymous": false,
      "inputs": [
        {
          "indexed": false,
          "internalType": "address",
          "name": "addr",
          "type": "address"
        }
      ],
      "name": "ProvingData",
      "type": "event"
    },
    {
      "anonymous": false,
      "inputs": [],
      "name": "RewardGenerated",
      "type": "event"
    },
    {
      "anonymous": false,
      "inputs": [],
      "name": "Withdrawn",
      "type": "event"
    },
    {
      "anonymous": false,
      "inputs": [
        {
          "indexed": false,
          "internalType": "address",
          "name": "addr",
          "type": "address"
        },
        {
          "indexed": false,
          "internalType": "uint256",
          "name": "amount",
          "type": "uint256"
        }
      ],
      "name": "etherRefund",
      "type": "event"
    },
    {
      "inputs": [
        {
          "internalType": "uint256",
          "name": "",
          "type": "uint256"
        }
      ],
      "name": "Cmm",
      "outputs": [
        {
          "internalType": "uint256",
          "name": "",
          "type": "uint256"
        }
      ],
      "stateMutability": "view",
      "type": "function"
    },
    {
      "inputs": [
        {
          "internalType": "uint256",
          "name": "",
          "type": "uint256"
        }
      ],
      "name": "Cmq",
      "outputs": [
        {
          "internalType": "uint256",
          "name": "",
          "type": "uint256"
        }
      ],
      "stateMutability": "view",
      "type": "function"
    },
    {
      "inputs": [
        {
          "internalType": "uint256",
          "name": "",
          "type": "uint256"
        }
      ],
      "name": "Cmqprime",
      "outputs": [
        {
          "internalType": "uint256",
          "name": "",
          "type": "uint256"
        }
      ],
      "stateMutability": "view",
      "type": "function"
    },
    {
      "inputs": [
        {
          "internalType": "uint256",
          "name": "",
          "type": "uint256"
        }
      ],
      "name": "Cms",
      "outputs": [
        {
          "internalType": "uint256",
          "name": "",
          "type": "uint256"
        }
      ],
      "stateMutability": "view",
      "type": "function"
    },
    {
      "inputs": [
        {
          "internalType": "uint256",
          "name": "",
          "type": "uint256"
        }
      ],
      "name": "Tak",
      "outputs": [
        {
          "internalType": "uint256",
          "name": "",
          "type": "uint256"
        }
      ],
      "stateMutability": "view",
      "type": "function"
    },
    {
      "inputs": [
        {
          "internalType": "uint256",
          "name": "",
          "type": "uint256"
        }
      ],
      "name": "Tm",
      "outputs": [
        {
          "internalType": "uint256",
          "name": "",
          "type": "uint256"
        }
      ],
      "stateMutability": "view",
      "type": "function"
    },
    {
      "inputs": [
        {
          "internalType": "uint256",
          "name": "",
          "type": "uint256"
        }
      ],
      "name": "Tq",
      "outputs": [
        {
          "internalType": "uint256",
          "name": "",
          "type": "uint256"
        }
      ],
      "stateMutability": "view",
      "type": "function"
    },
    {
      "inputs": [],
      "name": "akTm",
      "outputs": [
        {
          "internalType": "uint256",
          "name": "",
          "type": "uint256"
        }
      ],
      "stateMutability": "view",
      "type": "function"
    },
    {
      "inputs": [
        {
          "internalType": "uint256",
          "name": "",
          "type": "uint256"
        }
      ],
      "name": "revealedQPrime",
      "outputs": [
        {
          "internalType": "uint256",
          "name": "",
          "type": "uint256"
        }
      ],
      "stateMutability": "view",
      "type": "function"
    },
    {
      "stateMutability": "payable",
      "type": "receive"
    },
    {
      "inputs": [],
      "name": "getAggregatedResults",
      "outputs": [
        {
          "internalType": "string",
          "name": "",
          "type": "string"
        }
      ],
      "stateMutability": "nonpayable",
      "type": "function"
    },
    {
      "inputs": [],
      "name": "getDataCount",
      "outputs": [
        {
          "internalType": "uint256",
          "name": "",
          "type": "uint256"
        }
      ],
      "stateMutability": "nonpayable",
      "type": "function"
    },
    {
      "inputs": [],
      "name": "addRewardCredits",
      "outputs": [],
      "stateMutability": "payable",
      "type": "function"
    },
    {
      "inputs": [],
      "name": "getSensingTask",
      "outputs": [
        {
          "internalType": "uint256",
          "name": "",
          "type": "uint256"
        },
        {
          "internalType": "uint256",
          "name": "",
          "type": "uint256"
        },
        {
          "internalType": "uint256",
          "name": "",
          "type": "uint256"
        },
        {
          "internalType": "uint256",
          "name": "",
          "type": "uint256"
        }
      ],
      "stateMutability": "view",
      "type": "function"
    },
    {
      "inputs": [
        {
          "components": [
            {
              "internalType": "uint256",
              "name": "c",
              "type": "uint256"
            },
            {
              "internalType": "uint256",
              "name": "cprime",
              "type": "uint256"
            },
            {
              "internalType": "uint256",
              "name": "beta",
              "type": "uint256"
            },
            {
              "internalType": "uint256",
              "name": "zx",
              "type": "uint256"
            },
            {
              "internalType": "uint256",
              "name": "zr",
              "type": "uint256"
            }
          ],
          "internalType": "struct ZkpCm",
          "name": "Cm1",
          "type": "tuple"
        },
        {
          "components": [
            {
              "internalType": "uint256",
              "name": "c",
              "type": "uint256"
            },
            {
              "internalType": "uint256",
              "name": "cprime",
              "type": "uint256"
            },
            {
              "internalType": "uint256",
              "name": "beta",
              "type": "uint256"
            },
            {
              "internalType": "uint256",
              "name": "zx",
              "type": "uint256"
            },
            {
              "internalType": "uint256",
              "name": "zr",
              "type": "uint256"
            }
          ],
          "internalType": "struct ZkpCm",
          "name": "Cm2",
          "type": "tuple"
        }
      ],
      "name": "submitSensingData",
      "outputs": [],
      "stateMutability": "payable",
      "type": "function"
    },
    {
      "inputs": [
        {
          "internalType": "uint256",
          "name": "obs",
          "type": "uint256"
        },
        {
          "components": [
            {
              "internalType": "uint256[]",
              "name": "cs",
              "type": "uint256[]"
            },
            {
              "components": [
                {
                  "internalType": "uint256",
                  "name": "ca",
                  "type": "uint256"
                },
                {
                  "internalType": "uint256",
                  "name": "cb",
                  "type": "uint256"
                },
                {
                  "internalType": "int256",
                  "name": "f",
                  "type": "int256"
                },
                {
                  "internalType": "int256",
                  "name": "za",
                  "type": "int256"
                },
                {
                  "internalType": "int256",
                  "name": "zb",
                  "type": "int256"
                }
              ],
              "internalType": "struct ZkpZeroOne[]",
              "name": "zkps",
              "type": "tuple[]"
            },
            {
              "internalType": "uint256[]",
              "name": "cls",
              "type": "uint256[]"
            },
            {
              "internalType": "uint256[]",
              "name": "cas",
              "type": "uint256[]"
            },
            {
              "internalType": "uint256[]",
              "name": "cbs",
              "type": "uint256[]"
            },
            {
              "internalType": "uint256[]",
              "name": "cds",
              "type": "uint256[]"
            }
          ],
          "internalType": "struct Zkp1N1",
          "name": "zkp1obs",
          "type": "tuple"
        },
        {
          "components": [
            {
              "internalType": "int256[]",
              "name": "fs",
              "type": "int256[]"
            },
            {
              "internalType": "int256[]",
              "name": "zas",
              "type": "int256[]"
            },
            {
              "internalType": "int256[]",
              "name": "zbs",
              "type": "int256[]"
            },
            {
              "internalType": "int256",
              "name": "zd",
              "type": "int256"
            }
          ],
          "internalType": "struct Zkp1N2",
          "name": "zkp2obs",
          "type": "tuple"
        },
        {
          "internalType": "uint8",
          "name": "nbitsobs",
          "type": "uint8"
        },
        {
          "internalType": "uint256",
          "name": "_q",
          "type": "uint256"
        },
        {
          "components": [
            {
              "internalType": "uint256[]",
              "name": "cs",
              "type": "uint256[]"
            },
            {
              "components": [
                {
                  "internalType": "uint256",
                  "name": "ca",
                  "type": "uint256"
                },
                {
                  "internalType": "uint256",
                  "name": "cb",
                  "type": "uint256"
                },
                {
                  "internalType": "int256",
                  "name": "f",
                  "type": "int256"
                },
                {
                  "internalType": "int256",
                  "name": "za",
                  "type": "int256"
                },
                {
                  "internalType": "int256",
                  "name": "zb",
                  "type": "int256"
                }
              ],
              "internalType": "struct ZkpZeroOne[]",
              "name": "zkps",
              "type": "tuple[]"
            },
            {
              "internalType": "uint256[]",
              "name": "cls",
              "type": "uint256[]"
            },
            {
              "internalType": "uint256[]",
              "name": "cas",
              "type": "uint256[]"
            },
            {
              "internalType": "uint256[]",
              "name": "cbs",
              "type": "uint256[]"
            },
            {
              "internalType": "uint256[]",
              "name": "cds",
              "type": "uint256[]"
            }
          ],
          "internalType": "struct Zkp1N1",
          "name": "zkp1q",
          "type": "tuple"
        },
        {
          "components": [
            {
              "internalType": "int256[]",
              "name": "fs",
              "type": "int256[]"
            },
            {
              "internalType": "int256[]",
              "name": "zas",
              "type": "int256[]"
            },
            {
              "internalType": "int256[]",
              "name": "zbs",
              "type": "int256[]"
            },
            {
              "internalType": "int256",
              "name": "zd",
              "type": "int256"
            }
          ],
          "internalType": "struct Zkp1N2",
          "name": "zkp2q",
          "type": "tuple"
        },
        {
          "internalType": "uint8",
          "name": "nbitsq",
          "type": "uint8"
        },
        {
          "internalType": "uint256",
          "name": "_Cms",
          "type": "uint256"
        },
        {
          "components": [
            {
              "internalType": "uint256",
              "name": "c",
              "type": "uint256"
            },
            {
              "internalType": "uint256",
              "name": "cprime",
              "type": "uint256"
            },
            {
              "internalType": "uint256",
              "name": "beta",
              "type": "uint256"
            },
            {
              "internalType": "uint256",
              "name": "zx",
              "type": "uint256"
            },
            {
              "internalType": "uint256",
              "name": "zr",
              "type": "uint256"
            }
          ],
          "internalType": "struct ZkpCm",
          "name": "_Cmqprime",
          "type": "tuple"
        }
      ],
      "name": "proveSubmittedData",
      "outputs": [],
      "stateMutability": "nonpayable",
      "type": "function"
    },
    {
      "inputs": [
        {
          "internalType": "uint256",
          "name": "_qprime",
          "type": "uint256"
        },
        {
          "components": [
            {
              "internalType": "uint256[]",
              "name": "cs",
              "type": "uint256[]"
            },
            {
              "components": [
                {
                  "internalType": "uint256",
                  "name": "ca",
                  "type": "uint256"
                },
                {
                  "internalType": "uint256",
                  "name": "cb",
                  "type": "uint256"
                },
                {
                  "internalType": "int256",
                  "name": "f",
                  "type": "int256"
                },
                {
                  "internalType": "int256",
                  "name": "za",
                  "type": "int256"
                },
                {
                  "internalType": "int256",
                  "name": "zb",
                  "type": "int256"
                }
              ],
              "internalType": "struct ZkpZeroOne[]",
              "name": "zkps",
              "type": "tuple[]"
            },
            {
              "internalType": "uint256[]",
              "name": "cls",
              "type": "uint256[]"
            },
            {
              "internalType": "uint256[]",
              "name": "cas",
              "type": "uint256[]"
            },
            {
              "internalType": "uint256[]",
              "name": "cbs",
              "type": "uint256[]"
            },
            {
              "internalType": "uint256[]",
              "name": "cds",
              "type": "uint256[]"
            }
          ],
          "internalType": "struct Zkp1N1",
          "name": "zkp1qprime",
          "type": "tuple"
        },
        {
          "components": [
            {
              "internalType": "int256[]",
              "name": "fs",
              "type": "int256[]"
            },
            {
              "internalType": "int256[]",
              "name": "zas",
              "type": "int256[]"
            },
            {
              "internalType": "int256[]",
              "name": "zbs",
              "type": "int256[]"
            },
            {
              "internalType": "int256",
              "name": "zd",
              "type": "int256"
            }
          ],
          "internalType": "struct Zkp1N2",
          "name": "zkp2qprime",
          "type": "tuple"
        },
        {
          "internalType": "uint8",
          "name": "nbitsqprime",
          "type": "uint8"
        }
      ],
      "name": "getEtherBack",
      "outputs": [],
      "stateMutability": "nonpayable",
      "type": "function"
    }
  ],
  "bytecode": "0x60806040526345f6a89a6012557f418aeeea6f03066901717a84f4e1c8155212eb247e5a01882d50b38687c3766b601355637c9bc7636014557f016bec42056b48d3f692db5367547b6f559463fdef76bbcaa30397dd149a21af601555604051620050a9380380620050a98339818101604052810190620000819190620002e0565b60003411620000c7576040517f08c379a0000000000000000000000000000000000000000000000000000000008152600401620000be90620003b3565b60405180910390fd5b34600181905550670de0b6b3a7640000600154620000e6919062000433565b60028190555083600381905550336000806101000a81548173ffffffffffffffffffffffffffffffffffffffff021916908373ffffffffffffffffffffffffffffffffffffffff16021790555082426200014191906200046b565b60058190555081426200015591906200046b565b60068190555080601660006101000a81548173ffffffffffffffffffffffffffffffffffffffff021916908373ffffffffffffffffffffffffffffffffffffffff160217905550601454601554601354601254604051620001b6906200022d565b620001c59493929190620004d9565b604051809103906000f080158015620001e2573d6000803e3d6000fd5b50601760006101000a81548173ffffffffffffffffffffffffffffffffffffffff021916908373ffffffffffffffffffffffffffffffffffffffff1602179055505050505062000526565b6124a18062002c0883390190565b600080fd5b6000819050919050565b620002558162000240565b81146200026157600080fd5b50565b60008151905062000275816200024a565b92915050565b600073ffffffffffffffffffffffffffffffffffffffff82169050919050565b6000620002a8826200027b565b9050919050565b620002ba816200029b565b8114620002c657600080fd5b50565b600081519050620002da81620002af565b92915050565b60008060008060808587031215620002fd57620002fc6200023b565b5b60006200030d8782880162000264565b9450506020620003208782880162000264565b9350506040620003338782880162000264565b92505060606200034687828801620002c9565b91505092959194509250565b600082825260208201905092915050565b7f506c656173652073656e64206372656469747320666f7220726577617264732e600082015250565b60006200039b60208362000352565b9150620003a88262000363565b602082019050919050565b60006020820190508181036000830152620003ce816200038c565b9050919050565b7f4e487b7100000000000000000000000000000000000000000000000000000000600052601260045260246000fd5b7f4e487b7100000000000000000000000000000000000000000000000000000000600052601160045260246000fd5b6000620004408262000240565b91506200044d8362000240565b92508262000460576200045f620003d5565b5b828204905092915050565b6000620004788262000240565b9150620004858362000240565b9250827fffffffffffffffffffffffffffffffffffffffffffffffffffffffffffffffff03821115620004bd57620004bc62000404565b5b828201905092915050565b620004d38162000240565b82525050565b6000608082019050620004f06000830187620004c8565b620004ff6020830186620004c8565b6200050e6040830185620004c8565b6200051d6060830184620004c8565b95945050505050565b6126d280620005366000396000f3fe6080604052600436106100f75760003560e01c80637355a4241161008a578063ec98c2c311610059578063ec98c2c31461037d578063f9938e28146103ba578063fa840a45146103f7578063ff3bd1fc1461042057610137565b80637355a424146102e05780638e6208021461030b578063b5af571914610348578063caf1124a1461035257610137565b806337d9a251116100c657806337d9a251146102215780634da24f031461025e57806352a5acce14610287578063568eb9d1146102c457610137565b806304ee37e31461013c578063152464931461016a5780631b76cf53146101a75780632b1cd65b146101e457610137565b36610137577fa828cd9ff16c976ee98f37c4b96645624f01ae6fde47408f3dfd64833c6b9979333460405161012d9291906113eb565b60405180910390a1005b600080fd5b34801561014857600080fd5b5061015161044b565b6040516101619493929190611414565b60405180910390f35b34801561017657600080fd5b50610191600480360381019061018c9190611499565b61046b565b60405161019e91906114c6565b60405180910390f35b3480156101b357600080fd5b506101ce60048036038101906101c99190611499565b61048f565b6040516101db91906114c6565b60405180910390f35b3480156101f057600080fd5b5061020b60048036038101906102069190611499565b6104b3565b60405161021891906114c6565b60405180910390f35b34801561022d57600080fd5b5061024860048036038101906102439190611499565b6104d7565b60405161025591906114c6565b60405180910390f35b34801561026a57600080fd5b5061028560048036038101906102809190611b65565b6104fb565b005b34801561029357600080fd5b506102ae60048036038101906102a99190611499565b6108eb565b6040516102bb91906114c6565b60405180910390f35b6102de60048036038101906102d99190611cb4565b61090f565b005b3480156102ec57600080fd5b506102f5610bd6565b60405161030291906114c6565b60405180910390f35b34801561031757600080fd5b50610332600480360381019061032d9190611499565b610c45565b60405161033f91906114c6565b60405180910390f35b610350610c69565b005b34801561035e57600080fd5b50610367610d24565b6040516103749190611d7d565b60405180910390f35b34801561038957600080fd5b506103a4600480360381019061039f9190611499565b611072565b6040516103b191906114c6565b60405180910390f35b3480156103c657600080fd5b506103e160048036038101906103dc9190611499565b611096565b6040516103ee91906114c6565b60405180910390f35b34801561040357600080fd5b5061041e60048036038101906104199190611d9f565b6110ba565b005b34801561042c57600080fd5b506104356112d3565b60405161044291906114c6565b60405180910390f35b600080600080600354600554600654600254935093509350935090919293565b600d818154811061047b57600080fd5b906000526020600020016000915090505481565b6009818154811061049f57600080fd5b906000526020600020016000915090505481565b600a81815481106104c357600080fd5b906000526020600020016000915090505481565b600f81815481106104e757600080fd5b906000526020600020016000915090505481565b60008054906101000a900473ffffffffffffffffffffffffffffffffffffffff1673ffffffffffffffffffffffffffffffffffffffff163373ffffffffffffffffffffffffffffffffffffffff16141561055457600080fd5b60011515601760009054906101000a900473ffffffffffffffffffffffffffffffffffffffff1673ffffffffffffffffffffffffffffffffffffffff166322b32dfd8b8b8b6040518463ffffffff1660e01b81526004016105b7939291906121fd565b6020604051808303816000875af11580156105d6573d6000803e3d6000fd5b505050506040513d601f19601f820116820180604052508101906105fa919061227a565b15151480156106ae575060011515601760009054906101000a900473ffffffffffffffffffffffffffffffffffffffff1673ffffffffffffffffffffffffffffffffffffffff166322b32dfd8787876040518463ffffffff1660e01b8152600401610667939291906121fd565b6020604051808303816000875af1158015610686573d6000803e3d6000fd5b505050506040513d601f19601f820116820180604052508101906106aa919061227a565b1515145b6106b757600080fd5b60011515601760009054906101000a900473ffffffffffffffffffffffffffffffffffffffff1673ffffffffffffffffffffffffffffffffffffffff166309f175c1836040518263ffffffff1660e01b8152600401610716919061230f565b602060405180830381865afa158015610733573d6000803e3d6000fd5b505050506040513d601f19601f82011682018060405250810190610757919061227a565b15151461076357600080fd5b60018a1480610772575060008a145b61077b57600080fd5b60005b600c805490508110156107ff5786600c82815481106107a05761079f61232a565b5b906000526020600020015414156107ec576040517f08c379a00000000000000000000000000000000000000000000000000000000081526004016107e3906123a5565b60405180910390fd5b80806107f7906123f4565b91505061077e565b50600b8a9080600181540180825580915050600190039060005260206000200160009091909190915055600c869080600181540180825580915050600190039060005260206000200160009091909190915055600d829080600181540180825580915050600190039060005260206000200160009091909190915055600e816000015190806001815401808255809150506001900390600052602060002001600090919091909150557fd7af40570cd7f5f0e1be0997fb6c9e15e4bb0e94e95c76709e186ab29b43986e336040516108d7919061243d565b60405180910390a150505050505050505050565b600e81815481106108fb57600080fd5b906000526020600020016000915090505481565b60008054906101000a900473ffffffffffffffffffffffffffffffffffffffff1673ffffffffffffffffffffffffffffffffffffffff163373ffffffffffffffffffffffffffffffffffffffff16141561096857600080fd5b670de0b6b3a764000034146109b2576040517f08c379a00000000000000000000000000000000000000000000000000000000081526004016109a9906124ca565b60405180910390fd5b60011515601760009054906101000a900473ffffffffffffffffffffffffffffffffffffffff1673ffffffffffffffffffffffffffffffffffffffff166309f175c1846040518263ffffffff1660e01b8152600401610a11919061230f565b602060405180830381865afa158015610a2e573d6000803e3d6000fd5b505050506040513d601f19601f82011682018060405250810190610a52919061227a565b1515148015610b00575060011515601760009054906101000a900473ffffffffffffffffffffffffffffffffffffffff1673ffffffffffffffffffffffffffffffffffffffff166309f175c1836040518263ffffffff1660e01b8152600401610abb919061230f565b602060405180830381865afa158015610ad8573d6000803e3d6000fd5b505050506040513d601f19601f82011682018060405250810190610afc919061227a565b1515145b610b0957600080fd5b6008339080600181540180825580915050600190039060005260206000200160009091909190916101000a81548173ffffffffffffffffffffffffffffffffffffffff021916908373ffffffffffffffffffffffffffffffffffffffff1602179055506000826000015190506000826000015190506009829080600181540180825580915050600190039060005260206000200160009091909190915055600a81908060018154018082558091505060019003906000526020600020016000909190919091505550505050565b60008060009054906101000a900473ffffffffffffffffffffffffffffffffffffffff1673ffffffffffffffffffffffffffffffffffffffff163373ffffffffffffffffffffffffffffffffffffffff1614610c3157600080fd5b600b80549050600481905550600454905090565b600c8181548110610c5557600080fd5b906000526020600020016000915090505481565b60008054906101000a900473ffffffffffffffffffffffffffffffffffffffff1673ffffffffffffffffffffffffffffffffffffffff163373ffffffffffffffffffffffffffffffffffffffff1614610cc157600080fd5b3460016000828254610cd391906124ea565b92505081905550670de0b6b3a7640000600154610cf0919061256f565b6002819055507f9fa2f5fb280eee942e87fdf32de60bac1c4349a22c8458b671859aae5a07623760405160405180910390a1565b606060008054906101000a900473ffffffffffffffffffffffffffffffffffffffff1673ffffffffffffffffffffffffffffffffffffffff163373ffffffffffffffffffffffffffffffffffffffff1614610d7e57600080fd5b600080606060005b600b80549050811015610e17576001600b8281548110610da957610da861232a565b5b90600052602060002001541415610dcd578380610dc5906123f4565b945050610e04565b6000600b8281548110610de357610de261232a565b5b90600052602060002001541415610e03578280610dff906123f4565b9350505b5b8080610e0f906123f4565b915050610d86565b50818310610e645760016011819055506040518060400160405280600981526020017f417661696c61626c6500000000000000000000000000000000000000000000008152509050610ea5565b60006011819055506040518060400160405280600b81526020017f556e617661696c61626c6500000000000000000000000000000000000000000081525090505b60005b600b80549050811015610f4a57601154600b8281548110610ecc57610ecb61232a565b5b9060005260206000200154148015610eea5750600254601080549050105b15610f37576010600d8281548110610f0557610f0461232a565b5b906000526020600020015490806001815401808255809150506001900390600052602060002001600090919091909150555b8080610f42906123f4565b915050610ea8565b50610fc7601660009054906101000a900473ffffffffffffffffffffffffffffffffffffffff166010805480602002602001604051908101604052809291908181526020018280548015610fbd57602002820191906000526020600020905b815481526020019060010190808311610fa9575b50505050506112d9565b6002546010805490501015611069576000670de0b6b3a7640000601080549050600254610ff491906125a0565b610ffe91906125d4565b905060008054906101000a900473ffffffffffffffffffffffffffffffffffffffff1673ffffffffffffffffffffffffffffffffffffffff166108fc829081150290604051600060405180830381858888f19350505050158015611066573d6000803e3d6000fd5b50505b80935050505090565b6010818154811061108257600080fd5b906000526020600020016000915090505481565b600b81815481106110a657600080fd5b906000526020600020016000915090505481565b60008054906101000a900473ffffffffffffffffffffffffffffffffffffffff1673ffffffffffffffffffffffffffffffffffffffff163373ffffffffffffffffffffffffffffffffffffffff16141561111357600080fd5b60005b600f805490508110156111615784600f82815481106111385761113761232a565b5b9060005260206000200154141561114e57600080fd5b8080611159906123f4565b915050611116565b5060011515601760009054906101000a900473ffffffffffffffffffffffffffffffffffffffff1673ffffffffffffffffffffffffffffffffffffffff166322b32dfd8585856040518463ffffffff1660e01b81526004016111c5939291906121fd565b6020604051808303816000875af11580156111e4573d6000803e3d6000fd5b505050506040513d601f19601f82011682018060405250810190611208919061227a565b15151461121457600080fd5b600f8490806001815401808255809150506001900390600052602060002001600090919091909150553373ffffffffffffffffffffffffffffffffffffffff166108fc670de0b6b3a76400009081150290604051600060405180830381858888f1935050505015801561128b573d6000803e3d6000fd5b507fcfdb447677de4c6a2d0236986b3a97471105966e41efe3e103788bedb2cd63f033670de0b6b3a76400006040516112c5929190612673565b60405180910390a150505050565b60115481565b600082905060005b825181101561138b578173ffffffffffffffffffffffffffffffffffffffff1663a0712d68670de0b6b3a76400008584815181106113225761132161232a565b5b60200260200101516040518363ffffffff1660e01b815260040161134691906114c6565b6000604051808303818588803b15801561135f57600080fd5b505af1158015611373573d6000803e3d6000fd5b50505050508080611383906123f4565b9150506112e1565b50505050565b600073ffffffffffffffffffffffffffffffffffffffff82169050919050565b60006113bc82611391565b9050919050565b6113cc816113b1565b82525050565b6000819050919050565b6113e5816113d2565b82525050565b600060408201905061140060008301856113c3565b61140d60208301846113dc565b9392505050565b600060808201905061142960008301876113dc565b61143660208301866113dc565b61144360408301856113dc565b61145060608301846113dc565b95945050505050565b6000604051905090565b600080fd5b600080fd5b611476816113d2565b811461148157600080fd5b50565b6000813590506114938161146d565b92915050565b6000602082840312156114af576114ae611463565b5b60006114bd84828501611484565b91505092915050565b60006020820190506114db60008301846113dc565b92915050565b600080fd5b6000601f19601f8301169050919050565b7f4e487b7100000000000000000000000000000000000000000000000000000000600052604160045260246000fd5b61152f826114e6565b810181811067ffffffffffffffff8211171561154e5761154d6114f7565b5b80604052505050565b6000611561611459565b905061156d8282611526565b919050565b600080fd5b600080fd5b600067ffffffffffffffff821115611597576115966114f7565b5b602082029050602081019050919050565b600080fd5b60006115c06115bb8461157c565b611557565b905080838252602082019050602084028301858111156115e3576115e26115a8565b5b835b8181101561160c57806115f88882611484565b8452602084019350506020810190506115e5565b5050509392505050565b600082601f83011261162b5761162a611577565b5b813561163b8482602086016115ad565b91505092915050565b600067ffffffffffffffff82111561165f5761165e6114f7565b5b602082029050602081019050919050565b6000819050919050565b61168381611670565b811461168e57600080fd5b50565b6000813590506116a08161167a565b92915050565b600060a082840312156116bc576116bb6114e1565b5b6116c660a0611557565b905060006116d684828501611484565b60008301525060206116ea84828501611484565b60208301525060406116fe84828501611691565b604083015250606061171284828501611691565b606083015250608061172684828501611691565b60808301525092915050565b600061174561174084611644565b611557565b90508083825260208201905060a08402830185811115611768576117676115a8565b5b835b81811015611791578061177d88826116a6565b84526020840193505060a08101905061176a565b5050509392505050565b600082601f8301126117b0576117af611577565b5b81356117c0848260208601611732565b91505092915050565b600060c082840312156117df576117de6114e1565b5b6117e960c0611557565b9050600082013567ffffffffffffffff81111561180957611808611572565b5b61181584828501611616565b600083015250602082013567ffffffffffffffff81111561183957611838611572565b5b6118458482850161179b565b602083015250604082013567ffffffffffffffff81111561186957611868611572565b5b61187584828501611616565b604083015250606082013567ffffffffffffffff81111561189957611898611572565b5b6118a584828501611616565b606083015250608082013567ffffffffffffffff8111156118c9576118c8611572565b5b6118d584828501611616565b60808301525060a082013567ffffffffffffffff8111156118f9576118f8611572565b5b61190584828501611616565b60a08301525092915050565b600067ffffffffffffffff82111561192c5761192b6114f7565b5b602082029050602081019050919050565b600061195061194b84611911565b611557565b90508083825260208201905060208402830185811115611973576119726115a8565b5b835b8181101561199c57806119888882611691565b845260208401935050602081019050611975565b5050509392505050565b600082601f8301126119bb576119ba611577565b5b81356119cb84826020860161193d565b91505092915050565b6000608082840312156119ea576119e96114e1565b5b6119f46080611557565b9050600082013567ffffffffffffffff811115611a1457611a13611572565b5b611a20848285016119a6565b600083015250602082013567ffffffffffffffff811115611a4457611a43611572565b5b611a50848285016119a6565b602083015250604082013567ffffffffffffffff811115611a7457611a73611572565b5b611a80848285016119a6565b6040830152506060611a9484828501611691565b60608301525092915050565b600060ff82169050919050565b611ab681611aa0565b8114611ac157600080fd5b50565b600081359050611ad381611aad565b92915050565b600060a08284031215611aef57611aee6114e1565b5b611af960a0611557565b90506000611b0984828501611484565b6000830152506020611b1d84828501611484565b6020830152506040611b3184828501611484565b6040830152506060611b4584828501611484565b6060830152506080611b5984828501611484565b60808301525092915050565b6000806000806000806000806000806101c08b8d031215611b8957611b88611463565b5b6000611b978d828e01611484565b9a505060208b013567ffffffffffffffff811115611bb857611bb7611468565b5b611bc48d828e016117c9565b99505060408b013567ffffffffffffffff811115611be557611be4611468565b5b611bf18d828e016119d4565b9850506060611c028d828e01611ac4565b9750506080611c138d828e01611484565b96505060a08b013567ffffffffffffffff811115611c3457611c33611468565b5b611c408d828e016117c9565b95505060c08b013567ffffffffffffffff811115611c6157611c60611468565b5b611c6d8d828e016119d4565b94505060e0611c7e8d828e01611ac4565b935050610100611c908d828e01611484565b925050610120611ca28d828e01611ad9565b9150509295989b9194979a5092959850565b6000806101408385031215611ccc57611ccb611463565b5b6000611cda85828601611ad9565b92505060a0611ceb85828601611ad9565b9150509250929050565b600081519050919050565b600082825260208201905092915050565b60005b83811015611d2f578082015181840152602081019050611d14565b83811115611d3e576000848401525b50505050565b6000611d4f82611cf5565b611d598185611d00565b9350611d69818560208601611d11565b611d72816114e6565b840191505092915050565b60006020820190508181036000830152611d978184611d44565b905092915050565b60008060008060808587031215611db957611db8611463565b5b6000611dc787828801611484565b945050602085013567ffffffffffffffff811115611de857611de7611468565b5b611df4878288016117c9565b935050604085013567ffffffffffffffff811115611e1557611e14611468565b5b611e21878288016119d4565b9250506060611e3287828801611ac4565b91505092959194509250565b600081519050919050565b600082825260208201905092915050565b6000819050602082019050919050565b611e73816113d2565b82525050565b6000611e858383611e6a565b60208301905092915050565b6000602082019050919050565b6000611ea982611e3e565b611eb38185611e49565b9350611ebe83611e5a565b8060005b83811015611eef578151611ed68882611e79565b9750611ee183611e91565b925050600181019050611ec2565b5085935050505092915050565b600081519050919050565b600082825260208201905092915050565b6000819050602082019050919050565b611f3181611670565b82525050565b60a082016000820151611f4d6000850182611e6a565b506020820151611f606020850182611e6a565b506040820151611f736040850182611f28565b506060820151611f866060850182611f28565b506080820151611f996080850182611f28565b50505050565b6000611fab8383611f37565b60a08301905092915050565b6000602082019050919050565b6000611fcf82611efc565b611fd98185611f07565b9350611fe483611f18565b8060005b83811015612015578151611ffc8882611f9f565b975061200783611fb7565b925050600181019050611fe8565b5085935050505092915050565b600060c083016000830151848203600086015261203f8282611e9e565b915050602083015184820360208601526120598282611fc4565b915050604083015184820360408601526120738282611e9e565b9150506060830151848203606086015261208d8282611e9e565b915050608083015184820360808601526120a78282611e9e565b91505060a083015184820360a08601526120c18282611e9e565b9150508091505092915050565b600081519050919050565b600082825260208201905092915050565b6000819050602082019050919050565b60006121068383611f28565b60208301905092915050565b6000602082019050919050565b600061212a826120ce565b61213481856120d9565b935061213f836120ea565b8060005b8381101561217057815161215788826120fa565b975061216283612112565b925050600181019050612143565b5085935050505092915050565b6000608083016000830151848203600086015261219a828261211f565b915050602083015184820360208601526121b4828261211f565b915050604083015184820360408601526121ce828261211f565b91505060608301516121e36060860182611f28565b508091505092915050565b6121f781611aa0565b82525050565b600060608201905081810360008301526122178186612022565b9050818103602083015261222b818561217d565b905061223a60408301846121ee565b949350505050565b60008115159050919050565b61225781612242565b811461226257600080fd5b50565b6000815190506122748161224e565b92915050565b6000602082840312156122905761228f611463565b5b600061229e84828501612265565b91505092915050565b60a0820160008201516122bd6000850182611e6a565b5060208201516122d06020850182611e6a565b5060408201516122e36040850182611e6a565b5060608201516122f66060850182611e6a565b5060808201516123096080850182611e6a565b50505050565b600060a08201905061232460008301846122a7565b92915050565b7f4e487b7100000000000000000000000000000000000000000000000000000000600052603260045260246000fd5b7f7120686173206265656e2072657665616c6564206265666f7265000000000000600082015250565b600061238f601a83611d00565b915061239a82612359565b602082019050919050565b600060208201905081810360008301526123be81612382565b9050919050565b7f4e487b7100000000000000000000000000000000000000000000000000000000600052601160045260246000fd5b60006123ff826113d2565b91507fffffffffffffffffffffffffffffffffffffffffffffffffffffffffffffffff821415612432576124316123c5565b5b600182019050919050565b600060208201905061245260008301846113c3565b92915050565b7f596f75206e65656420746f207374616b65203120457468657220746f2073756260008201527f6d69742064617461210000000000000000000000000000000000000000000000602082015250565b60006124b4602983611d00565b91506124bf82612458565b604082019050919050565b600060208201905081810360008301526124e3816124a7565b9050919050565b60006124f5826113d2565b9150612500836113d2565b9250827fffffffffffffffffffffffffffffffffffffffffffffffffffffffffffffffff03821115612535576125346123c5565b5b828201905092915050565b7f4e487b7100000000000000000000000000000000000000000000000000000000600052601260045260246000fd5b600061257a826113d2565b9150612585836113d2565b92508261259557612594612540565b5b828204905092915050565b60006125ab826113d2565b91506125b6836113d2565b9250828210156125c9576125c86123c5565b5b828203905092915050565b60006125df826113d2565b91506125ea836113d2565b9250817fffffffffffffffffffffffffffffffffffffffffffffffffffffffffffffffff0483118215151615612623576126226123c5565b5b828202905092915050565b6000819050919050565b6000819050919050565b600061265d6126586126538461262e565b612638565b6113d2565b9050919050565b61266d81612642565b82525050565b600060408201905061268860008301856113c3565b6126956020830184612664565b939250505056fea26469706673582212208ebc716dd4dbef066659e9e728188117c155766593d16cb0fb1112034a073a6d64736f6c634300080a003360806040523480156200001157600080fd5b50604051620024a1380380620024a183398181016040528101906200003791906200009d565b83600081905550826001819055508160028190555080600381905550505050506200010f565b600080fd5b6000819050919050565b620000778162000062565b81146200008357600080fd5b50565b60008151905062000097816200006c565b92915050565b60008060008060808587031215620000ba57620000b96200005d565b5b6000620000ca8782880162000086565b9450506020620000dd8782880162000086565b9350506040620000f08782880162000086565b9250506060620001038782880162000086565b91505092959194509250565b612382806200011f6000396000f3fe608060405234801561001057600080fd5b50600436106100ea5760003560e01c80637e58f9011161008c578063a1991acc11610066578063a1991acc146102bb578063a6806d91146102eb578063ab2252061461031b578063b455cb4b1461034b576100ea565b80637e58f9011461022b578063999779691461025b5780639cd479b61461028b576100ea565b80631be57fbb116100c85780631be57fbb1461017f578063229436461461019b57806322b32dfd146101cb57806360c4b7f1146101fb576100ea565b806309f175c1146100ef5780631351df0b1461011f578063156896741461014f575b600080fd5b61010960048036038101906101049190611349565b61037b565b6040516101169190611391565b60405180910390f35b610139600480360381019061013491906113ac565b610431565b60405161014691906113fb565b60405180910390f35b6101696004803603810190610164919061144c565b61047d565b60405161017691906113fb565b60405180910390f35b61019960048036038101906101949190611518565b6104cb565b005b6101b560048036038101906101b09190611591565b610626565b6040516101c291906115e0565b60405180910390f35b6101e560048036038101906101e09190611a62565b61063a565b6040516101f29190611391565b60405180910390f35b610215600480360381019061021091906113ac565b610854565b60405161022291906113fb565b60405180910390f35b61024560048036038101906102409190611aed565b6108a2565b60405161025291906113fb565b60405180910390f35b61027560048036038101906102709190611b36565b61097f565b6040516102829190611391565b60405180910390f35b6102a560048036038101906102a09190611bd5565b610a22565b6040516102b291906113fb565b60405180910390f35b6102d560048036038101906102d09190611c1e565b610c95565b6040516102e291906113fb565b60405180910390f35b610305600480360381019061030091906113ac565b610cb7565b60405161031291906113fb565b60405180910390f35b610335600480360381019061033091906113ac565b610cd8565b60405161034291906113fb565b60405180910390f35b61036560048036038101906103609190611c4b565b610cf6565b60405161037291906113fb565b60405180910390f35b600080826000015190506000836020015190506000846040015190506000856060015190506000866080015190506000600254806103bc576103bb611c8b565b5b6103d583600254600154610d179092919063ffffffff16565b6103ee85600254600054610d179092919063ffffffff16565b0990506000610406866104018988610cb7565b610cd8565b90508082141561042057600197505050505050505061042c565b60009750505050505050505b919050565b6000807fffffffffffffffffffffffffffffffffffffffffffffffffffffffffffffffff90506002548061046857610467611c8b565b5b6104728483610cf6565b850991505092915050565b6000600254806104905761048f611c8b565b5b6104a983600254600154610e319092919063ffffffff16565b6104c285600254600054610e319092919063ffffffff16565b09905092915050565b600081600001519050600082602001519050600083604001519050600084606001519050600085608001519050600087868660405160200161050f93929190611cdb565b6040516020818303038152906040528051906020012060001c73__SafeMath______________________________63f43f523a90916003546040518363ffffffff1660e01b8152600401610564929190611d27565b602060405180830381865af4158015610581573d6000803e3d6000fd5b505050506040513d601f19601f820116820180604052508101906105a59190611d65565b905060006105b3858561047d565b905060006105ca6105c48b85610cb7565b89610cd8565b905060006105d960008661047d565b905060006105fb6105f58d8a886105f09190611dc1565b610cf6565b8a610cd8565b9050828414801561060b57508082145b61061857610617611e55565b5b505050505050505050505050565b600060018260ff1684901c16905092915050565b6000808460000151905060008560400151905060008660a001519050600086600001519050600087606001519050610676848a60200151610e72565b60006106818a610a22565b9050600081905061069e868c60600151868d60200151858e610ed4565b6106b4868c60800151868d60400151858e610fa3565b60006001905060005b88518110156107b05760006001905060005b8c60ff168160ff16101561076c5760016106e98483610626565b60ff16141561072257878160ff168151811061070857610707611e84565b5b60200260200101518261071b9190611eb3565b9150610759565b878160ff168151811061073857610737611e84565b5b60200260200101518561074b9190611dc1565b826107569190611eb3565b91505b808061076490611fca565b9150506106cf565b5061079a836107958c858151811061078757610786611e84565b5b602002602001015184610cf6565b610cd8565b92505080806107a890611ff4565b9150506106bd565b5060005b8a60ff1681101561081557610800826107fb8984815181106107d9576107d8611e84565b5b602002602001015184876107ed919061218c565b6107f6906121f8565b610cf6565b610cd8565b9150808061080d90611ff4565b9150506107b4565b50600061082360008661047d565b90508082141561083f576001995050505050505050505061084d565b600099505050505050505050505b9392505050565b60006002548061086757610866611c8b565b5b61088083600254600154610d179092919063ffffffff16565b61089985600254600054610d179092919063ffffffff16565b09905092915050565b6000806001905060005b83518110156108f857600254806108c6576108c5611c8b565b5b8482815181106108d9576108d8611e84565b5b60200260200101518309915080806108f090611ff4565b9150506108ac565b508073__SafeMath______________________________63f43f523a90916002546040518363ffffffff1660e01b8152600401610936929190611d27565b602060405180830381865af4158015610953573d6000803e3d6000fd5b505050506040513d601f19601f820116820180604052508101906109779190611d65565b915050919050565b6000808460000151905060005b8151811015610a0b576109d98282815181106109ab576109aa611e84565b5b60200260200101516109d46109bf8a61107e565b600254600054610e319092919063ffffffff16565b610cd8565b8282815181106109ec576109eb611e84565b5b6020026020010181815250508080610a0390611ff4565b91505061098c565b50610a1785858561063a565b915050949350505050565b6000808260000151905060008360400151905060008460600151905060008560800151905060008660a0015190506000805b8651811015610aa05760025480610a6e57610a6d611c8b565b5b878281518110610a8157610a80611e84565b5b6020026020010151830891508080610a9890611ff4565b915050610a54565b5060005b8551811015610af05760025480610abe57610abd611c8b565b5b868281518110610ad157610ad0611e84565b5b6020026020010151830891508080610ae890611ff4565b915050610aa4565b5060005b8451811015610b405760025480610b0e57610b0d611c8b565b5b858281518110610b2157610b20611e84565b5b6020026020010151830891508080610b3890611ff4565b915050610af4565b5060005b8351811015610b905760025480610b5e57610b5d611c8b565b5b848281518110610b7157610b70611e84565b5b6020026020010151830891508080610b8890611ff4565b915050610b44565b5060005b8251811015610be05760025480610bae57610bad611c8b565b5b838281518110610bc157610bc0611e84565b5b6020026020010151830891508080610bd890611ff4565b915050610b94565b5080604051602001610bf29190612241565b6040516020818303038152906040528051906020012060001c73__SafeMath______________________________63f43f523a90916003546040518363ffffffff1660e01b8152600401610c47929190611d27565b602060405180830381865af4158015610c64573d6000803e3d6000fd5b505050506040513d601f19601f82011682018060405250810190610c889190611d65565b9650505050505050919050565b6000610cb082600254600054610d179092919063ffffffff16565b9050919050565b6000610cd08260025485610d179092919063ffffffff16565b905092915050565b600060025480610ceb57610cea611c8b565b5b828409905092915050565b6000610d0f8260025485610e319092919063ffffffff16565b905092915050565b600080610d22611199565b610d2a6111bb565b602081600060068110610d4057610d3f611e84565b5b602002018181525050602081600160068110610d5f57610d5e611e84565b5b602002018181525050602081600260068110610d7e57610d7d611e84565b5b6020020181815250508681600360068110610d9c57610d9b611e84565b5b6020020181815250508581600460068110610dba57610db9611e84565b5b6020020181815250508481600560068110610dd857610dd7611e84565b5b60200201818152505060208260c08360056107d05a03fa92508260008114610dff57610e01565bfe5b5082610e0c57600080fd5b81600060018110610e2057610e1f611e84565b5b602002015193505050509392505050565b6000808312610e4c57610e45848484610d17565b9050610e6b565b610e68610e598584611090565b610e6285611150565b84610d17565b90505b9392505050565b60005b8251811015610ecf57610ebc838281518110610e9457610e93611e84565b5b6020026020010151838381518110610eaf57610eae611e84565b5b60200260200101516104cb565b8080610ec790611ff4565b915050610e75565b505050565b60005b8160ff16811015610f9a576000858281518110610ef757610ef6611e84565b5b602002602001015190506000610f4a610f2a8a8581518110610f1c57610f1b611e84565b5b602002602001015187610cf6565b898581518110610f3d57610f3c611e84565b5b6020026020010151610cd8565b90506000610f7283888681518110610f6557610f64611e84565b5b602002602001015161047d565b9050808214610f8457610f83611e55565b5b5050508080610f9290611ff4565b915050610ed7565b50505050505050565b60005b8160ff16811015611075576000858281518110610fc657610fc5611e84565b5b6020026020010151905060006110246110048a8581518110610feb57610fea611e84565b5b60200260200101518488610fff9190611dc1565b610cf6565b89858151811061101757611016611e84565b5b6020026020010151610cd8565b9050600061104d60008886815181106110405761103f611e84565b5b602002602001015161047d565b905080821461105f5761105e611e55565b5b505050808061106d90611ff4565b915050610fa6565b50505050505050565b600061108982611186565b9050919050565b6000818311156110a95781836110a6919061225c565b92505b600080600190506000849050600086905060005b600082146111185781836110d1919061228d565b90508384826110e09190611eb3565b866110eb9190611dc1565b8384846110f891906122be565b866111039190612318565b809550819650829750839850505050506110bd565b60008512156111415761112a85611150565b876111359190612318565b9550505050505061114a565b84955050505050505b92915050565b60008082131561116257819050611181565b600082121561117c5781611175906121f8565b9050611181565b600090505b919050565b600081611192906121f8565b9050919050565b6040518060200160405280600190602082028036833780820191505090505090565b6040518060c00160405280600690602082028036833780820191505090505090565b6000604051905090565b600080fd5b600080fd5b600080fd5b6000601f19601f8301169050919050565b7f4e487b7100000000000000000000000000000000000000000000000000000000600052604160045260246000fd5b61123f826111f6565b810181811067ffffffffffffffff8211171561125e5761125d611207565b5b80604052505050565b60006112716111dd565b905061127d8282611236565b919050565b600080fd5b6000819050919050565b61129a81611287565b81146112a557600080fd5b50565b6000813590506112b781611291565b92915050565b600060a082840312156112d3576112d26111f1565b5b6112dd60a0611267565b905060006112ed848285016112a8565b6000830152506020611301848285016112a8565b6020830152506040611315848285016112a8565b6040830152506060611329848285016112a8565b606083015250608061133d848285016112a8565b60808301525092915050565b600060a0828403121561135f5761135e6111e7565b5b600061136d848285016112bd565b91505092915050565b60008115159050919050565b61138b81611376565b82525050565b60006020820190506113a66000830184611382565b92915050565b600080604083850312156113c3576113c26111e7565b5b60006113d1858286016112a8565b92505060206113e2858286016112a8565b9150509250929050565b6113f581611287565b82525050565b600060208201905061141060008301846113ec565b92915050565b6000819050919050565b61142981611416565b811461143457600080fd5b50565b60008135905061144681611420565b92915050565b60008060408385031215611463576114626111e7565b5b600061147185828601611437565b925050602061148285828601611437565b9150509250929050565b600060a082840312156114a2576114a16111f1565b5b6114ac60a0611267565b905060006114bc848285016112a8565b60008301525060206114d0848285016112a8565b60208301525060406114e484828501611437565b60408301525060606114f884828501611437565b606083015250608061150c84828501611437565b60808301525092915050565b60008060c0838503121561152f5761152e6111e7565b5b600061153d858286016112a8565b925050602061154e8582860161148c565b9150509250929050565b600060ff82169050919050565b61156e81611558565b811461157957600080fd5b50565b60008135905061158b81611565565b92915050565b600080604083850312156115a8576115a76111e7565b5b60006115b6858286016112a8565b92505060206115c78582860161157c565b9150509250929050565b6115da81611558565b82525050565b60006020820190506115f560008301846115d1565b92915050565b600080fd5b600067ffffffffffffffff82111561161b5761161a611207565b5b602082029050602081019050919050565b600080fd5b600061164461163f84611600565b611267565b905080838252602082019050602084028301858111156116675761166661162c565b5b835b81811015611690578061167c88826112a8565b845260208401935050602081019050611669565b5050509392505050565b600082601f8301126116af576116ae6115fb565b5b81356116bf848260208601611631565b91505092915050565b600067ffffffffffffffff8211156116e3576116e2611207565b5b602082029050602081019050919050565b6000611707611702846116c8565b611267565b90508083825260208201905060a0840283018581111561172a5761172961162c565b5b835b81811015611753578061173f888261148c565b84526020840193505060a08101905061172c565b5050509392505050565b600082601f830112611772576117716115fb565b5b81356117828482602086016116f4565b91505092915050565b600060c082840312156117a1576117a06111f1565b5b6117ab60c0611267565b9050600082013567ffffffffffffffff8111156117cb576117ca611282565b5b6117d78482850161169a565b600083015250602082013567ffffffffffffffff8111156117fb576117fa611282565b5b6118078482850161175d565b602083015250604082013567ffffffffffffffff81111561182b5761182a611282565b5b6118378482850161169a565b604083015250606082013567ffffffffffffffff81111561185b5761185a611282565b5b6118678482850161169a565b606083015250608082013567ffffffffffffffff81111561188b5761188a611282565b5b6118978482850161169a565b60808301525060a082013567ffffffffffffffff8111156118bb576118ba611282565b5b6118c78482850161169a565b60a08301525092915050565b600067ffffffffffffffff8211156118ee576118ed611207565b5b602082029050602081019050919050565b600061191261190d846118d3565b611267565b905080838252602082019050602084028301858111156119355761193461162c565b5b835b8181101561195e578061194a8882611437565b845260208401935050602081019050611937565b5050509392505050565b600082601f83011261197d5761197c6115fb565b5b813561198d8482602086016118ff565b91505092915050565b6000608082840312156119ac576119ab6111f1565b5b6119b66080611267565b9050600082013567ffffffffffffffff8111156119d6576119d5611282565b5b6119e284828501611968565b600083015250602082013567ffffffffffffffff811115611a0657611a05611282565b5b611a1284828501611968565b602083015250604082013567ffffffffffffffff811115611a3657611a35611282565b5b611a4284828501611968565b6040830152506060611a5684828501611437565b60608301525092915050565b600080600060608486031215611a7b57611a7a6111e7565b5b600084013567ffffffffffffffff811115611a9957611a986111ec565b5b611aa58682870161178b565b935050602084013567ffffffffffffffff811115611ac657611ac56111ec565b5b611ad286828701611996565b9250506040611ae38682870161157c565b9150509250925092565b600060208284031215611b0357611b026111e7565b5b600082013567ffffffffffffffff811115611b2157611b206111ec565b5b611b2d8482850161169a565b91505092915050565b60008060008060808587031215611b5057611b4f6111e7565b5b6000611b5e878288016112a8565b945050602085013567ffffffffffffffff811115611b7f57611b7e6111ec565b5b611b8b8782880161178b565b935050604085013567ffffffffffffffff811115611bac57611bab6111ec565b5b611bb887828801611996565b9250506060611bc98782880161157c565b91505092959194509250565b600060208284031215611beb57611bea6111e7565b5b600082013567ffffffffffffffff811115611c0957611c086111ec565b5b611c158482850161178b565b91505092915050565b600060208284031215611c3457611c336111e7565b5b6000611c42848285016112a8565b91505092915050565b60008060408385031215611c6257611c616111e7565b5b6000611c70858286016112a8565b9250506020611c8185828601611437565b9150509250929050565b7f4e487b7100000000000000000000000000000000000000000000000000000000600052601260045260246000fd5b6000819050919050565b611cd5611cd082611287565b611cba565b82525050565b6000611ce78286611cc4565b602082019150611cf78285611cc4565b602082019150611d078284611cc4565b602082019150819050949350505050565b611d2181611287565b82525050565b6000604082019050611d3c6000830185611d18565b611d496020830184611d18565b9392505050565b600081519050611d5f81611291565b92915050565b600060208284031215611d7b57611d7a6111e7565b5b6000611d8984828501611d50565b91505092915050565b7f4e487b7100000000000000000000000000000000000000000000000000000000600052601160045260246000fd5b6000611dcc82611416565b9150611dd783611416565b9250827f800000000000000000000000000000000000000000000000000000000000000001821260008412151615611e1257611e11611d92565b5b827f7fffffffffffffffffffffffffffffffffffffffffffffffffffffffffffffff018213600084121615611e4a57611e49611d92565b5b828203905092915050565b7f4e487b7100000000000000000000000000000000000000000000000000000000600052600160045260246000fd5b7f4e487b7100000000000000000000000000000000000000000000000000000000600052603260045260246000fd5b6000611ebe82611416565b9150611ec983611416565b9250827f7fffffffffffffffffffffffffffffffffffffffffffffffffffffffffffffff0482116000841360008413161615611f0857611f07611d92565b5b817f80000000000000000000000000000000000000000000000000000000000000000583126000841260008413161615611f4557611f44611d92565b5b827f80000000000000000000000000000000000000000000000000000000000000000582126000841360008412161615611f8257611f81611d92565b5b827f7fffffffffffffffffffffffffffffffffffffffffffffffffffffffffffffff0582126000841260008412161615611fbf57611fbe611d92565b5b828202905092915050565b6000611fd582611558565b915060ff821415611fe957611fe8611d92565b5b600182019050919050565b6000611fff82611287565b91507fffffffffffffffffffffffffffffffffffffffffffffffffffffffffffffffff82141561203257612031611d92565b5b600182019050919050565b60008160011c9050919050565b6000808291508390505b6001851115612094578086048111156120705761206f611d92565b5b600185161561207f5780820291505b808102905061208d8561203d565b9450612054565b94509492505050565b600082600081146120b557600181146120bf576120c8565b6001915050612184565b82915050612184565b50816120d75760009050612184565b6001905060008213600181146120f4576000811461210c57612120565b82860483111561210757612106611d92565b5b612120565b82860583121561211f5761211e611d92565b5b5b50600183161561212e578190505b818202915061213c8361203d565b925061214a8584848461204a565b92509050818504811160008213161561216657612165611d92565b5b818405811260008212161561217e5761217d611d92565b5b81810290505b949350505050565b600061219782611416565b91506121a283611287565b92506121f07f7fffffffffffffffffffffffffffffffffffffffffffffffffffffffffffffff7f8000000000000000000000000000000000000000000000000000000000000000858561209d565b905092915050565b600061220382611416565b91507f800000000000000000000000000000000000000000000000000000000000000082141561223657612235611d92565b5b816000039050919050565b600061224d8284611cc4565b60208201915081905092915050565b600061226782611287565b915061227283611287565b92508261228257612281611c8b565b5b828206905092915050565b600061229882611287565b91506122a383611287565b9250826122b3576122b2611c8b565b5b828204905092915050565b60006122c982611287565b91506122d483611287565b9250817fffffffffffffffffffffffffffffffffffffffffffffffffffffffffffffffff048311821515161561230d5761230c611d92565b5b828202905092915050565b600061232382611287565b915061232e83611287565b92508282101561234157612340611d92565b5b82820390509291505056fea264697066735822122077202f99d18ad078bc245f9d7f40805c6d3e6c4fdf052bd7199f1f51dd40dab664736f6c634300080a0033",
  "immutableReferences": {},
  "source": "// SPDX-License-Identifier: GPL-3.0\r\npragma solidity ^0.8.0;\r\n\r\nimport \"./Pedersen.sol\";\r\nimport \"./ZeroCoin.sol\";\r\n\r\nstruct Zkp1oMWithX{\r\n    uint x; \r\n    Zkp1N1 zkp1;\r\n    Zkp1N2 zkp2;\r\n    uint8 nbits;\r\n}\r\n\r\ncontract AnonymousCrowdsourcing{\r\n    //requester parameters\r\n    address private requester;\r\n    uint private rewardCredits;\r\n    uint private noOfRewards;\r\n    uint private parkingSpaceNo;\r\n    uint private dataCount;\r\n    uint private taskEndTime; //t_ver\r\n    uint private refundStartTime; //t_ref\r\n\r\n    //workers parameters\r\n    // enum State {AcceptingData, ProvingData, RefundClaiming, AggregatingData, Withdrawn}\r\n    // State public state;\r\n   // enum Observation {Unavailable, Available}\r\n    uint Obv;\r\n    //Observation[] public userSubmittedObservations;\r\n    //Observation public aggregatedResult;\r\n    address[] private workerStakedEther;\r\n    uint[] public Cmm; //T_Cm(m)\r\n    uint[] public Cmq; //T_Cm(q)\r\n    uint[] public Tm; //T_m\r\n    uint[] public Tq; //T_q\r\n    uint[] public Cms; //T_Cm(s)\r\n    uint[] public Cmqprime; //T_Cm(q')\r\n    uint[] public revealedQPrime; //T_q'\r\n    uint[] public Tak; //T_ak => shortlisted T_Cm(s)\r\n    uint public akTm; //aggregated result a_k(T_m)\r\n    //Pedersen parameters\r\n    uint private k = 1173792922; \r\n    uint private q = 29645808988800697353566862307331691561207478437311896149463650348773872465515;\r\n    uint private g = 2090583907;\r\n    uint private h = 642996076579571851939547582363769362446679167969816015137470108219624530351;\r\n    address payable zeroCoinAddr;\r\n    Pedersen private pedersen;\r\n    \r\n\r\n    //modifiers\r\n    // modifier inState(State _state){\r\n    //     require(state == _state);\r\n    //     _;\r\n    // }\r\n\r\n    modifier isRequester(){\r\n        require(msg.sender == requester);\r\n        _;\r\n    }\r\n\r\n    modifier notRequester(){\r\n        require(msg.sender != requester);\r\n        _;\r\n    }\r\n\r\n    modifier endTimePast(){\r\n        require(block.timestamp > taskEndTime, \"Workers can still submit data.\");\r\n        _;\r\n    }\r\n\r\n    //events\r\n    event AcceptingData();\r\n    event ProvingData(address addr);\r\n    event etherRefund(address addr, uint amount);\r\n    event AggregatedData();\r\n    event RewardGenerated();\r\n    event Withdrawn();\r\n    event CreditsIncreased();\r\n    event CreditsReceived(address addr, uint value);\r\n    //constructor\r\n    constructor(uint _parkingSpaceNo, uint _sensingTime, uint _refundTime, address payable _zeroCoinAddr) payable{\r\n        require (msg.value > 0 ether, \"Please send credits for rewards.\");\r\n        rewardCredits = msg.value;\r\n        noOfRewards = rewardCredits/1e18;\r\n        parkingSpaceNo = _parkingSpaceNo;\r\n        requester = msg.sender;\r\n        taskEndTime = block.timestamp + _sensingTime; //t_ver\r\n        refundStartTime = block.timestamp + _refundTime; //t_ref\r\n        zeroCoinAddr = _zeroCoinAddr;\r\n        pedersen = new Pedersen(g,h,q,k);\r\n    }\r\n\r\n    //requester's functions\r\n    // function withdraw() public isRequester{\r\n    //     require (state != State.Withdrawn, \"Already withdrawn.\");\r\n    //     state = State.Withdrawn;\r\n    //     payable(requester).transfer(rewardCredits);\r\n    //     rewardCredits = 0;\r\n    //     //refund all the staked ethers.\r\n    //     if (workerStakedEther.length > 0){\r\n    //         for (uint i = 0; i < workerStakedEther.length; i ++){\r\n    //             payable(workerStakedEther[i]).transfer(1 ether);\r\n    //         }\r\n    //     }\r\n    //     emit Withdrawn();\r\n    // }\r\n\r\n    function getAggregatedResults() public isRequester returns(string memory){\r\n        uint countAvailable = 0;\r\n        uint countUnavailable = 0;\r\n        string memory result;\r\n        for (uint i = 0; i < Tm.length; i++) {  \r\n            if (Tm[i] == 1){\r\n                countAvailable ++;\r\n            }else if (Tm[i] == 0){\r\n                countUnavailable ++;\r\n            }\r\n        }\r\n\r\n        if (countAvailable >= countUnavailable){\r\n            akTm = 1; //For simplicity, we consider this situation as available. \r\n            result = \"Available\";\r\n        } else {\r\n            akTm = 0;\r\n            result = \"Unavailable\";\r\n        }\r\n\r\n        for(uint j = 0; j < Tm.length; j ++){\r\n            if(Tm[j] == akTm && Tak.length < noOfRewards){\r\n                Tak.push(Cms[j]);\r\n            }\r\n        }\r\n        //mint new coins on behalf of workers\r\n        mintNewCoin(zeroCoinAddr, Tak);\r\n        // refund requester the ether(s) left\r\n        if(Tak.length < noOfRewards){\r\n            uint ethersLeft = (noOfRewards - Tak.length)*1e18; \r\n            payable(requester).transfer(ethersLeft);\r\n        }\r\n\r\n        return result;\r\n    }\r\n\r\n    function mintNewCoin(address payable addrZoinCoin, uint[] memory coins) internal {\r\n        ZeroCoin ZC = ZeroCoin(addrZoinCoin);\r\n        for(uint i = 0; i < coins.length; i++){\r\n            ZC.mint{value: 1 ether}(coins[i]);\r\n        }\r\n        \r\n    }\r\n\r\n    function getDataCount() public isRequester returns(uint){\r\n        dataCount = Tm.length;\r\n        return dataCount;\r\n    }\r\n    // requester can add more rewards\r\n    function addRewardCredits() public isRequester payable{\r\n        rewardCredits += msg.value;\r\n        noOfRewards = rewardCredits/1e18;\r\n        emit CreditsIncreased();\r\n    }\r\n\r\n    // workers' functions\r\n    function getSensingTask() public view returns(uint, uint, uint, uint){\r\n        return (parkingSpaceNo, taskEndTime, refundStartTime, noOfRewards);\r\n    }\r\n\r\n    function submitSensingData(ZkpCm memory Cm1, ZkpCm memory Cm2) public notRequester payable{\r\n        require (msg.value == 1 ether, \"You need to stake 1 Ether to submit data!\"); //workers need to stake 1 ether in order to submit data\r\n        require (pedersen.verifyZkpCm(Cm1) == true && pedersen.verifyZkpCm(Cm2) == true);\r\n        workerStakedEther.push(msg.sender);\r\n        uint Cm = Cm1.c;\r\n        uint Cq = Cm2.c;\r\n        Cmm.push(Cm);\r\n        Cmq.push(Cq);\r\n    }\r\n\r\n    function proveSubmittedData(uint obs, Zkp1N1 memory zkp1obs, Zkp1N2 memory zkp2obs, uint8 nbitsobs, uint _q, Zkp1N1 memory zkp1q, Zkp1N2 memory zkp2q, uint8 nbitsq, uint _Cms, ZkpCm memory _Cmqprime ) public notRequester { //prove the committed value \r\n        require(pedersen.verifyZkpOneOfMany(zkp1obs,zkp2obs,nbitsobs) == true && pedersen.verifyZkpOneOfMany(zkp1q, zkp2q,nbitsq) == true);\r\n        require(pedersen.verifyZkpCm(_Cmqprime) == true);\r\n        require(obs == 1 || obs == 0);\r\n        for(uint i = 0; i < Tq.length; i ++){ //check q has been revealed or not\r\n            require(Tq[i] != _q, \"q has been revealed before\");\r\n        }\r\n        Tm.push(obs);\r\n        Tq.push(_q);\r\n        Cms.push(_Cms);\r\n        Cmqprime.push(_Cmqprime.c);\r\n        emit ProvingData(msg.sender);\r\n    }\r\n\r\n    function getEtherBack(uint _qprime, Zkp1N1 memory zkp1qprime, Zkp1N2 memory zkp2qprime, uint8 nbitsqprime) public notRequester{\r\n        for(uint i = 0; i < revealedQPrime.length; i++){\r\n            require(revealedQPrime[i] != _qprime);\r\n        }\r\n        require(pedersen.verifyZkpOneOfMany(zkp1qprime, zkp2qprime, nbitsqprime) == true);\r\n        revealedQPrime.push(_qprime);\r\n        payable(msg.sender).transfer(1 ether);\r\n        emit etherRefund(msg.sender, 1 ether);\r\n    }\r\n    //fallback function\r\n    receive() payable external{\r\n        emit CreditsReceived(msg.sender, msg.value);\r\n    }\r\n}",
  "sourcePath": "C:\\Users\\u5773751\\OneDrive - Australian National University\\contracts\\contracts\\AnonymousCrowdsourcing.sol",
  "compiler": {
    "name": "solc",
    "version": "0.8.10+commit.fc410830.Emscripten.clang"
  },
  "schemaVersion": "3.4.3",
  "updatedAt": "2021-12-20T09:36:46.576Z",
  "devdoc": {
    "kind": "dev",
    "methods": {},
    "version": 1
  },
  "userdoc": {
    "kind": "user",
    "methods": {},
    "version": 1
  }
}