{
  "contractName": "SafeMath",
  "abi": [
    {
      "inputs": [
        {
          "internalType": "uint256",
          "name": "a",
          "type": "uint256"
        },
        {
          "internalType": "uint256",
          "name": "b",
          "type": "uint256"
        }
      ],
      "name": "add",
      "outputs": [
        {
          "internalType": "uint256",
          "name": "",
          "type": "uint256"
        }
      ],
      "stateMutability": "pure",
      "type": "function"
    },
    {
      "inputs": [
        {
          "internalType": "int256",
          "name": "a",
          "type": "int256"
        },
        {
          "internalType": "int256",
          "name": "b",
          "type": "int256"
        }
      ],
      "name": "add",
      "outputs": [
        {
          "internalType": "int256",
          "name": "",
          "type": "int256"
        }
      ],
      "stateMutability": "pure",
      "type": "function"
    },
    {
      "inputs": [
        {
          "internalType": "uint256",
          "name": "a",
          "type": "uint256"
        },
        {
          "internalType": "int256",
          "name": "b",
          "type": "int256"
        }
      ],
      "name": "mul",
      "outputs": [
        {
          "internalType": "int256",
          "name": "",
          "type": "int256"
        }
      ],
      "stateMutability": "pure",
      "type": "function"
    },
    {
      "inputs": [
        {
          "internalType": "int256",
          "name": "a",
          "type": "int256"
        },
        {
          "internalType": "int256",
          "name": "b",
          "type": "int256"
        }
      ],
      "name": "mul",
      "outputs": [
        {
          "internalType": "int256",
          "name": "",
          "type": "int256"
        }
      ],
      "stateMutability": "pure",
      "type": "function"
    },
    {
      "inputs": [
        {
          "internalType": "uint256",
          "name": "a",
          "type": "uint256"
        },
        {
          "internalType": "uint256",
          "name": "b",
          "type": "uint256"
        }
      ],
      "name": "mul",
      "outputs": [
        {
          "internalType": "uint256",
          "name": "",
          "type": "uint256"
        }
      ],
      "stateMutability": "pure",
      "type": "function"
    },
    {
      "inputs": [
        {
          "internalType": "uint256",
          "name": "a",
          "type": "uint256"
        },
        {
          "internalType": "uint256",
          "name": "b",
          "type": "uint256"
        }
      ],
      "name": "mod",
      "outputs": [
        {
          "internalType": "uint256",
          "name": "",
          "type": "uint256"
        }
      ],
      "stateMutability": "pure",
      "type": "function"
    },
    {
      "inputs": [
        {
          "internalType": "int256",
          "name": "a",
          "type": "int256"
        },
        {
          "internalType": "int256",
          "name": "b",
          "type": "int256"
        }
      ],
      "name": "modInv",
      "outputs": [
        {
          "internalType": "int256",
          "name": "",
          "type": "int256"
        }
      ],
      "stateMutability": "view",
      "type": "function"
    }
  ],
  "bytecode": "0x610b87610053600b82828239805160001a607314610046577f4e487b7100000000000000000000000000000000000000000000000000000000600052600060045260246000fd5b30600052607381538281f3fe73000000000000000000000000000000000000000030146080604052600436106100875760003560e01c8063a5f3c23b11610065578063a5f3c23b1461011c578063bbe93d911461014c578063c8a4ac9c1461017c578063f43f523a146101ac57610087565b8063286198881461008c57806351e102f5146100bc578063771602f7146100ec575b600080fd5b6100a660048036038101906100a1919061053a565b6101dc565b6040516100b39190610589565b60405180910390f35b6100d660048036038101906100d191906105da565b61026d565b6040516100e39190610589565b60405180910390f35b6101066004803603810190610101919061061a565b610281565b6040516101139190610669565b60405180910390f35b6101366004803603810190610131919061053a565b6102e0565b6040516101439190610589565b60405180910390f35b6101666004803603810190610161919061053a565b61033f565b6040516101739190610589565b60405180910390f35b6101966004803603810190610191919061061a565b6103bc565b6040516101a39190610669565b60405180910390f35b6101c660048036038101906101c1919061061a565b610439565b6040516101d39190610669565b60405180910390f35b600080836001846101ed91906106b3565b6101f79190610776565b905060008190505b8381121561024157600161021e828761021891906107e0565b8661048f565b141561022e578092505050610267565b8080610239906108f7565b9150506101ff565b507fffffffffffffffffffffffffffffffffffffffffffffffffffffffffffffffff9150505b92915050565b6000610279838361033f565b905092915050565b60008082840190508284826102969190610940565b146102d6576040517f08c379a00000000000000000000000000000000000000000000000000000000081526004016102cd906109d1565b60405180910390fd5b8091505092915050565b60008082840190508284826102f591906106b3565b14610335576040517f08c379a000000000000000000000000000000000000000000000000000000000815260040161032c906109d1565b60405180910390fd5b8091505092915050565b60008083148061034f5750600082145b1561035d57600090506103b6565b600082840290508284826103719190610776565b146103b1576040517f08c379a00000000000000000000000000000000000000000000000000000000081526004016103a890610a63565b60405180910390fd5b809150505b92915050565b6000808314806103cc5750600082145b156103da5760009050610433565b600082840290508284826103ee9190610a83565b1461042e576040517f08c379a000000000000000000000000000000000000000000000000000000000815260040161042590610a63565b60405180910390fd5b809150505b92915050565b60008082141561047e576040517f08c379a000000000000000000000000000000000000000000000000000000000815260040161047590610b00565b60405180910390fd5b600082840690508091505092915050565b60008082141561049e57600080fd5b600082846104ac9190610776565b90506000811280156104ca5750600083856104c79190610b20565b14155b156104df576001816104dc91906106b3565b90505b82816104eb91906107e0565b846104f691906106b3565b91505092915050565b600080fd5b6000819050919050565b61051781610504565b811461052257600080fd5b50565b6000813590506105348161050e565b92915050565b60008060408385031215610551576105506104ff565b5b600061055f85828601610525565b925050602061057085828601610525565b9150509250929050565b61058381610504565b82525050565b600060208201905061059e600083018461057a565b92915050565b6000819050919050565b6105b7816105a4565b81146105c257600080fd5b50565b6000813590506105d4816105ae565b92915050565b600080604083850312156105f1576105f06104ff565b5b60006105ff858286016105c5565b925050602061061085828601610525565b9150509250929050565b60008060408385031215610631576106306104ff565b5b600061063f858286016105c5565b9250506020610650858286016105c5565b9150509250929050565b610663816105a4565b82525050565b600060208201905061067e600083018461065a565b92915050565b7f4e487b7100000000000000000000000000000000000000000000000000000000600052601160045260246000fd5b60006106be82610504565b91506106c983610504565b9250827f80000000000000000000000000000000000000000000000000000000000000000182126000841215161561070457610703610684565b5b827f7fffffffffffffffffffffffffffffffffffffffffffffffffffffffffffffff01821360008412161561073c5761073b610684565b5b828203905092915050565b7f4e487b7100000000000000000000000000000000000000000000000000000000600052601260045260246000fd5b600061078182610504565b915061078c83610504565b92508261079c5761079b610747565b5b600160000383147f8000000000000000000000000000000000000000000000000000000000000000831416156107d5576107d4610684565b5b828205905092915050565b60006107eb82610504565b91506107f683610504565b9250827f7fffffffffffffffffffffffffffffffffffffffffffffffffffffffffffffff048211600084136000841316161561083557610834610684565b5b817f8000000000000000000000000000000000000000000000000000000000000000058312600084126000841316161561087257610871610684565b5b827f800000000000000000000000000000000000000000000000000000000000000005821260008413600084121616156108af576108ae610684565b5b827f7fffffffffffffffffffffffffffffffffffffffffffffffffffffffffffffff05821260008412600084121616156108ec576108eb610684565b5b828202905092915050565b600061090282610504565b91507f7fffffffffffffffffffffffffffffffffffffffffffffffffffffffffffffff82141561093557610934610684565b5b600182019050919050565b600061094b826105a4565b9150610956836105a4565b92508282101561096957610968610684565b5b828203905092915050565b600082825260208201905092915050565b7f536166654d6174683a206164646974696f6e206f766572666c6f770000000000600082015250565b60006109bb601b83610974565b91506109c682610985565b602082019050919050565b600060208201905081810360008301526109ea816109ae565b9050919050565b7f536166654d6174683a206d756c7469706c69636174696f6e206f766572666c6f60008201527f7700000000000000000000000000000000000000000000000000000000000000602082015250565b6000610a4d602183610974565b9150610a58826109f1565b604082019050919050565b60006020820190508181036000830152610a7c81610a40565b9050919050565b6000610a8e826105a4565b9150610a99836105a4565b925082610aa957610aa8610747565b5b828204905092915050565b7f536166654d6174683a206d6f64756c6f206279207a65726f0000000000000000600082015250565b6000610aea601883610974565b9150610af582610ab4565b602082019050919050565b60006020820190508181036000830152610b1981610add565b9050919050565b6000610b2b82610504565b9150610b3683610504565b925082610b4657610b45610747565b5b82820790509291505056fea2646970667358221220a77c67537229fc13cb7728a5f10323955721173dba6cd3c878aa8f415b54c55464736f6c634300080a0033",
  "immutableReferences": {},
  "source": "// SPDX-License-Identifier: GPL-3.0\npragma solidity ^0.8.0;\n\n/**\n * Author: Nan Wang\n * Date: 12-01-2021\n **/\nlibrary SafeMath {\n\n    function add(uint256 a, uint256 b)\n        public\n        pure\n        returns (uint256)\n    {\n        uint256 c;\n        assembly {\n            c := add(a, b)\n        }\n\n        require(c - a == b, \"SafeMath: addition overflow\");\n\n        return c;\n    }\n\n    function add(int256 a, int256 b)\n        public\n        pure\n        returns (int256)\n    {\n        int256 c;\n        assembly {\n            c := add(a, b)\n        }\n\n        require(c - a == b, \"SafeMath: addition overflow\");\n\n        return c;\n    }\n\n    function mul(uint256 a, uint256 b)\n        public\n        pure\n        returns (uint256)\n    {\n        if (a == 0 || b == 0) {\n            return 0;\n        }\n\n        uint256 c;\n        assembly {\n            c := mul(a, b)\n        }\n\n        require(c / a == b, \"SafeMath: multiplication overflow\");\n\n        return c;\n    }\n\n    function mul(int256 a, int256 b)\n        public\n        pure\n        returns (int256)\n    {\n        if (a == 0 || b == 0) {\n            return 0;\n        }\n\n        int256 c;\n        assembly {\n            c := mul(a, b)\n        }\n\n        require(c / a == b, \"SafeMath: multiplication overflow\");\n\n        return c;\n    }\n\n    function mul(uint256 a, int256 b)\n        public\n        pure\n        returns (int256)\n    {\n       return mul(int256(a), b);\n    }\n\n    function mod(uint256 a, uint256 b)\n        public\n        pure\n        returns (uint256)\n    {\n        require(b != 0, \"SafeMath: modulo by zero\");\n\n        uint256 c;\n        assembly {\n            c := mod(a, b)\n        }\n\n        return c;\n    }\n\n    function log2(uint x)\n        internal\n        view\n        returns (uint y)\n    {\n       assembly {\n            let arg := x\n            x := sub(x,1)\n            x := or(x, div(x, 0x02))\n            x := or(x, div(x, 0x04))\n            x := or(x, div(x, 0x10))\n            x := or(x, div(x, 0x100))\n            x := or(x, div(x, 0x10000))\n            x := or(x, div(x, 0x100000000))\n            x := or(x, div(x, 0x10000000000000000))\n            x := or(x, div(x, 0x100000000000000000000000000000000))\n            x := add(x, 1)\n            let m := mload(0x40)\n            mstore(m,           0xf8f9cbfae6cc78fbefe7cdc3a1793dfcf4f0e8bbd8cec470b6a28a7a5a3e1efd)\n            mstore(add(m,0x20), 0xf5ecf1b3e9debc68e1d9cfabc5997135bfb7a7a3938b7b606b5b4b3f2f1f0ffe)\n            mstore(add(m,0x40), 0xf6e4ed9ff2d6b458eadcdf97bd91692de2d4da8fd2d0ac50c6ae9a8272523616)\n            mstore(add(m,0x60), 0xc8c0b887b0a8a4489c948c7f847c6125746c645c544c444038302820181008ff)\n            mstore(add(m,0x80), 0xf7cae577eec2a03cf3bad76fb589591debb2dd67e0aa9834bea6925f6a4a2e0e)\n            mstore(add(m,0xa0), 0xe39ed557db96902cd38ed14fad815115c786af479b7e83247363534337271707)\n            mstore(add(m,0xc0), 0xc976c13bb96e881cb166a933a55e490d9d56952b8d4e801485467d2362422606)\n            mstore(add(m,0xe0), 0x753a6d1b65325d0c552a4d1345224105391a310b29122104190a110309020100)\n            mstore(0x40, add(m, 0x100))\n            let magic := 0x818283848586878898a8b8c8d8e8f929395969799a9b9d9e9faaeb6bedeeff\n            let shift := 0x100000000000000000000000000000000000000000000000000000000000000\n            let a := div(mul(x, magic), shift)\n            y := div(mload(add(m,sub(255,a))), shift)\n            y := add(y, mul(256, gt(arg, 0x8000000000000000000000000000000000000000000000000000000000000000)))\n        }\n    }\n\n    function pow(uint256 a, uint256 b)\n        internal\n        view\n        returns (uint256)\n    {\n        if(a == 0){\n            return 0;\n        } else if(b == 0){\n            return 1;\n        }\n\n        uint256 d = log2(a);\n\n        require(d * b < 256, \"SafeMath: power overflow\");\n\n        uint256 y;\n        assembly {\n            y := exp(a, b)\n        }\n\n        return y;\n    }\n\n    function negate(uint256 a)\n        internal\n        pure\n        returns (int256)\n    {\n        return negate(int256(a));\n    }\n\n    function negate(int256 a)\n        internal\n        pure\n        returns (int256)\n    {\n        return -a;\n    }\n\n    function abs(int256 a)\n        internal\n        pure\n        returns (uint256)\n    {\n        if(a > 0) {\n            return uint256(a);\n        } else if(a < 0) {\n            return uint256(-a);\n        }\n\n        return 0;\n    }\n\n    function modInv(uint256 a, uint256 b)\n        internal\n        pure\n        returns (uint256)\n    {\n        if(a > b) {\n            a = a % b;\n        }\n\n        int256 t1 = 0;\n        int256 t2 = 1;\n\n        uint256 r1 = b;\n        uint256 r2 = a;\n        uint256 q;\n        while (r2 != 0) {\n            q = r1 / r2;\n            (t1, t2, r1, r2) = (t2, t1 - int256(q) * t2, r2, r1 - q * r2);\n        }\n        if (t1 < 0) {\n            return (b - abs(t1));\n        }\n\n        return uint256(t1);\n    }\n\n    function floorMod(int256 a, int256 b)\n        internal\n        view\n        returns (int256)\n    {\n        require (b != 0);\n\n        int256 c = a / b;\n        if(c < 0 && a % b != 0){\n            c -= 1;\n        }\n\n        return a - c * b;\n    }\n\n    /**\n     * Gas-intensive\n     **/\n    function modInv(int256 a, int256 b)\n        public\n        view\n        returns (int256)\n    {\n        int start = (b - 1) / a;\n\n        for(int i=start; i< b;i++) {\n            if (floorMod(a*i, b) == 1) return i;\n        }\n\n        return -1;\n    }\n\n    // a - b = c;\n    function submod(uint256 a, uint256 b, uint256 q)\n        internal\n        pure\n        returns (uint256)\n    {\n        uint256 a_nn;\n\n        if(a > b) {\n            a_nn = a;\n        } else {\n            a_nn = a + q;\n        }\n\n        return addmod(a_nn - b, 0, q);\n    }\n\n    function modPow(uint256 _base, int256 _exponent, uint256 _modulus)\n        internal\n        view\n        returns (uint256)\n    {\n        if(_exponent >= 0) {\n            return modPow(_base, uint256(_exponent), _modulus);\n        } else {\n            return modPow(modInv(_base, _modulus), abs(_exponent), _modulus);\n        }\n    }\n\n    function modPow(uint256 _base, uint256 _exponent, uint _exponentSign, uint256 _modulus)\n        internal\n        view\n        returns (uint256)\n    {\n        if(_exponentSign > 0) {\n            return modPow(_base, _exponent, _modulus);\n        } else {\n            return modPow(modInv(_base, _modulus), _exponent, _modulus);\n        }\n    }\n\n    function modPow(uint256 _base, uint256 _exponent, uint256 _modulus)\n        internal\n        view\n        returns (uint256)\n    {\n        bool success;\n        uint256[1] memory output;\n        uint[6] memory input;\n        input[0] = 0x20;        // baseLen = new(big.Int).SetBytes(getData(input, 0, 32))\n        input[1] = 0x20;        // expLen  = new(big.Int).SetBytes(getData(input, 32, 32))\n        input[2] = 0x20;        // modLen  = new(big.Int).SetBytes(getData(input, 64, 32))\n        input[3] = _base;\n        input[4] = _exponent;\n        input[5] = _modulus;\n        assembly {\n            success := staticcall(sub(gas(), 2000), 5, input, 0xc0, output, 0x20)\n            // Use \"invalid\" to make gas estimation work\n            switch success case 0 { invalid() }\n        }\n        require(success);\n        return output[0];\n    }\n}\n",
  "sourcePath": "C:\\Users\\u5773751\\OneDrive - Australian National University\\contracts\\contracts\\SafeMath.sol",
  "compiler": {
    "name": "solc",
    "version": "0.8.10+commit.fc410830.Emscripten.clang"
  },
  "schemaVersion": "3.4.3",
  "updatedAt": "2021-12-20T09:36:46.667Z",
  "devdoc": {
    "kind": "dev",
    "methods": {},
    "version": 1
  },
  "userdoc": {
    "kind": "user",
    "methods": {
      "modInv(int256,int256)": {
        "notice": "Gas-intensive*"
      }
    },
    "notice": "Author: Nan Wang Date: 12-01-2021*",
    "version": 1
  }
}