{
  "contractName": "Utils",
  "abi": [
    {
      "inputs": [
        {
          "internalType": "address",
          "name": "target",
          "type": "address"
        },
        {
          "internalType": "address[]",
          "name": "addresses",
          "type": "address[]"
        }
      ],
      "name": "addressIsIn",
      "outputs": [
        {
          "internalType": "bool",
          "name": "",
          "type": "bool"
        }
      ],
      "stateMutability": "pure",
      "type": "function"
    },
    {
      "inputs": [
        {
          "internalType": "address",
          "name": "target",
          "type": "address"
        },
        {
          "internalType": "address[]",
          "name": "addresses",
          "type": "address[]"
        }
      ],
      "name": "getIndexOf",
      "outputs": [
        {
          "internalType": "uint256",
          "name": "",
          "type": "uint256"
        }
      ],
      "stateMutability": "pure",
      "type": "function"
    },
    {
      "inputs": [
        {
          "internalType": "int256[]",
          "name": "list",
          "type": "int256[]"
        }
      ],
      "name": "sumOf",
      "outputs": [
        {
          "internalType": "int256",
          "name": "",
          "type": "int256"
        }
      ],
      "stateMutability": "pure",
      "type": "function"
    }
  ],
  "bytecode": "0x6107fc610053600b82828239805160001a607314610046577f4e487b7100000000000000000000000000000000000000000000000000000000600052600060045260246000fd5b30600052607381538281f3fe730000000000000000000000000000000000000000301460806040526004361061004b5760003560e01c80634dd0b82014610050578063941dfecc14610080578063b8053ff7146100b0575b600080fd5b61006a60048036038101906100659190610482565b6100e0565b60405161007791906104f7565b60405180910390f35b61009a60048036038101906100959190610482565b610167565b6040516100a7919061052d565b60405180910390f35b6100ca60048036038101906100c59190610641565b6101ef565b6040516100d79190610699565b60405180910390f35b6000806000905060005b835181101561015c578473ffffffffffffffffffffffffffffffffffffffff1684828151811061011d5761011c6106b4565b5b602002602001015173ffffffffffffffffffffffffffffffffffffffff1614156101495780915061015c565b808061015490610712565b9150506100ea565b508091505092915050565b600080600090505b82518110156101e35782818151811061018b5761018a6106b4565b5b602002602001015173ffffffffffffffffffffffffffffffffffffffff168473ffffffffffffffffffffffffffffffffffffffff1614156101d05760019150506101e9565b80806101db90610712565b91505061016f565b50600090505b92915050565b6000806000905060005b83518110156102ad578173__SafeMath______________________________63a5f3c23b9091868481518110610232576102316106b4565b5b60200260200101516040518363ffffffff1660e01b815260040161025792919061075b565b602060405180830381865af4158015610274573d6000803e3d6000fd5b505050506040513d601f19601f820116820180604052508101906102989190610799565b915080806102a590610712565b9150506101f9565b5080915050919050565b6000604051905090565b600080fd5b600080fd5b600073ffffffffffffffffffffffffffffffffffffffff82169050919050565b60006102f6826102cb565b9050919050565b610306816102eb565b811461031157600080fd5b50565b600081359050610323816102fd565b92915050565b600080fd5b6000601f19601f8301169050919050565b7f4e487b7100000000000000000000000000000000000000000000000000000000600052604160045260246000fd5b6103778261032e565b810181811067ffffffffffffffff821117156103965761039561033f565b5b80604052505050565b60006103a96102b7565b90506103b5828261036e565b919050565b600067ffffffffffffffff8211156103d5576103d461033f565b5b602082029050602081019050919050565b600080fd5b60006103fe6103f9846103ba565b61039f565b90508083825260208201905060208402830185811115610421576104206103e6565b5b835b8181101561044a57806104368882610314565b845260208401935050602081019050610423565b5050509392505050565b600082601f83011261046957610468610329565b5b81356104798482602086016103eb565b91505092915050565b60008060408385031215610499576104986102c1565b5b60006104a785828601610314565b925050602083013567ffffffffffffffff8111156104c8576104c76102c6565b5b6104d485828601610454565b9150509250929050565b6000819050919050565b6104f1816104de565b82525050565b600060208201905061050c60008301846104e8565b92915050565b60008115159050919050565b61052781610512565b82525050565b6000602082019050610542600083018461051e565b92915050565b600067ffffffffffffffff8211156105635761056261033f565b5b602082029050602081019050919050565b6000819050919050565b61058781610574565b811461059257600080fd5b50565b6000813590506105a48161057e565b92915050565b60006105bd6105b884610548565b61039f565b905080838252602082019050602084028301858111156105e0576105df6103e6565b5b835b8181101561060957806105f58882610595565b8452602084019350506020810190506105e2565b5050509392505050565b600082601f83011261062857610627610329565b5b81356106388482602086016105aa565b91505092915050565b600060208284031215610657576106566102c1565b5b600082013567ffffffffffffffff811115610675576106746102c6565b5b61068184828501610613565b91505092915050565b61069381610574565b82525050565b60006020820190506106ae600083018461068a565b92915050565b7f4e487b7100000000000000000000000000000000000000000000000000000000600052603260045260246000fd5b7f4e487b7100000000000000000000000000000000000000000000000000000000600052601160045260246000fd5b600061071d826104de565b91507fffffffffffffffffffffffffffffffffffffffffffffffffffffffffffffffff8214156107505761074f6106e3565b5b600182019050919050565b6000604082019050610770600083018561068a565b61077d602083018461068a565b9392505050565b6000815190506107938161057e565b92915050565b6000602082840312156107af576107ae6102c1565b5b60006107bd84828501610784565b9150509291505056fea2646970667358221220d7947642e7345b06bd447ca449d04e07111cfa3ec1afb029ef334a87de22bc5f64736f6c634300080a0033",
  "immutableReferences": {},
  "source": "// SPDX-License-Identifier: GPL-3.0\npragma solidity ^0.8.0;\n\nimport \"./SafeMath.sol\";\n\n/**\n * Author: Nan Wang\n * Date: 13-01-2021\n **/\nlibrary Utils {\n\n    using SafeMath for int256;\n\n    function addressIsIn(address target, address[] memory addresses)\n        public\n        pure\n        returns (bool)\n    {\n        for(uint i=0;i<addresses.length;i++) {\n            if(target == addresses[i]){\n                return true;\n            }\n        }\n\n        return false;\n    }\n\n    function getIndexOf(address target, address[] memory addresses)\n        public\n        pure\n        returns (uint)\n    {\n        uint idx = 0;\n        for(uint i=0;i<addresses.length;i++){\n            if(addresses[i] == target) {\n                idx = i;\n                break;\n            }\n        }\n\n        return idx;\n    }\n\n    function sumOf(int256[] memory list)\n        public\n        pure\n        returns (int256)\n    {\n        int256 ret = 0;\n\n        for(uint i=0;i<list.length;i++) {\n            ret = ret.add(list[i]);\n        }\n\n        return ret;\n    }\n}\n",
  "sourcePath": "C:\\Users\\u5773751\\OneDrive - Australian National University\\contracts\\contracts\\Utils.sol",
  "compiler": {
    "name": "solc",
    "version": "0.8.10+commit.fc410830.Emscripten.clang"
  },
  "schemaVersion": "3.4.3",
  "updatedAt": "2021-12-20T09:36:46.686Z",
  "devdoc": {
    "kind": "dev",
    "methods": {},
    "version": 1
  },
  "userdoc": {
    "kind": "user",
    "methods": {},
    "notice": "Author: Nan Wang Date: 13-01-2021*",
    "version": 1
  }
}