{
  "contractName": "ZeroCoin",
  "abi": [
    {
      "inputs": [],
      "stateMutability": "payable",
      "type": "constructor"
    },
    {
      "anonymous": false,
      "inputs": [
        {
          "indexed": false,
          "internalType": "address",
          "name": "addr",
          "type": "address"
        },
        {
          "indexed": false,
          "internalType": "uint256",
          "name": "value",
          "type": "uint256"
        }
      ],
      "name": "CreditsReceived",
      "type": "event"
    },
    {
      "inputs": [
        {
          "internalType": "uint256",
          "name": "",
          "type": "uint256"
        }
      ],
      "name": "mintedCoins",
      "outputs": [
        {
          "internalType": "uint256",
          "name": "",
          "type": "uint256"
        }
      ],
      "stateMutability": "view",
      "type": "function"
    },
    {
      "inputs": [
        {
          "internalType": "uint256",
          "name": "",
          "type": "uint256"
        }
      ],
      "name": "spentCoins",
      "outputs": [
        {
          "internalType": "uint256",
          "name": "",
          "type": "uint256"
        }
      ],
      "stateMutability": "view",
      "type": "function"
    },
    {
      "stateMutability": "payable",
      "type": "receive"
    },
    {
      "inputs": [
        {
          "internalType": "uint256",
          "name": "coin",
          "type": "uint256"
        }
      ],
      "name": "mint",
      "outputs": [],
      "stateMutability": "payable",
      "type": "function"
    },
    {
      "inputs": [
        {
          "internalType": "uint256",
          "name": "serialNo",
          "type": "uint256"
        },
        {
          "components": [
            {
              "internalType": "uint256[]",
              "name": "cs",
              "type": "uint256[]"
            },
            {
              "components": [
                {
                  "internalType": "uint256",
                  "name": "ca",
                  "type": "uint256"
                },
                {
                  "internalType": "uint256",
                  "name": "cb",
                  "type": "uint256"
                },
                {
                  "internalType": "int256",
                  "name": "f",
                  "type": "int256"
                },
                {
                  "internalType": "int256",
                  "name": "za",
                  "type": "int256"
                },
                {
                  "internalType": "int256",
                  "name": "zb",
                  "type": "int256"
                }
              ],
              "internalType": "struct ZkpZeroOne[]",
              "name": "zkps",
              "type": "tuple[]"
            },
            {
              "internalType": "uint256[]",
              "name": "cls",
              "type": "uint256[]"
            },
            {
              "internalType": "uint256[]",
              "name": "cas",
              "type": "uint256[]"
            },
            {
              "internalType": "uint256[]",
              "name": "cbs",
              "type": "uint256[]"
            },
            {
              "internalType": "uint256[]",
              "name": "cds",
              "type": "uint256[]"
            }
          ],
          "internalType": "struct Zkp1N1",
          "name": "zkp1",
          "type": "tuple"
        },
        {
          "components": [
            {
              "internalType": "int256[]",
              "name": "fs",
              "type": "int256[]"
            },
            {
              "internalType": "int256[]",
              "name": "zas",
              "type": "int256[]"
            },
            {
              "internalType": "int256[]",
              "name": "zbs",
              "type": "int256[]"
            },
            {
              "internalType": "int256",
              "name": "zd",
              "type": "int256"
            }
          ],
          "internalType": "struct Zkp1N2",
          "name": "zkp2",
          "type": "tuple"
        },
        {
          "internalType": "uint8",
          "name": "nbits",
          "type": "uint8"
        }
      ],
      "name": "spendnRedeem",
      "outputs": [],
      "stateMutability": "nonpayable",
      "type": "function"
    },
    {
      "inputs": [
        {
          "internalType": "uint256",
          "name": "serialNo",
          "type": "uint256"
        },
        {
          "components": [
            {
              "internalType": "uint256[]",
              "name": "cs",
              "type": "uint256[]"
            },
            {
              "components": [
                {
                  "internalType": "uint256",
                  "name": "ca",
                  "type": "uint256"
                },
                {
                  "internalType": "uint256",
                  "name": "cb",
                  "type": "uint256"
                },
                {
                  "internalType": "int256",
                  "name": "f",
                  "type": "int256"
                },
                {
                  "internalType": "int256",
                  "name": "za",
                  "type": "int256"
                },
                {
                  "internalType": "int256",
                  "name": "zb",
                  "type": "int256"
                }
              ],
              "internalType": "struct ZkpZeroOne[]",
              "name": "zkps",
              "type": "tuple[]"
            },
            {
              "internalType": "uint256[]",
              "name": "cls",
              "type": "uint256[]"
            },
            {
              "internalType": "uint256[]",
              "name": "cas",
              "type": "uint256[]"
            },
            {
              "internalType": "uint256[]",
              "name": "cbs",
              "type": "uint256[]"
            },
            {
              "internalType": "uint256[]",
              "name": "cds",
              "type": "uint256[]"
            }
          ],
          "internalType": "struct Zkp1N1",
          "name": "zkp1",
          "type": "tuple"
        },
        {
          "components": [
            {
              "internalType": "int256[]",
              "name": "fs",
              "type": "int256[]"
            },
            {
              "internalType": "int256[]",
              "name": "zas",
              "type": "int256[]"
            },
            {
              "internalType": "int256[]",
              "name": "zbs",
              "type": "int256[]"
            },
            {
              "internalType": "int256",
              "name": "zd",
              "type": "int256"
            }
          ],
          "internalType": "struct Zkp1N2",
          "name": "zkp2",
          "type": "tuple"
        },
        {
          "internalType": "uint8",
          "name": "nbits",
          "type": "uint8"
        },
        {
          "internalType": "uint256",
          "name": "newCoin",
          "type": "uint256"
        }
      ],
      "name": "spendnRemint",
      "outputs": [],
      "stateMutability": "nonpayable",
      "type": "function"
    }
  ],
  "bytecode": "0x60806040526345f6a89a6000557f418aeeea6f03066901717a84f4e1c8155212eb247e5a01882d50b38687c3766b600155637c9bc7636002557f016bec42056b48d3f692db5367547b6f559463fdef76bbcaa30397dd149a21af6003556002546003546001546000546040516200007690620000e9565b62000085949392919062000112565b604051809103906000f080158015620000a2573d6000803e3d6000fd5b50600460006101000a81548173ffffffffffffffffffffffffffffffffffffffff021916908373ffffffffffffffffffffffffffffffffffffffff1602179055506200015f565b6124a1806200152d83390190565b6000819050919050565b6200010c81620000f7565b82525050565b600060808201905062000129600083018762000101565b62000138602083018662000101565b62000147604083018562000101565b62000156606083018462000101565b95945050505050565b6113be806200016f6000396000f3fe60806040526004361061004e5760003560e01c8063912d598f1461009357806394f86c12146100bc578063a0712d68146100e5578063b5c1892814610101578063ceaff4961461013e5761008e565b3661008e577fa828cd9ff16c976ee98f37c4b96645624f01ae6fde47408f3dfd64833c6b99793334604051610084929190610594565b60405180910390a1005b600080fd5b34801561009f57600080fd5b506100ba60048036038101906100b59190610bf5565b61017b565b005b3480156100c857600080fd5b506100e360048036038101906100de9190610ca8565b6102ce565b005b6100ff60048036038101906100fa9190610d47565b61047c565b005b34801561010d57600080fd5b5061012860048036038101906101239190610d47565b6104f2565b6040516101359190610d74565b60405180910390f35b34801561014a57600080fd5b5061016560048036038101906101609190610d47565b610516565b6040516101729190610d74565b60405180910390f35b600460009054906101000a900473ffffffffffffffffffffffffffffffffffffffff1673ffffffffffffffffffffffffffffffffffffffff166322b32dfd8585856040518463ffffffff1660e01b81526004016101da9392919061114e565b6020604051808303816000875af11580156101f9573d6000803e3d6000fd5b505050506040513d601f19601f8201168201806040525081019061021d91906111cb565b61022657600080fd5b60005b60068054905081101561027457856006828154811061024b5761024a6111f8565b5b9060005260206000200154141561026157600080fd5b808061026c90611256565b915050610229565b50600685908060018154018082558091505060019003906000526020600020016000909190919091505560058190806001815401808255809150506001900390600052602060002001600090919091909150555050505050565b600460009054906101000a900473ffffffffffffffffffffffffffffffffffffffff1673ffffffffffffffffffffffffffffffffffffffff166322b32dfd8484846040518463ffffffff1660e01b815260040161032d9392919061114e565b6020604051808303816000875af115801561034c573d6000803e3d6000fd5b505050506040513d601f19601f8201168201806040525081019061037091906111cb565b61037957600080fd5b60005b6006805490508110156103fd57846006828154811061039e5761039d6111f8565b5b906000526020600020015414156103ea576040517f08c379a00000000000000000000000000000000000000000000000000000000081526004016103e1906112fc565b60405180910390fd5b80806103f590611256565b91505061037c565b5060068490806001815401808255809150506001900390600052602060002001600090919091909150553373ffffffffffffffffffffffffffffffffffffffff166108fc670de0b6b3a76400009081150290604051600060405180830381858888f19350505050158015610475573d6000803e3d6000fd5b5050505050565b670de0b6b3a764000034146104c6576040517f08c379a00000000000000000000000000000000000000000000000000000000081526004016104bd90611368565b60405180910390fd5b600581908060018154018082558091505060019003906000526020600020016000909190919091505550565b6005818154811061050257600080fd5b906000526020600020016000915090505481565b6006818154811061052657600080fd5b906000526020600020016000915090505481565b600073ffffffffffffffffffffffffffffffffffffffff82169050919050565b60006105658261053a565b9050919050565b6105758161055a565b82525050565b6000819050919050565b61058e8161057b565b82525050565b60006040820190506105a9600083018561056c565b6105b66020830184610585565b9392505050565b6000604051905090565b600080fd5b600080fd5b6105da8161057b565b81146105e557600080fd5b50565b6000813590506105f7816105d1565b92915050565b600080fd5b6000601f19601f8301169050919050565b7f4e487b7100000000000000000000000000000000000000000000000000000000600052604160045260246000fd5b61064b82610602565b810181811067ffffffffffffffff8211171561066a57610669610613565b5b80604052505050565b600061067d6105bd565b90506106898282610642565b919050565b600080fd5b600080fd5b600067ffffffffffffffff8211156106b3576106b2610613565b5b602082029050602081019050919050565b600080fd5b60006106dc6106d784610698565b610673565b905080838252602082019050602084028301858111156106ff576106fe6106c4565b5b835b81811015610728578061071488826105e8565b845260208401935050602081019050610701565b5050509392505050565b600082601f83011261074757610746610693565b5b81356107578482602086016106c9565b91505092915050565b600067ffffffffffffffff82111561077b5761077a610613565b5b602082029050602081019050919050565b6000819050919050565b61079f8161078c565b81146107aa57600080fd5b50565b6000813590506107bc81610796565b92915050565b600060a082840312156107d8576107d76105fd565b5b6107e260a0610673565b905060006107f2848285016105e8565b6000830152506020610806848285016105e8565b602083015250604061081a848285016107ad565b604083015250606061082e848285016107ad565b6060830152506080610842848285016107ad565b60808301525092915050565b600061086161085c84610760565b610673565b90508083825260208201905060a08402830185811115610884576108836106c4565b5b835b818110156108ad578061089988826107c2565b84526020840193505060a081019050610886565b5050509392505050565b600082601f8301126108cc576108cb610693565b5b81356108dc84826020860161084e565b91505092915050565b600060c082840312156108fb576108fa6105fd565b5b61090560c0610673565b9050600082013567ffffffffffffffff8111156109255761092461068e565b5b61093184828501610732565b600083015250602082013567ffffffffffffffff8111156109555761095461068e565b5b610961848285016108b7565b602083015250604082013567ffffffffffffffff8111156109855761098461068e565b5b61099184828501610732565b604083015250606082013567ffffffffffffffff8111156109b5576109b461068e565b5b6109c184828501610732565b606083015250608082013567ffffffffffffffff8111156109e5576109e461068e565b5b6109f184828501610732565b60808301525060a082013567ffffffffffffffff811115610a1557610a1461068e565b5b610a2184828501610732565b60a08301525092915050565b600067ffffffffffffffff821115610a4857610a47610613565b5b602082029050602081019050919050565b6000610a6c610a6784610a2d565b610673565b90508083825260208201905060208402830185811115610a8f57610a8e6106c4565b5b835b81811015610ab85780610aa488826107ad565b845260208401935050602081019050610a91565b5050509392505050565b600082601f830112610ad757610ad6610693565b5b8135610ae7848260208601610a59565b91505092915050565b600060808284031215610b0657610b056105fd565b5b610b106080610673565b9050600082013567ffffffffffffffff811115610b3057610b2f61068e565b5b610b3c84828501610ac2565b600083015250602082013567ffffffffffffffff811115610b6057610b5f61068e565b5b610b6c84828501610ac2565b602083015250604082013567ffffffffffffffff811115610b9057610b8f61068e565b5b610b9c84828501610ac2565b6040830152506060610bb0848285016107ad565b60608301525092915050565b600060ff82169050919050565b610bd281610bbc565b8114610bdd57600080fd5b50565b600081359050610bef81610bc9565b92915050565b600080600080600060a08688031215610c1157610c106105c7565b5b6000610c1f888289016105e8565b955050602086013567ffffffffffffffff811115610c4057610c3f6105cc565b5b610c4c888289016108e5565b945050604086013567ffffffffffffffff811115610c6d57610c6c6105cc565b5b610c7988828901610af0565b9350506060610c8a88828901610be0565b9250506080610c9b888289016105e8565b9150509295509295909350565b60008060008060808587031215610cc257610cc16105c7565b5b6000610cd0878288016105e8565b945050602085013567ffffffffffffffff811115610cf157610cf06105cc565b5b610cfd878288016108e5565b935050604085013567ffffffffffffffff811115610d1e57610d1d6105cc565b5b610d2a87828801610af0565b9250506060610d3b87828801610be0565b91505092959194509250565b600060208284031215610d5d57610d5c6105c7565b5b6000610d6b848285016105e8565b91505092915050565b6000602082019050610d896000830184610585565b92915050565b600081519050919050565b600082825260208201905092915050565b6000819050602082019050919050565b610dc48161057b565b82525050565b6000610dd68383610dbb565b60208301905092915050565b6000602082019050919050565b6000610dfa82610d8f565b610e048185610d9a565b9350610e0f83610dab565b8060005b83811015610e40578151610e278882610dca565b9750610e3283610de2565b925050600181019050610e13565b5085935050505092915050565b600081519050919050565b600082825260208201905092915050565b6000819050602082019050919050565b610e828161078c565b82525050565b60a082016000820151610e9e6000850182610dbb565b506020820151610eb16020850182610dbb565b506040820151610ec46040850182610e79565b506060820151610ed76060850182610e79565b506080820151610eea6080850182610e79565b50505050565b6000610efc8383610e88565b60a08301905092915050565b6000602082019050919050565b6000610f2082610e4d565b610f2a8185610e58565b9350610f3583610e69565b8060005b83811015610f66578151610f4d8882610ef0565b9750610f5883610f08565b925050600181019050610f39565b5085935050505092915050565b600060c0830160008301518482036000860152610f908282610def565b91505060208301518482036020860152610faa8282610f15565b91505060408301518482036040860152610fc48282610def565b91505060608301518482036060860152610fde8282610def565b91505060808301518482036080860152610ff88282610def565b91505060a083015184820360a08601526110128282610def565b9150508091505092915050565b600081519050919050565b600082825260208201905092915050565b6000819050602082019050919050565b60006110578383610e79565b60208301905092915050565b6000602082019050919050565b600061107b8261101f565b611085818561102a565b93506110908361103b565b8060005b838110156110c15781516110a8888261104b565b97506110b383611063565b925050600181019050611094565b5085935050505092915050565b600060808301600083015184820360008601526110eb8282611070565b915050602083015184820360208601526111058282611070565b9150506040830151848203604086015261111f8282611070565b91505060608301516111346060860182610e79565b508091505092915050565b61114881610bbc565b82525050565b600060608201905081810360008301526111688186610f73565b9050818103602083015261117c81856110ce565b905061118b604083018461113f565b949350505050565b60008115159050919050565b6111a881611193565b81146111b357600080fd5b50565b6000815190506111c58161119f565b92915050565b6000602082840312156111e1576111e06105c7565b5b60006111ef848285016111b6565b91505092915050565b7f4e487b7100000000000000000000000000000000000000000000000000000000600052603260045260246000fd5b7f4e487b7100000000000000000000000000000000000000000000000000000000600052601160045260246000fd5b60006112618261057b565b91507fffffffffffffffffffffffffffffffffffffffffffffffffffffffffffffffff82141561129457611293611227565b5b600182019050919050565b600082825260208201905092915050565b7f54686520636f696e20686173206265656e207370656e74000000000000000000600082015250565b60006112e660178361129f565b91506112f1826112b0565b602082019050919050565b60006020820190508181036000830152611315816112d9565b9050919050565b7f6e65656420746f206d696e74206120636f696e20776974682031206574686572600082015250565b600061135260208361129f565b915061135d8261131c565b602082019050919050565b6000602082019050818103600083015261138181611345565b905091905056fea26469706673582212208a2862f9092fa33ebd4a53c2bfcaea5260099fadff6b342565c87a2d0b54b07864736f6c634300080a003360806040523480156200001157600080fd5b50604051620024a1380380620024a183398181016040528101906200003791906200009d565b83600081905550826001819055508160028190555080600381905550505050506200010f565b600080fd5b6000819050919050565b620000778162000062565b81146200008357600080fd5b50565b60008151905062000097816200006c565b92915050565b60008060008060808587031215620000ba57620000b96200005d565b5b6000620000ca8782880162000086565b9450506020620000dd8782880162000086565b9350506040620000f08782880162000086565b9250506060620001038782880162000086565b91505092959194509250565b612382806200011f6000396000f3fe608060405234801561001057600080fd5b50600436106100ea5760003560e01c80637e58f9011161008c578063a1991acc11610066578063a1991acc146102bb578063a6806d91146102eb578063ab2252061461031b578063b455cb4b1461034b576100ea565b80637e58f9011461022b578063999779691461025b5780639cd479b61461028b576100ea565b80631be57fbb116100c85780631be57fbb1461017f578063229436461461019b57806322b32dfd146101cb57806360c4b7f1146101fb576100ea565b806309f175c1146100ef5780631351df0b1461011f578063156896741461014f575b600080fd5b61010960048036038101906101049190611349565b61037b565b6040516101169190611391565b60405180910390f35b610139600480360381019061013491906113ac565b610431565b60405161014691906113fb565b60405180910390f35b6101696004803603810190610164919061144c565b61047d565b60405161017691906113fb565b60405180910390f35b61019960048036038101906101949190611518565b6104cb565b005b6101b560048036038101906101b09190611591565b610626565b6040516101c291906115e0565b60405180910390f35b6101e560048036038101906101e09190611a62565b61063a565b6040516101f29190611391565b60405180910390f35b610215600480360381019061021091906113ac565b610854565b60405161022291906113fb565b60405180910390f35b61024560048036038101906102409190611aed565b6108a2565b60405161025291906113fb565b60405180910390f35b61027560048036038101906102709190611b36565b61097f565b6040516102829190611391565b60405180910390f35b6102a560048036038101906102a09190611bd5565b610a22565b6040516102b291906113fb565b60405180910390f35b6102d560048036038101906102d09190611c1e565b610c95565b6040516102e291906113fb565b60405180910390f35b610305600480360381019061030091906113ac565b610cb7565b60405161031291906113fb565b60405180910390f35b610335600480360381019061033091906113ac565b610cd8565b60405161034291906113fb565b60405180910390f35b61036560048036038101906103609190611c4b565b610cf6565b60405161037291906113fb565b60405180910390f35b600080826000015190506000836020015190506000846040015190506000856060015190506000866080015190506000600254806103bc576103bb611c8b565b5b6103d583600254600154610d179092919063ffffffff16565b6103ee85600254600054610d179092919063ffffffff16565b0990506000610406866104018988610cb7565b610cd8565b90508082141561042057600197505050505050505061042c565b60009750505050505050505b919050565b6000807fffffffffffffffffffffffffffffffffffffffffffffffffffffffffffffffff90506002548061046857610467611c8b565b5b6104728483610cf6565b850991505092915050565b6000600254806104905761048f611c8b565b5b6104a983600254600154610e319092919063ffffffff16565b6104c285600254600054610e319092919063ffffffff16565b09905092915050565b600081600001519050600082602001519050600083604001519050600084606001519050600085608001519050600087868660405160200161050f93929190611cdb565b6040516020818303038152906040528051906020012060001c73__SafeMath______________________________63f43f523a90916003546040518363ffffffff1660e01b8152600401610564929190611d27565b602060405180830381865af4158015610581573d6000803e3d6000fd5b505050506040513d601f19601f820116820180604052508101906105a59190611d65565b905060006105b3858561047d565b905060006105ca6105c48b85610cb7565b89610cd8565b905060006105d960008661047d565b905060006105fb6105f58d8a886105f09190611dc1565b610cf6565b8a610cd8565b9050828414801561060b57508082145b61061857610617611e55565b5b505050505050505050505050565b600060018260ff1684901c16905092915050565b6000808460000151905060008560400151905060008660a001519050600086600001519050600087606001519050610676848a60200151610e72565b60006106818a610a22565b9050600081905061069e868c60600151868d60200151858e610ed4565b6106b4868c60800151868d60400151858e610fa3565b60006001905060005b88518110156107b05760006001905060005b8c60ff168160ff16101561076c5760016106e98483610626565b60ff16141561072257878160ff168151811061070857610707611e84565b5b60200260200101518261071b9190611eb3565b9150610759565b878160ff168151811061073857610737611e84565b5b60200260200101518561074b9190611dc1565b826107569190611eb3565b91505b808061076490611fca565b9150506106cf565b5061079a836107958c858151811061078757610786611e84565b5b602002602001015184610cf6565b610cd8565b92505080806107a890611ff4565b9150506106bd565b5060005b8a60ff1681101561081557610800826107fb8984815181106107d9576107d8611e84565b5b602002602001015184876107ed919061218c565b6107f6906121f8565b610cf6565b610cd8565b9150808061080d90611ff4565b9150506107b4565b50600061082360008661047d565b90508082141561083f576001995050505050505050505061084d565b600099505050505050505050505b9392505050565b60006002548061086757610866611c8b565b5b61088083600254600154610d179092919063ffffffff16565b61089985600254600054610d179092919063ffffffff16565b09905092915050565b6000806001905060005b83518110156108f857600254806108c6576108c5611c8b565b5b8482815181106108d9576108d8611e84565b5b60200260200101518309915080806108f090611ff4565b9150506108ac565b508073__SafeMath______________________________63f43f523a90916002546040518363ffffffff1660e01b8152600401610936929190611d27565b602060405180830381865af4158015610953573d6000803e3d6000fd5b505050506040513d601f19601f820116820180604052508101906109779190611d65565b915050919050565b6000808460000151905060005b8151811015610a0b576109d98282815181106109ab576109aa611e84565b5b60200260200101516109d46109bf8a61107e565b600254600054610e319092919063ffffffff16565b610cd8565b8282815181106109ec576109eb611e84565b5b6020026020010181815250508080610a0390611ff4565b91505061098c565b50610a1785858561063a565b915050949350505050565b6000808260000151905060008360400151905060008460600151905060008560800151905060008660a0015190506000805b8651811015610aa05760025480610a6e57610a6d611c8b565b5b878281518110610a8157610a80611e84565b5b6020026020010151830891508080610a9890611ff4565b915050610a54565b5060005b8551811015610af05760025480610abe57610abd611c8b565b5b868281518110610ad157610ad0611e84565b5b6020026020010151830891508080610ae890611ff4565b915050610aa4565b5060005b8451811015610b405760025480610b0e57610b0d611c8b565b5b858281518110610b2157610b20611e84565b5b6020026020010151830891508080610b3890611ff4565b915050610af4565b5060005b8351811015610b905760025480610b5e57610b5d611c8b565b5b848281518110610b7157610b70611e84565b5b6020026020010151830891508080610b8890611ff4565b915050610b44565b5060005b8251811015610be05760025480610bae57610bad611c8b565b5b838281518110610bc157610bc0611e84565b5b6020026020010151830891508080610bd890611ff4565b915050610b94565b5080604051602001610bf29190612241565b6040516020818303038152906040528051906020012060001c73__SafeMath______________________________63f43f523a90916003546040518363ffffffff1660e01b8152600401610c47929190611d27565b602060405180830381865af4158015610c64573d6000803e3d6000fd5b505050506040513d601f19601f82011682018060405250810190610c889190611d65565b9650505050505050919050565b6000610cb082600254600054610d179092919063ffffffff16565b9050919050565b6000610cd08260025485610d179092919063ffffffff16565b905092915050565b600060025480610ceb57610cea611c8b565b5b828409905092915050565b6000610d0f8260025485610e319092919063ffffffff16565b905092915050565b600080610d22611199565b610d2a6111bb565b602081600060068110610d4057610d3f611e84565b5b602002018181525050602081600160068110610d5f57610d5e611e84565b5b602002018181525050602081600260068110610d7e57610d7d611e84565b5b6020020181815250508681600360068110610d9c57610d9b611e84565b5b6020020181815250508581600460068110610dba57610db9611e84565b5b6020020181815250508481600560068110610dd857610dd7611e84565b5b60200201818152505060208260c08360056107d05a03fa92508260008114610dff57610e01565bfe5b5082610e0c57600080fd5b81600060018110610e2057610e1f611e84565b5b602002015193505050509392505050565b6000808312610e4c57610e45848484610d17565b9050610e6b565b610e68610e598584611090565b610e6285611150565b84610d17565b90505b9392505050565b60005b8251811015610ecf57610ebc838281518110610e9457610e93611e84565b5b6020026020010151838381518110610eaf57610eae611e84565b5b60200260200101516104cb565b8080610ec790611ff4565b915050610e75565b505050565b60005b8160ff16811015610f9a576000858281518110610ef757610ef6611e84565b5b602002602001015190506000610f4a610f2a8a8581518110610f1c57610f1b611e84565b5b602002602001015187610cf6565b898581518110610f3d57610f3c611e84565b5b6020026020010151610cd8565b90506000610f7283888681518110610f6557610f64611e84565b5b602002602001015161047d565b9050808214610f8457610f83611e55565b5b5050508080610f9290611ff4565b915050610ed7565b50505050505050565b60005b8160ff16811015611075576000858281518110610fc657610fc5611e84565b5b6020026020010151905060006110246110048a8581518110610feb57610fea611e84565b5b60200260200101518488610fff9190611dc1565b610cf6565b89858151811061101757611016611e84565b5b6020026020010151610cd8565b9050600061104d60008886815181106110405761103f611e84565b5b602002602001015161047d565b905080821461105f5761105e611e55565b5b505050808061106d90611ff4565b915050610fa6565b50505050505050565b600061108982611186565b9050919050565b6000818311156110a95781836110a6919061225c565b92505b600080600190506000849050600086905060005b600082146111185781836110d1919061228d565b90508384826110e09190611eb3565b866110eb9190611dc1565b8384846110f891906122be565b866111039190612318565b809550819650829750839850505050506110bd565b60008512156111415761112a85611150565b876111359190612318565b9550505050505061114a565b84955050505050505b92915050565b60008082131561116257819050611181565b600082121561117c5781611175906121f8565b9050611181565b600090505b919050565b600081611192906121f8565b9050919050565b6040518060200160405280600190602082028036833780820191505090505090565b6040518060c00160405280600690602082028036833780820191505090505090565b6000604051905090565b600080fd5b600080fd5b600080fd5b6000601f19601f8301169050919050565b7f4e487b7100000000000000000000000000000000000000000000000000000000600052604160045260246000fd5b61123f826111f6565b810181811067ffffffffffffffff8211171561125e5761125d611207565b5b80604052505050565b60006112716111dd565b905061127d8282611236565b919050565b600080fd5b6000819050919050565b61129a81611287565b81146112a557600080fd5b50565b6000813590506112b781611291565b92915050565b600060a082840312156112d3576112d26111f1565b5b6112dd60a0611267565b905060006112ed848285016112a8565b6000830152506020611301848285016112a8565b6020830152506040611315848285016112a8565b6040830152506060611329848285016112a8565b606083015250608061133d848285016112a8565b60808301525092915050565b600060a0828403121561135f5761135e6111e7565b5b600061136d848285016112bd565b91505092915050565b60008115159050919050565b61138b81611376565b82525050565b60006020820190506113a66000830184611382565b92915050565b600080604083850312156113c3576113c26111e7565b5b60006113d1858286016112a8565b92505060206113e2858286016112a8565b9150509250929050565b6113f581611287565b82525050565b600060208201905061141060008301846113ec565b92915050565b6000819050919050565b61142981611416565b811461143457600080fd5b50565b60008135905061144681611420565b92915050565b60008060408385031215611463576114626111e7565b5b600061147185828601611437565b925050602061148285828601611437565b9150509250929050565b600060a082840312156114a2576114a16111f1565b5b6114ac60a0611267565b905060006114bc848285016112a8565b60008301525060206114d0848285016112a8565b60208301525060406114e484828501611437565b60408301525060606114f884828501611437565b606083015250608061150c84828501611437565b60808301525092915050565b60008060c0838503121561152f5761152e6111e7565b5b600061153d858286016112a8565b925050602061154e8582860161148c565b9150509250929050565b600060ff82169050919050565b61156e81611558565b811461157957600080fd5b50565b60008135905061158b81611565565b92915050565b600080604083850312156115a8576115a76111e7565b5b60006115b6858286016112a8565b92505060206115c78582860161157c565b9150509250929050565b6115da81611558565b82525050565b60006020820190506115f560008301846115d1565b92915050565b600080fd5b600067ffffffffffffffff82111561161b5761161a611207565b5b602082029050602081019050919050565b600080fd5b600061164461163f84611600565b611267565b905080838252602082019050602084028301858111156116675761166661162c565b5b835b81811015611690578061167c88826112a8565b845260208401935050602081019050611669565b5050509392505050565b600082601f8301126116af576116ae6115fb565b5b81356116bf848260208601611631565b91505092915050565b600067ffffffffffffffff8211156116e3576116e2611207565b5b602082029050602081019050919050565b6000611707611702846116c8565b611267565b90508083825260208201905060a0840283018581111561172a5761172961162c565b5b835b81811015611753578061173f888261148c565b84526020840193505060a08101905061172c565b5050509392505050565b600082601f830112611772576117716115fb565b5b81356117828482602086016116f4565b91505092915050565b600060c082840312156117a1576117a06111f1565b5b6117ab60c0611267565b9050600082013567ffffffffffffffff8111156117cb576117ca611282565b5b6117d78482850161169a565b600083015250602082013567ffffffffffffffff8111156117fb576117fa611282565b5b6118078482850161175d565b602083015250604082013567ffffffffffffffff81111561182b5761182a611282565b5b6118378482850161169a565b604083015250606082013567ffffffffffffffff81111561185b5761185a611282565b5b6118678482850161169a565b606083015250608082013567ffffffffffffffff81111561188b5761188a611282565b5b6118978482850161169a565b60808301525060a082013567ffffffffffffffff8111156118bb576118ba611282565b5b6118c78482850161169a565b60a08301525092915050565b600067ffffffffffffffff8211156118ee576118ed611207565b5b602082029050602081019050919050565b600061191261190d846118d3565b611267565b905080838252602082019050602084028301858111156119355761193461162c565b5b835b8181101561195e578061194a8882611437565b845260208401935050602081019050611937565b5050509392505050565b600082601f83011261197d5761197c6115fb565b5b813561198d8482602086016118ff565b91505092915050565b6000608082840312156119ac576119ab6111f1565b5b6119b66080611267565b9050600082013567ffffffffffffffff8111156119d6576119d5611282565b5b6119e284828501611968565b600083015250602082013567ffffffffffffffff811115611a0657611a05611282565b5b611a1284828501611968565b602083015250604082013567ffffffffffffffff811115611a3657611a35611282565b5b611a4284828501611968565b6040830152506060611a5684828501611437565b60608301525092915050565b600080600060608486031215611a7b57611a7a6111e7565b5b600084013567ffffffffffffffff811115611a9957611a986111ec565b5b611aa58682870161178b565b935050602084013567ffffffffffffffff811115611ac657611ac56111ec565b5b611ad286828701611996565b9250506040611ae38682870161157c565b9150509250925092565b600060208284031215611b0357611b026111e7565b5b600082013567ffffffffffffffff811115611b2157611b206111ec565b5b611b2d8482850161169a565b91505092915050565b60008060008060808587031215611b5057611b4f6111e7565b5b6000611b5e878288016112a8565b945050602085013567ffffffffffffffff811115611b7f57611b7e6111ec565b5b611b8b8782880161178b565b935050604085013567ffffffffffffffff811115611bac57611bab6111ec565b5b611bb887828801611996565b9250506060611bc98782880161157c565b91505092959194509250565b600060208284031215611beb57611bea6111e7565b5b600082013567ffffffffffffffff811115611c0957611c086111ec565b5b611c158482850161178b565b91505092915050565b600060208284031215611c3457611c336111e7565b5b6000611c42848285016112a8565b91505092915050565b60008060408385031215611c6257611c616111e7565b5b6000611c70858286016112a8565b9250506020611c8185828601611437565b9150509250929050565b7f4e487b7100000000000000000000000000000000000000000000000000000000600052601260045260246000fd5b6000819050919050565b611cd5611cd082611287565b611cba565b82525050565b6000611ce78286611cc4565b602082019150611cf78285611cc4565b602082019150611d078284611cc4565b602082019150819050949350505050565b611d2181611287565b82525050565b6000604082019050611d3c6000830185611d18565b611d496020830184611d18565b9392505050565b600081519050611d5f81611291565b92915050565b600060208284031215611d7b57611d7a6111e7565b5b6000611d8984828501611d50565b91505092915050565b7f4e487b7100000000000000000000000000000000000000000000000000000000600052601160045260246000fd5b6000611dcc82611416565b9150611dd783611416565b9250827f800000000000000000000000000000000000000000000000000000000000000001821260008412151615611e1257611e11611d92565b5b827f7fffffffffffffffffffffffffffffffffffffffffffffffffffffffffffffff018213600084121615611e4a57611e49611d92565b5b828203905092915050565b7f4e487b7100000000000000000000000000000000000000000000000000000000600052600160045260246000fd5b7f4e487b7100000000000000000000000000000000000000000000000000000000600052603260045260246000fd5b6000611ebe82611416565b9150611ec983611416565b9250827f7fffffffffffffffffffffffffffffffffffffffffffffffffffffffffffffff0482116000841360008413161615611f0857611f07611d92565b5b817f80000000000000000000000000000000000000000000000000000000000000000583126000841260008413161615611f4557611f44611d92565b5b827f80000000000000000000000000000000000000000000000000000000000000000582126000841360008412161615611f8257611f81611d92565b5b827f7fffffffffffffffffffffffffffffffffffffffffffffffffffffffffffffff0582126000841260008412161615611fbf57611fbe611d92565b5b828202905092915050565b6000611fd582611558565b915060ff821415611fe957611fe8611d92565b5b600182019050919050565b6000611fff82611287565b91507fffffffffffffffffffffffffffffffffffffffffffffffffffffffffffffffff82141561203257612031611d92565b5b600182019050919050565b60008160011c9050919050565b6000808291508390505b6001851115612094578086048111156120705761206f611d92565b5b600185161561207f5780820291505b808102905061208d8561203d565b9450612054565b94509492505050565b600082600081146120b557600181146120bf576120c8565b6001915050612184565b82915050612184565b50816120d75760009050612184565b6001905060008213600181146120f4576000811461210c57612120565b82860483111561210757612106611d92565b5b612120565b82860583121561211f5761211e611d92565b5b5b50600183161561212e578190505b818202915061213c8361203d565b925061214a8584848461204a565b92509050818504811160008213161561216657612165611d92565b5b818405811260008212161561217e5761217d611d92565b5b81810290505b949350505050565b600061219782611416565b91506121a283611287565b92506121f07f7fffffffffffffffffffffffffffffffffffffffffffffffffffffffffffffff7f8000000000000000000000000000000000000000000000000000000000000000858561209d565b905092915050565b600061220382611416565b91507f800000000000000000000000000000000000000000000000000000000000000082141561223657612235611d92565b5b816000039050919050565b600061224d8284611cc4565b60208201915081905092915050565b600061226782611287565b915061227283611287565b92508261228257612281611c8b565b5b828206905092915050565b600061229882611287565b91506122a383611287565b9250826122b3576122b2611c8b565b5b828204905092915050565b60006122c982611287565b91506122d483611287565b9250817fffffffffffffffffffffffffffffffffffffffffffffffffffffffffffffffff048311821515161561230d5761230c611d92565b5b828202905092915050565b600061232382611287565b915061232e83611287565b92508282101561234157612340611d92565b5b82820390509291505056fea264697066735822122077202f99d18ad078bc245f9d7f40805c6d3e6c4fdf052bd7199f1f51dd40dab664736f6c634300080a0033",
  "immutableReferences": {},
  "source": "// SPDX-License-Identifier: GPL-3.0\r\npragma solidity ^0.8.0;\r\npragma experimental ABIEncoderV2;\r\n\r\nimport \"./Pedersen.sol\";\r\n\r\ncontract ZeroCoin {\r\n\r\n    uint private k = 1173792922; \r\n    uint private q = 29645808988800697353566862307331691561207478437311896149463650348773872465515;\r\n    uint private g = 2090583907;\r\n    uint private h = 642996076579571851939547582363769362446679167969816015137470108219624530351;\r\n\tPedersen private pedersen;\r\n\r\n\tevent CreditsReceived(address addr, uint value);\r\n\r\n\tuint[] public mintedCoins;\r\n\tuint[] public spentCoins;\r\n\tconstructor() payable{\r\n\t\tpedersen = new Pedersen(g,h,q,k);\r\n\t\t//require (msg.sender != tx.origin, \"Only smart contracts are allowed to initiate this call\");\r\n\t}\r\n\r\n\t//mint a new zerocoin with an ether\r\n\tfunction mint(uint coin) public payable{\r\n\t\trequire (msg.value == 1 ether, \"need to mint a coin with 1 ether\");\r\n\t\tmintedCoins.push(coin);\r\n\t}\r\n\r\n\t//burn a zerocoin and redeem back to an ether\r\n\tfunction spendnRedeem(uint serialNo, Zkp1N1 memory zkp1, Zkp1N2 memory zkp2, uint8 nbits) public{\r\n\t\trequire(pedersen.verifyZkpOneOfMany(zkp1, zkp2, nbits));\r\n\t\tfor(uint i = 0; i < spentCoins.length; i++){\r\n\t\t\trequire(spentCoins[i] != serialNo, \"The coin has been spent\");\r\n\t\t}\r\n\t\tspentCoins.push(serialNo);\r\n\t\tpayable(msg.sender).transfer(1 ether);\r\n\t}\r\n\r\n\t//burn an old zerocoin and mint a new one\r\n\tfunction spendnRemint(uint serialNo, Zkp1N1 memory zkp1, Zkp1N2 memory zkp2, uint8 nbits, uint newCoin) public{\r\n\t\trequire(pedersen.verifyZkpOneOfMany(zkp1, zkp2, nbits));\r\n\t\tfor(uint i = 0; i < spentCoins.length; i++){\r\n\t\t\trequire(spentCoins[i] != serialNo);\r\n\t\t}\r\n\t\tspentCoins.push(serialNo);\r\n\t\tmintedCoins.push(newCoin);\r\n\t}\r\n\r\n    //fallback function\r\n    receive() payable external{\r\n        emit CreditsReceived(msg.sender, msg.value);\r\n    }\r\n\r\n}",
  "sourcePath": "C:\\Users\\u5773751\\OneDrive - Australian National University\\contracts\\contracts\\ZeroCoin.sol",
  "compiler": {
    "name": "solc",
    "version": "0.8.10+commit.fc410830.Emscripten.clang"
  },
  "schemaVersion": "3.4.3",
  "updatedAt": "2021-12-20T09:36:46.702Z",
  "devdoc": {
    "kind": "dev",
    "methods": {},
    "version": 1
  },
  "userdoc": {
    "kind": "user",
    "methods": {},
    "version": 1
  }
}